{
  "address": "0x47f4d1758Ff36CaA0a7B75edd882099C265f868F",
  "abi": [
    {
      "inputs": [],
      "stateMutability": "nonpayable",
      "type": "constructor"
    },
    {
      "inputs": [
        {
          "internalType": "address",
          "name": "have",
          "type": "address"
        },
        {
          "internalType": "address",
          "name": "want",
          "type": "address"
        }
      ],
      "name": "OnlyCoordinatorCanFulfill",
      "type": "error"
    },
    {
      "anonymous": false,
      "inputs": [
        {
          "indexed": false,
          "internalType": "address",
          "name": "previousAdmin",
          "type": "address"
        },
        {
          "indexed": false,
          "internalType": "address",
          "name": "newAdmin",
          "type": "address"
        }
      ],
      "name": "AdminChanged",
      "type": "event"
    },
    {
      "anonymous": false,
      "inputs": [
        {
          "indexed": true,
          "internalType": "address",
          "name": "beacon",
          "type": "address"
        }
      ],
      "name": "BeaconUpgraded",
      "type": "event"
    },
    {
      "anonymous": false,
      "inputs": [
        {
          "indexed": false,
          "internalType": "address",
          "name": "account",
          "type": "address"
        },
        {
          "indexed": false,
          "internalType": "uint256",
          "name": "amount",
          "type": "uint256"
        }
      ],
      "name": "GetReward",
      "type": "event"
    },
    {
      "anonymous": false,
      "inputs": [
        {
          "indexed": false,
          "internalType": "uint8",
          "name": "version",
          "type": "uint8"
        }
      ],
      "name": "Initialized",
      "type": "event"
    },
    {
      "anonymous": false,
      "inputs": [
        {
          "indexed": false,
          "internalType": "address",
          "name": "account",
          "type": "address"
        },
        {
          "indexed": false,
          "internalType": "uint256",
          "name": "amount",
          "type": "uint256"
        }
      ],
      "name": "InjectReleaseReward",
      "type": "event"
    },
    {
      "anonymous": false,
      "inputs": [
        {
          "indexed": true,
          "internalType": "bytes32",
          "name": "opHash",
          "type": "bytes32"
        }
      ],
      "name": "OperationAdded",
      "type": "event"
    },
    {
      "anonymous": false,
      "inputs": [
        {
          "indexed": true,
          "internalType": "address",
          "name": "previousOwner",
          "type": "address"
        },
        {
          "indexed": true,
          "internalType": "address",
          "name": "newOwner",
          "type": "address"
        }
      ],
      "name": "OwnershipTransferred",
      "type": "event"
    },
    {
      "anonymous": false,
      "inputs": [
        {
          "indexed": false,
          "internalType": "uint256",
          "name": "requestId",
          "type": "uint256"
        },
        {
          "indexed": false,
          "internalType": "uint256[]",
          "name": "randomWords",
          "type": "uint256[]"
        }
      ],
      "name": "RequestFulfilled",
      "type": "event"
    },
    {
      "anonymous": false,
      "inputs": [
        {
          "indexed": false,
          "internalType": "uint256",
          "name": "requestId",
          "type": "uint256"
        },
        {
          "indexed": false,
          "internalType": "uint32",
          "name": "numWords",
          "type": "uint32"
        }
      ],
      "name": "RequestSent",
      "type": "event"
    },
    {
      "anonymous": false,
      "inputs": [
        {
          "indexed": true,
          "internalType": "address",
          "name": "implementation",
          "type": "address"
        }
      ],
      "name": "Upgraded",
      "type": "event"
    },
    {
      "anonymous": false,
      "inputs": [
        {
          "indexed": false,
          "internalType": "address",
          "name": "account",
          "type": "address"
        },
        {
          "indexed": false,
          "internalType": "uint256",
          "name": "amount",
          "type": "uint256"
        }
      ],
      "name": "WithdrawReleasedReward",
      "type": "event"
    },
    {
      "inputs": [
        {
          "internalType": "bytes32",
          "name": "opHash",
          "type": "bytes32"
        },
        {
          "internalType": "bytes[]",
          "name": "sigs",
          "type": "bytes[]"
        }
      ],
      "name": "AddOpHashToPending",
      "outputs": [],
      "stateMutability": "nonpayable",
      "type": "function"
    },
    {
      "inputs": [],
      "name": "ERC20Token",
      "outputs": [
        {
          "internalType": "contract IERC20",
          "name": "",
          "type": "address"
        }
      ],
      "stateMutability": "view",
      "type": "function"
    },
    {
      "inputs": [
        {
          "internalType": "bytes32",
          "name": "data",
          "type": "bytes32"
        }
      ],
      "name": "HashToSign",
      "outputs": [
        {
          "internalType": "bytes32",
          "name": "",
          "type": "bytes32"
        }
      ],
      "stateMutability": "pure",
      "type": "function"
    },
    {
      "inputs": [],
      "name": "Spender",
      "outputs": [
        {
          "internalType": "address",
          "name": "",
          "type": "address"
        }
      ],
      "stateMutability": "view",
      "type": "function"
    },
    {
      "inputs": [],
      "name": "callbackGasLimit",
      "outputs": [
        {
          "internalType": "uint32",
          "name": "",
          "type": "uint32"
        }
      ],
      "stateMutability": "view",
      "type": "function"
    },
    {
      "inputs": [
        {
          "internalType": "address",
          "name": "receiver",
          "type": "address"
        }
      ],
      "name": "checkReleased",
      "outputs": [
        {
          "internalType": "uint256",
          "name": "",
          "type": "uint256"
        }
      ],
      "stateMutability": "view",
      "type": "function"
    },
    {
      "inputs": [
        {
          "internalType": "address",
          "name": "user",
          "type": "address"
        }
      ],
      "name": "futureReleaseData",
      "outputs": [
        {
          "components": [
            {
              "internalType": "uint256",
              "name": "date",
              "type": "uint256"
            },
            {
              "internalType": "uint256",
              "name": "amount",
              "type": "uint256"
            }
          ],
          "internalType": "struct ActivityReward.FutureReleaseData[]",
          "name": "",
          "type": "tuple[]"
        }
      ],
      "stateMutability": "view",
      "type": "function"
    },
    {
      "inputs": [
        {
          "internalType": "uint256",
          "name": "nonce_",
          "type": "uint256"
        }
      ],
      "name": "getFreeReward",
      "outputs": [],
      "stateMutability": "nonpayable",
      "type": "function"
    },
    {
      "inputs": [
        {
          "internalType": "address",
          "name": "to",
          "type": "address"
        },
        {
          "internalType": "uint256",
          "name": "nonce_",
          "type": "uint256"
        }
      ],
      "name": "getFreeRewardHash",
      "outputs": [
        {
          "internalType": "bytes32",
          "name": "",
          "type": "bytes32"
        }
      ],
      "stateMutability": "view",
      "type": "function"
    },
    {
      "inputs": [
        {
          "internalType": "address",
          "name": "to",
          "type": "address"
        },
        {
          "internalType": "uint256",
          "name": "nonce_",
          "type": "uint256"
        }
      ],
      "name": "getFreeRewardTo",
      "outputs": [],
      "stateMutability": "nonpayable",
      "type": "function"
    },
    {
      "inputs": [
        {
          "internalType": "uint256",
          "name": "nonce_",
          "type": "uint256"
        }
      ],
      "name": "getMultipleReward",
      "outputs": [],
      "stateMutability": "nonpayable",
      "type": "function"
    },
    {
      "inputs": [
        {
          "internalType": "address",
          "name": "to",
          "type": "address"
        },
        {
          "internalType": "uint256",
          "name": "nonce_",
          "type": "uint256"
        }
      ],
      "name": "getMultipleRewardHash",
      "outputs": [
        {
          "internalType": "bytes32",
          "name": "",
          "type": "bytes32"
        }
      ],
      "stateMutability": "view",
      "type": "function"
    },
    {
      "inputs": [
        {
          "internalType": "address",
          "name": "to",
          "type": "address"
        },
        {
          "internalType": "uint256",
          "name": "nonce_",
          "type": "uint256"
        }
      ],
      "name": "getMultipleRewardTo",
      "outputs": [],
      "stateMutability": "nonpayable",
      "type": "function"
    },
    {
      "inputs": [
        {
          "internalType": "address[]",
          "name": "owners",
          "type": "address[]"
        },
        {
          "internalType": "uint8",
          "name": "signRequred",
          "type": "uint8"
        },
        {
          "internalType": "address",
          "name": "vrfCoordinatorAddress_",
          "type": "address"
        }
      ],
      "name": "initialize",
      "outputs": [],
      "stateMutability": "nonpayable",
      "type": "function"
    },
    {
      "inputs": [
        {
          "internalType": "address",
          "name": "receiver",
          "type": "address"
        },
        {
          "internalType": "uint256",
          "name": "amount",
          "type": "uint256"
        },
        {
          "internalType": "uint256",
          "name": "nonce",
          "type": "uint256"
        }
      ],
      "name": "injectReleaseReward",
      "outputs": [],
      "stateMutability": "nonpayable",
      "type": "function"
    },
    {
      "inputs": [
        {
          "internalType": "address",
          "name": "receiver",
          "type": "address"
        },
        {
          "internalType": "uint256",
          "name": "amount",
          "type": "uint256"
        },
        {
          "internalType": "uint256",
          "name": "nonce_",
          "type": "uint256"
        }
      ],
      "name": "injectReleaseRewardHash",
      "outputs": [
        {
          "internalType": "bytes32",
          "name": "",
          "type": "bytes32"
        }
      ],
      "stateMutability": "view",
      "type": "function"
    },
    {
      "inputs": [
        {
          "internalType": "address",
          "name": "receiver",
          "type": "address"
        },
        {
          "internalType": "uint256",
          "name": "amount",
          "type": "uint256"
        }
      ],
      "name": "injectionIncomeAndPool",
      "outputs": [
        {
          "internalType": "uint256",
          "name": "income",
          "type": "uint256"
        },
        {
          "internalType": "uint256",
          "name": "pool",
          "type": "uint256"
        }
      ],
      "stateMutability": "view",
      "type": "function"
    },
    {
      "inputs": [],
      "name": "keyHash",
      "outputs": [
        {
          "internalType": "bytes32",
          "name": "",
          "type": "bytes32"
        }
      ],
      "stateMutability": "view",
      "type": "function"
    },
    {
      "inputs": [],
      "name": "maxNumOwners",
      "outputs": [
        {
          "internalType": "uint8",
          "name": "",
          "type": "uint8"
        }
      ],
      "stateMutability": "view",
      "type": "function"
    },
    {
      "inputs": [],
      "name": "nonce",
      "outputs": [
        {
          "internalType": "uint256",
          "name": "",
          "type": "uint256"
        }
      ],
      "stateMutability": "view",
      "type": "function"
    },
    {
      "inputs": [
        {
          "internalType": "bytes32",
          "name": "",
          "type": "bytes32"
        }
      ],
      "name": "operationsStatus",
      "outputs": [
        {
          "internalType": "enum SafeOwnableUpgradeable.OpStatus",
          "name": "",
          "type": "uint8"
        }
      ],
      "stateMutability": "view",
      "type": "function"
    },
    {
      "inputs": [],
      "name": "owners",
      "outputs": [
        {
          "internalType": "address[6]",
          "name": "",
          "type": "address[6]"
        }
      ],
      "stateMutability": "view",
      "type": "function"
    },
    {
      "inputs": [],
      "name": "proxiableUUID",
      "outputs": [
        {
          "internalType": "bytes32",
          "name": "",
          "type": "bytes32"
        }
      ],
      "stateMutability": "view",
      "type": "function"
    },
    {
      "inputs": [
        {
          "internalType": "uint256",
          "name": "requestId",
          "type": "uint256"
        },
        {
          "internalType": "uint256[]",
          "name": "randomWords",
          "type": "uint256[]"
        }
      ],
      "name": "rawFulfillRandomWords",
      "outputs": [],
      "stateMutability": "nonpayable",
      "type": "function"
    },
    {
      "inputs": [
        {
          "internalType": "address",
          "name": "user",
          "type": "address"
        }
      ],
      "name": "releaseRewardInfo",
      "outputs": [
        {
          "internalType": "uint256",
          "name": "firstInjectTime",
          "type": "uint256"
        },
        {
          "internalType": "uint256",
          "name": "pool",
          "type": "uint256"
        }
      ],
      "stateMutability": "view",
      "type": "function"
    },
    {
      "inputs": [
        {
          "internalType": "address",
          "name": "user",
          "type": "address"
        }
      ],
      "name": "releaseRewardInserted",
      "outputs": [
        {
          "internalType": "bool",
          "name": "",
          "type": "bool"
        }
      ],
      "stateMutability": "view",
      "type": "function"
    },
    {
      "inputs": [
        {
          "internalType": "address",
          "name": "user",
          "type": "address"
        }
      ],
      "name": "releaseRewardRecord",
      "outputs": [
        {
          "components": [
            {
              "internalType": "uint256",
              "name": "firstInjectTime",
              "type": "uint256"
            },
            {
              "internalType": "uint256",
              "name": "lastReleaseTime",
              "type": "uint256"
            },
            {
              "internalType": "uint256",
              "name": "pool",
              "type": "uint256"
            }
          ],
          "internalType": "struct ActivityReward.SlowlyReleaseReward",
          "name": "",
          "type": "tuple"
        }
      ],
      "stateMutability": "view",
      "type": "function"
    },
    {
      "inputs": [
        {
          "internalType": "uint256",
          "name": "",
          "type": "uint256"
        }
      ],
      "name": "requests",
      "outputs": [
        {
          "internalType": "address",
          "name": "user",
          "type": "address"
        },
        {
          "internalType": "uint256",
          "name": "randomWord",
          "type": "uint256"
        },
        {
          "internalType": "bool",
          "name": "fulfilled",
          "type": "bool"
        },
        {
          "internalType": "bool",
          "name": "exists",
          "type": "bool"
        }
      ],
      "stateMutability": "view",
      "type": "function"
    },
    {
      "inputs": [
        {
          "internalType": "uint32",
          "name": "callbackGasLimit_",
          "type": "uint32"
        },
        {
          "internalType": "uint64",
          "name": "subscribeId_",
          "type": "uint64"
        },
        {
          "internalType": "bytes32",
          "name": "keyHash_",
          "type": "bytes32"
        },
        {
          "internalType": "uint16",
          "name": "requestConfirmations_",
          "type": "uint16"
        }
      ],
      "name": "setChainlink",
      "outputs": [],
      "stateMutability": "nonpayable",
      "type": "function"
    },
    {
      "inputs": [
        {
          "internalType": "address",
          "name": "token",
          "type": "address"
        }
      ],
      "name": "setERC20",
      "outputs": [],
      "stateMutability": "nonpayable",
      "type": "function"
    },
    {
      "inputs": [
        {
          "internalType": "address",
          "name": "user",
          "type": "address"
        },
        {
          "internalType": "bool",
          "name": "isInserted",
          "type": "bool"
        }
      ],
      "name": "setReleaseRewardInserted",
      "outputs": [],
      "stateMutability": "nonpayable",
      "type": "function"
    },
    {
      "inputs": [
        {
          "internalType": "address",
          "name": "user",
          "type": "address"
        },
        {
          "internalType": "uint256",
          "name": "firstInjectTime",
          "type": "uint256"
        },
        {
          "internalType": "uint256",
          "name": "lastReleaseTime",
          "type": "uint256"
        },
        {
          "internalType": "uint256",
          "name": "pool",
          "type": "uint256"
        }
      ],
      "name": "setReleaseRewardRecord",
      "outputs": [],
      "stateMutability": "nonpayable",
      "type": "function"
    },
    {
      "inputs": [
        {
          "internalType": "address",
          "name": "newSpender",
          "type": "address"
        }
      ],
      "name": "setSpender",
      "outputs": [],
      "stateMutability": "nonpayable",
      "type": "function"
    },
    {
      "inputs": [],
      "name": "signRequired",
      "outputs": [
        {
          "internalType": "uint8",
          "name": "",
          "type": "uint8"
        }
      ],
      "stateMutability": "view",
      "type": "function"
    },
    {
      "inputs": [],
      "name": "subscriptionId",
      "outputs": [
        {
          "internalType": "uint64",
          "name": "",
          "type": "uint64"
        }
      ],
      "stateMutability": "view",
      "type": "function"
    },
    {
      "inputs": [
        {
          "internalType": "address",
          "name": "newOwner",
          "type": "address"
        }
      ],
      "name": "transferOwnership",
      "outputs": [],
      "stateMutability": "nonpayable",
      "type": "function"
    },
    {
      "inputs": [
        {
          "internalType": "address",
          "name": "newImplementation",
          "type": "address"
        }
      ],
      "name": "upgradeTo",
      "outputs": [],
      "stateMutability": "nonpayable",
      "type": "function"
    },
    {
      "inputs": [
        {
          "internalType": "address",
          "name": "newImplementation",
          "type": "address"
        },
        {
          "internalType": "bytes",
          "name": "data",
          "type": "bytes"
        }
      ],
      "name": "upgradeToAndCall",
      "outputs": [],
      "stateMutability": "payable",
      "type": "function"
    },
    {
      "inputs": [],
      "name": "withdrawReleasedReward",
      "outputs": [],
      "stateMutability": "nonpayable",
      "type": "function"
    },
    {
      "inputs": [
        {
          "internalType": "address",
          "name": "to",
          "type": "address"
        }
      ],
      "name": "withdrawReleasedRewardTo",
      "outputs": [],
      "stateMutability": "nonpayable",
      "type": "function"
    }
  ],
  "transactionHash": "0x01c639a341f605e92d49ef07bda2129fa133577c34f0483c0b8a48f8ea958cf8",
  "args": [],
  "numDeployments": 1,
  "solcInputHash": "d4e963fefde0e06fc0380507c17a70cb",
  "bytecode": "0x60a0604052306080523480156200001557600080fd5b50600054610100900460ff1615808015620000375750600054600160ff909116105b8062000067575062000054306200014160201b62001f0f1760201c565b15801562000067575060005460ff166001145b620000cf5760405162461bcd60e51b815260206004820152602e60248201527f496e697469616c697a61626c653a20636f6e747261637420697320616c72656160448201526d191e481a5b9a5d1a585b1a5e995960921b606482015260840160405180910390fd5b6000805460ff191660011790558015620000f3576000805461ff0019166101001790555b80156200013a576000805461ff0019169055604051600181527f7f26b83ff96e1f2b6a682f133852f6798a09c465da95921460cefb38474024989060200160405180910390a15b5062000150565b6001600160a01b03163b151590565b608051613fe26200018860003960008181610cef01528181610d8501528181610fd50152818161106b01526111620152613fe26000f3fe6080604052600436106102bb5760003560e01c80637d281ec71161016e578063c09d9b6e116100cb578063ce0d0ca01161007f578063eb53a05711610064578063eb53a057146108e4578063f2fde38b14610904578063f8b691f21461092457600080fd5b8063ce0d0ca014610887578063d9c10af6146108c457600080fd5b8063c29a6fda116100b0578063c29a6fda146107f1578063c4cb526714610811578063cc8ef32e1461083e57600080fd5b8063c09d9b6e146107bc578063c0a385f7146107dc57600080fd5b8063a5c2006011610122578063afbcc8b211610107578063afbcc8b214610764578063affe39c114610784578063affed0e0146107a657600080fd5b8063a5c2006014610724578063ada1a4791461074457600080fd5b806381d12c581161015357806381d12c581461063e5780638369df0f146106c25780638b5a21431461070457600080fd5b80637d281ec7146105e05780637e716f231461060057600080fd5b80633ecd7c131161021c57806375f3958c116101d057806377a1efb5116101b557806377a1efb5146105695780637a29349d146105895780637a80760e146105a857600080fd5b806375f3958c146104db57806376d99a671461054957600080fd5b80634f1ef286116102015780634f1ef2861461049d57806352d1902d146104b057806361728f39146104c557600080fd5b80633ecd7c1314610448578063444392091461047d57600080fd5b80631fe543e31161027357806324f746971161025857806324f74697146103d657806325d2cbd0146104085780633659cfe61461042857600080fd5b80631fe543e31461039657806323b4be68146103b657600080fd5b80630c3515ba116102a45780630c3515ba1461032d5780630c81df01146103545780631c5620bc1461037657600080fd5b806304ff0590146102c057806309c1ba2e146102f3575b600080fd5b3480156102cc57600080fd5b506102e06102db3660046137fa565b610942565b6040519081526020015b60405180910390f35b3480156102ff57600080fd5b5060a5546103149067ffffffffffffffff1681565b60405167ffffffffffffffff90911681526020016102ea565b34801561033957600080fd5b50610342600581565b60405160ff90911681526020016102ea565b34801561036057600080fd5b5061037461036f366004613815565b610a4d565b005b34801561038257600080fd5b506102e0610391366004613885565b610b4e565b3480156103a257600080fd5b506103746103b1366004613923565b610bce565b3480156103c257600080fd5b506103746103d13660046139d3565b610c35565b3480156103e257600080fd5b5060a7546103f39063ffffffff1681565b60405163ffffffff90911681526020016102ea565b34801561041457600080fd5b50610374610423366004613a0a565b610cd7565b34801561043457600080fd5b506103746104433660046137fa565b610ce4565b34801561045457600080fd5b50610468610463366004613a23565b610e7f565b604080519283526020830191909152016102ea565b34801561048957600080fd5b506103746104983660046137fa565b610f24565b6103746104ab366004613abd565b610fca565b3480156104bc57600080fd5b506102e0611155565b3480156104d157600080fd5b506102e060a65481565b3480156104e757600080fd5b506102e06104f6366004613a0a565b6040517f19457468657265756d205369676e6564204d6573736167653a0a3332000000006020820152603c8101829052600090605c01604051602081830303815290604052805190602001209050919050565b34801561055557600080fd5b506103746105643660046137fa565b61121a565b34801561057557600080fd5b50610374610584366004613b0b565b61129a565b34801561059557600080fd5b50609e5461034290610100900460ff1681565b3480156105b457600080fd5b5060a2546105c8906001600160a01b031681565b6040516001600160a01b0390911681526020016102ea565b3480156105ec57600080fd5b506103746105fb366004613a0a565b611358565b34801561060c57600080fd5b5061046861061b3660046137fa565b6001600160a01b0316600090815260a96020526040902080546002909101549091565b34801561064a57600080fd5b50610690610659366004613a0a565b60a8602052600090815260409020805460018201546002909201546001600160a01b03909116919060ff8082169161010090041684565b604080516001600160a01b039095168552602085019390935290151591830191909152151560608201526080016102ea565b3480156106ce57600080fd5b506106e26106dd3660046137fa565b611362565b60408051825181526020808401519082015291810151908201526060016102ea565b34801561071057600080fd5b5061037461071f366004613b44565b6113c8565b34801561073057600080fd5b506102e061073f366004613a23565b6116f7565b34801561075057600080fd5b5061037461075f366004613a23565b611778565b34801561077057600080fd5b5061037461077f366004613885565b611782565b34801561079057600080fd5b50610799611a46565b6040516102ea9190613c01565b3480156107b257600080fd5b506102e060a05481565b3480156107c857600080fd5b506102e06107d7366004613a23565b611a8b565b3480156107e857600080fd5b50610374611aee565b3480156107fd57600080fd5b5061037461080c3660046137fa565b611af9565b34801561081d57600080fd5b5061083161082c3660046137fa565b611b9f565b6040516102ea9190613c3b565b34801561084a57600080fd5b506108776108593660046137fa565b6001600160a01b0316600090815260aa602052604090205460ff1690565b60405190151581526020016102ea565b34801561089357600080fd5b506108b76108a2366004613a0a565b609f6020526000908152604090205460ff1681565b6040516102ea9190613ca0565b3480156108d057600080fd5b506103746108df366004613a23565b611bb0565b3480156108f057600080fd5b506103746108ff366004613cd9565b611bba565b34801561091057600080fd5b5061037461091f3660046137fa565b611d84565b34801561093057600080fd5b5060a3546001600160a01b03166105c8565b6001600160a01b038116600090815260aa602052604081205460ff16158061099057506001600160a01b038216600090815260a9602052604090205462278d009061098d9042613da9565b11155b1561099d57506000919050565b6000806109a984611f1e565b905060005b8151811015610a4457428282815181106109ca576109ca613dc0565b60200260200101516000015111806109ff57508181815181106109ef576109ef613dc0565b6020026020010151600001516000145b15610a0957610a44565b818181518110610a1b57610a1b613dc0565b60200260200101516020015183610a329190613dd6565b9250610a3d81613dee565b90506109ae565b50909392505050565b336000908152609d602052604090205460ff16610ac95760405162461bcd60e51b815260206004820152602f60248201527f536166654f776e61626c655570677261646561626c653a2063616c6c6572206960448201526e39903737ba103a34329037bbb732b960891b60648201526084015b60405180910390fd5b60a7805460a5805467ffffffffffffffff9096167fffffffffffffffffffffffffffffffffffffffffffffffff00000000000000009096169590951790945560a69290925561ffff16640100000000027fffffffffffffffffffffffffffffffffffffffffffffffffffff00000000000090921663ffffffff90931692909217179055565b60a4546040805160208101929092527fafbcc8b20b97b668c2e3e22ebe12a4bcf56de63832804a44009120e16da19ffb90820152606084811b6bffffffffffffffffffffffff191690820152607481018390526094810182905260009060b4016040516020818303038152906040528051906020012090505b9392505050565b60a1546001600160a01b03163314610c275760a1546040517f1cf993f40000000000000000000000000000000000000000000000000000000081523360048201526001600160a01b039091166024820152604401610ac0565b610c318282612078565b5050565b336000908152609d602052604090205460ff16610cac5760405162461bcd60e51b815260206004820152602f60248201527f536166654f776e61626c655570677261646561626c653a2063616c6c6572206960448201526e39903737ba103a34329037bbb732b960891b6064820152608401610ac0565b6001600160a01b0391909116600090815260aa60205260409020805460ff1916911515919091179055565b610ce13382612224565b50565b306001600160a01b037f0000000000000000000000000000000000000000000000000000000000000000161415610d835760405162461bcd60e51b815260206004820152602c60248201527f46756e6374696f6e206d7573742062652063616c6c6564207468726f7567682060448201527f64656c656761746563616c6c00000000000000000000000000000000000000006064820152608401610ac0565b7f00000000000000000000000000000000000000000000000000000000000000006001600160a01b0316610dde7f360894a13ba1a3210667c828492db98dca3e2076cc3735a920a3ca505d382bbc546001600160a01b031690565b6001600160a01b031614610e5a5760405162461bcd60e51b815260206004820152602c60248201527f46756e6374696f6e206d7573742062652063616c6c6564207468726f7567682060448201527f6163746976652070726f787900000000000000000000000000000000000000006064820152608401610ac0565b610e63816122f9565b60408051600080825260208201909252610ce191839190612370565b6001600160a01b038216600090815260aa6020526040812054819060ff1615610ecc576001600160a01b038416600090815260a96020526040902060020154610ec9908490613dd6565b92505b610ed7601484613e1f565b91506706f05b59d3b20000821015610ef5576706f05b59d3b2000091505b6000610f018385613da9565b1015610f105790506000610f1d565b610f1a8284613da9565b90505b9250929050565b336000908152609d602052604090205460ff16610f9b5760405162461bcd60e51b815260206004820152602f60248201527f536166654f776e61626c655570677261646561626c653a2063616c6c6572206960448201526e39903737ba103a34329037bbb732b960891b6064820152608401610ac0565b60a3805473ffffffffffffffffffffffffffffffffffffffff19166001600160a01b0392909216919091179055565b306001600160a01b037f00000000000000000000000000000000000000000000000000000000000000001614156110695760405162461bcd60e51b815260206004820152602c60248201527f46756e6374696f6e206d7573742062652063616c6c6564207468726f7567682060448201527f64656c656761746563616c6c00000000000000000000000000000000000000006064820152608401610ac0565b7f00000000000000000000000000000000000000000000000000000000000000006001600160a01b03166110c47f360894a13ba1a3210667c828492db98dca3e2076cc3735a920a3ca505d382bbc546001600160a01b031690565b6001600160a01b0316146111405760405162461bcd60e51b815260206004820152602c60248201527f46756e6374696f6e206d7573742062652063616c6c6564207468726f7567682060448201527f6163746976652070726f787900000000000000000000000000000000000000006064820152608401610ac0565b611149826122f9565b610c3182826001612370565b6000306001600160a01b037f000000000000000000000000000000000000000000000000000000000000000016146111f55760405162461bcd60e51b815260206004820152603860248201527f555550535570677261646561626c653a206d757374206e6f742062652063616c60448201527f6c6564207468726f7567682064656c656761746563616c6c00000000000000006064820152608401610ac0565b507f360894a13ba1a3210667c828492db98dca3e2076cc3735a920a3ca505d382bbc90565b336000908152609d602052604090205460ff166112915760405162461bcd60e51b815260206004820152602f60248201527f536166654f776e61626c655570677261646561626c653a2063616c6c6572206960448201526e39903737ba103a34329037bbb732b960891b6064820152608401610ac0565b610ce18161251f565b336000908152609d602052604090205460ff166113115760405162461bcd60e51b815260206004820152602f60248201527f536166654f776e61626c655570677261646561626c653a2063616c6c6572206960448201526e39903737ba103a34329037bbb732b960891b6064820152608401610ac0565b6040805160608101825293845260208085019384528482019283526001600160a01b03909516600090815260a9909552909320915182555160018201559051600290910155565b610ce13382612632565b61138660405180606001604052806000815260200160008152602001600081525090565b506001600160a01b0316600090815260a96020908152604091829020825160608101845281548152600182015492810192909252600201549181019190915290565b818160006113d46137c0565b336000908152609d602052604090205460ff161561143f57816113f681613e33565b925050600181609d60006114073390565b6001600160a01b0316815260208101919091526040016000205460ff166006811061143457611434613dc0565b911515602090920201525b60005b83518160ff16101561157f57600061147f858360ff168151811061146857611468613dc0565b6020026020010151876126fb90919063ffffffff16565b6001600160a01b0381166000908152609d602052604090205490915060ff16806115115760405162461bcd60e51b815260206004820152602b60248201527f536166654f776e61626c655570677261646561626c653a207369676e6572206960448201527f73206e6f74206f776e65720000000000000000000000000000000000000000006064820152608401610ac0565b838160ff166006811061152657611526613dc0565b602002015115156001141561153c57505061156d565b6001848260ff166006811061155357611553613dc0565b911515602090920201528461156781613e33565b95505050505b8061157781613e33565b915050611442565b50609e5460ff610100909104811690831610156116045760405162461bcd60e51b815260206004820152602a60248201527f536166654f776e61626c655570677261646561626c653a206e6f20656e6f756760448201527f6820636f6e6669726d73000000000000000000000000000000000000000000006064820152608401610ac0565b60a0805490600061161483613dee565b90915550506000868152609f602052604081205460ff16600381111561163c5761163c613c8a565b146116af5760405162461bcd60e51b815260206004820152603760248201527f536166654f776e61626c655570677261646561626c653a206f7065726174696f60448201527f6e20776173206e6f74207375626d6974746564207965740000000000000000006064820152608401610ac0565b6000868152609f6020526040808220805460ff191660011790555187917f33775024b20f211f019e50305c897b2105edc4642384143897ac170fb37f54a191a2505050505050565b600060a4547fa2ac2c3aeda143245c96c54e039a6916e1234475a4dbb081f98c069027ea9158848460405160200161175a9493929190938452602084019290925260601b6bffffffffffffffffffffffff19166040830152605482015260740190565b60405160208183030381529060405280519060200120905092915050565b610c318282612224565b6117906104f6848484610b4e565b60016000828152609f602052604090205460ff1660038111156117b5576117b5613c8a565b146118285760405162461bcd60e51b815260206004820152603060248201527f536166654f776e61626c655570677261646561626c653a206f7065726174696f60448201527f6e206e6f7420696e2070656e64696e67000000000000000000000000000000006064820152608401610ac0565b6000818152609f60205260408120805460ff191660021790558061184c8686610e7f565b915091506706f05b59d3b200008110156118695790506000611885565b6706f05b59d3b20000821015611885576706f05b59d3b2000091505b60a25460a3546040516323b872dd60e01b81526001600160a01b0391821660048201528882166024820152604481018590529116906323b872dd90606401602060405180830381600087803b1580156118dd57600080fd5b505af11580156118f1573d6000803e3d6000fd5b505050506040513d601f19601f820116820180604052508101906119159190613e53565b50604080516001600160a01b0388168152602081018490527fb94b60c7fc04d4037fb1d7858577d15862949131a49dcecefe008670562f7c2e910160405180910390a16001600160a01b038616600090815260aa602052604090205460ff161561199c576001600160a01b038616600090815260a9602052604090206002018190556119fc565b604080516060810182524280825260208083019182528284018581526001600160a01b038b16600090815260a98352858120945185559251600180860191909155905160029094019390935560aa905291909120805460ff191690911790555b604080516001600160a01b0388168152602081018790527f09a8e474d1bab4b499abd3f1679574758192dab48db30a03b0d4236f39c702b8910160405180910390a1505050505050565b611a4e6137c0565b6040805160c08101918290529060979060069082845b81546001600160a01b03168152600190910190602001808311611a64575050505050905090565b600060a4547f6a0f4f562fde02de23e14122e8a1615489fbf697af90d613298e80a9357ae4eb848460405160200161175a9493929190938452602084019290925260601b6bffffffffffffffffffffffff19166040830152605482015260740190565b611af73361251f565b565b336000908152609d602052604090205460ff16611b705760405162461bcd60e51b815260206004820152602f60248201527f536166654f776e61626c655570677261646561626c653a2063616c6c6572206960448201526e39903737ba103a34329037bbb732b960891b6064820152608401610ac0565b60a2805473ffffffffffffffffffffffffffffffffffffffff19166001600160a01b0392909216919091179055565b6060611baa82611f1e565b92915050565b610c318282612632565b600054610100900460ff1615808015611bda5750600054600160ff909116105b80611bf45750303b158015611bf4575060005460ff166001145b611c665760405162461bcd60e51b815260206004820152602e60248201527f496e697469616c697a61626c653a20636f6e747261637420697320616c72656160448201527f647920696e697469616c697a65640000000000000000000000000000000000006064820152608401610ac0565b6000805460ff191660011790558015611c89576000805461ff0019166101001790555b611c93848461271f565b611c9c82612ab1565b60a580547fffffffff0000000000000000000000000000000000000000ffffffffffffffff16680100000000000000006001600160a01b03851602179055611ce2612bea565b604080517f20a714382505729b6977051cb17e2cd66b3149e150240124aa4917fe7f2189906020820152469181019190915230606082015260800160408051601f19818403018152919052805160209091012060a4558015611d7e576000805461ff0019169055604051600181527f7f26b83ff96e1f2b6a682f133852f6798a09c465da95921460cefb38474024989060200160405180910390a15b50505050565b336000908152609d602052604090205460ff16611dfb5760405162461bcd60e51b815260206004820152602f60248201527f536166654f776e61626c655570677261646561626c653a2063616c6c6572206960448201526e39903737ba103a34329037bbb732b960891b6064820152608401610ac0565b6001600160a01b038116611e775760405162461bcd60e51b815260206004820152603560248201527f536166654f776e61626c655570677261646561626c653a206e6577206f776e6560448201527f7220697320746865207a65726f206164647265737300000000000000000000006064820152608401610ac0565b6001600160a01b0381166000908152609d602052604090205460ff1615611f065760405162461bcd60e51b815260206004820152603060248201527f536166654f776e61626c655570677261646561626c653a206e6577206f776e6560448201527f7220616c726561647920657869737473000000000000000000000000000000006064820152608401610ac0565b610ce181612c67565b6001600160a01b03163b151590565b6001600160a01b038116600090815260a960205260408082208054600182015460029092015483516064808252610ca082019095526060959294919291829190816020015b6040805180820190915260008082526020820152815260200190600190039081611f635790505090505b611f9a62278d0086613dd6565b9450838511611fa857611f8d565b671bc16d674ec80000831015611ff257604051806040016040528086815260200184815250818360ff1681518110611fe257611fe2613dc0565b602002602001018190525061206e565b6000611fff600a85613e1f565b9050671bc16d674ec8000081101561201c5750671bc16d674ec800005b604051806040016040528087815260200182815250828460ff168151811061204657612046613dc0565b602090810291909101015261205b8185613da9565b935061206683613e33565b925050611f8d565b9695505050505050565b600082815260a86020526040902060020154610100900460ff166121045760405162461bcd60e51b815260206004820152602160248201527f41637469766974795265776172643a2072657175657374206e6f7420666f756e60448201527f64000000000000000000000000000000000000000000000000000000000000006064820152608401610ac0565b600082815260a8602052604090206002015460ff161561218c5760405162461bcd60e51b815260206004820152602a60248201527f41637469766974795265776172643a207265717565737420686173206265656e60448201527f2070726f636573736564000000000000000000000000000000000000000000006064820152608401610ac0565b8060008151811061219f5761219f613dc0565b602002602001015160a86000848152602001908152602001600020600101819055506121ca82612d13565b600082815260a8602052604090819020600201805460ff19166001179055517ffe2e2d779dba245964d4e3ef9b994be63856fd568bf7d3ca9e224755cb1bd54d906122189084908490613e70565b60405180910390a15050565b6122316104f683836116f7565b60016000828152609f602052604090205460ff16600381111561225657612256613c8a565b146122c95760405162461bcd60e51b815260206004820152603060248201527f536166654f776e61626c655570677261646561626c653a206f7065726174696f60448201527f6e206e6f7420696e2070656e64696e67000000000000000000000000000000006064820152608401610ac0565b6000818152609f60205260409020805460ff191660021790556122f4836706f05b59d3b20000612f13565b505050565b336000908152609d602052604090205460ff16610ce15760405162461bcd60e51b815260206004820152602f60248201527f536166654f776e61626c655570677261646561626c653a2063616c6c6572206960448201526e39903737ba103a34329037bbb732b960891b6064820152608401610ac0565b7f4910fdfa16fed3260ed0e7147f7cc6da11a60208b5b9406d12a635614ffd91435460ff16156123a3576122f483613054565b826001600160a01b03166352d1902d6040518163ffffffff1660e01b815260040160206040518083038186803b1580156123dc57600080fd5b505afa92505050801561240c575060408051601f3d908101601f1916820190925261240991810190613ebe565b60015b61247e5760405162461bcd60e51b815260206004820152602e60248201527f45524331393637557067726164653a206e657720696d706c656d656e7461746960448201527f6f6e206973206e6f7420555550530000000000000000000000000000000000006064820152608401610ac0565b7f360894a13ba1a3210667c828492db98dca3e2076cc3735a920a3ca505d382bbc81146125135760405162461bcd60e51b815260206004820152602960248201527f45524331393637557067726164653a20756e737570706f727465642070726f7860448201527f6961626c655555494400000000000000000000000000000000000000000000006064820152608401610ac0565b506122f483838361311f565b600061252a82610942565b60a25460a3546040516323b872dd60e01b81526001600160a01b03918216600482015285821660248201526044810184905292935016906323b872dd90606401602060405180830381600087803b15801561258457600080fd5b505af1158015612598573d6000803e3d6000fd5b505050506040513d601f19601f820116820180604052508101906125bc9190613e53565b506001600160a01b038216600090815260a96020526040812042600182015560020180548392906125ee908490613da9565b9091555050604080516001600160a01b0384168152602081018390527fb94b60c7fc04d4037fb1d7858577d15862949131a49dcecefe008670562f7c2e9101612218565b61263f6104f68383611a8b565b60016000828152609f602052604090205460ff16600381111561266457612664613c8a565b146126d75760405162461bcd60e51b815260206004820152603060248201527f536166654f776e61626c655570677261646561626c653a206f7065726174696f60448201527f6e206e6f7420696e2070656e64696e67000000000000000000000000000000006064820152608401610ac0565b6000818152609f60205260409020805460ff19166002179055611d7e836001613144565b600080600061270a858561331b565b915091506127178161335e565b509392505050565b600054610100900460ff1661279c5760405162461bcd60e51b815260206004820152602b60248201527f496e697469616c697a61626c653a20636f6e7472616374206973206e6f74206960448201527f6e697469616c697a696e670000000000000000000000000000000000000000006064820152608401610ac0565b8151600510156128145760405162461bcd60e51b815260206004820152603360248201527f536166654f776e61626c655570677261646561626c653a657863656564206d6160448201527f78696d756d206e756d626572206f776e657273000000000000000000000000006064820152608401610ac0565b60ff811661288a5760405162461bcd60e51b815260206004820152602c60248201527f536166654f776e61626c655570677261646561626c653a207369676e5265717560448201527f69726564206973207a65726f00000000000000000000000000000000000000006064820152608401610ac0565b609e805461ff00191661010060ff84160217905560005b8251811015612a2d5760008382815181106128be576128be613dc0565b6020908102919091018101516001600160a01b0381166000908152609d90925260409091205490915060ff161561295d5760405162461bcd60e51b815260206004820152602c60248201527f536166654f776e61626c655570677261646561626c653a206f776e657220616c60448201527f72656164792065786973747300000000000000000000000000000000000000006064820152608401610ac0565b609e805482916097916000906129759060ff16613e33565b91906101000a81548160ff021916908360ff160217905560ff166006811061299f5761299f613dc0565b0180546001600160a01b0392831673ffffffffffffffffffffffffffffffffffffffff19909116179055609e549082166000818152609d6020526040808220805460ff191660ff9095169490941790935591519091907f8be0079c531659141344cd1fd0a4f28419497f9722a3daafe3b4186f6b6457e0908290a35080612a2581613dee565b9150506128a1565b50609e5460ff808216610100909204161115610c315760405162461bcd60e51b815260206004820152603560248201527f536166654f776e61626c655570677261646561626c653a206f776e657273206c60448201527f657373207468616e207369676e526571756972656400000000000000000000006064820152608401610ac0565b600054610100900460ff1615808015612ad15750600054600160ff909116105b80612aeb5750303b158015612aeb575060005460ff166001145b612b5d5760405162461bcd60e51b815260206004820152602e60248201527f496e697469616c697a61626c653a20636f6e747261637420697320616c72656160448201527f647920696e697469616c697a65640000000000000000000000000000000000006064820152608401610ac0565b6000805460ff191660011790558015612b80576000805461ff0019166101001790555b60a1805473ffffffffffffffffffffffffffffffffffffffff19166001600160a01b0384161790558015610c31576000805461ff0019169055604051600181527f7f26b83ff96e1f2b6a682f133852f6798a09c465da95921460cefb384740249890602001612218565b600054610100900460ff16611af75760405162461bcd60e51b815260206004820152602b60248201527f496e697469616c697a61626c653a20636f6e7472616374206973206e6f74206960448201527f6e697469616c697a696e670000000000000000000000000000000000000000006064820152608401610ac0565b336000818152609d602052604090205460ff168260978260068110612c8e57612c8e613dc0565b01805473ffffffffffffffffffffffffffffffffffffffff19166001600160a01b039283161790558281166000818152609d6020526040808220805460ff19908116909155938716808352818320805490951660ff871617909455517f8be0079c531659141344cd1fd0a4f28419497f9722a3daafe3b4186f6b6457e09190a3505050565b600081815260a86020526040902060010154612d975760405162461bcd60e51b815260206004820152603260248201527f41637469766974795265776172643a205468652072616e646f6d576f7264732060448201527f6e756d6265722063616e6e6f74206265203000000000000000000000000000006064820152608401610ac0565b600081815260a86020526040812060010154612db690612ba290613ed7565b9050600081118015612dca5750612ba28111155b612e3c5760405162461bcd60e51b815260206004820152603060248201527f41637469766974795265776172643a205468652072656d61696e64657220616c60448201527f676f726974686d2069732077726f6e67000000000000000000000000000000006064820152608401610ac0565b67016345785d8a000060006107d0831015612e5957506002612edb565b611194831015612e6b57506005612edb565b611d4c831015612e7d57506008612edb565b612454831015612e8f5750600a612edb565b61283c831015612ea15750600f612edb565b612a30831015612eb357506014612edb565b612af8831015612ec557506028612edb565b612b5c831015612ed757506064612edb565b5060965b6000612ee78284613eeb565b600086815260a86020526040902054909150612f0c906001600160a01b031682612f13565b5050505050565b60ab5460ff1615612f665760405162461bcd60e51b815260206004820152600e60248201527f4e6f2072652d656e7472616e63790000000000000000000000000000000000006044820152606401610ac0565b60ab805460ff1916600117905560a25460a3546040516323b872dd60e01b81526001600160a01b0391821660048201528482166024820152604481018490529116906323b872dd90606401602060405180830381600087803b158015612fcb57600080fd5b505af1158015612fdf573d6000803e3d6000fd5b505050506040513d601f19601f820116820180604052508101906130039190613e53565b50604080516001600160a01b0384168152602081018390527f25c30c62c42b51e4f667b70ef60f1f683c376f6ace28312ed45a40665e01af37910160405180910390a1505060ab805460ff19169055565b6001600160a01b0381163b6130d15760405162461bcd60e51b815260206004820152602d60248201527f455243313936373a206e657720696d706c656d656e746174696f6e206973206e60448201527f6f74206120636f6e7472616374000000000000000000000000000000000000006064820152608401610ac0565b7f360894a13ba1a3210667c828492db98dca3e2076cc3735a920a3ca505d382bbc805473ffffffffffffffffffffffffffffffffffffffff19166001600160a01b0392909216919091179055565b6131288361354f565b6000825111806131355750805b156122f457611d7e838361358f565b60a55460a65460a7546040517f5d3b1d30000000000000000000000000000000000000000000000000000000008152600481019290925267ffffffffffffffff83166024830152640100000000810461ffff16604483015263ffffffff9081166064830152831660848201526000916801000000000000000090046001600160a01b031690635d3b1d309060a401602060405180830381600087803b1580156131ec57600080fd5b505af1158015613200573d6000803e3d6000fd5b505050506040513d601f19601f820116820180604052508101906132249190613ebe565b604080516080810182526001600160a01b0386811682526000602080840182815284860183815260016060870181815289865260a88552948890209651875473ffffffffffffffffffffffffffffffffffffffff1916961695909517865590519385019390935591516002909301805491517fffffffffffffffffffffffffffffffffffffffffffffffffffffffffffff000090921693151561ff001916939093176101009115159190910217909155815183815263ffffffff8616918101919091529192507fcc58b13ad3eab50626c6a6300b1d139cd6ebb1688a7cced9461c2f7e762665ee910160405180910390a192915050565b6000808251604114156133525760208301516040840151606085015160001a6133468782858561369a565b94509450505050610f1d565b50600090506002610f1d565b600081600481111561337257613372613c8a565b141561337b5750565b600181600481111561338f5761338f613c8a565b14156133dd5760405162461bcd60e51b815260206004820152601860248201527f45434453413a20696e76616c6964207369676e617475726500000000000000006044820152606401610ac0565b60028160048111156133f1576133f1613c8a565b141561343f5760405162461bcd60e51b815260206004820152601f60248201527f45434453413a20696e76616c6964207369676e6174757265206c656e677468006044820152606401610ac0565b600381600481111561345357613453613c8a565b14156134c75760405162461bcd60e51b815260206004820152602260248201527f45434453413a20696e76616c6964207369676e6174757265202773272076616c60448201527f75650000000000000000000000000000000000000000000000000000000000006064820152608401610ac0565b60048160048111156134db576134db613c8a565b1415610ce15760405162461bcd60e51b815260206004820152602260248201527f45434453413a20696e76616c6964207369676e6174757265202776272076616c60448201527f75650000000000000000000000000000000000000000000000000000000000006064820152608401610ac0565b61355881613054565b6040516001600160a01b038216907fbc7cd75a20ee27fd9adebab32041f755214dbc6bffa90cc0225b39da2e5c2d3b90600090a250565b60606001600160a01b0383163b61360e5760405162461bcd60e51b815260206004820152602660248201527f416464726573733a2064656c65676174652063616c6c20746f206e6f6e2d636f60448201527f6e747261637400000000000000000000000000000000000000000000000000006064820152608401610ac0565b600080846001600160a01b0316846040516136299190613f36565b600060405180830381855af49150503d8060008114613664576040519150601f19603f3d011682016040523d82523d6000602084013e613669565b606091505b50915091506136918282604051806060016040528060278152602001613f8660279139613787565b95945050505050565b6000807f7fffffffffffffffffffffffffffffff5d576e7357a4501ddfe92f46681b20a08311156136d1575060009050600361377e565b8460ff16601b141580156136e957508460ff16601c14155b156136fa575060009050600461377e565b6040805160008082526020820180845289905260ff881692820192909252606081018690526080810185905260019060a0016020604051602081039080840390855afa15801561374e573d6000803e3d6000fd5b5050604051601f1901519150506001600160a01b0381166137775760006001925092505061377e565b9150600090505b94509492505050565b60608315613796575081610bc7565b8251156137a65782518084602001fd5b8160405162461bcd60e51b8152600401610ac09190613f52565b6040518060c001604052806006906020820280368337509192915050565b80356001600160a01b03811681146137f557600080fd5b919050565b60006020828403121561380c57600080fd5b610bc7826137de565b6000806000806080858703121561382b57600080fd5b843563ffffffff8116811461383f57600080fd5b9350602085013567ffffffffffffffff8116811461385c57600080fd5b925060408501359150606085013561ffff8116811461387a57600080fd5b939692955090935050565b60008060006060848603121561389a57600080fd5b6138a3846137de565b95602085013595506040909401359392505050565b634e487b7160e01b600052604160045260246000fd5b604051601f8201601f1916810167ffffffffffffffff811182821017156138f7576138f76138b8565b604052919050565b600067ffffffffffffffff821115613919576139196138b8565b5060051b60200190565b6000806040838503121561393657600080fd5b8235915060208084013567ffffffffffffffff81111561395557600080fd5b8401601f8101861361396657600080fd5b8035613979613974826138ff565b6138ce565b81815260059190911b8201830190838101908883111561399857600080fd5b928401925b828410156139b65783358252928401929084019061399d565b80955050505050509250929050565b8015158114610ce157600080fd5b600080604083850312156139e657600080fd5b6139ef836137de565b915060208301356139ff816139c5565b809150509250929050565b600060208284031215613a1c57600080fd5b5035919050565b60008060408385031215613a3657600080fd5b613a3f836137de565b946020939093013593505050565b600082601f830112613a5e57600080fd5b813567ffffffffffffffff811115613a7857613a786138b8565b613a8b6020601f19601f840116016138ce565b818152846020838601011115613aa057600080fd5b816020850160208301376000918101602001919091529392505050565b60008060408385031215613ad057600080fd5b613ad9836137de565b9150602083013567ffffffffffffffff811115613af557600080fd5b613b0185828601613a4d565b9150509250929050565b60008060008060808587031215613b2157600080fd5b613b2a856137de565b966020860135965060408601359560600135945092505050565b60008060408385031215613b5757600080fd5b8235915060208084013567ffffffffffffffff80821115613b7757600080fd5b818601915086601f830112613b8b57600080fd5b8135613b99613974826138ff565b81815260059190911b83018401908481019089831115613bb857600080fd5b8585015b83811015613bf057803585811115613bd45760008081fd5b613be28c89838a0101613a4d565b845250918601918601613bbc565b508096505050505050509250929050565b60c08101818360005b6006811015613c325781516001600160a01b0316835260209283019290910190600101613c0a565b50505092915050565b602080825282518282018190526000919060409081850190868401855b82811015613c7d57815180518552860151868501529284019290850190600101613c58565b5091979650505050505050565b634e487b7160e01b600052602160045260246000fd5b6020810160048310613cc257634e487b7160e01b600052602160045260246000fd5b91905290565b803560ff811681146137f557600080fd5b600080600060608486031215613cee57600080fd5b833567ffffffffffffffff811115613d0557600080fd5b8401601f81018613613d1657600080fd5b80356020613d26613974836138ff565b82815260059290921b83018101918181019089841115613d4557600080fd5b938201935b83851015613d6a57613d5b856137de565b82529382019390820190613d4a565b9650613d799050878201613cc8565b9450505050613d8a604085016137de565b90509250925092565b634e487b7160e01b600052601160045260246000fd5b600082821015613dbb57613dbb613d93565b500390565b634e487b7160e01b600052603260045260246000fd5b60008219821115613de957613de9613d93565b500190565b6000600019821415613e0257613e02613d93565b5060010190565b634e487b7160e01b600052601260045260246000fd5b600082613e2e57613e2e613e09565b500490565b600060ff821660ff811415613e4a57613e4a613d93565b60010192915050565b600060208284031215613e6557600080fd5b8151610bc7816139c5565b6000604082018483526020604081850152818551808452606086019150828701935060005b81811015613eb157845183529383019391830191600101613e95565b5090979650505050505050565b600060208284031215613ed057600080fd5b5051919050565b600082613ee657613ee6613e09565b500690565b6000816000190483118215151615613f0557613f05613d93565b500290565b60005b83811015613f25578181015183820152602001613f0d565b83811115611d7e5750506000910152565b60008251613f48818460208701613f0a565b9190910192915050565b6020815260008251806020840152613f71816040850160208701613f0a565b601f01601f1916919091016040019291505056fe416464726573733a206c6f772d6c6576656c2064656c65676174652063616c6c206661696c6564a264697066735822122043e3592b0778816955f8ec4df01e0875de91a95db040dd425707036df446748164736f6c63430008090033",
  "devdoc": {
    "kind": "dev",
    "methods": {
      "constructor": {
        "custom:oz-upgrades-unsafe-allow": "constructor"
      },
      "proxiableUUID()": {
        "details": "Implementation of the ERC1822 {proxiableUUID} function. This returns the storage slot used by the implementation. It is used to validate that the this implementation remains valid after an upgrade. IMPORTANT: A proxy pointing at a proxiable contract should not be considered proxiable itself, because this risks bricking a proxy that upgrades to it, by delegating to itself until out of gas. Thus it is critical that this function revert if invoked through a proxy. This is guaranteed by the `notDelegated` modifier."
      },
      "transferOwnership(address)": {
        "details": "Transfers ownership of the contract to a new account (`newOwner`). Can only be called by the current owner."
      },
      "upgradeTo(address)": {
        "details": "Upgrade the implementation of the proxy to `newImplementation`. Calls {_authorizeUpgrade}. Emits an {Upgraded} event."
      },
      "upgradeToAndCall(address,bytes)": {
        "details": "Upgrade the implementation of the proxy to `newImplementation`, and subsequently execute the function call encoded in `data`. Calls {_authorizeUpgrade}. Emits an {Upgraded} event."
      }
    },
    "version": 1
  },
  "userdoc": {
    "kind": "user",
    "methods": {},
    "version": 1
  },
  "storageLayout": {
    "storage": [
      {
        "astId": 549,
        "contract": "contracts/ActivityReward/ActivityReward.sol:ActivityReward",
        "label": "_initialized",
        "offset": 0,
        "slot": "0",
        "type": "t_uint8"
      },
      {
        "astId": 552,
        "contract": "contracts/ActivityReward/ActivityReward.sol:ActivityReward",
        "label": "_initializing",
        "offset": 1,
        "slot": "0",
        "type": "t_bool"
      },
      {
        "astId": 531,
        "contract": "contracts/ActivityReward/ActivityReward.sol:ActivityReward",
        "label": "__gap",
        "offset": 0,
        "slot": "1",
        "type": "t_array(t_uint256)50_storage"
      },
      {
        "astId": 828,
        "contract": "contracts/ActivityReward/ActivityReward.sol:ActivityReward",
        "label": "__gap",
        "offset": 0,
        "slot": "51",
        "type": "t_array(t_uint256)50_storage"
      },
      {
        "astId": 2561,
        "contract": "contracts/ActivityReward/ActivityReward.sol:ActivityReward",
        "label": "__gap",
        "offset": 0,
        "slot": "101",
        "type": "t_array(t_uint256)50_storage"
      },
      {
        "astId": 6849,
        "contract": "contracts/ActivityReward/ActivityReward.sol:ActivityReward",
        "label": "_owners",
        "offset": 0,
        "slot": "151",
        "type": "t_array(t_address)6_storage"
      },
      {
        "astId": 6853,
        "contract": "contracts/ActivityReward/ActivityReward.sol:ActivityReward",
        "label": "_ownersIndex",
        "offset": 0,
        "slot": "157",
        "type": "t_mapping(t_address,t_uint8)"
      },
      {
        "astId": 6855,
        "contract": "contracts/ActivityReward/ActivityReward.sol:ActivityReward",
        "label": "_numOwners",
        "offset": 0,
        "slot": "158",
        "type": "t_uint8"
      },
      {
        "astId": 6860,
        "contract": "contracts/ActivityReward/ActivityReward.sol:ActivityReward",
        "label": "signRequired",
        "offset": 1,
        "slot": "158",
        "type": "t_uint8"
      },
      {
        "astId": 6865,
        "contract": "contracts/ActivityReward/ActivityReward.sol:ActivityReward",
        "label": "operationsStatus",
        "offset": 0,
        "slot": "159",
        "type": "t_mapping(t_bytes32,t_enum(OpStatus)6845)"
      },
      {
        "astId": 6867,
        "contract": "contracts/ActivityReward/ActivityReward.sol:ActivityReward",
        "label": "nonce",
        "offset": 0,
        "slot": "160",
        "type": "t_uint256"
      },
      {
        "astId": 9864,
        "contract": "contracts/ActivityReward/ActivityReward.sol:ActivityReward",
        "label": "vrfCoordinator",
        "offset": 0,
        "slot": "161",
        "type": "t_address"
      },
      {
        "astId": 7278,
        "contract": "contracts/ActivityReward/ActivityReward.sol:ActivityReward",
        "label": "ERC20Token",
        "offset": 0,
        "slot": "162",
        "type": "t_contract(IERC20)3681"
      },
      {
        "astId": 7280,
        "contract": "contracts/ActivityReward/ActivityReward.sol:ActivityReward",
        "label": "spender",
        "offset": 0,
        "slot": "163",
        "type": "t_address"
      },
      {
        "astId": 7282,
        "contract": "contracts/ActivityReward/ActivityReward.sol:ActivityReward",
        "label": "DOMAIN",
        "offset": 0,
        "slot": "164",
        "type": "t_bytes32"
      },
      {
        "astId": 7287,
        "contract": "contracts/ActivityReward/ActivityReward.sol:ActivityReward",
        "label": "subscriptionId",
        "offset": 0,
        "slot": "165",
        "type": "t_uint64"
      },
      {
        "astId": 7290,
        "contract": "contracts/ActivityReward/ActivityReward.sol:ActivityReward",
        "label": "COORDINATOR",
        "offset": 8,
        "slot": "165",
        "type": "t_contract(VRFCoordinatorV2Interface)153"
      },
      {
        "astId": 7292,
        "contract": "contracts/ActivityReward/ActivityReward.sol:ActivityReward",
        "label": "keyHash",
        "offset": 0,
        "slot": "166",
        "type": "t_bytes32"
      },
      {
        "astId": 7294,
        "contract": "contracts/ActivityReward/ActivityReward.sol:ActivityReward",
        "label": "callbackGasLimit",
        "offset": 0,
        "slot": "167",
        "type": "t_uint32"
      },
      {
        "astId": 7296,
        "contract": "contracts/ActivityReward/ActivityReward.sol:ActivityReward",
        "label": "requestConfirmations",
        "offset": 4,
        "slot": "167",
        "type": "t_uint16"
      },
      {
        "astId": 7310,
        "contract": "contracts/ActivityReward/ActivityReward.sol:ActivityReward",
        "label": "requests",
        "offset": 0,
        "slot": "168",
        "type": "t_mapping(t_uint256,t_struct(RequestStatus)7305_storage)"
      },
      {
        "astId": 7330,
        "contract": "contracts/ActivityReward/ActivityReward.sol:ActivityReward",
        "label": "release_reward",
        "offset": 0,
        "slot": "169",
        "type": "t_struct(ReleaseReward)7327_storage"
      },
      {
        "astId": 7344,
        "contract": "contracts/ActivityReward/ActivityReward.sol:ActivityReward",
        "label": "locked",
        "offset": 0,
        "slot": "171",
        "type": "t_bool"
      }
    ],
    "types": {
      "t_address": {
        "encoding": "inplace",
        "label": "address",
        "numberOfBytes": "20"
      },
      "t_array(t_address)6_storage": {
        "base": "t_address",
        "encoding": "inplace",
        "label": "address[6]",
        "numberOfBytes": "192"
      },
      "t_array(t_uint256)50_storage": {
        "base": "t_uint256",
        "encoding": "inplace",
        "label": "uint256[50]",
        "numberOfBytes": "1600"
      },
      "t_bool": {
        "encoding": "inplace",
        "label": "bool",
        "numberOfBytes": "1"
      },
      "t_bytes32": {
        "encoding": "inplace",
        "label": "bytes32",
        "numberOfBytes": "32"
      },
      "t_contract(IERC20)3681": {
        "encoding": "inplace",
        "label": "contract IERC20",
        "numberOfBytes": "20"
      },
      "t_contract(VRFCoordinatorV2Interface)153": {
        "encoding": "inplace",
        "label": "contract VRFCoordinatorV2Interface",
        "numberOfBytes": "20"
      },
      "t_enum(OpStatus)6845": {
        "encoding": "inplace",
        "label": "enum SafeOwnableUpgradeable.OpStatus",
        "numberOfBytes": "1"
      },
      "t_mapping(t_address,t_bool)": {
        "encoding": "mapping",
        "key": "t_address",
        "label": "mapping(address => bool)",
        "numberOfBytes": "32",
        "value": "t_bool"
      },
      "t_mapping(t_address,t_struct(SlowlyReleaseReward)7317_storage)": {
        "encoding": "mapping",
        "key": "t_address",
        "label": "mapping(address => struct ActivityReward.SlowlyReleaseReward)",
        "numberOfBytes": "32",
        "value": "t_struct(SlowlyReleaseReward)7317_storage"
      },
      "t_mapping(t_address,t_uint8)": {
        "encoding": "mapping",
        "key": "t_address",
        "label": "mapping(address => uint8)",
        "numberOfBytes": "32",
        "value": "t_uint8"
      },
      "t_mapping(t_bytes32,t_enum(OpStatus)6845)": {
        "encoding": "mapping",
        "key": "t_bytes32",
        "label": "mapping(bytes32 => enum SafeOwnableUpgradeable.OpStatus)",
        "numberOfBytes": "32",
        "value": "t_enum(OpStatus)6845"
      },
      "t_mapping(t_uint256,t_struct(RequestStatus)7305_storage)": {
        "encoding": "mapping",
        "key": "t_uint256",
        "label": "mapping(uint256 => struct ActivityReward.RequestStatus)",
        "numberOfBytes": "32",
        "value": "t_struct(RequestStatus)7305_storage"
      },
      "t_struct(ReleaseReward)7327_storage": {
        "encoding": "inplace",
        "label": "struct ActivityReward.ReleaseReward",
        "members": [
          {
            "astId": 7322,
            "contract": "contracts/ActivityReward/ActivityReward.sol:ActivityReward",
            "label": "record",
            "offset": 0,
            "slot": "0",
            "type": "t_mapping(t_address,t_struct(SlowlyReleaseReward)7317_storage)"
          },
          {
            "astId": 7326,
            "contract": "contracts/ActivityReward/ActivityReward.sol:ActivityReward",
            "label": "inserted",
            "offset": 0,
            "slot": "1",
            "type": "t_mapping(t_address,t_bool)"
          }
        ],
        "numberOfBytes": "64"
      },
      "t_struct(RequestStatus)7305_storage": {
        "encoding": "inplace",
        "label": "struct ActivityReward.RequestStatus",
        "members": [
          {
            "astId": 7298,
            "contract": "contracts/ActivityReward/ActivityReward.sol:ActivityReward",
            "label": "user",
            "offset": 0,
            "slot": "0",
            "type": "t_address"
          },
          {
            "astId": 7300,
            "contract": "contracts/ActivityReward/ActivityReward.sol:ActivityReward",
            "label": "randomWord",
            "offset": 0,
            "slot": "1",
            "type": "t_uint256"
          },
          {
            "astId": 7302,
            "contract": "contracts/ActivityReward/ActivityReward.sol:ActivityReward",
            "label": "fulfilled",
            "offset": 0,
            "slot": "2",
            "type": "t_bool"
          },
          {
            "astId": 7304,
            "contract": "contracts/ActivityReward/ActivityReward.sol:ActivityReward",
            "label": "exists",
            "offset": 1,
            "slot": "2",
            "type": "t_bool"
          }
        ],
        "numberOfBytes": "96"
      },
      "t_struct(SlowlyReleaseReward)7317_storage": {
        "encoding": "inplace",
        "label": "struct ActivityReward.SlowlyReleaseReward",
        "members": [
          {
            "astId": 7312,
            "contract": "contracts/ActivityReward/ActivityReward.sol:ActivityReward",
            "label": "firstInjectTime",
            "offset": 0,
            "slot": "0",
            "type": "t_uint256"
          },
          {
            "astId": 7314,
            "contract": "contracts/ActivityReward/ActivityReward.sol:ActivityReward",
            "label": "lastReleaseTime",
            "offset": 0,
            "slot": "1",
            "type": "t_uint256"
          },
          {
            "astId": 7316,
            "contract": "contracts/ActivityReward/ActivityReward.sol:ActivityReward",
            "label": "pool",
            "offset": 0,
            "slot": "2",
            "type": "t_uint256"
          }
        ],
        "numberOfBytes": "96"
      },
      "t_uint16": {
        "encoding": "inplace",
        "label": "uint16",
        "numberOfBytes": "2"
      },
      "t_uint256": {
        "encoding": "inplace",
        "label": "uint256",
        "numberOfBytes": "32"
      },
      "t_uint32": {
        "encoding": "inplace",
        "label": "uint32",
        "numberOfBytes": "4"
      },
      "t_uint64": {
        "encoding": "inplace",
        "label": "uint64",
        "numberOfBytes": "8"
      },
      "t_uint8": {
        "encoding": "inplace",
        "label": "uint8",
        "numberOfBytes": "1"
      }
    }
  }
}