{
  "address": "0xc1496F5CC0877DE3dC43d5AF67C3d3BAeE600dfA",
  "abi": [
    {
      "inputs": [
        {
          "internalType": "uint256",
          "name": "initialSupply",
          "type": "uint256"
        },
        {
          "internalType": "address",
          "name": "mintAddr",
          "type": "address"
        },
        {
          "internalType": "address[]",
          "name": "owners",
          "type": "address[]"
        },
        {
          "internalType": "uint8",
          "name": "signRequred",
          "type": "uint8"
        }
      ],
      "stateMutability": "nonpayable",
      "type": "constructor"
    },
    {
      "anonymous": false,
      "inputs": [
        {
          "indexed": true,
          "internalType": "address",
          "name": "owner",
          "type": "address"
        },
        {
          "indexed": true,
          "internalType": "address",
          "name": "spender",
          "type": "address"
        },
        {
          "indexed": false,
          "internalType": "uint256",
          "name": "value",
          "type": "uint256"
        }
      ],
      "name": "Approval",
      "type": "event"
    },
    {
      "anonymous": false,
      "inputs": [
        {
          "indexed": true,
          "internalType": "bytes32",
          "name": "opHash",
          "type": "bytes32"
        }
      ],
      "name": "OperationAdded",
      "type": "event"
    },
    {
      "anonymous": false,
      "inputs": [
        {
          "indexed": true,
          "internalType": "address",
          "name": "previousOwner",
          "type": "address"
        },
        {
          "indexed": true,
          "internalType": "address",
          "name": "newOwner",
          "type": "address"
        }
      ],
      "name": "OwnershipTransferred",
      "type": "event"
    },
    {
      "anonymous": false,
      "inputs": [
        {
          "indexed": true,
          "internalType": "address",
          "name": "from",
          "type": "address"
        },
        {
          "indexed": true,
          "internalType": "address",
          "name": "to",
          "type": "address"
        },
        {
          "indexed": false,
          "internalType": "uint256",
          "name": "value",
          "type": "uint256"
        }
      ],
      "name": "Transfer",
      "type": "event"
    },
    {
      "inputs": [
        {
          "internalType": "bytes32",
          "name": "opHash",
          "type": "bytes32"
        },
        {
          "internalType": "bytes[]",
          "name": "sigs",
          "type": "bytes[]"
        }
      ],
      "name": "AddOpHashToPending",
      "outputs": [],
      "stateMutability": "nonpayable",
      "type": "function"
    },
    {
      "inputs": [],
      "name": "DOMAIN",
      "outputs": [
        {
          "internalType": "bytes32",
          "name": "",
          "type": "bytes32"
        }
      ],
      "stateMutability": "view",
      "type": "function"
    },
    {
      "inputs": [
        {
          "internalType": "address",
          "name": "owner",
          "type": "address"
        },
        {
          "internalType": "address",
          "name": "spender",
          "type": "address"
        }
      ],
      "name": "allowance",
      "outputs": [
        {
          "internalType": "uint256",
          "name": "",
          "type": "uint256"
        }
      ],
      "stateMutability": "view",
      "type": "function"
    },
    {
      "inputs": [
        {
          "internalType": "address",
          "name": "spender",
          "type": "address"
        },
        {
          "internalType": "uint256",
          "name": "amount",
          "type": "uint256"
        }
      ],
      "name": "approve",
      "outputs": [
        {
          "internalType": "bool",
          "name": "",
          "type": "bool"
        }
      ],
      "stateMutability": "nonpayable",
      "type": "function"
    },
    {
      "inputs": [
        {
          "internalType": "address",
          "name": "account",
          "type": "address"
        }
      ],
      "name": "balanceOf",
      "outputs": [
        {
          "internalType": "uint256",
          "name": "",
          "type": "uint256"
        }
      ],
      "stateMutability": "view",
      "type": "function"
    },
    {
      "inputs": [
        {
          "internalType": "uint256",
          "name": "amount",
          "type": "uint256"
        }
      ],
      "name": "burn",
      "outputs": [],
      "stateMutability": "nonpayable",
      "type": "function"
    },
    {
      "inputs": [
        {
          "internalType": "address",
          "name": "account",
          "type": "address"
        },
        {
          "internalType": "uint256",
          "name": "amount",
          "type": "uint256"
        }
      ],
      "name": "burnFrom",
      "outputs": [],
      "stateMutability": "nonpayable",
      "type": "function"
    },
    {
      "inputs": [],
      "name": "decimals",
      "outputs": [
        {
          "internalType": "uint8",
          "name": "",
          "type": "uint8"
        }
      ],
      "stateMutability": "view",
      "type": "function"
    },
    {
      "inputs": [
        {
          "internalType": "address",
          "name": "spender",
          "type": "address"
        },
        {
          "internalType": "uint256",
          "name": "subtractedValue",
          "type": "uint256"
        }
      ],
      "name": "decreaseAllowance",
      "outputs": [
        {
          "internalType": "bool",
          "name": "",
          "type": "bool"
        }
      ],
      "stateMutability": "nonpayable",
      "type": "function"
    },
    {
      "inputs": [
        {
          "internalType": "address",
          "name": "to",
          "type": "address"
        },
        {
          "internalType": "uint256",
          "name": "amount",
          "type": "uint256"
        },
        {
          "internalType": "uint256",
          "name": "nonce_",
          "type": "uint256"
        }
      ],
      "name": "getMintHash",
      "outputs": [
        {
          "internalType": "bytes32",
          "name": "",
          "type": "bytes32"
        }
      ],
      "stateMutability": "view",
      "type": "function"
    },
    {
      "inputs": [
        {
          "internalType": "address",
          "name": "spender",
          "type": "address"
        },
        {
          "internalType": "uint256",
          "name": "addedValue",
          "type": "uint256"
        }
      ],
      "name": "increaseAllowance",
      "outputs": [
        {
          "internalType": "bool",
          "name": "",
          "type": "bool"
        }
      ],
      "stateMutability": "nonpayable",
      "type": "function"
    },
    {
      "inputs": [],
      "name": "maxNumOwners",
      "outputs": [
        {
          "internalType": "uint8",
          "name": "",
          "type": "uint8"
        }
      ],
      "stateMutability": "view",
      "type": "function"
    },
    {
      "inputs": [
        {
          "internalType": "address",
          "name": "to",
          "type": "address"
        },
        {
          "internalType": "uint256",
          "name": "amount",
          "type": "uint256"
        },
        {
          "internalType": "bytes[]",
          "name": "sigs",
          "type": "bytes[]"
        }
      ],
      "name": "mint",
      "outputs": [],
      "stateMutability": "nonpayable",
      "type": "function"
    },
    {
      "inputs": [],
      "name": "name",
      "outputs": [
        {
          "internalType": "string",
          "name": "",
          "type": "string"
        }
      ],
      "stateMutability": "view",
      "type": "function"
    },
    {
      "inputs": [],
      "name": "nonce",
      "outputs": [
        {
          "internalType": "uint256",
          "name": "",
          "type": "uint256"
        }
      ],
      "stateMutability": "view",
      "type": "function"
    },
    {
      "inputs": [
        {
          "internalType": "bytes32",
          "name": "",
          "type": "bytes32"
        }
      ],
      "name": "operationsStatus",
      "outputs": [
        {
          "internalType": "enum SafeOwnable.OpStatus",
          "name": "",
          "type": "uint8"
        }
      ],
      "stateMutability": "view",
      "type": "function"
    },
    {
      "inputs": [],
      "name": "owners",
      "outputs": [
        {
          "internalType": "address[6]",
          "name": "",
          "type": "address[6]"
        }
      ],
      "stateMutability": "view",
      "type": "function"
    },
    {
      "inputs": [],
      "name": "signRequired",
      "outputs": [
        {
          "internalType": "uint8",
          "name": "",
          "type": "uint8"
        }
      ],
      "stateMutability": "view",
      "type": "function"
    },
    {
      "inputs": [],
      "name": "symbol",
      "outputs": [
        {
          "internalType": "string",
          "name": "",
          "type": "string"
        }
      ],
      "stateMutability": "view",
      "type": "function"
    },
    {
      "inputs": [],
      "name": "totalSupply",
      "outputs": [
        {
          "internalType": "uint256",
          "name": "",
          "type": "uint256"
        }
      ],
      "stateMutability": "view",
      "type": "function"
    },
    {
      "inputs": [
        {
          "internalType": "address",
          "name": "to",
          "type": "address"
        },
        {
          "internalType": "uint256",
          "name": "amount",
          "type": "uint256"
        }
      ],
      "name": "transfer",
      "outputs": [
        {
          "internalType": "bool",
          "name": "",
          "type": "bool"
        }
      ],
      "stateMutability": "nonpayable",
      "type": "function"
    },
    {
      "inputs": [
        {
          "internalType": "address",
          "name": "from",
          "type": "address"
        },
        {
          "internalType": "address",
          "name": "to",
          "type": "address"
        },
        {
          "internalType": "uint256",
          "name": "amount",
          "type": "uint256"
        }
      ],
      "name": "transferFrom",
      "outputs": [
        {
          "internalType": "bool",
          "name": "",
          "type": "bool"
        }
      ],
      "stateMutability": "nonpayable",
      "type": "function"
    },
    {
      "inputs": [
        {
          "internalType": "address",
          "name": "newOwner",
          "type": "address"
        }
      ],
      "name": "transferOwnership",
      "outputs": [],
      "stateMutability": "nonpayable",
      "type": "function"
    }
  ],
  "transactionHash": "0xb2a27033bc46631dc0f6c23f27d9c00f6698378155350084e4662fa95bd293e9",
  "args": [
    300000,
    "0xED5Afaec55874EA35de558811661e7D161F395ac",
    [
      "0xcf4F5d9e54563c81C3135e220Bf8f778795051C5",
      "0x712DD62Bf630333446134F51b622b6eA9e5a6d14"
    ],
    2
  ],
  "numDeployments": 1,
  "solcInputHash": "d4e963fefde0e06fc0380507c17a70cb",
  "bytecode": "0x60c06040523480156200001157600080fd5b50604051620027563803806200275683398101604081905262000034916200070e565b60405180604001604052806006815260200165564d6574613360d01b81525060405180604001604052806003815260200162564d3360e81b8152508383600560ff1682511115620000dd5760405162461bcd60e51b815260206004820152602860248201527f536166654f776e61626c653a657863656564206d6178696d756d206e756d626560448201526772206f776e65727360c01b60648201526084015b60405180910390fd5b60ff8116620001395760405162461bcd60e51b815260206004820152602160248201527f536166654f776e61626c653a207369676e5265717569726564206973207a65726044820152606f60f81b6064820152608401620000d4565b60ff811660805260005b8251811015620002b357600083828151811062000164576200016462000812565b6020908102919091018101516001600160a01b0381166000908152600690925260409091205490915060ff1615620001e95760405162461bcd60e51b815260206004820152602160248201527f536166654f776e61626c653a206f776e657220616c72656164792065786973746044820152607360f81b6064820152608401620000d4565b6007805482916000918290620002029060ff166200083e565b91906101000a81548160ff021916908360ff160217905560ff16600681106200022f576200022f62000812565b0180546001600160a01b039283166001600160a01b0319909116179055600754908216600081815260066020526040808220805460ff191660ff9095169490941790935591519091907f8be0079c531659141344cd1fd0a4f28419497f9722a3daafe3b4186f6b6457e0908290a35080620002aa8162000861565b91505062000143565b5060075460805160ff91821691161115620003245760405162461bcd60e51b815260206004820152602a60248201527f536166654f776e61626c653a206f776e657273206c657373207468616e20736960448201526919db94995c5d5a5c995960b21b6064820152608401620000d4565b505081516200033b90600d90602085019062000623565b5080516200035190600e90602084019062000623565b505050620003758385670de0b6b3a76400006200036f91906200087f565b620003ef565b7fb8aa581effc4a2e306a38dbac6542b2a4b0d933abccc3bfc5d8d811df1608302620003a0620004a2565b805160209182012060408051928301939093529181019190915246606082015230608082015260a00160408051601f19818403018152919052805160209091012060a05250620008f992505050565b6a422ca8b0a00a425000000062000405600c5490565b620004119083620008a1565b1115620004875760405162461bcd60e51b815260206004820152603760248201527f564d657461333a2074686520746f74616c20616d6f756e74206973737565642060448201527f65786365656465642074686520546f74616c416d6f75740000000000000000006064820152608401620000d4565b6200049e82826200053c60201b62000e311760201c565b5050565b6060600d8054620004b390620008bc565b80601f0160208091040260200160405190810160405280929190818152602001828054620004e190620008bc565b8015620005325780601f10620005065761010080835404028352916020019162000532565b820191906000526020600020905b8154815290600101906020018083116200051457829003601f168201915b5050505050905090565b6001600160a01b038216620005945760405162461bcd60e51b815260206004820152601f60248201527f45524332303a206d696e7420746f20746865207a65726f2061646472657373006044820152606401620000d4565b80600c6000828254620005a89190620008a1565b90915550506001600160a01b0382166000908152600a602052604081208054839290620005d7908490620008a1565b90915550506040518181526001600160a01b038316906000907fddf252ad1be2c89b69c2b068fc378daa952ba7f163c4a11628f55a4df523b3ef9060200160405180910390a36200049e565b8280546200063190620008bc565b90600052602060002090601f016020900481019282620006555760008555620006a0565b82601f106200067057805160ff1916838001178555620006a0565b82800160010185558215620006a0579182015b82811115620006a057825182559160200191906001019062000683565b50620006ae929150620006b2565b5090565b5b80821115620006ae5760008155600101620006b3565b80516001600160a01b0381168114620006e157600080fd5b919050565b634e487b7160e01b600052604160045260246000fd5b805160ff81168114620006e157600080fd5b600080600080608085870312156200072557600080fd5b84519350602062000738818701620006c9565b60408701519094506001600160401b03808211156200075657600080fd5b818801915088601f8301126200076b57600080fd5b815181811115620007805762000780620006e6565b8060051b604051601f19603f83011681018181108582111715620007a857620007a8620006e6565b60405291825284820192508381018501918b831115620007c757600080fd5b938501935b82851015620007f057620007e085620006c9565b84529385019392850192620007cc565b8097505050505050506200080760608601620006fc565b905092959194509250565b634e487b7160e01b600052603260045260246000fd5b634e487b7160e01b600052601160045260246000fd5b600060ff821660ff81141562000858576200085862000828565b60010192915050565b600060001982141562000878576200087862000828565b5060010190565b60008160001904831182151516156200089c576200089c62000828565b500290565b60008219821115620008b757620008b762000828565b500190565b600181811c90821680620008d157607f821691505b60208210811415620008f357634e487b7160e01b600052602260045260246000fd5b50919050565b60805160a051611e1b6200093b60003960008181610268015281816103040152610517015260008181610367015281816107840152610a260152611e1b6000f3fe608060405234801561001057600080fd5b506004361061018d5760003560e01c806370a08231116100e3578063a9059cbb1161008c578063ce0d0ca011610066578063ce0d0ca0146103e8578063dd62ed3e14610418578063f2fde38b1461045157600080fd5b8063a9059cbb146103b7578063affe39c1146103ca578063affed0e0146103df57600080fd5b80638b5a2143116100bd5780638b5a21431461038957806395d89b411461039c578063a457c2d7146103a457600080fd5b806370a082311461032657806379cc67901461034f5780637a29349d1461036257600080fd5b806323b872dd1161014557806342966c681161011f57806342966c68146102415780634ffd7d541461025457806352a9674b146102ff57600080fd5b806323b872dd14610214578063313ce56714610227578063395093511461022e57600080fd5b80630c3515ba116101765780630c3515ba146101d35780631716d0f1146101ed57806318160ddd1461020257600080fd5b806306fdde0314610192578063095ea7b3146101b0575b600080fd5b61019a610464565b6040516101a7919061194a565b60405180910390f35b6101c36101be3660046119bb565b6104f6565b60405190151581526020016101a7565b6101db600581565b60405160ff90911681526020016101a7565b6102006101fb366004611b21565b61050e565b005b600c545b6040519081526020016101a7565b6101c3610222366004611b78565b610820565b60126101db565b6101c361023c3660046119bb565b610844565b61020061024f366004611bb4565b610883565b610206610262366004611bcd565b604080517f000000000000000000000000000000000000000000000000000000000000000060208201527f156e29f6982eee45771b2862c71c865cb1ed8ec5a0f2c9d0c2cf96b8a8ba8ee391810191909152606084811b6bffffffffffffffffffffffff191690820152607481018390526094810182905260009060b4016040516020818303038152906040528051906020012090509392505050565b6102067f000000000000000000000000000000000000000000000000000000000000000081565b610206610334366004611c00565b6001600160a01b03166000908152600a602052604090205490565b61020061035d3660046119bb565b610890565b6101db7f000000000000000000000000000000000000000000000000000000000000000081565b610200610397366004611c22565b6108a9565b61019a610b8d565b6101c36103b23660046119bb565b610b9c565b6101c36103c53660046119bb565b610c46565b6103d2610c54565b6040516101a79190611c69565b61020660095481565b61040b6103f6366004611bb4565b60086020526000908152604090205460ff1681565b6040516101a79190611cb9565b610206610426366004611ce1565b6001600160a01b039182166000908152600b6020908152604080832093909416825291909152205490565b61020061045f366004611c00565b610c99565b6060600d805461047390611d14565b80601f016020809104026020016040519081016040528092919081815260200182805461049f90611d14565b80156104ec5780601f106104c1576101008083540402835291602001916104ec565b820191906000526020600020905b8154815290600101906020018083116104cf57829003601f168201915b5050505050905090565b600033610504818585610f10565b5060019392505050565b600954604080517f00000000000000000000000000000000000000000000000000000000000000006020808301919091527f156e29f6982eee45771b2862c71c865cb1ed8ec5a0f2c9d0c2cf96b8a8ba8ee382840152606087811b6bffffffffffffffffffffffff191690830152607482018690526094808301949094528251808303909401845260b4820183528351938101939093207f19457468657265756d205369676e6564204d6573736167653a0a33320000000060d483015260f0808301919091528251808303909101815261011090910190915280519101208160006105f761192c565b3360009081526006602052604090205460ff1615610662578161061981611d65565b9250506001816006600061062a3390565b6001600160a01b0316815260208101919091526040016000205460ff166006811061065757610657611d85565b911515602090920201525b60005b83518160ff1610156107815760006106a2858360ff168151811061068b5761068b611d85565b60200260200101518761106990919063ffffffff16565b6001600160a01b03811660009081526006602052604090205490915060ff16806107135760405162461bcd60e51b815260206004820181905260248201527f536166654f776e61626c653a207369676e6572206973206e6f74206f776e657260448201526064015b60405180910390fd5b838160ff166006811061072857610728611d85565b602002015115156001141561073e57505061076f565b6001848260ff166006811061075557610755611d85565b911515602090920201528461076981611d65565b95505050505b8061077981611d65565b915050610665565b507f000000000000000000000000000000000000000000000000000000000000000060ff168260ff1610156107f85760405162461bcd60e51b815260206004820152601f60248201527f536166654f776e61626c653a206e6f20656e6f75676820636f6e6669726d7300604482015260640161070a565b6009805490600061080883611d9b565b9190505550610817878761108d565b50505050505050565b60003361082e85828561112a565b6108398585856111bc565b506001949350505050565b336000818152600b602090815260408083206001600160a01b0387168452909152812054909190610504908290869061087e908790611db6565b610f10565b61088d33826113d3565b50565b61089b82338361112a565b6108a582826113d3565b5050565b818160006108b561192c565b3360009081526006602052604090205460ff161561092057816108d781611d65565b925050600181600660006108e83390565b6001600160a01b0316815260208101919091526040016000205460ff166006811061091557610915611d85565b911515602090920201525b60005b83518160ff161015610a23576000610949858360ff168151811061068b5761068b611d85565b6001600160a01b03811660009081526006602052604090205490915060ff16806109b55760405162461bcd60e51b815260206004820181905260248201527f536166654f776e61626c653a207369676e6572206973206e6f74206f776e6572604482015260640161070a565b838160ff16600681106109ca576109ca611d85565b60200201511515600114156109e0575050610a11565b6001848260ff16600681106109f7576109f7611d85565b9115156020909202015284610a0b81611d65565b95505050505b80610a1b81611d65565b915050610923565b507f000000000000000000000000000000000000000000000000000000000000000060ff168260ff161015610a9a5760405162461bcd60e51b815260206004820152601f60248201527f536166654f776e61626c653a206e6f20656e6f75676820636f6e6669726d7300604482015260640161070a565b60098054906000610aaa83611d9b565b909155505060008681526008602052604081205460ff166003811115610ad257610ad2611ca3565b14610b455760405162461bcd60e51b815260206004820152602c60248201527f536166654f776e61626c653a206f7065726174696f6e20776173206e6f74207360448201527f75626d6974746564207965740000000000000000000000000000000000000000606482015260840161070a565b600086815260086020526040808220805460ff191660011790555187917f33775024b20f211f019e50305c897b2105edc4642384143897ac170fb37f54a191a2505050505050565b6060600e805461047390611d14565b336000818152600b602090815260408083206001600160a01b038716845290915281205490919083811015610c395760405162461bcd60e51b815260206004820152602560248201527f45524332303a2064656372656173656420616c6c6f77616e63652062656c6f7760448201527f207a65726f000000000000000000000000000000000000000000000000000000606482015260840161070a565b6108398286868403610f10565b6000336105048185856111bc565b610c5c61192c565b6040805160c08101918290529060009060069082845b81546001600160a01b03168152600190910190602001808311610c72575050505050905090565b3360009081526006602052604090205460ff16610d1d5760405162461bcd60e51b8152602060048201526024808201527f536166654f776e61626c653a2063616c6c6572206973206e6f7420746865206f60448201527f776e657200000000000000000000000000000000000000000000000000000000606482015260840161070a565b6001600160a01b038116610d995760405162461bcd60e51b815260206004820152602a60248201527f536166654f776e61626c653a206e6577206f776e657220697320746865207a6560448201527f726f206164647265737300000000000000000000000000000000000000000000606482015260840161070a565b6001600160a01b03811660009081526006602052604090205460ff1615610e285760405162461bcd60e51b815260206004820152602560248201527f536166654f776e61626c653a206e6577206f776e657220616c7265616479206560448201527f7869737473000000000000000000000000000000000000000000000000000000606482015260840161070a565b61088d81611550565b6001600160a01b038216610e875760405162461bcd60e51b815260206004820152601f60248201527f45524332303a206d696e7420746f20746865207a65726f206164647265737300604482015260640161070a565b80600c6000828254610e999190611db6565b90915550506001600160a01b0382166000908152600a602052604081208054839290610ec6908490611db6565b90915550506040518181526001600160a01b038316906000907fddf252ad1be2c89b69c2b068fc378daa952ba7f163c4a11628f55a4df523b3ef9060200160405180910390a35050565b6001600160a01b038316610f8b5760405162461bcd60e51b8152602060048201526024808201527f45524332303a20617070726f76652066726f6d20746865207a65726f2061646460448201527f7265737300000000000000000000000000000000000000000000000000000000606482015260840161070a565b6001600160a01b0382166110075760405162461bcd60e51b815260206004820152602260248201527f45524332303a20617070726f766520746f20746865207a65726f20616464726560448201527f7373000000000000000000000000000000000000000000000000000000000000606482015260840161070a565b6001600160a01b038381166000818152600b602090815260408083209487168084529482529182902085905590518481527f8c5be1e5ebec7d5bd14f71427d1e84f3dd0314c0f7b2291e5b200ac8c7c3b92591015b60405180910390a3505050565b60008060006110788585611608565b915091506110858161164e565b509392505050565b6a422ca8b0a00a42500000006110a2600c5490565b6110ac9083611db6565b11156111205760405162461bcd60e51b815260206004820152603760248201527f564d657461333a2074686520746f74616c20616d6f756e74206973737565642060448201527f65786365656465642074686520546f74616c416d6f7574000000000000000000606482015260840161070a565b6108a58282610e31565b6001600160a01b038381166000908152600b602090815260408083209386168352929052205460001981146111b657818110156111a95760405162461bcd60e51b815260206004820152601d60248201527f45524332303a20696e73756666696369656e7420616c6c6f77616e6365000000604482015260640161070a565b6111b68484848403610f10565b50505050565b6001600160a01b0383166112385760405162461bcd60e51b815260206004820152602560248201527f45524332303a207472616e736665722066726f6d20746865207a65726f20616460448201527f6472657373000000000000000000000000000000000000000000000000000000606482015260840161070a565b6001600160a01b0382166112b45760405162461bcd60e51b815260206004820152602360248201527f45524332303a207472616e7366657220746f20746865207a65726f206164647260448201527f6573730000000000000000000000000000000000000000000000000000000000606482015260840161070a565b6001600160a01b0383166000908152600a6020526040902054818110156113435760405162461bcd60e51b815260206004820152602660248201527f45524332303a207472616e7366657220616d6f756e742065786365656473206260448201527f616c616e63650000000000000000000000000000000000000000000000000000606482015260840161070a565b6001600160a01b038085166000908152600a602052604080822085850390559185168152908120805484929061137a908490611db6565b92505081905550826001600160a01b0316846001600160a01b03167fddf252ad1be2c89b69c2b068fc378daa952ba7f163c4a11628f55a4df523b3ef846040516113c691815260200190565b60405180910390a36111b6565b6001600160a01b03821661144f5760405162461bcd60e51b815260206004820152602160248201527f45524332303a206275726e2066726f6d20746865207a65726f2061646472657360448201527f7300000000000000000000000000000000000000000000000000000000000000606482015260840161070a565b6001600160a01b0382166000908152600a6020526040902054818110156114de5760405162461bcd60e51b815260206004820152602260248201527f45524332303a206275726e20616d6f756e7420657863656564732062616c616e60448201527f6365000000000000000000000000000000000000000000000000000000000000606482015260840161070a565b6001600160a01b0383166000908152600a602052604081208383039055600c805484929061150d908490611dce565b90915550506040518281526000906001600160a01b038516907fddf252ad1be2c89b69c2b068fc378daa952ba7f163c4a11628f55a4df523b3ef9060200161105c565b33600081815260066020819052604082205460ff169184918390811061157857611578611d85565b0180547fffffffffffffffffffffffff0000000000000000000000000000000000000000166001600160a01b03928316179055828116600081815260066020526040808220805460ff19908116909155938716808352818320805490951660ff871617909455517f8be0079c531659141344cd1fd0a4f28419497f9722a3daafe3b4186f6b6457e09190a3505050565b60008082516041141561163f5760208301516040840151606085015160001a6116338782858561183f565b94509450505050611647565b506000905060025b9250929050565b600081600481111561166257611662611ca3565b141561166b5750565b600181600481111561167f5761167f611ca3565b14156116cd5760405162461bcd60e51b815260206004820152601860248201527f45434453413a20696e76616c6964207369676e61747572650000000000000000604482015260640161070a565b60028160048111156116e1576116e1611ca3565b141561172f5760405162461bcd60e51b815260206004820152601f60248201527f45434453413a20696e76616c6964207369676e6174757265206c656e67746800604482015260640161070a565b600381600481111561174357611743611ca3565b14156117b75760405162461bcd60e51b815260206004820152602260248201527f45434453413a20696e76616c6964207369676e6174757265202773272076616c60448201527f7565000000000000000000000000000000000000000000000000000000000000606482015260840161070a565b60048160048111156117cb576117cb611ca3565b141561088d5760405162461bcd60e51b815260206004820152602260248201527f45434453413a20696e76616c6964207369676e6174757265202776272076616c60448201527f7565000000000000000000000000000000000000000000000000000000000000606482015260840161070a565b6000807f7fffffffffffffffffffffffffffffff5d576e7357a4501ddfe92f46681b20a08311156118765750600090506003611923565b8460ff16601b1415801561188e57508460ff16601c14155b1561189f5750600090506004611923565b6040805160008082526020820180845289905260ff881692820192909252606081018690526080810185905260019060a0016020604051602081039080840390855afa1580156118f3573d6000803e3d6000fd5b5050604051601f1901519150506001600160a01b03811661191c57600060019250925050611923565b9150600090505b94509492505050565b6040518060c001604052806006906020820280368337509192915050565b600060208083528351808285015260005b818110156119775785810183015185820160400152820161195b565b81811115611989576000604083870101525b50601f01601f1916929092016040019392505050565b80356001600160a01b03811681146119b657600080fd5b919050565b600080604083850312156119ce57600080fd5b6119d78361199f565b946020939093013593505050565b634e487b7160e01b600052604160045260246000fd5b604051601f8201601f1916810167ffffffffffffffff81118282101715611a2457611a246119e5565b604052919050565b6000601f8381840112611a3e57600080fd5b8235602067ffffffffffffffff80831115611a5b57611a5b6119e5565b8260051b611a6a8382016119fb565b9384528681018301938381019089861115611a8457600080fd5b84890192505b85831015611b1457823584811115611aa25760008081fd5b8901603f81018b13611ab45760008081fd5b85810135604086821115611aca57611aca6119e5565b611adb88601f198c850116016119fb565b8281528d82848601011115611af05760008081fd5b828285018a8301376000928101890192909252508352509184019190840190611a8a565b9998505050505050505050565b600080600060608486031215611b3657600080fd5b611b3f8461199f565b925060208401359150604084013567ffffffffffffffff811115611b6257600080fd5b611b6e86828701611a2c565b9150509250925092565b600080600060608486031215611b8d57600080fd5b611b968461199f565b9250611ba46020850161199f565b9150604084013590509250925092565b600060208284031215611bc657600080fd5b5035919050565b600080600060608486031215611be257600080fd5b611beb8461199f565b95602085013595506040909401359392505050565b600060208284031215611c1257600080fd5b611c1b8261199f565b9392505050565b60008060408385031215611c3557600080fd5b82359150602083013567ffffffffffffffff811115611c5357600080fd5b611c5f85828601611a2c565b9150509250929050565b60c08101818360005b6006811015611c9a5781516001600160a01b0316835260209283019290910190600101611c72565b50505092915050565b634e487b7160e01b600052602160045260246000fd5b6020810160048310611cdb57634e487b7160e01b600052602160045260246000fd5b91905290565b60008060408385031215611cf457600080fd5b611cfd8361199f565b9150611d0b6020840161199f565b90509250929050565b600181811c90821680611d2857607f821691505b60208210811415611d4957634e487b7160e01b600052602260045260246000fd5b50919050565b634e487b7160e01b600052601160045260246000fd5b600060ff821660ff811415611d7c57611d7c611d4f565b60010192915050565b634e487b7160e01b600052603260045260246000fd5b6000600019821415611daf57611daf611d4f565b5060010190565b60008219821115611dc957611dc9611d4f565b500190565b600082821015611de057611de0611d4f565b50039056fea2646970667358221220837f68486ddbe4617804b02d39d2af5db5dd3b4efd629d918daf8f96fe37646764736f6c63430008090033",
  "devdoc": {
    "kind": "dev",
    "methods": {
      "allowance(address,address)": {
        "details": "See {IERC20-allowance}."
      },
      "approve(address,uint256)": {
        "details": "See {IERC20-approve}. NOTE: If `amount` is the maximum `uint256`, the allowance is not updated on `transferFrom`. This is semantically equivalent to an infinite approval. Requirements: - `spender` cannot be the zero address."
      },
      "balanceOf(address)": {
        "details": "See {IERC20-balanceOf}."
      },
      "burn(uint256)": {
        "details": "Destroys `amount` tokens from the caller. See {ERC20-_burn}."
      },
      "burnFrom(address,uint256)": {
        "details": "Destroys `amount` tokens from `account`, deducting from the caller's allowance. See {ERC20-_burn} and {ERC20-allowance}. Requirements: - the caller must have allowance for ``accounts``'s tokens of at least `amount`."
      },
      "decimals()": {
        "details": "Returns the number of decimals used to get its user representation. For example, if `decimals` equals `2`, a balance of `505` tokens should be displayed to a user as `5.05` (`505 / 10 ** 2`). Tokens usually opt for a value of 18, imitating the relationship between Ether and Wei. This is the value {ERC20} uses, unless this function is overridden; NOTE: This information is only used for _display_ purposes: it in no way affects any of the arithmetic of the contract, including {IERC20-balanceOf} and {IERC20-transfer}."
      },
      "decreaseAllowance(address,uint256)": {
        "details": "Atomically decreases the allowance granted to `spender` by the caller. This is an alternative to {approve} that can be used as a mitigation for problems described in {IERC20-approve}. Emits an {Approval} event indicating the updated allowance. Requirements: - `spender` cannot be the zero address. - `spender` must have allowance for the caller of at least `subtractedValue`."
      },
      "increaseAllowance(address,uint256)": {
        "details": "Atomically increases the allowance granted to `spender` by the caller. This is an alternative to {approve} that can be used as a mitigation for problems described in {IERC20-approve}. Emits an {Approval} event indicating the updated allowance. Requirements: - `spender` cannot be the zero address."
      },
      "name()": {
        "details": "Returns the name of the token."
      },
      "symbol()": {
        "details": "Returns the symbol of the token, usually a shorter version of the name."
      },
      "totalSupply()": {
        "details": "See {IERC20-totalSupply}."
      },
      "transfer(address,uint256)": {
        "details": "See {IERC20-transfer}. Requirements: - `to` cannot be the zero address. - the caller must have a balance of at least `amount`."
      },
      "transferFrom(address,address,uint256)": {
        "details": "See {IERC20-transferFrom}. Emits an {Approval} event indicating the updated allowance. This is not required by the EIP. See the note at the beginning of {ERC20}. NOTE: Does not update the allowance if the current allowance is the maximum `uint256`. Requirements: - `from` and `to` cannot be the zero address. - `from` must have a balance of at least `amount`. - the caller must have allowance for ``from``'s tokens of at least `amount`."
      },
      "transferOwnership(address)": {
        "details": "Transfers ownership of the contract to a new account (`newOwner`). Can only be called by the current owner."
      }
    },
    "version": 1
  },
  "userdoc": {
    "kind": "user",
    "methods": {},
    "version": 1
  },
  "storageLayout": {
    "storage": [
      {
        "astId": 6456,
        "contract": "contracts/ERC20/VM3.sol:VM3",
        "label": "_owners",
        "offset": 0,
        "slot": "0",
        "type": "t_array(t_address)6_storage"
      },
      {
        "astId": 6460,
        "contract": "contracts/ERC20/VM3.sol:VM3",
        "label": "_ownersIndex",
        "offset": 0,
        "slot": "6",
        "type": "t_mapping(t_address,t_uint8)"
      },
      {
        "astId": 6462,
        "contract": "contracts/ERC20/VM3.sol:VM3",
        "label": "_numOwners",
        "offset": 0,
        "slot": "7",
        "type": "t_uint8"
      },
      {
        "astId": 6472,
        "contract": "contracts/ERC20/VM3.sol:VM3",
        "label": "operationsStatus",
        "offset": 0,
        "slot": "8",
        "type": "t_mapping(t_bytes32,t_enum(OpStatus)6452)"
      },
      {
        "astId": 6474,
        "contract": "contracts/ERC20/VM3.sol:VM3",
        "label": "nonce",
        "offset": 0,
        "slot": "9",
        "type": "t_uint256"
      },
      {
        "astId": 3033,
        "contract": "contracts/ERC20/VM3.sol:VM3",
        "label": "_balances",
        "offset": 0,
        "slot": "10",
        "type": "t_mapping(t_address,t_uint256)"
      },
      {
        "astId": 3039,
        "contract": "contracts/ERC20/VM3.sol:VM3",
        "label": "_allowances",
        "offset": 0,
        "slot": "11",
        "type": "t_mapping(t_address,t_mapping(t_address,t_uint256))"
      },
      {
        "astId": 3041,
        "contract": "contracts/ERC20/VM3.sol:VM3",
        "label": "_totalSupply",
        "offset": 0,
        "slot": "12",
        "type": "t_uint256"
      },
      {
        "astId": 3043,
        "contract": "contracts/ERC20/VM3.sol:VM3",
        "label": "_name",
        "offset": 0,
        "slot": "13",
        "type": "t_string_storage"
      },
      {
        "astId": 3045,
        "contract": "contracts/ERC20/VM3.sol:VM3",
        "label": "_symbol",
        "offset": 0,
        "slot": "14",
        "type": "t_string_storage"
      }
    ],
    "types": {
      "t_address": {
        "encoding": "inplace",
        "label": "address",
        "numberOfBytes": "20"
      },
      "t_array(t_address)6_storage": {
        "base": "t_address",
        "encoding": "inplace",
        "label": "address[6]",
        "numberOfBytes": "192"
      },
      "t_bytes32": {
        "encoding": "inplace",
        "label": "bytes32",
        "numberOfBytes": "32"
      },
      "t_enum(OpStatus)6452": {
        "encoding": "inplace",
        "label": "enum SafeOwnable.OpStatus",
        "numberOfBytes": "1"
      },
      "t_mapping(t_address,t_mapping(t_address,t_uint256))": {
        "encoding": "mapping",
        "key": "t_address",
        "label": "mapping(address => mapping(address => uint256))",
        "numberOfBytes": "32",
        "value": "t_mapping(t_address,t_uint256)"
      },
      "t_mapping(t_address,t_uint256)": {
        "encoding": "mapping",
        "key": "t_address",
        "label": "mapping(address => uint256)",
        "numberOfBytes": "32",
        "value": "t_uint256"
      },
      "t_mapping(t_address,t_uint8)": {
        "encoding": "mapping",
        "key": "t_address",
        "label": "mapping(address => uint8)",
        "numberOfBytes": "32",
        "value": "t_uint8"
      },
      "t_mapping(t_bytes32,t_enum(OpStatus)6452)": {
        "encoding": "mapping",
        "key": "t_bytes32",
        "label": "mapping(bytes32 => enum SafeOwnable.OpStatus)",
        "numberOfBytes": "32",
        "value": "t_enum(OpStatus)6452"
      },
      "t_string_storage": {
        "encoding": "bytes",
        "label": "string",
        "numberOfBytes": "32"
      },
      "t_uint256": {
        "encoding": "inplace",
        "label": "uint256",
        "numberOfBytes": "32"
      },
      "t_uint8": {
        "encoding": "inplace",
        "label": "uint8",
        "numberOfBytes": "1"
      }
    }
  }
}