{
  "address": "0xe3C3a7ed35562579b2fFaD8d6cec23585EB0aC96",
  "abi": [
    {
      "inputs": [],
      "stateMutability": "nonpayable",
      "type": "constructor"
    },
    {
      "inputs": [
        {
          "internalType": "address",
          "name": "have",
          "type": "address"
        },
        {
          "internalType": "address",
          "name": "want",
          "type": "address"
        }
      ],
      "name": "OnlyCoordinatorCanFulfill",
      "type": "error"
    },
    {
      "anonymous": false,
      "inputs": [
        {
          "indexed": false,
          "internalType": "address",
          "name": "previousAdmin",
          "type": "address"
        },
        {
          "indexed": false,
          "internalType": "address",
          "name": "newAdmin",
          "type": "address"
        }
      ],
      "name": "AdminChanged",
      "type": "event"
    },
    {
      "anonymous": false,
      "inputs": [
        {
          "indexed": true,
          "internalType": "address",
          "name": "beacon",
          "type": "address"
        }
      ],
      "name": "BeaconUpgraded",
      "type": "event"
    },
    {
      "anonymous": false,
      "inputs": [
        {
          "indexed": false,
          "internalType": "address",
          "name": "account",
          "type": "address"
        },
        {
          "indexed": false,
          "internalType": "uint256",
          "name": "amount",
          "type": "uint256"
        }
      ],
      "name": "GetReward",
      "type": "event"
    },
    {
      "anonymous": false,
      "inputs": [
        {
          "indexed": false,
          "internalType": "uint8",
          "name": "version",
          "type": "uint8"
        }
      ],
      "name": "Initialized",
      "type": "event"
    },
    {
      "anonymous": false,
      "inputs": [
        {
          "indexed": false,
          "internalType": "address",
          "name": "account",
          "type": "address"
        },
        {
          "indexed": false,
          "internalType": "uint256",
          "name": "amount",
          "type": "uint256"
        }
      ],
      "name": "InjectReleaseReward",
      "type": "event"
    },
    {
      "anonymous": false,
      "inputs": [
        {
          "indexed": true,
          "internalType": "bytes32",
          "name": "opHash",
          "type": "bytes32"
        }
      ],
      "name": "OperationAdded",
      "type": "event"
    },
    {
      "anonymous": false,
      "inputs": [
        {
          "indexed": true,
          "internalType": "address",
          "name": "previousOwner",
          "type": "address"
        },
        {
          "indexed": true,
          "internalType": "address",
          "name": "newOwner",
          "type": "address"
        }
      ],
      "name": "OwnershipTransferred",
      "type": "event"
    },
    {
      "anonymous": false,
      "inputs": [
        {
          "indexed": false,
          "internalType": "uint256",
          "name": "requestId",
          "type": "uint256"
        },
        {
          "indexed": false,
          "internalType": "uint256[]",
          "name": "randomWords",
          "type": "uint256[]"
        }
      ],
      "name": "RequestFulfilled",
      "type": "event"
    },
    {
      "anonymous": false,
      "inputs": [
        {
          "indexed": false,
          "internalType": "uint256",
          "name": "requestId",
          "type": "uint256"
        },
        {
          "indexed": false,
          "internalType": "uint32",
          "name": "numWords",
          "type": "uint32"
        }
      ],
      "name": "RequestSent",
      "type": "event"
    },
    {
      "anonymous": false,
      "inputs": [
        {
          "indexed": true,
          "internalType": "address",
          "name": "implementation",
          "type": "address"
        }
      ],
      "name": "Upgraded",
      "type": "event"
    },
    {
      "anonymous": false,
      "inputs": [
        {
          "indexed": false,
          "internalType": "address",
          "name": "account",
          "type": "address"
        },
        {
          "indexed": false,
          "internalType": "uint256",
          "name": "amount",
          "type": "uint256"
        }
      ],
      "name": "WithdrawReleasedReward",
      "type": "event"
    },
    {
      "inputs": [
        {
          "internalType": "bytes32",
          "name": "opHash",
          "type": "bytes32"
        },
        {
          "internalType": "bytes[]",
          "name": "sigs",
          "type": "bytes[]"
        }
      ],
      "name": "AddOpHashToPending",
      "outputs": [],
      "stateMutability": "nonpayable",
      "type": "function"
    },
    {
      "inputs": [],
      "name": "ERC20Token",
      "outputs": [
        {
          "internalType": "contract IERC20",
          "name": "",
          "type": "address"
        }
      ],
      "stateMutability": "view",
      "type": "function"
    },
    {
      "inputs": [
        {
          "internalType": "bytes32",
          "name": "data",
          "type": "bytes32"
        }
      ],
      "name": "HashToSign",
      "outputs": [
        {
          "internalType": "bytes32",
          "name": "",
          "type": "bytes32"
        }
      ],
      "stateMutability": "pure",
      "type": "function"
    },
    {
      "inputs": [],
      "name": "Spender",
      "outputs": [
        {
          "internalType": "address",
          "name": "",
          "type": "address"
        }
      ],
      "stateMutability": "view",
      "type": "function"
    },
    {
      "inputs": [],
      "name": "callbackGasLimit",
      "outputs": [
        {
          "internalType": "uint32",
          "name": "",
          "type": "uint32"
        }
      ],
      "stateMutability": "view",
      "type": "function"
    },
    {
      "inputs": [],
      "name": "checkReleased",
      "outputs": [
        {
          "internalType": "uint256",
          "name": "",
          "type": "uint256"
        }
      ],
      "stateMutability": "view",
      "type": "function"
    },
    {
      "inputs": [
        {
          "internalType": "address",
          "name": "user",
          "type": "address"
        }
      ],
      "name": "futureReleaseData",
      "outputs": [
        {
          "components": [
            {
              "internalType": "uint256",
              "name": "date",
              "type": "uint256"
            },
            {
              "internalType": "uint256",
              "name": "amount",
              "type": "uint256"
            }
          ],
          "internalType": "struct ActivityReward.FutureReleaseData[]",
          "name": "",
          "type": "tuple[]"
        }
      ],
      "stateMutability": "view",
      "type": "function"
    },
    {
      "inputs": [
        {
          "internalType": "uint256",
          "name": "nonce_",
          "type": "uint256"
        }
      ],
      "name": "getFreeReward",
      "outputs": [],
      "stateMutability": "nonpayable",
      "type": "function"
    },
    {
      "inputs": [
        {
          "internalType": "address",
          "name": "to",
          "type": "address"
        },
        {
          "internalType": "uint256",
          "name": "nonce_",
          "type": "uint256"
        }
      ],
      "name": "getFreeRewardHash",
      "outputs": [
        {
          "internalType": "bytes32",
          "name": "",
          "type": "bytes32"
        }
      ],
      "stateMutability": "view",
      "type": "function"
    },
    {
      "inputs": [
        {
          "internalType": "address",
          "name": "to",
          "type": "address"
        },
        {
          "internalType": "uint256",
          "name": "nonce_",
          "type": "uint256"
        }
      ],
      "name": "getFreeRewardTo",
      "outputs": [],
      "stateMutability": "nonpayable",
      "type": "function"
    },
    {
      "inputs": [
        {
          "internalType": "uint256",
          "name": "nonce_",
          "type": "uint256"
        }
      ],
      "name": "getMultipleReward",
      "outputs": [],
      "stateMutability": "nonpayable",
      "type": "function"
    },
    {
      "inputs": [
        {
          "internalType": "address",
          "name": "to",
          "type": "address"
        },
        {
          "internalType": "uint256",
          "name": "nonce_",
          "type": "uint256"
        }
      ],
      "name": "getMultipleRewardHash",
      "outputs": [
        {
          "internalType": "bytes32",
          "name": "",
          "type": "bytes32"
        }
      ],
      "stateMutability": "view",
      "type": "function"
    },
    {
      "inputs": [
        {
          "internalType": "address",
          "name": "to",
          "type": "address"
        },
        {
          "internalType": "uint256",
          "name": "nonce_",
          "type": "uint256"
        }
      ],
      "name": "getMultipleRewardTo",
      "outputs": [],
      "stateMutability": "nonpayable",
      "type": "function"
    },
    {
      "inputs": [
        {
          "internalType": "address[]",
          "name": "owners",
          "type": "address[]"
        },
        {
          "internalType": "uint8",
          "name": "signRequred",
          "type": "uint8"
        },
        {
          "internalType": "address",
          "name": "vrfCoordinatorAddress_",
          "type": "address"
        }
      ],
      "name": "initialize",
      "outputs": [],
      "stateMutability": "nonpayable",
      "type": "function"
    },
    {
      "inputs": [
        {
          "internalType": "address",
          "name": "receiver",
          "type": "address"
        },
        {
          "internalType": "uint256",
          "name": "amount",
          "type": "uint256"
        },
        {
          "internalType": "uint256",
          "name": "nonce",
          "type": "uint256"
        }
      ],
      "name": "injectReleaseReward",
      "outputs": [],
      "stateMutability": "nonpayable",
      "type": "function"
    },
    {
      "inputs": [
        {
          "internalType": "address",
          "name": "receiver",
          "type": "address"
        },
        {
          "internalType": "uint256",
          "name": "amount",
          "type": "uint256"
        },
        {
          "internalType": "uint256",
          "name": "nonce_",
          "type": "uint256"
        }
      ],
      "name": "injectReleaseRewardHash",
      "outputs": [
        {
          "internalType": "bytes32",
          "name": "",
          "type": "bytes32"
        }
      ],
      "stateMutability": "view",
      "type": "function"
    },
    {
      "inputs": [
        {
          "internalType": "address",
          "name": "receiver",
          "type": "address"
        },
        {
          "internalType": "uint256",
          "name": "amount",
          "type": "uint256"
        }
      ],
      "name": "injectionIncomeAndPool",
      "outputs": [
        {
          "internalType": "uint256",
          "name": "income",
          "type": "uint256"
        },
        {
          "internalType": "uint256",
          "name": "pool",
          "type": "uint256"
        }
      ],
      "stateMutability": "view",
      "type": "function"
    },
    {
      "inputs": [],
      "name": "keyHash",
      "outputs": [
        {
          "internalType": "bytes32",
          "name": "",
          "type": "bytes32"
        }
      ],
      "stateMutability": "view",
      "type": "function"
    },
    {
      "inputs": [],
      "name": "maxNumOwners",
      "outputs": [
        {
          "internalType": "uint8",
          "name": "",
          "type": "uint8"
        }
      ],
      "stateMutability": "view",
      "type": "function"
    },
    {
      "inputs": [],
      "name": "nonce",
      "outputs": [
        {
          "internalType": "uint256",
          "name": "",
          "type": "uint256"
        }
      ],
      "stateMutability": "view",
      "type": "function"
    },
    {
      "inputs": [
        {
          "internalType": "bytes32",
          "name": "",
          "type": "bytes32"
        }
      ],
      "name": "operationsStatus",
      "outputs": [
        {
          "internalType": "enum SafeOwnableUpgradeable.OpStatus",
          "name": "",
          "type": "uint8"
        }
      ],
      "stateMutability": "view",
      "type": "function"
    },
    {
      "inputs": [],
      "name": "owners",
      "outputs": [
        {
          "internalType": "address[6]",
          "name": "",
          "type": "address[6]"
        }
      ],
      "stateMutability": "view",
      "type": "function"
    },
    {
      "inputs": [],
      "name": "proxiableUUID",
      "outputs": [
        {
          "internalType": "bytes32",
          "name": "",
          "type": "bytes32"
        }
      ],
      "stateMutability": "view",
      "type": "function"
    },
    {
      "inputs": [
        {
          "internalType": "uint256",
          "name": "requestId",
          "type": "uint256"
        },
        {
          "internalType": "uint256[]",
          "name": "randomWords",
          "type": "uint256[]"
        }
      ],
      "name": "rawFulfillRandomWords",
      "outputs": [],
      "stateMutability": "nonpayable",
      "type": "function"
    },
    {
      "inputs": [
        {
          "internalType": "address",
          "name": "user",
          "type": "address"
        }
      ],
      "name": "releaseRewardInfo",
      "outputs": [
        {
          "internalType": "uint256",
          "name": "firstInjectTime",
          "type": "uint256"
        },
        {
          "internalType": "uint256",
          "name": "pool",
          "type": "uint256"
        }
      ],
      "stateMutability": "view",
      "type": "function"
    },
    {
      "inputs": [
        {
          "internalType": "uint256",
          "name": "",
          "type": "uint256"
        }
      ],
      "name": "requests",
      "outputs": [
        {
          "internalType": "address",
          "name": "user",
          "type": "address"
        },
        {
          "internalType": "uint256",
          "name": "randomWord",
          "type": "uint256"
        },
        {
          "internalType": "bool",
          "name": "fulfilled",
          "type": "bool"
        },
        {
          "internalType": "bool",
          "name": "exists",
          "type": "bool"
        }
      ],
      "stateMutability": "view",
      "type": "function"
    },
    {
      "inputs": [
        {
          "internalType": "uint32",
          "name": "callbackGasLimit_",
          "type": "uint32"
        },
        {
          "internalType": "uint64",
          "name": "subscribeId_",
          "type": "uint64"
        },
        {
          "internalType": "bytes32",
          "name": "keyHash_",
          "type": "bytes32"
        },
        {
          "internalType": "uint16",
          "name": "requestConfirmations_",
          "type": "uint16"
        }
      ],
      "name": "setChainlink",
      "outputs": [],
      "stateMutability": "nonpayable",
      "type": "function"
    },
    {
      "inputs": [
        {
          "internalType": "address",
          "name": "token",
          "type": "address"
        }
      ],
      "name": "setERC20",
      "outputs": [],
      "stateMutability": "nonpayable",
      "type": "function"
    },
    {
      "inputs": [
        {
          "internalType": "address",
          "name": "newSpender",
          "type": "address"
        }
      ],
      "name": "setSpender",
      "outputs": [],
      "stateMutability": "nonpayable",
      "type": "function"
    },
    {
      "inputs": [],
      "name": "signRequired",
      "outputs": [
        {
          "internalType": "uint8",
          "name": "",
          "type": "uint8"
        }
      ],
      "stateMutability": "view",
      "type": "function"
    },
    {
      "inputs": [],
      "name": "subscriptionId",
      "outputs": [
        {
          "internalType": "uint64",
          "name": "",
          "type": "uint64"
        }
      ],
      "stateMutability": "view",
      "type": "function"
    },
    {
      "inputs": [
        {
          "internalType": "address",
          "name": "newOwner",
          "type": "address"
        }
      ],
      "name": "transferOwnership",
      "outputs": [],
      "stateMutability": "nonpayable",
      "type": "function"
    },
    {
      "inputs": [
        {
          "internalType": "address",
          "name": "newImplementation",
          "type": "address"
        }
      ],
      "name": "upgradeTo",
      "outputs": [],
      "stateMutability": "nonpayable",
      "type": "function"
    },
    {
      "inputs": [
        {
          "internalType": "address",
          "name": "newImplementation",
          "type": "address"
        },
        {
          "internalType": "bytes",
          "name": "data",
          "type": "bytes"
        }
      ],
      "name": "upgradeToAndCall",
      "outputs": [],
      "stateMutability": "payable",
      "type": "function"
    },
    {
      "inputs": [],
      "name": "withdrawReleasedReward",
      "outputs": [],
      "stateMutability": "nonpayable",
      "type": "function"
    },
    {
      "inputs": [
        {
          "internalType": "address",
          "name": "to",
          "type": "address"
        }
      ],
      "name": "withdrawReleasedRewardTo",
      "outputs": [],
      "stateMutability": "nonpayable",
      "type": "function"
    }
  ],
  "transactionHash": "0x4e96cbf7b8f8c40d77b1956b9b5f924fefb62def688b140433132feba1355d92",
  "args": [],
  "numDeployments": 1,
  "solcInputHash": "4becb5c24ae018ee421d61fdf2822fab",
  "bytecode": "0x60a0604052306080523480156200001557600080fd5b50600054610100900460ff1615808015620000375750600054600160ff909116105b8062000067575062000054306200014160201b62001d541760201c565b15801562000067575060005460ff166001145b620000cf5760405162461bcd60e51b815260206004820152602e60248201527f496e697469616c697a61626c653a20636f6e747261637420697320616c72656160448201526d191e481a5b9a5d1a585b1a5e995960921b606482015260840160405180910390fd5b6000805460ff191660011790558015620000f3576000805461ff0019166101001790555b80156200013a576000805461ff0019169055604051600181527f7f26b83ff96e1f2b6a682f133852f6798a09c465da95921460cefb38474024989060200160405180910390a15b5062000150565b6001600160a01b03163b151590565b608051613c536200018860003960008181610a0001528181610a9601528181610cf201528181610d880152610e7f0152613c536000f3fe60806040526004361061024f5760003560e01c80637d281ec711610138578063c09d9b6e116100b0578063ce0d0ca01161007f578063eb53a05711610064578063eb53a057146107a2578063f2fde38b146107c2578063f8b691f2146107e257600080fd5b8063ce0d0ca014610745578063d9c10af61461078257600080fd5b8063c09d9b6e146106c3578063c0a385f7146106e3578063c29a6fda146106f8578063c4cb52671461071857600080fd5b8063a5c2006011610107578063afbcc8b2116100ec578063afbcc8b21461066b578063affe39c11461068b578063affed0e0146106ad57600080fd5b8063a5c200601461062b578063ada1a4791461064b57600080fd5b80637d281ec7146105295780637e716f231461054957806381d12c58146105875780638b5a21431461060b57600080fd5b806344439209116101cb57806361728f391161019a57806376d99a671161017f57806376d99a67146104b25780637a29349d146104d25780637a80760e146104f157600080fd5b806361728f391461042e57806375f3958c1461044457600080fd5b806344439209146103d15780634f1ef286146103f157806352d1902d146104045780635c5486821461041957600080fd5b80631fe543e31161022257806325d2cbd01161020757806325d2cbd01461035c5780633659cfe61461037c5780633ecd7c131461039c57600080fd5b80631fe543e31461030a57806324f746971461032a57600080fd5b806309c1ba2e146102545780630c3515ba146102935780630c81df01146102ba5780631c5620bc146102dc575b600080fd5b34801561026057600080fd5b5060a5546102759067ffffffffffffffff1681565b60405167ffffffffffffffff90911681526020015b60405180910390f35b34801561029f57600080fd5b506102a8600581565b60405160ff909116815260200161028a565b3480156102c657600080fd5b506102da6102d53660046134c8565b610800565b005b3480156102e857600080fd5b506102fc6102f7366004613554565b610901565b60405190815260200161028a565b34801561031657600080fd5b506102da6103253660046135f2565b610981565b34801561033657600080fd5b5060a7546103479063ffffffff1681565b60405163ffffffff909116815260200161028a565b34801561036857600080fd5b506102da610377366004613694565b6109e8565b34801561038857600080fd5b506102da6103973660046136ad565b6109f5565b3480156103a857600080fd5b506103bc6103b73660046136c8565b610b90565b6040805192835260208301919091520161028a565b3480156103dd57600080fd5b506102da6103ec3660046136ad565b610c41565b6102da6103ff366004613762565b610ce7565b34801561041057600080fd5b506102fc610e72565b34801561042557600080fd5b506102fc610f37565b34801561043a57600080fd5b506102fc60a65481565b34801561045057600080fd5b506102fc61045f366004613694565b6040517f19457468657265756d205369676e6564204d6573736167653a0a3332000000006020820152603c8101829052600090605c01604051602081830303815290604052805190602001209050919050565b3480156104be57600080fd5b506102da6104cd3660046136ad565b6110b8565b3480156104de57600080fd5b50609e546102a890610100900460ff1681565b3480156104fd57600080fd5b5060a254610511906001600160a01b031681565b6040516001600160a01b03909116815260200161028a565b34801561053557600080fd5b506102da610544366004613694565b611138565b34801561055557600080fd5b506103bc6105643660046136ad565b6001600160a01b0316600090815260a96020526040902080546002909101549091565b34801561059357600080fd5b506105d96105a2366004613694565b60a8602052600090815260409020805460018201546002909201546001600160a01b03909116919060ff8082169161010090041684565b604080516001600160a01b0390951685526020850193909352901515918301919091521515606082015260800161028a565b34801561061757600080fd5b506102da6106263660046137b0565b611142565b34801561063757600080fd5b506102fc6106463660046136c8565b611471565b34801561065757600080fd5b506102da6106663660046136c8565b6114f2565b34801561067757600080fd5b506102da610686366004613554565b6114fc565b34801561069757600080fd5b506106a061178c565b60405161028a919061386d565b3480156106b957600080fd5b506102fc60a05481565b3480156106cf57600080fd5b506102fc6106de3660046136c8565b6117d1565b3480156106ef57600080fd5b506102da611834565b34801561070457600080fd5b506102da6107133660046136ad565b61183f565b34801561072457600080fd5b506107386107333660046136ad565b6118e5565b60405161028a91906138a7565b34801561075157600080fd5b50610775610760366004613694565b609f6020526000908152604090205460ff1681565b60405161028a919061390c565b34801561078e57600080fd5b506102da61079d3660046136c8565b6119f5565b3480156107ae57600080fd5b506102da6107bd366004613945565b6119ff565b3480156107ce57600080fd5b506102da6107dd3660046136ad565b611bc9565b3480156107ee57600080fd5b5060a3546001600160a01b0316610511565b336000908152609d602052604090205460ff1661087c5760405162461bcd60e51b815260206004820152602f60248201527f536166654f776e61626c655570677261646561626c653a2063616c6c6572206960448201526e39903737ba103a34329037bbb732b960891b60648201526084015b60405180910390fd5b60a7805460a5805467ffffffffffffffff9096167fffffffffffffffffffffffffffffffffffffffffffffffff00000000000000009096169590951790945560a69290925561ffff16640100000000027fffffffffffffffffffffffffffffffffffffffffffffffffffff00000000000090921663ffffffff90931692909217179055565b60a4546040805160208101929092527fafbcc8b20b97b668c2e3e22ebe12a4bcf56de63832804a44009120e16da19ffb90820152606084811b6bffffffffffffffffffffffff191690820152607481018390526094810182905260009060b4016040516020818303038152906040528051906020012090505b9392505050565b60a1546001600160a01b031633146109da5760a1546040517f1cf993f40000000000000000000000000000000000000000000000000000000081523360048201526001600160a01b039091166024820152604401610873565b6109e48282611d63565b5050565b6109f23382611f0f565b50565b306001600160a01b037f0000000000000000000000000000000000000000000000000000000000000000161415610a945760405162461bcd60e51b815260206004820152602c60248201527f46756e6374696f6e206d7573742062652063616c6c6564207468726f7567682060448201527f64656c656761746563616c6c00000000000000000000000000000000000000006064820152608401610873565b7f00000000000000000000000000000000000000000000000000000000000000006001600160a01b0316610aef7f360894a13ba1a3210667c828492db98dca3e2076cc3735a920a3ca505d382bbc546001600160a01b031690565b6001600160a01b031614610b6b5760405162461bcd60e51b815260206004820152602c60248201527f46756e6374696f6e206d7573742062652063616c6c6564207468726f7567682060448201527f6163746976652070726f787900000000000000000000000000000000000000006064820152608401610873565b610b7481611fe4565b604080516000808252602082019092526109f29183919061205b565b6001600160a01b038216600090815260aa6020526040812054819060ff1615610c20576001600160a01b038416600090815260a96020526040902060020154601490610bdd908590613a15565b610be79190613a43565b9150610bf38284613a57565b6001600160a01b038516600090815260a96020526040902060020154610c199190613a15565b9050610c3a565b610c2b601484613a43565b9150610c378284613a57565b90505b9250929050565b336000908152609d602052604090205460ff16610cb85760405162461bcd60e51b815260206004820152602f60248201527f536166654f776e61626c655570677261646561626c653a2063616c6c6572206960448201526e39903737ba103a34329037bbb732b960891b6064820152608401610873565b60a3805473ffffffffffffffffffffffffffffffffffffffff19166001600160a01b0392909216919091179055565b306001600160a01b037f0000000000000000000000000000000000000000000000000000000000000000161415610d865760405162461bcd60e51b815260206004820152602c60248201527f46756e6374696f6e206d7573742062652063616c6c6564207468726f7567682060448201527f64656c656761746563616c6c00000000000000000000000000000000000000006064820152608401610873565b7f00000000000000000000000000000000000000000000000000000000000000006001600160a01b0316610de17f360894a13ba1a3210667c828492db98dca3e2076cc3735a920a3ca505d382bbc546001600160a01b031690565b6001600160a01b031614610e5d5760405162461bcd60e51b815260206004820152602c60248201527f46756e6374696f6e206d7573742062652063616c6c6564207468726f7567682060448201527f6163746976652070726f787900000000000000000000000000000000000000006064820152608401610873565b610e6682611fe4565b6109e48282600161205b565b6000306001600160a01b037f00000000000000000000000000000000000000000000000000000000000000001614610f125760405162461bcd60e51b815260206004820152603860248201527f555550535570677261646561626c653a206d757374206e6f742062652063616c60448201527f6c6564207468726f7567682064656c656761746563616c6c00000000000000006064820152608401610873565b507f360894a13ba1a3210667c828492db98dca3e2076cc3735a920a3ca505d382bbc90565b33600090815260aa602052604081205460ff161580610f73575033600090815260a9602052604090205462278d0090610f709042613a57565b11155b15610f7e5750600090565b33600090815260a96020526040902060020154674563918244f400001115610fb7575033600090815260a9602052604090206002015490565b33600090815260a9602052604081206001015462278d0090610fd99042613a57565b610fe39190613a43565b90506000805b8260ff168160ff16101561107d5733600090815260a9602052604090206002015482106110155761107d565b33600090815260a96020526040812060020154600a90611036908590613a57565b6110409190613a43565b9050674563918244f4000081101561105d5750674563918244f400005b6110678184613a15565b925050808061107590613a6e565b915050610fe9565b5033600090815260a960205260409020600201548111156110b257505033600090815260a96020526040902060020154919050565b92915050565b336000908152609d602052604090205460ff1661112f5760405162461bcd60e51b815260206004820152602f60248201527f536166654f776e61626c655570677261646561626c653a2063616c6c6572206960448201526e39903737ba103a34329037bbb732b960891b6064820152608401610873565b6109f28161220a565b6109f2338261231c565b8181600061114e6134aa565b336000908152609d602052604090205460ff16156111b9578161117081613a6e565b925050600181609d60006111813390565b6001600160a01b0316815260208101919091526040016000205460ff16600681106111ae576111ae613a8e565b911515602090920201525b60005b83518160ff1610156112f95760006111f9858360ff16815181106111e2576111e2613a8e565b6020026020010151876123e590919063ffffffff16565b6001600160a01b0381166000908152609d602052604090205490915060ff168061128b5760405162461bcd60e51b815260206004820152602b60248201527f536166654f776e61626c655570677261646561626c653a207369676e6572206960448201527f73206e6f74206f776e65720000000000000000000000000000000000000000006064820152608401610873565b838160ff16600681106112a0576112a0613a8e565b60200201511515600114156112b65750506112e7565b6001848260ff16600681106112cd576112cd613a8e565b91151560209092020152846112e181613a6e565b95505050505b806112f181613a6e565b9150506111bc565b50609e5460ff6101009091048116908316101561137e5760405162461bcd60e51b815260206004820152602a60248201527f536166654f776e61626c655570677261646561626c653a206e6f20656e6f756760448201527f6820636f6e6669726d73000000000000000000000000000000000000000000006064820152608401610873565b60a0805490600061138e83613aa4565b90915550506000868152609f602052604081205460ff1660038111156113b6576113b66138f6565b146114295760405162461bcd60e51b815260206004820152603760248201527f536166654f776e61626c655570677261646561626c653a206f7065726174696f60448201527f6e20776173206e6f74207375626d6974746564207965740000000000000000006064820152608401610873565b6000868152609f6020526040808220805460ff191660011790555187917f33775024b20f211f019e50305c897b2105edc4642384143897ac170fb37f54a191a2505050505050565b600060a4547fa2ac2c3aeda143245c96c54e039a6916e1234475a4dbb081f98c069027ea915884846040516020016114d49493929190938452602084019290925260601b6bffffffffffffffffffffffff19166040830152605482015260740190565b60405160208183030381529060405280519060200120905092915050565b6109e48282611f0f565b61150a61045f848484610901565b60016000828152609f602052604090205460ff16600381111561152f5761152f6138f6565b146115a25760405162461bcd60e51b815260206004820152603060248201527f536166654f776e61626c655570677261646561626c653a206f7065726174696f60448201527f6e206e6f7420696e2070656e64696e67000000000000000000000000000000006064820152608401610873565b6000818152609f60205260408120805460ff19166002179055806115c68686610b90565b60a25460a3546040516323b872dd60e01b81526001600160a01b0391821660048201528a821660248201526044810185905293955091935016906323b872dd90606401602060405180830381600087803b15801561162357600080fd5b505af1158015611637573d6000803e3d6000fd5b505050506040513d601f19601f8201168201806040525081019061165b9190613abf565b50604080516001600160a01b0388168152602081018490527fb94b60c7fc04d4037fb1d7858577d15862949131a49dcecefe008670562f7c2e910160405180910390a16001600160a01b038616600090815260aa602052604090205460ff16156116e2576001600160a01b038616600090815260a960205260409020600201819055611742565b604080516060810182524280825260208083019182528284018581526001600160a01b038b16600090815260a98352858120945185559251600180860191909155905160029094019390935560aa905291909120805460ff191690911790555b604080516001600160a01b0388168152602081018790527f09a8e474d1bab4b499abd3f1679574758192dab48db30a03b0d4236f39c702b8910160405180910390a1505050505050565b6117946134aa565b6040805160c08101918290529060979060069082845b81546001600160a01b031681526001909101906020018083116117aa575050505050905090565b600060a4547f6a0f4f562fde02de23e14122e8a1615489fbf697af90d613298e80a9357ae4eb84846040516020016114d49493929190938452602084019290925260601b6bffffffffffffffffffffffff19166040830152605482015260740190565b61183d3361220a565b565b336000908152609d602052604090205460ff166118b65760405162461bcd60e51b815260206004820152602f60248201527f536166654f776e61626c655570677261646561626c653a2063616c6c6572206960448201526e39903737ba103a34329037bbb732b960891b6064820152608401610873565b60a2805473ffffffffffffffffffffffffffffffffffffffff19166001600160a01b0392909216919091179055565b6001600160a01b038116600090815260a9602052604081206002810154600190910154606092839290915b81156119eb5761192362278d0082613a15565b9050674563918244f4000082101561196f57604051806040016040528082815260200183815250848460ff168151811061195f5761195f613a8e565b60200260200101819052506119eb565b600061197c600a84613a43565b9050674563918244f400008110156119995750674563918244f400005b604051806040016040528083815260200182815250858560ff16815181106119c3576119c3613a8e565b60209081029190910101526119d88184613a57565b92506119e384613a6e565b935050611910565b5091949350505050565b6109e4828261231c565b600054610100900460ff1615808015611a1f5750600054600160ff909116105b80611a395750303b158015611a39575060005460ff166001145b611aab5760405162461bcd60e51b815260206004820152602e60248201527f496e697469616c697a61626c653a20636f6e747261637420697320616c72656160448201527f647920696e697469616c697a65640000000000000000000000000000000000006064820152608401610873565b6000805460ff191660011790558015611ace576000805461ff0019166101001790555b611ad88484612409565b611ae18261279b565b60a580547fffffffff0000000000000000000000000000000000000000ffffffffffffffff16680100000000000000006001600160a01b03851602179055611b276128d4565b604080517f20a714382505729b6977051cb17e2cd66b3149e150240124aa4917fe7f2189906020820152469181019190915230606082015260800160408051601f19818403018152919052805160209091012060a4558015611bc3576000805461ff0019169055604051600181527f7f26b83ff96e1f2b6a682f133852f6798a09c465da95921460cefb38474024989060200160405180910390a15b50505050565b336000908152609d602052604090205460ff16611c405760405162461bcd60e51b815260206004820152602f60248201527f536166654f776e61626c655570677261646561626c653a2063616c6c6572206960448201526e39903737ba103a34329037bbb732b960891b6064820152608401610873565b6001600160a01b038116611cbc5760405162461bcd60e51b815260206004820152603560248201527f536166654f776e61626c655570677261646561626c653a206e6577206f776e6560448201527f7220697320746865207a65726f206164647265737300000000000000000000006064820152608401610873565b6001600160a01b0381166000908152609d602052604090205460ff1615611d4b5760405162461bcd60e51b815260206004820152603060248201527f536166654f776e61626c655570677261646561626c653a206e6577206f776e6560448201527f7220616c726561647920657869737473000000000000000000000000000000006064820152608401610873565b6109f281612951565b6001600160a01b03163b151590565b600082815260a86020526040902060020154610100900460ff16611def5760405162461bcd60e51b815260206004820152602160248201527f41637469766974795265776172643a2072657175657374206e6f7420666f756e60448201527f64000000000000000000000000000000000000000000000000000000000000006064820152608401610873565b600082815260a8602052604090206002015460ff1615611e775760405162461bcd60e51b815260206004820152602a60248201527f41637469766974795265776172643a207265717565737420686173206265656e60448201527f2070726f636573736564000000000000000000000000000000000000000000006064820152608401610873565b80600081518110611e8a57611e8a613a8e565b602002602001015160a8600084815260200190815260200160002060010181905550611eb5826129fd565b600082815260a8602052604090819020600201805460ff19166001179055517ffe2e2d779dba245964d4e3ef9b994be63856fd568bf7d3ca9e224755cb1bd54d90611f039084908490613ae1565b60405180910390a15050565b611f1c61045f8383611471565b60016000828152609f602052604090205460ff166003811115611f4157611f416138f6565b14611fb45760405162461bcd60e51b815260206004820152603060248201527f536166654f776e61626c655570677261646561626c653a206f7065726174696f60448201527f6e206e6f7420696e2070656e64696e67000000000000000000000000000000006064820152608401610873565b6000818152609f60205260409020805460ff19166002179055611fdf836706f05b59d3b20000612bfd565b505050565b336000908152609d602052604090205460ff166109f25760405162461bcd60e51b815260206004820152602f60248201527f536166654f776e61626c655570677261646561626c653a2063616c6c6572206960448201526e39903737ba103a34329037bbb732b960891b6064820152608401610873565b7f4910fdfa16fed3260ed0e7147f7cc6da11a60208b5b9406d12a635614ffd91435460ff161561208e57611fdf83612d3e565b826001600160a01b03166352d1902d6040518163ffffffff1660e01b815260040160206040518083038186803b1580156120c757600080fd5b505afa9250505080156120f7575060408051601f3d908101601f191682019092526120f491810190613b2f565b60015b6121695760405162461bcd60e51b815260206004820152602e60248201527f45524331393637557067726164653a206e657720696d706c656d656e7461746960448201527f6f6e206973206e6f7420555550530000000000000000000000000000000000006064820152608401610873565b7f360894a13ba1a3210667c828492db98dca3e2076cc3735a920a3ca505d382bbc81146121fe5760405162461bcd60e51b815260206004820152602960248201527f45524331393637557067726164653a20756e737570706f727465642070726f7860448201527f6961626c655555494400000000000000000000000000000000000000000000006064820152608401610873565b50611fdf838383612e09565b6000612214610f37565b60a25460a3546040516323b872dd60e01b81526001600160a01b03918216600482015285821660248201526044810184905292935016906323b872dd90606401602060405180830381600087803b15801561226e57600080fd5b505af1158015612282573d6000803e3d6000fd5b505050506040513d601f19601f820116820180604052508101906122a69190613abf565b506001600160a01b038216600090815260a96020526040812042600182015560020180548392906122d8908490613a57565b9091555050604080516001600160a01b0384168152602081018390527fb94b60c7fc04d4037fb1d7858577d15862949131a49dcecefe008670562f7c2e9101611f03565b61232961045f83836117d1565b60016000828152609f602052604090205460ff16600381111561234e5761234e6138f6565b146123c15760405162461bcd60e51b815260206004820152603060248201527f536166654f776e61626c655570677261646561626c653a206f7065726174696f60448201527f6e206e6f7420696e2070656e64696e67000000000000000000000000000000006064820152608401610873565b6000818152609f60205260409020805460ff19166002179055611bc3836001612e2e565b60008060006123f48585613005565b9150915061240181613048565b509392505050565b600054610100900460ff166124865760405162461bcd60e51b815260206004820152602b60248201527f496e697469616c697a61626c653a20636f6e7472616374206973206e6f74206960448201527f6e697469616c697a696e670000000000000000000000000000000000000000006064820152608401610873565b8151600510156124fe5760405162461bcd60e51b815260206004820152603360248201527f536166654f776e61626c655570677261646561626c653a657863656564206d6160448201527f78696d756d206e756d626572206f776e657273000000000000000000000000006064820152608401610873565b60ff81166125745760405162461bcd60e51b815260206004820152602c60248201527f536166654f776e61626c655570677261646561626c653a207369676e5265717560448201527f69726564206973207a65726f00000000000000000000000000000000000000006064820152608401610873565b609e805461ff00191661010060ff84160217905560005b82518110156127175760008382815181106125a8576125a8613a8e565b6020908102919091018101516001600160a01b0381166000908152609d90925260409091205490915060ff16156126475760405162461bcd60e51b815260206004820152602c60248201527f536166654f776e61626c655570677261646561626c653a206f776e657220616c60448201527f72656164792065786973747300000000000000000000000000000000000000006064820152608401610873565b609e8054829160979160009061265f9060ff16613a6e565b91906101000a81548160ff021916908360ff160217905560ff166006811061268957612689613a8e565b0180546001600160a01b0392831673ffffffffffffffffffffffffffffffffffffffff19909116179055609e549082166000818152609d6020526040808220805460ff191660ff9095169490941790935591519091907f8be0079c531659141344cd1fd0a4f28419497f9722a3daafe3b4186f6b6457e0908290a3508061270f81613aa4565b91505061258b565b50609e5460ff8082166101009092041611156109e45760405162461bcd60e51b815260206004820152603560248201527f536166654f776e61626c655570677261646561626c653a206f776e657273206c60448201527f657373207468616e207369676e526571756972656400000000000000000000006064820152608401610873565b600054610100900460ff16158080156127bb5750600054600160ff909116105b806127d55750303b1580156127d5575060005460ff166001145b6128475760405162461bcd60e51b815260206004820152602e60248201527f496e697469616c697a61626c653a20636f6e747261637420697320616c72656160448201527f647920696e697469616c697a65640000000000000000000000000000000000006064820152608401610873565b6000805460ff19166001179055801561286a576000805461ff0019166101001790555b60a1805473ffffffffffffffffffffffffffffffffffffffff19166001600160a01b03841617905580156109e4576000805461ff0019169055604051600181527f7f26b83ff96e1f2b6a682f133852f6798a09c465da95921460cefb384740249890602001611f03565b600054610100900460ff1661183d5760405162461bcd60e51b815260206004820152602b60248201527f496e697469616c697a61626c653a20636f6e7472616374206973206e6f74206960448201527f6e697469616c697a696e670000000000000000000000000000000000000000006064820152608401610873565b336000818152609d602052604090205460ff16826097826006811061297857612978613a8e565b01805473ffffffffffffffffffffffffffffffffffffffff19166001600160a01b039283161790558281166000818152609d6020526040808220805460ff19908116909155938716808352818320805490951660ff871617909455517f8be0079c531659141344cd1fd0a4f28419497f9722a3daafe3b4186f6b6457e09190a3505050565b600081815260a86020526040902060010154612a815760405162461bcd60e51b815260206004820152603260248201527f41637469766974795265776172643a205468652072616e646f6d576f7264732060448201527f6e756d6265722063616e6e6f74206265203000000000000000000000000000006064820152608401610873565b600081815260a86020526040812060010154612aa090612ba290613b48565b9050600081118015612ab45750612ba28111155b612b265760405162461bcd60e51b815260206004820152603060248201527f41637469766974795265776172643a205468652072656d61696e64657220616c60448201527f676f726974686d2069732077726f6e67000000000000000000000000000000006064820152608401610873565b67016345785d8a000060006107d0831015612b4357506002612bc5565b611194831015612b5557506005612bc5565b611d4c831015612b6757506008612bc5565b612454831015612b795750600a612bc5565b61283c831015612b8b5750600f612bc5565b612a30831015612b9d57506014612bc5565b612af8831015612baf57506028612bc5565b612b5c831015612bc157506064612bc5565b5060965b6000612bd18284613b5c565b600086815260a86020526040902054909150612bf6906001600160a01b031682612bfd565b5050505050565b60ab5460ff1615612c505760405162461bcd60e51b815260206004820152600e60248201527f4e6f2072652d656e7472616e63790000000000000000000000000000000000006044820152606401610873565b60ab805460ff1916600117905560a25460a3546040516323b872dd60e01b81526001600160a01b0391821660048201528482166024820152604481018490529116906323b872dd90606401602060405180830381600087803b158015612cb557600080fd5b505af1158015612cc9573d6000803e3d6000fd5b505050506040513d601f19601f82011682018060405250810190612ced9190613abf565b50604080516001600160a01b0384168152602081018390527f25c30c62c42b51e4f667b70ef60f1f683c376f6ace28312ed45a40665e01af37910160405180910390a1505060ab805460ff19169055565b6001600160a01b0381163b612dbb5760405162461bcd60e51b815260206004820152602d60248201527f455243313936373a206e657720696d706c656d656e746174696f6e206973206e60448201527f6f74206120636f6e7472616374000000000000000000000000000000000000006064820152608401610873565b7f360894a13ba1a3210667c828492db98dca3e2076cc3735a920a3ca505d382bbc805473ffffffffffffffffffffffffffffffffffffffff19166001600160a01b0392909216919091179055565b612e1283613239565b600082511180612e1f5750805b15611fdf57611bc38383613279565b60a55460a65460a7546040517f5d3b1d30000000000000000000000000000000000000000000000000000000008152600481019290925267ffffffffffffffff83166024830152640100000000810461ffff16604483015263ffffffff9081166064830152831660848201526000916801000000000000000090046001600160a01b031690635d3b1d309060a401602060405180830381600087803b158015612ed657600080fd5b505af1158015612eea573d6000803e3d6000fd5b505050506040513d601f19601f82011682018060405250810190612f0e9190613b2f565b604080516080810182526001600160a01b0386811682526000602080840182815284860183815260016060870181815289865260a88552948890209651875473ffffffffffffffffffffffffffffffffffffffff1916961695909517865590519385019390935591516002909301805491517fffffffffffffffffffffffffffffffffffffffffffffffffffffffffffff000090921693151561ff001916939093176101009115159190910217909155815183815263ffffffff8616918101919091529192507fcc58b13ad3eab50626c6a6300b1d139cd6ebb1688a7cced9461c2f7e762665ee910160405180910390a192915050565b60008082516041141561303c5760208301516040840151606085015160001a61303087828585613384565b94509450505050610c3a565b50600090506002610c3a565b600081600481111561305c5761305c6138f6565b14156130655750565b6001816004811115613079576130796138f6565b14156130c75760405162461bcd60e51b815260206004820152601860248201527f45434453413a20696e76616c6964207369676e617475726500000000000000006044820152606401610873565b60028160048111156130db576130db6138f6565b14156131295760405162461bcd60e51b815260206004820152601f60248201527f45434453413a20696e76616c6964207369676e6174757265206c656e677468006044820152606401610873565b600381600481111561313d5761313d6138f6565b14156131b15760405162461bcd60e51b815260206004820152602260248201527f45434453413a20696e76616c6964207369676e6174757265202773272076616c60448201527f75650000000000000000000000000000000000000000000000000000000000006064820152608401610873565b60048160048111156131c5576131c56138f6565b14156109f25760405162461bcd60e51b815260206004820152602260248201527f45434453413a20696e76616c6964207369676e6174757265202776272076616c60448201527f75650000000000000000000000000000000000000000000000000000000000006064820152608401610873565b61324281612d3e565b6040516001600160a01b038216907fbc7cd75a20ee27fd9adebab32041f755214dbc6bffa90cc0225b39da2e5c2d3b90600090a250565b60606001600160a01b0383163b6132f85760405162461bcd60e51b815260206004820152602660248201527f416464726573733a2064656c65676174652063616c6c20746f206e6f6e2d636f60448201527f6e747261637400000000000000000000000000000000000000000000000000006064820152608401610873565b600080846001600160a01b0316846040516133139190613ba7565b600060405180830381855af49150503d806000811461334e576040519150601f19603f3d011682016040523d82523d6000602084013e613353565b606091505b509150915061337b8282604051806060016040528060278152602001613bf760279139613471565b95945050505050565b6000807f7fffffffffffffffffffffffffffffff5d576e7357a4501ddfe92f46681b20a08311156133bb5750600090506003613468565b8460ff16601b141580156133d357508460ff16601c14155b156133e45750600090506004613468565b6040805160008082526020820180845289905260ff881692820192909252606081018690526080810185905260019060a0016020604051602081039080840390855afa158015613438573d6000803e3d6000fd5b5050604051601f1901519150506001600160a01b03811661346157600060019250925050613468565b9150600090505b94509492505050565b6060831561348057508161097a565b8251156134905782518084602001fd5b8160405162461bcd60e51b81526004016108739190613bc3565b6040518060c001604052806006906020820280368337509192915050565b600080600080608085870312156134de57600080fd5b843563ffffffff811681146134f257600080fd5b9350602085013567ffffffffffffffff8116811461350f57600080fd5b925060408501359150606085013561ffff8116811461352d57600080fd5b939692955090935050565b80356001600160a01b038116811461354f57600080fd5b919050565b60008060006060848603121561356957600080fd5b61357284613538565b95602085013595506040909401359392505050565b634e487b7160e01b600052604160045260246000fd5b604051601f8201601f1916810167ffffffffffffffff811182821017156135c6576135c6613587565b604052919050565b600067ffffffffffffffff8211156135e8576135e8613587565b5060051b60200190565b6000806040838503121561360557600080fd5b8235915060208084013567ffffffffffffffff81111561362457600080fd5b8401601f8101861361363557600080fd5b8035613648613643826135ce565b61359d565b81815260059190911b8201830190838101908883111561366757600080fd5b928401925b828410156136855783358252928401929084019061366c565b80955050505050509250929050565b6000602082840312156136a657600080fd5b5035919050565b6000602082840312156136bf57600080fd5b61097a82613538565b600080604083850312156136db57600080fd5b6136e483613538565b946020939093013593505050565b600082601f83011261370357600080fd5b813567ffffffffffffffff81111561371d5761371d613587565b6137306020601f19601f8401160161359d565b81815284602083860101111561374557600080fd5b816020850160208301376000918101602001919091529392505050565b6000806040838503121561377557600080fd5b61377e83613538565b9150602083013567ffffffffffffffff81111561379a57600080fd5b6137a6858286016136f2565b9150509250929050565b600080604083850312156137c357600080fd5b8235915060208084013567ffffffffffffffff808211156137e357600080fd5b818601915086601f8301126137f757600080fd5b8135613805613643826135ce565b81815260059190911b8301840190848101908983111561382457600080fd5b8585015b8381101561385c578035858111156138405760008081fd5b61384e8c89838a01016136f2565b845250918601918601613828565b508096505050505050509250929050565b60c08101818360005b600681101561389e5781516001600160a01b0316835260209283019290910190600101613876565b50505092915050565b602080825282518282018190526000919060409081850190868401855b828110156138e9578151805185528601518685015292840192908501906001016138c4565b5091979650505050505050565b634e487b7160e01b600052602160045260246000fd5b602081016004831061392e57634e487b7160e01b600052602160045260246000fd5b91905290565b803560ff8116811461354f57600080fd5b60008060006060848603121561395a57600080fd5b833567ffffffffffffffff81111561397157600080fd5b8401601f8101861361398257600080fd5b80356020613992613643836135ce565b82815260059290921b830181019181810190898411156139b157600080fd5b938201935b838510156139d6576139c785613538565b825293820193908201906139b6565b96506139e59050878201613934565b94505050506139f660408501613538565b90509250925092565b634e487b7160e01b600052601160045260246000fd5b60008219821115613a2857613a286139ff565b500190565b634e487b7160e01b600052601260045260246000fd5b600082613a5257613a52613a2d565b500490565b600082821015613a6957613a696139ff565b500390565b600060ff821660ff811415613a8557613a856139ff565b60010192915050565b634e487b7160e01b600052603260045260246000fd5b6000600019821415613ab857613ab86139ff565b5060010190565b600060208284031215613ad157600080fd5b8151801515811461097a57600080fd5b6000604082018483526020604081850152818551808452606086019150828701935060005b81811015613b2257845183529383019391830191600101613b06565b5090979650505050505050565b600060208284031215613b4157600080fd5b5051919050565b600082613b5757613b57613a2d565b500690565b6000816000190483118215151615613b7657613b766139ff565b500290565b60005b83811015613b96578181015183820152602001613b7e565b83811115611bc35750506000910152565b60008251613bb9818460208701613b7b565b9190910192915050565b6020815260008251806020840152613be2816040850160208701613b7b565b601f01601f1916919091016040019291505056fe416464726573733a206c6f772d6c6576656c2064656c65676174652063616c6c206661696c6564a2646970667358221220dba9dc2c600759292a2ad790b6bd6ac878b47d3153e71a03755fb08e7b780bb164736f6c63430008090033",
  "devdoc": {
    "kind": "dev",
    "methods": {
      "constructor": {
        "custom:oz-upgrades-unsafe-allow": "constructor"
      },
      "proxiableUUID()": {
        "details": "Implementation of the ERC1822 {proxiableUUID} function. This returns the storage slot used by the implementation. It is used to validate that the this implementation remains valid after an upgrade. IMPORTANT: A proxy pointing at a proxiable contract should not be considered proxiable itself, because this risks bricking a proxy that upgrades to it, by delegating to itself until out of gas. Thus it is critical that this function revert if invoked through a proxy. This is guaranteed by the `notDelegated` modifier."
      },
      "transferOwnership(address)": {
        "details": "Transfers ownership of the contract to a new account (`newOwner`). Can only be called by the current owner."
      },
      "upgradeTo(address)": {
        "details": "Upgrade the implementation of the proxy to `newImplementation`. Calls {_authorizeUpgrade}. Emits an {Upgraded} event."
      },
      "upgradeToAndCall(address,bytes)": {
        "details": "Upgrade the implementation of the proxy to `newImplementation`, and subsequently execute the function call encoded in `data`. Calls {_authorizeUpgrade}. Emits an {Upgraded} event."
      }
    },
    "version": 1
  },
  "userdoc": {
    "kind": "user",
    "methods": {},
    "version": 1
  },
  "storageLayout": {
    "storage": [
      {
        "astId": 491,
        "contract": "contracts/ActivityReward/ActivityReward.sol:ActivityReward",
        "label": "_initialized",
        "offset": 0,
        "slot": "0",
        "type": "t_uint8"
      },
      {
        "astId": 494,
        "contract": "contracts/ActivityReward/ActivityReward.sol:ActivityReward",
        "label": "_initializing",
        "offset": 1,
        "slot": "0",
        "type": "t_bool"
      },
      {
        "astId": 473,
        "contract": "contracts/ActivityReward/ActivityReward.sol:ActivityReward",
        "label": "__gap",
        "offset": 0,
        "slot": "1",
        "type": "t_array(t_uint256)50_storage"
      },
      {
        "astId": 770,
        "contract": "contracts/ActivityReward/ActivityReward.sol:ActivityReward",
        "label": "__gap",
        "offset": 0,
        "slot": "51",
        "type": "t_array(t_uint256)50_storage"
      },
      {
        "astId": 2503,
        "contract": "contracts/ActivityReward/ActivityReward.sol:ActivityReward",
        "label": "__gap",
        "offset": 0,
        "slot": "101",
        "type": "t_array(t_uint256)50_storage"
      },
      {
        "astId": 5570,
        "contract": "contracts/ActivityReward/ActivityReward.sol:ActivityReward",
        "label": "_owners",
        "offset": 0,
        "slot": "151",
        "type": "t_array(t_address)6_storage"
      },
      {
        "astId": 5574,
        "contract": "contracts/ActivityReward/ActivityReward.sol:ActivityReward",
        "label": "_ownersIndex",
        "offset": 0,
        "slot": "157",
        "type": "t_mapping(t_address,t_uint8)"
      },
      {
        "astId": 5576,
        "contract": "contracts/ActivityReward/ActivityReward.sol:ActivityReward",
        "label": "_numOwners",
        "offset": 0,
        "slot": "158",
        "type": "t_uint8"
      },
      {
        "astId": 5581,
        "contract": "contracts/ActivityReward/ActivityReward.sol:ActivityReward",
        "label": "signRequired",
        "offset": 1,
        "slot": "158",
        "type": "t_uint8"
      },
      {
        "astId": 5586,
        "contract": "contracts/ActivityReward/ActivityReward.sol:ActivityReward",
        "label": "operationsStatus",
        "offset": 0,
        "slot": "159",
        "type": "t_mapping(t_bytes32,t_enum(OpStatus)5566)"
      },
      {
        "astId": 5588,
        "contract": "contracts/ActivityReward/ActivityReward.sol:ActivityReward",
        "label": "nonce",
        "offset": 0,
        "slot": "160",
        "type": "t_uint256"
      },
      {
        "astId": 8505,
        "contract": "contracts/ActivityReward/ActivityReward.sol:ActivityReward",
        "label": "vrfCoordinator",
        "offset": 0,
        "slot": "161",
        "type": "t_address"
      },
      {
        "astId": 5999,
        "contract": "contracts/ActivityReward/ActivityReward.sol:ActivityReward",
        "label": "ERC20Token",
        "offset": 0,
        "slot": "162",
        "type": "t_contract(IERC20)3037"
      },
      {
        "astId": 6001,
        "contract": "contracts/ActivityReward/ActivityReward.sol:ActivityReward",
        "label": "spender",
        "offset": 0,
        "slot": "163",
        "type": "t_address"
      },
      {
        "astId": 6003,
        "contract": "contracts/ActivityReward/ActivityReward.sol:ActivityReward",
        "label": "DOMAIN",
        "offset": 0,
        "slot": "164",
        "type": "t_bytes32"
      },
      {
        "astId": 6008,
        "contract": "contracts/ActivityReward/ActivityReward.sol:ActivityReward",
        "label": "subscriptionId",
        "offset": 0,
        "slot": "165",
        "type": "t_uint64"
      },
      {
        "astId": 6011,
        "contract": "contracts/ActivityReward/ActivityReward.sol:ActivityReward",
        "label": "COORDINATOR",
        "offset": 8,
        "slot": "165",
        "type": "t_contract(VRFCoordinatorV2Interface)95"
      },
      {
        "astId": 6013,
        "contract": "contracts/ActivityReward/ActivityReward.sol:ActivityReward",
        "label": "keyHash",
        "offset": 0,
        "slot": "166",
        "type": "t_bytes32"
      },
      {
        "astId": 6015,
        "contract": "contracts/ActivityReward/ActivityReward.sol:ActivityReward",
        "label": "callbackGasLimit",
        "offset": 0,
        "slot": "167",
        "type": "t_uint32"
      },
      {
        "astId": 6017,
        "contract": "contracts/ActivityReward/ActivityReward.sol:ActivityReward",
        "label": "requestConfirmations",
        "offset": 4,
        "slot": "167",
        "type": "t_uint16"
      },
      {
        "astId": 6031,
        "contract": "contracts/ActivityReward/ActivityReward.sol:ActivityReward",
        "label": "requests",
        "offset": 0,
        "slot": "168",
        "type": "t_mapping(t_uint256,t_struct(RequestStatus)6026_storage)"
      },
      {
        "astId": 6051,
        "contract": "contracts/ActivityReward/ActivityReward.sol:ActivityReward",
        "label": "release_reward",
        "offset": 0,
        "slot": "169",
        "type": "t_struct(ReleaseReward)6048_storage"
      },
      {
        "astId": 6065,
        "contract": "contracts/ActivityReward/ActivityReward.sol:ActivityReward",
        "label": "locked",
        "offset": 0,
        "slot": "171",
        "type": "t_bool"
      }
    ],
    "types": {
      "t_address": {
        "encoding": "inplace",
        "label": "address",
        "numberOfBytes": "20"
      },
      "t_array(t_address)6_storage": {
        "base": "t_address",
        "encoding": "inplace",
        "label": "address[6]",
        "numberOfBytes": "192"
      },
      "t_array(t_uint256)50_storage": {
        "base": "t_uint256",
        "encoding": "inplace",
        "label": "uint256[50]",
        "numberOfBytes": "1600"
      },
      "t_bool": {
        "encoding": "inplace",
        "label": "bool",
        "numberOfBytes": "1"
      },
      "t_bytes32": {
        "encoding": "inplace",
        "label": "bytes32",
        "numberOfBytes": "32"
      },
      "t_contract(IERC20)3037": {
        "encoding": "inplace",
        "label": "contract IERC20",
        "numberOfBytes": "20"
      },
      "t_contract(VRFCoordinatorV2Interface)95": {
        "encoding": "inplace",
        "label": "contract VRFCoordinatorV2Interface",
        "numberOfBytes": "20"
      },
      "t_enum(OpStatus)5566": {
        "encoding": "inplace",
        "label": "enum SafeOwnableUpgradeable.OpStatus",
        "numberOfBytes": "1"
      },
      "t_mapping(t_address,t_bool)": {
        "encoding": "mapping",
        "key": "t_address",
        "label": "mapping(address => bool)",
        "numberOfBytes": "32",
        "value": "t_bool"
      },
      "t_mapping(t_address,t_struct(SlowlyReleaseReward)6038_storage)": {
        "encoding": "mapping",
        "key": "t_address",
        "label": "mapping(address => struct ActivityReward.SlowlyReleaseReward)",
        "numberOfBytes": "32",
        "value": "t_struct(SlowlyReleaseReward)6038_storage"
      },
      "t_mapping(t_address,t_uint8)": {
        "encoding": "mapping",
        "key": "t_address",
        "label": "mapping(address => uint8)",
        "numberOfBytes": "32",
        "value": "t_uint8"
      },
      "t_mapping(t_bytes32,t_enum(OpStatus)5566)": {
        "encoding": "mapping",
        "key": "t_bytes32",
        "label": "mapping(bytes32 => enum SafeOwnableUpgradeable.OpStatus)",
        "numberOfBytes": "32",
        "value": "t_enum(OpStatus)5566"
      },
      "t_mapping(t_uint256,t_struct(RequestStatus)6026_storage)": {
        "encoding": "mapping",
        "key": "t_uint256",
        "label": "mapping(uint256 => struct ActivityReward.RequestStatus)",
        "numberOfBytes": "32",
        "value": "t_struct(RequestStatus)6026_storage"
      },
      "t_struct(ReleaseReward)6048_storage": {
        "encoding": "inplace",
        "label": "struct ActivityReward.ReleaseReward",
        "members": [
          {
            "astId": 6043,
            "contract": "contracts/ActivityReward/ActivityReward.sol:ActivityReward",
            "label": "record",
            "offset": 0,
            "slot": "0",
            "type": "t_mapping(t_address,t_struct(SlowlyReleaseReward)6038_storage)"
          },
          {
            "astId": 6047,
            "contract": "contracts/ActivityReward/ActivityReward.sol:ActivityReward",
            "label": "inserted",
            "offset": 0,
            "slot": "1",
            "type": "t_mapping(t_address,t_bool)"
          }
        ],
        "numberOfBytes": "64"
      },
      "t_struct(RequestStatus)6026_storage": {
        "encoding": "inplace",
        "label": "struct ActivityReward.RequestStatus",
        "members": [
          {
            "astId": 6019,
            "contract": "contracts/ActivityReward/ActivityReward.sol:ActivityReward",
            "label": "user",
            "offset": 0,
            "slot": "0",
            "type": "t_address"
          },
          {
            "astId": 6021,
            "contract": "contracts/ActivityReward/ActivityReward.sol:ActivityReward",
            "label": "randomWord",
            "offset": 0,
            "slot": "1",
            "type": "t_uint256"
          },
          {
            "astId": 6023,
            "contract": "contracts/ActivityReward/ActivityReward.sol:ActivityReward",
            "label": "fulfilled",
            "offset": 0,
            "slot": "2",
            "type": "t_bool"
          },
          {
            "astId": 6025,
            "contract": "contracts/ActivityReward/ActivityReward.sol:ActivityReward",
            "label": "exists",
            "offset": 1,
            "slot": "2",
            "type": "t_bool"
          }
        ],
        "numberOfBytes": "96"
      },
      "t_struct(SlowlyReleaseReward)6038_storage": {
        "encoding": "inplace",
        "label": "struct ActivityReward.SlowlyReleaseReward",
        "members": [
          {
            "astId": 6033,
            "contract": "contracts/ActivityReward/ActivityReward.sol:ActivityReward",
            "label": "firstInjectTime",
            "offset": 0,
            "slot": "0",
            "type": "t_uint256"
          },
          {
            "astId": 6035,
            "contract": "contracts/ActivityReward/ActivityReward.sol:ActivityReward",
            "label": "lastReleaseTime",
            "offset": 0,
            "slot": "1",
            "type": "t_uint256"
          },
          {
            "astId": 6037,
            "contract": "contracts/ActivityReward/ActivityReward.sol:ActivityReward",
            "label": "pool",
            "offset": 0,
            "slot": "2",
            "type": "t_uint256"
          }
        ],
        "numberOfBytes": "96"
      },
      "t_uint16": {
        "encoding": "inplace",
        "label": "uint16",
        "numberOfBytes": "2"
      },
      "t_uint256": {
        "encoding": "inplace",
        "label": "uint256",
        "numberOfBytes": "32"
      },
      "t_uint32": {
        "encoding": "inplace",
        "label": "uint32",
        "numberOfBytes": "4"
      },
      "t_uint64": {
        "encoding": "inplace",
        "label": "uint64",
        "numberOfBytes": "8"
      },
      "t_uint8": {
        "encoding": "inplace",
        "label": "uint8",
        "numberOfBytes": "1"
      }
    }
  }
}