{
  "address": "0x4dA15415A609b076b431431BE3Cc896098F9A1Cd",
  "abi": [
    {
      "inputs": [
        {
          "internalType": "address",
          "name": "have",
          "type": "address"
        },
        {
          "internalType": "address",
          "name": "want",
          "type": "address"
        }
      ],
      "name": "OnlyCoordinatorCanFulfill",
      "type": "error"
    },
    {
      "anonymous": false,
      "inputs": [
        {
          "indexed": false,
          "internalType": "address",
          "name": "previousAdmin",
          "type": "address"
        },
        {
          "indexed": false,
          "internalType": "address",
          "name": "newAdmin",
          "type": "address"
        }
      ],
      "name": "AdminChanged",
      "type": "event"
    },
    {
      "anonymous": false,
      "inputs": [
        {
          "indexed": true,
          "internalType": "address",
          "name": "beacon",
          "type": "address"
        }
      ],
      "name": "BeaconUpgraded",
      "type": "event"
    },
    {
      "anonymous": false,
      "inputs": [
        {
          "indexed": true,
          "internalType": "address",
          "name": "from",
          "type": "address"
        },
        {
          "indexed": false,
          "internalType": "address[]",
          "name": "winners",
          "type": "address[]"
        },
        {
          "indexed": false,
          "internalType": "address[]",
          "name": "contactAddressList",
          "type": "address[]"
        },
        {
          "indexed": false,
          "internalType": "uint256[]",
          "name": "tokenIdList",
          "type": "uint256[]"
        },
        {
          "indexed": false,
          "internalType": "uint256",
          "name": "requestId",
          "type": "uint256"
        }
      ],
      "name": "Draw",
      "type": "event"
    },
    {
      "anonymous": false,
      "inputs": [
        {
          "indexed": false,
          "internalType": "uint8",
          "name": "version",
          "type": "uint8"
        }
      ],
      "name": "Initialized",
      "type": "event"
    },
    {
      "anonymous": false,
      "inputs": [
        {
          "indexed": true,
          "internalType": "bytes32",
          "name": "opHash",
          "type": "bytes32"
        }
      ],
      "name": "OperationAdded",
      "type": "event"
    },
    {
      "anonymous": false,
      "inputs": [
        {
          "indexed": true,
          "internalType": "address",
          "name": "previousOwner",
          "type": "address"
        },
        {
          "indexed": true,
          "internalType": "address",
          "name": "newOwner",
          "type": "address"
        }
      ],
      "name": "OwnershipTransferred",
      "type": "event"
    },
    {
      "anonymous": false,
      "inputs": [
        {
          "indexed": false,
          "internalType": "uint256",
          "name": "requestId",
          "type": "uint256"
        },
        {
          "indexed": false,
          "internalType": "uint256[]",
          "name": "randomWords",
          "type": "uint256[]"
        }
      ],
      "name": "RequestFulfilled",
      "type": "event"
    },
    {
      "anonymous": false,
      "inputs": [
        {
          "indexed": false,
          "internalType": "uint256",
          "name": "requestId",
          "type": "uint256"
        },
        {
          "indexed": false,
          "internalType": "uint32",
          "name": "numWords",
          "type": "uint32"
        }
      ],
      "name": "RequestSent",
      "type": "event"
    },
    {
      "anonymous": false,
      "inputs": [
        {
          "indexed": true,
          "internalType": "address",
          "name": "implementation",
          "type": "address"
        }
      ],
      "name": "Upgraded",
      "type": "event"
    },
    {
      "inputs": [
        {
          "internalType": "bytes32",
          "name": "opHash",
          "type": "bytes32"
        },
        {
          "internalType": "bytes[]",
          "name": "sigs",
          "type": "bytes[]"
        }
      ],
      "name": "AddOpHashToPending",
      "outputs": [],
      "stateMutability": "nonpayable",
      "type": "function"
    },
    {
      "inputs": [],
      "name": "DOMAIN",
      "outputs": [
        {
          "internalType": "bytes32",
          "name": "",
          "type": "bytes32"
        }
      ],
      "stateMutability": "view",
      "type": "function"
    },
    {
      "inputs": [],
      "name": "SECONDS_FOR_DAY",
      "outputs": [
        {
          "internalType": "uint256",
          "name": "",
          "type": "uint256"
        }
      ],
      "stateMutability": "view",
      "type": "function"
    },
    {
      "inputs": [],
      "name": "SECONDS_FOR_WEEK",
      "outputs": [
        {
          "internalType": "uint256",
          "name": "",
          "type": "uint256"
        }
      ],
      "stateMutability": "view",
      "type": "function"
    },
    {
      "inputs": [
        {
          "internalType": "address",
          "name": "",
          "type": "address"
        }
      ],
      "name": "addressWeightMap",
      "outputs": [
        {
          "internalType": "uint256",
          "name": "",
          "type": "uint256"
        }
      ],
      "stateMutability": "view",
      "type": "function"
    },
    {
      "inputs": [],
      "name": "callbackGasLimit",
      "outputs": [
        {
          "internalType": "uint32",
          "name": "",
          "type": "uint32"
        }
      ],
      "stateMutability": "view",
      "type": "function"
    },
    {
      "inputs": [
        {
          "internalType": "address[]",
          "name": "contractAddresses",
          "type": "address[]"
        },
        {
          "internalType": "uint256[]",
          "name": "tokenIds",
          "type": "uint256[]"
        }
      ],
      "name": "depositNFTs",
      "outputs": [],
      "stateMutability": "nonpayable",
      "type": "function"
    },
    {
      "inputs": [],
      "name": "distributedNFTs",
      "outputs": [
        {
          "internalType": "uint256",
          "name": "",
          "type": "uint256"
        }
      ],
      "stateMutability": "view",
      "type": "function"
    },
    {
      "inputs": [],
      "name": "drawRounds",
      "outputs": [
        {
          "internalType": "uint256",
          "name": "",
          "type": "uint256"
        }
      ],
      "stateMutability": "view",
      "type": "function"
    },
    {
      "inputs": [],
      "name": "endTime",
      "outputs": [
        {
          "internalType": "uint256",
          "name": "",
          "type": "uint256"
        }
      ],
      "stateMutability": "view",
      "type": "function"
    },
    {
      "inputs": [],
      "name": "getCurrentTime",
      "outputs": [
        {
          "internalType": "uint256",
          "name": "",
          "type": "uint256"
        }
      ],
      "stateMutability": "view",
      "type": "function"
    },
    {
      "inputs": [],
      "name": "getTotalNFT",
      "outputs": [
        {
          "internalType": "uint256",
          "name": "",
          "type": "uint256"
        }
      ],
      "stateMutability": "view",
      "type": "function"
    },
    {
      "inputs": [
        {
          "internalType": "address[]",
          "name": "owners",
          "type": "address[]"
        },
        {
          "internalType": "uint8",
          "name": "signRequred",
          "type": "uint8"
        },
        {
          "internalType": "address",
          "name": "vrfCoordinatorAddress_",
          "type": "address"
        }
      ],
      "name": "initialize",
      "outputs": [],
      "stateMutability": "nonpayable",
      "type": "function"
    },
    {
      "inputs": [],
      "name": "investmentAddress",
      "outputs": [
        {
          "internalType": "address",
          "name": "",
          "type": "address"
        }
      ],
      "stateMutability": "view",
      "type": "function"
    },
    {
      "inputs": [],
      "name": "keyHash",
      "outputs": [
        {
          "internalType": "bytes32",
          "name": "",
          "type": "bytes32"
        }
      ],
      "stateMutability": "view",
      "type": "function"
    },
    {
      "inputs": [],
      "name": "lastRequestId",
      "outputs": [
        {
          "internalType": "uint256",
          "name": "",
          "type": "uint256"
        }
      ],
      "stateMutability": "view",
      "type": "function"
    },
    {
      "inputs": [],
      "name": "maxNumOwners",
      "outputs": [
        {
          "internalType": "uint8",
          "name": "",
          "type": "uint8"
        }
      ],
      "stateMutability": "view",
      "type": "function"
    },
    {
      "inputs": [
        {
          "internalType": "uint256",
          "name": "",
          "type": "uint256"
        }
      ],
      "name": "nfts",
      "outputs": [
        {
          "internalType": "address",
          "name": "contractAddress",
          "type": "address"
        },
        {
          "internalType": "uint256",
          "name": "tokenId",
          "type": "uint256"
        }
      ],
      "stateMutability": "view",
      "type": "function"
    },
    {
      "inputs": [],
      "name": "nonce",
      "outputs": [
        {
          "internalType": "uint256",
          "name": "",
          "type": "uint256"
        }
      ],
      "stateMutability": "view",
      "type": "function"
    },
    {
      "inputs": [
        {
          "internalType": "bytes32",
          "name": "",
          "type": "bytes32"
        }
      ],
      "name": "operationsStatus",
      "outputs": [
        {
          "internalType": "enum SafeOwnableUpgradeable.OpStatus",
          "name": "",
          "type": "uint8"
        }
      ],
      "stateMutability": "view",
      "type": "function"
    },
    {
      "inputs": [],
      "name": "owners",
      "outputs": [
        {
          "internalType": "address[6]",
          "name": "",
          "type": "address[6]"
        }
      ],
      "stateMutability": "view",
      "type": "function"
    },
    {
      "inputs": [],
      "name": "proxiableUUID",
      "outputs": [
        {
          "internalType": "bytes32",
          "name": "",
          "type": "bytes32"
        }
      ],
      "stateMutability": "view",
      "type": "function"
    },
    {
      "inputs": [
        {
          "internalType": "uint256",
          "name": "requestId",
          "type": "uint256"
        },
        {
          "internalType": "uint256[]",
          "name": "randomWords",
          "type": "uint256[]"
        }
      ],
      "name": "rawFulfillRandomWords",
      "outputs": [],
      "stateMutability": "nonpayable",
      "type": "function"
    },
    {
      "inputs": [
        {
          "internalType": "uint32",
          "name": "numWords",
          "type": "uint32"
        }
      ],
      "name": "requestRandomWordsForDraw",
      "outputs": [
        {
          "internalType": "uint256",
          "name": "requestId",
          "type": "uint256"
        }
      ],
      "stateMutability": "nonpayable",
      "type": "function"
    },
    {
      "inputs": [
        {
          "internalType": "uint256",
          "name": "",
          "type": "uint256"
        }
      ],
      "name": "requests",
      "outputs": [
        {
          "internalType": "bool",
          "name": "fulfilled",
          "type": "bool"
        },
        {
          "internalType": "bool",
          "name": "exists",
          "type": "bool"
        }
      ],
      "stateMutability": "view",
      "type": "function"
    },
    {
      "inputs": [
        {
          "internalType": "uint32",
          "name": "callbackGasLimit_",
          "type": "uint32"
        },
        {
          "internalType": "uint64",
          "name": "subscribeId_",
          "type": "uint64"
        },
        {
          "internalType": "bytes32",
          "name": "keyHash_",
          "type": "bytes32"
        },
        {
          "internalType": "uint16",
          "name": "requestConfirmations_",
          "type": "uint16"
        }
      ],
      "name": "setChainlink",
      "outputs": [],
      "stateMutability": "nonpayable",
      "type": "function"
    },
    {
      "inputs": [
        {
          "internalType": "uint256",
          "name": "timestamp_",
          "type": "uint256"
        }
      ],
      "name": "setCurrentTime",
      "outputs": [],
      "stateMutability": "nonpayable",
      "type": "function"
    },
    {
      "inputs": [
        {
          "internalType": "uint256",
          "name": "endTime_",
          "type": "uint256"
        }
      ],
      "name": "setEndTime",
      "outputs": [],
      "stateMutability": "nonpayable",
      "type": "function"
    },
    {
      "inputs": [
        {
          "internalType": "address",
          "name": "investmentAddress_",
          "type": "address"
        }
      ],
      "name": "setInvestment",
      "outputs": [],
      "stateMutability": "nonpayable",
      "type": "function"
    },
    {
      "inputs": [
        {
          "internalType": "uint256",
          "name": "startTime_",
          "type": "uint256"
        }
      ],
      "name": "setStartTime",
      "outputs": [],
      "stateMutability": "nonpayable",
      "type": "function"
    },
    {
      "inputs": [],
      "name": "signRequired",
      "outputs": [
        {
          "internalType": "uint8",
          "name": "",
          "type": "uint8"
        }
      ],
      "stateMutability": "view",
      "type": "function"
    },
    {
      "inputs": [],
      "name": "startTime",
      "outputs": [
        {
          "internalType": "uint256",
          "name": "",
          "type": "uint256"
        }
      ],
      "stateMutability": "view",
      "type": "function"
    },
    {
      "inputs": [],
      "name": "subscriptionId",
      "outputs": [
        {
          "internalType": "uint64",
          "name": "",
          "type": "uint64"
        }
      ],
      "stateMutability": "view",
      "type": "function"
    },
    {
      "inputs": [
        {
          "internalType": "address",
          "name": "newOwner",
          "type": "address"
        }
      ],
      "name": "transferOwnership",
      "outputs": [],
      "stateMutability": "nonpayable",
      "type": "function"
    },
    {
      "inputs": [
        {
          "internalType": "address",
          "name": "newImplementation",
          "type": "address"
        }
      ],
      "name": "upgradeTo",
      "outputs": [],
      "stateMutability": "nonpayable",
      "type": "function"
    },
    {
      "inputs": [
        {
          "internalType": "address",
          "name": "newImplementation",
          "type": "address"
        },
        {
          "internalType": "bytes",
          "name": "data",
          "type": "bytes"
        }
      ],
      "name": "upgradeToAndCall",
      "outputs": [],
      "stateMutability": "payable",
      "type": "function"
    },
    {
      "inputs": [
        {
          "internalType": "uint256",
          "name": "amount",
          "type": "uint256"
        },
        {
          "internalType": "address",
          "name": "recipient",
          "type": "address"
        }
      ],
      "name": "withdrawNFTs",
      "outputs": [],
      "stateMutability": "nonpayable",
      "type": "function"
    },
    {
      "inputs": [
        {
          "internalType": "address",
          "name": "",
          "type": "address"
        }
      ],
      "name": "won",
      "outputs": [
        {
          "internalType": "bool",
          "name": "",
          "type": "bool"
        }
      ],
      "stateMutability": "view",
      "type": "function"
    },
    {
      "inputs": [
        {
          "internalType": "address",
          "name": "",
          "type": "address"
        }
      ],
      "name": "wonNFT",
      "outputs": [
        {
          "internalType": "address",
          "name": "contractAddress",
          "type": "address"
        },
        {
          "internalType": "uint256",
          "name": "tokenId",
          "type": "uint256"
        }
      ],
      "stateMutability": "view",
      "type": "function"
    }
  ],
  "transactionHash": "0x53e090ec5167f7a8b3529008a2dc4bbe98b93c6cd35c96c61bc64e1bd20313bc",
  "args": [],
  "numDeployments": 3,
  "solcInputHash": "0629a90d0052c2bafdd9ebe7d5196f20",
  "bytecode": "0x60a06040523060805234801561001457600080fd5b5060805161403961004c60003960008181610c9801528181610d2e01528181610f2701528181610fbd01526110b401526140396000f3fe6080604052600436106102a05760003560e01c806378e979251161016e578063d26e7865116100cb578063f256e84f1161007f578063f781cab011610064578063f781cab0146107d3578063f8c12031146107ea578063fc2a88c31461080157600080fd5b8063f256e84f14610773578063f2fde38b146107b357600080fd5b8063d8ddc1a0116100b0578063d8ddc1a014610727578063e2c8cdc61461073d578063eb53a0571461075357600080fd5b8063d26e7865146106e7578063d8c126af1461070757600080fd5b8063affed0e011610122578063bcf16f2d11610107578063bcf16f2d14610675578063ccb98ffc1461068a578063ce0d0ca0146106aa57600080fd5b8063affed0e01461063f578063b6e578dc1461065557600080fd5b806381d12c581161015357806381d12c58146105ad5780638b5a2143146105fd578063affe39c11461061d57600080fd5b806378e97925146105785780637a29349d1461058e57600080fd5b80633197cbb61161021c57806352a9674b116101d057806353030d91116101b557806353030d91146104ea57806361728f391461052257806371ee1aba1461053857600080fd5b806352a9674b146104bf57806352d1902d146104d557600080fd5b80633659cfe6116102015780633659cfe61461046c5780633e0a322d1461048c5780634f1ef286146104ac57600080fd5b80633197cbb6146104365780633286cd871461044c57600080fd5b80631fe543e31161027357806324f746971161025857806324f74697146103b0578063265aa621146103e257806329cb924d1461042157600080fd5b80631fe543e31461037057806322f8e5661461039057600080fd5b806309c1ba2e146102a55780630c3515ba146102ec5780630c81df01146103135780631e2ab10f14610335575b600080fd5b3480156102b157600080fd5b5060b0546102ce90640100000000900467ffffffffffffffff1681565b60405167ffffffffffffffff90911681526020015b60405180910390f35b3480156102f857600080fd5b50610301600581565b60405160ff90911681526020016102e3565b34801561031f57600080fd5b5061033361032e366004613774565b610817565b005b34801561034157600080fd5b506103626103503660046137ee565b60aa6020526000908152604090205481565b6040519081526020016102e3565b34801561037c57600080fd5b5061033361038b36600461390a565b610926565b34801561039c57600080fd5b506103336103ab366004613951565b61098d565b3480156103bc57600080fd5b5060b0546103cd9063ffffffff1681565b60405163ffffffff90911681526020016102e3565b3480156103ee57600080fd5b506104026103fd366004613951565b610a11565b604080516001600160a01b0390931683526020830191909152016102e3565b34801561042d57600080fd5b50610362610a49565b34801561044257600080fd5b5061036260ac5481565b34801561045857600080fd5b5061033361046736600461396a565b610a5a565b34801561047857600080fd5b506103336104873660046137ee565b610c8d565b34801561049857600080fd5b506103336104a7366004613951565b610e28565b6103336104ba366004613a0a565b610f1c565b3480156104cb57600080fd5b5061036260a35481565b3480156104e157600080fd5b506103626110a7565b3480156104f657600080fd5b5060a25461050a906001600160a01b031681565b6040516001600160a01b0390911681526020016102e3565b34801561052e57600080fd5b5061036260af5481565b34801561054457600080fd5b506105686105533660046137ee565b60a56020526000908152604090205460ff1681565b60405190151581526020016102e3565b34801561058457600080fd5b5061036260ab5481565b34801561059a57600080fd5b50609e5461030190610100900460ff1681565b3480156105b957600080fd5b506105e66105c8366004613951565b60b26020526000908152604090205460ff8082169161010090041682565b6040805192151583529015156020830152016102e3565b34801561060957600080fd5b50610333610618366004613a50565b61116c565b34801561062957600080fd5b5061063261149b565b6040516102e39190613b0d565b34801561064b57600080fd5b5061036260a05481565b34801561066157600080fd5b50610362610670366004613b47565b6114e0565b34801561068157600080fd5b5060a654610362565b34801561069657600080fd5b506103336106a5366004613951565b6117d6565b3480156106b657600080fd5b506106da6106c5366004613951565b609f6020526000908152604090205460ff1681565b6040516102e39190613b78565b3480156106f357600080fd5b506103336107023660046137ee565b6118c9565b34801561071357600080fd5b50610333610722366004613c04565b61196f565b34801561073357600080fd5b5061036260a85481565b34801561074957600080fd5b5061036260a95481565b34801561075f57600080fd5b5061033361076e366004613c6d565b611cf5565b34801561077f57600080fd5b5061040261078e3660046137ee565b60a460205260009081526040902080546001909101546001600160a01b039091169082565b3480156107bf57600080fd5b506103336107ce3660046137ee565b611ea1565b3480156107df57600080fd5b506103626201518081565b3480156107f657600080fd5b5061036262093a8081565b34801561080d57600080fd5b5061036260b15481565b336000908152609d602052604090205460ff166108935760405162461bcd60e51b815260206004820152602f60248201527f536166654f776e61626c655570677261646561626c653a2063616c6c6572206960448201526e39903737ba103a34329037bbb732b960891b60648201526084015b60405180910390fd5b60b0805460af9390935561ffff9091166c01000000000000000000000000027fffffffffffffffffffffffffffffffffffff0000ffffffffffffffffffffffff67ffffffffffffffff909416640100000000027fffffffffffffffffffffffffffffffffffffffff00000000000000000000000090931663ffffffff909516949094179190911791909116919091179055565b60a1546001600160a01b0316331461097f5760a1546040517f1cf993f40000000000000000000000000000000000000000000000000000000081523360048201526001600160a01b03909116602482015260440161088a565b610989828261202c565b5050565b336000908152609d602052604090205460ff16610a045760405162461bcd60e51b815260206004820152602f60248201527f536166654f776e61626c655570677261646561626c653a2063616c6c6572206960448201526e39903737ba103a34329037bbb732b960891b606482015260840161088a565b610a0e60ad829055565b50565b60a68181548110610a2157600080fd5b6000918252602090912060029091020180546001909101546001600160a01b03909116915082565b6000610a5560ad612108565b905090565b336000908152609d602052604090205460ff16610ad15760405162461bcd60e51b815260206004820152602f60248201527f536166654f776e61626c655570677261646561626c653a2063616c6c6572206960448201526e39903737ba103a34329037bbb732b960891b606482015260840161088a565b60a85460a65411610b245760405162461bcd60e51b815260206004820152601860248201527f44726177696e6747616d653a6e6f206e667473206c6566740000000000000000604482015260640161088a565b60005b60a85460a654118015610b3957508281105b15610c885760a6805460009190610b5290600190613ce7565b81548110610b6257610b62613cfe565b60009182526020909120600290910201805460018201546040517f23b872dd0000000000000000000000000000000000000000000000000000000081523060048201526001600160a01b038781166024830152604482019290925292935016906323b872dd90606401600060405180830381600087803b158015610be557600080fd5b505af1158015610bf9573d6000803e3d6000fd5b5050505060a6805480610c0e57610c0e613d14565b60008281526020808220600260001990940193840201805473ffffffffffffffffffffffffffffffffffffffff1916815560019081018390559290935583546001600160a01b0316815260a783526040808220928501548252919092529020805460ff1916905581610c7f81613d2a565b92505050610b27565b505050565b306001600160a01b037f0000000000000000000000000000000000000000000000000000000000000000161415610d2c5760405162461bcd60e51b815260206004820152602c60248201527f46756e6374696f6e206d7573742062652063616c6c6564207468726f7567682060448201527f64656c656761746563616c6c0000000000000000000000000000000000000000606482015260840161088a565b7f00000000000000000000000000000000000000000000000000000000000000006001600160a01b0316610d877f360894a13ba1a3210667c828492db98dca3e2076cc3735a920a3ca505d382bbc546001600160a01b031690565b6001600160a01b031614610e035760405162461bcd60e51b815260206004820152602c60248201527f46756e6374696f6e206d7573742062652063616c6c6564207468726f7567682060448201527f6163746976652070726f78790000000000000000000000000000000000000000606482015260840161088a565b610e0c81612123565b60408051600080825260208201909252610a0e9183919061219a565b336000908152609d602052604090205460ff16610e9f5760405162461bcd60e51b815260206004820152602f60248201527f536166654f776e61626c655570677261646561626c653a2063616c6c6572206960448201526e39903737ba103a34329037bbb732b960891b606482015260840161088a565b60ac54811115610f175760405162461bcd60e51b815260206004820152603060248201527f44726177696e6747616d653a20737461727454696d65206d757374206265206c60448201527f657373207468616e20656e6454696d6500000000000000000000000000000000606482015260840161088a565b60ab55565b306001600160a01b037f0000000000000000000000000000000000000000000000000000000000000000161415610fbb5760405162461bcd60e51b815260206004820152602c60248201527f46756e6374696f6e206d7573742062652063616c6c6564207468726f7567682060448201527f64656c656761746563616c6c0000000000000000000000000000000000000000606482015260840161088a565b7f00000000000000000000000000000000000000000000000000000000000000006001600160a01b03166110167f360894a13ba1a3210667c828492db98dca3e2076cc3735a920a3ca505d382bbc546001600160a01b031690565b6001600160a01b0316146110925760405162461bcd60e51b815260206004820152602c60248201527f46756e6374696f6e206d7573742062652063616c6c6564207468726f7567682060448201527f6163746976652070726f78790000000000000000000000000000000000000000606482015260840161088a565b61109b82612123565b6109898282600161219a565b6000306001600160a01b037f000000000000000000000000000000000000000000000000000000000000000016146111475760405162461bcd60e51b815260206004820152603860248201527f555550535570677261646561626c653a206d757374206e6f742062652063616c60448201527f6c6564207468726f7567682064656c656761746563616c6c0000000000000000606482015260840161088a565b507f360894a13ba1a3210667c828492db98dca3e2076cc3735a920a3ca505d382bbc90565b818160006111786136e2565b336000908152609d602052604090205460ff16156111e3578161119a81613d45565b925050600181609d60006111ab3390565b6001600160a01b0316815260208101919091526040016000205460ff16600681106111d8576111d8613cfe565b911515602090920201525b60005b83518160ff161015611323576000611223858360ff168151811061120c5761120c613cfe565b60200260200101518761234990919063ffffffff16565b6001600160a01b0381166000908152609d602052604090205490915060ff16806112b55760405162461bcd60e51b815260206004820152602b60248201527f536166654f776e61626c655570677261646561626c653a207369676e6572206960448201527f73206e6f74206f776e6572000000000000000000000000000000000000000000606482015260840161088a565b838160ff16600681106112ca576112ca613cfe565b60200201511515600114156112e0575050611311565b6001848260ff16600681106112f7576112f7613cfe565b911515602090920201528461130b81613d45565b95505050505b8061131b81613d45565b9150506111e6565b50609e5460ff610100909104811690831610156113a85760405162461bcd60e51b815260206004820152602a60248201527f536166654f776e61626c655570677261646561626c653a206e6f20656e6f756760448201527f6820636f6e6669726d7300000000000000000000000000000000000000000000606482015260840161088a565b60a080549060006113b883613d2a565b90915550506000868152609f602052604081205460ff1660038111156113e0576113e0613b62565b146114535760405162461bcd60e51b815260206004820152603760248201527f536166654f776e61626c655570677261646561626c653a206f7065726174696f60448201527f6e20776173206e6f74207375626d697474656420796574000000000000000000606482015260840161088a565b6000868152609f6020526040808220805460ff191660011790555187917f33775024b20f211f019e50305c897b2105edc4642384143897ac170fb37f54a191a2505050505050565b6114a36136e2565b6040805160c08101918290529060979060069082845b81546001600160a01b031681526001909101906020018083116114b9575050505050905090565b6000806114ed60ad612108565b9050600060ab54118015611502575060ab5481115b61154e5760405162461bcd60e51b815260206004820152601f60248201527f44726177696e6747616d653a206163746976697479206e6f7420737461727400604482015260640161088a565b60ac54811061159f5760405162461bcd60e51b815260206004820152601b60248201527f44726177696e6747616d653a20616374697669747920656e6465640000000000604482015260640161088a565b336000908152609d602052604090205460ff166116165760405162461bcd60e51b815260206004820152602f60248201527f536166654f776e61626c655570677261646561626c653a2063616c6c6572206960448201526e39903737ba103a34329037bbb732b960891b606482015260840161088a565b60ae5460af5460b0546040517f5d3b1d300000000000000000000000000000000000000000000000000000000081526004810192909252640100000000810467ffffffffffffffff1660248301526c01000000000000000000000000810461ffff16604483015263ffffffff9081166064830152851660848201526001600160a01b0390911690635d3b1d309060a401602060405180830381600087803b1580156116c057600080fd5b505af11580156116d4573d6000803e3d6000fd5b505050506040513d601f19601f820116820180604052508101906116f89190613d65565b604080516060810182526000808252600160208084018281528551848152808301875285870190815287855260b28352959093208451815494517fffffffffffffffffffffffffffffffffffffffffffffffffffffffffffff000090951690151561ff0019161761010094151594909402939093178355935180519597509294919361178a9391850192910190613700565b50505060b18290556040805183815263ffffffff851660208201527fcc58b13ad3eab50626c6a6300b1d139cd6ebb1688a7cced9461c2f7e762665ee910160405180910390a150919050565b336000908152609d602052604090205460ff1661184d5760405162461bcd60e51b815260206004820152602f60248201527f536166654f776e61626c655570677261646561626c653a2063616c6c6572206960448201526e39903737ba103a34329037bbb732b960891b606482015260840161088a565b60ab5481116118c45760405162461bcd60e51b815260206004820152603360248201527f44726177696e6747616d653a20656e6454696d65206d7573742062652067726560448201527f61746572207468616e20737461727454696d6500000000000000000000000000606482015260840161088a565b60ac55565b336000908152609d602052604090205460ff166119405760405162461bcd60e51b815260206004820152602f60248201527f536166654f776e61626c655570677261646561626c653a2063616c6c6572206960448201526e39903737ba103a34329037bbb732b960891b606482015260840161088a565b60a2805473ffffffffffffffffffffffffffffffffffffffff19166001600160a01b0392909216919091179055565b336000908152609d602052604090205460ff166119e65760405162461bcd60e51b815260206004820152602f60248201527f536166654f776e61626c655570677261646561626c653a2063616c6c6572206960448201526e39903737ba103a34329037bbb732b960891b606482015260840161088a565b80518251146119f457600080fd5b60005b8251811015610c885760006040518060400160405280858481518110611a1f57611a1f613cfe565b60200260200101516001600160a01b03168152602001848481518110611a4757611a47613cfe565b6020026020010151815250905060a76000858481518110611a6a57611a6a613cfe565b60200260200101516001600160a01b03166001600160a01b031681526020019081526020016000206000848481518110611aa657611aa6613cfe565b60209081029190910181015182528101919091526040016000205460ff1615611b115760405162461bcd60e51b815260206004820152601660248201527f44726177696e6747616d653a204e465420616464656400000000000000000000604482015260640161088a565b838281518110611b2357611b23613cfe565b60200260200101516001600160a01b03166323b872dd3330868681518110611b4d57611b4d613cfe565b60209081029190910101516040517fffffffff0000000000000000000000000000000000000000000000000000000060e086901b1681526001600160a01b0393841660048201529290911660248301526044820152606401600060405180830381600087803b158015611bbf57600080fd5b505af1158015611bd3573d6000803e3d6000fd5b50505050600160a76000868581518110611bef57611bef613cfe565b60200260200101516001600160a01b03166001600160a01b031681526020019081526020016000206000858581518110611c2b57611c2b613cfe565b6020908102919091018101518252818101929092526040016000908120805460ff19169315159390931790925560a68054600181018255925282517f2da56674729343acc9933752c8c469a244252915242eb6d4c02d11ddd69164a16002909302928301805473ffffffffffffffffffffffffffffffffffffffff19166001600160a01b0390921691909117905591909101517f2da56674729343acc9933752c8c469a244252915242eb6d4c02d11ddd69164a29091015580611ced81613d2a565b9150506119f7565b600054610100900460ff1615808015611d155750600054600160ff909116105b80611d2f5750303b158015611d2f575060005460ff166001145b611da15760405162461bcd60e51b815260206004820152602e60248201527f496e697469616c697a61626c653a20636f6e747261637420697320616c72656160448201527f647920696e697469616c697a6564000000000000000000000000000000000000606482015260840161088a565b6000805460ff191660011790558015611dc4576000805461ff0019166101001790555b611dcd8261236f565b60ae805473ffffffffffffffffffffffffffffffffffffffff19166001600160a01b038416179055611dff84846124a8565b604080517f20a714382505729b6977051cb17e2cd66b3149e150240124aa4917fe7f2189906020820152469181019190915230606082015260800160408051601f19818403018152919052805160209091012060a3558015611e9b576000805461ff0019169055604051600181527f7f26b83ff96e1f2b6a682f133852f6798a09c465da95921460cefb38474024989060200160405180910390a15b50505050565b336000908152609d602052604090205460ff16611f185760405162461bcd60e51b815260206004820152602f60248201527f536166654f776e61626c655570677261646561626c653a2063616c6c6572206960448201526e39903737ba103a34329037bbb732b960891b606482015260840161088a565b6001600160a01b038116611f945760405162461bcd60e51b815260206004820152603560248201527f536166654f776e61626c655570677261646561626c653a206e6577206f776e6560448201527f7220697320746865207a65726f20616464726573730000000000000000000000606482015260840161088a565b6001600160a01b0381166000908152609d602052604090205460ff16156120235760405162461bcd60e51b815260206004820152603060248201527f536166654f776e61626c655570677261646561626c653a206e6577206f776e6560448201527f7220616c72656164792065786973747300000000000000000000000000000000606482015260840161088a565b610a0e8161283a565b600082815260b26020526040902054610100900460ff1661208f5760405162461bcd60e51b815260206004820152601e60248201527f44726177696e6747616d653a2072657175657374206e6f7420666f756e640000604482015260640161088a565b600082815260b260209081526040909120805460ff19166001908117825583516120c0939290910191840190613700565b506120cb82826128e6565b7ffe2e2d779dba245964d4e3ef9b994be63856fd568bf7d3ca9e224755cb1bd54d82826040516120fc929190613db9565b60405180910390a15050565b80546000901561211757505490565b5042919050565b919050565b336000908152609d602052604090205460ff16610a0e5760405162461bcd60e51b815260206004820152602f60248201527f536166654f776e61626c655570677261646561626c653a2063616c6c6572206960448201526e39903737ba103a34329037bbb732b960891b606482015260840161088a565b7f4910fdfa16fed3260ed0e7147f7cc6da11a60208b5b9406d12a635614ffd91435460ff16156121cd57610c8883612d6b565b826001600160a01b03166352d1902d6040518163ffffffff1660e01b815260040160206040518083038186803b15801561220657600080fd5b505afa925050508015612236575060408051601f3d908101601f1916820190925261223391810190613d65565b60015b6122a85760405162461bcd60e51b815260206004820152602e60248201527f45524331393637557067726164653a206e657720696d706c656d656e7461746960448201527f6f6e206973206e6f742055555053000000000000000000000000000000000000606482015260840161088a565b7f360894a13ba1a3210667c828492db98dca3e2076cc3735a920a3ca505d382bbc811461233d5760405162461bcd60e51b815260206004820152602960248201527f45524331393637557067726164653a20756e737570706f727465642070726f7860448201527f6961626c65555549440000000000000000000000000000000000000000000000606482015260840161088a565b50610c88838383612e36565b60008060006123588585612e5b565b9150915061236581612ea1565b5090505b92915050565b600054610100900460ff161580801561238f5750600054600160ff909116105b806123a95750303b1580156123a9575060005460ff166001145b61241b5760405162461bcd60e51b815260206004820152602e60248201527f496e697469616c697a61626c653a20636f6e747261637420697320616c72656160448201527f647920696e697469616c697a6564000000000000000000000000000000000000606482015260840161088a565b6000805460ff19166001179055801561243e576000805461ff0019166101001790555b60a1805473ffffffffffffffffffffffffffffffffffffffff19166001600160a01b0384161790558015610989576000805461ff0019169055604051600181527f7f26b83ff96e1f2b6a682f133852f6798a09c465da95921460cefb3847402498906020016120fc565b600054610100900460ff166125255760405162461bcd60e51b815260206004820152602b60248201527f496e697469616c697a61626c653a20636f6e7472616374206973206e6f74206960448201527f6e697469616c697a696e67000000000000000000000000000000000000000000606482015260840161088a565b81516005101561259d5760405162461bcd60e51b815260206004820152603360248201527f536166654f776e61626c655570677261646561626c653a657863656564206d6160448201527f78696d756d206e756d626572206f776e65727300000000000000000000000000606482015260840161088a565b60ff81166126135760405162461bcd60e51b815260206004820152602c60248201527f536166654f776e61626c655570677261646561626c653a207369676e5265717560448201527f69726564206973207a65726f0000000000000000000000000000000000000000606482015260840161088a565b609e805461ff00191661010060ff84160217905560005b82518110156127b657600083828151811061264757612647613cfe565b6020908102919091018101516001600160a01b0381166000908152609d90925260409091205490915060ff16156126e65760405162461bcd60e51b815260206004820152602c60248201527f536166654f776e61626c655570677261646561626c653a206f776e657220616c60448201527f7265616479206578697374730000000000000000000000000000000000000000606482015260840161088a565b609e805482916097916000906126fe9060ff16613d45565b91906101000a81548160ff021916908360ff160217905560ff166006811061272857612728613cfe565b0180546001600160a01b0392831673ffffffffffffffffffffffffffffffffffffffff19909116179055609e549082166000818152609d6020526040808220805460ff191660ff9095169490941790935591519091907f8be0079c531659141344cd1fd0a4f28419497f9722a3daafe3b4186f6b6457e0908290a350806127ae81613d2a565b91505061262a565b50609e5460ff8082166101009092041611156109895760405162461bcd60e51b815260206004820152603560248201527f536166654f776e61626c655570677261646561626c653a206f776e657273206c60448201527f657373207468616e207369676e52657175697265640000000000000000000000606482015260840161088a565b336000818152609d602052604090205460ff16826097826006811061286157612861613cfe565b01805473ffffffffffffffffffffffffffffffffffffffff19166001600160a01b039283161790558281166000818152609d6020526040808220805460ff19908116909155938716808352818320805490951660ff871617909455517f8be0079c531659141344cd1fd0a4f28419497f9722a3daafe3b4186f6b6457e09190a3505050565b60006128f260ad612108565b9050600060ab54118015612907575060ab5481115b6129535760405162461bcd60e51b815260206004820152601f60248201527f44726177696e6747616d653a206163746976697479206e6f7420737461727400604482015260640161088a565b60ac5481106129a45760405162461bcd60e51b815260206004820152601b60248201527f44726177696e6747616d653a20616374697669747920656e6465640000000000604482015260640161088a565b6000806129af613092565b915091506000845167ffffffffffffffff8111156129cf576129cf61380b565b6040519080825280602002602001820160405280156129f8578160200160208202803683370190505b5090506000855167ffffffffffffffff811115612a1757612a1761380b565b604051908082528060200260200182016040528015612a40578160200160208202803683370190505b5090506000865167ffffffffffffffff811115612a5f57612a5f61380b565b604051908082528060200260200182016040528015612a88578160200160208202803683370190505b50905060005b875181108015612aa1575060a85460a654115b15612d045784612ab057612d04565b600085898381518110612ac557612ac5613cfe565b6020026020010151612ad79190613dda565b90506000612ae5888361333a565b6001600160a01b038116600090815260aa6020526040902054909150612b0b9088613ce7565b9650600060a660a85481548110612b2457612b24613cfe565b600091825260209182902060408051808201825260029390930290910180546001600160a01b0390811680855260019092015494840185905291517f23b872dd000000000000000000000000000000000000000000000000000000008152306004820152918616602483015260448201939093529092506323b872dd90606401600060405180830381600087803b158015612bbe57600080fd5b505af1158015612bd2573d6000803e3d6000fd5b5050506001600160a01b038316600090815260a560205260409020805460ff191660011790555084518290869086908110612c0f57612c0f613cfe565b60200260200101906001600160a01b031690816001600160a01b03168152505060a660a85481548110612c4457612c44613cfe565b600091825260209091206002909102015487516001600160a01b0390911690889086908110612c7557612c75613cfe565b60200260200101906001600160a01b031690816001600160a01b03168152505060a660a85481548110612caa57612caa613cfe565b906000526020600020906002020160010154868581518110612cce57612cce613cfe565b602090810291909101015260a88054906000612ce983613d2a565b91905055505050508080612cfc90613d2a565b915050612a8e565b5060a98054906000612d1583613d2a565b9190505550336001600160a01b03167f88d7de3a9d0f634c581bfb2b16a177071a6f86ed31444ed8ca1c60725063d3118285858c604051612d599493929190613e35565b60405180910390a25050505050505050565b6001600160a01b0381163b612de85760405162461bcd60e51b815260206004820152602d60248201527f455243313936373a206e657720696d706c656d656e746174696f6e206973206e60448201527f6f74206120636f6e747261637400000000000000000000000000000000000000606482015260840161088a565b7f360894a13ba1a3210667c828492db98dca3e2076cc3735a920a3ca505d382bbc805473ffffffffffffffffffffffffffffffffffffffff19166001600160a01b0392909216919091179055565b612e3f83613438565b600082511180612e4c5750805b15610c8857611e9b8383613478565b600080825160411415612e925760208301516040840151606085015160001a612e8687828585613583565b94509450505050612e9a565b506000905060025b9250929050565b6000816004811115612eb557612eb5613b62565b1415612ebe5750565b6001816004811115612ed257612ed2613b62565b1415612f205760405162461bcd60e51b815260206004820152601860248201527f45434453413a20696e76616c6964207369676e61747572650000000000000000604482015260640161088a565b6002816004811115612f3457612f34613b62565b1415612f825760405162461bcd60e51b815260206004820152601f60248201527f45434453413a20696e76616c6964207369676e6174757265206c656e67746800604482015260640161088a565b6003816004811115612f9657612f96613b62565b141561300a5760405162461bcd60e51b815260206004820152602260248201527f45434453413a20696e76616c6964207369676e6174757265202773272076616c60448201527f7565000000000000000000000000000000000000000000000000000000000000606482015260840161088a565b600481600481111561301e5761301e613b62565b1415610a0e5760405162461bcd60e51b815260206004820152602260248201527f45434453413a20696e76616c6964207369676e6174757265202776272076616c60448201527f7565000000000000000000000000000000000000000000000000000000000000606482015260840161088a565b606060008060a260009054906101000a90046001600160a01b03166001600160a01b03166362f45f096040518163ffffffff1660e01b815260040160006040518083038186803b1580156130e557600080fd5b505afa1580156130f9573d6000803e3d6000fd5b505050506040513d6000823e601f3d908101601f191682016040526131219190810190613e80565b905060008060005b83518110156132275760a5600085838151811061314857613148613cfe565b602090810291909101810151516001600160a01b031682528101919091526040016000205460ff161561317a57613215565b8161318481613d2a565b9250506131ad84828151811061319c5761319c613cfe565b602002602001015160200151613670565b60aa60008684815181106131c3576131c3613cfe565b6020026020010151600001516001600160a01b03166001600160a01b031681526020019081526020016000208190555061320884828151811061319c5761319c613cfe565b6132129084613f49565b92505b8061321f81613d2a565b915050613129565b5060008167ffffffffffffffff8111156132435761324361380b565b60405190808252806020026020018201604052801561326c578160200160208202803683370190505b5090506000805b855181101561332c5760a5600087838151811061329257613292613cfe565b602090810291909101810151516001600160a01b031682528101919091526040016000205460ff16156132c45761331a565b8581815181106132d6576132d6613cfe565b6020026020010151600001518383815181106132f4576132f4613cfe565b6001600160a01b03909216602092830291909101909101528161331681613d2a565b9250505b8061332481613d2a565b915050613273565b509096929550919350505050565b600080805b845181101561342d5760006001600160a01b031685828151811061336557613365613cfe565b60200260200101516001600160a01b031614156133815761341b565b60aa600086838151811061339757613397613cfe565b60200260200101516001600160a01b03166001600160a01b0316815260200190815260200160002054826133cb9190613f49565b915083821061341b5760008582815181106133e8576133e8613cfe565b6020026020010151905085828151811061340457613404613cfe565b600060209182029290920101529250612369915050565b8061342581613d2a565b91505061333f565b506000949350505050565b61344181612d6b565b6040516001600160a01b038216907fbc7cd75a20ee27fd9adebab32041f755214dbc6bffa90cc0225b39da2e5c2d3b90600090a250565b60606001600160a01b0383163b6134f75760405162461bcd60e51b815260206004820152602660248201527f416464726573733a2064656c65676174652063616c6c20746f206e6f6e2d636f60448201527f6e74726163740000000000000000000000000000000000000000000000000000606482015260840161088a565b600080846001600160a01b0316846040516135129190613f8d565b600060405180830381855af49150503d806000811461354d576040519150601f19603f3d011682016040523d82523d6000602084013e613552565b606091505b509150915061357a8282604051806060016040528060278152602001613fdd602791396136a2565b95945050505050565b6000807f7fffffffffffffffffffffffffffffff5d576e7357a4501ddfe92f46681b20a08311156135ba5750600090506003613667565b8460ff16601b141580156135d257508460ff16601c14155b156135e35750600090506004613667565b6040805160008082526020820180845289905260ff881692820192909252606081018690526080810185905260019060a0016020604051602081039080840390855afa158015613637573d6000803e3d6000fd5b5050604051601f1901519150506001600160a01b03811661366057600060019250925050613667565b9150600090505b94509492505050565b60008160ff16600314156136865750600f919050565b8160ff166002141561369a57506005919050565b506001919050565b606083156136b15750816136db565b8251156136c15782518084602001fd5b8160405162461bcd60e51b815260040161088a9190613fa9565b9392505050565b6040518060c001604052806006906020820280368337509192915050565b82805482825590600052602060002090810192821561373b579160200282015b8281111561373b578251825591602001919060010190613720565b5061374792915061374b565b5090565b5b80821115613747576000815560010161374c565b803563ffffffff8116811461211e57600080fd5b6000806000806080858703121561378a57600080fd5b61379385613760565b9350602085013567ffffffffffffffff811681146137b057600080fd5b925060408501359150606085013561ffff811681146137ce57600080fd5b939692955090935050565b6001600160a01b0381168114610a0e57600080fd5b60006020828403121561380057600080fd5b81356136db816137d9565b634e487b7160e01b600052604160045260246000fd5b6040805190810167ffffffffffffffff811182821017156138445761384461380b565b60405290565b604051601f8201601f1916810167ffffffffffffffff811182821017156138735761387361380b565b604052919050565b600067ffffffffffffffff8211156138955761389561380b565b5060051b60200190565b600082601f8301126138b057600080fd5b813560206138c56138c08361387b565b61384a565b82815260059290921b840181019181810190868411156138e457600080fd5b8286015b848110156138ff57803583529183019183016138e8565b509695505050505050565b6000806040838503121561391d57600080fd5b82359150602083013567ffffffffffffffff81111561393b57600080fd5b6139478582860161389f565b9150509250929050565b60006020828403121561396357600080fd5b5035919050565b6000806040838503121561397d57600080fd5b82359150602083013561398f816137d9565b809150509250929050565b600082601f8301126139ab57600080fd5b813567ffffffffffffffff8111156139c5576139c561380b565b6139d86020601f19601f8401160161384a565b8181528460208386010111156139ed57600080fd5b816020850160208301376000918101602001919091529392505050565b60008060408385031215613a1d57600080fd5b8235613a28816137d9565b9150602083013567ffffffffffffffff811115613a4457600080fd5b6139478582860161399a565b60008060408385031215613a6357600080fd5b8235915060208084013567ffffffffffffffff80821115613a8357600080fd5b818601915086601f830112613a9757600080fd5b8135613aa56138c08261387b565b81815260059190911b83018401908481019089831115613ac457600080fd5b8585015b83811015613afc57803585811115613ae05760008081fd5b613aee8c89838a010161399a565b845250918601918601613ac8565b508096505050505050509250929050565b60c08101818360005b6006811015613b3e5781516001600160a01b0316835260209283019290910190600101613b16565b50505092915050565b600060208284031215613b5957600080fd5b6136db82613760565b634e487b7160e01b600052602160045260246000fd5b6020810160048310613b9a57634e487b7160e01b600052602160045260246000fd5b91905290565b600082601f830112613bb157600080fd5b81356020613bc16138c08361387b565b82815260059290921b84018101918181019086841115613be057600080fd5b8286015b848110156138ff578035613bf7816137d9565b8352918301918301613be4565b60008060408385031215613c1757600080fd5b823567ffffffffffffffff80821115613c2f57600080fd5b613c3b86838701613ba0565b93506020850135915080821115613c5157600080fd5b506139478582860161389f565b60ff81168114610a0e57600080fd5b600080600060608486031215613c8257600080fd5b833567ffffffffffffffff811115613c9957600080fd5b613ca586828701613ba0565b9350506020840135613cb681613c5e565b91506040840135613cc6816137d9565b809150509250925092565b634e487b7160e01b600052601160045260246000fd5b600082821015613cf957613cf9613cd1565b500390565b634e487b7160e01b600052603260045260246000fd5b634e487b7160e01b600052603160045260246000fd5b6000600019821415613d3e57613d3e613cd1565b5060010190565b600060ff821660ff811415613d5c57613d5c613cd1565b60010192915050565b600060208284031215613d7757600080fd5b5051919050565b600081518084526020808501945080840160005b83811015613dae57815187529582019590820190600101613d92565b509495945050505050565b828152604060208201526000613dd26040830184613d7e565b949350505050565b600082613df757634e487b7160e01b600052601260045260246000fd5b500690565b600081518084526020808501945080840160005b83811015613dae5781516001600160a01b031687529582019590820190600101613e10565b608081526000613e486080830187613dfc565b8281036020840152613e5a8187613dfc565b90508281036040840152613e6e8186613d7e565b91505082606083015295945050505050565b60006020808385031215613e9357600080fd5b825167ffffffffffffffff811115613eaa57600080fd5b8301601f81018513613ebb57600080fd5b8051613ec96138c08261387b565b81815260069190911b82018301908381019087831115613ee857600080fd5b928401925b82841015613f3e5760408489031215613f065760008081fd5b613f0e613821565b8451613f19816137d9565b815284860151613f2881613c5e565b8187015282526040939093019290840190613eed565b979650505050505050565b60008219821115613f5c57613f5c613cd1565b500190565b60005b83811015613f7c578181015183820152602001613f64565b83811115611e9b5750506000910152565b60008251613f9f818460208701613f61565b9190910192915050565b6020815260008251806020840152613fc8816040850160208701613f61565b601f01601f1916919091016040019291505056fe416464726573733a206c6f772d6c6576656c2064656c65676174652063616c6c206661696c6564a2646970667358221220bd75504650956c7049953ee563bcfc2bb25e659505152fd50201fe0f229ad58b64736f6c63430008090033",
  "devdoc": {
    "kind": "dev",
    "methods": {
      "proxiableUUID()": {
        "details": "Implementation of the ERC1822 {proxiableUUID} function. This returns the storage slot used by the implementation. It is used to validate that the this implementation remains valid after an upgrade. IMPORTANT: A proxy pointing at a proxiable contract should not be considered proxiable itself, because this risks bricking a proxy that upgrades to it, by delegating to itself until out of gas. Thus it is critical that this function revert if invoked through a proxy. This is guaranteed by the `notDelegated` modifier."
      },
      "transferOwnership(address)": {
        "details": "Transfers ownership of the contract to a new account (`newOwner`). Can only be called by the current owner."
      },
      "upgradeTo(address)": {
        "details": "Upgrade the implementation of the proxy to `newImplementation`. Calls {_authorizeUpgrade}. Emits an {Upgraded} event."
      },
      "upgradeToAndCall(address,bytes)": {
        "details": "Upgrade the implementation of the proxy to `newImplementation`, and subsequently execute the function call encoded in `data`. Calls {_authorizeUpgrade}. Emits an {Upgraded} event."
      }
    },
    "version": 1
  },
  "userdoc": {
    "kind": "user",
    "methods": {},
    "version": 1
  },
  "storageLayout": {
    "storage": [
      {
        "astId": 491,
        "contract": "contracts/DrawingGame/DrawingGame.sol:DrawingGame",
        "label": "_initialized",
        "offset": 0,
        "slot": "0",
        "type": "t_uint8"
      },
      {
        "astId": 494,
        "contract": "contracts/DrawingGame/DrawingGame.sol:DrawingGame",
        "label": "_initializing",
        "offset": 1,
        "slot": "0",
        "type": "t_bool"
      },
      {
        "astId": 473,
        "contract": "contracts/DrawingGame/DrawingGame.sol:DrawingGame",
        "label": "__gap",
        "offset": 0,
        "slot": "1",
        "type": "t_array(t_uint256)50_storage"
      },
      {
        "astId": 770,
        "contract": "contracts/DrawingGame/DrawingGame.sol:DrawingGame",
        "label": "__gap",
        "offset": 0,
        "slot": "51",
        "type": "t_array(t_uint256)50_storage"
      },
      {
        "astId": 1055,
        "contract": "contracts/DrawingGame/DrawingGame.sol:DrawingGame",
        "label": "__gap",
        "offset": 0,
        "slot": "101",
        "type": "t_array(t_uint256)50_storage"
      },
      {
        "astId": 1752,
        "contract": "contracts/DrawingGame/DrawingGame.sol:DrawingGame",
        "label": "_owners",
        "offset": 0,
        "slot": "151",
        "type": "t_array(t_address)6_storage"
      },
      {
        "astId": 1756,
        "contract": "contracts/DrawingGame/DrawingGame.sol:DrawingGame",
        "label": "_ownersIndex",
        "offset": 0,
        "slot": "157",
        "type": "t_mapping(t_address,t_uint8)"
      },
      {
        "astId": 1758,
        "contract": "contracts/DrawingGame/DrawingGame.sol:DrawingGame",
        "label": "_numOwners",
        "offset": 0,
        "slot": "158",
        "type": "t_uint8"
      },
      {
        "astId": 1763,
        "contract": "contracts/DrawingGame/DrawingGame.sol:DrawingGame",
        "label": "signRequired",
        "offset": 1,
        "slot": "158",
        "type": "t_uint8"
      },
      {
        "astId": 1768,
        "contract": "contracts/DrawingGame/DrawingGame.sol:DrawingGame",
        "label": "operationsStatus",
        "offset": 0,
        "slot": "159",
        "type": "t_mapping(t_bytes32,t_enum(OpStatus)1748)"
      },
      {
        "astId": 1770,
        "contract": "contracts/DrawingGame/DrawingGame.sol:DrawingGame",
        "label": "nonce",
        "offset": 0,
        "slot": "160",
        "type": "t_uint256"
      },
      {
        "astId": 2140,
        "contract": "contracts/DrawingGame/DrawingGame.sol:DrawingGame",
        "label": "vrfCoordinator",
        "offset": 0,
        "slot": "161",
        "type": "t_address"
      },
      {
        "astId": 2255,
        "contract": "contracts/DrawingGame/DrawingGame.sol:DrawingGame",
        "label": "investmentAddress",
        "offset": 0,
        "slot": "162",
        "type": "t_address"
      },
      {
        "astId": 2257,
        "contract": "contracts/DrawingGame/DrawingGame.sol:DrawingGame",
        "label": "DOMAIN",
        "offset": 0,
        "slot": "163",
        "type": "t_bytes32"
      },
      {
        "astId": 2267,
        "contract": "contracts/DrawingGame/DrawingGame.sol:DrawingGame",
        "label": "wonNFT",
        "offset": 0,
        "slot": "164",
        "type": "t_mapping(t_address,t_struct(NFTInfo)2262_storage)"
      },
      {
        "astId": 2271,
        "contract": "contracts/DrawingGame/DrawingGame.sol:DrawingGame",
        "label": "won",
        "offset": 0,
        "slot": "165",
        "type": "t_mapping(t_address,t_bool)"
      },
      {
        "astId": 2275,
        "contract": "contracts/DrawingGame/DrawingGame.sol:DrawingGame",
        "label": "nfts",
        "offset": 0,
        "slot": "166",
        "type": "t_array(t_struct(NFTInfo)2262_storage)dyn_storage"
      },
      {
        "astId": 2281,
        "contract": "contracts/DrawingGame/DrawingGame.sol:DrawingGame",
        "label": "nftExistPrizePool",
        "offset": 0,
        "slot": "167",
        "type": "t_mapping(t_address,t_mapping(t_uint256,t_bool))"
      },
      {
        "astId": 2283,
        "contract": "contracts/DrawingGame/DrawingGame.sol:DrawingGame",
        "label": "distributedNFTs",
        "offset": 0,
        "slot": "168",
        "type": "t_uint256"
      },
      {
        "astId": 2285,
        "contract": "contracts/DrawingGame/DrawingGame.sol:DrawingGame",
        "label": "drawRounds",
        "offset": 0,
        "slot": "169",
        "type": "t_uint256"
      },
      {
        "astId": 2289,
        "contract": "contracts/DrawingGame/DrawingGame.sol:DrawingGame",
        "label": "addressWeightMap",
        "offset": 0,
        "slot": "170",
        "type": "t_mapping(t_address,t_uint256)"
      },
      {
        "astId": 2291,
        "contract": "contracts/DrawingGame/DrawingGame.sol:DrawingGame",
        "label": "startTime",
        "offset": 0,
        "slot": "171",
        "type": "t_uint256"
      },
      {
        "astId": 2293,
        "contract": "contracts/DrawingGame/DrawingGame.sol:DrawingGame",
        "label": "endTime",
        "offset": 0,
        "slot": "172",
        "type": "t_uint256"
      },
      {
        "astId": 2300,
        "contract": "contracts/DrawingGame/DrawingGame.sol:DrawingGame",
        "label": "_timestamp",
        "offset": 0,
        "slot": "173",
        "type": "t_struct(Timestamp)3248_storage"
      },
      {
        "astId": 2318,
        "contract": "contracts/DrawingGame/DrawingGame.sol:DrawingGame",
        "label": "COORDINATOR",
        "offset": 0,
        "slot": "174",
        "type": "t_contract(VRFCoordinatorV2Interface)95"
      },
      {
        "astId": 2320,
        "contract": "contracts/DrawingGame/DrawingGame.sol:DrawingGame",
        "label": "keyHash",
        "offset": 0,
        "slot": "175",
        "type": "t_bytes32"
      },
      {
        "astId": 2322,
        "contract": "contracts/DrawingGame/DrawingGame.sol:DrawingGame",
        "label": "callbackGasLimit",
        "offset": 0,
        "slot": "176",
        "type": "t_uint32"
      },
      {
        "astId": 2324,
        "contract": "contracts/DrawingGame/DrawingGame.sol:DrawingGame",
        "label": "subscriptionId",
        "offset": 4,
        "slot": "176",
        "type": "t_uint64"
      },
      {
        "astId": 2326,
        "contract": "contracts/DrawingGame/DrawingGame.sol:DrawingGame",
        "label": "requestConfirmations",
        "offset": 12,
        "slot": "176",
        "type": "t_uint16"
      },
      {
        "astId": 2328,
        "contract": "contracts/DrawingGame/DrawingGame.sol:DrawingGame",
        "label": "lastRequestId",
        "offset": 0,
        "slot": "177",
        "type": "t_uint256"
      },
      {
        "astId": 2354,
        "contract": "contracts/DrawingGame/DrawingGame.sol:DrawingGame",
        "label": "requests",
        "offset": 0,
        "slot": "178",
        "type": "t_mapping(t_uint256,t_struct(RequestStatus)2349_storage)"
      }
    ],
    "types": {
      "t_address": {
        "encoding": "inplace",
        "label": "address",
        "numberOfBytes": "20"
      },
      "t_array(t_address)6_storage": {
        "base": "t_address",
        "encoding": "inplace",
        "label": "address[6]",
        "numberOfBytes": "192"
      },
      "t_array(t_struct(NFTInfo)2262_storage)dyn_storage": {
        "base": "t_struct(NFTInfo)2262_storage",
        "encoding": "dynamic_array",
        "label": "struct DrawingGame.NFTInfo[]",
        "numberOfBytes": "32"
      },
      "t_array(t_uint256)50_storage": {
        "base": "t_uint256",
        "encoding": "inplace",
        "label": "uint256[50]",
        "numberOfBytes": "1600"
      },
      "t_array(t_uint256)dyn_storage": {
        "base": "t_uint256",
        "encoding": "dynamic_array",
        "label": "uint256[]",
        "numberOfBytes": "32"
      },
      "t_bool": {
        "encoding": "inplace",
        "label": "bool",
        "numberOfBytes": "1"
      },
      "t_bytes32": {
        "encoding": "inplace",
        "label": "bytes32",
        "numberOfBytes": "32"
      },
      "t_contract(VRFCoordinatorV2Interface)95": {
        "encoding": "inplace",
        "label": "contract VRFCoordinatorV2Interface",
        "numberOfBytes": "20"
      },
      "t_enum(OpStatus)1748": {
        "encoding": "inplace",
        "label": "enum SafeOwnableUpgradeable.OpStatus",
        "numberOfBytes": "1"
      },
      "t_mapping(t_address,t_bool)": {
        "encoding": "mapping",
        "key": "t_address",
        "label": "mapping(address => bool)",
        "numberOfBytes": "32",
        "value": "t_bool"
      },
      "t_mapping(t_address,t_mapping(t_uint256,t_bool))": {
        "encoding": "mapping",
        "key": "t_address",
        "label": "mapping(address => mapping(uint256 => bool))",
        "numberOfBytes": "32",
        "value": "t_mapping(t_uint256,t_bool)"
      },
      "t_mapping(t_address,t_struct(NFTInfo)2262_storage)": {
        "encoding": "mapping",
        "key": "t_address",
        "label": "mapping(address => struct DrawingGame.NFTInfo)",
        "numberOfBytes": "32",
        "value": "t_struct(NFTInfo)2262_storage"
      },
      "t_mapping(t_address,t_uint256)": {
        "encoding": "mapping",
        "key": "t_address",
        "label": "mapping(address => uint256)",
        "numberOfBytes": "32",
        "value": "t_uint256"
      },
      "t_mapping(t_address,t_uint8)": {
        "encoding": "mapping",
        "key": "t_address",
        "label": "mapping(address => uint8)",
        "numberOfBytes": "32",
        "value": "t_uint8"
      },
      "t_mapping(t_bytes32,t_enum(OpStatus)1748)": {
        "encoding": "mapping",
        "key": "t_bytes32",
        "label": "mapping(bytes32 => enum SafeOwnableUpgradeable.OpStatus)",
        "numberOfBytes": "32",
        "value": "t_enum(OpStatus)1748"
      },
      "t_mapping(t_uint256,t_bool)": {
        "encoding": "mapping",
        "key": "t_uint256",
        "label": "mapping(uint256 => bool)",
        "numberOfBytes": "32",
        "value": "t_bool"
      },
      "t_mapping(t_uint256,t_struct(RequestStatus)2349_storage)": {
        "encoding": "mapping",
        "key": "t_uint256",
        "label": "mapping(uint256 => struct DrawingGame.RequestStatus)",
        "numberOfBytes": "32",
        "value": "t_struct(RequestStatus)2349_storage"
      },
      "t_struct(NFTInfo)2262_storage": {
        "encoding": "inplace",
        "label": "struct DrawingGame.NFTInfo",
        "members": [
          {
            "astId": 2259,
            "contract": "contracts/DrawingGame/DrawingGame.sol:DrawingGame",
            "label": "contractAddress",
            "offset": 0,
            "slot": "0",
            "type": "t_address"
          },
          {
            "astId": 2261,
            "contract": "contracts/DrawingGame/DrawingGame.sol:DrawingGame",
            "label": "tokenId",
            "offset": 0,
            "slot": "1",
            "type": "t_uint256"
          }
        ],
        "numberOfBytes": "64"
      },
      "t_struct(RequestStatus)2349_storage": {
        "encoding": "inplace",
        "label": "struct DrawingGame.RequestStatus",
        "members": [
          {
            "astId": 2343,
            "contract": "contracts/DrawingGame/DrawingGame.sol:DrawingGame",
            "label": "fulfilled",
            "offset": 0,
            "slot": "0",
            "type": "t_bool"
          },
          {
            "astId": 2345,
            "contract": "contracts/DrawingGame/DrawingGame.sol:DrawingGame",
            "label": "exists",
            "offset": 1,
            "slot": "0",
            "type": "t_bool"
          },
          {
            "astId": 2348,
            "contract": "contracts/DrawingGame/DrawingGame.sol:DrawingGame",
            "label": "randomWords",
            "offset": 0,
            "slot": "1",
            "type": "t_array(t_uint256)dyn_storage"
          }
        ],
        "numberOfBytes": "64"
      },
      "t_struct(Timestamp)3248_storage": {
        "encoding": "inplace",
        "label": "struct Time.Timestamp",
        "members": [
          {
            "astId": 3247,
            "contract": "contracts/DrawingGame/DrawingGame.sol:DrawingGame",
            "label": "_current_time",
            "offset": 0,
            "slot": "0",
            "type": "t_uint256"
          }
        ],
        "numberOfBytes": "32"
      },
      "t_uint16": {
        "encoding": "inplace",
        "label": "uint16",
        "numberOfBytes": "2"
      },
      "t_uint256": {
        "encoding": "inplace",
        "label": "uint256",
        "numberOfBytes": "32"
      },
      "t_uint32": {
        "encoding": "inplace",
        "label": "uint32",
        "numberOfBytes": "4"
      },
      "t_uint64": {
        "encoding": "inplace",
        "label": "uint64",
        "numberOfBytes": "8"
      },
      "t_uint8": {
        "encoding": "inplace",
        "label": "uint8",
        "numberOfBytes": "1"
      }
    }
  }
}