{
  "address": "0x8bB2BF2f4f2A374d54FC5dc790BbFbAc2220A770",
  "abi": [
    {
      "inputs": [
        {
          "internalType": "address",
          "name": "have",
          "type": "address"
        },
        {
          "internalType": "address",
          "name": "want",
          "type": "address"
        }
      ],
      "name": "OnlyCoordinatorCanFulfill",
      "type": "error"
    },
    {
      "anonymous": false,
      "inputs": [
        {
          "indexed": false,
          "internalType": "address",
          "name": "previousAdmin",
          "type": "address"
        },
        {
          "indexed": false,
          "internalType": "address",
          "name": "newAdmin",
          "type": "address"
        }
      ],
      "name": "AdminChanged",
      "type": "event"
    },
    {
      "anonymous": false,
      "inputs": [
        {
          "indexed": true,
          "internalType": "address",
          "name": "beacon",
          "type": "address"
        }
      ],
      "name": "BeaconUpgraded",
      "type": "event"
    },
    {
      "anonymous": false,
      "inputs": [
        {
          "indexed": true,
          "internalType": "address",
          "name": "from",
          "type": "address"
        },
        {
          "indexed": true,
          "internalType": "uint256",
          "name": "time",
          "type": "uint256"
        },
        {
          "indexed": false,
          "internalType": "uint256",
          "name": "paticipantsNumber",
          "type": "uint256"
        }
      ],
      "name": "Draw",
      "type": "event"
    },
    {
      "anonymous": false,
      "inputs": [
        {
          "indexed": false,
          "internalType": "uint8",
          "name": "version",
          "type": "uint8"
        }
      ],
      "name": "Initialized",
      "type": "event"
    },
    {
      "anonymous": false,
      "inputs": [
        {
          "indexed": true,
          "internalType": "bytes32",
          "name": "opHash",
          "type": "bytes32"
        }
      ],
      "name": "OperationAdded",
      "type": "event"
    },
    {
      "anonymous": false,
      "inputs": [
        {
          "indexed": true,
          "internalType": "address",
          "name": "previousOwner",
          "type": "address"
        },
        {
          "indexed": true,
          "internalType": "address",
          "name": "newOwner",
          "type": "address"
        }
      ],
      "name": "OwnershipTransferred",
      "type": "event"
    },
    {
      "anonymous": false,
      "inputs": [
        {
          "indexed": false,
          "internalType": "uint256",
          "name": "requestId",
          "type": "uint256"
        },
        {
          "indexed": false,
          "internalType": "uint256[]",
          "name": "randomWords",
          "type": "uint256[]"
        }
      ],
      "name": "RequestFulfilled",
      "type": "event"
    },
    {
      "anonymous": false,
      "inputs": [
        {
          "indexed": false,
          "internalType": "uint256",
          "name": "requestId",
          "type": "uint256"
        },
        {
          "indexed": false,
          "internalType": "uint32",
          "name": "numWords",
          "type": "uint32"
        }
      ],
      "name": "RequestSent",
      "type": "event"
    },
    {
      "anonymous": false,
      "inputs": [
        {
          "indexed": true,
          "internalType": "address",
          "name": "from",
          "type": "address"
        },
        {
          "indexed": false,
          "internalType": "address",
          "name": "contractAddress",
          "type": "address"
        },
        {
          "indexed": false,
          "internalType": "uint256",
          "name": "tokenId",
          "type": "uint256"
        }
      ],
      "name": "TakeOutNFT",
      "type": "event"
    },
    {
      "anonymous": false,
      "inputs": [
        {
          "indexed": true,
          "internalType": "address",
          "name": "implementation",
          "type": "address"
        }
      ],
      "name": "Upgraded",
      "type": "event"
    },
    {
      "inputs": [
        {
          "internalType": "bytes32",
          "name": "opHash",
          "type": "bytes32"
        },
        {
          "internalType": "bytes[]",
          "name": "sigs",
          "type": "bytes[]"
        }
      ],
      "name": "AddOpHashToPending",
      "outputs": [],
      "stateMutability": "nonpayable",
      "type": "function"
    },
    {
      "inputs": [],
      "name": "DOMAIN",
      "outputs": [
        {
          "internalType": "bytes32",
          "name": "",
          "type": "bytes32"
        }
      ],
      "stateMutability": "view",
      "type": "function"
    },
    {
      "inputs": [],
      "name": "SECONDS_FOR_DAY",
      "outputs": [
        {
          "internalType": "uint256",
          "name": "",
          "type": "uint256"
        }
      ],
      "stateMutability": "view",
      "type": "function"
    },
    {
      "inputs": [],
      "name": "SECONDS_FOR_WEEK",
      "outputs": [
        {
          "internalType": "uint256",
          "name": "",
          "type": "uint256"
        }
      ],
      "stateMutability": "view",
      "type": "function"
    },
    {
      "inputs": [
        {
          "internalType": "address",
          "name": "",
          "type": "address"
        }
      ],
      "name": "addressWeightMap",
      "outputs": [
        {
          "internalType": "uint256",
          "name": "",
          "type": "uint256"
        }
      ],
      "stateMutability": "view",
      "type": "function"
    },
    {
      "inputs": [],
      "name": "callbackGasLimit",
      "outputs": [
        {
          "internalType": "uint32",
          "name": "",
          "type": "uint32"
        }
      ],
      "stateMutability": "view",
      "type": "function"
    },
    {
      "inputs": [
        {
          "internalType": "address[]",
          "name": "contractAddresses",
          "type": "address[]"
        },
        {
          "internalType": "uint256[]",
          "name": "tokenIds",
          "type": "uint256[]"
        }
      ],
      "name": "depositNFTs",
      "outputs": [],
      "stateMutability": "nonpayable",
      "type": "function"
    },
    {
      "inputs": [],
      "name": "distributedNFTs",
      "outputs": [
        {
          "internalType": "uint256",
          "name": "",
          "type": "uint256"
        }
      ],
      "stateMutability": "view",
      "type": "function"
    },
    {
      "inputs": [
        {
          "internalType": "address[]",
          "name": "winners",
          "type": "address[]"
        }
      ],
      "name": "drawByManager",
      "outputs": [],
      "stateMutability": "nonpayable",
      "type": "function"
    },
    {
      "inputs": [],
      "name": "drawRounds",
      "outputs": [
        {
          "internalType": "uint256",
          "name": "",
          "type": "uint256"
        }
      ],
      "stateMutability": "view",
      "type": "function"
    },
    {
      "inputs": [],
      "name": "endTime",
      "outputs": [
        {
          "internalType": "uint256",
          "name": "",
          "type": "uint256"
        }
      ],
      "stateMutability": "view",
      "type": "function"
    },
    {
      "inputs": [],
      "name": "getCurrentTime",
      "outputs": [
        {
          "internalType": "uint256",
          "name": "",
          "type": "uint256"
        }
      ],
      "stateMutability": "view",
      "type": "function"
    },
    {
      "inputs": [],
      "name": "getTotalNFT",
      "outputs": [
        {
          "internalType": "uint256",
          "name": "",
          "type": "uint256"
        }
      ],
      "stateMutability": "view",
      "type": "function"
    },
    {
      "inputs": [
        {
          "internalType": "address[]",
          "name": "owners",
          "type": "address[]"
        },
        {
          "internalType": "uint8",
          "name": "signRequred",
          "type": "uint8"
        },
        {
          "internalType": "address",
          "name": "vrfCoordinatorAddress_",
          "type": "address"
        }
      ],
      "name": "initialize",
      "outputs": [],
      "stateMutability": "nonpayable",
      "type": "function"
    },
    {
      "inputs": [],
      "name": "investmentAddress",
      "outputs": [
        {
          "internalType": "address",
          "name": "",
          "type": "address"
        }
      ],
      "stateMutability": "view",
      "type": "function"
    },
    {
      "inputs": [],
      "name": "keyHash",
      "outputs": [
        {
          "internalType": "bytes32",
          "name": "",
          "type": "bytes32"
        }
      ],
      "stateMutability": "view",
      "type": "function"
    },
    {
      "inputs": [],
      "name": "lastRequestId",
      "outputs": [
        {
          "internalType": "uint256",
          "name": "",
          "type": "uint256"
        }
      ],
      "stateMutability": "view",
      "type": "function"
    },
    {
      "inputs": [],
      "name": "maxNumOwners",
      "outputs": [
        {
          "internalType": "uint8",
          "name": "",
          "type": "uint8"
        }
      ],
      "stateMutability": "view",
      "type": "function"
    },
    {
      "inputs": [
        {
          "internalType": "uint256",
          "name": "",
          "type": "uint256"
        }
      ],
      "name": "nfts",
      "outputs": [
        {
          "internalType": "address",
          "name": "contractAddress",
          "type": "address"
        },
        {
          "internalType": "uint256",
          "name": "tokenId",
          "type": "uint256"
        }
      ],
      "stateMutability": "view",
      "type": "function"
    },
    {
      "inputs": [],
      "name": "nonce",
      "outputs": [
        {
          "internalType": "uint256",
          "name": "",
          "type": "uint256"
        }
      ],
      "stateMutability": "view",
      "type": "function"
    },
    {
      "inputs": [],
      "name": "numWords",
      "outputs": [
        {
          "internalType": "uint32",
          "name": "",
          "type": "uint32"
        }
      ],
      "stateMutability": "view",
      "type": "function"
    },
    {
      "inputs": [
        {
          "internalType": "bytes32",
          "name": "",
          "type": "bytes32"
        }
      ],
      "name": "operationsStatus",
      "outputs": [
        {
          "internalType": "enum SafeOwnableUpgradeable.OpStatus",
          "name": "",
          "type": "uint8"
        }
      ],
      "stateMutability": "view",
      "type": "function"
    },
    {
      "inputs": [],
      "name": "owners",
      "outputs": [
        {
          "internalType": "address[6]",
          "name": "",
          "type": "address[6]"
        }
      ],
      "stateMutability": "view",
      "type": "function"
    },
    {
      "inputs": [],
      "name": "proxiableUUID",
      "outputs": [
        {
          "internalType": "bytes32",
          "name": "",
          "type": "bytes32"
        }
      ],
      "stateMutability": "view",
      "type": "function"
    },
    {
      "inputs": [
        {
          "internalType": "uint256",
          "name": "requestId",
          "type": "uint256"
        },
        {
          "internalType": "uint256[]",
          "name": "randomWords",
          "type": "uint256[]"
        }
      ],
      "name": "rawFulfillRandomWords",
      "outputs": [],
      "stateMutability": "nonpayable",
      "type": "function"
    },
    {
      "inputs": [],
      "name": "requestRandomWordsForDraw",
      "outputs": [
        {
          "internalType": "uint256",
          "name": "requestId",
          "type": "uint256"
        }
      ],
      "stateMutability": "nonpayable",
      "type": "function"
    },
    {
      "inputs": [
        {
          "internalType": "uint256",
          "name": "",
          "type": "uint256"
        }
      ],
      "name": "requests",
      "outputs": [
        {
          "internalType": "bool",
          "name": "fulfilled",
          "type": "bool"
        },
        {
          "internalType": "bool",
          "name": "exists",
          "type": "bool"
        }
      ],
      "stateMutability": "view",
      "type": "function"
    },
    {
      "inputs": [
        {
          "internalType": "uint32",
          "name": "callbackGasLimit_",
          "type": "uint32"
        },
        {
          "internalType": "uint64",
          "name": "subscribeId_",
          "type": "uint64"
        },
        {
          "internalType": "bytes32",
          "name": "keyHash_",
          "type": "bytes32"
        },
        {
          "internalType": "uint16",
          "name": "requestConfirmations_",
          "type": "uint16"
        }
      ],
      "name": "setChainlink",
      "outputs": [],
      "stateMutability": "nonpayable",
      "type": "function"
    },
    {
      "inputs": [
        {
          "internalType": "uint256",
          "name": "timestamp_",
          "type": "uint256"
        }
      ],
      "name": "setCurrentTime",
      "outputs": [],
      "stateMutability": "nonpayable",
      "type": "function"
    },
    {
      "inputs": [
        {
          "internalType": "uint256",
          "name": "endTime_",
          "type": "uint256"
        }
      ],
      "name": "setEndTime",
      "outputs": [],
      "stateMutability": "nonpayable",
      "type": "function"
    },
    {
      "inputs": [
        {
          "internalType": "address",
          "name": "investmentAddress_",
          "type": "address"
        }
      ],
      "name": "setInvestment",
      "outputs": [],
      "stateMutability": "nonpayable",
      "type": "function"
    },
    {
      "inputs": [
        {
          "internalType": "uint256",
          "name": "startTime_",
          "type": "uint256"
        }
      ],
      "name": "setStartTime",
      "outputs": [],
      "stateMutability": "nonpayable",
      "type": "function"
    },
    {
      "inputs": [],
      "name": "signRequired",
      "outputs": [
        {
          "internalType": "uint8",
          "name": "",
          "type": "uint8"
        }
      ],
      "stateMutability": "view",
      "type": "function"
    },
    {
      "inputs": [],
      "name": "startTime",
      "outputs": [
        {
          "internalType": "uint256",
          "name": "",
          "type": "uint256"
        }
      ],
      "stateMutability": "view",
      "type": "function"
    },
    {
      "inputs": [],
      "name": "subscriptionId",
      "outputs": [
        {
          "internalType": "uint64",
          "name": "",
          "type": "uint64"
        }
      ],
      "stateMutability": "view",
      "type": "function"
    },
    {
      "inputs": [],
      "name": "takeOutNFT",
      "outputs": [],
      "stateMutability": "nonpayable",
      "type": "function"
    },
    {
      "inputs": [
        {
          "internalType": "address",
          "name": "newOwner",
          "type": "address"
        }
      ],
      "name": "transferOwnership",
      "outputs": [],
      "stateMutability": "nonpayable",
      "type": "function"
    },
    {
      "inputs": [
        {
          "internalType": "address",
          "name": "newImplementation",
          "type": "address"
        }
      ],
      "name": "upgradeTo",
      "outputs": [],
      "stateMutability": "nonpayable",
      "type": "function"
    },
    {
      "inputs": [
        {
          "internalType": "address",
          "name": "newImplementation",
          "type": "address"
        },
        {
          "internalType": "bytes",
          "name": "data",
          "type": "bytes"
        }
      ],
      "name": "upgradeToAndCall",
      "outputs": [],
      "stateMutability": "payable",
      "type": "function"
    },
    {
      "inputs": [
        {
          "internalType": "uint256",
          "name": "amount",
          "type": "uint256"
        },
        {
          "internalType": "address",
          "name": "recipient",
          "type": "address"
        }
      ],
      "name": "withdrawNFTs",
      "outputs": [],
      "stateMutability": "nonpayable",
      "type": "function"
    },
    {
      "inputs": [
        {
          "internalType": "address",
          "name": "",
          "type": "address"
        }
      ],
      "name": "wonNFT",
      "outputs": [
        {
          "internalType": "address",
          "name": "contractAddress",
          "type": "address"
        },
        {
          "internalType": "uint256",
          "name": "tokenId",
          "type": "uint256"
        }
      ],
      "stateMutability": "view",
      "type": "function"
    }
  ],
  "transactionHash": "0xf667792f9776d7305d878378ddaf883cd8d3d275bd3e0e24463d841f32915b35",
  "args": [],
  "numDeployments": 1,
  "solcInputHash": "333b7d05cb6cb7d465059c47d2204152",
  "bytecode": "0x60a06040523060805234801561001457600080fd5b506080516144ff61004c60003960008181610ccc01528181610d6201528181611269015281816112ff01526113f601526144ff6000f3fe6080604052600436106102c65760003560e01c80637a29349d11610179578063d26e7865116100d6578063f256e84f1161008a578063f781cab011610064578063f781cab01461080c578063f8c1203114610823578063fc2a88c31461083a57600080fd5b8063f256e84f14610797578063f2fde38b146107d7578063f4d281fa146107f757600080fd5b8063d8ddc1a0116100bb578063d8ddc1a01461074b578063e2c8cdc614610761578063eb53a0571461077757600080fd5b8063d26e78651461070b578063d8c126af1461072b57600080fd5b8063affe39c11161012d578063bcf16f2d11610112578063bcf16f2d14610699578063ccb98ffc146106ae578063ce0d0ca0146106ce57600080fd5b8063affe39c114610661578063affed0e01461068357600080fd5b806381d12c581161015e57806381d12c58146105d15780638b5a214314610621578063af989b4c1461064157600080fd5b80637a29349d1461058d5780637ccfd7fc146105ac57600080fd5b80633286cd871161022757806352a9674b116101db57806353030d91116101c057806353030d911461052957806361728f391461056157806378e979251461057757600080fd5b806352a9674b146104fe57806352d1902d1461051457600080fd5b8063376262261161020c57806337626226146104b65780633e0a322d146104cb5780634f1ef286146104eb57600080fd5b80633286cd87146104765780633659cfe61461049657600080fd5b806322f8e5661161027e578063265aa62111610263578063265aa6211461040c57806329cb924d1461044b5780633197cbb61461046057600080fd5b806322f8e566146103ba57806324f74697146103da57600080fd5b80630c81df01116102af5780630c81df011461033d5780631e2ab10f1461035f5780631fe543e31461039a57600080fd5b806309c1ba2e146102cb5780630c3515ba14610316575b600080fd5b3480156102d757600080fd5b5060b0546102f89068010000000000000000900467ffffffffffffffff1681565b60405167ffffffffffffffff90911681526020015b60405180910390f35b34801561032257600080fd5b5061032b600581565b60405160ff909116815260200161030d565b34801561034957600080fd5b5061035d610358366004613c6b565b610850565b005b34801561036b57600080fd5b5061038c61037a366004613cf0565b60aa6020526000908152604090205481565b60405190815260200161030d565b3480156103a657600080fd5b5061035d6103b5366004613e0c565b610967565b3480156103c657600080fd5b5061035d6103d5366004613e53565b6109ce565b3480156103e657600080fd5b5060b0546103f79063ffffffff1681565b60405163ffffffff909116815260200161030d565b34801561041857600080fd5b5061042c610427366004613e53565b610a52565b604080516001600160a01b03909316835260208301919091520161030d565b34801561045757600080fd5b5061038c610a8a565b34801561046c57600080fd5b5061038c60ac5481565b34801561048257600080fd5b5061035d610491366004613e6c565b610a9b565b3480156104a257600080fd5b5061035d6104b1366004613cf0565b610cc1565b3480156104c257600080fd5b5061038c610e5c565b3480156104d757600080fd5b5061035d6104e6366004613e53565b61116c565b61035d6104f9366004613f0c565b61125e565b34801561050a57600080fd5b5061038c60a35481565b34801561052057600080fd5b5061038c6113e9565b34801561053557600080fd5b5060a254610549906001600160a01b031681565b6040516001600160a01b03909116815260200161030d565b34801561056d57600080fd5b5061038c60af5481565b34801561058357600080fd5b5061038c60ab5481565b34801561059957600080fd5b50609e5461032b90610100900460ff1681565b3480156105b857600080fd5b5060b0546103f790640100000000900463ffffffff1681565b3480156105dd57600080fd5b5061060a6105ec366004613e53565b60b26020526000908152604090205460ff8082169161010090041682565b60408051921515835290151560208301520161030d565b34801561062d57600080fd5b5061035d61063c366004613f52565b6114ae565b34801561064d57600080fd5b5061035d61065c366004614073565b6117dd565b34801561066d57600080fd5b50610676611c25565b60405161030d91906140b0565b34801561068f57600080fd5b5061038c60a05481565b3480156106a557600080fd5b5060a65461038c565b3480156106ba57600080fd5b5061035d6106c9366004613e53565b611c6a565b3480156106da57600080fd5b506106fe6106e9366004613e53565b609f6020526000908152604090205460ff1681565b60405161030d9190614100565b34801561071757600080fd5b5061035d610726366004613cf0565b611cfb565b34801561073757600080fd5b5061035d610746366004614128565b611d94565b34801561075757600080fd5b5061038c60a85481565b34801561076d57600080fd5b5061038c60a95481565b34801561078357600080fd5b5061035d610792366004614191565b61210d565b3480156107a357600080fd5b5061042c6107b2366004613cf0565b60a460205260009081526040902080546001909101546001600160a01b039091169082565b3480156107e357600080fd5b5061035d6107f2366004613cf0565b6122db565b34801561080357600080fd5b5061035d612466565b34801561081857600080fd5b5061038c6201518081565b34801561082f57600080fd5b5061038c62093a8081565b34801561084657600080fd5b5061038c60b15481565b336000908152609d602052604090205460ff166108cc5760405162461bcd60e51b815260206004820152602f60248201527f536166654f776e61626c655570677261646561626c653a2063616c6c6572206960448201526e39903737ba103a34329037bbb732b960891b60648201526084015b60405180910390fd5b60b0805460af9390935561ffff909116700100000000000000000000000000000000027fffffffffffffffffffffffffffff0000ffffffffffffffffffffffffffffffff67ffffffffffffffff90941668010000000000000000027fffffffffffffffffffffffffffffffff0000000000000000ffffffff0000000090931663ffffffff909516949094179190911791909116919091179055565b60a1546001600160a01b031633146109c05760a1546040517f1cf993f40000000000000000000000000000000000000000000000000000000081523360048201526001600160a01b0390911660248201526044016108c3565b6109ca82826126d4565b5050565b336000908152609d602052604090205460ff16610a455760405162461bcd60e51b815260206004820152602f60248201527f536166654f776e61626c655570677261646561626c653a2063616c6c6572206960448201526e39903737ba103a34329037bbb732b960891b60648201526084016108c3565b610a4f60ad829055565b50565b60a68181548110610a6257600080fd5b6000918252602090912060029091020180546001909101546001600160a01b03909116915082565b6000610a9660ad6127af565b905090565b336000908152609d602052604090205460ff16610b125760405162461bcd60e51b815260206004820152602f60248201527f536166654f776e61626c655570677261646561626c653a2063616c6c6572206960448201526e39903737ba103a34329037bbb732b960891b60648201526084016108c3565b60a85460a65411610b655760405162461bcd60e51b815260206004820152601860248201527f44726177696e6747616d653a6e6f206e667473206c656674000000000000000060448201526064016108c3565b60005b60a85460a654118015610b7a57508281105b15610cbc5760a6805460009190610b939060019061420b565b81548110610ba357610ba3614222565b60009182526020909120600290910201805460018201546040517f23b872dd0000000000000000000000000000000000000000000000000000000081523060048201526001600160a01b038781166024830152604482019290925292935016906323b872dd90606401600060405180830381600087803b158015610c2657600080fd5b505af1158015610c3a573d6000803e3d6000fd5b5050505060a6805480610c4f57610c4f614238565b6000828152602080822060026000199094019384020180546001600160a01b031916815560019081018390559290935583546001600160a01b0316815260a783526040808220928501548252919092529020805460ff1916905581610cb38161424e565b92505050610b68565b505050565b306001600160a01b037f0000000000000000000000000000000000000000000000000000000000000000161415610d605760405162461bcd60e51b815260206004820152602c60248201527f46756e6374696f6e206d7573742062652063616c6c6564207468726f7567682060448201527f64656c656761746563616c6c000000000000000000000000000000000000000060648201526084016108c3565b7f00000000000000000000000000000000000000000000000000000000000000006001600160a01b0316610dbb7f360894a13ba1a3210667c828492db98dca3e2076cc3735a920a3ca505d382bbc546001600160a01b031690565b6001600160a01b031614610e375760405162461bcd60e51b815260206004820152602c60248201527f46756e6374696f6e206d7573742062652063616c6c6564207468726f7567682060448201527f6163746976652070726f7879000000000000000000000000000000000000000060648201526084016108c3565b610e40816127c5565b60408051600080825260208201909252610a4f9183919061283c565b600080610e6960ad6127af565b9050600060ab54118015610e7e575060ab5481115b610eca5760405162461bcd60e51b815260206004820152601f60248201527f44726177696e6747616d653a206163746976697479206e6f742073746172740060448201526064016108c3565b60ac548110610f1b5760405162461bcd60e51b815260206004820152601b60248201527f44726177696e6747616d653a20616374697669747920656e646564000000000060448201526064016108c3565b336000908152609d602052604090205460ff16610f925760405162461bcd60e51b815260206004820152602f60248201527f536166654f776e61626c655570677261646561626c653a2063616c6c6572206960448201526e39903737ba103a34329037bbb732b960891b60648201526084016108c3565b60ae5460af5460b0546040517f5d3b1d30000000000000000000000000000000000000000000000000000000008152600481019290925268010000000000000000810467ffffffffffffffff166024830152700100000000000000000000000000000000810461ffff16604483015263ffffffff80821660648401526401000000009091041660848201526001600160a01b0390911690635d3b1d309060a401602060405180830381600087803b15801561104c57600080fd5b505af1158015611060573d6000803e3d6000fd5b505050506040513d601f19601f820116820180604052508101906110849190614269565b604080516060810182526000808252600160208084018281528551848152808301875285870190815287855260b28352959093208451815494517fffffffffffffffffffffffffffffffffffffffffffffffffffffffffffff000090951690151561ff001916176101009415159490940293909317835593518051959750929491936111169391850192910190613bf1565b50505060b182905560b0546040805184815264010000000090920463ffffffff1660208301527fcc58b13ad3eab50626c6a6300b1d139cd6ebb1688a7cced9461c2f7e762665ee910160405180910390a15b5090565b336000908152609d602052604090205460ff166111e35760405162461bcd60e51b815260206004820152602f60248201527f536166654f776e61626c655570677261646561626c653a2063616c6c6572206960448201526e39903737ba103a34329037bbb732b960891b60648201526084016108c3565b60ab54156112595760405162461bcd60e51b815260206004820152602360248201527f44726177696e6747616d653a2073746172742074696d6520616c72656164792060448201527f736574000000000000000000000000000000000000000000000000000000000060648201526084016108c3565b60ab55565b306001600160a01b037f00000000000000000000000000000000000000000000000000000000000000001614156112fd5760405162461bcd60e51b815260206004820152602c60248201527f46756e6374696f6e206d7573742062652063616c6c6564207468726f7567682060448201527f64656c656761746563616c6c000000000000000000000000000000000000000060648201526084016108c3565b7f00000000000000000000000000000000000000000000000000000000000000006001600160a01b03166113587f360894a13ba1a3210667c828492db98dca3e2076cc3735a920a3ca505d382bbc546001600160a01b031690565b6001600160a01b0316146113d45760405162461bcd60e51b815260206004820152602c60248201527f46756e6374696f6e206d7573742062652063616c6c6564207468726f7567682060448201527f6163746976652070726f7879000000000000000000000000000000000000000060648201526084016108c3565b6113dd826127c5565b6109ca8282600161283c565b6000306001600160a01b037f000000000000000000000000000000000000000000000000000000000000000016146114895760405162461bcd60e51b815260206004820152603860248201527f555550535570677261646561626c653a206d757374206e6f742062652063616c60448201527f6c6564207468726f7567682064656c656761746563616c6c000000000000000060648201526084016108c3565b507f360894a13ba1a3210667c828492db98dca3e2076cc3735a920a3ca505d382bbc90565b818160006114ba613c38565b336000908152609d602052604090205460ff161561152557816114dc81614282565b925050600181609d60006114ed3390565b6001600160a01b0316815260208101919091526040016000205460ff166006811061151a5761151a614222565b911515602090920201525b60005b83518160ff161015611665576000611565858360ff168151811061154e5761154e614222565b6020026020010151876129eb90919063ffffffff16565b6001600160a01b0381166000908152609d602052604090205490915060ff16806115f75760405162461bcd60e51b815260206004820152602b60248201527f536166654f776e61626c655570677261646561626c653a207369676e6572206960448201527f73206e6f74206f776e657200000000000000000000000000000000000000000060648201526084016108c3565b838160ff166006811061160c5761160c614222565b6020020151151560011415611622575050611653565b6001848260ff166006811061163957611639614222565b911515602090920201528461164d81614282565b95505050505b8061165d81614282565b915050611528565b50609e5460ff610100909104811690831610156116ea5760405162461bcd60e51b815260206004820152602a60248201527f536166654f776e61626c655570677261646561626c653a206e6f20656e6f756760448201527f6820636f6e6669726d730000000000000000000000000000000000000000000060648201526084016108c3565b60a080549060006116fa8361424e565b90915550506000868152609f602052604081205460ff166003811115611722576117226140ea565b146117955760405162461bcd60e51b815260206004820152603760248201527f536166654f776e61626c655570677261646561626c653a206f7065726174696f60448201527f6e20776173206e6f74207375626d69747465642079657400000000000000000060648201526084016108c3565b6000868152609f6020526040808220805460ff191660011790555187917f33775024b20f211f019e50305c897b2105edc4642384143897ac170fb37f54a191a2505050505050565b60006117e960ad6127af565b9050600060ab541180156117fe575060ab5481115b61184a5760405162461bcd60e51b815260206004820152601f60248201527f44726177696e6747616d653a206163746976697479206e6f742073746172740060448201526064016108c3565b60ac54811061189b5760405162461bcd60e51b815260206004820152601b60248201527f44726177696e6747616d653a20616374697669747920656e646564000000000060448201526064016108c3565b336000908152609d602052604090205460ff166119125760405162461bcd60e51b815260206004820152602f60248201527f536166654f776e61626c655570677261646561626c653a2063616c6c6572206960448201526e39903737ba103a34329037bbb732b960891b60648201526084016108c3565b601e8251111561198a5760405162461bcd60e51b815260206004820152602760248201527f44726177696e6747616d653a206c696d69742033302077696e6e65727320706560448201527f7220726f756e640000000000000000000000000000000000000000000000000060648201526084016108c3565b60005b8251811080156119a0575060a85460a654115b15611bdf5760a560008483815181106119bb576119bb614222565b6020908102919091018101516001600160a01b031682528101919091526040016000205460ff16156119ec57611bcd565b604051806040016040528060a660a85481548110611a0c57611a0c614222565b6000918252602091829020600290910201546001600160a01b0316825260a85460a6805493909201928110611a4357611a43614222565b90600052602060002090600202016001015481525060a46000858481518110611a6e57611a6e614222565b60200260200101516001600160a01b03166001600160a01b0316815260200190815260200160002060008201518160000160006101000a8154816001600160a01b0302191690836001600160a01b0316021790555060208201518160010155905050600060a7600060a46000878681518110611aec57611aec614222565b60200260200101516001600160a01b03166001600160a01b0316815260200190815260200160002060000160009054906101000a90046001600160a01b03166001600160a01b03166001600160a01b03168152602001908152602001600020600060a46000878681518110611b6357611b63614222565b60200260200101516001600160a01b03166001600160a01b0316815260200190815260200160002060010154815260200190815260200160002060006101000a81548160ff02191690831515021790555060a86000815480929190611bc79061424e565b91905055505b80611bd78161424e565b91505061198d565b50611bea60ad6127af565b825160405190815233907f4743253ddd0306c0f7de2d2d887b98c3b2fe9c9369ed0f6692d091d04a19d6aa9060200160405180910390a35050565b611c2d613c38565b6040805160c08101918290529060979060069082845b81546001600160a01b03168152600190910190602001808311611c43575050505050905090565b336000908152609d602052604090205460ff16611ce15760405162461bcd60e51b815260206004820152602f60248201527f536166654f776e61626c655570677261646561626c653a2063616c6c6572206960448201526e39903737ba103a34329037bbb732b960891b60648201526084016108c3565b611ceb60ad6127af565b8111611cf657600080fd5b60ac55565b336000908152609d602052604090205460ff16611d725760405162461bcd60e51b815260206004820152602f60248201527f536166654f776e61626c655570677261646561626c653a2063616c6c6572206960448201526e39903737ba103a34329037bbb732b960891b60648201526084016108c3565b60a280546001600160a01b0319166001600160a01b0392909216919091179055565b336000908152609d602052604090205460ff16611e0b5760405162461bcd60e51b815260206004820152602f60248201527f536166654f776e61626c655570677261646561626c653a2063616c6c6572206960448201526e39903737ba103a34329037bbb732b960891b60648201526084016108c3565b8051825114611e1957600080fd5b60005b8251811015610cbc5760006040518060400160405280858481518110611e4457611e44614222565b60200260200101516001600160a01b03168152602001848481518110611e6c57611e6c614222565b6020026020010151815250905060a76000858481518110611e8f57611e8f614222565b60200260200101516001600160a01b03166001600160a01b031681526020019081526020016000206000848481518110611ecb57611ecb614222565b60209081029190910181015182528101919091526040016000205460ff1615611f365760405162461bcd60e51b815260206004820152601660248201527f44726177696e6747616d653a204e46542061646465640000000000000000000060448201526064016108c3565b838281518110611f4857611f48614222565b60200260200101516001600160a01b03166323b872dd3330868681518110611f7257611f72614222565b60209081029190910101516040517fffffffff0000000000000000000000000000000000000000000000000000000060e086901b1681526001600160a01b0393841660048201529290911660248301526044820152606401600060405180830381600087803b158015611fe457600080fd5b505af1158015611ff8573d6000803e3d6000fd5b50505050600160a7600086858151811061201457612014614222565b60200260200101516001600160a01b03166001600160a01b03168152602001908152602001600020600085858151811061205057612050614222565b6020908102919091018101518252818101929092526040016000908120805460ff19169315159390931790925560a68054600181018255925282517f2da56674729343acc9933752c8c469a244252915242eb6d4c02d11ddd69164a1600290930292830180546001600160a01b0319166001600160a01b0390921691909117905591909101517f2da56674729343acc9933752c8c469a244252915242eb6d4c02d11ddd69164a290910155806121058161424e565b915050611e1c565b600054610100900460ff161580801561212d5750600054600160ff909116105b806121475750303b158015612147575060005460ff166001145b6121b95760405162461bcd60e51b815260206004820152602e60248201527f496e697469616c697a61626c653a20636f6e747261637420697320616c72656160448201527f647920696e697469616c697a656400000000000000000000000000000000000060648201526084016108c3565b6000805460ff1916600117905580156121dc576000805461ff0019166101001790555b6121e582612a0f565b60ae80546001600160a01b0319166001600160a01b03841617905561220a8484612b3b565b60b080547fffffffffffffffffffffffffffffffffffffffffffffffff00000000ffffffff16641e00000000179055604080517f20a714382505729b6977051cb17e2cd66b3149e150240124aa4917fe7f2189906020820152469181019190915230606082015260800160408051601f19818403018152919052805160209091012060a35580156122d5576000805461ff0019169055604051600181527f7f26b83ff96e1f2b6a682f133852f6798a09c465da95921460cefb38474024989060200160405180910390a15b50505050565b336000908152609d602052604090205460ff166123525760405162461bcd60e51b815260206004820152602f60248201527f536166654f776e61626c655570677261646561626c653a2063616c6c6572206960448201526e39903737ba103a34329037bbb732b960891b60648201526084016108c3565b6001600160a01b0381166123ce5760405162461bcd60e51b815260206004820152603560248201527f536166654f776e61626c655570677261646561626c653a206e6577206f776e6560448201527f7220697320746865207a65726f2061646472657373000000000000000000000060648201526084016108c3565b6001600160a01b0381166000908152609d602052604090205460ff161561245d5760405162461bcd60e51b815260206004820152603060248201527f536166654f776e61626c655570677261646561626c653a206e6577206f776e6560448201527f7220616c7265616479206578697374730000000000000000000000000000000060648201526084016108c3565b610a4f81612ec0565b33600090815260a46020908152604091829020825180840190935280546001600160a01b0316808452600190910154918301919091526124e85760405162461bcd60e51b815260206004820152601c60248201527f44726177696e6747616d653a20796f75206e6f7420776f6e206e66740000000060448201526064016108c3565b805160208201516040517f6352211e000000000000000000000000000000000000000000000000000000008152600481019190915233916001600160a01b031690636352211e9060240160206040518083038186803b15801561254a57600080fd5b505afa15801561255e573d6000803e3d6000fd5b505050506040513d601f19601f8201168201806040525081019061258291906142a2565b6001600160a01b031614156125d95760405162461bcd60e51b815260206004820152601f60248201527f44726177696e6747616d653a20796f7520686176652074616b656e206e66740060448201526064016108c3565b805160208201516040517f23b872dd00000000000000000000000000000000000000000000000000000000815230600482015233602482015260448101919091526001600160a01b03909116906323b872dd90606401600060405180830381600087803b15801561264957600080fd5b505af115801561265d573d6000803e3d6000fd5b505033600081815260a46020908152604080832080546001600160a01b03191681556001019290925585518682015183516001600160a01b039092168252918101919091529193507fb1bb5bbd22287ebaddbdbdd5697f1807874a32eaa742d565c927b89383b5d08992500160405180910390a250565b600082815260b26020526040902054610100900460ff166127375760405162461bcd60e51b815260206004820152601e60248201527f44726177696e6747616d653a2072657175657374206e6f7420666f756e64000060448201526064016108c3565b600082815260b260209081526040909120805460ff1916600190811782558351612768939290910191840190613bf1565b5061277281612f5f565b7ffe2e2d779dba245964d4e3ef9b994be63856fd568bf7d3ca9e224755cb1bd54d82826040516127a39291906142bf565b60405180910390a15050565b8054600090156127be57505490565b5042919050565b336000908152609d602052604090205460ff16610a4f5760405162461bcd60e51b815260206004820152602f60248201527f536166654f776e61626c655570677261646561626c653a2063616c6c6572206960448201526e39903737ba103a34329037bbb732b960891b60648201526084016108c3565b7f4910fdfa16fed3260ed0e7147f7cc6da11a60208b5b9406d12a635614ffd91435460ff161561286f57610cbc836132a4565b826001600160a01b03166352d1902d6040518163ffffffff1660e01b815260040160206040518083038186803b1580156128a857600080fd5b505afa9250505080156128d8575060408051601f3d908101601f191682019092526128d591810190614269565b60015b61294a5760405162461bcd60e51b815260206004820152602e60248201527f45524331393637557067726164653a206e657720696d706c656d656e7461746960448201527f6f6e206973206e6f74205555505300000000000000000000000000000000000060648201526084016108c3565b7f360894a13ba1a3210667c828492db98dca3e2076cc3735a920a3ca505d382bbc81146129df5760405162461bcd60e51b815260206004820152602960248201527f45524331393637557067726164653a20756e737570706f727465642070726f7860448201527f6961626c6555554944000000000000000000000000000000000000000000000060648201526084016108c3565b50610cbc838383613362565b60008060006129fa8585613387565b91509150612a07816133cd565b509392505050565b600054610100900460ff1615808015612a2f5750600054600160ff909116105b80612a495750303b158015612a49575060005460ff166001145b612abb5760405162461bcd60e51b815260206004820152602e60248201527f496e697469616c697a61626c653a20636f6e747261637420697320616c72656160448201527f647920696e697469616c697a656400000000000000000000000000000000000060648201526084016108c3565b6000805460ff191660011790558015612ade576000805461ff0019166101001790555b60a180546001600160a01b0319166001600160a01b03841617905580156109ca576000805461ff0019169055604051600181527f7f26b83ff96e1f2b6a682f133852f6798a09c465da95921460cefb3847402498906020016127a3565b600054610100900460ff16612bb85760405162461bcd60e51b815260206004820152602b60248201527f496e697469616c697a61626c653a20636f6e7472616374206973206e6f74206960448201527f6e697469616c697a696e6700000000000000000000000000000000000000000060648201526084016108c3565b815160051015612c305760405162461bcd60e51b815260206004820152603360248201527f536166654f776e61626c655570677261646561626c653a657863656564206d6160448201527f78696d756d206e756d626572206f776e6572730000000000000000000000000060648201526084016108c3565b60ff8116612ca65760405162461bcd60e51b815260206004820152602c60248201527f536166654f776e61626c655570677261646561626c653a207369676e5265717560448201527f69726564206973207a65726f000000000000000000000000000000000000000060648201526084016108c3565b609e805461ff00191661010060ff84160217905560005b8251811015612e3c576000838281518110612cda57612cda614222565b6020908102919091018101516001600160a01b0381166000908152609d90925260409091205490915060ff1615612d795760405162461bcd60e51b815260206004820152602c60248201527f536166654f776e61626c655570677261646561626c653a206f776e657220616c60448201527f726561647920657869737473000000000000000000000000000000000000000060648201526084016108c3565b609e80548291609791600090612d919060ff16614282565b91906101000a81548160ff021916908360ff160217905560ff1660068110612dbb57612dbb614222565b0180546001600160a01b039283166001600160a01b0319909116179055609e549082166000818152609d6020526040808220805460ff191660ff9095169490941790935591519091907f8be0079c531659141344cd1fd0a4f28419497f9722a3daafe3b4186f6b6457e0908290a35080612e348161424e565b915050612cbd565b50609e5460ff8082166101009092041611156109ca5760405162461bcd60e51b815260206004820152603560248201527f536166654f776e61626c655570677261646561626c653a206f776e657273206c60448201527f657373207468616e207369676e5265717569726564000000000000000000000060648201526084016108c3565b336000818152609d602052604090205460ff168260978260068110612ee757612ee7614222565b0180546001600160a01b0319166001600160a01b039283161790558281166000818152609d6020526040808220805460ff19908116909155938716808352818320805490951660ff871617909455517f8be0079c531659141344cd1fd0a4f28419497f9722a3daafe3b4186f6b6457e09190a3505050565b6000612f6b60ad6127af565b9050600060ab54118015612f80575060ab5481115b612fcc5760405162461bcd60e51b815260206004820152601f60248201527f44726177696e6747616d653a206163746976697479206e6f742073746172740060448201526064016108c3565b60ac54811061301d5760405162461bcd60e51b815260206004820152601b60248201527f44726177696e6747616d653a20616374697669747920656e646564000000000060448201526064016108c3565b6000806130286135be565b815191935091508061307c5760405162461bcd60e51b815260206004820152601b60248201527f44726177696e6747616d653a206e6f2070617469636970616e7473000000000060448201526064016108c3565b60005b601e8110801561308f5750600082115b801561309e575060a85460a654115b15613246576000838783815181106130b8576130b8614222565b60200260200101516130ca919061430d565b90506000806130d98784613866565b9150915060a660a854815481106130f2576130f2614222565b600091825260208083206001600160a01b03808716855260a4835260408086206002909502909201805485546001600160a01b031916921691909117845560019081015493019290925560aa905290205461314d908761420b565b9550866001885161315e919061420b565b8151811061316e5761316e614222565b602002602001015187828151811061318857613188614222565b60200260200101906001600160a01b031690816001600160a01b03168152505086600188516131b7919061420b565b815181106131c7576131c7614222565b600060209182029290920181018290526001600160a01b03848116835260a4825260408084208054909216845260a78352808420600190920154845291528120805460ff1916905560a880549161321d8361424e565b9190505550848061322d9061432f565b955050505050808061323e9061424e565b91505061307f565b5060a980549060006132578361424e565b919050555061326660ad6127af565b835160405190815233907f4743253ddd0306c0f7de2d2d887b98c3b2fe9c9369ed0f6692d091d04a19d6aa9060200160405180910390a35050505050565b6001600160a01b0381163b6133215760405162461bcd60e51b815260206004820152602d60248201527f455243313936373a206e657720696d706c656d656e746174696f6e206973206e60448201527f6f74206120636f6e74726163740000000000000000000000000000000000000060648201526084016108c3565b7f360894a13ba1a3210667c828492db98dca3e2076cc3735a920a3ca505d382bbc80546001600160a01b0319166001600160a01b0392909216919091179055565b61336b83613947565b6000825111806133785750805b15610cbc576122d58383613987565b6000808251604114156133be5760208301516040840151606085015160001a6133b287828585613a92565b945094505050506133c6565b506000905060025b9250929050565b60008160048111156133e1576133e16140ea565b14156133ea5750565b60018160048111156133fe576133fe6140ea565b141561344c5760405162461bcd60e51b815260206004820152601860248201527f45434453413a20696e76616c6964207369676e6174757265000000000000000060448201526064016108c3565b6002816004811115613460576134606140ea565b14156134ae5760405162461bcd60e51b815260206004820152601f60248201527f45434453413a20696e76616c6964207369676e6174757265206c656e6774680060448201526064016108c3565b60038160048111156134c2576134c26140ea565b14156135365760405162461bcd60e51b815260206004820152602260248201527f45434453413a20696e76616c6964207369676e6174757265202773272076616c60448201527f756500000000000000000000000000000000000000000000000000000000000060648201526084016108c3565b600481600481111561354a5761354a6140ea565b1415610a4f5760405162461bcd60e51b815260206004820152602260248201527f45434453413a20696e76616c6964207369676e6174757265202776272076616c60448201527f756500000000000000000000000000000000000000000000000000000000000060648201526084016108c3565b606060008060a260009054906101000a90046001600160a01b03166001600160a01b03166362f45f096040518163ffffffff1660e01b815260040160006040518083038186803b15801561361157600080fd5b505afa158015613625573d6000803e3d6000fd5b505050506040513d6000823e601f3d908101601f1916820160405261364d9190810190614346565b905060008060005b83518110156137535760a5600085838151811061367457613674614222565b602090810291909101810151516001600160a01b031682528101919091526040016000205460ff16156136a657613741565b816136b08161424e565b9250506136d98482815181106136c8576136c8614222565b602002602001015160200151613b7f565b60aa60008684815181106136ef576136ef614222565b6020026020010151600001516001600160a01b03166001600160a01b03168152602001908152602001600020819055506137348482815181106136c8576136c8614222565b61373e908461440f565b92505b8061374b8161424e565b915050613655565b5060008167ffffffffffffffff81111561376f5761376f613d0d565b604051908082528060200260200182016040528015613798578160200160208202803683370190505b5090506000805b85518110156138585760a560008783815181106137be576137be614222565b602090810291909101810151516001600160a01b031682528101919091526040016000205460ff16156137f057613846565b85818151811061380257613802614222565b60200260200101516000015183838151811061382057613820614222565b6001600160a01b0390921660209283029190910190910152816138428161424e565b9250505b806138508161424e565b91505061379f565b509096929550919350505050565b6000806000805b8551811080156138a9575060006001600160a01b031686828151811061389557613895614222565b60200260200101516001600160a01b031614155b156139395760aa60008783815181106138c4576138c4614222565b60200260200101516001600160a01b03166001600160a01b0316815260200190815260200160002054826138f8919061440f565b91508482106139275785818151811061391357613913614222565b6020026020010151819350935050506133c6565b806139318161424e565b91505061386d565b506000958695509350505050565b613950816132a4565b6040516001600160a01b038216907fbc7cd75a20ee27fd9adebab32041f755214dbc6bffa90cc0225b39da2e5c2d3b90600090a250565b60606001600160a01b0383163b613a065760405162461bcd60e51b815260206004820152602660248201527f416464726573733a2064656c65676174652063616c6c20746f206e6f6e2d636f60448201527f6e7472616374000000000000000000000000000000000000000000000000000060648201526084016108c3565b600080846001600160a01b031684604051613a219190614453565b600060405180830381855af49150503d8060008114613a5c576040519150601f19603f3d011682016040523d82523d6000602084013e613a61565b606091505b5091509150613a8982826040518060600160405280602781526020016144a360279139613bb1565b95945050505050565b6000807f7fffffffffffffffffffffffffffffff5d576e7357a4501ddfe92f46681b20a0831115613ac95750600090506003613b76565b8460ff16601b14158015613ae157508460ff16601c14155b15613af25750600090506004613b76565b6040805160008082526020820180845289905260ff881692820192909252606081018690526080810185905260019060a0016020604051602081039080840390855afa158015613b46573d6000803e3d6000fd5b5050604051601f1901519150506001600160a01b038116613b6f57600060019250925050613b76565b9150600090505b94509492505050565b60008160ff1660031415613b955750600f919050565b8160ff1660021415613ba957506005919050565b506001919050565b60608315613bc0575081613bea565b825115613bd05782518084602001fd5b8160405162461bcd60e51b81526004016108c3919061446f565b9392505050565b828054828255906000526020600020908101928215613c2c579160200282015b82811115613c2c578251825591602001919060010190613c11565b50611168929150613c56565b6040518060c001604052806006906020820280368337509192915050565b5b808211156111685760008155600101613c57565b60008060008060808587031215613c8157600080fd5b843563ffffffff81168114613c9557600080fd5b9350602085013567ffffffffffffffff81168114613cb257600080fd5b925060408501359150606085013561ffff81168114613cd057600080fd5b939692955090935050565b6001600160a01b0381168114610a4f57600080fd5b600060208284031215613d0257600080fd5b8135613bea81613cdb565b634e487b7160e01b600052604160045260246000fd5b6040805190810167ffffffffffffffff81118282101715613d4657613d46613d0d565b60405290565b604051601f8201601f1916810167ffffffffffffffff81118282101715613d7557613d75613d0d565b604052919050565b600067ffffffffffffffff821115613d9757613d97613d0d565b5060051b60200190565b600082601f830112613db257600080fd5b81356020613dc7613dc283613d7d565b613d4c565b82815260059290921b84018101918181019086841115613de657600080fd5b8286015b84811015613e015780358352918301918301613dea565b509695505050505050565b60008060408385031215613e1f57600080fd5b82359150602083013567ffffffffffffffff811115613e3d57600080fd5b613e4985828601613da1565b9150509250929050565b600060208284031215613e6557600080fd5b5035919050565b60008060408385031215613e7f57600080fd5b823591506020830135613e9181613cdb565b809150509250929050565b600082601f830112613ead57600080fd5b813567ffffffffffffffff811115613ec757613ec7613d0d565b613eda6020601f19601f84011601613d4c565b818152846020838601011115613eef57600080fd5b816020850160208301376000918101602001919091529392505050565b60008060408385031215613f1f57600080fd5b8235613f2a81613cdb565b9150602083013567ffffffffffffffff811115613f4657600080fd5b613e4985828601613e9c565b60008060408385031215613f6557600080fd5b8235915060208084013567ffffffffffffffff80821115613f8557600080fd5b818601915086601f830112613f9957600080fd5b8135613fa7613dc282613d7d565b81815260059190911b83018401908481019089831115613fc657600080fd5b8585015b83811015613ffe57803585811115613fe25760008081fd5b613ff08c89838a0101613e9c565b845250918601918601613fca565b508096505050505050509250929050565b600082601f83011261402057600080fd5b81356020614030613dc283613d7d565b82815260059290921b8401810191818101908684111561404f57600080fd5b8286015b84811015613e0157803561406681613cdb565b8352918301918301614053565b60006020828403121561408557600080fd5b813567ffffffffffffffff81111561409c57600080fd5b6140a88482850161400f565b949350505050565b60c08101818360005b60068110156140e15781516001600160a01b03168352602092830192909101906001016140b9565b50505092915050565b634e487b7160e01b600052602160045260246000fd5b602081016004831061412257634e487b7160e01b600052602160045260246000fd5b91905290565b6000806040838503121561413b57600080fd5b823567ffffffffffffffff8082111561415357600080fd5b61415f8683870161400f565b9350602085013591508082111561417557600080fd5b50613e4985828601613da1565b60ff81168114610a4f57600080fd5b6000806000606084860312156141a657600080fd5b833567ffffffffffffffff8111156141bd57600080fd5b6141c98682870161400f565b93505060208401356141da81614182565b915060408401356141ea81613cdb565b809150509250925092565b634e487b7160e01b600052601160045260246000fd5b60008282101561421d5761421d6141f5565b500390565b634e487b7160e01b600052603260045260246000fd5b634e487b7160e01b600052603160045260246000fd5b6000600019821415614262576142626141f5565b5060010190565b60006020828403121561427b57600080fd5b5051919050565b600060ff821660ff811415614299576142996141f5565b60010192915050565b6000602082840312156142b457600080fd5b8151613bea81613cdb565b6000604082018483526020604081850152818551808452606086019150828701935060005b81811015614300578451835293830193918301916001016142e4565b5090979650505050505050565b60008261432a57634e487b7160e01b600052601260045260246000fd5b500690565b60008161433e5761433e6141f5565b506000190190565b6000602080838503121561435957600080fd5b825167ffffffffffffffff81111561437057600080fd5b8301601f8101851361438157600080fd5b805161438f613dc282613d7d565b81815260069190911b820183019083810190878311156143ae57600080fd5b928401925b8284101561440457604084890312156143cc5760008081fd5b6143d4613d23565b84516143df81613cdb565b8152848601516143ee81614182565b81870152825260409390930192908401906143b3565b979650505050505050565b60008219821115614422576144226141f5565b500190565b60005b8381101561444257818101518382015260200161442a565b838111156122d55750506000910152565b60008251614465818460208701614427565b9190910192915050565b602081526000825180602084015261448e816040850160208701614427565b601f01601f1916919091016040019291505056fe416464726573733a206c6f772d6c6576656c2064656c65676174652063616c6c206661696c6564a2646970667358221220b4243cbb64c38440801e81f3a770e4dad0ce3f7927055fc3c7151a66cff7e6ee64736f6c63430008090033",
  "devdoc": {
    "kind": "dev",
    "methods": {
      "proxiableUUID()": {
        "details": "Implementation of the ERC1822 {proxiableUUID} function. This returns the storage slot used by the implementation. It is used to validate that the this implementation remains valid after an upgrade. IMPORTANT: A proxy pointing at a proxiable contract should not be considered proxiable itself, because this risks bricking a proxy that upgrades to it, by delegating to itself until out of gas. Thus it is critical that this function revert if invoked through a proxy. This is guaranteed by the `notDelegated` modifier."
      },
      "transferOwnership(address)": {
        "details": "Transfers ownership of the contract to a new account (`newOwner`). Can only be called by the current owner."
      },
      "upgradeTo(address)": {
        "details": "Upgrade the implementation of the proxy to `newImplementation`. Calls {_authorizeUpgrade}. Emits an {Upgraded} event."
      },
      "upgradeToAndCall(address,bytes)": {
        "details": "Upgrade the implementation of the proxy to `newImplementation`, and subsequently execute the function call encoded in `data`. Calls {_authorizeUpgrade}. Emits an {Upgraded} event."
      }
    },
    "version": 1
  },
  "userdoc": {
    "kind": "user",
    "methods": {},
    "version": 1
  },
  "storageLayout": {
    "storage": [
      {
        "astId": 491,
        "contract": "contracts/DrawingGame/DrawingGame.sol:DrawingGame",
        "label": "_initialized",
        "offset": 0,
        "slot": "0",
        "type": "t_uint8"
      },
      {
        "astId": 494,
        "contract": "contracts/DrawingGame/DrawingGame.sol:DrawingGame",
        "label": "_initializing",
        "offset": 1,
        "slot": "0",
        "type": "t_bool"
      },
      {
        "astId": 473,
        "contract": "contracts/DrawingGame/DrawingGame.sol:DrawingGame",
        "label": "__gap",
        "offset": 0,
        "slot": "1",
        "type": "t_array(t_uint256)50_storage"
      },
      {
        "astId": 770,
        "contract": "contracts/DrawingGame/DrawingGame.sol:DrawingGame",
        "label": "__gap",
        "offset": 0,
        "slot": "51",
        "type": "t_array(t_uint256)50_storage"
      },
      {
        "astId": 1055,
        "contract": "contracts/DrawingGame/DrawingGame.sol:DrawingGame",
        "label": "__gap",
        "offset": 0,
        "slot": "101",
        "type": "t_array(t_uint256)50_storage"
      },
      {
        "astId": 1752,
        "contract": "contracts/DrawingGame/DrawingGame.sol:DrawingGame",
        "label": "_owners",
        "offset": 0,
        "slot": "151",
        "type": "t_array(t_address)6_storage"
      },
      {
        "astId": 1756,
        "contract": "contracts/DrawingGame/DrawingGame.sol:DrawingGame",
        "label": "_ownersIndex",
        "offset": 0,
        "slot": "157",
        "type": "t_mapping(t_address,t_uint8)"
      },
      {
        "astId": 1758,
        "contract": "contracts/DrawingGame/DrawingGame.sol:DrawingGame",
        "label": "_numOwners",
        "offset": 0,
        "slot": "158",
        "type": "t_uint8"
      },
      {
        "astId": 1763,
        "contract": "contracts/DrawingGame/DrawingGame.sol:DrawingGame",
        "label": "signRequired",
        "offset": 1,
        "slot": "158",
        "type": "t_uint8"
      },
      {
        "astId": 1768,
        "contract": "contracts/DrawingGame/DrawingGame.sol:DrawingGame",
        "label": "operationsStatus",
        "offset": 0,
        "slot": "159",
        "type": "t_mapping(t_bytes32,t_enum(OpStatus)1748)"
      },
      {
        "astId": 1770,
        "contract": "contracts/DrawingGame/DrawingGame.sol:DrawingGame",
        "label": "nonce",
        "offset": 0,
        "slot": "160",
        "type": "t_uint256"
      },
      {
        "astId": 2140,
        "contract": "contracts/DrawingGame/DrawingGame.sol:DrawingGame",
        "label": "vrfCoordinator",
        "offset": 0,
        "slot": "161",
        "type": "t_address"
      },
      {
        "astId": 2255,
        "contract": "contracts/DrawingGame/DrawingGame.sol:DrawingGame",
        "label": "investmentAddress",
        "offset": 0,
        "slot": "162",
        "type": "t_address"
      },
      {
        "astId": 2257,
        "contract": "contracts/DrawingGame/DrawingGame.sol:DrawingGame",
        "label": "DOMAIN",
        "offset": 0,
        "slot": "163",
        "type": "t_bytes32"
      },
      {
        "astId": 2267,
        "contract": "contracts/DrawingGame/DrawingGame.sol:DrawingGame",
        "label": "wonNFT",
        "offset": 0,
        "slot": "164",
        "type": "t_mapping(t_address,t_struct(NFTInfo)2262_storage)"
      },
      {
        "astId": 2271,
        "contract": "contracts/DrawingGame/DrawingGame.sol:DrawingGame",
        "label": "won",
        "offset": 0,
        "slot": "165",
        "type": "t_mapping(t_address,t_bool)"
      },
      {
        "astId": 2275,
        "contract": "contracts/DrawingGame/DrawingGame.sol:DrawingGame",
        "label": "nfts",
        "offset": 0,
        "slot": "166",
        "type": "t_array(t_struct(NFTInfo)2262_storage)dyn_storage"
      },
      {
        "astId": 2281,
        "contract": "contracts/DrawingGame/DrawingGame.sol:DrawingGame",
        "label": "nftExistPrizePool",
        "offset": 0,
        "slot": "167",
        "type": "t_mapping(t_address,t_mapping(t_uint256,t_bool))"
      },
      {
        "astId": 2283,
        "contract": "contracts/DrawingGame/DrawingGame.sol:DrawingGame",
        "label": "distributedNFTs",
        "offset": 0,
        "slot": "168",
        "type": "t_uint256"
      },
      {
        "astId": 2285,
        "contract": "contracts/DrawingGame/DrawingGame.sol:DrawingGame",
        "label": "drawRounds",
        "offset": 0,
        "slot": "169",
        "type": "t_uint256"
      },
      {
        "astId": 2289,
        "contract": "contracts/DrawingGame/DrawingGame.sol:DrawingGame",
        "label": "addressWeightMap",
        "offset": 0,
        "slot": "170",
        "type": "t_mapping(t_address,t_uint256)"
      },
      {
        "astId": 2291,
        "contract": "contracts/DrawingGame/DrawingGame.sol:DrawingGame",
        "label": "startTime",
        "offset": 0,
        "slot": "171",
        "type": "t_uint256"
      },
      {
        "astId": 2293,
        "contract": "contracts/DrawingGame/DrawingGame.sol:DrawingGame",
        "label": "endTime",
        "offset": 0,
        "slot": "172",
        "type": "t_uint256"
      },
      {
        "astId": 2300,
        "contract": "contracts/DrawingGame/DrawingGame.sol:DrawingGame",
        "label": "_timestamp",
        "offset": 0,
        "slot": "173",
        "type": "t_struct(Timestamp)3374_storage"
      },
      {
        "astId": 2319,
        "contract": "contracts/DrawingGame/DrawingGame.sol:DrawingGame",
        "label": "COORDINATOR",
        "offset": 0,
        "slot": "174",
        "type": "t_contract(VRFCoordinatorV2Interface)95"
      },
      {
        "astId": 2321,
        "contract": "contracts/DrawingGame/DrawingGame.sol:DrawingGame",
        "label": "keyHash",
        "offset": 0,
        "slot": "175",
        "type": "t_bytes32"
      },
      {
        "astId": 2323,
        "contract": "contracts/DrawingGame/DrawingGame.sol:DrawingGame",
        "label": "callbackGasLimit",
        "offset": 0,
        "slot": "176",
        "type": "t_uint32"
      },
      {
        "astId": 2325,
        "contract": "contracts/DrawingGame/DrawingGame.sol:DrawingGame",
        "label": "numWords",
        "offset": 4,
        "slot": "176",
        "type": "t_uint32"
      },
      {
        "astId": 2327,
        "contract": "contracts/DrawingGame/DrawingGame.sol:DrawingGame",
        "label": "subscriptionId",
        "offset": 8,
        "slot": "176",
        "type": "t_uint64"
      },
      {
        "astId": 2329,
        "contract": "contracts/DrawingGame/DrawingGame.sol:DrawingGame",
        "label": "requestConfirmations",
        "offset": 16,
        "slot": "176",
        "type": "t_uint16"
      },
      {
        "astId": 2331,
        "contract": "contracts/DrawingGame/DrawingGame.sol:DrawingGame",
        "label": "lastRequestId",
        "offset": 0,
        "slot": "177",
        "type": "t_uint256"
      },
      {
        "astId": 2357,
        "contract": "contracts/DrawingGame/DrawingGame.sol:DrawingGame",
        "label": "requests",
        "offset": 0,
        "slot": "178",
        "type": "t_mapping(t_uint256,t_struct(RequestStatus)2352_storage)"
      }
    ],
    "types": {
      "t_address": {
        "encoding": "inplace",
        "label": "address",
        "numberOfBytes": "20"
      },
      "t_array(t_address)6_storage": {
        "base": "t_address",
        "encoding": "inplace",
        "label": "address[6]",
        "numberOfBytes": "192"
      },
      "t_array(t_struct(NFTInfo)2262_storage)dyn_storage": {
        "base": "t_struct(NFTInfo)2262_storage",
        "encoding": "dynamic_array",
        "label": "struct DrawingGame.NFTInfo[]",
        "numberOfBytes": "32"
      },
      "t_array(t_uint256)50_storage": {
        "base": "t_uint256",
        "encoding": "inplace",
        "label": "uint256[50]",
        "numberOfBytes": "1600"
      },
      "t_array(t_uint256)dyn_storage": {
        "base": "t_uint256",
        "encoding": "dynamic_array",
        "label": "uint256[]",
        "numberOfBytes": "32"
      },
      "t_bool": {
        "encoding": "inplace",
        "label": "bool",
        "numberOfBytes": "1"
      },
      "t_bytes32": {
        "encoding": "inplace",
        "label": "bytes32",
        "numberOfBytes": "32"
      },
      "t_contract(VRFCoordinatorV2Interface)95": {
        "encoding": "inplace",
        "label": "contract VRFCoordinatorV2Interface",
        "numberOfBytes": "20"
      },
      "t_enum(OpStatus)1748": {
        "encoding": "inplace",
        "label": "enum SafeOwnableUpgradeable.OpStatus",
        "numberOfBytes": "1"
      },
      "t_mapping(t_address,t_bool)": {
        "encoding": "mapping",
        "key": "t_address",
        "label": "mapping(address => bool)",
        "numberOfBytes": "32",
        "value": "t_bool"
      },
      "t_mapping(t_address,t_mapping(t_uint256,t_bool))": {
        "encoding": "mapping",
        "key": "t_address",
        "label": "mapping(address => mapping(uint256 => bool))",
        "numberOfBytes": "32",
        "value": "t_mapping(t_uint256,t_bool)"
      },
      "t_mapping(t_address,t_struct(NFTInfo)2262_storage)": {
        "encoding": "mapping",
        "key": "t_address",
        "label": "mapping(address => struct DrawingGame.NFTInfo)",
        "numberOfBytes": "32",
        "value": "t_struct(NFTInfo)2262_storage"
      },
      "t_mapping(t_address,t_uint256)": {
        "encoding": "mapping",
        "key": "t_address",
        "label": "mapping(address => uint256)",
        "numberOfBytes": "32",
        "value": "t_uint256"
      },
      "t_mapping(t_address,t_uint8)": {
        "encoding": "mapping",
        "key": "t_address",
        "label": "mapping(address => uint8)",
        "numberOfBytes": "32",
        "value": "t_uint8"
      },
      "t_mapping(t_bytes32,t_enum(OpStatus)1748)": {
        "encoding": "mapping",
        "key": "t_bytes32",
        "label": "mapping(bytes32 => enum SafeOwnableUpgradeable.OpStatus)",
        "numberOfBytes": "32",
        "value": "t_enum(OpStatus)1748"
      },
      "t_mapping(t_uint256,t_bool)": {
        "encoding": "mapping",
        "key": "t_uint256",
        "label": "mapping(uint256 => bool)",
        "numberOfBytes": "32",
        "value": "t_bool"
      },
      "t_mapping(t_uint256,t_struct(RequestStatus)2352_storage)": {
        "encoding": "mapping",
        "key": "t_uint256",
        "label": "mapping(uint256 => struct DrawingGame.RequestStatus)",
        "numberOfBytes": "32",
        "value": "t_struct(RequestStatus)2352_storage"
      },
      "t_struct(NFTInfo)2262_storage": {
        "encoding": "inplace",
        "label": "struct DrawingGame.NFTInfo",
        "members": [
          {
            "astId": 2259,
            "contract": "contracts/DrawingGame/DrawingGame.sol:DrawingGame",
            "label": "contractAddress",
            "offset": 0,
            "slot": "0",
            "type": "t_address"
          },
          {
            "astId": 2261,
            "contract": "contracts/DrawingGame/DrawingGame.sol:DrawingGame",
            "label": "tokenId",
            "offset": 0,
            "slot": "1",
            "type": "t_uint256"
          }
        ],
        "numberOfBytes": "64"
      },
      "t_struct(RequestStatus)2352_storage": {
        "encoding": "inplace",
        "label": "struct DrawingGame.RequestStatus",
        "members": [
          {
            "astId": 2346,
            "contract": "contracts/DrawingGame/DrawingGame.sol:DrawingGame",
            "label": "fulfilled",
            "offset": 0,
            "slot": "0",
            "type": "t_bool"
          },
          {
            "astId": 2348,
            "contract": "contracts/DrawingGame/DrawingGame.sol:DrawingGame",
            "label": "exists",
            "offset": 1,
            "slot": "0",
            "type": "t_bool"
          },
          {
            "astId": 2351,
            "contract": "contracts/DrawingGame/DrawingGame.sol:DrawingGame",
            "label": "randomWords",
            "offset": 0,
            "slot": "1",
            "type": "t_array(t_uint256)dyn_storage"
          }
        ],
        "numberOfBytes": "64"
      },
      "t_struct(Timestamp)3374_storage": {
        "encoding": "inplace",
        "label": "struct Time.Timestamp",
        "members": [
          {
            "astId": 3373,
            "contract": "contracts/DrawingGame/DrawingGame.sol:DrawingGame",
            "label": "_current_time",
            "offset": 0,
            "slot": "0",
            "type": "t_uint256"
          }
        ],
        "numberOfBytes": "32"
      },
      "t_uint16": {
        "encoding": "inplace",
        "label": "uint16",
        "numberOfBytes": "2"
      },
      "t_uint256": {
        "encoding": "inplace",
        "label": "uint256",
        "numberOfBytes": "32"
      },
      "t_uint32": {
        "encoding": "inplace",
        "label": "uint32",
        "numberOfBytes": "4"
      },
      "t_uint64": {
        "encoding": "inplace",
        "label": "uint64",
        "numberOfBytes": "8"
      },
      "t_uint8": {
        "encoding": "inplace",
        "label": "uint8",
        "numberOfBytes": "1"
      }
    }
  }
}