{
  "address": "0xdBa528ae3AD0233EeDb8229215a8cBC61E642e1F",
  "abi": [
    {
      "inputs": [
        {
          "internalType": "uint256",
          "name": "initialSupply",
          "type": "uint256"
        },
        {
          "internalType": "address",
          "name": "mintAddr",
          "type": "address"
        },
        {
          "internalType": "address[]",
          "name": "owners",
          "type": "address[]"
        },
        {
          "internalType": "uint8",
          "name": "signRequred",
          "type": "uint8"
        }
      ],
      "stateMutability": "nonpayable",
      "type": "constructor"
    },
    {
      "anonymous": false,
      "inputs": [
        {
          "indexed": true,
          "internalType": "address",
          "name": "owner",
          "type": "address"
        },
        {
          "indexed": true,
          "internalType": "address",
          "name": "spender",
          "type": "address"
        },
        {
          "indexed": false,
          "internalType": "uint256",
          "name": "value",
          "type": "uint256"
        }
      ],
      "name": "Approval",
      "type": "event"
    },
    {
      "anonymous": false,
      "inputs": [
        {
          "indexed": true,
          "internalType": "bytes32",
          "name": "opHash",
          "type": "bytes32"
        }
      ],
      "name": "OperationAdded",
      "type": "event"
    },
    {
      "anonymous": false,
      "inputs": [
        {
          "indexed": true,
          "internalType": "address",
          "name": "previousOwner",
          "type": "address"
        },
        {
          "indexed": true,
          "internalType": "address",
          "name": "newOwner",
          "type": "address"
        }
      ],
      "name": "OwnershipTransferred",
      "type": "event"
    },
    {
      "anonymous": false,
      "inputs": [
        {
          "indexed": true,
          "internalType": "address",
          "name": "from",
          "type": "address"
        },
        {
          "indexed": true,
          "internalType": "address",
          "name": "to",
          "type": "address"
        },
        {
          "indexed": false,
          "internalType": "uint256",
          "name": "value",
          "type": "uint256"
        }
      ],
      "name": "Transfer",
      "type": "event"
    },
    {
      "inputs": [
        {
          "internalType": "bytes32",
          "name": "opHash",
          "type": "bytes32"
        },
        {
          "internalType": "bytes[]",
          "name": "sigs",
          "type": "bytes[]"
        }
      ],
      "name": "AddOpHashToPending",
      "outputs": [],
      "stateMutability": "nonpayable",
      "type": "function"
    },
    {
      "inputs": [],
      "name": "DOMAIN",
      "outputs": [
        {
          "internalType": "bytes32",
          "name": "",
          "type": "bytes32"
        }
      ],
      "stateMutability": "view",
      "type": "function"
    },
    {
      "inputs": [
        {
          "internalType": "address",
          "name": "addr",
          "type": "address"
        }
      ],
      "name": "addToWhiteList",
      "outputs": [],
      "stateMutability": "nonpayable",
      "type": "function"
    },
    {
      "inputs": [
        {
          "internalType": "address",
          "name": "owner",
          "type": "address"
        },
        {
          "internalType": "address",
          "name": "spender",
          "type": "address"
        }
      ],
      "name": "allowance",
      "outputs": [
        {
          "internalType": "uint256",
          "name": "",
          "type": "uint256"
        }
      ],
      "stateMutability": "view",
      "type": "function"
    },
    {
      "inputs": [
        {
          "internalType": "address",
          "name": "spender",
          "type": "address"
        },
        {
          "internalType": "uint256",
          "name": "amount",
          "type": "uint256"
        }
      ],
      "name": "approve",
      "outputs": [
        {
          "internalType": "bool",
          "name": "",
          "type": "bool"
        }
      ],
      "stateMutability": "nonpayable",
      "type": "function"
    },
    {
      "inputs": [
        {
          "internalType": "address",
          "name": "account",
          "type": "address"
        }
      ],
      "name": "balanceOf",
      "outputs": [
        {
          "internalType": "uint256",
          "name": "",
          "type": "uint256"
        }
      ],
      "stateMutability": "view",
      "type": "function"
    },
    {
      "inputs": [
        {
          "internalType": "uint256",
          "name": "amount",
          "type": "uint256"
        }
      ],
      "name": "burn",
      "outputs": [],
      "stateMutability": "nonpayable",
      "type": "function"
    },
    {
      "inputs": [
        {
          "internalType": "address",
          "name": "account",
          "type": "address"
        },
        {
          "internalType": "uint256",
          "name": "amount",
          "type": "uint256"
        }
      ],
      "name": "burnFrom",
      "outputs": [],
      "stateMutability": "nonpayable",
      "type": "function"
    },
    {
      "inputs": [],
      "name": "decimals",
      "outputs": [
        {
          "internalType": "uint8",
          "name": "",
          "type": "uint8"
        }
      ],
      "stateMutability": "view",
      "type": "function"
    },
    {
      "inputs": [
        {
          "internalType": "address",
          "name": "spender",
          "type": "address"
        },
        {
          "internalType": "uint256",
          "name": "subtractedValue",
          "type": "uint256"
        }
      ],
      "name": "decreaseAllowance",
      "outputs": [
        {
          "internalType": "bool",
          "name": "",
          "type": "bool"
        }
      ],
      "stateMutability": "nonpayable",
      "type": "function"
    },
    {
      "inputs": [
        {
          "internalType": "address",
          "name": "to",
          "type": "address"
        },
        {
          "internalType": "uint256",
          "name": "amount",
          "type": "uint256"
        },
        {
          "internalType": "uint256",
          "name": "nonce_",
          "type": "uint256"
        }
      ],
      "name": "getMintHash",
      "outputs": [
        {
          "internalType": "bytes32",
          "name": "",
          "type": "bytes32"
        }
      ],
      "stateMutability": "view",
      "type": "function"
    },
    {
      "inputs": [
        {
          "internalType": "address",
          "name": "spender",
          "type": "address"
        },
        {
          "internalType": "uint256",
          "name": "addedValue",
          "type": "uint256"
        }
      ],
      "name": "increaseAllowance",
      "outputs": [
        {
          "internalType": "bool",
          "name": "",
          "type": "bool"
        }
      ],
      "stateMutability": "nonpayable",
      "type": "function"
    },
    {
      "inputs": [],
      "name": "maxNumOwners",
      "outputs": [
        {
          "internalType": "uint8",
          "name": "",
          "type": "uint8"
        }
      ],
      "stateMutability": "view",
      "type": "function"
    },
    {
      "inputs": [
        {
          "internalType": "address",
          "name": "to",
          "type": "address"
        },
        {
          "internalType": "uint256",
          "name": "amount",
          "type": "uint256"
        },
        {
          "internalType": "bytes[]",
          "name": "sigs",
          "type": "bytes[]"
        }
      ],
      "name": "mint",
      "outputs": [],
      "stateMutability": "nonpayable",
      "type": "function"
    },
    {
      "inputs": [],
      "name": "name",
      "outputs": [
        {
          "internalType": "string",
          "name": "",
          "type": "string"
        }
      ],
      "stateMutability": "view",
      "type": "function"
    },
    {
      "inputs": [],
      "name": "nonce",
      "outputs": [
        {
          "internalType": "uint256",
          "name": "",
          "type": "uint256"
        }
      ],
      "stateMutability": "view",
      "type": "function"
    },
    {
      "inputs": [
        {
          "internalType": "bytes32",
          "name": "",
          "type": "bytes32"
        }
      ],
      "name": "operationsStatus",
      "outputs": [
        {
          "internalType": "enum SafeOwnable.OpStatus",
          "name": "",
          "type": "uint8"
        }
      ],
      "stateMutability": "view",
      "type": "function"
    },
    {
      "inputs": [],
      "name": "owners",
      "outputs": [
        {
          "internalType": "address[6]",
          "name": "",
          "type": "address[6]"
        }
      ],
      "stateMutability": "view",
      "type": "function"
    },
    {
      "inputs": [
        {
          "internalType": "address",
          "name": "addr",
          "type": "address"
        }
      ],
      "name": "removeFromWhiteList",
      "outputs": [],
      "stateMutability": "nonpayable",
      "type": "function"
    },
    {
      "inputs": [],
      "name": "signRequired",
      "outputs": [
        {
          "internalType": "uint8",
          "name": "",
          "type": "uint8"
        }
      ],
      "stateMutability": "view",
      "type": "function"
    },
    {
      "inputs": [],
      "name": "symbol",
      "outputs": [
        {
          "internalType": "string",
          "name": "",
          "type": "string"
        }
      ],
      "stateMutability": "view",
      "type": "function"
    },
    {
      "inputs": [],
      "name": "totalSupply",
      "outputs": [
        {
          "internalType": "uint256",
          "name": "",
          "type": "uint256"
        }
      ],
      "stateMutability": "view",
      "type": "function"
    },
    {
      "inputs": [
        {
          "internalType": "address",
          "name": "to",
          "type": "address"
        },
        {
          "internalType": "uint256",
          "name": "amount",
          "type": "uint256"
        }
      ],
      "name": "transfer",
      "outputs": [
        {
          "internalType": "bool",
          "name": "",
          "type": "bool"
        }
      ],
      "stateMutability": "nonpayable",
      "type": "function"
    },
    {
      "inputs": [
        {
          "internalType": "address",
          "name": "from",
          "type": "address"
        },
        {
          "internalType": "address",
          "name": "to",
          "type": "address"
        },
        {
          "internalType": "uint256",
          "name": "amount",
          "type": "uint256"
        }
      ],
      "name": "transferFrom",
      "outputs": [
        {
          "internalType": "bool",
          "name": "",
          "type": "bool"
        }
      ],
      "stateMutability": "nonpayable",
      "type": "function"
    },
    {
      "inputs": [
        {
          "internalType": "address",
          "name": "newOwner",
          "type": "address"
        }
      ],
      "name": "transferOwnership",
      "outputs": [],
      "stateMutability": "nonpayable",
      "type": "function"
    }
  ],
  "transactionHash": "0xd202c29b1b5928f3d58e1674bb321ad0bef2e7a142632a580fee87e41230c772",
  "args": [
    200000,
    "0x26afa95c73A2EACF9a1C25D55430d0fE4C685e29",
    [
      "0x5aCEDaad555f2D720979eeB4f04B78F024b3b0F9",
      "0xbf0128f0BA889B0Eb03cF31fD8cdEe553E91D56c"
    ],
    2
  ],
  "numDeployments": 1,
  "solcInputHash": "929fd8f85b15b7d867fa9e85d4014a28",
  "bytecode": "0x60c06040523480156200001157600080fd5b50604051620028eb380380620028eb83398101604081905262000034916200071a565b60405180604001604052806011815260200170496e7669746174696f6e20564d6574613360781b8152506040518060400160405280600481526020016369564d3360e01b8152508383600560ff1682511115620000e95760405162461bcd60e51b815260206004820152602860248201527f536166654f776e61626c653a657863656564206d6178696d756d206e756d626560448201526772206f776e65727360c01b60648201526084015b60405180910390fd5b60ff8116620001455760405162461bcd60e51b815260206004820152602160248201527f536166654f776e61626c653a207369676e5265717569726564206973207a65726044820152606f60f81b6064820152608401620000e0565b60ff811660805260005b8251811015620002bf5760008382815181106200017057620001706200081e565b6020908102919091018101516001600160a01b0381166000908152600690925260409091205490915060ff1615620001f55760405162461bcd60e51b815260206004820152602160248201527f536166654f776e61626c653a206f776e657220616c72656164792065786973746044820152607360f81b6064820152608401620000e0565b60078054829160009182906200020e9060ff166200084a565b91906101000a81548160ff021916908360ff160217905560ff16600681106200023b576200023b6200081e565b0180546001600160a01b039283166001600160a01b0319909116179055600754908216600081815260066020526040808220805460ff191660ff9095169490941790935591519091907f8be0079c531659141344cd1fd0a4f28419497f9722a3daafe3b4186f6b6457e0908290a35080620002b6816200086d565b9150506200014f565b5060075460805160ff91821691161115620003305760405162461bcd60e51b815260206004820152602a60248201527f536166654f776e61626c653a206f776e657273206c657373207468616e20736960448201526919db94995c5d5a5c995960b21b6064820152608401620000e0565b505081516200034790600d9060208501906200062f565b5080516200035d90600e9060208401906200062f565b505050620003818385670de0b6b3a76400006200037b91906200088b565b620003fb565b7fb8aa581effc4a2e306a38dbac6542b2a4b0d933abccc3bfc5d8d811df1608302620003ac620004ae565b805160209182012060408051928301939093529181019190915246606082015230608082015260a00160408051601f19818403018152919052805160209091012060a052506200090592505050565b6a422ca8b0a00a425000000062000411600c5490565b6200041d9083620008ad565b1115620004935760405162461bcd60e51b815260206004820152603460248201527f69564d3a2074686520746f74616c20616d6f756e74206973737565642065786360448201527f65656465642074686520546f74616c416d6f75740000000000000000000000006064820152608401620000e0565b620004aa82826200054860201b62000f6f1760201c565b5050565b6060600d8054620004bf90620008c8565b80601f0160208091040260200160405190810160405280929190818152602001828054620004ed90620008c8565b80156200053e5780601f1062000512576101008083540402835291602001916200053e565b820191906000526020600020905b8154815290600101906020018083116200052057829003601f168201915b5050505050905090565b6001600160a01b038216620005a05760405162461bcd60e51b815260206004820152601f60248201527f45524332303a206d696e7420746f20746865207a65726f2061646472657373006044820152606401620000e0565b80600c6000828254620005b49190620008ad565b90915550506001600160a01b0382166000908152600a602052604081208054839290620005e3908490620008ad565b90915550506040518181526001600160a01b038316906000907fddf252ad1be2c89b69c2b068fc378daa952ba7f163c4a11628f55a4df523b3ef9060200160405180910390a3620004aa565b8280546200063d90620008c8565b90600052602060002090601f016020900481019282620006615760008555620006ac565b82601f106200067c57805160ff1916838001178555620006ac565b82800160010185558215620006ac579182015b82811115620006ac5782518255916020019190600101906200068f565b50620006ba929150620006be565b5090565b5b80821115620006ba5760008155600101620006bf565b80516001600160a01b0381168114620006ed57600080fd5b919050565b634e487b7160e01b600052604160045260246000fd5b805160ff81168114620006ed57600080fd5b600080600080608085870312156200073157600080fd5b84519350602062000744818701620006d5565b60408701519094506001600160401b03808211156200076257600080fd5b818801915088601f8301126200077757600080fd5b8151818111156200078c576200078c620006f2565b8060051b604051601f19603f83011681018181108582111715620007b457620007b4620006f2565b60405291825284820192508381018501918b831115620007d357600080fd5b938501935b82851015620007fc57620007ec85620006d5565b84529385019392850192620007d8565b809750505050505050620008136060860162000708565b905092959194509250565b634e487b7160e01b600052603260045260246000fd5b634e487b7160e01b600052601160045260246000fd5b600060ff821660ff81141562000864576200086462000834565b60010192915050565b600060001982141562000884576200088462000834565b5060010190565b6000816000190483118215151615620008a857620008a862000834565b500290565b60008219821115620008c357620008c362000834565b500190565b600181811c90821680620008dd57607f821691505b60208210811415620008ff57634e487b7160e01b600052602260045260246000fd5b50919050565b60805160a051611fa462000947600039600081816102a40152818161034001526105e40152600081816103a30152818161084c0152610b7d0152611fa46000f3fe608060405234801561001057600080fd5b50600436106101a35760003560e01c806352a9674b116100ee578063a457c2d711610097578063affed0e011610071578063affed0e01461041b578063ce0d0ca014610424578063dd62ed3e14610454578063f2fde38b1461048d57600080fd5b8063a457c2d7146103e0578063a9059cbb146103f3578063affe39c11461040657600080fd5b80637a29349d116100c85780637a29349d1461039e5780638b5a2143146103c557806395d89b41146103d857600080fd5b806352a9674b1461033b57806370a082311461036257806379cc67901461038b57600080fd5b806323b872dd1161015057806342966c681161012a57806342966c681461026a57806347ee03941461027d5780634ffd7d541461029057600080fd5b806323b872dd1461023d578063313ce56714610250578063395093511461025757600080fd5b80630c3515ba116101815780630c3515ba146101fe5780631716d0f11461021857806318160ddd1461022b57600080fd5b806301bf6648146101a857806306fdde03146101bd578063095ea7b3146101db575b600080fd5b6101bb6101b6366004611aef565b6104a0565b005b6101c5610531565b6040516101d29190611b11565b60405180910390f35b6101ee6101e9366004611b66565b6105c3565b60405190151581526020016101d2565b610206600581565b60405160ff90911681526020016101d2565b6101bb610226366004611ccc565b6105db565b600c545b6040519081526020016101d2565b6101ee61024b366004611d23565b6108e8565b6012610206565b6101ee610265366004611b66565b61090c565b6101bb610278366004611d5f565b61094b565b6101bb61028b366004611aef565b610958565b61022f61029e366004611d78565b604080517f000000000000000000000000000000000000000000000000000000000000000060208201527f156e29f6982eee45771b2862c71c865cb1ed8ec5a0f2c9d0c2cf96b8a8ba8ee391810191909152606084811b6bffffffffffffffffffffffff191690820152607481018390526094810182905260009060b4016040516020818303038152906040528051906020012090509392505050565b61022f7f000000000000000000000000000000000000000000000000000000000000000081565b61022f610370366004611aef565b6001600160a01b03166000908152600a602052604090205490565b6101bb610399366004611b66565b6109e7565b6102067f000000000000000000000000000000000000000000000000000000000000000081565b6101bb6103d3366004611dab565b610a00565b6101c5610ce4565b6101ee6103ee366004611b66565b610cf3565b6101ee610401366004611b66565b610d9d565b61040e610dab565b6040516101d29190611df2565b61022f60095481565b610447610432366004611d5f565b60086020526000908152604090205460ff1681565b6040516101d29190611e42565b61022f610462366004611e6a565b6001600160a01b039182166000908152600b6020908152604080832093909416825291909152205490565b6101bb61049b366004611aef565b610df0565b3360009081526006602052604090205460ff166105105760405162461bcd60e51b8152602060048201526024808201527f536166654f776e61626c653a2063616c6c6572206973206e6f7420746865206f6044820152633bb732b960e11b60648201526084015b60405180910390fd5b6001600160a01b03166000908152600f60205260409020805460ff19169055565b6060600d805461054090611e9d565b80601f016020809104026020016040519081016040528092919081815260200182805461056c90611e9d565b80156105b95780601f1061058e576101008083540402835291602001916105b9565b820191906000526020600020905b81548152906001019060200180831161059c57829003601f168201915b5050505050905090565b6000336105d181858561104e565b5060019392505050565b600954604080517f00000000000000000000000000000000000000000000000000000000000000006020808301919091527f156e29f6982eee45771b2862c71c865cb1ed8ec5a0f2c9d0c2cf96b8a8ba8ee382840152606087811b6bffffffffffffffffffffffff191690830152607482018690526094808301949094528251808303909401845260b4820183528351938101939093207f19457468657265756d205369676e6564204d6573736167653a0a33320000000060d483015260f0808301919091528251808303909101815261011090910190915280519101208160006106c4611ab5565b3360009081526006602052604090205460ff161561072f57816106e681611eee565b925050600181600660006106f73390565b6001600160a01b0316815260208101919091526040016000205460ff166006811061072457610724611f0e565b911515602090920201525b60005b83518160ff16101561084957600061076f858360ff168151811061075857610758611f0e565b6020026020010151876111a690919063ffffffff16565b6001600160a01b03811660009081526006602052604090205490915060ff16806107db5760405162461bcd60e51b815260206004820181905260248201527f536166654f776e61626c653a207369676e6572206973206e6f74206f776e65726044820152606401610507565b838160ff16600681106107f0576107f0611f0e565b6020020151151560011415610806575050610837565b6001848260ff166006811061081d5761081d611f0e565b911515602090920201528461083181611eee565b95505050505b8061084181611eee565b915050610732565b507f000000000000000000000000000000000000000000000000000000000000000060ff168260ff1610156108c05760405162461bcd60e51b815260206004820152601f60248201527f536166654f776e61626c653a206e6f20656e6f75676820636f6e6669726d73006044820152606401610507565b600980549060006108d083611f24565b91905055506108df87876111ca565b50505050505050565b6000336108f6858285611267565b6109018585856112f9565b506001949350505050565b336000818152600b602090815260408083206001600160a01b03871684529091528120549091906105d19082908690610946908790611f3f565b61104e565b610955338261133d565b50565b3360009081526006602052604090205460ff166109c35760405162461bcd60e51b8152602060048201526024808201527f536166654f776e61626c653a2063616c6c6572206973206e6f7420746865206f6044820152633bb732b960e11b6064820152608401610507565b6001600160a01b03166000908152600f60205260409020805460ff19166001179055565b6109f2823383611267565b6109fc828261133d565b5050565b81816000610a0c611ab5565b3360009081526006602052604090205460ff1615610a775781610a2e81611eee565b92505060018160066000610a3f3390565b6001600160a01b0316815260208101919091526040016000205460ff1660068110610a6c57610a6c611f0e565b911515602090920201525b60005b83518160ff161015610b7a576000610aa0858360ff168151811061075857610758611f0e565b6001600160a01b03811660009081526006602052604090205490915060ff1680610b0c5760405162461bcd60e51b815260206004820181905260248201527f536166654f776e61626c653a207369676e6572206973206e6f74206f776e65726044820152606401610507565b838160ff1660068110610b2157610b21611f0e565b6020020151151560011415610b37575050610b68565b6001848260ff1660068110610b4e57610b4e611f0e565b9115156020909202015284610b6281611eee565b95505050505b80610b7281611eee565b915050610a7a565b507f000000000000000000000000000000000000000000000000000000000000000060ff168260ff161015610bf15760405162461bcd60e51b815260206004820152601f60248201527f536166654f776e61626c653a206e6f20656e6f75676820636f6e6669726d73006044820152606401610507565b60098054906000610c0183611f24565b909155505060008681526008602052604081205460ff166003811115610c2957610c29611e2c565b14610c9c5760405162461bcd60e51b815260206004820152602c60248201527f536166654f776e61626c653a206f7065726174696f6e20776173206e6f74207360448201527f75626d69747465642079657400000000000000000000000000000000000000006064820152608401610507565b600086815260086020526040808220805460ff191660011790555187917f33775024b20f211f019e50305c897b2105edc4642384143897ac170fb37f54a191a2505050505050565b6060600e805461054090611e9d565b336000818152600b602090815260408083206001600160a01b038716845290915281205490919083811015610d905760405162461bcd60e51b815260206004820152602560248201527f45524332303a2064656372656173656420616c6c6f77616e63652062656c6f7760448201527f207a65726f0000000000000000000000000000000000000000000000000000006064820152608401610507565b610901828686840361104e565b6000336105d18185856112f9565b610db3611ab5565b6040805160c08101918290529060009060069082845b81546001600160a01b03168152600190910190602001808311610dc9575050505050905090565b3360009081526006602052604090205460ff16610e5b5760405162461bcd60e51b8152602060048201526024808201527f536166654f776e61626c653a2063616c6c6572206973206e6f7420746865206f6044820152633bb732b960e11b6064820152608401610507565b6001600160a01b038116610ed75760405162461bcd60e51b815260206004820152602a60248201527f536166654f776e61626c653a206e6577206f776e657220697320746865207a6560448201527f726f2061646472657373000000000000000000000000000000000000000000006064820152608401610507565b6001600160a01b03811660009081526006602052604090205460ff1615610f665760405162461bcd60e51b815260206004820152602560248201527f536166654f776e61626c653a206e6577206f776e657220616c7265616479206560448201527f78697374730000000000000000000000000000000000000000000000000000006064820152608401610507565b610955816114c2565b6001600160a01b038216610fc55760405162461bcd60e51b815260206004820152601f60248201527f45524332303a206d696e7420746f20746865207a65726f2061646472657373006044820152606401610507565b80600c6000828254610fd79190611f3f565b90915550506001600160a01b0382166000908152600a602052604081208054839290611004908490611f3f565b90915550506040518181526001600160a01b038316906000907fddf252ad1be2c89b69c2b068fc378daa952ba7f163c4a11628f55a4df523b3ef9060200160405180910390a35050565b6001600160a01b0383166110c95760405162461bcd60e51b8152602060048201526024808201527f45524332303a20617070726f76652066726f6d20746865207a65726f2061646460448201527f72657373000000000000000000000000000000000000000000000000000000006064820152608401610507565b6001600160a01b0382166111455760405162461bcd60e51b815260206004820152602260248201527f45524332303a20617070726f766520746f20746865207a65726f20616464726560448201527f73730000000000000000000000000000000000000000000000000000000000006064820152608401610507565b6001600160a01b038381166000818152600b602090815260408083209487168084529482529182902085905590518481527f8c5be1e5ebec7d5bd14f71427d1e84f3dd0314c0f7b2291e5b200ac8c7c3b925910160405180910390a3505050565b60008060006111b5858561157a565b915091506111c2816115c0565b509392505050565b6a422ca8b0a00a42500000006111df600c5490565b6111e99083611f3f565b111561125d5760405162461bcd60e51b815260206004820152603460248201527f69564d3a2074686520746f74616c20616d6f756e74206973737565642065786360448201527f65656465642074686520546f74616c416d6f75740000000000000000000000006064820152608401610507565b6109fc8282610f6f565b6001600160a01b038381166000908152600b602090815260408083209386168352929052205460001981146112f357818110156112e65760405162461bcd60e51b815260206004820152601d60248201527f45524332303a20696e73756666696369656e7420616c6c6f77616e63650000006044820152606401610507565b6112f3848484840361104e565b50505050565b6001600160a01b0383161561132d576001600160a01b0383166000908152600f602052604090205460ff1661132d57600080fd5b6113388383836117b1565b505050565b6001600160a01b0382166113b95760405162461bcd60e51b815260206004820152602160248201527f45524332303a206275726e2066726f6d20746865207a65726f2061646472657360448201527f73000000000000000000000000000000000000000000000000000000000000006064820152608401610507565b6001600160a01b0382166000908152600a6020526040902054818110156114485760405162461bcd60e51b815260206004820152602260248201527f45524332303a206275726e20616d6f756e7420657863656564732062616c616e60448201527f63650000000000000000000000000000000000000000000000000000000000006064820152608401610507565b6001600160a01b0383166000908152600a602052604081208383039055600c8054849290611477908490611f57565b90915550506040518281526000906001600160a01b038516907fddf252ad1be2c89b69c2b068fc378daa952ba7f163c4a11628f55a4df523b3ef9060200160405180910390a3505050565b33600081815260066020819052604082205460ff16918491839081106114ea576114ea611f0e565b0180547fffffffffffffffffffffffff0000000000000000000000000000000000000000166001600160a01b03928316179055828116600081815260066020526040808220805460ff19908116909155938716808352818320805490951660ff871617909455517f8be0079c531659141344cd1fd0a4f28419497f9722a3daafe3b4186f6b6457e09190a3505050565b6000808251604114156115b15760208301516040840151606085015160001a6115a5878285856119c8565b945094505050506115b9565b506000905060025b9250929050565b60008160048111156115d4576115d4611e2c565b14156115dd5750565b60018160048111156115f1576115f1611e2c565b141561163f5760405162461bcd60e51b815260206004820152601860248201527f45434453413a20696e76616c6964207369676e617475726500000000000000006044820152606401610507565b600281600481111561165357611653611e2c565b14156116a15760405162461bcd60e51b815260206004820152601f60248201527f45434453413a20696e76616c6964207369676e6174757265206c656e677468006044820152606401610507565b60038160048111156116b5576116b5611e2c565b14156117295760405162461bcd60e51b815260206004820152602260248201527f45434453413a20696e76616c6964207369676e6174757265202773272076616c60448201527f75650000000000000000000000000000000000000000000000000000000000006064820152608401610507565b600481600481111561173d5761173d611e2c565b14156109555760405162461bcd60e51b815260206004820152602260248201527f45434453413a20696e76616c6964207369676e6174757265202776272076616c60448201527f75650000000000000000000000000000000000000000000000000000000000006064820152608401610507565b6001600160a01b03831661182d5760405162461bcd60e51b815260206004820152602560248201527f45524332303a207472616e736665722066726f6d20746865207a65726f20616460448201527f64726573730000000000000000000000000000000000000000000000000000006064820152608401610507565b6001600160a01b0382166118a95760405162461bcd60e51b815260206004820152602360248201527f45524332303a207472616e7366657220746f20746865207a65726f206164647260448201527f65737300000000000000000000000000000000000000000000000000000000006064820152608401610507565b6001600160a01b0383166000908152600a6020526040902054818110156119385760405162461bcd60e51b815260206004820152602660248201527f45524332303a207472616e7366657220616d6f756e742065786365656473206260448201527f616c616e636500000000000000000000000000000000000000000000000000006064820152608401610507565b6001600160a01b038085166000908152600a602052604080822085850390559185168152908120805484929061196f908490611f3f565b92505081905550826001600160a01b0316846001600160a01b03167fddf252ad1be2c89b69c2b068fc378daa952ba7f163c4a11628f55a4df523b3ef846040516119bb91815260200190565b60405180910390a36112f3565b6000807f7fffffffffffffffffffffffffffffff5d576e7357a4501ddfe92f46681b20a08311156119ff5750600090506003611aac565b8460ff16601b14158015611a1757508460ff16601c14155b15611a285750600090506004611aac565b6040805160008082526020820180845289905260ff881692820192909252606081018690526080810185905260019060a0016020604051602081039080840390855afa158015611a7c573d6000803e3d6000fd5b5050604051601f1901519150506001600160a01b038116611aa557600060019250925050611aac565b9150600090505b94509492505050565b6040518060c001604052806006906020820280368337509192915050565b80356001600160a01b0381168114611aea57600080fd5b919050565b600060208284031215611b0157600080fd5b611b0a82611ad3565b9392505050565b600060208083528351808285015260005b81811015611b3e57858101830151858201604001528201611b22565b81811115611b50576000604083870101525b50601f01601f1916929092016040019392505050565b60008060408385031215611b7957600080fd5b611b8283611ad3565b946020939093013593505050565b634e487b7160e01b600052604160045260246000fd5b604051601f8201601f1916810167ffffffffffffffff81118282101715611bcf57611bcf611b90565b604052919050565b6000601f8381840112611be957600080fd5b8235602067ffffffffffffffff80831115611c0657611c06611b90565b8260051b611c15838201611ba6565b9384528681018301938381019089861115611c2f57600080fd5b84890192505b85831015611cbf57823584811115611c4d5760008081fd5b8901603f81018b13611c5f5760008081fd5b85810135604086821115611c7557611c75611b90565b611c8688601f198c85011601611ba6565b8281528d82848601011115611c9b5760008081fd5b828285018a8301376000928101890192909252508352509184019190840190611c35565b9998505050505050505050565b600080600060608486031215611ce157600080fd5b611cea84611ad3565b925060208401359150604084013567ffffffffffffffff811115611d0d57600080fd5b611d1986828701611bd7565b9150509250925092565b600080600060608486031215611d3857600080fd5b611d4184611ad3565b9250611d4f60208501611ad3565b9150604084013590509250925092565b600060208284031215611d7157600080fd5b5035919050565b600080600060608486031215611d8d57600080fd5b611d9684611ad3565b95602085013595506040909401359392505050565b60008060408385031215611dbe57600080fd5b82359150602083013567ffffffffffffffff811115611ddc57600080fd5b611de885828601611bd7565b9150509250929050565b60c08101818360005b6006811015611e235781516001600160a01b0316835260209283019290910190600101611dfb565b50505092915050565b634e487b7160e01b600052602160045260246000fd5b6020810160048310611e6457634e487b7160e01b600052602160045260246000fd5b91905290565b60008060408385031215611e7d57600080fd5b611e8683611ad3565b9150611e9460208401611ad3565b90509250929050565b600181811c90821680611eb157607f821691505b60208210811415611ed257634e487b7160e01b600052602260045260246000fd5b50919050565b634e487b7160e01b600052601160045260246000fd5b600060ff821660ff811415611f0557611f05611ed8565b60010192915050565b634e487b7160e01b600052603260045260246000fd5b6000600019821415611f3857611f38611ed8565b5060010190565b60008219821115611f5257611f52611ed8565b500190565b600082821015611f6957611f69611ed8565b50039056fea2646970667358221220aab68b14b29d70316c5694c035b8c76cd51d298e53ab19a11536b189454c12ac64736f6c63430008090033",
  "devdoc": {
    "kind": "dev",
    "methods": {
      "allowance(address,address)": {
        "details": "See {IERC20-allowance}."
      },
      "approve(address,uint256)": {
        "details": "See {IERC20-approve}. NOTE: If `amount` is the maximum `uint256`, the allowance is not updated on `transferFrom`. This is semantically equivalent to an infinite approval. Requirements: - `spender` cannot be the zero address."
      },
      "balanceOf(address)": {
        "details": "See {IERC20-balanceOf}."
      },
      "burn(uint256)": {
        "details": "Destroys `amount` tokens from the caller. See {ERC20-_burn}."
      },
      "burnFrom(address,uint256)": {
        "details": "Destroys `amount` tokens from `account`, deducting from the caller's allowance. See {ERC20-_burn} and {ERC20-allowance}. Requirements: - the caller must have allowance for ``accounts``'s tokens of at least `amount`."
      },
      "decimals()": {
        "details": "Returns the number of decimals used to get its user representation. For example, if `decimals` equals `2`, a balance of `505` tokens should be displayed to a user as `5.05` (`505 / 10 ** 2`). Tokens usually opt for a value of 18, imitating the relationship between Ether and Wei. This is the value {ERC20} uses, unless this function is overridden; NOTE: This information is only used for _display_ purposes: it in no way affects any of the arithmetic of the contract, including {IERC20-balanceOf} and {IERC20-transfer}."
      },
      "decreaseAllowance(address,uint256)": {
        "details": "Atomically decreases the allowance granted to `spender` by the caller. This is an alternative to {approve} that can be used as a mitigation for problems described in {IERC20-approve}. Emits an {Approval} event indicating the updated allowance. Requirements: - `spender` cannot be the zero address. - `spender` must have allowance for the caller of at least `subtractedValue`."
      },
      "increaseAllowance(address,uint256)": {
        "details": "Atomically increases the allowance granted to `spender` by the caller. This is an alternative to {approve} that can be used as a mitigation for problems described in {IERC20-approve}. Emits an {Approval} event indicating the updated allowance. Requirements: - `spender` cannot be the zero address."
      },
      "name()": {
        "details": "Returns the name of the token."
      },
      "symbol()": {
        "details": "Returns the symbol of the token, usually a shorter version of the name."
      },
      "totalSupply()": {
        "details": "See {IERC20-totalSupply}."
      },
      "transfer(address,uint256)": {
        "details": "See {IERC20-transfer}. Requirements: - `to` cannot be the zero address. - the caller must have a balance of at least `amount`."
      },
      "transferFrom(address,address,uint256)": {
        "details": "See {IERC20-transferFrom}. Emits an {Approval} event indicating the updated allowance. This is not required by the EIP. See the note at the beginning of {ERC20}. NOTE: Does not update the allowance if the current allowance is the maximum `uint256`. Requirements: - `from` and `to` cannot be the zero address. - `from` must have a balance of at least `amount`. - the caller must have allowance for ``from``'s tokens of at least `amount`."
      },
      "transferOwnership(address)": {
        "details": "Transfers ownership of the contract to a new account (`newOwner`). Can only be called by the current owner."
      }
    },
    "version": 1
  },
  "userdoc": {
    "kind": "user",
    "methods": {},
    "version": 1
  },
  "storageLayout": {
    "storage": [
      {
        "astId": 1387,
        "contract": "contracts/ERC20/IVM3.sol:IVM3",
        "label": "_owners",
        "offset": 0,
        "slot": "0",
        "type": "t_array(t_address)6_storage"
      },
      {
        "astId": 1391,
        "contract": "contracts/ERC20/IVM3.sol:IVM3",
        "label": "_ownersIndex",
        "offset": 0,
        "slot": "6",
        "type": "t_mapping(t_address,t_uint8)"
      },
      {
        "astId": 1393,
        "contract": "contracts/ERC20/IVM3.sol:IVM3",
        "label": "_numOwners",
        "offset": 0,
        "slot": "7",
        "type": "t_uint8"
      },
      {
        "astId": 1403,
        "contract": "contracts/ERC20/IVM3.sol:IVM3",
        "label": "operationsStatus",
        "offset": 0,
        "slot": "8",
        "type": "t_mapping(t_bytes32,t_enum(OpStatus)1383)"
      },
      {
        "astId": 1405,
        "contract": "contracts/ERC20/IVM3.sol:IVM3",
        "label": "nonce",
        "offset": 0,
        "slot": "9",
        "type": "t_uint256"
      },
      {
        "astId": 15,
        "contract": "contracts/ERC20/IVM3.sol:IVM3",
        "label": "_balances",
        "offset": 0,
        "slot": "10",
        "type": "t_mapping(t_address,t_uint256)"
      },
      {
        "astId": 21,
        "contract": "contracts/ERC20/IVM3.sol:IVM3",
        "label": "_allowances",
        "offset": 0,
        "slot": "11",
        "type": "t_mapping(t_address,t_mapping(t_address,t_uint256))"
      },
      {
        "astId": 23,
        "contract": "contracts/ERC20/IVM3.sol:IVM3",
        "label": "_totalSupply",
        "offset": 0,
        "slot": "12",
        "type": "t_uint256"
      },
      {
        "astId": 25,
        "contract": "contracts/ERC20/IVM3.sol:IVM3",
        "label": "_name",
        "offset": 0,
        "slot": "13",
        "type": "t_string_storage"
      },
      {
        "astId": 27,
        "contract": "contracts/ERC20/IVM3.sol:IVM3",
        "label": "_symbol",
        "offset": 0,
        "slot": "14",
        "type": "t_string_storage"
      },
      {
        "astId": 1783,
        "contract": "contracts/ERC20/IVM3.sol:IVM3",
        "label": "whiteList",
        "offset": 0,
        "slot": "15",
        "type": "t_mapping(t_address,t_bool)"
      }
    ],
    "types": {
      "t_address": {
        "encoding": "inplace",
        "label": "address",
        "numberOfBytes": "20"
      },
      "t_array(t_address)6_storage": {
        "base": "t_address",
        "encoding": "inplace",
        "label": "address[6]",
        "numberOfBytes": "192"
      },
      "t_bool": {
        "encoding": "inplace",
        "label": "bool",
        "numberOfBytes": "1"
      },
      "t_bytes32": {
        "encoding": "inplace",
        "label": "bytes32",
        "numberOfBytes": "32"
      },
      "t_enum(OpStatus)1383": {
        "encoding": "inplace",
        "label": "enum SafeOwnable.OpStatus",
        "numberOfBytes": "1"
      },
      "t_mapping(t_address,t_bool)": {
        "encoding": "mapping",
        "key": "t_address",
        "label": "mapping(address => bool)",
        "numberOfBytes": "32",
        "value": "t_bool"
      },
      "t_mapping(t_address,t_mapping(t_address,t_uint256))": {
        "encoding": "mapping",
        "key": "t_address",
        "label": "mapping(address => mapping(address => uint256))",
        "numberOfBytes": "32",
        "value": "t_mapping(t_address,t_uint256)"
      },
      "t_mapping(t_address,t_uint256)": {
        "encoding": "mapping",
        "key": "t_address",
        "label": "mapping(address => uint256)",
        "numberOfBytes": "32",
        "value": "t_uint256"
      },
      "t_mapping(t_address,t_uint8)": {
        "encoding": "mapping",
        "key": "t_address",
        "label": "mapping(address => uint8)",
        "numberOfBytes": "32",
        "value": "t_uint8"
      },
      "t_mapping(t_bytes32,t_enum(OpStatus)1383)": {
        "encoding": "mapping",
        "key": "t_bytes32",
        "label": "mapping(bytes32 => enum SafeOwnable.OpStatus)",
        "numberOfBytes": "32",
        "value": "t_enum(OpStatus)1383"
      },
      "t_string_storage": {
        "encoding": "bytes",
        "label": "string",
        "numberOfBytes": "32"
      },
      "t_uint256": {
        "encoding": "inplace",
        "label": "uint256",
        "numberOfBytes": "32"
      },
      "t_uint8": {
        "encoding": "inplace",
        "label": "uint8",
        "numberOfBytes": "1"
      }
    }
  }
}