{
  "address": "0x4bdC23B7A5b3FB9f723304036c90b1664B9183Dd",
  "abi": [
    {
      "inputs": [],
      "stateMutability": "nonpayable",
      "type": "constructor"
    },
    {
      "anonymous": false,
      "inputs": [
        {
          "indexed": false,
          "internalType": "address",
          "name": "previousAdmin",
          "type": "address"
        },
        {
          "indexed": false,
          "internalType": "address",
          "name": "newAdmin",
          "type": "address"
        }
      ],
      "name": "AdminChanged",
      "type": "event"
    },
    {
      "anonymous": false,
      "inputs": [
        {
          "indexed": true,
          "internalType": "address",
          "name": "owner",
          "type": "address"
        },
        {
          "indexed": true,
          "internalType": "address",
          "name": "approved",
          "type": "address"
        },
        {
          "indexed": true,
          "internalType": "uint256",
          "name": "tokenId",
          "type": "uint256"
        }
      ],
      "name": "Approval",
      "type": "event"
    },
    {
      "anonymous": false,
      "inputs": [
        {
          "indexed": true,
          "internalType": "address",
          "name": "owner",
          "type": "address"
        },
        {
          "indexed": true,
          "internalType": "address",
          "name": "operator",
          "type": "address"
        },
        {
          "indexed": false,
          "internalType": "bool",
          "name": "approved",
          "type": "bool"
        }
      ],
      "name": "ApprovalForAll",
      "type": "event"
    },
    {
      "anonymous": false,
      "inputs": [
        {
          "indexed": true,
          "internalType": "address",
          "name": "beacon",
          "type": "address"
        }
      ],
      "name": "BeaconUpgraded",
      "type": "event"
    },
    {
      "anonymous": false,
      "inputs": [
        {
          "indexed": true,
          "internalType": "address",
          "name": "user",
          "type": "address"
        },
        {
          "indexed": false,
          "internalType": "uint256",
          "name": "tokenId",
          "type": "uint256"
        }
      ],
      "name": "Build",
      "type": "event"
    },
    {
      "anonymous": false,
      "inputs": [
        {
          "indexed": true,
          "internalType": "address",
          "name": "user",
          "type": "address"
        },
        {
          "indexed": false,
          "internalType": "uint256",
          "name": "amount",
          "type": "uint256"
        }
      ],
      "name": "Deposit",
      "type": "event"
    },
    {
      "anonymous": false,
      "inputs": [
        {
          "indexed": false,
          "internalType": "uint8",
          "name": "version",
          "type": "uint8"
        }
      ],
      "name": "Initialized",
      "type": "event"
    },
    {
      "anonymous": false,
      "inputs": [
        {
          "indexed": true,
          "internalType": "bytes32",
          "name": "opHash",
          "type": "bytes32"
        }
      ],
      "name": "OperationAdded",
      "type": "event"
    },
    {
      "anonymous": false,
      "inputs": [
        {
          "indexed": true,
          "internalType": "address",
          "name": "previousOwner",
          "type": "address"
        },
        {
          "indexed": true,
          "internalType": "address",
          "name": "newOwner",
          "type": "address"
        }
      ],
      "name": "OwnershipTransferred",
      "type": "event"
    },
    {
      "anonymous": false,
      "inputs": [
        {
          "indexed": true,
          "internalType": "address",
          "name": "user",
          "type": "address"
        },
        {
          "indexed": false,
          "internalType": "uint256",
          "name": "amount",
          "type": "uint256"
        },
        {
          "indexed": false,
          "internalType": "bool",
          "name": "Disposal",
          "type": "bool"
        }
      ],
      "name": "Refund",
      "type": "event"
    },
    {
      "anonymous": false,
      "inputs": [
        {
          "indexed": true,
          "internalType": "address",
          "name": "from",
          "type": "address"
        },
        {
          "indexed": true,
          "internalType": "address",
          "name": "to",
          "type": "address"
        },
        {
          "indexed": true,
          "internalType": "uint256",
          "name": "tokenId",
          "type": "uint256"
        }
      ],
      "name": "Transfer",
      "type": "event"
    },
    {
      "anonymous": false,
      "inputs": [
        {
          "indexed": true,
          "internalType": "address",
          "name": "implementation",
          "type": "address"
        }
      ],
      "name": "Upgraded",
      "type": "event"
    },
    {
      "anonymous": false,
      "inputs": [
        {
          "indexed": true,
          "internalType": "address",
          "name": "user",
          "type": "address"
        },
        {
          "indexed": false,
          "internalType": "uint256",
          "name": "amount",
          "type": "uint256"
        }
      ],
      "name": "Withdraw",
      "type": "event"
    },
    {
      "inputs": [
        {
          "internalType": "bytes32",
          "name": "opHash",
          "type": "bytes32"
        },
        {
          "internalType": "bytes[]",
          "name": "sigs",
          "type": "bytes[]"
        }
      ],
      "name": "AddOpHashToPending",
      "outputs": [],
      "stateMutability": "nonpayable",
      "type": "function"
    },
    {
      "inputs": [],
      "name": "ERC20Token",
      "outputs": [
        {
          "internalType": "contract IERC20",
          "name": "",
          "type": "address"
        }
      ],
      "stateMutability": "view",
      "type": "function"
    },
    {
      "inputs": [
        {
          "internalType": "bytes32",
          "name": "data",
          "type": "bytes32"
        }
      ],
      "name": "HashToSign",
      "outputs": [
        {
          "internalType": "bytes32",
          "name": "",
          "type": "bytes32"
        }
      ],
      "stateMutability": "pure",
      "type": "function"
    },
    {
      "inputs": [
        {
          "internalType": "address",
          "name": "to",
          "type": "address"
        },
        {
          "internalType": "uint256",
          "name": "tokenId",
          "type": "uint256"
        }
      ],
      "name": "approve",
      "outputs": [],
      "stateMutability": "nonpayable",
      "type": "function"
    },
    {
      "inputs": [
        {
          "internalType": "address",
          "name": "owner",
          "type": "address"
        }
      ],
      "name": "balanceOf",
      "outputs": [
        {
          "internalType": "uint256",
          "name": "",
          "type": "uint256"
        }
      ],
      "stateMutability": "view",
      "type": "function"
    },
    {
      "inputs": [
        {
          "internalType": "address",
          "name": "account",
          "type": "address"
        }
      ],
      "name": "balanceOfERC20",
      "outputs": [
        {
          "internalType": "uint256",
          "name": "",
          "type": "uint256"
        }
      ],
      "stateMutability": "view",
      "type": "function"
    },
    {
      "inputs": [
        {
          "internalType": "string",
          "name": "tokenURI_",
          "type": "string"
        },
        {
          "internalType": "uint256",
          "name": "nonce_",
          "type": "uint256"
        }
      ],
      "name": "build",
      "outputs": [
        {
          "internalType": "uint256",
          "name": "",
          "type": "uint256"
        }
      ],
      "stateMutability": "nonpayable",
      "type": "function"
    },
    {
      "inputs": [
        {
          "internalType": "address",
          "name": "to",
          "type": "address"
        },
        {
          "internalType": "string",
          "name": "tokenURI_",
          "type": "string"
        },
        {
          "internalType": "uint256",
          "name": "nonce_",
          "type": "uint256"
        }
      ],
      "name": "buildTo",
      "outputs": [
        {
          "internalType": "uint256",
          "name": "",
          "type": "uint256"
        }
      ],
      "stateMutability": "nonpayable",
      "type": "function"
    },
    {
      "inputs": [],
      "name": "costs",
      "outputs": [
        {
          "internalType": "uint256",
          "name": "",
          "type": "uint256"
        }
      ],
      "stateMutability": "view",
      "type": "function"
    },
    {
      "inputs": [
        {
          "internalType": "uint256",
          "name": "amount",
          "type": "uint256"
        }
      ],
      "name": "deposit",
      "outputs": [],
      "stateMutability": "nonpayable",
      "type": "function"
    },
    {
      "inputs": [
        {
          "internalType": "address",
          "name": "to",
          "type": "address"
        },
        {
          "internalType": "uint256",
          "name": "amount",
          "type": "uint256"
        }
      ],
      "name": "depositTo",
      "outputs": [],
      "stateMutability": "nonpayable",
      "type": "function"
    },
    {
      "inputs": [
        {
          "internalType": "uint256",
          "name": "tokenId",
          "type": "uint256"
        }
      ],
      "name": "getApproved",
      "outputs": [
        {
          "internalType": "address",
          "name": "",
          "type": "address"
        }
      ],
      "stateMutability": "view",
      "type": "function"
    },
    {
      "inputs": [
        {
          "internalType": "address",
          "name": "to",
          "type": "address"
        },
        {
          "internalType": "string",
          "name": "tokenURI_",
          "type": "string"
        },
        {
          "internalType": "uint256",
          "name": "nonce_",
          "type": "uint256"
        }
      ],
      "name": "getBuildHash",
      "outputs": [
        {
          "internalType": "bytes32",
          "name": "",
          "type": "bytes32"
        }
      ],
      "stateMutability": "view",
      "type": "function"
    },
    {
      "inputs": [
        {
          "internalType": "address",
          "name": "to",
          "type": "address"
        },
        {
          "internalType": "uint256",
          "name": "amount",
          "type": "uint256"
        },
        {
          "internalType": "uint256",
          "name": "nonce_",
          "type": "uint256"
        }
      ],
      "name": "getRefundHash",
      "outputs": [
        {
          "internalType": "bytes32",
          "name": "",
          "type": "bytes32"
        }
      ],
      "stateMutability": "view",
      "type": "function"
    },
    {
      "inputs": [
        {
          "internalType": "address",
          "name": "to",
          "type": "address"
        },
        {
          "internalType": "uint256",
          "name": "amount",
          "type": "uint256"
        },
        {
          "internalType": "uint256",
          "name": "nonce_",
          "type": "uint256"
        }
      ],
      "name": "getrefundAtDisposalHash",
      "outputs": [
        {
          "internalType": "bytes32",
          "name": "",
          "type": "bytes32"
        }
      ],
      "stateMutability": "view",
      "type": "function"
    },
    {
      "inputs": [
        {
          "internalType": "string",
          "name": "name_",
          "type": "string"
        },
        {
          "internalType": "string",
          "name": "symbol_",
          "type": "string"
        },
        {
          "internalType": "address[]",
          "name": "owners",
          "type": "address[]"
        },
        {
          "internalType": "uint8",
          "name": "signRequred",
          "type": "uint8"
        }
      ],
      "name": "initialize",
      "outputs": [],
      "stateMutability": "nonpayable",
      "type": "function"
    },
    {
      "inputs": [
        {
          "internalType": "address",
          "name": "owner",
          "type": "address"
        },
        {
          "internalType": "address",
          "name": "operator",
          "type": "address"
        }
      ],
      "name": "isApprovedForAll",
      "outputs": [
        {
          "internalType": "bool",
          "name": "",
          "type": "bool"
        }
      ],
      "stateMutability": "view",
      "type": "function"
    },
    {
      "inputs": [],
      "name": "maxNumOwners",
      "outputs": [
        {
          "internalType": "uint8",
          "name": "",
          "type": "uint8"
        }
      ],
      "stateMutability": "view",
      "type": "function"
    },
    {
      "inputs": [],
      "name": "name",
      "outputs": [
        {
          "internalType": "string",
          "name": "",
          "type": "string"
        }
      ],
      "stateMutability": "view",
      "type": "function"
    },
    {
      "inputs": [],
      "name": "nonce",
      "outputs": [
        {
          "internalType": "uint256",
          "name": "",
          "type": "uint256"
        }
      ],
      "stateMutability": "view",
      "type": "function"
    },
    {
      "inputs": [
        {
          "internalType": "bytes32",
          "name": "",
          "type": "bytes32"
        }
      ],
      "name": "operationsStatus",
      "outputs": [
        {
          "internalType": "enum SafeOwnableUpgradeable.OpStatus",
          "name": "",
          "type": "uint8"
        }
      ],
      "stateMutability": "view",
      "type": "function"
    },
    {
      "inputs": [
        {
          "internalType": "uint256",
          "name": "tokenId",
          "type": "uint256"
        }
      ],
      "name": "ownerOf",
      "outputs": [
        {
          "internalType": "address",
          "name": "",
          "type": "address"
        }
      ],
      "stateMutability": "view",
      "type": "function"
    },
    {
      "inputs": [],
      "name": "owners",
      "outputs": [
        {
          "internalType": "address[6]",
          "name": "",
          "type": "address[6]"
        }
      ],
      "stateMutability": "view",
      "type": "function"
    },
    {
      "inputs": [],
      "name": "proxiableUUID",
      "outputs": [
        {
          "internalType": "bytes32",
          "name": "",
          "type": "bytes32"
        }
      ],
      "stateMutability": "view",
      "type": "function"
    },
    {
      "inputs": [
        {
          "internalType": "address",
          "name": "to",
          "type": "address"
        },
        {
          "internalType": "uint256",
          "name": "amount",
          "type": "uint256"
        },
        {
          "internalType": "uint256",
          "name": "nonce_",
          "type": "uint256"
        }
      ],
      "name": "refund",
      "outputs": [],
      "stateMutability": "nonpayable",
      "type": "function"
    },
    {
      "inputs": [
        {
          "internalType": "address",
          "name": "to",
          "type": "address"
        },
        {
          "internalType": "uint256",
          "name": "amount",
          "type": "uint256"
        },
        {
          "internalType": "uint256",
          "name": "nonce_",
          "type": "uint256"
        }
      ],
      "name": "refundAtDisposal",
      "outputs": [],
      "stateMutability": "nonpayable",
      "type": "function"
    },
    {
      "inputs": [
        {
          "internalType": "address",
          "name": "from",
          "type": "address"
        },
        {
          "internalType": "address",
          "name": "to",
          "type": "address"
        },
        {
          "internalType": "uint256",
          "name": "tokenId",
          "type": "uint256"
        }
      ],
      "name": "safeTransferFrom",
      "outputs": [],
      "stateMutability": "nonpayable",
      "type": "function"
    },
    {
      "inputs": [
        {
          "internalType": "address",
          "name": "from",
          "type": "address"
        },
        {
          "internalType": "address",
          "name": "to",
          "type": "address"
        },
        {
          "internalType": "uint256",
          "name": "tokenId",
          "type": "uint256"
        },
        {
          "internalType": "bytes",
          "name": "data",
          "type": "bytes"
        }
      ],
      "name": "safeTransferFrom",
      "outputs": [],
      "stateMutability": "nonpayable",
      "type": "function"
    },
    {
      "inputs": [
        {
          "internalType": "address",
          "name": "operator",
          "type": "address"
        },
        {
          "internalType": "bool",
          "name": "approved",
          "type": "bool"
        }
      ],
      "name": "setApprovalForAll",
      "outputs": [],
      "stateMutability": "nonpayable",
      "type": "function"
    },
    {
      "inputs": [
        {
          "internalType": "uint256",
          "name": "costs_",
          "type": "uint256"
        }
      ],
      "name": "setCosts",
      "outputs": [],
      "stateMutability": "nonpayable",
      "type": "function"
    },
    {
      "inputs": [
        {
          "internalType": "address",
          "name": "token",
          "type": "address"
        }
      ],
      "name": "setERC20",
      "outputs": [],
      "stateMutability": "nonpayable",
      "type": "function"
    },
    {
      "inputs": [],
      "name": "signRequired",
      "outputs": [
        {
          "internalType": "uint8",
          "name": "",
          "type": "uint8"
        }
      ],
      "stateMutability": "view",
      "type": "function"
    },
    {
      "inputs": [
        {
          "internalType": "bytes4",
          "name": "interfaceId",
          "type": "bytes4"
        }
      ],
      "name": "supportsInterface",
      "outputs": [
        {
          "internalType": "bool",
          "name": "",
          "type": "bool"
        }
      ],
      "stateMutability": "view",
      "type": "function"
    },
    {
      "inputs": [],
      "name": "symbol",
      "outputs": [
        {
          "internalType": "string",
          "name": "",
          "type": "string"
        }
      ],
      "stateMutability": "view",
      "type": "function"
    },
    {
      "inputs": [
        {
          "internalType": "uint256",
          "name": "tokenId",
          "type": "uint256"
        }
      ],
      "name": "tokenURI",
      "outputs": [
        {
          "internalType": "string",
          "name": "",
          "type": "string"
        }
      ],
      "stateMutability": "view",
      "type": "function"
    },
    {
      "inputs": [
        {
          "internalType": "address",
          "name": "from",
          "type": "address"
        },
        {
          "internalType": "address",
          "name": "to",
          "type": "address"
        },
        {
          "internalType": "uint256",
          "name": "tokenId",
          "type": "uint256"
        }
      ],
      "name": "transferFrom",
      "outputs": [],
      "stateMutability": "nonpayable",
      "type": "function"
    },
    {
      "inputs": [
        {
          "internalType": "address",
          "name": "newOwner",
          "type": "address"
        }
      ],
      "name": "transferOwnership",
      "outputs": [],
      "stateMutability": "nonpayable",
      "type": "function"
    },
    {
      "inputs": [
        {
          "internalType": "address",
          "name": "newImplementation",
          "type": "address"
        }
      ],
      "name": "upgradeTo",
      "outputs": [],
      "stateMutability": "nonpayable",
      "type": "function"
    },
    {
      "inputs": [
        {
          "internalType": "address",
          "name": "newImplementation",
          "type": "address"
        },
        {
          "internalType": "bytes",
          "name": "data",
          "type": "bytes"
        }
      ],
      "name": "upgradeToAndCall",
      "outputs": [],
      "stateMutability": "payable",
      "type": "function"
    },
    {
      "inputs": [
        {
          "internalType": "uint256",
          "name": "amount",
          "type": "uint256"
        }
      ],
      "name": "withdraw",
      "outputs": [],
      "stateMutability": "nonpayable",
      "type": "function"
    },
    {
      "inputs": [
        {
          "internalType": "address",
          "name": "to",
          "type": "address"
        },
        {
          "internalType": "uint256",
          "name": "amount",
          "type": "uint256"
        }
      ],
      "name": "withdrawTo",
      "outputs": [],
      "stateMutability": "nonpayable",
      "type": "function"
    }
  ],
  "numDeployments": 1,
  "solcInputHash": "f33b14547b0d00627d6d8317e3ad8812",
  "bytecode": "0x60a0604052306080523480156200001557600080fd5b50600054610100900460ff1615808015620000375750600054600160ff909116105b8062000067575062000054306200014160201b620021971760201c565b15801562000067575060005460ff166001145b620000cf5760405162461bcd60e51b815260206004820152602e60248201527f496e697469616c697a61626c653a20636f6e747261637420697320616c72656160448201526d191e481a5b9a5d1a585b1a5e995960921b606482015260840160405180910390fd5b6000805460ff191660011790558015620000f3576000805461ff0019166101001790555b80156200013a576000805461ff0019169055604051600181527f7f26b83ff96e1f2b6a682f133852f6798a09c465da95921460cefb38474024989060200160405180910390a15b5062000150565b6001600160a01b03163b151590565b6080516147476200018860003960008181610ef601528181610f8c015281816111880152818161121e015261131901526147476000f3fe6080604052600436106102c65760003560e01c8063776d62f611610179578063b6b55f25116100d6578063d93db24f1161008a578063f02fa73d11610064578063f02fa73d1461084a578063f2fde38b1461086a578063ffaad6a51461088a57600080fd5b8063d93db24f146107aa578063dc6b4501146107e1578063e985e9c51461080157600080fd5b8063c29a6fda116100bb578063c29a6fda1461072c578063c87b56dd1461074c578063ce0d0ca01461076c57600080fd5b8063b6b55f25146106ec578063b88d4fde1461070c57600080fd5b806395d89b411161012d578063a22cb46511610112578063a22cb46514610693578063affe39c1146106b3578063affed0e0146106d557600080fd5b806395d89b411461065e578063a0faf51e1461067357600080fd5b80637a80760e1161015e5780637a80760e146105fd5780638b5a21431461061e5780638bd7bf3b1461063e57600080fd5b8063776d62f6146105c75780637a29349d146105dd57600080fd5b80633659cfe61161022757806362ae7e67116101db5780636ea80819116101c05780636ea808191461051957806370a082311461053957806375f3958c1461055957600080fd5b806362ae7e67146104d95780636352211e146104f957600080fd5b80634bf4cdcd1161020c5780634bf4cdcd146104835780634f1ef286146104b157806352d1902d146104c457600080fd5b80633659cfe61461044357806342842e0e1461046357600080fd5b806318fd89031161027e57806322284de61161026357806322284de6146103e357806323b872dd146104035780632e1a7d4d1461042357600080fd5b806318fd8903146103a3578063205c2878146103c357600080fd5b8063081812fc116102af578063081812fc14610322578063095ea7b31461035a5780630c3515ba1461037c57600080fd5b806301ffc9a7146102cb57806306fdde0314610300575b600080fd5b3480156102d757600080fd5b506102eb6102e6366004613eac565b6108aa565b60405190151581526020015b60405180910390f35b34801561030c57600080fd5b5061031561098f565b6040516102f79190613f21565b34801561032e57600080fd5b5061034261033d366004613f34565b610a21565b6040516001600160a01b0390911681526020016102f7565b34801561036657600080fd5b5061037a610375366004613f69565b610a48565b005b34801561038857600080fd5b50610391600581565b60405160ff90911681526020016102f7565b3480156103af57600080fd5b5061037a6103be366004613f93565b610b7f565b3480156103cf57600080fd5b5061037a6103de366004613f69565b610d33565b3480156103ef57600080fd5b5061037a6103fe366004613f34565b610d8d565b34801561040f57600080fd5b5061037a61041e366004613fc6565b610e0b565b34801561042f57600080fd5b5061037a61043e366004613f34565b610e92565b34801561044f57600080fd5b5061037a61045e366004614002565b610eeb565b34801561046f57600080fd5b5061037a61047e366004613fc6565b611089565b34801561048f57600080fd5b506104a361049e3660046140d4565b6110a4565b6040519081526020016102f7565b61037a6104bf366004614119565b61117d565b3480156104d057600080fd5b506104a361130c565b3480156104e557600080fd5b506104a36104f4366004614167565b6113d1565b34801561050557600080fd5b50610342610514366004613f34565b61142e565b34801561052557600080fd5b506104a3610534366004613f93565b611493565b34801561054557600080fd5b506104a3610554366004614002565b6114f9565b34801561056557600080fd5b506104a3610574366004613f34565b6040517f19457468657265756d205369676e6564204d6573736167653a0a3332000000006020820152603c8101829052600090605c01604051602081830303815290604052805190602001209050919050565b3480156105d357600080fd5b5061010a546104a3565b3480156105e957600080fd5b506101025461039190610100900460ff1681565b34801561060957600080fd5b5061010554610342906001600160a01b031681565b34801561062a57600080fd5b5061037a6106393660046141e2565b611593565b34801561064a57600080fd5b506104a3610659366004613f93565b6118c9565b34801561066a57600080fd5b5061031561192f565b34801561067f57600080fd5b506104a361068e366004614167565b61193e565b34801561069f57600080fd5b5061037a6106ae3660046142b2565b611a18565b3480156106bf57600080fd5b506106c8611a23565b6040516102f791906142e9565b3480156106e157600080fd5b506104a36101045481565b3480156106f857600080fd5b5061037a610707366004613f34565b611a68565b34801561071857600080fd5b5061037a610727366004614323565b611ab7565b34801561073857600080fd5b5061037a610747366004614002565b611b45565b34801561075857600080fd5b50610315610767366004613f34565b611bed565b34801561077857600080fd5b5061079d610787366004613f34565b6101036020526000908152604090205460ff1681565b6040516102f791906143a1565b3480156107b657600080fd5b506104a36107c5366004614002565b6001600160a01b0316600090815261010d602052604090205490565b3480156107ed57600080fd5b5061037a6107fc366004613f93565b611c97565b34801561080d57600080fd5b506102eb61081c3660046143c9565b6001600160a01b039182166000908152606a6020908152604080832093909416825291909152205460ff1690565b34801561085657600080fd5b5061037a61086536600461440d565b611e15565b34801561087657600080fd5b5061037a610885366004614002565b611fbb565b34801561089657600080fd5b5061037a6108a5366004613f69565b612148565b60007fffffffff0000000000000000000000000000000000000000000000000000000082167f80ac58cd00000000000000000000000000000000000000000000000000000000148061093d57507fffffffff0000000000000000000000000000000000000000000000000000000082167f5b5e139f00000000000000000000000000000000000000000000000000000000145b8061098957507f01ffc9a7000000000000000000000000000000000000000000000000000000007fffffffff000000000000000000000000000000000000000000000000000000008316145b92915050565b60606065805461099e90614503565b80601f01602080910402602001604051908101604052809291908181526020018280546109ca90614503565b8015610a175780601f106109ec57610100808354040283529160200191610a17565b820191906000526020600020905b8154815290600101906020018083116109fa57829003601f168201915b5050505050905090565b6000610a2c826121a6565b506000908152606960205260409020546001600160a01b031690565b6000610a538261142e565b9050806001600160a01b0316836001600160a01b03161415610ae25760405162461bcd60e51b815260206004820152602160248201527f4552433732313a20617070726f76616c20746f2063757272656e74206f776e6560448201527f720000000000000000000000000000000000000000000000000000000000000060648201526084015b60405180910390fd5b336001600160a01b0382161480610afe5750610afe813361081c565b610b705760405162461bcd60e51b815260206004820152603e60248201527f4552433732313a20617070726f76652063616c6c6572206973206e6f7420746f60448201527f6b656e206f776e6572206e6f7220617070726f76656420666f7220616c6c00006064820152608401610ad9565b610b7a838361220a565b505050565b6101075415610bbe5760405162461bcd60e51b815260206004820152600b60248201526a115b198e881313d0d2d15160aa1b6044820152606401610ad9565b600161010755610bd26105748484846118c9565b60016000828152610103602052604090205460ff166003811115610bf857610bf861438b565b14610c6b5760405162461bcd60e51b815260206004820152603060248201527f536166654f776e61626c655570677261646561626c653a206f7065726174696f60448201527f6e206e6f7420696e2070656e64696e67000000000000000000000000000000006064820152608401610ad9565b600081815261010360209081526040808320805460ff191660021790556001600160a01b038716835261010d909152902054831115610cec5760405162461bcd60e51b815260206004820152601e60248201527f456c663a20496e73756666696369656e7420757365722062616c616e636500006044820152606401610ad9565b6001600160a01b038416600090815261010d602052604081208054859290610d15908490614554565b90915550610d27905084846000612285565b50506000610107555050565b6101075415610d725760405162461bcd60e51b815260206004820152600b60248201526a115b198e881313d0d2d15160aa1b6044820152606401610ad9565b600161010755610d833383836124f6565b5050600061010755565b336000908152610101602052604090205460ff16610e055760405162461bcd60e51b815260206004820152602f60248201527f536166654f776e61626c655570677261646561626c653a2063616c6c6572206960448201526e39903737ba103a34329037bbb732b960891b6064820152608401610ad9565b61010a55565b610e1533826126b9565b610e875760405162461bcd60e51b815260206004820152602e60248201527f4552433732313a2063616c6c6572206973206e6f7420746f6b656e206f776e6560448201527f72206e6f7220617070726f7665640000000000000000000000000000000000006064820152608401610ad9565b610b7a838383612737565b6101075415610ed15760405162461bcd60e51b815260206004820152600b60248201526a115b198e881313d0d2d15160aa1b6044820152606401610ad9565b600161010755610ee23333836124f6565b50600061010755565b306001600160a01b037f0000000000000000000000000000000000000000000000000000000000000000161415610f8a5760405162461bcd60e51b815260206004820152602c60248201527f46756e6374696f6e206d7573742062652063616c6c6564207468726f7567682060448201527f64656c656761746563616c6c00000000000000000000000000000000000000006064820152608401610ad9565b7f00000000000000000000000000000000000000000000000000000000000000006001600160a01b0316610fe57f360894a13ba1a3210667c828492db98dca3e2076cc3735a920a3ca505d382bbc546001600160a01b031690565b6001600160a01b0316146110615760405162461bcd60e51b815260206004820152602c60248201527f46756e6374696f6e206d7573742062652063616c6c6564207468726f7567682060448201527f6163746976652070726f787900000000000000000000000000000000000000006064820152608401610ad9565b61106a81612911565b6040805160008082526020820190925261108691839190612989565b50565b610b7a83838360405180602001604052806000815250611ab7565b600061010a5461010d60006110b63390565b6001600160a01b03166001600160a01b031681526020019081526020016000205410156111255760405162461bcd60e51b815260206004820152601a60248201527f456c663a20496e73756666696369656e74206465706f736974730000000000006044820152606401610ad9565b61010a5433600090815261010d602052604081208054909190611149908490614554565b909155505061010a5461010b805460009061116590849061456b565b909155506111769050338484612b38565b9392505050565b306001600160a01b037f000000000000000000000000000000000000000000000000000000000000000016141561121c5760405162461bcd60e51b815260206004820152602c60248201527f46756e6374696f6e206d7573742062652063616c6c6564207468726f7567682060448201527f64656c656761746563616c6c00000000000000000000000000000000000000006064820152608401610ad9565b7f00000000000000000000000000000000000000000000000000000000000000006001600160a01b03166112777f360894a13ba1a3210667c828492db98dca3e2076cc3735a920a3ca505d382bbc546001600160a01b031690565b6001600160a01b0316146112f35760405162461bcd60e51b815260206004820152602c60248201527f46756e6374696f6e206d7573742062652063616c6c6564207468726f7567682060448201527f6163746976652070726f787900000000000000000000000000000000000000006064820152608401610ad9565b6112fc82612911565b61130882826001612989565b5050565b6000306001600160a01b037f000000000000000000000000000000000000000000000000000000000000000016146113ac5760405162461bcd60e51b815260206004820152603860248201527f555550535570677261646561626c653a206d757374206e6f742062652063616c60448201527f6c6564207468726f7567682064656c656761746563616c6c00000000000000006064820152608401610ad9565b507f360894a13ba1a3210667c828492db98dca3e2076cc3735a920a3ca505d382bbc90565b6000610106547f3815ce62889cc7a128f8b6e58ece8a988c71bdd07dec95430895aea77e825c4585858560405160200161140f959493929190614583565b6040516020818303038152906040528051906020012090509392505050565b6000818152606760205260408120546001600160a01b0316806109895760405162461bcd60e51b815260206004820152601860248201527f4552433732313a20696e76616c696420746f6b656e20494400000000000000006044820152606401610ad9565b610106546040805160208101929092527f6147566a9de12cd78d3b04221dc654637e92d73ad3a4c44cc89b06c4019ff4aa90820152606084811b6bffffffffffffffffffffffff191690820152607481018390526094810182905260009060b40161140f565b60006001600160a01b0382166115775760405162461bcd60e51b815260206004820152602960248201527f4552433732313a2061646472657373207a65726f206973206e6f74206120766160448201527f6c6964206f776e657200000000000000000000000000000000000000000000006064820152608401610ad9565b506001600160a01b031660009081526068602052604090205490565b8181600061159f613dc7565b336000908152610101602052604090205460ff161561160c57816115c2816145d0565b92505060018161010160006115d43390565b6001600160a01b0316815260208101919091526040016000205460ff1660068110611601576116016145f0565b911515602090920201525b60005b83518160ff16101561174d57600061164c858360ff1681518110611635576116356145f0565b602002602001015187612c8590919063ffffffff16565b6001600160a01b0381166000908152610101602052604090205490915060ff16806116df5760405162461bcd60e51b815260206004820152602b60248201527f536166654f776e61626c655570677261646561626c653a207369676e6572206960448201527f73206e6f74206f776e65720000000000000000000000000000000000000000006064820152608401610ad9565b838160ff16600681106116f4576116f46145f0565b602002015115156001141561170a57505061173b565b6001848260ff1660068110611721576117216145f0565b9115156020909202015284611735816145d0565b95505050505b80611745816145d0565b91505061160f565b506101025460ff610100909104811690831610156117d35760405162461bcd60e51b815260206004820152602a60248201527f536166654f776e61626c655570677261646561626c653a206e6f20656e6f756760448201527f6820636f6e6669726d73000000000000000000000000000000000000000000006064820152608401610ad9565b61010480549060006117e483614606565b90915550506000868152610103602052604081205460ff16600381111561180d5761180d61438b565b146118805760405162461bcd60e51b815260206004820152603760248201527f536166654f776e61626c655570677261646561626c653a206f7065726174696f60448201527f6e20776173206e6f74207375626d6974746564207965740000000000000000006064820152608401610ad9565b60008681526101036020526040808220805460ff191660011790555187917f33775024b20f211f019e50305c897b2105edc4642384143897ac170fb37f54a191a2505050505050565b610106546040805160208101929092527f410085df54bf273a749e521cef84e728e697569a719b84888672469ca66d58d490820152606084811b6bffffffffffffffffffffffff191690820152607481018390526094810182905260009060b40161140f565b60606066805461099e90614503565b600061010a5461010d60006119503390565b6001600160a01b03166001600160a01b031681526020019081526020016000205410156119bf5760405162461bcd60e51b815260206004820152601a60248201527f456c663a20496e73756666696369656e74206465706f736974730000000000006044820152606401610ad9565b61010a5433600090815261010d6020526040812080549091906119e3908490614554565b909155505061010a5461010b80546000906119ff90849061456b565b90915550611a109050848484612b38565b949350505050565b611308338383612ca9565b611a2b613dc7565b6040805160c08101918290529060fb9060069082845b81546001600160a01b03168152600190910190602001808311611a41575050505050905090565b6101075415611aa75760405162461bcd60e51b815260206004820152600b60248201526a115b198e881313d0d2d15160aa1b6044820152606401610ad9565b600161010755610ee23382612d78565b611ac133836126b9565b611b335760405162461bcd60e51b815260206004820152602e60248201527f4552433732313a2063616c6c6572206973206e6f7420746f6b656e206f776e6560448201527f72206e6f7220617070726f7665640000000000000000000000000000000000006064820152608401610ad9565b611b3f84848484612f02565b50505050565b336000908152610101602052604090205460ff16611bbd5760405162461bcd60e51b815260206004820152602f60248201527f536166654f776e61626c655570677261646561626c653a2063616c6c6572206960448201526e39903737ba103a34329037bbb732b960891b6064820152608401610ad9565b610105805473ffffffffffffffffffffffffffffffffffffffff19166001600160a01b0392909216919091179055565b6060611bf8826121a6565b600082815261010c602052604090208054611c1290614503565b80601f0160208091040260200160405190810160405280929190818152602001828054611c3e90614503565b8015611c8b5780601f10611c6057610100808354040283529160200191611c8b565b820191906000526020600020905b815481529060010190602001808311611c6e57829003601f168201915b50505050509050919050565b6101075415611cd65760405162461bcd60e51b815260206004820152600b60248201526a115b198e881313d0d2d15160aa1b6044820152606401610ad9565b600161010755611cea610574848484611493565b60016000828152610103602052604090205460ff166003811115611d1057611d1061438b565b14611d835760405162461bcd60e51b815260206004820152603060248201527f536166654f776e61626c655570677261646561626c653a206f7065726174696f60448201527f6e206e6f7420696e2070656e64696e67000000000000000000000000000000006064820152608401610ad9565b600081815261010360205260409020805460ff1916600217905561010b54831115611df05760405162461bcd60e51b815260206004820152601c60248201527f456c663a20496e73756666696369656e74206174446973706f73616c000000006044820152606401610ad9565b8261010b6000828254611e039190614554565b90915550610d27905084846001612285565b600054610100900460ff1615808015611e355750600054600160ff909116105b80611e4f5750303b158015611e4f575060005460ff166001145b611ec15760405162461bcd60e51b815260206004820152602e60248201527f496e697469616c697a61626c653a20636f6e747261637420697320616c72656160448201527f647920696e697469616c697a65640000000000000000000000000000000000006064820152608401610ad9565b6000805460ff191660011790558015611ee4576000805461ff0019166101001790555b611eee8585612f8b565b611ef88383613000565b611f00613386565b7fb8aa581effc4a2e306a38dbac6542b2a4b0d933abccc3bfc5d8d811df1608302611f2961098f565b805160209182012060408051928301939093529181019190915246606082015230608082015260a00160408051601f198184030181529190528051602090910120610106558015611fb4576000805461ff0019169055604051600181527f7f26b83ff96e1f2b6a682f133852f6798a09c465da95921460cefb38474024989060200160405180910390a15b5050505050565b336000908152610101602052604090205460ff166120335760405162461bcd60e51b815260206004820152602f60248201527f536166654f776e61626c655570677261646561626c653a2063616c6c6572206960448201526e39903737ba103a34329037bbb732b960891b6064820152608401610ad9565b6001600160a01b0381166120af5760405162461bcd60e51b815260206004820152603560248201527f536166654f776e61626c655570677261646561626c653a206e6577206f776e6560448201527f7220697320746865207a65726f206164647265737300000000000000000000006064820152608401610ad9565b6001600160a01b0381166000908152610101602052604090205460ff161561213f5760405162461bcd60e51b815260206004820152603060248201527f536166654f776e61626c655570677261646561626c653a206e6577206f776e6560448201527f7220616c726561647920657869737473000000000000000000000000000000006064820152608401610ad9565b611086816133f3565b61010754156121875760405162461bcd60e51b815260206004820152600b60248201526a115b198e881313d0d2d15160aa1b6044820152606401610ad9565b600161010755610d838282612d78565b6001600160a01b03163b151590565b6000818152606760205260409020546001600160a01b03166110865760405162461bcd60e51b815260206004820152601860248201527f4552433732313a20696e76616c696420746f6b656e20494400000000000000006044820152606401610ad9565b6000818152606960205260409020805473ffffffffffffffffffffffffffffffffffffffff19166001600160a01b038416908117909155819061224c8261142e565b6001600160a01b03167f8c5be1e5ebec7d5bd14f71427d1e84f3dd0314c0f7b2291e5b200ac8c7c3b92560405160405180910390a45050565b336000908152610101602052604090205460ff166122fd5760405162461bcd60e51b815260206004820152602f60248201527f536166654f776e61626c655570677261646561626c653a2063616c6c6572206960448201526e39903737ba103a34329037bbb732b960891b6064820152608401610ad9565b6000821161234d5760405162461bcd60e51b815260206004820152601360248201527f456c663a20616d6f756e74206973207a65726f000000000000000000000000006044820152606401610ad9565b610105546040517f70a0823100000000000000000000000000000000000000000000000000000000815230600482015283916001600160a01b0316906370a082319060240160206040518083038186803b1580156123aa57600080fd5b505afa1580156123be573d6000803e3d6000fd5b505050506040513d601f19601f820116820180604052508101906123e2919061463f565b101561240a5760405162461bcd60e51b81526020600482015260006024820152604401610ad9565b610105546040517fa9059cbb0000000000000000000000000000000000000000000000000000000081526001600160a01b038581166004830152602482018590529091169063a9059cbb90604401602060405180830381600087803b15801561247257600080fd5b505af1158015612486573d6000803e3d6000fd5b505050506040513d601f19601f820116820180604052508101906124aa9190614658565b506040805183815282151560208201526001600160a01b038516917f9ec8fd4891b49aae8ecb56892e6d93818739f52bac238fa16de2076fc8c1790c91015b60405180910390a2505050565b600081116125465760405162461bcd60e51b815260206004820152601360248201527f456c663a20616d6f756e74206973207a65726f000000000000000000000000006044820152606401610ad9565b6001600160a01b038316600090815261010d60205260409020548111156125af5760405162461bcd60e51b815260206004820152601960248201527f456c663a20496e73756666696369656e742062616c616e6365000000000000006044820152606401610ad9565b6001600160a01b038316600090815261010d6020526040812080548392906125d8908490614554565b9091555050610105546040517fa9059cbb0000000000000000000000000000000000000000000000000000000081526001600160a01b038481166004830152602482018490529091169063a9059cbb90604401602060405180830381600087803b15801561264557600080fd5b505af1158015612659573d6000803e3d6000fd5b505050506040513d601f19601f8201168201806040525081019061267d9190614658565b50816001600160a01b03167f884edad9ce6fa2440d8a54cc123490eb96d2768479d49ff9c7366125a9424364826040516124e991815260200190565b6000806126c58361142e565b9050806001600160a01b0316846001600160a01b0316148061270c57506001600160a01b038082166000908152606a602090815260408083209388168352929052205460ff165b80611a105750836001600160a01b031661272584610a21565b6001600160a01b031614949350505050565b826001600160a01b031661274a8261142e565b6001600160a01b0316146127c65760405162461bcd60e51b815260206004820152602560248201527f4552433732313a207472616e736665722066726f6d20696e636f72726563742060448201527f6f776e65720000000000000000000000000000000000000000000000000000006064820152608401610ad9565b6001600160a01b0382166128415760405162461bcd60e51b8152602060048201526024808201527f4552433732313a207472616e7366657220746f20746865207a65726f2061646460448201527f72657373000000000000000000000000000000000000000000000000000000006064820152608401610ad9565b61284c60008261220a565b6001600160a01b0383166000908152606860205260408120805460019290612875908490614554565b90915550506001600160a01b03821660009081526068602052604081208054600192906128a390849061456b565b9091555050600081815260676020526040808220805473ffffffffffffffffffffffffffffffffffffffff19166001600160a01b0386811691821790925591518493918716917fddf252ad1be2c89b69c2b068fc378daa952ba7f163c4a11628f55a4df523b3ef91a4505050565b336000908152610101602052604090205460ff166110865760405162461bcd60e51b815260206004820152602f60248201527f536166654f776e61626c655570677261646561626c653a2063616c6c6572206960448201526e39903737ba103a34329037bbb732b960891b6064820152608401610ad9565b7f4910fdfa16fed3260ed0e7147f7cc6da11a60208b5b9406d12a635614ffd91435460ff16156129bc57610b7a836134a1565b826001600160a01b03166352d1902d6040518163ffffffff1660e01b815260040160206040518083038186803b1580156129f557600080fd5b505afa925050508015612a25575060408051601f3d908101601f19168201909252612a229181019061463f565b60015b612a975760405162461bcd60e51b815260206004820152602e60248201527f45524331393637557067726164653a206e657720696d706c656d656e7461746960448201527f6f6e206973206e6f7420555550530000000000000000000000000000000000006064820152608401610ad9565b7f360894a13ba1a3210667c828492db98dca3e2076cc3735a920a3ca505d382bbc8114612b2c5760405162461bcd60e51b815260206004820152602960248201527f45524331393637557067726164653a20756e737570706f727465642070726f7860448201527f6961626c655555494400000000000000000000000000000000000000000000006064820152608401610ad9565b50610b7a83838361356c565b6000612b486105748585856113d1565b60016000828152610103602052604090205460ff166003811115612b6e57612b6e61438b565b14612be15760405162461bcd60e51b815260206004820152603060248201527f536166654f776e61626c655570677261646561626c653a206f7065726174696f60448201527f6e206e6f7420696e2070656e64696e67000000000000000000000000000000006064820152608401610ad9565b600081815261010360205260409020805460ff1916600217905561010854612c098682613591565b600081815261010c602090815260409091208651612c2992880190613de5565b50612c3961010880546001019055565b856001600160a01b03167fd8406a18b0c7572d0adae5f0a479d5d802035e2c506e9353b092d25997f61a6282604051612c7491815260200190565b60405180910390a295945050505050565b6000806000612c9485856136e0565b91509150612ca181613726565b509392505050565b816001600160a01b0316836001600160a01b03161415612d0b5760405162461bcd60e51b815260206004820152601960248201527f4552433732313a20617070726f766520746f2063616c6c6572000000000000006044820152606401610ad9565b6001600160a01b038381166000818152606a6020908152604080832094871680845294825291829020805460ff191686151590811790915591519182527f17307eab39ab6107e8899845ad3d59bd9653f200f220920489ca2b5937696c31910160405180910390a3505050565b60008111612dc85760405162461bcd60e51b815260206004820152601360248201527f456c663a20416d6f756e74206973207a65726f000000000000000000000000006044820152606401610ad9565b610105546001600160a01b03166323b872dd336040517fffffffff0000000000000000000000000000000000000000000000000000000060e084901b1681526001600160a01b03909116600482015230602482015260448101849052606401602060405180830381600087803b158015612e4157600080fd5b505af1158015612e55573d6000803e3d6000fd5b505050506040513d601f19601f82011682018060405250810190612e799190614658565b50806101096000828254612e8d919061456b565b90915550506001600160a01b038216600090815261010d602052604081208054839290612ebb90849061456b565b90915550506040518181526001600160a01b038316907fe1fffcc4923d04b559f4d29a8bfc6cda04eb5b0d3c460751c2402c5c5cc9109c9060200160405180910390a25050565b612f0d848484612737565b612f1984848484613917565b611b3f5760405162461bcd60e51b815260206004820152603260248201527f4552433732313a207472616e7366657220746f206e6f6e20455243373231526560448201527f63656976657220696d706c656d656e74657200000000000000000000000000006064820152608401610ad9565b600054610100900460ff16612ff65760405162461bcd60e51b815260206004820152602b60248201527f496e697469616c697a61626c653a20636f6e7472616374206973206e6f74206960448201526a6e697469616c697a696e6760a81b6064820152608401610ad9565b6113088282613ac4565b600054610100900460ff1661306b5760405162461bcd60e51b815260206004820152602b60248201527f496e697469616c697a61626c653a20636f6e7472616374206973206e6f74206960448201526a6e697469616c697a696e6760a81b6064820152608401610ad9565b8151600510156130e35760405162461bcd60e51b815260206004820152603360248201527f536166654f776e61626c655570677261646561626c653a657863656564206d6160448201527f78696d756d206e756d626572206f776e657273000000000000000000000000006064820152608401610ad9565b60ff81166131595760405162461bcd60e51b815260206004820152602c60248201527f536166654f776e61626c655570677261646561626c653a207369676e5265717560448201527f69726564206973207a65726f00000000000000000000000000000000000000006064820152608401610ad9565b610102805461ff00191661010060ff84160217905560005b825181101561330157600083828151811061318e5761318e6145f0565b6020908102919091018101516001600160a01b038116600090815261010190925260409091205490915060ff161561322e5760405162461bcd60e51b815260206004820152602c60248201527f536166654f776e61626c655570677261646561626c653a206f776e657220616c60448201527f72656164792065786973747300000000000000000000000000000000000000006064820152608401610ad9565b6101028054829160fb916000906132479060ff166145d0565b91906101000a81548160ff021916908360ff160217905560ff1660068110613271576132716145f0565b0180546001600160a01b0392831673ffffffffffffffffffffffffffffffffffffffff199091161790556101025490821660008181526101016020526040808220805460ff191660ff9095169490941790935591519091907f8be0079c531659141344cd1fd0a4f28419497f9722a3daafe3b4186f6b6457e0908290a350806132f981614606565b915050613171565b506101025460ff8082166101009092041611156113085760405162461bcd60e51b815260206004820152603560248201527f536166654f776e61626c655570677261646561626c653a206f776e657273206c60448201527f657373207468616e207369676e526571756972656400000000000000000000006064820152608401610ad9565b600054610100900460ff166133f15760405162461bcd60e51b815260206004820152602b60248201527f496e697469616c697a61626c653a20636f6e7472616374206973206e6f74206960448201526a6e697469616c697a696e6760a81b6064820152608401610ad9565b565b336000818152610101602052604090205460ff168260fb826006811061341b5761341b6145f0565b01805473ffffffffffffffffffffffffffffffffffffffff19166001600160a01b0392831617905582811660008181526101016020526040808220805460ff19908116909155938716808352818320805490951660ff871617909455517f8be0079c531659141344cd1fd0a4f28419497f9722a3daafe3b4186f6b6457e09190a3505050565b6001600160a01b0381163b61351e5760405162461bcd60e51b815260206004820152602d60248201527f455243313936373a206e657720696d706c656d656e746174696f6e206973206e60448201527f6f74206120636f6e7472616374000000000000000000000000000000000000006064820152608401610ad9565b7f360894a13ba1a3210667c828492db98dca3e2076cc3735a920a3ca505d382bbc805473ffffffffffffffffffffffffffffffffffffffff19166001600160a01b0392909216919091179055565b61357583613b56565b6000825111806135825750805b15610b7a57611b3f8383613b96565b6001600160a01b0382166135e75760405162461bcd60e51b815260206004820181905260248201527f4552433732313a206d696e7420746f20746865207a65726f20616464726573736044820152606401610ad9565b6000818152606760205260409020546001600160a01b03161561364c5760405162461bcd60e51b815260206004820152601c60248201527f4552433732313a20746f6b656e20616c7265616479206d696e746564000000006044820152606401610ad9565b6001600160a01b038216600090815260686020526040812080546001929061367590849061456b565b9091555050600081815260676020526040808220805473ffffffffffffffffffffffffffffffffffffffff19166001600160a01b03861690811790915590518392907fddf252ad1be2c89b69c2b068fc378daa952ba7f163c4a11628f55a4df523b3ef908290a45050565b6000808251604114156137175760208301516040840151606085015160001a61370b87828585613ca1565b9450945050505061371f565b506000905060025b9250929050565b600081600481111561373a5761373a61438b565b14156137435750565b60018160048111156137575761375761438b565b14156137a55760405162461bcd60e51b815260206004820152601860248201527f45434453413a20696e76616c6964207369676e617475726500000000000000006044820152606401610ad9565b60028160048111156137b9576137b961438b565b14156138075760405162461bcd60e51b815260206004820152601f60248201527f45434453413a20696e76616c6964207369676e6174757265206c656e677468006044820152606401610ad9565b600381600481111561381b5761381b61438b565b141561388f5760405162461bcd60e51b815260206004820152602260248201527f45434453413a20696e76616c6964207369676e6174757265202773272076616c60448201527f75650000000000000000000000000000000000000000000000000000000000006064820152608401610ad9565b60048160048111156138a3576138a361438b565b14156110865760405162461bcd60e51b815260206004820152602260248201527f45434453413a20696e76616c6964207369676e6174757265202776272076616c60448201527f75650000000000000000000000000000000000000000000000000000000000006064820152608401610ad9565b60006001600160a01b0384163b15613ab9576040517f150b7a020000000000000000000000000000000000000000000000000000000081526001600160a01b0385169063150b7a0290613974903390899088908890600401614675565b602060405180830381600087803b15801561398e57600080fd5b505af19250505080156139be575060408051601f3d908101601f191682019092526139bb918101906146b1565b60015b613a6e573d8080156139ec576040519150601f19603f3d011682016040523d82523d6000602084013e6139f1565b606091505b508051613a665760405162461bcd60e51b815260206004820152603260248201527f4552433732313a207472616e7366657220746f206e6f6e20455243373231526560448201527f63656976657220696d706c656d656e74657200000000000000000000000000006064820152608401610ad9565b805181602001fd5b7fffffffff00000000000000000000000000000000000000000000000000000000167f150b7a0200000000000000000000000000000000000000000000000000000000149050611a10565b506001949350505050565b600054610100900460ff16613b2f5760405162461bcd60e51b815260206004820152602b60248201527f496e697469616c697a61626c653a20636f6e7472616374206973206e6f74206960448201526a6e697469616c697a696e6760a81b6064820152608401610ad9565b8151613b42906065906020850190613de5565b508051610b7a906066906020840190613de5565b613b5f816134a1565b6040516001600160a01b038216907fbc7cd75a20ee27fd9adebab32041f755214dbc6bffa90cc0225b39da2e5c2d3b90600090a250565b60606001600160a01b0383163b613c155760405162461bcd60e51b815260206004820152602660248201527f416464726573733a2064656c65676174652063616c6c20746f206e6f6e2d636f60448201527f6e747261637400000000000000000000000000000000000000000000000000006064820152608401610ad9565b600080846001600160a01b031684604051613c3091906146ce565b600060405180830381855af49150503d8060008114613c6b576040519150601f19603f3d011682016040523d82523d6000602084013e613c70565b606091505b5091509150613c9882826040518060600160405280602781526020016146eb60279139613d8e565b95945050505050565b6000807f7fffffffffffffffffffffffffffffff5d576e7357a4501ddfe92f46681b20a0831115613cd85750600090506003613d85565b8460ff16601b14158015613cf057508460ff16601c14155b15613d015750600090506004613d85565b6040805160008082526020820180845289905260ff881692820192909252606081018690526080810185905260019060a0016020604051602081039080840390855afa158015613d55573d6000803e3d6000fd5b5050604051601f1901519150506001600160a01b038116613d7e57600060019250925050613d85565b9150600090505b94509492505050565b60608315613d9d575081611176565b825115613dad5782518084602001fd5b8160405162461bcd60e51b8152600401610ad99190613f21565b6040518060c001604052806006906020820280368337509192915050565b828054613df190614503565b90600052602060002090601f016020900481019282613e135760008555613e59565b82601f10613e2c57805160ff1916838001178555613e59565b82800160010185558215613e59579182015b82811115613e59578251825591602001919060010190613e3e565b50613e65929150613e69565b5090565b5b80821115613e655760008155600101613e6a565b7fffffffff000000000000000000000000000000000000000000000000000000008116811461108657600080fd5b600060208284031215613ebe57600080fd5b813561117681613e7e565b60005b83811015613ee4578181015183820152602001613ecc565b83811115611b3f5750506000910152565b60008151808452613f0d816020860160208601613ec9565b601f01601f19169290920160200192915050565b6020815260006111766020830184613ef5565b600060208284031215613f4657600080fd5b5035919050565b80356001600160a01b0381168114613f6457600080fd5b919050565b60008060408385031215613f7c57600080fd5b613f8583613f4d565b946020939093013593505050565b600080600060608486031215613fa857600080fd5b613fb184613f4d565b95602085013595506040909401359392505050565b600080600060608486031215613fdb57600080fd5b613fe484613f4d565b9250613ff260208501613f4d565b9150604084013590509250925092565b60006020828403121561401457600080fd5b61117682613f4d565b634e487b7160e01b600052604160045260246000fd5b604051601f8201601f1916810167ffffffffffffffff8111828210171561405c5761405c61401d565b604052919050565b600082601f83011261407557600080fd5b813567ffffffffffffffff81111561408f5761408f61401d565b6140a26020601f19601f84011601614033565b8181528460208386010111156140b757600080fd5b816020850160208301376000918101602001919091529392505050565b600080604083850312156140e757600080fd5b823567ffffffffffffffff8111156140fe57600080fd5b61410a85828601614064565b95602094909401359450505050565b6000806040838503121561412c57600080fd5b61413583613f4d565b9150602083013567ffffffffffffffff81111561415157600080fd5b61415d85828601614064565b9150509250929050565b60008060006060848603121561417c57600080fd5b61418584613f4d565b9250602084013567ffffffffffffffff8111156141a157600080fd5b6141ad86828701614064565b925050604084013590509250925092565b600067ffffffffffffffff8211156141d8576141d861401d565b5060051b60200190565b600080604083850312156141f557600080fd5b8235915060208084013567ffffffffffffffff8082111561421557600080fd5b818601915086601f83011261422957600080fd5b813561423c614237826141be565b614033565b81815260059190911b8301840190848101908983111561425b57600080fd5b8585015b83811015614293578035858111156142775760008081fd5b6142858c89838a0101614064565b84525091860191860161425f565b508096505050505050509250929050565b801515811461108657600080fd5b600080604083850312156142c557600080fd5b6142ce83613f4d565b915060208301356142de816142a4565b809150509250929050565b60c08101818360005b600681101561431a5781516001600160a01b03168352602092830192909101906001016142f2565b50505092915050565b6000806000806080858703121561433957600080fd5b61434285613f4d565b935061435060208601613f4d565b925060408501359150606085013567ffffffffffffffff81111561437357600080fd5b61437f87828801614064565b91505092959194509250565b634e487b7160e01b600052602160045260246000fd5b60208101600483106143c357634e487b7160e01b600052602160045260246000fd5b91905290565b600080604083850312156143dc57600080fd5b6143e583613f4d565b91506143f360208401613f4d565b90509250929050565b803560ff81168114613f6457600080fd5b6000806000806080858703121561442357600080fd5b843567ffffffffffffffff8082111561443b57600080fd5b61444788838901614064565b955060209150818701358181111561445e57600080fd5b61446a89828a01614064565b95505060408701358181111561447f57600080fd5b87019050601f8101881361449257600080fd5b80356144a0614237826141be565b81815260059190911b8201830190838101908a8311156144bf57600080fd5b928401925b828410156144e4576144d584613f4d565b825292840192908401906144c4565b80965050505050506144f8606086016143fc565b905092959194509250565b600181811c9082168061451757607f821691505b6020821081141561453857634e487b7160e01b600052602260045260246000fd5b50919050565b634e487b7160e01b600052601160045260246000fd5b6000828210156145665761456661453e565b500390565b6000821982111561457e5761457e61453e565b500190565b8581528460208201526bffffffffffffffffffffffff198460601b166040820152600083516145b9816054850160208801613ec9565b605492019182019290925260740195945050505050565b600060ff821660ff8114156145e7576145e761453e565b60010192915050565b634e487b7160e01b600052603260045260246000fd5b60007fffffffffffffffffffffffffffffffffffffffffffffffffffffffffffffffff8214156146385761463861453e565b5060010190565b60006020828403121561465157600080fd5b5051919050565b60006020828403121561466a57600080fd5b8151611176816142a4565b60006001600160a01b038087168352808616602084015250836040830152608060608301526146a76080830184613ef5565b9695505050505050565b6000602082840312156146c357600080fd5b815161117681613e7e565b600082516146e0818460208701613ec9565b919091019291505056fe416464726573733a206c6f772d6c6576656c2064656c65676174652063616c6c206661696c6564a2646970667358221220e7e39c5aa4b34f1df72939ff59d3ded0147dc41ee5190b59ddc370d924f3ef0364736f6c63430008090033",
  "devdoc": {
    "kind": "dev",
    "methods": {
      "approve(address,uint256)": {
        "details": "See {IERC721-approve}."
      },
      "balanceOf(address)": {
        "details": "See {IERC721-balanceOf}."
      },
      "constructor": {
        "custom:oz-upgrades-unsafe-allow": "constructor"
      },
      "getApproved(uint256)": {
        "details": "See {IERC721-getApproved}."
      },
      "isApprovedForAll(address,address)": {
        "details": "See {IERC721-isApprovedForAll}."
      },
      "name()": {
        "details": "See {IERC721Metadata-name}."
      },
      "ownerOf(uint256)": {
        "details": "See {IERC721-ownerOf}."
      },
      "proxiableUUID()": {
        "details": "Implementation of the ERC1822 {proxiableUUID} function. This returns the storage slot used by the implementation. It is used to validate that the this implementation remains valid after an upgrade. IMPORTANT: A proxy pointing at a proxiable contract should not be considered proxiable itself, because this risks bricking a proxy that upgrades to it, by delegating to itself until out of gas. Thus it is critical that this function revert if invoked through a proxy. This is guaranteed by the `notDelegated` modifier."
      },
      "safeTransferFrom(address,address,uint256)": {
        "details": "See {IERC721-safeTransferFrom}."
      },
      "safeTransferFrom(address,address,uint256,bytes)": {
        "details": "See {IERC721-safeTransferFrom}."
      },
      "setApprovalForAll(address,bool)": {
        "details": "See {IERC721-setApprovalForAll}."
      },
      "supportsInterface(bytes4)": {
        "details": "See {IERC165-supportsInterface}."
      },
      "symbol()": {
        "details": "See {IERC721Metadata-symbol}."
      },
      "tokenURI(uint256)": {
        "details": "See {IERC721Metadata-tokenURI}."
      },
      "transferFrom(address,address,uint256)": {
        "details": "See {IERC721-transferFrom}."
      },
      "transferOwnership(address)": {
        "details": "Transfers ownership of the contract to a new account (`newOwner`). Can only be called by the current owner."
      },
      "upgradeTo(address)": {
        "details": "Upgrade the implementation of the proxy to `newImplementation`. Calls {_authorizeUpgrade}. Emits an {Upgraded} event."
      },
      "upgradeToAndCall(address,bytes)": {
        "details": "Upgrade the implementation of the proxy to `newImplementation`, and subsequently execute the function call encoded in `data`. Calls {_authorizeUpgrade}. Emits an {Upgraded} event."
      }
    },
    "version": 1
  },
  "userdoc": {
    "kind": "user",
    "methods": {},
    "version": 1
  },
  "storageLayout": {
    "storage": [
      {
        "astId": 549,
        "contract": "contracts/ERC721/Elf.sol:VM3Elf",
        "label": "_initialized",
        "offset": 0,
        "slot": "0",
        "type": "t_uint8"
      },
      {
        "astId": 552,
        "contract": "contracts/ERC721/Elf.sol:VM3Elf",
        "label": "_initializing",
        "offset": 1,
        "slot": "0",
        "type": "t_bool"
      },
      {
        "astId": 2561,
        "contract": "contracts/ERC721/Elf.sol:VM3Elf",
        "label": "__gap",
        "offset": 0,
        "slot": "1",
        "type": "t_array(t_uint256)50_storage"
      },
      {
        "astId": 2891,
        "contract": "contracts/ERC721/Elf.sol:VM3Elf",
        "label": "__gap",
        "offset": 0,
        "slot": "51",
        "type": "t_array(t_uint256)50_storage"
      },
      {
        "astId": 1253,
        "contract": "contracts/ERC721/Elf.sol:VM3Elf",
        "label": "_name",
        "offset": 0,
        "slot": "101",
        "type": "t_string_storage"
      },
      {
        "astId": 1255,
        "contract": "contracts/ERC721/Elf.sol:VM3Elf",
        "label": "_symbol",
        "offset": 0,
        "slot": "102",
        "type": "t_string_storage"
      },
      {
        "astId": 1259,
        "contract": "contracts/ERC721/Elf.sol:VM3Elf",
        "label": "_owners",
        "offset": 0,
        "slot": "103",
        "type": "t_mapping(t_uint256,t_address)"
      },
      {
        "astId": 1263,
        "contract": "contracts/ERC721/Elf.sol:VM3Elf",
        "label": "_balances",
        "offset": 0,
        "slot": "104",
        "type": "t_mapping(t_address,t_uint256)"
      },
      {
        "astId": 1267,
        "contract": "contracts/ERC721/Elf.sol:VM3Elf",
        "label": "_tokenApprovals",
        "offset": 0,
        "slot": "105",
        "type": "t_mapping(t_uint256,t_address)"
      },
      {
        "astId": 1273,
        "contract": "contracts/ERC721/Elf.sol:VM3Elf",
        "label": "_operatorApprovals",
        "offset": 0,
        "slot": "106",
        "type": "t_mapping(t_address,t_mapping(t_address,t_bool))"
      },
      {
        "astId": 2115,
        "contract": "contracts/ERC721/Elf.sol:VM3Elf",
        "label": "__gap",
        "offset": 0,
        "slot": "107",
        "type": "t_array(t_uint256)44_storage"
      },
      {
        "astId": 531,
        "contract": "contracts/ERC721/Elf.sol:VM3Elf",
        "label": "__gap",
        "offset": 0,
        "slot": "151",
        "type": "t_array(t_uint256)50_storage"
      },
      {
        "astId": 828,
        "contract": "contracts/ERC721/Elf.sol:VM3Elf",
        "label": "__gap",
        "offset": 0,
        "slot": "201",
        "type": "t_array(t_uint256)50_storage"
      },
      {
        "astId": 6849,
        "contract": "contracts/ERC721/Elf.sol:VM3Elf",
        "label": "_owners",
        "offset": 0,
        "slot": "251",
        "type": "t_array(t_address)6_storage"
      },
      {
        "astId": 6853,
        "contract": "contracts/ERC721/Elf.sol:VM3Elf",
        "label": "_ownersIndex",
        "offset": 0,
        "slot": "257",
        "type": "t_mapping(t_address,t_uint8)"
      },
      {
        "astId": 6855,
        "contract": "contracts/ERC721/Elf.sol:VM3Elf",
        "label": "_numOwners",
        "offset": 0,
        "slot": "258",
        "type": "t_uint8"
      },
      {
        "astId": 6860,
        "contract": "contracts/ERC721/Elf.sol:VM3Elf",
        "label": "signRequired",
        "offset": 1,
        "slot": "258",
        "type": "t_uint8"
      },
      {
        "astId": 6865,
        "contract": "contracts/ERC721/Elf.sol:VM3Elf",
        "label": "operationsStatus",
        "offset": 0,
        "slot": "259",
        "type": "t_mapping(t_bytes32,t_enum(OpStatus)6845)"
      },
      {
        "astId": 6867,
        "contract": "contracts/ERC721/Elf.sol:VM3Elf",
        "label": "nonce",
        "offset": 0,
        "slot": "260",
        "type": "t_uint256"
      },
      {
        "astId": 12934,
        "contract": "contracts/ERC721/Elf.sol:VM3Elf",
        "label": "ERC20Token",
        "offset": 0,
        "slot": "261",
        "type": "t_contract(IERC20)3681"
      },
      {
        "astId": 12936,
        "contract": "contracts/ERC721/Elf.sol:VM3Elf",
        "label": "DOMAIN",
        "offset": 0,
        "slot": "262",
        "type": "t_bytes32"
      },
      {
        "astId": 12938,
        "contract": "contracts/ERC721/Elf.sol:VM3Elf",
        "label": "locked",
        "offset": 0,
        "slot": "263",
        "type": "t_uint256"
      },
      {
        "astId": 12940,
        "contract": "contracts/ERC721/Elf.sol:VM3Elf",
        "label": "_tokenIdCounter",
        "offset": 0,
        "slot": "264",
        "type": "t_uint256"
      },
      {
        "astId": 12942,
        "contract": "contracts/ERC721/Elf.sol:VM3Elf",
        "label": "totalERC20Token",
        "offset": 0,
        "slot": "265",
        "type": "t_uint256"
      },
      {
        "astId": 12944,
        "contract": "contracts/ERC721/Elf.sol:VM3Elf",
        "label": "_costs",
        "offset": 0,
        "slot": "266",
        "type": "t_uint256"
      },
      {
        "astId": 12946,
        "contract": "contracts/ERC721/Elf.sol:VM3Elf",
        "label": "atDisposal",
        "offset": 0,
        "slot": "267",
        "type": "t_uint256"
      },
      {
        "astId": 12950,
        "contract": "contracts/ERC721/Elf.sol:VM3Elf",
        "label": "_tokenURIs",
        "offset": 0,
        "slot": "268",
        "type": "t_mapping(t_uint256,t_string_storage)"
      },
      {
        "astId": 12954,
        "contract": "contracts/ERC721/Elf.sol:VM3Elf",
        "label": "_depositAmounts",
        "offset": 0,
        "slot": "269",
        "type": "t_mapping(t_address,t_uint256)"
      }
    ],
    "types": {
      "t_address": {
        "encoding": "inplace",
        "label": "address",
        "numberOfBytes": "20"
      },
      "t_array(t_address)6_storage": {
        "base": "t_address",
        "encoding": "inplace",
        "label": "address[6]",
        "numberOfBytes": "192"
      },
      "t_array(t_uint256)44_storage": {
        "base": "t_uint256",
        "encoding": "inplace",
        "label": "uint256[44]",
        "numberOfBytes": "1408"
      },
      "t_array(t_uint256)50_storage": {
        "base": "t_uint256",
        "encoding": "inplace",
        "label": "uint256[50]",
        "numberOfBytes": "1600"
      },
      "t_bool": {
        "encoding": "inplace",
        "label": "bool",
        "numberOfBytes": "1"
      },
      "t_bytes32": {
        "encoding": "inplace",
        "label": "bytes32",
        "numberOfBytes": "32"
      },
      "t_contract(IERC20)3681": {
        "encoding": "inplace",
        "label": "contract IERC20",
        "numberOfBytes": "20"
      },
      "t_enum(OpStatus)6845": {
        "encoding": "inplace",
        "label": "enum SafeOwnableUpgradeable.OpStatus",
        "numberOfBytes": "1"
      },
      "t_mapping(t_address,t_bool)": {
        "encoding": "mapping",
        "key": "t_address",
        "label": "mapping(address => bool)",
        "numberOfBytes": "32",
        "value": "t_bool"
      },
      "t_mapping(t_address,t_mapping(t_address,t_bool))": {
        "encoding": "mapping",
        "key": "t_address",
        "label": "mapping(address => mapping(address => bool))",
        "numberOfBytes": "32",
        "value": "t_mapping(t_address,t_bool)"
      },
      "t_mapping(t_address,t_uint256)": {
        "encoding": "mapping",
        "key": "t_address",
        "label": "mapping(address => uint256)",
        "numberOfBytes": "32",
        "value": "t_uint256"
      },
      "t_mapping(t_address,t_uint8)": {
        "encoding": "mapping",
        "key": "t_address",
        "label": "mapping(address => uint8)",
        "numberOfBytes": "32",
        "value": "t_uint8"
      },
      "t_mapping(t_bytes32,t_enum(OpStatus)6845)": {
        "encoding": "mapping",
        "key": "t_bytes32",
        "label": "mapping(bytes32 => enum SafeOwnableUpgradeable.OpStatus)",
        "numberOfBytes": "32",
        "value": "t_enum(OpStatus)6845"
      },
      "t_mapping(t_uint256,t_address)": {
        "encoding": "mapping",
        "key": "t_uint256",
        "label": "mapping(uint256 => address)",
        "numberOfBytes": "32",
        "value": "t_address"
      },
      "t_mapping(t_uint256,t_string_storage)": {
        "encoding": "mapping",
        "key": "t_uint256",
        "label": "mapping(uint256 => string)",
        "numberOfBytes": "32",
        "value": "t_string_storage"
      },
      "t_string_storage": {
        "encoding": "bytes",
        "label": "string",
        "numberOfBytes": "32"
      },
      "t_uint256": {
        "encoding": "inplace",
        "label": "uint256",
        "numberOfBytes": "32"
      },
      "t_uint8": {
        "encoding": "inplace",
        "label": "uint8",
        "numberOfBytes": "1"
      }
    }
  }
}