{
  "address": "0x9689406c33e715bA434E957F194Cc7370608d598",
  "abi": [
    {
      "inputs": [],
      "stateMutability": "nonpayable",
      "type": "constructor"
    },
    {
      "anonymous": false,
      "inputs": [
        {
          "indexed": false,
          "internalType": "address",
          "name": "previousAdmin",
          "type": "address"
        },
        {
          "indexed": false,
          "internalType": "address",
          "name": "newAdmin",
          "type": "address"
        }
      ],
      "name": "AdminChanged",
      "type": "event"
    },
    {
      "anonymous": false,
      "inputs": [
        {
          "indexed": true,
          "internalType": "address",
          "name": "owner",
          "type": "address"
        },
        {
          "indexed": true,
          "internalType": "address",
          "name": "approved",
          "type": "address"
        },
        {
          "indexed": true,
          "internalType": "uint256",
          "name": "tokenId",
          "type": "uint256"
        }
      ],
      "name": "Approval",
      "type": "event"
    },
    {
      "anonymous": false,
      "inputs": [
        {
          "indexed": true,
          "internalType": "address",
          "name": "owner",
          "type": "address"
        },
        {
          "indexed": true,
          "internalType": "address",
          "name": "operator",
          "type": "address"
        },
        {
          "indexed": false,
          "internalType": "bool",
          "name": "approved",
          "type": "bool"
        }
      ],
      "name": "ApprovalForAll",
      "type": "event"
    },
    {
      "anonymous": false,
      "inputs": [
        {
          "indexed": true,
          "internalType": "address",
          "name": "beacon",
          "type": "address"
        }
      ],
      "name": "BeaconUpgraded",
      "type": "event"
    },
    {
      "anonymous": false,
      "inputs": [
        {
          "indexed": true,
          "internalType": "address",
          "name": "user",
          "type": "address"
        },
        {
          "indexed": false,
          "internalType": "uint256",
          "name": "tokenId",
          "type": "uint256"
        }
      ],
      "name": "Build",
      "type": "event"
    },
    {
      "anonymous": false,
      "inputs": [
        {
          "indexed": true,
          "internalType": "address",
          "name": "user",
          "type": "address"
        },
        {
          "indexed": false,
          "internalType": "uint256",
          "name": "amount",
          "type": "uint256"
        }
      ],
      "name": "Deposit",
      "type": "event"
    },
    {
      "anonymous": false,
      "inputs": [
        {
          "indexed": false,
          "internalType": "uint8",
          "name": "version",
          "type": "uint8"
        }
      ],
      "name": "Initialized",
      "type": "event"
    },
    {
      "anonymous": false,
      "inputs": [
        {
          "indexed": true,
          "internalType": "bytes32",
          "name": "opHash",
          "type": "bytes32"
        }
      ],
      "name": "OperationAdded",
      "type": "event"
    },
    {
      "anonymous": false,
      "inputs": [
        {
          "indexed": true,
          "internalType": "address",
          "name": "previousOwner",
          "type": "address"
        },
        {
          "indexed": true,
          "internalType": "address",
          "name": "newOwner",
          "type": "address"
        }
      ],
      "name": "OwnershipTransferred",
      "type": "event"
    },
    {
      "anonymous": false,
      "inputs": [
        {
          "indexed": true,
          "internalType": "address",
          "name": "user",
          "type": "address"
        },
        {
          "indexed": false,
          "internalType": "uint256",
          "name": "amount",
          "type": "uint256"
        },
        {
          "indexed": false,
          "internalType": "bool",
          "name": "Disposal",
          "type": "bool"
        }
      ],
      "name": "Refund",
      "type": "event"
    },
    {
      "anonymous": false,
      "inputs": [
        {
          "indexed": true,
          "internalType": "address",
          "name": "from",
          "type": "address"
        },
        {
          "indexed": true,
          "internalType": "address",
          "name": "to",
          "type": "address"
        },
        {
          "indexed": true,
          "internalType": "uint256",
          "name": "tokenId",
          "type": "uint256"
        }
      ],
      "name": "Transfer",
      "type": "event"
    },
    {
      "anonymous": false,
      "inputs": [
        {
          "indexed": true,
          "internalType": "address",
          "name": "implementation",
          "type": "address"
        }
      ],
      "name": "Upgraded",
      "type": "event"
    },
    {
      "anonymous": false,
      "inputs": [
        {
          "indexed": true,
          "internalType": "address",
          "name": "user",
          "type": "address"
        },
        {
          "indexed": false,
          "internalType": "uint256",
          "name": "amount",
          "type": "uint256"
        }
      ],
      "name": "Withdraw",
      "type": "event"
    },
    {
      "inputs": [
        {
          "internalType": "bytes32",
          "name": "opHash",
          "type": "bytes32"
        },
        {
          "internalType": "bytes[]",
          "name": "sigs",
          "type": "bytes[]"
        }
      ],
      "name": "AddOpHashToPending",
      "outputs": [],
      "stateMutability": "nonpayable",
      "type": "function"
    },
    {
      "inputs": [],
      "name": "ERC20Token",
      "outputs": [
        {
          "internalType": "contract IERC20",
          "name": "",
          "type": "address"
        }
      ],
      "stateMutability": "view",
      "type": "function"
    },
    {
      "inputs": [
        {
          "internalType": "bytes32",
          "name": "data",
          "type": "bytes32"
        }
      ],
      "name": "HashToSign",
      "outputs": [
        {
          "internalType": "bytes32",
          "name": "",
          "type": "bytes32"
        }
      ],
      "stateMutability": "pure",
      "type": "function"
    },
    {
      "inputs": [
        {
          "internalType": "address",
          "name": "to",
          "type": "address"
        },
        {
          "internalType": "uint256",
          "name": "tokenId",
          "type": "uint256"
        }
      ],
      "name": "approve",
      "outputs": [],
      "stateMutability": "nonpayable",
      "type": "function"
    },
    {
      "inputs": [
        {
          "internalType": "address",
          "name": "owner",
          "type": "address"
        }
      ],
      "name": "balanceOf",
      "outputs": [
        {
          "internalType": "uint256",
          "name": "",
          "type": "uint256"
        }
      ],
      "stateMutability": "view",
      "type": "function"
    },
    {
      "inputs": [
        {
          "internalType": "address",
          "name": "account",
          "type": "address"
        }
      ],
      "name": "balanceOfERC20",
      "outputs": [
        {
          "internalType": "uint256",
          "name": "",
          "type": "uint256"
        }
      ],
      "stateMutability": "view",
      "type": "function"
    },
    {
      "inputs": [
        {
          "internalType": "string",
          "name": "tokenURI_",
          "type": "string"
        },
        {
          "internalType": "uint256",
          "name": "nonce_",
          "type": "uint256"
        }
      ],
      "name": "build",
      "outputs": [
        {
          "internalType": "uint256",
          "name": "",
          "type": "uint256"
        }
      ],
      "stateMutability": "nonpayable",
      "type": "function"
    },
    {
      "inputs": [
        {
          "internalType": "address",
          "name": "to",
          "type": "address"
        },
        {
          "internalType": "string",
          "name": "tokenURI_",
          "type": "string"
        },
        {
          "internalType": "uint256",
          "name": "nonce_",
          "type": "uint256"
        }
      ],
      "name": "buildTo",
      "outputs": [
        {
          "internalType": "uint256",
          "name": "",
          "type": "uint256"
        }
      ],
      "stateMutability": "nonpayable",
      "type": "function"
    },
    {
      "inputs": [],
      "name": "costs",
      "outputs": [
        {
          "internalType": "uint256",
          "name": "",
          "type": "uint256"
        }
      ],
      "stateMutability": "view",
      "type": "function"
    },
    {
      "inputs": [
        {
          "internalType": "uint256",
          "name": "amount",
          "type": "uint256"
        }
      ],
      "name": "deposit",
      "outputs": [],
      "stateMutability": "nonpayable",
      "type": "function"
    },
    {
      "inputs": [
        {
          "internalType": "address",
          "name": "to",
          "type": "address"
        },
        {
          "internalType": "uint256",
          "name": "amount",
          "type": "uint256"
        }
      ],
      "name": "depositTo",
      "outputs": [],
      "stateMutability": "nonpayable",
      "type": "function"
    },
    {
      "inputs": [
        {
          "internalType": "uint256",
          "name": "tokenId",
          "type": "uint256"
        }
      ],
      "name": "getApproved",
      "outputs": [
        {
          "internalType": "address",
          "name": "",
          "type": "address"
        }
      ],
      "stateMutability": "view",
      "type": "function"
    },
    {
      "inputs": [
        {
          "internalType": "address",
          "name": "to",
          "type": "address"
        },
        {
          "internalType": "string",
          "name": "tokenURI_",
          "type": "string"
        },
        {
          "internalType": "uint256",
          "name": "nonce_",
          "type": "uint256"
        }
      ],
      "name": "getBuildHash",
      "outputs": [
        {
          "internalType": "bytes32",
          "name": "",
          "type": "bytes32"
        }
      ],
      "stateMutability": "view",
      "type": "function"
    },
    {
      "inputs": [
        {
          "internalType": "address",
          "name": "to",
          "type": "address"
        },
        {
          "internalType": "uint256",
          "name": "amount",
          "type": "uint256"
        },
        {
          "internalType": "uint256",
          "name": "nonce_",
          "type": "uint256"
        }
      ],
      "name": "getRefundHash",
      "outputs": [
        {
          "internalType": "bytes32",
          "name": "",
          "type": "bytes32"
        }
      ],
      "stateMutability": "view",
      "type": "function"
    },
    {
      "inputs": [
        {
          "internalType": "address",
          "name": "to",
          "type": "address"
        },
        {
          "internalType": "uint256",
          "name": "amount",
          "type": "uint256"
        },
        {
          "internalType": "uint256",
          "name": "nonce_",
          "type": "uint256"
        }
      ],
      "name": "getrefundAtDisposalHash",
      "outputs": [
        {
          "internalType": "bytes32",
          "name": "",
          "type": "bytes32"
        }
      ],
      "stateMutability": "view",
      "type": "function"
    },
    {
      "inputs": [
        {
          "internalType": "string",
          "name": "name_",
          "type": "string"
        },
        {
          "internalType": "string",
          "name": "symbol_",
          "type": "string"
        },
        {
          "internalType": "address[]",
          "name": "owners",
          "type": "address[]"
        },
        {
          "internalType": "uint8",
          "name": "signRequred",
          "type": "uint8"
        }
      ],
      "name": "initialize",
      "outputs": [],
      "stateMutability": "nonpayable",
      "type": "function"
    },
    {
      "inputs": [
        {
          "internalType": "address",
          "name": "owner",
          "type": "address"
        },
        {
          "internalType": "address",
          "name": "operator",
          "type": "address"
        }
      ],
      "name": "isApprovedForAll",
      "outputs": [
        {
          "internalType": "bool",
          "name": "",
          "type": "bool"
        }
      ],
      "stateMutability": "view",
      "type": "function"
    },
    {
      "inputs": [],
      "name": "maxNumOwners",
      "outputs": [
        {
          "internalType": "uint8",
          "name": "",
          "type": "uint8"
        }
      ],
      "stateMutability": "view",
      "type": "function"
    },
    {
      "inputs": [],
      "name": "name",
      "outputs": [
        {
          "internalType": "string",
          "name": "",
          "type": "string"
        }
      ],
      "stateMutability": "view",
      "type": "function"
    },
    {
      "inputs": [],
      "name": "nonce",
      "outputs": [
        {
          "internalType": "uint256",
          "name": "",
          "type": "uint256"
        }
      ],
      "stateMutability": "view",
      "type": "function"
    },
    {
      "inputs": [
        {
          "internalType": "bytes32",
          "name": "",
          "type": "bytes32"
        }
      ],
      "name": "operationsStatus",
      "outputs": [
        {
          "internalType": "enum SafeOwnableUpgradeable.OpStatus",
          "name": "",
          "type": "uint8"
        }
      ],
      "stateMutability": "view",
      "type": "function"
    },
    {
      "inputs": [
        {
          "internalType": "uint256",
          "name": "tokenId",
          "type": "uint256"
        }
      ],
      "name": "ownerOf",
      "outputs": [
        {
          "internalType": "address",
          "name": "",
          "type": "address"
        }
      ],
      "stateMutability": "view",
      "type": "function"
    },
    {
      "inputs": [],
      "name": "owners",
      "outputs": [
        {
          "internalType": "address[6]",
          "name": "",
          "type": "address[6]"
        }
      ],
      "stateMutability": "view",
      "type": "function"
    },
    {
      "inputs": [],
      "name": "proxiableUUID",
      "outputs": [
        {
          "internalType": "bytes32",
          "name": "",
          "type": "bytes32"
        }
      ],
      "stateMutability": "view",
      "type": "function"
    },
    {
      "inputs": [
        {
          "internalType": "address",
          "name": "to",
          "type": "address"
        },
        {
          "internalType": "uint256",
          "name": "amount",
          "type": "uint256"
        },
        {
          "internalType": "uint256",
          "name": "nonce_",
          "type": "uint256"
        }
      ],
      "name": "refund",
      "outputs": [],
      "stateMutability": "nonpayable",
      "type": "function"
    },
    {
      "inputs": [
        {
          "internalType": "address",
          "name": "to",
          "type": "address"
        },
        {
          "internalType": "uint256",
          "name": "amount",
          "type": "uint256"
        },
        {
          "internalType": "uint256",
          "name": "nonce_",
          "type": "uint256"
        }
      ],
      "name": "refundAtDisposal",
      "outputs": [],
      "stateMutability": "nonpayable",
      "type": "function"
    },
    {
      "inputs": [
        {
          "internalType": "address",
          "name": "from",
          "type": "address"
        },
        {
          "internalType": "address",
          "name": "to",
          "type": "address"
        },
        {
          "internalType": "uint256",
          "name": "tokenId",
          "type": "uint256"
        }
      ],
      "name": "safeTransferFrom",
      "outputs": [],
      "stateMutability": "nonpayable",
      "type": "function"
    },
    {
      "inputs": [
        {
          "internalType": "address",
          "name": "from",
          "type": "address"
        },
        {
          "internalType": "address",
          "name": "to",
          "type": "address"
        },
        {
          "internalType": "uint256",
          "name": "tokenId",
          "type": "uint256"
        },
        {
          "internalType": "bytes",
          "name": "data",
          "type": "bytes"
        }
      ],
      "name": "safeTransferFrom",
      "outputs": [],
      "stateMutability": "nonpayable",
      "type": "function"
    },
    {
      "inputs": [
        {
          "internalType": "address",
          "name": "operator",
          "type": "address"
        },
        {
          "internalType": "bool",
          "name": "approved",
          "type": "bool"
        }
      ],
      "name": "setApprovalForAll",
      "outputs": [],
      "stateMutability": "nonpayable",
      "type": "function"
    },
    {
      "inputs": [
        {
          "internalType": "uint256",
          "name": "costs_",
          "type": "uint256"
        }
      ],
      "name": "setCosts",
      "outputs": [],
      "stateMutability": "nonpayable",
      "type": "function"
    },
    {
      "inputs": [
        {
          "internalType": "address",
          "name": "token",
          "type": "address"
        }
      ],
      "name": "setERC20",
      "outputs": [],
      "stateMutability": "nonpayable",
      "type": "function"
    },
    {
      "inputs": [],
      "name": "signRequired",
      "outputs": [
        {
          "internalType": "uint8",
          "name": "",
          "type": "uint8"
        }
      ],
      "stateMutability": "view",
      "type": "function"
    },
    {
      "inputs": [
        {
          "internalType": "bytes4",
          "name": "interfaceId",
          "type": "bytes4"
        }
      ],
      "name": "supportsInterface",
      "outputs": [
        {
          "internalType": "bool",
          "name": "",
          "type": "bool"
        }
      ],
      "stateMutability": "view",
      "type": "function"
    },
    {
      "inputs": [],
      "name": "symbol",
      "outputs": [
        {
          "internalType": "string",
          "name": "",
          "type": "string"
        }
      ],
      "stateMutability": "view",
      "type": "function"
    },
    {
      "inputs": [
        {
          "internalType": "uint256",
          "name": "tokenId",
          "type": "uint256"
        }
      ],
      "name": "tokenURI",
      "outputs": [
        {
          "internalType": "string",
          "name": "",
          "type": "string"
        }
      ],
      "stateMutability": "view",
      "type": "function"
    },
    {
      "inputs": [
        {
          "internalType": "address",
          "name": "from",
          "type": "address"
        },
        {
          "internalType": "address",
          "name": "to",
          "type": "address"
        },
        {
          "internalType": "uint256",
          "name": "tokenId",
          "type": "uint256"
        }
      ],
      "name": "transferFrom",
      "outputs": [],
      "stateMutability": "nonpayable",
      "type": "function"
    },
    {
      "inputs": [
        {
          "internalType": "address",
          "name": "newOwner",
          "type": "address"
        }
      ],
      "name": "transferOwnership",
      "outputs": [],
      "stateMutability": "nonpayable",
      "type": "function"
    },
    {
      "inputs": [
        {
          "internalType": "address",
          "name": "newImplementation",
          "type": "address"
        }
      ],
      "name": "upgradeTo",
      "outputs": [],
      "stateMutability": "nonpayable",
      "type": "function"
    },
    {
      "inputs": [
        {
          "internalType": "address",
          "name": "newImplementation",
          "type": "address"
        },
        {
          "internalType": "bytes",
          "name": "data",
          "type": "bytes"
        }
      ],
      "name": "upgradeToAndCall",
      "outputs": [],
      "stateMutability": "payable",
      "type": "function"
    },
    {
      "inputs": [
        {
          "internalType": "uint256",
          "name": "amount",
          "type": "uint256"
        }
      ],
      "name": "withdraw",
      "outputs": [],
      "stateMutability": "nonpayable",
      "type": "function"
    },
    {
      "inputs": [
        {
          "internalType": "address",
          "name": "to",
          "type": "address"
        },
        {
          "internalType": "uint256",
          "name": "amount",
          "type": "uint256"
        }
      ],
      "name": "withdrawTo",
      "outputs": [],
      "stateMutability": "nonpayable",
      "type": "function"
    }
  ],
  "numDeployments": 2,
  "solcInputHash": "707217a24339f6a1d7a9b052d400b975",
  "bytecode": "0x60a0604052306080523480156200001557600080fd5b50600054610100900460ff1615808015620000375750600054600160ff909116105b8062000067575062000054306200014160201b620021cf1760201c565b15801562000067575060005460ff166001145b620000cf5760405162461bcd60e51b815260206004820152602e60248201527f496e697469616c697a61626c653a20636f6e747261637420697320616c72656160448201526d191e481a5b9a5d1a585b1a5e995960921b606482015260840160405180910390fd5b6000805460ff191660011790558015620000f3576000805461ff0019166101001790555b80156200013a576000805461ff0019169055604051600181527f7f26b83ff96e1f2b6a682f133852f6798a09c465da95921460cefb38474024989060200160405180910390a15b5062000150565b6001600160a01b03163b151590565b60805161477f6200018860003960008181610f2501528181610fbb015281816111b70152818161124d0152611348015261477f6000f3fe6080604052600436106102c65760003560e01c8063776d62f611610179578063b6b55f25116100d6578063d93db24f1161008a578063f02fa73d11610064578063f02fa73d1461084a578063f2fde38b1461086a578063ffaad6a51461088a57600080fd5b8063d93db24f146107aa578063dc6b4501146107e1578063e985e9c51461080157600080fd5b8063c29a6fda116100bb578063c29a6fda1461072c578063c87b56dd1461074c578063ce0d0ca01461076c57600080fd5b8063b6b55f25146106ec578063b88d4fde1461070c57600080fd5b806395d89b411161012d578063a22cb46511610112578063a22cb46514610693578063affe39c1146106b3578063affed0e0146106d557600080fd5b806395d89b411461065e578063a0faf51e1461067357600080fd5b80637a80760e1161015e5780637a80760e146105fd5780638b5a21431461061e5780638bd7bf3b1461063e57600080fd5b8063776d62f6146105c75780637a29349d146105dd57600080fd5b80633659cfe61161022757806362ae7e67116101db5780636ea80819116101c05780636ea808191461051957806370a082311461053957806375f3958c1461055957600080fd5b806362ae7e67146104d95780636352211e146104f957600080fd5b80634bf4cdcd1161020c5780634bf4cdcd146104835780634f1ef286146104b157806352d1902d146104c457600080fd5b80633659cfe61461044357806342842e0e1461046357600080fd5b806318fd89031161027e57806322284de61161026357806322284de6146103e357806323b872dd146104035780632e1a7d4d1461042357600080fd5b806318fd8903146103a3578063205c2878146103c357600080fd5b8063081812fc116102af578063081812fc14610322578063095ea7b31461035a5780630c3515ba1461037c57600080fd5b806301ffc9a7146102cb57806306fdde0314610300575b600080fd5b3480156102d757600080fd5b506102eb6102e6366004613ee4565b6108aa565b60405190151581526020015b60405180910390f35b34801561030c57600080fd5b5061031561098f565b6040516102f79190613f59565b34801561032e57600080fd5b5061034261033d366004613f6c565b610a21565b6040516001600160a01b0390911681526020016102f7565b34801561036657600080fd5b5061037a610375366004613fa1565b610a48565b005b34801561038857600080fd5b50610391600581565b60405160ff90911681526020016102f7565b3480156103af57600080fd5b5061037a6103be366004613fcb565b610b7f565b3480156103cf57600080fd5b5061037a6103de366004613fa1565b610d5c565b3480156103ef57600080fd5b5061037a6103fe366004613f6c565b610db9565b34801561040f57600080fd5b5061037a61041e366004613ffe565b610e37565b34801561042f57600080fd5b5061037a61043e366004613f6c565b610ebe565b34801561044f57600080fd5b5061037a61045e36600461403a565b610f1a565b34801561046f57600080fd5b5061037a61047e366004613ffe565b6110b8565b34801561048f57600080fd5b506104a361049e36600461410c565b6110d3565b6040519081526020016102f7565b61037a6104bf366004614151565b6111ac565b3480156104d057600080fd5b506104a361133b565b3480156104e557600080fd5b506104a36104f436600461419f565b611400565b34801561050557600080fd5b50610342610514366004613f6c565b61145d565b34801561052557600080fd5b506104a3610534366004613fcb565b6114c2565b34801561054557600080fd5b506104a361055436600461403a565b611528565b34801561056557600080fd5b506104a3610574366004613f6c565b6040517f19457468657265756d205369676e6564204d6573736167653a0a3332000000006020820152603c8101829052600090605c01604051602081830303815290604052805190602001209050919050565b3480156105d357600080fd5b5061010a546104a3565b3480156105e957600080fd5b506101025461039190610100900460ff1681565b34801561060957600080fd5b5061010554610342906001600160a01b031681565b34801561062a57600080fd5b5061037a61063936600461421a565b6115c2565b34801561064a57600080fd5b506104a3610659366004613fcb565b6118f8565b34801561066a57600080fd5b5061031561195e565b34801561067f57600080fd5b506104a361068e36600461419f565b61196d565b34801561069f57600080fd5b5061037a6106ae3660046142ea565b611a47565b3480156106bf57600080fd5b506106c8611a52565b6040516102f79190614321565b3480156106e157600080fd5b506104a36101045481565b3480156106f857600080fd5b5061037a610707366004613f6c565b611a97565b34801561071857600080fd5b5061037a61072736600461435b565b611ae9565b34801561073857600080fd5b5061037a61074736600461403a565b611b77565b34801561075857600080fd5b50610315610767366004613f6c565b611c1f565b34801561077857600080fd5b5061079d610787366004613f6c565b6101036020526000908152604090205460ff1681565b6040516102f791906143d9565b3480156107b657600080fd5b506104a36107c536600461403a565b6001600160a01b0316600090815261010d602052604090205490565b3480156107ed57600080fd5b5061037a6107fc366004613fcb565b611cc9565b34801561080d57600080fd5b506102eb61081c366004614401565b6001600160a01b039182166000908152606a6020908152604080832093909416825291909152205460ff1690565b34801561085657600080fd5b5061037a610865366004614445565b611e4a565b34801561087657600080fd5b5061037a61088536600461403a565b611ff0565b34801561089657600080fd5b5061037a6108a5366004613fa1565b61217d565b60007fffffffff0000000000000000000000000000000000000000000000000000000082167f80ac58cd00000000000000000000000000000000000000000000000000000000148061093d57507fffffffff0000000000000000000000000000000000000000000000000000000082167f5b5e139f00000000000000000000000000000000000000000000000000000000145b8061098957507f01ffc9a7000000000000000000000000000000000000000000000000000000007fffffffff000000000000000000000000000000000000000000000000000000008316145b92915050565b60606065805461099e9061453b565b80601f01602080910402602001604051908101604052809291908181526020018280546109ca9061453b565b8015610a175780601f106109ec57610100808354040283529160200191610a17565b820191906000526020600020905b8154815290600101906020018083116109fa57829003601f168201915b5050505050905090565b6000610a2c826121de565b506000908152606960205260409020546001600160a01b031690565b6000610a538261145d565b9050806001600160a01b0316836001600160a01b03161415610ae25760405162461bcd60e51b815260206004820152602160248201527f4552433732313a20617070726f76616c20746f2063757272656e74206f776e6560448201527f720000000000000000000000000000000000000000000000000000000000000060648201526084015b60405180910390fd5b336001600160a01b0382161480610afe5750610afe813361081c565b610b705760405162461bcd60e51b815260206004820152603e60248201527f4552433732313a20617070726f76652063616c6c6572206973206e6f7420746f60448201527f6b656e206f776e6572206e6f7220617070726f76656420666f7220616c6c00006064820152608401610ad9565b610b7a8383612242565b505050565b6101075415610bc15760405162461bcd60e51b815260206004820152600e60248201526d15934cd391950e881313d0d2d15160921b6044820152606401610ad9565b600161010755610bd56105748484846118f8565b60016000828152610103602052604090205460ff166003811115610bfb57610bfb6143c3565b14610c6e5760405162461bcd60e51b815260206004820152603060248201527f536166654f776e61626c655570677261646561626c653a206f7065726174696f60448201527f6e206e6f7420696e2070656e64696e67000000000000000000000000000000006064820152608401610ad9565b600081815261010360209081526040808320805460ff191660021790556001600160a01b038716835261010d909152902054831115610d155760405162461bcd60e51b815260206004820152602160248201527f564d334e46543a20496e73756666696369656e7420757365722062616c616e6360448201527f65000000000000000000000000000000000000000000000000000000000000006064820152608401610ad9565b6001600160a01b038416600090815261010d602052604081208054859290610d3e90849061458c565b90915550610d509050848460006122bd565b50506000610107555050565b6101075415610d9e5760405162461bcd60e51b815260206004820152600e60248201526d15934cd391950e881313d0d2d15160921b6044820152606401610ad9565b600161010755610daf33838361252e565b5050600061010755565b336000908152610101602052604090205460ff16610e315760405162461bcd60e51b815260206004820152602f60248201527f536166654f776e61626c655570677261646561626c653a2063616c6c6572206960448201526e39903737ba103a34329037bbb732b960891b6064820152608401610ad9565b61010a55565b610e4133826126f1565b610eb35760405162461bcd60e51b815260206004820152602e60248201527f4552433732313a2063616c6c6572206973206e6f7420746f6b656e206f776e6560448201527f72206e6f7220617070726f7665640000000000000000000000000000000000006064820152608401610ad9565b610b7a83838361276f565b6101075415610f005760405162461bcd60e51b815260206004820152600e60248201526d15934cd391950e881313d0d2d15160921b6044820152606401610ad9565b600161010755610f1133338361252e565b50600061010755565b306001600160a01b037f0000000000000000000000000000000000000000000000000000000000000000161415610fb95760405162461bcd60e51b815260206004820152602c60248201527f46756e6374696f6e206d7573742062652063616c6c6564207468726f7567682060448201527f64656c656761746563616c6c00000000000000000000000000000000000000006064820152608401610ad9565b7f00000000000000000000000000000000000000000000000000000000000000006001600160a01b03166110147f360894a13ba1a3210667c828492db98dca3e2076cc3735a920a3ca505d382bbc546001600160a01b031690565b6001600160a01b0316146110905760405162461bcd60e51b815260206004820152602c60248201527f46756e6374696f6e206d7573742062652063616c6c6564207468726f7567682060448201527f6163746976652070726f787900000000000000000000000000000000000000006064820152608401610ad9565b61109981612949565b604080516000808252602082019092526110b5918391906129c1565b50565b610b7a83838360405180602001604052806000815250611ae9565b600061010a5461010d60006110e53390565b6001600160a01b03166001600160a01b031681526020019081526020016000205410156111545760405162461bcd60e51b815260206004820152601d60248201527f564d334e46543a20496e73756666696369656e74206465706f736974730000006044820152606401610ad9565b61010a5433600090815261010d60205260408120805490919061117890849061458c565b909155505061010a5461010b80546000906111949084906145a3565b909155506111a59050338484612b70565b9392505050565b306001600160a01b037f000000000000000000000000000000000000000000000000000000000000000016141561124b5760405162461bcd60e51b815260206004820152602c60248201527f46756e6374696f6e206d7573742062652063616c6c6564207468726f7567682060448201527f64656c656761746563616c6c00000000000000000000000000000000000000006064820152608401610ad9565b7f00000000000000000000000000000000000000000000000000000000000000006001600160a01b03166112a67f360894a13ba1a3210667c828492db98dca3e2076cc3735a920a3ca505d382bbc546001600160a01b031690565b6001600160a01b0316146113225760405162461bcd60e51b815260206004820152602c60248201527f46756e6374696f6e206d7573742062652063616c6c6564207468726f7567682060448201527f6163746976652070726f787900000000000000000000000000000000000000006064820152608401610ad9565b61132b82612949565b611337828260016129c1565b5050565b6000306001600160a01b037f000000000000000000000000000000000000000000000000000000000000000016146113db5760405162461bcd60e51b815260206004820152603860248201527f555550535570677261646561626c653a206d757374206e6f742062652063616c60448201527f6c6564207468726f7567682064656c656761746563616c6c00000000000000006064820152608401610ad9565b507f360894a13ba1a3210667c828492db98dca3e2076cc3735a920a3ca505d382bbc90565b6000610106547f3815ce62889cc7a128f8b6e58ece8a988c71bdd07dec95430895aea77e825c4585858560405160200161143e9594939291906145bb565b6040516020818303038152906040528051906020012090509392505050565b6000818152606760205260408120546001600160a01b0316806109895760405162461bcd60e51b815260206004820152601860248201527f4552433732313a20696e76616c696420746f6b656e20494400000000000000006044820152606401610ad9565b610106546040805160208101929092527f6147566a9de12cd78d3b04221dc654637e92d73ad3a4c44cc89b06c4019ff4aa90820152606084811b6bffffffffffffffffffffffff191690820152607481018390526094810182905260009060b40161143e565b60006001600160a01b0382166115a65760405162461bcd60e51b815260206004820152602960248201527f4552433732313a2061646472657373207a65726f206973206e6f74206120766160448201527f6c6964206f776e657200000000000000000000000000000000000000000000006064820152608401610ad9565b506001600160a01b031660009081526068602052604090205490565b818160006115ce613dff565b336000908152610101602052604090205460ff161561163b57816115f181614608565b92505060018161010160006116033390565b6001600160a01b0316815260208101919091526040016000205460ff166006811061163057611630614628565b911515602090920201525b60005b83518160ff16101561177c57600061167b858360ff168151811061166457611664614628565b602002602001015187612cbd90919063ffffffff16565b6001600160a01b0381166000908152610101602052604090205490915060ff168061170e5760405162461bcd60e51b815260206004820152602b60248201527f536166654f776e61626c655570677261646561626c653a207369676e6572206960448201527f73206e6f74206f776e65720000000000000000000000000000000000000000006064820152608401610ad9565b838160ff166006811061172357611723614628565b602002015115156001141561173957505061176a565b6001848260ff166006811061175057611750614628565b911515602090920201528461176481614608565b95505050505b8061177481614608565b91505061163e565b506101025460ff610100909104811690831610156118025760405162461bcd60e51b815260206004820152602a60248201527f536166654f776e61626c655570677261646561626c653a206e6f20656e6f756760448201527f6820636f6e6669726d73000000000000000000000000000000000000000000006064820152608401610ad9565b61010480549060006118138361463e565b90915550506000868152610103602052604081205460ff16600381111561183c5761183c6143c3565b146118af5760405162461bcd60e51b815260206004820152603760248201527f536166654f776e61626c655570677261646561626c653a206f7065726174696f60448201527f6e20776173206e6f74207375626d6974746564207965740000000000000000006064820152608401610ad9565b60008681526101036020526040808220805460ff191660011790555187917f33775024b20f211f019e50305c897b2105edc4642384143897ac170fb37f54a191a2505050505050565b610106546040805160208101929092527f410085df54bf273a749e521cef84e728e697569a719b84888672469ca66d58d490820152606084811b6bffffffffffffffffffffffff191690820152607481018390526094810182905260009060b40161143e565b60606066805461099e9061453b565b600061010a5461010d600061197f3390565b6001600160a01b03166001600160a01b031681526020019081526020016000205410156119ee5760405162461bcd60e51b815260206004820152601d60248201527f564d334e46543a20496e73756666696369656e74206465706f736974730000006044820152606401610ad9565b61010a5433600090815261010d602052604081208054909190611a1290849061458c565b909155505061010a5461010b8054600090611a2e9084906145a3565b90915550611a3f9050848484612b70565b949350505050565b611337338383612ce1565b611a5a613dff565b6040805160c08101918290529060fb9060069082845b81546001600160a01b03168152600190910190602001808311611a70575050505050905090565b6101075415611ad95760405162461bcd60e51b815260206004820152600e60248201526d15934cd391950e881313d0d2d15160921b6044820152606401610ad9565b600161010755610f113382612db0565b611af333836126f1565b611b655760405162461bcd60e51b815260206004820152602e60248201527f4552433732313a2063616c6c6572206973206e6f7420746f6b656e206f776e6560448201527f72206e6f7220617070726f7665640000000000000000000000000000000000006064820152608401610ad9565b611b7184848484612f3a565b50505050565b336000908152610101602052604090205460ff16611bef5760405162461bcd60e51b815260206004820152602f60248201527f536166654f776e61626c655570677261646561626c653a2063616c6c6572206960448201526e39903737ba103a34329037bbb732b960891b6064820152608401610ad9565b610105805473ffffffffffffffffffffffffffffffffffffffff19166001600160a01b0392909216919091179055565b6060611c2a826121de565b600082815261010c602052604090208054611c449061453b565b80601f0160208091040260200160405190810160405280929190818152602001828054611c709061453b565b8015611cbd5780601f10611c9257610100808354040283529160200191611cbd565b820191906000526020600020905b815481529060010190602001808311611ca057829003601f168201915b50505050509050919050565b6101075415611d0b5760405162461bcd60e51b815260206004820152600e60248201526d15934cd391950e881313d0d2d15160921b6044820152606401610ad9565b600161010755611d1f6105748484846114c2565b60016000828152610103602052604090205460ff166003811115611d4557611d456143c3565b14611db85760405162461bcd60e51b815260206004820152603060248201527f536166654f776e61626c655570677261646561626c653a206f7065726174696f60448201527f6e206e6f7420696e2070656e64696e67000000000000000000000000000000006064820152608401610ad9565b600081815261010360205260409020805460ff1916600217905561010b54831115611e255760405162461bcd60e51b815260206004820152601f60248201527f564d334e46543a20496e73756666696369656e74206174446973706f73616c006044820152606401610ad9565b8261010b6000828254611e38919061458c565b90915550610d509050848460016122bd565b600054610100900460ff1615808015611e6a5750600054600160ff909116105b80611e845750303b158015611e84575060005460ff166001145b611ef65760405162461bcd60e51b815260206004820152602e60248201527f496e697469616c697a61626c653a20636f6e747261637420697320616c72656160448201527f647920696e697469616c697a65640000000000000000000000000000000000006064820152608401610ad9565b6000805460ff191660011790558015611f19576000805461ff0019166101001790555b611f238585612fc3565b611f2d8383613038565b611f356133be565b7fb8aa581effc4a2e306a38dbac6542b2a4b0d933abccc3bfc5d8d811df1608302611f5e61098f565b805160209182012060408051928301939093529181019190915246606082015230608082015260a00160408051601f198184030181529190528051602090910120610106558015611fe9576000805461ff0019169055604051600181527f7f26b83ff96e1f2b6a682f133852f6798a09c465da95921460cefb38474024989060200160405180910390a15b5050505050565b336000908152610101602052604090205460ff166120685760405162461bcd60e51b815260206004820152602f60248201527f536166654f776e61626c655570677261646561626c653a2063616c6c6572206960448201526e39903737ba103a34329037bbb732b960891b6064820152608401610ad9565b6001600160a01b0381166120e45760405162461bcd60e51b815260206004820152603560248201527f536166654f776e61626c655570677261646561626c653a206e6577206f776e6560448201527f7220697320746865207a65726f206164647265737300000000000000000000006064820152608401610ad9565b6001600160a01b0381166000908152610101602052604090205460ff16156121745760405162461bcd60e51b815260206004820152603060248201527f536166654f776e61626c655570677261646561626c653a206e6577206f776e6560448201527f7220616c726561647920657869737473000000000000000000000000000000006064820152608401610ad9565b6110b58161342b565b61010754156121bf5760405162461bcd60e51b815260206004820152600e60248201526d15934cd391950e881313d0d2d15160921b6044820152606401610ad9565b600161010755610daf8282612db0565b6001600160a01b03163b151590565b6000818152606760205260409020546001600160a01b03166110b55760405162461bcd60e51b815260206004820152601860248201527f4552433732313a20696e76616c696420746f6b656e20494400000000000000006044820152606401610ad9565b6000818152606960205260409020805473ffffffffffffffffffffffffffffffffffffffff19166001600160a01b03841690811790915581906122848261145d565b6001600160a01b03167f8c5be1e5ebec7d5bd14f71427d1e84f3dd0314c0f7b2291e5b200ac8c7c3b92560405160405180910390a45050565b336000908152610101602052604090205460ff166123355760405162461bcd60e51b815260206004820152602f60248201527f536166654f776e61626c655570677261646561626c653a2063616c6c6572206960448201526e39903737ba103a34329037bbb732b960891b6064820152608401610ad9565b600082116123855760405162461bcd60e51b815260206004820152601660248201527f564d334e46543a20616d6f756e74206973207a65726f000000000000000000006044820152606401610ad9565b610105546040517f70a0823100000000000000000000000000000000000000000000000000000000815230600482015283916001600160a01b0316906370a082319060240160206040518083038186803b1580156123e257600080fd5b505afa1580156123f6573d6000803e3d6000fd5b505050506040513d601f19601f8201168201806040525081019061241a9190614677565b10156124425760405162461bcd60e51b81526020600482015260006024820152604401610ad9565b610105546040517fa9059cbb0000000000000000000000000000000000000000000000000000000081526001600160a01b038581166004830152602482018590529091169063a9059cbb90604401602060405180830381600087803b1580156124aa57600080fd5b505af11580156124be573d6000803e3d6000fd5b505050506040513d601f19601f820116820180604052508101906124e29190614690565b506040805183815282151560208201526001600160a01b038516917f9ec8fd4891b49aae8ecb56892e6d93818739f52bac238fa16de2076fc8c1790c91015b60405180910390a2505050565b6000811161257e5760405162461bcd60e51b815260206004820152601660248201527f564d334e46543a20616d6f756e74206973207a65726f000000000000000000006044820152606401610ad9565b6001600160a01b038316600090815261010d60205260409020548111156125e75760405162461bcd60e51b815260206004820152601c60248201527f564d334e46543a20496e73756666696369656e742062616c616e6365000000006044820152606401610ad9565b6001600160a01b038316600090815261010d60205260408120805483929061261090849061458c565b9091555050610105546040517fa9059cbb0000000000000000000000000000000000000000000000000000000081526001600160a01b038481166004830152602482018490529091169063a9059cbb90604401602060405180830381600087803b15801561267d57600080fd5b505af1158015612691573d6000803e3d6000fd5b505050506040513d601f19601f820116820180604052508101906126b59190614690565b50816001600160a01b03167f884edad9ce6fa2440d8a54cc123490eb96d2768479d49ff9c7366125a94243648260405161252191815260200190565b6000806126fd8361145d565b9050806001600160a01b0316846001600160a01b0316148061274457506001600160a01b038082166000908152606a602090815260408083209388168352929052205460ff165b80611a3f5750836001600160a01b031661275d84610a21565b6001600160a01b031614949350505050565b826001600160a01b03166127828261145d565b6001600160a01b0316146127fe5760405162461bcd60e51b815260206004820152602560248201527f4552433732313a207472616e736665722066726f6d20696e636f72726563742060448201527f6f776e65720000000000000000000000000000000000000000000000000000006064820152608401610ad9565b6001600160a01b0382166128795760405162461bcd60e51b8152602060048201526024808201527f4552433732313a207472616e7366657220746f20746865207a65726f2061646460448201527f72657373000000000000000000000000000000000000000000000000000000006064820152608401610ad9565b612884600082612242565b6001600160a01b03831660009081526068602052604081208054600192906128ad90849061458c565b90915550506001600160a01b03821660009081526068602052604081208054600192906128db9084906145a3565b9091555050600081815260676020526040808220805473ffffffffffffffffffffffffffffffffffffffff19166001600160a01b0386811691821790925591518493918716917fddf252ad1be2c89b69c2b068fc378daa952ba7f163c4a11628f55a4df523b3ef91a4505050565b336000908152610101602052604090205460ff166110b55760405162461bcd60e51b815260206004820152602f60248201527f536166654f776e61626c655570677261646561626c653a2063616c6c6572206960448201526e39903737ba103a34329037bbb732b960891b6064820152608401610ad9565b7f4910fdfa16fed3260ed0e7147f7cc6da11a60208b5b9406d12a635614ffd91435460ff16156129f457610b7a836134d9565b826001600160a01b03166352d1902d6040518163ffffffff1660e01b815260040160206040518083038186803b158015612a2d57600080fd5b505afa925050508015612a5d575060408051601f3d908101601f19168201909252612a5a91810190614677565b60015b612acf5760405162461bcd60e51b815260206004820152602e60248201527f45524331393637557067726164653a206e657720696d706c656d656e7461746960448201527f6f6e206973206e6f7420555550530000000000000000000000000000000000006064820152608401610ad9565b7f360894a13ba1a3210667c828492db98dca3e2076cc3735a920a3ca505d382bbc8114612b645760405162461bcd60e51b815260206004820152602960248201527f45524331393637557067726164653a20756e737570706f727465642070726f7860448201527f6961626c655555494400000000000000000000000000000000000000000000006064820152608401610ad9565b50610b7a8383836135a4565b6000612b80610574858585611400565b60016000828152610103602052604090205460ff166003811115612ba657612ba66143c3565b14612c195760405162461bcd60e51b815260206004820152603060248201527f536166654f776e61626c655570677261646561626c653a206f7065726174696f60448201527f6e206e6f7420696e2070656e64696e67000000000000000000000000000000006064820152608401610ad9565b600081815261010360205260409020805460ff1916600217905561010854612c4186826135c9565b600081815261010c602090815260409091208651612c6192880190613e1d565b50612c7161010880546001019055565b856001600160a01b03167fd8406a18b0c7572d0adae5f0a479d5d802035e2c506e9353b092d25997f61a6282604051612cac91815260200190565b60405180910390a295945050505050565b6000806000612ccc8585613718565b91509150612cd98161375e565b509392505050565b816001600160a01b0316836001600160a01b03161415612d435760405162461bcd60e51b815260206004820152601960248201527f4552433732313a20617070726f766520746f2063616c6c6572000000000000006044820152606401610ad9565b6001600160a01b038381166000818152606a6020908152604080832094871680845294825291829020805460ff191686151590811790915591519182527f17307eab39ab6107e8899845ad3d59bd9653f200f220920489ca2b5937696c31910160405180910390a3505050565b60008111612e005760405162461bcd60e51b815260206004820152601660248201527f564d334e46543a20416d6f756e74206973207a65726f000000000000000000006044820152606401610ad9565b610105546001600160a01b03166323b872dd336040517fffffffff0000000000000000000000000000000000000000000000000000000060e084901b1681526001600160a01b03909116600482015230602482015260448101849052606401602060405180830381600087803b158015612e7957600080fd5b505af1158015612e8d573d6000803e3d6000fd5b505050506040513d601f19601f82011682018060405250810190612eb19190614690565b50806101096000828254612ec591906145a3565b90915550506001600160a01b038216600090815261010d602052604081208054839290612ef39084906145a3565b90915550506040518181526001600160a01b038316907fe1fffcc4923d04b559f4d29a8bfc6cda04eb5b0d3c460751c2402c5c5cc9109c9060200160405180910390a25050565b612f4584848461276f565b612f518484848461394f565b611b715760405162461bcd60e51b815260206004820152603260248201527f4552433732313a207472616e7366657220746f206e6f6e20455243373231526560448201527f63656976657220696d706c656d656e74657200000000000000000000000000006064820152608401610ad9565b600054610100900460ff1661302e5760405162461bcd60e51b815260206004820152602b60248201527f496e697469616c697a61626c653a20636f6e7472616374206973206e6f74206960448201526a6e697469616c697a696e6760a81b6064820152608401610ad9565b6113378282613afc565b600054610100900460ff166130a35760405162461bcd60e51b815260206004820152602b60248201527f496e697469616c697a61626c653a20636f6e7472616374206973206e6f74206960448201526a6e697469616c697a696e6760a81b6064820152608401610ad9565b81516005101561311b5760405162461bcd60e51b815260206004820152603360248201527f536166654f776e61626c655570677261646561626c653a657863656564206d6160448201527f78696d756d206e756d626572206f776e657273000000000000000000000000006064820152608401610ad9565b60ff81166131915760405162461bcd60e51b815260206004820152602c60248201527f536166654f776e61626c655570677261646561626c653a207369676e5265717560448201527f69726564206973207a65726f00000000000000000000000000000000000000006064820152608401610ad9565b610102805461ff00191661010060ff84160217905560005b82518110156133395760008382815181106131c6576131c6614628565b6020908102919091018101516001600160a01b038116600090815261010190925260409091205490915060ff16156132665760405162461bcd60e51b815260206004820152602c60248201527f536166654f776e61626c655570677261646561626c653a206f776e657220616c60448201527f72656164792065786973747300000000000000000000000000000000000000006064820152608401610ad9565b6101028054829160fb9160009061327f9060ff16614608565b91906101000a81548160ff021916908360ff160217905560ff16600681106132a9576132a9614628565b0180546001600160a01b0392831673ffffffffffffffffffffffffffffffffffffffff199091161790556101025490821660008181526101016020526040808220805460ff191660ff9095169490941790935591519091907f8be0079c531659141344cd1fd0a4f28419497f9722a3daafe3b4186f6b6457e0908290a350806133318161463e565b9150506131a9565b506101025460ff8082166101009092041611156113375760405162461bcd60e51b815260206004820152603560248201527f536166654f776e61626c655570677261646561626c653a206f776e657273206c60448201527f657373207468616e207369676e526571756972656400000000000000000000006064820152608401610ad9565b600054610100900460ff166134295760405162461bcd60e51b815260206004820152602b60248201527f496e697469616c697a61626c653a20636f6e7472616374206973206e6f74206960448201526a6e697469616c697a696e6760a81b6064820152608401610ad9565b565b336000818152610101602052604090205460ff168260fb826006811061345357613453614628565b01805473ffffffffffffffffffffffffffffffffffffffff19166001600160a01b0392831617905582811660008181526101016020526040808220805460ff19908116909155938716808352818320805490951660ff871617909455517f8be0079c531659141344cd1fd0a4f28419497f9722a3daafe3b4186f6b6457e09190a3505050565b6001600160a01b0381163b6135565760405162461bcd60e51b815260206004820152602d60248201527f455243313936373a206e657720696d706c656d656e746174696f6e206973206e60448201527f6f74206120636f6e7472616374000000000000000000000000000000000000006064820152608401610ad9565b7f360894a13ba1a3210667c828492db98dca3e2076cc3735a920a3ca505d382bbc805473ffffffffffffffffffffffffffffffffffffffff19166001600160a01b0392909216919091179055565b6135ad83613b8e565b6000825111806135ba5750805b15610b7a57611b718383613bce565b6001600160a01b03821661361f5760405162461bcd60e51b815260206004820181905260248201527f4552433732313a206d696e7420746f20746865207a65726f20616464726573736044820152606401610ad9565b6000818152606760205260409020546001600160a01b0316156136845760405162461bcd60e51b815260206004820152601c60248201527f4552433732313a20746f6b656e20616c7265616479206d696e746564000000006044820152606401610ad9565b6001600160a01b03821660009081526068602052604081208054600192906136ad9084906145a3565b9091555050600081815260676020526040808220805473ffffffffffffffffffffffffffffffffffffffff19166001600160a01b03861690811790915590518392907fddf252ad1be2c89b69c2b068fc378daa952ba7f163c4a11628f55a4df523b3ef908290a45050565b60008082516041141561374f5760208301516040840151606085015160001a61374387828585613cd9565b94509450505050613757565b506000905060025b9250929050565b6000816004811115613772576137726143c3565b141561377b5750565b600181600481111561378f5761378f6143c3565b14156137dd5760405162461bcd60e51b815260206004820152601860248201527f45434453413a20696e76616c6964207369676e617475726500000000000000006044820152606401610ad9565b60028160048111156137f1576137f16143c3565b141561383f5760405162461bcd60e51b815260206004820152601f60248201527f45434453413a20696e76616c6964207369676e6174757265206c656e677468006044820152606401610ad9565b6003816004811115613853576138536143c3565b14156138c75760405162461bcd60e51b815260206004820152602260248201527f45434453413a20696e76616c6964207369676e6174757265202773272076616c60448201527f75650000000000000000000000000000000000000000000000000000000000006064820152608401610ad9565b60048160048111156138db576138db6143c3565b14156110b55760405162461bcd60e51b815260206004820152602260248201527f45434453413a20696e76616c6964207369676e6174757265202776272076616c60448201527f75650000000000000000000000000000000000000000000000000000000000006064820152608401610ad9565b60006001600160a01b0384163b15613af1576040517f150b7a020000000000000000000000000000000000000000000000000000000081526001600160a01b0385169063150b7a02906139ac9033908990889088906004016146ad565b602060405180830381600087803b1580156139c657600080fd5b505af19250505080156139f6575060408051601f3d908101601f191682019092526139f3918101906146e9565b60015b613aa6573d808015613a24576040519150601f19603f3d011682016040523d82523d6000602084013e613a29565b606091505b508051613a9e5760405162461bcd60e51b815260206004820152603260248201527f4552433732313a207472616e7366657220746f206e6f6e20455243373231526560448201527f63656976657220696d706c656d656e74657200000000000000000000000000006064820152608401610ad9565b805181602001fd5b7fffffffff00000000000000000000000000000000000000000000000000000000167f150b7a0200000000000000000000000000000000000000000000000000000000149050611a3f565b506001949350505050565b600054610100900460ff16613b675760405162461bcd60e51b815260206004820152602b60248201527f496e697469616c697a61626c653a20636f6e7472616374206973206e6f74206960448201526a6e697469616c697a696e6760a81b6064820152608401610ad9565b8151613b7a906065906020850190613e1d565b508051610b7a906066906020840190613e1d565b613b97816134d9565b6040516001600160a01b038216907fbc7cd75a20ee27fd9adebab32041f755214dbc6bffa90cc0225b39da2e5c2d3b90600090a250565b60606001600160a01b0383163b613c4d5760405162461bcd60e51b815260206004820152602660248201527f416464726573733a2064656c65676174652063616c6c20746f206e6f6e2d636f60448201527f6e747261637400000000000000000000000000000000000000000000000000006064820152608401610ad9565b600080846001600160a01b031684604051613c689190614706565b600060405180830381855af49150503d8060008114613ca3576040519150601f19603f3d011682016040523d82523d6000602084013e613ca8565b606091505b5091509150613cd0828260405180606001604052806027815260200161472360279139613dc6565b95945050505050565b6000807f7fffffffffffffffffffffffffffffff5d576e7357a4501ddfe92f46681b20a0831115613d105750600090506003613dbd565b8460ff16601b14158015613d2857508460ff16601c14155b15613d395750600090506004613dbd565b6040805160008082526020820180845289905260ff881692820192909252606081018690526080810185905260019060a0016020604051602081039080840390855afa158015613d8d573d6000803e3d6000fd5b5050604051601f1901519150506001600160a01b038116613db657600060019250925050613dbd565b9150600090505b94509492505050565b60608315613dd55750816111a5565b825115613de55782518084602001fd5b8160405162461bcd60e51b8152600401610ad99190613f59565b6040518060c001604052806006906020820280368337509192915050565b828054613e299061453b565b90600052602060002090601f016020900481019282613e4b5760008555613e91565b82601f10613e6457805160ff1916838001178555613e91565b82800160010185558215613e91579182015b82811115613e91578251825591602001919060010190613e76565b50613e9d929150613ea1565b5090565b5b80821115613e9d5760008155600101613ea2565b7fffffffff00000000000000000000000000000000000000000000000000000000811681146110b557600080fd5b600060208284031215613ef657600080fd5b81356111a581613eb6565b60005b83811015613f1c578181015183820152602001613f04565b83811115611b715750506000910152565b60008151808452613f45816020860160208601613f01565b601f01601f19169290920160200192915050565b6020815260006111a56020830184613f2d565b600060208284031215613f7e57600080fd5b5035919050565b80356001600160a01b0381168114613f9c57600080fd5b919050565b60008060408385031215613fb457600080fd5b613fbd83613f85565b946020939093013593505050565b600080600060608486031215613fe057600080fd5b613fe984613f85565b95602085013595506040909401359392505050565b60008060006060848603121561401357600080fd5b61401c84613f85565b925061402a60208501613f85565b9150604084013590509250925092565b60006020828403121561404c57600080fd5b6111a582613f85565b634e487b7160e01b600052604160045260246000fd5b604051601f8201601f1916810167ffffffffffffffff8111828210171561409457614094614055565b604052919050565b600082601f8301126140ad57600080fd5b813567ffffffffffffffff8111156140c7576140c7614055565b6140da6020601f19601f8401160161406b565b8181528460208386010111156140ef57600080fd5b816020850160208301376000918101602001919091529392505050565b6000806040838503121561411f57600080fd5b823567ffffffffffffffff81111561413657600080fd5b6141428582860161409c565b95602094909401359450505050565b6000806040838503121561416457600080fd5b61416d83613f85565b9150602083013567ffffffffffffffff81111561418957600080fd5b6141958582860161409c565b9150509250929050565b6000806000606084860312156141b457600080fd5b6141bd84613f85565b9250602084013567ffffffffffffffff8111156141d957600080fd5b6141e58682870161409c565b925050604084013590509250925092565b600067ffffffffffffffff82111561421057614210614055565b5060051b60200190565b6000806040838503121561422d57600080fd5b8235915060208084013567ffffffffffffffff8082111561424d57600080fd5b818601915086601f83011261426157600080fd5b813561427461426f826141f6565b61406b565b81815260059190911b8301840190848101908983111561429357600080fd5b8585015b838110156142cb578035858111156142af5760008081fd5b6142bd8c89838a010161409c565b845250918601918601614297565b508096505050505050509250929050565b80151581146110b557600080fd5b600080604083850312156142fd57600080fd5b61430683613f85565b91506020830135614316816142dc565b809150509250929050565b60c08101818360005b60068110156143525781516001600160a01b031683526020928301929091019060010161432a565b50505092915050565b6000806000806080858703121561437157600080fd5b61437a85613f85565b935061438860208601613f85565b925060408501359150606085013567ffffffffffffffff8111156143ab57600080fd5b6143b78782880161409c565b91505092959194509250565b634e487b7160e01b600052602160045260246000fd5b60208101600483106143fb57634e487b7160e01b600052602160045260246000fd5b91905290565b6000806040838503121561441457600080fd5b61441d83613f85565b915061442b60208401613f85565b90509250929050565b803560ff81168114613f9c57600080fd5b6000806000806080858703121561445b57600080fd5b843567ffffffffffffffff8082111561447357600080fd5b61447f8883890161409c565b955060209150818701358181111561449657600080fd5b6144a289828a0161409c565b9550506040870135818111156144b757600080fd5b87019050601f810188136144ca57600080fd5b80356144d861426f826141f6565b81815260059190911b8201830190838101908a8311156144f757600080fd5b928401925b8284101561451c5761450d84613f85565b825292840192908401906144fc565b809650505050505061453060608601614434565b905092959194509250565b600181811c9082168061454f57607f821691505b6020821081141561457057634e487b7160e01b600052602260045260246000fd5b50919050565b634e487b7160e01b600052601160045260246000fd5b60008282101561459e5761459e614576565b500390565b600082198211156145b6576145b6614576565b500190565b8581528460208201526bffffffffffffffffffffffff198460601b166040820152600083516145f1816054850160208801613f01565b605492019182019290925260740195945050505050565b600060ff821660ff81141561461f5761461f614576565b60010192915050565b634e487b7160e01b600052603260045260246000fd5b60007fffffffffffffffffffffffffffffffffffffffffffffffffffffffffffffffff82141561467057614670614576565b5060010190565b60006020828403121561468957600080fd5b5051919050565b6000602082840312156146a257600080fd5b81516111a5816142dc565b60006001600160a01b038087168352808616602084015250836040830152608060608301526146df6080830184613f2d565b9695505050505050565b6000602082840312156146fb57600080fd5b81516111a581613eb6565b60008251614718818460208701613f01565b919091019291505056fe416464726573733a206c6f772d6c6576656c2064656c65676174652063616c6c206661696c6564a2646970667358221220d03534666831f3c9383c272318b1311dffcbbcb330409590ade1426654bb0f2d64736f6c63430008090033",
  "devdoc": {
    "kind": "dev",
    "methods": {
      "approve(address,uint256)": {
        "details": "See {IERC721-approve}."
      },
      "balanceOf(address)": {
        "details": "See {IERC721-balanceOf}."
      },
      "constructor": {
        "custom:oz-upgrades-unsafe-allow": "constructor"
      },
      "getApproved(uint256)": {
        "details": "See {IERC721-getApproved}."
      },
      "isApprovedForAll(address,address)": {
        "details": "See {IERC721-isApprovedForAll}."
      },
      "name()": {
        "details": "See {IERC721Metadata-name}."
      },
      "ownerOf(uint256)": {
        "details": "See {IERC721-ownerOf}."
      },
      "proxiableUUID()": {
        "details": "Implementation of the ERC1822 {proxiableUUID} function. This returns the storage slot used by the implementation. It is used to validate that the this implementation remains valid after an upgrade. IMPORTANT: A proxy pointing at a proxiable contract should not be considered proxiable itself, because this risks bricking a proxy that upgrades to it, by delegating to itself until out of gas. Thus it is critical that this function revert if invoked through a proxy. This is guaranteed by the `notDelegated` modifier."
      },
      "safeTransferFrom(address,address,uint256)": {
        "details": "See {IERC721-safeTransferFrom}."
      },
      "safeTransferFrom(address,address,uint256,bytes)": {
        "details": "See {IERC721-safeTransferFrom}."
      },
      "setApprovalForAll(address,bool)": {
        "details": "See {IERC721-setApprovalForAll}."
      },
      "supportsInterface(bytes4)": {
        "details": "See {IERC165-supportsInterface}."
      },
      "symbol()": {
        "details": "See {IERC721Metadata-symbol}."
      },
      "tokenURI(uint256)": {
        "details": "See {IERC721Metadata-tokenURI}."
      },
      "transferFrom(address,address,uint256)": {
        "details": "See {IERC721-transferFrom}."
      },
      "transferOwnership(address)": {
        "details": "Transfers ownership of the contract to a new account (`newOwner`). Can only be called by the current owner."
      },
      "upgradeTo(address)": {
        "details": "Upgrade the implementation of the proxy to `newImplementation`. Calls {_authorizeUpgrade}. Emits an {Upgraded} event."
      },
      "upgradeToAndCall(address,bytes)": {
        "details": "Upgrade the implementation of the proxy to `newImplementation`, and subsequently execute the function call encoded in `data`. Calls {_authorizeUpgrade}. Emits an {Upgraded} event."
      }
    },
    "version": 1
  },
  "userdoc": {
    "kind": "user",
    "methods": {},
    "version": 1
  },
  "storageLayout": {
    "storage": [
      {
        "astId": 395,
        "contract": "contracts/ERC721/Elf.sol:VM3NFT",
        "label": "_initialized",
        "offset": 0,
        "slot": "0",
        "type": "t_uint8"
      },
      {
        "astId": 398,
        "contract": "contracts/ERC721/Elf.sol:VM3NFT",
        "label": "_initializing",
        "offset": 1,
        "slot": "0",
        "type": "t_bool"
      },
      {
        "astId": 2407,
        "contract": "contracts/ERC721/Elf.sol:VM3NFT",
        "label": "__gap",
        "offset": 0,
        "slot": "1",
        "type": "t_array(t_uint256)50_storage"
      },
      {
        "astId": 2737,
        "contract": "contracts/ERC721/Elf.sol:VM3NFT",
        "label": "__gap",
        "offset": 0,
        "slot": "51",
        "type": "t_array(t_uint256)50_storage"
      },
      {
        "astId": 1099,
        "contract": "contracts/ERC721/Elf.sol:VM3NFT",
        "label": "_name",
        "offset": 0,
        "slot": "101",
        "type": "t_string_storage"
      },
      {
        "astId": 1101,
        "contract": "contracts/ERC721/Elf.sol:VM3NFT",
        "label": "_symbol",
        "offset": 0,
        "slot": "102",
        "type": "t_string_storage"
      },
      {
        "astId": 1105,
        "contract": "contracts/ERC721/Elf.sol:VM3NFT",
        "label": "_owners",
        "offset": 0,
        "slot": "103",
        "type": "t_mapping(t_uint256,t_address)"
      },
      {
        "astId": 1109,
        "contract": "contracts/ERC721/Elf.sol:VM3NFT",
        "label": "_balances",
        "offset": 0,
        "slot": "104",
        "type": "t_mapping(t_address,t_uint256)"
      },
      {
        "astId": 1113,
        "contract": "contracts/ERC721/Elf.sol:VM3NFT",
        "label": "_tokenApprovals",
        "offset": 0,
        "slot": "105",
        "type": "t_mapping(t_uint256,t_address)"
      },
      {
        "astId": 1119,
        "contract": "contracts/ERC721/Elf.sol:VM3NFT",
        "label": "_operatorApprovals",
        "offset": 0,
        "slot": "106",
        "type": "t_mapping(t_address,t_mapping(t_address,t_bool))"
      },
      {
        "astId": 1961,
        "contract": "contracts/ERC721/Elf.sol:VM3NFT",
        "label": "__gap",
        "offset": 0,
        "slot": "107",
        "type": "t_array(t_uint256)44_storage"
      },
      {
        "astId": 377,
        "contract": "contracts/ERC721/Elf.sol:VM3NFT",
        "label": "__gap",
        "offset": 0,
        "slot": "151",
        "type": "t_array(t_uint256)50_storage"
      },
      {
        "astId": 674,
        "contract": "contracts/ERC721/Elf.sol:VM3NFT",
        "label": "__gap",
        "offset": 0,
        "slot": "201",
        "type": "t_array(t_uint256)50_storage"
      },
      {
        "astId": 3464,
        "contract": "contracts/ERC721/Elf.sol:VM3NFT",
        "label": "_owners",
        "offset": 0,
        "slot": "251",
        "type": "t_array(t_address)6_storage"
      },
      {
        "astId": 3468,
        "contract": "contracts/ERC721/Elf.sol:VM3NFT",
        "label": "_ownersIndex",
        "offset": 0,
        "slot": "257",
        "type": "t_mapping(t_address,t_uint8)"
      },
      {
        "astId": 3470,
        "contract": "contracts/ERC721/Elf.sol:VM3NFT",
        "label": "_numOwners",
        "offset": 0,
        "slot": "258",
        "type": "t_uint8"
      },
      {
        "astId": 3475,
        "contract": "contracts/ERC721/Elf.sol:VM3NFT",
        "label": "signRequired",
        "offset": 1,
        "slot": "258",
        "type": "t_uint8"
      },
      {
        "astId": 3480,
        "contract": "contracts/ERC721/Elf.sol:VM3NFT",
        "label": "operationsStatus",
        "offset": 0,
        "slot": "259",
        "type": "t_mapping(t_bytes32,t_enum(OpStatus)3460)"
      },
      {
        "astId": 3482,
        "contract": "contracts/ERC721/Elf.sol:VM3NFT",
        "label": "nonce",
        "offset": 0,
        "slot": "260",
        "type": "t_uint256"
      },
      {
        "astId": 3892,
        "contract": "contracts/ERC721/Elf.sol:VM3NFT",
        "label": "ERC20Token",
        "offset": 0,
        "slot": "261",
        "type": "t_contract(IERC20)2828"
      },
      {
        "astId": 3894,
        "contract": "contracts/ERC721/Elf.sol:VM3NFT",
        "label": "DOMAIN",
        "offset": 0,
        "slot": "262",
        "type": "t_bytes32"
      },
      {
        "astId": 3896,
        "contract": "contracts/ERC721/Elf.sol:VM3NFT",
        "label": "locked",
        "offset": 0,
        "slot": "263",
        "type": "t_uint256"
      },
      {
        "astId": 3898,
        "contract": "contracts/ERC721/Elf.sol:VM3NFT",
        "label": "_tokenIdCounter",
        "offset": 0,
        "slot": "264",
        "type": "t_uint256"
      },
      {
        "astId": 3900,
        "contract": "contracts/ERC721/Elf.sol:VM3NFT",
        "label": "totalERC20Token",
        "offset": 0,
        "slot": "265",
        "type": "t_uint256"
      },
      {
        "astId": 3902,
        "contract": "contracts/ERC721/Elf.sol:VM3NFT",
        "label": "_costs",
        "offset": 0,
        "slot": "266",
        "type": "t_uint256"
      },
      {
        "astId": 3904,
        "contract": "contracts/ERC721/Elf.sol:VM3NFT",
        "label": "atDisposal",
        "offset": 0,
        "slot": "267",
        "type": "t_uint256"
      },
      {
        "astId": 3908,
        "contract": "contracts/ERC721/Elf.sol:VM3NFT",
        "label": "_tokenURIs",
        "offset": 0,
        "slot": "268",
        "type": "t_mapping(t_uint256,t_string_storage)"
      },
      {
        "astId": 3912,
        "contract": "contracts/ERC721/Elf.sol:VM3NFT",
        "label": "_depositAmounts",
        "offset": 0,
        "slot": "269",
        "type": "t_mapping(t_address,t_uint256)"
      }
    ],
    "types": {
      "t_address": {
        "encoding": "inplace",
        "label": "address",
        "numberOfBytes": "20"
      },
      "t_array(t_address)6_storage": {
        "base": "t_address",
        "encoding": "inplace",
        "label": "address[6]",
        "numberOfBytes": "192"
      },
      "t_array(t_uint256)44_storage": {
        "base": "t_uint256",
        "encoding": "inplace",
        "label": "uint256[44]",
        "numberOfBytes": "1408"
      },
      "t_array(t_uint256)50_storage": {
        "base": "t_uint256",
        "encoding": "inplace",
        "label": "uint256[50]",
        "numberOfBytes": "1600"
      },
      "t_bool": {
        "encoding": "inplace",
        "label": "bool",
        "numberOfBytes": "1"
      },
      "t_bytes32": {
        "encoding": "inplace",
        "label": "bytes32",
        "numberOfBytes": "32"
      },
      "t_contract(IERC20)2828": {
        "encoding": "inplace",
        "label": "contract IERC20",
        "numberOfBytes": "20"
      },
      "t_enum(OpStatus)3460": {
        "encoding": "inplace",
        "label": "enum SafeOwnableUpgradeable.OpStatus",
        "numberOfBytes": "1"
      },
      "t_mapping(t_address,t_bool)": {
        "encoding": "mapping",
        "key": "t_address",
        "label": "mapping(address => bool)",
        "numberOfBytes": "32",
        "value": "t_bool"
      },
      "t_mapping(t_address,t_mapping(t_address,t_bool))": {
        "encoding": "mapping",
        "key": "t_address",
        "label": "mapping(address => mapping(address => bool))",
        "numberOfBytes": "32",
        "value": "t_mapping(t_address,t_bool)"
      },
      "t_mapping(t_address,t_uint256)": {
        "encoding": "mapping",
        "key": "t_address",
        "label": "mapping(address => uint256)",
        "numberOfBytes": "32",
        "value": "t_uint256"
      },
      "t_mapping(t_address,t_uint8)": {
        "encoding": "mapping",
        "key": "t_address",
        "label": "mapping(address => uint8)",
        "numberOfBytes": "32",
        "value": "t_uint8"
      },
      "t_mapping(t_bytes32,t_enum(OpStatus)3460)": {
        "encoding": "mapping",
        "key": "t_bytes32",
        "label": "mapping(bytes32 => enum SafeOwnableUpgradeable.OpStatus)",
        "numberOfBytes": "32",
        "value": "t_enum(OpStatus)3460"
      },
      "t_mapping(t_uint256,t_address)": {
        "encoding": "mapping",
        "key": "t_uint256",
        "label": "mapping(uint256 => address)",
        "numberOfBytes": "32",
        "value": "t_address"
      },
      "t_mapping(t_uint256,t_string_storage)": {
        "encoding": "mapping",
        "key": "t_uint256",
        "label": "mapping(uint256 => string)",
        "numberOfBytes": "32",
        "value": "t_string_storage"
      },
      "t_string_storage": {
        "encoding": "bytes",
        "label": "string",
        "numberOfBytes": "32"
      },
      "t_uint256": {
        "encoding": "inplace",
        "label": "uint256",
        "numberOfBytes": "32"
      },
      "t_uint8": {
        "encoding": "inplace",
        "label": "uint8",
        "numberOfBytes": "1"
      }
    }
  }
}