{
  "address": "0x14FE9b582d6C02d16CAfba90385CEad0c8005BeA",
  "abi": [
    {
      "inputs": [
        {
          "internalType": "address",
          "name": "have",
          "type": "address"
        },
        {
          "internalType": "address",
          "name": "want",
          "type": "address"
        }
      ],
      "name": "OnlyCoordinatorCanFulfill",
      "type": "error"
    },
    {
      "anonymous": false,
      "inputs": [
        {
          "indexed": false,
          "internalType": "address",
          "name": "previousAdmin",
          "type": "address"
        },
        {
          "indexed": false,
          "internalType": "address",
          "name": "newAdmin",
          "type": "address"
        }
      ],
      "name": "AdminChanged",
      "type": "event"
    },
    {
      "anonymous": false,
      "inputs": [
        {
          "indexed": true,
          "internalType": "address",
          "name": "beacon",
          "type": "address"
        }
      ],
      "name": "BeaconUpgraded",
      "type": "event"
    },
    {
      "anonymous": false,
      "inputs": [
        {
          "indexed": false,
          "internalType": "address",
          "name": "to",
          "type": "address"
        },
        {
          "indexed": false,
          "internalType": "enum RaffleBag.PrizeKind",
          "name": "prizeKind",
          "type": "uint8"
        },
        {
          "indexed": false,
          "internalType": "uint256",
          "name": "value",
          "type": "uint256"
        }
      ],
      "name": "Draw",
      "type": "event"
    },
    {
      "anonymous": false,
      "inputs": [
        {
          "indexed": false,
          "internalType": "uint8",
          "name": "version",
          "type": "uint8"
        }
      ],
      "name": "Initialized",
      "type": "event"
    },
    {
      "anonymous": false,
      "inputs": [
        {
          "indexed": true,
          "internalType": "bytes32",
          "name": "opHash",
          "type": "bytes32"
        }
      ],
      "name": "OperationAdded",
      "type": "event"
    },
    {
      "anonymous": false,
      "inputs": [
        {
          "indexed": true,
          "internalType": "address",
          "name": "previousOwner",
          "type": "address"
        },
        {
          "indexed": true,
          "internalType": "address",
          "name": "newOwner",
          "type": "address"
        }
      ],
      "name": "OwnershipTransferred",
      "type": "event"
    },
    {
      "anonymous": false,
      "inputs": [
        {
          "indexed": false,
          "internalType": "uint256",
          "name": "requestId",
          "type": "uint256"
        },
        {
          "indexed": false,
          "internalType": "uint256[]",
          "name": "randomWords",
          "type": "uint256[]"
        }
      ],
      "name": "RequestFulfilled",
      "type": "event"
    },
    {
      "anonymous": false,
      "inputs": [
        {
          "indexed": false,
          "internalType": "uint256",
          "name": "requestId",
          "type": "uint256"
        },
        {
          "indexed": false,
          "internalType": "uint32",
          "name": "numWords",
          "type": "uint32"
        }
      ],
      "name": "RequestSent",
      "type": "event"
    },
    {
      "anonymous": false,
      "inputs": [
        {
          "indexed": true,
          "internalType": "address",
          "name": "implementation",
          "type": "address"
        }
      ],
      "name": "Upgraded",
      "type": "event"
    },
    {
      "inputs": [],
      "name": "ACard",
      "outputs": [
        {
          "internalType": "contract IERC721Upgradeable",
          "name": "",
          "type": "address"
        }
      ],
      "stateMutability": "view",
      "type": "function"
    },
    {
      "inputs": [
        {
          "internalType": "bytes32",
          "name": "opHash",
          "type": "bytes32"
        },
        {
          "internalType": "bytes[]",
          "name": "sigs",
          "type": "bytes[]"
        }
      ],
      "name": "AddOpHashToPending",
      "outputs": [],
      "stateMutability": "nonpayable",
      "type": "function"
    },
    {
      "inputs": [],
      "name": "BCard",
      "outputs": [
        {
          "internalType": "contract IERC721Upgradeable",
          "name": "",
          "type": "address"
        }
      ],
      "stateMutability": "view",
      "type": "function"
    },
    {
      "inputs": [],
      "name": "CCard",
      "outputs": [
        {
          "internalType": "contract IERC721Upgradeable",
          "name": "",
          "type": "address"
        }
      ],
      "stateMutability": "view",
      "type": "function"
    },
    {
      "inputs": [],
      "name": "DOMAIN",
      "outputs": [
        {
          "internalType": "bytes32",
          "name": "",
          "type": "bytes32"
        }
      ],
      "stateMutability": "view",
      "type": "function"
    },
    {
      "inputs": [],
      "name": "ERC20Token",
      "outputs": [
        {
          "internalType": "contract IERC20",
          "name": "",
          "type": "address"
        }
      ],
      "stateMutability": "view",
      "type": "function"
    },
    {
      "inputs": [
        {
          "internalType": "bytes32",
          "name": "data",
          "type": "bytes32"
        }
      ],
      "name": "HashToSign",
      "outputs": [
        {
          "internalType": "bytes32",
          "name": "",
          "type": "bytes32"
        }
      ],
      "stateMutability": "pure",
      "type": "function"
    },
    {
      "inputs": [],
      "name": "callbackGasLimit",
      "outputs": [
        {
          "internalType": "uint32",
          "name": "",
          "type": "uint32"
        }
      ],
      "stateMutability": "view",
      "type": "function"
    },
    {
      "inputs": [
        {
          "internalType": "uint256",
          "name": "number",
          "type": "uint256"
        }
      ],
      "name": "cleanPrizePool",
      "outputs": [],
      "stateMutability": "nonpayable",
      "type": "function"
    },
    {
      "inputs": [],
      "name": "cleanPrizePoolAll",
      "outputs": [],
      "stateMutability": "nonpayable",
      "type": "function"
    },
    {
      "inputs": [
        {
          "internalType": "uint256",
          "name": "nonce_",
          "type": "uint256"
        }
      ],
      "name": "draw",
      "outputs": [],
      "stateMutability": "nonpayable",
      "type": "function"
    },
    {
      "inputs": [
        {
          "internalType": "address",
          "name": "to",
          "type": "address"
        },
        {
          "internalType": "uint256",
          "name": "nonce_",
          "type": "uint256"
        }
      ],
      "name": "drawHash",
      "outputs": [
        {
          "internalType": "bytes32",
          "name": "",
          "type": "bytes32"
        }
      ],
      "stateMutability": "view",
      "type": "function"
    },
    {
      "inputs": [
        {
          "internalType": "address",
          "name": "to",
          "type": "address"
        },
        {
          "internalType": "uint256",
          "name": "nonce_",
          "type": "uint256"
        }
      ],
      "name": "drawTo",
      "outputs": [],
      "stateMutability": "nonpayable",
      "type": "function"
    },
    {
      "inputs": [],
      "name": "getPrizePool",
      "outputs": [
        {
          "components": [
            {
              "internalType": "enum RaffleBag.PrizeKind",
              "name": "prizeKind",
              "type": "uint8"
            },
            {
              "internalType": "uint256",
              "name": "amount",
              "type": "uint256"
            },
            {
              "internalType": "uint256",
              "name": "weight",
              "type": "uint256"
            },
            {
              "internalType": "uint256[]",
              "name": "tokens",
              "type": "uint256[]"
            }
          ],
          "internalType": "struct RaffleBag.Prize[]",
          "name": "",
          "type": "tuple[]"
        }
      ],
      "stateMutability": "view",
      "type": "function"
    },
    {
      "inputs": [
        {
          "internalType": "address[]",
          "name": "owners",
          "type": "address[]"
        },
        {
          "internalType": "uint8",
          "name": "signRequred",
          "type": "uint8"
        },
        {
          "internalType": "address",
          "name": "vrfCoordinatorAddress_",
          "type": "address"
        }
      ],
      "name": "initialize",
      "outputs": [],
      "stateMutability": "nonpayable",
      "type": "function"
    },
    {
      "inputs": [],
      "name": "keyHash",
      "outputs": [
        {
          "internalType": "bytes32",
          "name": "",
          "type": "bytes32"
        }
      ],
      "stateMutability": "view",
      "type": "function"
    },
    {
      "inputs": [],
      "name": "maxNumOwners",
      "outputs": [
        {
          "internalType": "uint8",
          "name": "",
          "type": "uint8"
        }
      ],
      "stateMutability": "view",
      "type": "function"
    },
    {
      "inputs": [],
      "name": "nonce",
      "outputs": [
        {
          "internalType": "uint256",
          "name": "",
          "type": "uint256"
        }
      ],
      "stateMutability": "view",
      "type": "function"
    },
    {
      "inputs": [
        {
          "internalType": "bytes32",
          "name": "",
          "type": "bytes32"
        }
      ],
      "name": "operationsStatus",
      "outputs": [
        {
          "internalType": "enum SafeOwnableUpgradeable.OpStatus",
          "name": "",
          "type": "uint8"
        }
      ],
      "stateMutability": "view",
      "type": "function"
    },
    {
      "inputs": [],
      "name": "owners",
      "outputs": [
        {
          "internalType": "address[6]",
          "name": "",
          "type": "address[6]"
        }
      ],
      "stateMutability": "view",
      "type": "function"
    },
    {
      "inputs": [],
      "name": "proxiableUUID",
      "outputs": [
        {
          "internalType": "bytes32",
          "name": "",
          "type": "bytes32"
        }
      ],
      "stateMutability": "view",
      "type": "function"
    },
    {
      "inputs": [
        {
          "internalType": "uint256",
          "name": "requestId",
          "type": "uint256"
        },
        {
          "internalType": "uint256[]",
          "name": "randomWords",
          "type": "uint256[]"
        }
      ],
      "name": "rawFulfillRandomWords",
      "outputs": [],
      "stateMutability": "nonpayable",
      "type": "function"
    },
    {
      "inputs": [
        {
          "internalType": "uint256",
          "name": "",
          "type": "uint256"
        }
      ],
      "name": "requests",
      "outputs": [
        {
          "internalType": "address",
          "name": "user",
          "type": "address"
        },
        {
          "internalType": "uint256",
          "name": "randomWord",
          "type": "uint256"
        },
        {
          "internalType": "bool",
          "name": "fulfilled",
          "type": "bool"
        },
        {
          "internalType": "bool",
          "name": "exists",
          "type": "bool"
        }
      ],
      "stateMutability": "view",
      "type": "function"
    },
    {
      "inputs": [
        {
          "internalType": "address",
          "name": "aCard_",
          "type": "address"
        }
      ],
      "name": "setACard",
      "outputs": [],
      "stateMutability": "nonpayable",
      "type": "function"
    },
    {
      "inputs": [
        {
          "internalType": "address",
          "name": "spender_",
          "type": "address"
        },
        {
          "internalType": "address",
          "name": "token",
          "type": "address"
        },
        {
          "internalType": "address",
          "name": "aCard_",
          "type": "address"
        },
        {
          "internalType": "address",
          "name": "bCard_",
          "type": "address"
        },
        {
          "internalType": "address",
          "name": "cCard_",
          "type": "address"
        }
      ],
      "name": "setAsset",
      "outputs": [],
      "stateMutability": "nonpayable",
      "type": "function"
    },
    {
      "inputs": [
        {
          "internalType": "address",
          "name": "bCard_",
          "type": "address"
        }
      ],
      "name": "setBCard",
      "outputs": [],
      "stateMutability": "nonpayable",
      "type": "function"
    },
    {
      "inputs": [
        {
          "internalType": "address",
          "name": "cCard_",
          "type": "address"
        }
      ],
      "name": "setCCard",
      "outputs": [],
      "stateMutability": "nonpayable",
      "type": "function"
    },
    {
      "inputs": [
        {
          "internalType": "uint32",
          "name": "callbackGasLimit_",
          "type": "uint32"
        },
        {
          "internalType": "uint64",
          "name": "subscribeId_",
          "type": "uint64"
        },
        {
          "internalType": "bytes32",
          "name": "keyHash_",
          "type": "bytes32"
        },
        {
          "internalType": "uint16",
          "name": "requestConfirmations_",
          "type": "uint16"
        }
      ],
      "name": "setChainlink",
      "outputs": [],
      "stateMutability": "nonpayable",
      "type": "function"
    },
    {
      "inputs": [
        {
          "internalType": "address",
          "name": "token",
          "type": "address"
        }
      ],
      "name": "setERC20",
      "outputs": [],
      "stateMutability": "nonpayable",
      "type": "function"
    },
    {
      "inputs": [
        {
          "internalType": "enum RaffleBag.PrizeKind",
          "name": "prizeKind_",
          "type": "uint8"
        },
        {
          "internalType": "uint256",
          "name": "amount_",
          "type": "uint256"
        },
        {
          "internalType": "uint256",
          "name": "weight_",
          "type": "uint256"
        },
        {
          "internalType": "uint256[]",
          "name": "tokens_",
          "type": "uint256[]"
        }
      ],
      "name": "setPrize",
      "outputs": [],
      "stateMutability": "nonpayable",
      "type": "function"
    },
    {
      "inputs": [
        {
          "internalType": "enum RaffleBag.PrizeKind[]",
          "name": "prizeKinds_",
          "type": "uint8[]"
        },
        {
          "internalType": "uint256[]",
          "name": "amounts_",
          "type": "uint256[]"
        },
        {
          "internalType": "uint256[]",
          "name": "weights_",
          "type": "uint256[]"
        },
        {
          "internalType": "uint256[][]",
          "name": "tokensList_",
          "type": "uint256[][]"
        }
      ],
      "name": "setPrizes",
      "outputs": [],
      "stateMutability": "nonpayable",
      "type": "function"
    },
    {
      "inputs": [
        {
          "internalType": "address",
          "name": "spender_",
          "type": "address"
        }
      ],
      "name": "setSpender",
      "outputs": [],
      "stateMutability": "nonpayable",
      "type": "function"
    },
    {
      "inputs": [],
      "name": "signRequired",
      "outputs": [
        {
          "internalType": "uint8",
          "name": "",
          "type": "uint8"
        }
      ],
      "stateMutability": "view",
      "type": "function"
    },
    {
      "inputs": [],
      "name": "spender",
      "outputs": [
        {
          "internalType": "address",
          "name": "",
          "type": "address"
        }
      ],
      "stateMutability": "view",
      "type": "function"
    },
    {
      "inputs": [],
      "name": "subscriptionId",
      "outputs": [
        {
          "internalType": "uint64",
          "name": "",
          "type": "uint64"
        }
      ],
      "stateMutability": "view",
      "type": "function"
    },
    {
      "inputs": [
        {
          "internalType": "address",
          "name": "newOwner",
          "type": "address"
        }
      ],
      "name": "transferOwnership",
      "outputs": [],
      "stateMutability": "nonpayable",
      "type": "function"
    },
    {
      "inputs": [
        {
          "internalType": "address",
          "name": "newImplementation",
          "type": "address"
        }
      ],
      "name": "upgradeTo",
      "outputs": [],
      "stateMutability": "nonpayable",
      "type": "function"
    },
    {
      "inputs": [
        {
          "internalType": "address",
          "name": "newImplementation",
          "type": "address"
        },
        {
          "internalType": "bytes",
          "name": "data",
          "type": "bytes"
        }
      ],
      "name": "upgradeToAndCall",
      "outputs": [],
      "stateMutability": "payable",
      "type": "function"
    }
  ],
  "numDeployments": 1,
  "solcInputHash": "e1cf359e24f8fa580aa73ab0a213f3ad",
  "bytecode": "0x60a06040523060805234801561001457600080fd5b5060805161429161004c60003960008181610b3901528181610bcf01528181610e1001528181610ea6015261102601526142916000f3fe6080604052600436106102855760003560e01c80637a29349d11610153578063bb5777e3116100cb578063e8edc8161161007f578063eb53a05711610064578063eb53a057146107fa578063f2fde38b1461081a578063ff3a9cbc1461083a57600080fd5b8063e8edc816146107ba578063eb31f475146107da57600080fd5b8063c29a6fda116100b0578063c29a6fda1461073d578063ce0d0ca01461075d578063cfee48b91461079a57600080fd5b8063bb5777e3146106fd578063c0043ca71461071d57600080fd5b8063884bf67c116101225780639846620c116101075780639846620c146106a5578063affe39c1146106c5578063affed0e0146106e757600080fd5b8063884bf67c146106635780638b5a21431461068557600080fd5b80637a29349d146105805780637a80760e1461059f57806381d12c58146105bf57806384479ff51461064357600080fd5b80633659cfe6116102015780634fe43f27116101b557806352d1902d1161019a57806352d1902d146104e757806361728f39146104fc57806375f3958c1461051257600080fd5b80634fe43f27146104a357806352a9674b146104c357600080fd5b80633eda922a116101e65780633eda922a1461045057806344439209146104705780634f1ef2861461049057600080fd5b80633659cfe6146104105780633b3041471461043057600080fd5b8063120f5bf5116102585780631fe543e31161023d5780631fe543e31461039757806324f74697146103b75780632679e47e146103f057600080fd5b8063120f5bf51461036257806312577f841461037757600080fd5b806309c1ba2e1461028a5780630bfeaf6f146102e15780630c3515ba146103195780630c81df0114610340575b600080fd5b34801561029657600080fd5b5060a9546102c39074010000000000000000000000000000000000000000900467ffffffffffffffff1681565b60405167ffffffffffffffff90911681526020015b60405180910390f35b3480156102ed57600080fd5b5060a554610301906001600160a01b031681565b6040516001600160a01b0390911681526020016102d8565b34801561032557600080fd5b5061032e600581565b60405160ff90911681526020016102d8565b34801561034c57600080fd5b5061036061035b366004613848565b61085a565b005b34801561036e57600080fd5b50610360610962565b34801561038357600080fd5b506103606103923660046138b8565b610a47565b3480156103a357600080fd5b506103606103b23660046139a7565b610ac7565b3480156103c357600080fd5b5060a9546103db90600160e01b900463ffffffff1681565b60405163ffffffff90911681526020016102d8565b3480156103fc57600080fd5b5060a454610301906001600160a01b031681565b34801561041c57600080fd5b5061036061042b366004613a0a565b610b2e565b34801561043c57600080fd5b5061036061044b3660046138b8565b610cc9565b34801561045c57600080fd5b5061036061046b366004613a0a565b610cd3565b34801561047c57600080fd5b5061036061048b366004613a0a565b610d6c565b61036061049e366004613a95565b610e05565b3480156104af57600080fd5b506103606104be366004613ae8565b610f90565b3480156104cf57600080fd5b506104d960a75481565b6040519081526020016102d8565b3480156104f357600080fd5b506104d9611019565b34801561050857600080fd5b506104d960ab5481565b34801561051e57600080fd5b506104d961052d3660046138b8565b6040517f19457468657265756d205369676e6564204d6573736167653a0a3332000000006020820152603c8101829052600090605c01604051602081830303815290604052805190602001209050919050565b34801561058c57600080fd5b50609e5461032e90610100900460ff1681565b3480156105ab57600080fd5b5060a354610301906001600160a01b031681565b3480156105cb57600080fd5b506106116105da3660046138b8565b60ac602052600090815260409020805460018201546002909201546001600160a01b03909116919060ff8082169161010090041684565b604080516001600160a01b039095168552602085019390935290151591830191909152151560608201526080016102d8565b34801561064f57600080fd5b5061036061065e366004613a0a565b6110de565b34801561066f57600080fd5b50610678611177565b6040516102d89190613b73565b34801561069157600080fd5b506103606106a0366004613c4f565b61127b565b3480156106b157600080fd5b506103606106c0366004613a0a565b6115aa565b3480156106d157600080fd5b506106da611643565b6040516102d89190613d0c565b3480156106f357600080fd5b506104d960a05481565b34801561070957600080fd5b50610360610718366004613d46565b611688565b34801561072957600080fd5b506104d9610738366004613dab565b611733565b34801561074957600080fd5b50610360610758366004613a0a565b6117c7565b34801561076957600080fd5b5061078d6107783660046138b8565b609f6020526000908152604090205460ff1681565b6040516102d89190613dd5565b3480156107a657600080fd5b5060a654610301906001600160a01b031681565b3480156107c657600080fd5b5060a254610301906001600160a01b031681565b3480156107e657600080fd5b506103606107f5366004613e6f565b611860565b34801561080657600080fd5b50610360610815366004613f7d565b6119fa565b34801561082657600080fd5b50610360610835366004613a0a565b611ba0565b34801561084657600080fd5b50610360610855366004613dab565b611d2b565b336000908152609d602052604090205460ff166108d65760405162461bcd60e51b815260206004820152602f60248201527f536166654f776e61626c655570677261646561626c653a2063616c6c6572206960448201526e39903737ba103a34329037bbb732b960891b60648201526084015b60405180910390fd5b60a9805467ffffffffffffffff90941674010000000000000000000000000000000000000000027fffffffff0000000000000000ffffffffffffffffffffffffffffffffffffffff63ffffffff909616600160e01b02959095166001600160a01b03909416939093179390931790915560ab5560aa805461ffff90921661ffff19909216919091179055565b336000908152609d602052604090205460ff166109d95760405162461bcd60e51b815260206004820152602f60248201527f536166654f776e61626c655570677261646561626c653a2063616c6c6572206960448201526e39903737ba103a34329037bbb732b960891b60648201526084016108cd565b60005b60a854811015610a445760a88054806109f7576109f7614037565b600082815260208120600460001990930192830201805460ff19168155600181018290556002810182905590610a30600383018261376c565b50509055610a3d81614063565b90506109dc565b50565b336000908152609d602052604090205460ff16610abe5760405162461bcd60e51b815260206004820152602f60248201527f536166654f776e61626c655570677261646561626c653a2063616c6c6572206960448201526e39903737ba103a34329037bbb732b960891b60648201526084016108cd565b610a4481611d35565b60a1546001600160a01b03163314610b205760a1546040517f1cf993f40000000000000000000000000000000000000000000000000000000081523360048201526001600160a01b0390911660248201526044016108cd565b610b2a8282611e69565b5050565b306001600160a01b037f0000000000000000000000000000000000000000000000000000000000000000161415610bcd5760405162461bcd60e51b815260206004820152602c60248201527f46756e6374696f6e206d7573742062652063616c6c6564207468726f7567682060448201527f64656c656761746563616c6c000000000000000000000000000000000000000060648201526084016108cd565b7f00000000000000000000000000000000000000000000000000000000000000006001600160a01b0316610c287f360894a13ba1a3210667c828492db98dca3e2076cc3735a920a3ca505d382bbc546001600160a01b031690565b6001600160a01b031614610ca45760405162461bcd60e51b815260206004820152602c60248201527f46756e6374696f6e206d7573742062652063616c6c6564207468726f7567682060448201527f6163746976652070726f7879000000000000000000000000000000000000000060648201526084016108cd565b610cad81611fec565b60408051600080825260208201909252610a4491839190612063565b610a443382612217565b336000908152609d602052604090205460ff16610d4a5760405162461bcd60e51b815260206004820152602f60248201527f536166654f776e61626c655570677261646561626c653a2063616c6c6572206960448201526e39903737ba103a34329037bbb732b960891b60648201526084016108cd565b60a580546001600160a01b0319166001600160a01b0392909216919091179055565b336000908152609d602052604090205460ff16610de35760405162461bcd60e51b815260206004820152602f60248201527f536166654f776e61626c655570677261646561626c653a2063616c6c6572206960448201526e39903737ba103a34329037bbb732b960891b60648201526084016108cd565b60a280546001600160a01b0319166001600160a01b0392909216919091179055565b306001600160a01b037f0000000000000000000000000000000000000000000000000000000000000000161415610ea45760405162461bcd60e51b815260206004820152602c60248201527f46756e6374696f6e206d7573742062652063616c6c6564207468726f7567682060448201527f64656c656761746563616c6c000000000000000000000000000000000000000060648201526084016108cd565b7f00000000000000000000000000000000000000000000000000000000000000006001600160a01b0316610eff7f360894a13ba1a3210667c828492db98dca3e2076cc3735a920a3ca505d382bbc546001600160a01b031690565b6001600160a01b031614610f7b5760405162461bcd60e51b815260206004820152602c60248201527f46756e6374696f6e206d7573742062652063616c6c6564207468726f7567682060448201527f6163746976652070726f7879000000000000000000000000000000000000000060648201526084016108cd565b610f8482611fec565b610b2a82826001612063565b336000908152609d602052604090205460ff166110075760405162461bcd60e51b815260206004820152602f60248201527f536166654f776e61626c655570677261646561626c653a2063616c6c6572206960448201526e39903737ba103a34329037bbb732b960891b60648201526084016108cd565b611013848484846122e0565b50505050565b6000306001600160a01b037f000000000000000000000000000000000000000000000000000000000000000016146110b95760405162461bcd60e51b815260206004820152603860248201527f555550535570677261646561626c653a206d757374206e6f742062652063616c60448201527f6c6564207468726f7567682064656c656761746563616c6c000000000000000060648201526084016108cd565b507f360894a13ba1a3210667c828492db98dca3e2076cc3735a920a3ca505d382bbc90565b336000908152609d602052604090205460ff166111555760405162461bcd60e51b815260206004820152602f60248201527f536166654f776e61626c655570677261646561626c653a2063616c6c6572206960448201526e39903737ba103a34329037bbb732b960891b60648201526084016108cd565b60a480546001600160a01b0319166001600160a01b0392909216919091179055565b606060a8805480602002602001604051908101604052809291908181526020016000905b8282101561127257838290600052602060002090600402016040518060800160405290816000820160009054906101000a900460ff1660048111156111e2576111e2613b49565b60048111156111f3576111f3613b49565b815260200160018201548152602001600282015481526020016003820180548060200260200160405190810160405280929190818152602001828054801561125a57602002820191906000526020600020905b815481526020019060010190808311611246575b5050505050815250508152602001906001019061119b565b50505050905090565b8181600061128761378a565b336000908152609d602052604090205460ff16156112f257816112a98161407e565b925050600181609d60006112ba3390565b6001600160a01b0316815260208101919091526040016000205460ff16600681106112e7576112e761409e565b911515602090920201525b60005b83518160ff161015611432576000611332858360ff168151811061131b5761131b61409e565b60200260200101518761238e90919063ffffffff16565b6001600160a01b0381166000908152609d602052604090205490915060ff16806113c45760405162461bcd60e51b815260206004820152602b60248201527f536166654f776e61626c655570677261646561626c653a207369676e6572206960448201527f73206e6f74206f776e657200000000000000000000000000000000000000000060648201526084016108cd565b838160ff16600681106113d9576113d961409e565b60200201511515600114156113ef575050611420565b6001848260ff16600681106114065761140661409e565b911515602090920201528461141a8161407e565b95505050505b8061142a8161407e565b9150506112f5565b50609e5460ff610100909104811690831610156114b75760405162461bcd60e51b815260206004820152602a60248201527f536166654f776e61626c655570677261646561626c653a206e6f20656e6f756760448201527f6820636f6e6669726d730000000000000000000000000000000000000000000060648201526084016108cd565b60a080549060006114c783614063565b90915550506000868152609f602052604081205460ff1660038111156114ef576114ef613b49565b146115625760405162461bcd60e51b815260206004820152603760248201527f536166654f776e61626c655570677261646561626c653a206f7065726174696f60448201527f6e20776173206e6f74207375626d69747465642079657400000000000000000060648201526084016108cd565b6000868152609f6020526040808220805460ff191660011790555187917f33775024b20f211f019e50305c897b2105edc4642384143897ac170fb37f54a191a2505050505050565b336000908152609d602052604090205460ff166116215760405162461bcd60e51b815260206004820152602f60248201527f536166654f776e61626c655570677261646561626c653a2063616c6c6572206960448201526e39903737ba103a34329037bbb732b960891b60648201526084016108cd565b60a680546001600160a01b0319166001600160a01b0392909216919091179055565b61164b61378a565b6040805160c08101918290529060979060069082845b81546001600160a01b03168152600190910190602001808311611661575050505050905090565b336000908152609d602052604090205460ff166116ff5760405162461bcd60e51b815260206004820152602f60248201527f536166654f776e61626c655570677261646561626c653a2063616c6c6572206960448201526e39903737ba103a34329037bbb732b960891b60648201526084016108cd565b61170885610d6c565b611711846117c7565b61171a836110de565b61172382610cd3565b61172c816115aa565b5050505050565b600060a7547fc0043ca721c3ed4d197f24667122995e046db08c3273aac1ff3bf81307bf6d8e84846040516020016117a99493929190938452602084019290925260601b7fffffffffffffffffffffffffffffffffffffffff000000000000000000000000166040830152605482015260740190565b60405160208183030381529060405280519060200120905092915050565b336000908152609d602052604090205460ff1661183e5760405162461bcd60e51b815260206004820152602f60248201527f536166654f776e61626c655570677261646561626c653a2063616c6c6572206960448201526e39903737ba103a34329037bbb732b960891b60648201526084016108cd565b60a380546001600160a01b0319166001600160a01b0392909216919091179055565b336000908152609d602052604090205460ff166118d75760405162461bcd60e51b815260206004820152602f60248201527f536166654f776e61626c655570677261646561626c653a2063616c6c6572206960448201526e39903737ba103a34329037bbb732b960891b60648201526084016108cd565b83518084511480156118e95750808351145b80156118f55750808251145b6119675760405162461bcd60e51b815260206004820152602a60248201527f526166666c654261673a206c656e677468206f6620746865206461746120697360448201527f20646966666572656e740000000000000000000000000000000000000000000060648201526084016108cd565b60005b818110156119f2576119e28682815181106119875761198761409e565b60200260200101518683815181106119a1576119a161409e565b60200260200101518684815181106119bb576119bb61409e565b60200260200101518685815181106119d5576119d561409e565b60200260200101516122e0565b6119eb81614063565b905061196a565b505050505050565b600054610100900460ff1615808015611a1a5750600054600160ff909116105b80611a345750303b158015611a34575060005460ff166001145b611aa65760405162461bcd60e51b815260206004820152602e60248201527f496e697469616c697a61626c653a20636f6e747261637420697320616c72656160448201527f647920696e697469616c697a656400000000000000000000000000000000000060648201526084016108cd565b6000805460ff191660011790558015611ac9576000805461ff0019166101001790555b611ad384846123b2565b611adc82612737565b60a980546001600160a01b0319166001600160a01b038416179055611aff612863565b604080517f20a714382505729b6977051cb17e2cd66b3149e150240124aa4917fe7f2189906020820152469181019190915230606082015260800160408051601f19818403018152919052805160209091012060a7558015611013576000805461ff0019169055604051600181527f7f26b83ff96e1f2b6a682f133852f6798a09c465da95921460cefb38474024989060200160405180910390a150505050565b336000908152609d602052604090205460ff16611c175760405162461bcd60e51b815260206004820152602f60248201527f536166654f776e61626c655570677261646561626c653a2063616c6c6572206960448201526e39903737ba103a34329037bbb732b960891b60648201526084016108cd565b6001600160a01b038116611c935760405162461bcd60e51b815260206004820152603560248201527f536166654f776e61626c655570677261646561626c653a206e6577206f776e6560448201527f7220697320746865207a65726f2061646472657373000000000000000000000060648201526084016108cd565b6001600160a01b0381166000908152609d602052604090205460ff1615611d225760405162461bcd60e51b815260206004820152603060248201527f536166654f776e61626c655570677261646561626c653a206e6577206f776e6560448201527f7220616c7265616479206578697374730000000000000000000000000000000060648201526084016108cd565b610a44816128e2565b610b2a8282612217565b60a854600090611d47906001906140b4565b9050808214611e1757815b81811015611e155760a8611d678260016140cb565b81548110611d7757611d7761409e565b906000526020600020906004020160a88281548110611d9857611d9861409e565b60009182526020909120825460049283029091018054909260ff90921691839160ff1916906001908490811115611dd157611dd1613b49565b021790555060018201548160010155600282015481600201556003820181600301908054611e009291906137a8565b5090505080611e0e90614063565b9050611d52565b505b60a8805480611e2857611e28614037565b600082815260208120600460001990930192830201805460ff19168155600181018290556002810182905590611e61600383018261376c565b505090555050565b600082815260ac6020526040902060020154610100900460ff16611ecf5760405162461bcd60e51b815260206004820152601c60248201527f526166666c654261673a2072657175657374206e6f7420666f756e640000000060448201526064016108cd565b600082815260ac602052604090206002015460ff1615611f575760405162461bcd60e51b815260206004820152602560248201527f526166666c654261673a207265717565737420686173206265656e2070726f6360448201527f657373656400000000000000000000000000000000000000000000000000000060648201526084016108cd565b600082815260ac60205260408120600201805460ff191660011790558151829190611f8457611f8461409e565b602002602001015160ac600084815260200190815260200160002060010181905550611faf82612981565b7ffe2e2d779dba245964d4e3ef9b994be63856fd568bf7d3ca9e224755cb1bd54d8282604051611fe09291906140e3565b60405180910390a15050565b336000908152609d602052604090205460ff16610a445760405162461bcd60e51b815260206004820152602f60248201527f536166654f776e61626c655570677261646561626c653a2063616c6c6572206960448201526e39903737ba103a34329037bbb732b960891b60648201526084016108cd565b7f4910fdfa16fed3260ed0e7147f7cc6da11a60208b5b9406d12a635614ffd91435460ff161561209b5761209683612e8b565b505050565b826001600160a01b03166352d1902d6040518163ffffffff1660e01b815260040160206040518083038186803b1580156120d457600080fd5b505afa925050508015612104575060408051601f3d908101601f1916820190925261210191810190614131565b60015b6121765760405162461bcd60e51b815260206004820152602e60248201527f45524331393637557067726164653a206e657720696d706c656d656e7461746960448201527f6f6e206973206e6f74205555505300000000000000000000000000000000000060648201526084016108cd565b7f360894a13ba1a3210667c828492db98dca3e2076cc3735a920a3ca505d382bbc811461220b5760405162461bcd60e51b815260206004820152602960248201527f45524331393637557067726164653a20756e737570706f727465642070726f7860448201527f6961626c6555554944000000000000000000000000000000000000000000000060648201526084016108cd565b50612096838383612f49565b61222461052d8383611733565b60016000828152609f602052604090205460ff16600381111561224957612249613b49565b146122bc5760405162461bcd60e51b815260206004820152603060248201527f536166654f776e61626c655570677261646561626c653a206f7065726174696f60448201527f6e206e6f7420696e2070656e64696e670000000000000000000000000000000060648201526084016108cd565b6000818152609f60205260409020805460ff19166002179055611013836001612f6e565b60a860405180608001604052808660048111156122ff576122ff613b49565b81526020808201879052604082018690526060909101849052825460018181018555600094855291909320825160049485029091018054939490939192849260ff191691849081111561235457612354613b49565b02179055506020828101516001830155604083015160028301556060830151805161238592600385019201906137f8565b50505050505050565b600080600061239d8585613124565b915091506123aa8161316a565b509392505050565b600054610100900460ff1661242f5760405162461bcd60e51b815260206004820152602b60248201527f496e697469616c697a61626c653a20636f6e7472616374206973206e6f74206960448201527f6e697469616c697a696e6700000000000000000000000000000000000000000060648201526084016108cd565b8151600510156124a75760405162461bcd60e51b815260206004820152603360248201527f536166654f776e61626c655570677261646561626c653a657863656564206d6160448201527f78696d756d206e756d626572206f776e6572730000000000000000000000000060648201526084016108cd565b60ff811661251d5760405162461bcd60e51b815260206004820152602c60248201527f536166654f776e61626c655570677261646561626c653a207369676e5265717560448201527f69726564206973207a65726f000000000000000000000000000000000000000060648201526084016108cd565b609e805461ff00191661010060ff84160217905560005b82518110156126b35760008382815181106125515761255161409e565b6020908102919091018101516001600160a01b0381166000908152609d90925260409091205490915060ff16156125f05760405162461bcd60e51b815260206004820152602c60248201527f536166654f776e61626c655570677261646561626c653a206f776e657220616c60448201527f726561647920657869737473000000000000000000000000000000000000000060648201526084016108cd565b609e805482916097916000906126089060ff1661407e565b91906101000a81548160ff021916908360ff160217905560ff16600681106126325761263261409e565b0180546001600160a01b039283166001600160a01b0319909116179055609e549082166000818152609d6020526040808220805460ff191660ff9095169490941790935591519091907f8be0079c531659141344cd1fd0a4f28419497f9722a3daafe3b4186f6b6457e0908290a350806126ab81614063565b915050612534565b50609e5460ff808216610100909204161115610b2a5760405162461bcd60e51b815260206004820152603560248201527f536166654f776e61626c655570677261646561626c653a206f776e657273206c60448201527f657373207468616e207369676e5265717569726564000000000000000000000060648201526084016108cd565b600054610100900460ff16158080156127575750600054600160ff909116105b806127715750303b158015612771575060005460ff166001145b6127e35760405162461bcd60e51b815260206004820152602e60248201527f496e697469616c697a61626c653a20636f6e747261637420697320616c72656160448201527f647920696e697469616c697a656400000000000000000000000000000000000060648201526084016108cd565b6000805460ff191660011790558015612806576000805461ff0019166101001790555b60a180546001600160a01b0319166001600160a01b0384161790558015610b2a576000805461ff0019169055604051600181527f7f26b83ff96e1f2b6a682f133852f6798a09c465da95921460cefb384740249890602001611fe0565b600054610100900460ff166128e05760405162461bcd60e51b815260206004820152602b60248201527f496e697469616c697a61626c653a20636f6e7472616374206973206e6f74206960448201527f6e697469616c697a696e6700000000000000000000000000000000000000000060648201526084016108cd565b565b336000818152609d602052604090205460ff1682609782600681106129095761290961409e565b0180546001600160a01b0319166001600160a01b039283161790558281166000818152609d6020526040808220805460ff19908116909155938716808352818320805490951660ff871617909455517f8be0079c531659141344cd1fd0a4f28419497f9722a3daafe3b4186f6b6457e09190a3505050565b60ad5460ff16156129d45760405162461bcd60e51b815260206004820152600e60248201527f4e6f2072652d656e7472616e637900000000000000000000000000000000000060448201526064016108cd565b60ad805460ff19166001908117909155600082815260ac602052604090200154612a665760405162461bcd60e51b815260206004820152602d60248201527f526166666c654261673a205468652072616e646f6d576f726473206e756d626560448201527f722063616e6e6f7420626520300000000000000000000000000000000000000060648201526084016108cd565b600081815260ac6020526040812080546001909101546001600160a01b039091169190612a929061335b565b90506000600460a88381548110612aab57612aab61409e565b600091825260209091206004918202015460ff1690811115612acf57612acf613b49565b1415612baf5760a88281548110612ae857612ae861409e565b600091825260209091206004918202016001015460a35460a2546040517f23b872dd0000000000000000000000000000000000000000000000000000000081526001600160a01b039182169481019490945286811660248501526044840183905291935016906323b872dd90606401602060405180830381600087803b158015612b7157600080fd5b505af1158015612b85573d6000803e3d6000fd5b505050506040513d601f19601f82011682018060405250810190612ba9919061414a565b50612e1a565b600360a88381548110612bc457612bc461409e565b600091825260209091206004918202015460ff1690811115612be857612be8613b49565b14612e1a5760008060a88481548110612c0357612c0361409e565b600091825260209091206004918202015460ff1690811115612c2757612c27613b49565b1415612c3f575060a4546001600160a01b0316612c9e565b600160a88481548110612c5457612c5461409e565b600091825260209091206004918202015460ff1690811115612c7857612c78613b49565b1415612c90575060a5546001600160a01b0316612c9e565b5060a6546001600160a01b03165b60a88381548110612cb157612cb161409e565b9060005260206000209060040201600301600160a88581548110612cd757612cd761409e565b906000526020600020906004020160030180549050612cf691906140b4565b81548110612d0657612d0661409e565b60009182526020909120015460a2546040517f42842e0e0000000000000000000000000000000000000000000000000000000081526001600160a01b0391821660048201528682166024820152604481018390529193508216906342842e0e90606401600060405180830381600087803b158015612d8357600080fd5b505af1158015612d97573d6000803e3d6000fd5b5050505060a88381548110612dae57612dae61409e565b9060005260206000209060040201600301805480612dce57612dce614037565b6001900381819060005260206000200160009055905560a88381548110612df757612df761409e565b6000918252602090912060036004909202010154612e1857612e1883611d35565b505b7f18fae4e39f8491a45627936656bb2c101acc51aa243e74fe8e46ad0f2f56aee18360a88481548110612e4f57612e4f61409e565b6000918252602090912060049091020154604051612e73929160ff1690859061416c565b60405180910390a1505060ad805460ff191690555050565b6001600160a01b0381163b612f085760405162461bcd60e51b815260206004820152602d60248201527f455243313936373a206e657720696d706c656d656e746174696f6e206973206e60448201527f6f74206120636f6e74726163740000000000000000000000000000000000000060648201526084016108cd565b7f360894a13ba1a3210667c828492db98dca3e2076cc3735a920a3ca505d382bbc80546001600160a01b0319166001600160a01b0392909216919091179055565b612f52836134f4565b600082511180612f5f5750805b15612096576110138383613534565b60a95460ab5460aa546040517f5d3b1d30000000000000000000000000000000000000000000000000000000008152600481019290925267ffffffffffffffff74010000000000000000000000000000000000000000840416602483015261ffff16604482015263ffffffff600160e01b830481166064830152831660848201526000916001600160a01b031690635d3b1d309060a401602060405180830381600087803b15801561301f57600080fd5b505af1158015613033573d6000803e3d6000fd5b505050506040513d601f19601f820116820180604052508101906130579190614131565b604080516080810182526001600160a01b0386811682526000602080840182815284860183815260016060870181815289865260ac855294889020965187546001600160a01b0319169616959095178655905193850193909355915160029093018054915161ffff1990921693151561ff001916939093176101009115159190910217909155815183815263ffffffff8616918101919091529192507fcc58b13ad3eab50626c6a6300b1d139cd6ebb1688a7cced9461c2f7e762665ee910160405180910390a192915050565b60008082516041141561315b5760208301516040840151606085015160001a61314f8782858561363f565b94509450505050613163565b506000905060025b9250929050565b600081600481111561317e5761317e613b49565b14156131875750565b600181600481111561319b5761319b613b49565b14156131e95760405162461bcd60e51b815260206004820152601860248201527f45434453413a20696e76616c6964207369676e6174757265000000000000000060448201526064016108cd565b60028160048111156131fd576131fd613b49565b141561324b5760405162461bcd60e51b815260206004820152601f60248201527f45434453413a20696e76616c6964207369676e6174757265206c656e6774680060448201526064016108cd565b600381600481111561325f5761325f613b49565b14156132d35760405162461bcd60e51b815260206004820152602260248201527f45434453413a20696e76616c6964207369676e6174757265202773272076616c60448201527f756500000000000000000000000000000000000000000000000000000000000060648201526084016108cd565b60048160048111156132e7576132e7613b49565b1415610a445760405162461bcd60e51b815260206004820152602260248201527f45434453413a20696e76616c6964207369676e6174757265202776272076616c60448201527f756500000000000000000000000000000000000000000000000000000000000060648201526084016108cd565b60008060005b60a8548110156133ad5760a8818154811061337e5761337e61409e565b9060005260206000209060040201600201548261339b91906140cb565b91506133a681614063565b9050613361565b5060a8546133bc9060016140cb565b915060006133ca8285614197565b90506000805b60a85481101561347457801561341d5760a86133ed6001836140b4565b815481106133fd576133fd61409e565b9060005260206000209060040201600201548261341a91906140cb565b91505b81831015801561345b57508160a8828154811061343c5761343c61409e565b90600052602060002090600402016002015461345891906140cb565b83105b15613464578094505b61346d81614063565b90506133d0565b5060a85484106134ec5760405162461bcd60e51b815260206004820152603560248201527f526166666c654261673a20546865726520697320616e206572726f7220696e2060448201527f74616b696e672072616e646f6d206e756d62657273000000000000000000000060648201526084016108cd565b505050919050565b6134fd81612e8b565b6040516001600160a01b038216907fbc7cd75a20ee27fd9adebab32041f755214dbc6bffa90cc0225b39da2e5c2d3b90600090a250565b60606001600160a01b0383163b6135b35760405162461bcd60e51b815260206004820152602660248201527f416464726573733a2064656c65676174652063616c6c20746f206e6f6e2d636f60448201527f6e7472616374000000000000000000000000000000000000000000000000000060648201526084016108cd565b600080846001600160a01b0316846040516135ce91906141e5565b600060405180830381855af49150503d8060008114613609576040519150601f19603f3d011682016040523d82523d6000602084013e61360e565b606091505b509150915061363682826040518060600160405280602781526020016142356027913961372c565b95945050505050565b6000807f7fffffffffffffffffffffffffffffff5d576e7357a4501ddfe92f46681b20a08311156136765750600090506003613723565b8460ff16601b1415801561368e57508460ff16601c14155b1561369f5750600090506004613723565b6040805160008082526020820180845289905260ff881692820192909252606081018690526080810185905260019060a0016020604051602081039080840390855afa1580156136f3573d6000803e3d6000fd5b5050604051601f1901519150506001600160a01b03811661371c57600060019250925050613723565b9150600090505b94509492505050565b6060831561373b575081613765565b82511561374b5782518084602001fd5b8160405162461bcd60e51b81526004016108cd9190614201565b9392505050565b5080546000825590600052602060002090810190610a449190613833565b6040518060c001604052806006906020820280368337509192915050565b8280548282559060005260206000209081019282156137e85760005260206000209182015b828111156137e85782548255916001019190600101906137cd565b506137f4929150613833565b5090565b8280548282559060005260206000209081019282156137e8579160200282015b828111156137e8578251825591602001919060010190613818565b5b808211156137f45760008155600101613834565b6000806000806080858703121561385e57600080fd5b843563ffffffff8116811461387257600080fd5b9350602085013567ffffffffffffffff8116811461388f57600080fd5b925060408501359150606085013561ffff811681146138ad57600080fd5b939692955090935050565b6000602082840312156138ca57600080fd5b5035919050565b634e487b7160e01b600052604160045260246000fd5b604051601f8201601f1916810167ffffffffffffffff81118282101715613910576139106138d1565b604052919050565b600067ffffffffffffffff821115613932576139326138d1565b5060051b60200190565b600082601f83011261394d57600080fd5b8135602061396261395d83613918565b6138e7565b82815260059290921b8401810191818101908684111561398157600080fd5b8286015b8481101561399c5780358352918301918301613985565b509695505050505050565b600080604083850312156139ba57600080fd5b82359150602083013567ffffffffffffffff8111156139d857600080fd5b6139e48582860161393c565b9150509250929050565b80356001600160a01b0381168114613a0557600080fd5b919050565b600060208284031215613a1c57600080fd5b613765826139ee565b600082601f830112613a3657600080fd5b813567ffffffffffffffff811115613a5057613a506138d1565b613a636020601f19601f840116016138e7565b818152846020838601011115613a7857600080fd5b816020850160208301376000918101602001919091529392505050565b60008060408385031215613aa857600080fd5b613ab1836139ee565b9150602083013567ffffffffffffffff811115613acd57600080fd5b6139e485828601613a25565b803560058110613a0557600080fd5b60008060008060808587031215613afe57600080fd5b613b0785613ad9565b93506020850135925060408501359150606085013567ffffffffffffffff811115613b3157600080fd5b613b3d8782880161393c565b91505092959194509250565b634e487b7160e01b600052602160045260246000fd5b60058110613b6f57613b6f613b49565b9052565b60006020808301818452808551808352604092508286019150828160051b8701018488016000805b84811015613c40577fffffffffffffffffffffffffffffffffffffffffffffffffffffffffffffffc08a850301865282516080808601613bdc878451613b5f565b828b0151878c0152898301518a880152606092830151928701919091528151908190529089019060a086019084905b80821015613c2b5783518352928b0192918b019160019190910190613c0b565b50509689019694505091870191600101613b9b565b50919998505050505050505050565b60008060408385031215613c6257600080fd5b8235915060208084013567ffffffffffffffff80821115613c8257600080fd5b818601915086601f830112613c9657600080fd5b8135613ca461395d82613918565b81815260059190911b83018401908481019089831115613cc357600080fd5b8585015b83811015613cfb57803585811115613cdf5760008081fd5b613ced8c89838a0101613a25565b845250918601918601613cc7565b508096505050505050509250929050565b60c08101818360005b6006811015613d3d5781516001600160a01b0316835260209283019290910190600101613d15565b50505092915050565b600080600080600060a08688031215613d5e57600080fd5b613d67866139ee565b9450613d75602087016139ee565b9350613d83604087016139ee565b9250613d91606087016139ee565b9150613d9f608087016139ee565b90509295509295909350565b60008060408385031215613dbe57600080fd5b613dc7836139ee565b946020939093013593505050565b6020810160048310613de957613de9613b49565b91905290565b600082601f830112613e0057600080fd5b81356020613e1061395d83613918565b82815260059290921b84018101918181019086841115613e2f57600080fd5b8286015b8481101561399c57803567ffffffffffffffff811115613e535760008081fd5b613e618986838b010161393c565b845250918301918301613e33565b60008060008060808587031215613e8557600080fd5b843567ffffffffffffffff80821115613e9d57600080fd5b818701915087601f830112613eb157600080fd5b81356020613ec161395d83613918565b82815260059290921b8401810191818101908b841115613ee057600080fd5b948201945b83861015613f0557613ef686613ad9565b82529482019490820190613ee5565b98505088013592505080821115613f1b57600080fd5b613f278883890161393c565b94506040870135915080821115613f3d57600080fd5b613f498883890161393c565b93506060870135915080821115613f5f57600080fd5b50613b3d87828801613def565b803560ff81168114613a0557600080fd5b600080600060608486031215613f9257600080fd5b833567ffffffffffffffff811115613fa957600080fd5b8401601f81018613613fba57600080fd5b80356020613fca61395d83613918565b82815260059290921b83018101918181019089841115613fe957600080fd5b938201935b8385101561400e57613fff856139ee565b82529382019390820190613fee565b965061401d9050878201613f6c565b945050505061402e604085016139ee565b90509250925092565b634e487b7160e01b600052603160045260246000fd5b634e487b7160e01b600052601160045260246000fd5b60006000198214156140775761407761404d565b5060010190565b600060ff821660ff8114156140955761409561404d565b60010192915050565b634e487b7160e01b600052603260045260246000fd5b6000828210156140c6576140c661404d565b500390565b600082198211156140de576140de61404d565b500190565b6000604082018483526020604081850152818551808452606086019150828701935060005b8181101561412457845183529383019391830191600101614108565b5090979650505050505050565b60006020828403121561414357600080fd5b5051919050565b60006020828403121561415c57600080fd5b8151801515811461376557600080fd5b6001600160a01b0384168152606081016141896020830185613b5f565b826040830152949350505050565b6000826141b457634e487b7160e01b600052601260045260246000fd5b500690565b60005b838110156141d45781810151838201526020016141bc565b838111156110135750506000910152565b600082516141f78184602087016141b9565b9190910192915050565b60208152600082518060208401526142208160408501602087016141b9565b601f01601f1916919091016040019291505056fe416464726573733a206c6f772d6c6576656c2064656c65676174652063616c6c206661696c6564a2646970667358221220f652cd14b0cf4e5a5fa8d1b75ff6b1525dec1bffc5b2ea43442d1d0c41e1c54964736f6c63430008090033",
  "devdoc": {
    "kind": "dev",
    "methods": {
      "proxiableUUID()": {
        "details": "Implementation of the ERC1822 {proxiableUUID} function. This returns the storage slot used by the implementation. It is used to validate that the this implementation remains valid after an upgrade. IMPORTANT: A proxy pointing at a proxiable contract should not be considered proxiable itself, because this risks bricking a proxy that upgrades to it, by delegating to itself until out of gas. Thus it is critical that this function revert if invoked through a proxy. This is guaranteed by the `notDelegated` modifier."
      },
      "transferOwnership(address)": {
        "details": "Transfers ownership of the contract to a new account (`newOwner`). Can only be called by the current owner."
      },
      "upgradeTo(address)": {
        "details": "Upgrade the implementation of the proxy to `newImplementation`. Calls {_authorizeUpgrade}. Emits an {Upgraded} event."
      },
      "upgradeToAndCall(address,bytes)": {
        "details": "Upgrade the implementation of the proxy to `newImplementation`, and subsequently execute the function call encoded in `data`. Calls {_authorizeUpgrade}. Emits an {Upgraded} event."
      }
    },
    "version": 1
  },
  "userdoc": {
    "kind": "user",
    "methods": {},
    "version": 1
  },
  "storageLayout": {
    "storage": [
      {
        "astId": 491,
        "contract": "contracts/DrawingGame/RaffleBag.sol:RaffleBag",
        "label": "_initialized",
        "offset": 0,
        "slot": "0",
        "type": "t_uint8"
      },
      {
        "astId": 494,
        "contract": "contracts/DrawingGame/RaffleBag.sol:RaffleBag",
        "label": "_initializing",
        "offset": 1,
        "slot": "0",
        "type": "t_bool"
      },
      {
        "astId": 473,
        "contract": "contracts/DrawingGame/RaffleBag.sol:RaffleBag",
        "label": "__gap",
        "offset": 0,
        "slot": "1",
        "type": "t_array(t_uint256)50_storage"
      },
      {
        "astId": 770,
        "contract": "contracts/DrawingGame/RaffleBag.sol:RaffleBag",
        "label": "__gap",
        "offset": 0,
        "slot": "51",
        "type": "t_array(t_uint256)50_storage"
      },
      {
        "astId": 1566,
        "contract": "contracts/DrawingGame/RaffleBag.sol:RaffleBag",
        "label": "__gap",
        "offset": 0,
        "slot": "101",
        "type": "t_array(t_uint256)50_storage"
      },
      {
        "astId": 2353,
        "contract": "contracts/DrawingGame/RaffleBag.sol:RaffleBag",
        "label": "_owners",
        "offset": 0,
        "slot": "151",
        "type": "t_array(t_address)6_storage"
      },
      {
        "astId": 2357,
        "contract": "contracts/DrawingGame/RaffleBag.sol:RaffleBag",
        "label": "_ownersIndex",
        "offset": 0,
        "slot": "157",
        "type": "t_mapping(t_address,t_uint8)"
      },
      {
        "astId": 2359,
        "contract": "contracts/DrawingGame/RaffleBag.sol:RaffleBag",
        "label": "_numOwners",
        "offset": 0,
        "slot": "158",
        "type": "t_uint8"
      },
      {
        "astId": 2364,
        "contract": "contracts/DrawingGame/RaffleBag.sol:RaffleBag",
        "label": "signRequired",
        "offset": 1,
        "slot": "158",
        "type": "t_uint8"
      },
      {
        "astId": 2369,
        "contract": "contracts/DrawingGame/RaffleBag.sol:RaffleBag",
        "label": "operationsStatus",
        "offset": 0,
        "slot": "159",
        "type": "t_mapping(t_bytes32,t_enum(OpStatus)2349)"
      },
      {
        "astId": 2371,
        "contract": "contracts/DrawingGame/RaffleBag.sol:RaffleBag",
        "label": "nonce",
        "offset": 0,
        "slot": "160",
        "type": "t_uint256"
      },
      {
        "astId": 2741,
        "contract": "contracts/DrawingGame/RaffleBag.sol:RaffleBag",
        "label": "vrfCoordinator",
        "offset": 0,
        "slot": "161",
        "type": "t_address"
      },
      {
        "astId": 4028,
        "contract": "contracts/DrawingGame/RaffleBag.sol:RaffleBag",
        "label": "spender",
        "offset": 0,
        "slot": "162",
        "type": "t_address"
      },
      {
        "astId": 4031,
        "contract": "contracts/DrawingGame/RaffleBag.sol:RaffleBag",
        "label": "ERC20Token",
        "offset": 0,
        "slot": "163",
        "type": "t_contract(IERC20)1717"
      },
      {
        "astId": 4034,
        "contract": "contracts/DrawingGame/RaffleBag.sol:RaffleBag",
        "label": "ACard",
        "offset": 0,
        "slot": "164",
        "type": "t_contract(IERC721Upgradeable)1282"
      },
      {
        "astId": 4037,
        "contract": "contracts/DrawingGame/RaffleBag.sol:RaffleBag",
        "label": "BCard",
        "offset": 0,
        "slot": "165",
        "type": "t_contract(IERC721Upgradeable)1282"
      },
      {
        "astId": 4040,
        "contract": "contracts/DrawingGame/RaffleBag.sol:RaffleBag",
        "label": "CCard",
        "offset": 0,
        "slot": "166",
        "type": "t_contract(IERC721Upgradeable)1282"
      },
      {
        "astId": 4042,
        "contract": "contracts/DrawingGame/RaffleBag.sol:RaffleBag",
        "label": "DOMAIN",
        "offset": 0,
        "slot": "167",
        "type": "t_bytes32"
      },
      {
        "astId": 4063,
        "contract": "contracts/DrawingGame/RaffleBag.sol:RaffleBag",
        "label": "prizePool",
        "offset": 0,
        "slot": "168",
        "type": "t_array(t_struct(Prize)4059_storage)dyn_storage"
      },
      {
        "astId": 4066,
        "contract": "contracts/DrawingGame/RaffleBag.sol:RaffleBag",
        "label": "COORDINATOR",
        "offset": 0,
        "slot": "169",
        "type": "t_contract(VRFCoordinatorV2Interface)95"
      },
      {
        "astId": 4068,
        "contract": "contracts/DrawingGame/RaffleBag.sol:RaffleBag",
        "label": "subscriptionId",
        "offset": 20,
        "slot": "169",
        "type": "t_uint64"
      },
      {
        "astId": 4070,
        "contract": "contracts/DrawingGame/RaffleBag.sol:RaffleBag",
        "label": "callbackGasLimit",
        "offset": 28,
        "slot": "169",
        "type": "t_uint32"
      },
      {
        "astId": 4072,
        "contract": "contracts/DrawingGame/RaffleBag.sol:RaffleBag",
        "label": "requestConfirmations",
        "offset": 0,
        "slot": "170",
        "type": "t_uint16"
      },
      {
        "astId": 4074,
        "contract": "contracts/DrawingGame/RaffleBag.sol:RaffleBag",
        "label": "keyHash",
        "offset": 0,
        "slot": "171",
        "type": "t_bytes32"
      },
      {
        "astId": 4088,
        "contract": "contracts/DrawingGame/RaffleBag.sol:RaffleBag",
        "label": "requests",
        "offset": 0,
        "slot": "172",
        "type": "t_mapping(t_uint256,t_struct(RequestStatus)4083_storage)"
      },
      {
        "astId": 4090,
        "contract": "contracts/DrawingGame/RaffleBag.sol:RaffleBag",
        "label": "locked",
        "offset": 0,
        "slot": "173",
        "type": "t_bool"
      }
    ],
    "types": {
      "t_address": {
        "encoding": "inplace",
        "label": "address",
        "numberOfBytes": "20"
      },
      "t_array(t_address)6_storage": {
        "base": "t_address",
        "encoding": "inplace",
        "label": "address[6]",
        "numberOfBytes": "192"
      },
      "t_array(t_struct(Prize)4059_storage)dyn_storage": {
        "base": "t_struct(Prize)4059_storage",
        "encoding": "dynamic_array",
        "label": "struct RaffleBag.Prize[]",
        "numberOfBytes": "32"
      },
      "t_array(t_uint256)50_storage": {
        "base": "t_uint256",
        "encoding": "inplace",
        "label": "uint256[50]",
        "numberOfBytes": "1600"
      },
      "t_array(t_uint256)dyn_storage": {
        "base": "t_uint256",
        "encoding": "dynamic_array",
        "label": "uint256[]",
        "numberOfBytes": "32"
      },
      "t_bool": {
        "encoding": "inplace",
        "label": "bool",
        "numberOfBytes": "1"
      },
      "t_bytes32": {
        "encoding": "inplace",
        "label": "bytes32",
        "numberOfBytes": "32"
      },
      "t_contract(IERC20)1717": {
        "encoding": "inplace",
        "label": "contract IERC20",
        "numberOfBytes": "20"
      },
      "t_contract(IERC721Upgradeable)1282": {
        "encoding": "inplace",
        "label": "contract IERC721Upgradeable",
        "numberOfBytes": "20"
      },
      "t_contract(VRFCoordinatorV2Interface)95": {
        "encoding": "inplace",
        "label": "contract VRFCoordinatorV2Interface",
        "numberOfBytes": "20"
      },
      "t_enum(OpStatus)2349": {
        "encoding": "inplace",
        "label": "enum SafeOwnableUpgradeable.OpStatus",
        "numberOfBytes": "1"
      },
      "t_enum(PrizeKind)4048": {
        "encoding": "inplace",
        "label": "enum RaffleBag.PrizeKind",
        "numberOfBytes": "1"
      },
      "t_mapping(t_address,t_uint8)": {
        "encoding": "mapping",
        "key": "t_address",
        "label": "mapping(address => uint8)",
        "numberOfBytes": "32",
        "value": "t_uint8"
      },
      "t_mapping(t_bytes32,t_enum(OpStatus)2349)": {
        "encoding": "mapping",
        "key": "t_bytes32",
        "label": "mapping(bytes32 => enum SafeOwnableUpgradeable.OpStatus)",
        "numberOfBytes": "32",
        "value": "t_enum(OpStatus)2349"
      },
      "t_mapping(t_uint256,t_struct(RequestStatus)4083_storage)": {
        "encoding": "mapping",
        "key": "t_uint256",
        "label": "mapping(uint256 => struct RaffleBag.RequestStatus)",
        "numberOfBytes": "32",
        "value": "t_struct(RequestStatus)4083_storage"
      },
      "t_struct(Prize)4059_storage": {
        "encoding": "inplace",
        "label": "struct RaffleBag.Prize",
        "members": [
          {
            "astId": 4051,
            "contract": "contracts/DrawingGame/RaffleBag.sol:RaffleBag",
            "label": "prizeKind",
            "offset": 0,
            "slot": "0",
            "type": "t_enum(PrizeKind)4048"
          },
          {
            "astId": 4053,
            "contract": "contracts/DrawingGame/RaffleBag.sol:RaffleBag",
            "label": "amount",
            "offset": 0,
            "slot": "1",
            "type": "t_uint256"
          },
          {
            "astId": 4055,
            "contract": "contracts/DrawingGame/RaffleBag.sol:RaffleBag",
            "label": "weight",
            "offset": 0,
            "slot": "2",
            "type": "t_uint256"
          },
          {
            "astId": 4058,
            "contract": "contracts/DrawingGame/RaffleBag.sol:RaffleBag",
            "label": "tokens",
            "offset": 0,
            "slot": "3",
            "type": "t_array(t_uint256)dyn_storage"
          }
        ],
        "numberOfBytes": "128"
      },
      "t_struct(RequestStatus)4083_storage": {
        "encoding": "inplace",
        "label": "struct RaffleBag.RequestStatus",
        "members": [
          {
            "astId": 4076,
            "contract": "contracts/DrawingGame/RaffleBag.sol:RaffleBag",
            "label": "user",
            "offset": 0,
            "slot": "0",
            "type": "t_address"
          },
          {
            "astId": 4078,
            "contract": "contracts/DrawingGame/RaffleBag.sol:RaffleBag",
            "label": "randomWord",
            "offset": 0,
            "slot": "1",
            "type": "t_uint256"
          },
          {
            "astId": 4080,
            "contract": "contracts/DrawingGame/RaffleBag.sol:RaffleBag",
            "label": "fulfilled",
            "offset": 0,
            "slot": "2",
            "type": "t_bool"
          },
          {
            "astId": 4082,
            "contract": "contracts/DrawingGame/RaffleBag.sol:RaffleBag",
            "label": "exists",
            "offset": 1,
            "slot": "2",
            "type": "t_bool"
          }
        ],
        "numberOfBytes": "96"
      },
      "t_uint16": {
        "encoding": "inplace",
        "label": "uint16",
        "numberOfBytes": "2"
      },
      "t_uint256": {
        "encoding": "inplace",
        "label": "uint256",
        "numberOfBytes": "32"
      },
      "t_uint32": {
        "encoding": "inplace",
        "label": "uint32",
        "numberOfBytes": "4"
      },
      "t_uint64": {
        "encoding": "inplace",
        "label": "uint64",
        "numberOfBytes": "8"
      },
      "t_uint8": {
        "encoding": "inplace",
        "label": "uint8",
        "numberOfBytes": "1"
      }
    }
  }
}