{
  "address": "0xFbE67acAf1C5F16df1Bf89f7433Ed96526172D7c",
  "abi": [
    {
      "inputs": [],
      "stateMutability": "nonpayable",
      "type": "constructor"
    },
    {
      "anonymous": false,
      "inputs": [
        {
          "indexed": false,
          "internalType": "uint256",
          "name": "tokenId",
          "type": "uint256"
        },
        {
          "indexed": false,
          "internalType": "uint256",
          "name": "active",
          "type": "uint256"
        },
        {
          "indexed": false,
          "internalType": "bool",
          "name": "status",
          "type": "bool"
        }
      ],
      "name": "Activation",
      "type": "event"
    },
    {
      "anonymous": false,
      "inputs": [
        {
          "indexed": false,
          "internalType": "address",
          "name": "previousAdmin",
          "type": "address"
        },
        {
          "indexed": false,
          "internalType": "address",
          "name": "newAdmin",
          "type": "address"
        }
      ],
      "name": "AdminChanged",
      "type": "event"
    },
    {
      "anonymous": false,
      "inputs": [
        {
          "indexed": true,
          "internalType": "address",
          "name": "owner",
          "type": "address"
        },
        {
          "indexed": true,
          "internalType": "address",
          "name": "approved",
          "type": "address"
        },
        {
          "indexed": true,
          "internalType": "uint256",
          "name": "tokenId",
          "type": "uint256"
        }
      ],
      "name": "Approval",
      "type": "event"
    },
    {
      "anonymous": false,
      "inputs": [
        {
          "indexed": true,
          "internalType": "address",
          "name": "owner",
          "type": "address"
        },
        {
          "indexed": true,
          "internalType": "address",
          "name": "operator",
          "type": "address"
        },
        {
          "indexed": false,
          "internalType": "bool",
          "name": "approved",
          "type": "bool"
        }
      ],
      "name": "ApprovalForAll",
      "type": "event"
    },
    {
      "anonymous": false,
      "inputs": [
        {
          "indexed": true,
          "internalType": "address",
          "name": "beacon",
          "type": "address"
        }
      ],
      "name": "BeaconUpgraded",
      "type": "event"
    },
    {
      "anonymous": false,
      "inputs": [
        {
          "indexed": false,
          "internalType": "uint8",
          "name": "version",
          "type": "uint8"
        }
      ],
      "name": "Initialized",
      "type": "event"
    },
    {
      "anonymous": false,
      "inputs": [
        {
          "indexed": true,
          "internalType": "bytes32",
          "name": "opHash",
          "type": "bytes32"
        }
      ],
      "name": "OperationAdded",
      "type": "event"
    },
    {
      "anonymous": false,
      "inputs": [
        {
          "indexed": true,
          "internalType": "address",
          "name": "previousOwner",
          "type": "address"
        },
        {
          "indexed": true,
          "internalType": "address",
          "name": "newOwner",
          "type": "address"
        }
      ],
      "name": "OwnershipTransferred",
      "type": "event"
    },
    {
      "anonymous": false,
      "inputs": [
        {
          "indexed": true,
          "internalType": "address",
          "name": "from",
          "type": "address"
        },
        {
          "indexed": true,
          "internalType": "address",
          "name": "to",
          "type": "address"
        },
        {
          "indexed": true,
          "internalType": "uint256",
          "name": "tokenId",
          "type": "uint256"
        }
      ],
      "name": "Transfer",
      "type": "event"
    },
    {
      "anonymous": false,
      "inputs": [
        {
          "indexed": true,
          "internalType": "address",
          "name": "implementation",
          "type": "address"
        }
      ],
      "name": "Upgraded",
      "type": "event"
    },
    {
      "inputs": [
        {
          "internalType": "bytes32",
          "name": "opHash",
          "type": "bytes32"
        },
        {
          "internalType": "bytes[]",
          "name": "sigs",
          "type": "bytes[]"
        }
      ],
      "name": "AddOpHashToPending",
      "outputs": [],
      "stateMutability": "nonpayable",
      "type": "function"
    },
    {
      "inputs": [],
      "name": "_tokenIdCounter",
      "outputs": [
        {
          "internalType": "uint256",
          "name": "",
          "type": "uint256"
        }
      ],
      "stateMutability": "view",
      "type": "function"
    },
    {
      "inputs": [
        {
          "internalType": "address",
          "name": "to",
          "type": "address"
        },
        {
          "internalType": "uint256",
          "name": "tokenId",
          "type": "uint256"
        }
      ],
      "name": "approve",
      "outputs": [],
      "stateMutability": "nonpayable",
      "type": "function"
    },
    {
      "inputs": [
        {
          "internalType": "address",
          "name": "player",
          "type": "address"
        },
        {
          "internalType": "uint256",
          "name": "conditions",
          "type": "uint256"
        },
        {
          "internalType": "string",
          "name": "tokenURI_",
          "type": "string"
        }
      ],
      "name": "awardItem",
      "outputs": [
        {
          "internalType": "uint256",
          "name": "",
          "type": "uint256"
        }
      ],
      "stateMutability": "nonpayable",
      "type": "function"
    },
    {
      "inputs": [
        {
          "internalType": "address",
          "name": "owner",
          "type": "address"
        }
      ],
      "name": "balanceOf",
      "outputs": [
        {
          "internalType": "uint256",
          "name": "",
          "type": "uint256"
        }
      ],
      "stateMutability": "view",
      "type": "function"
    },
    {
      "inputs": [
        {
          "internalType": "uint256",
          "name": "tokenId",
          "type": "uint256"
        }
      ],
      "name": "getApproved",
      "outputs": [
        {
          "internalType": "address",
          "name": "",
          "type": "address"
        }
      ],
      "stateMutability": "view",
      "type": "function"
    },
    {
      "inputs": [
        {
          "internalType": "uint256",
          "name": "tokenId",
          "type": "uint256"
        },
        {
          "internalType": "uint256",
          "name": "active",
          "type": "uint256"
        },
        {
          "internalType": "address",
          "name": "to",
          "type": "address"
        },
        {
          "internalType": "uint256",
          "name": "nonce_",
          "type": "uint256"
        }
      ],
      "name": "getInjectActiveHash",
      "outputs": [
        {
          "internalType": "bytes32",
          "name": "",
          "type": "bytes32"
        }
      ],
      "stateMutability": "view",
      "type": "function"
    },
    {
      "inputs": [
        {
          "internalType": "uint256",
          "name": "tokenId",
          "type": "uint256"
        },
        {
          "internalType": "uint256",
          "name": "active",
          "type": "uint256"
        },
        {
          "internalType": "address",
          "name": "to",
          "type": "address"
        },
        {
          "internalType": "uint256",
          "name": "nonce_",
          "type": "uint256"
        }
      ],
      "name": "getInjectActiveHashToSign",
      "outputs": [
        {
          "internalType": "bytes32",
          "name": "",
          "type": "bytes32"
        }
      ],
      "stateMutability": "view",
      "type": "function"
    },
    {
      "inputs": [
        {
          "internalType": "uint256",
          "name": "tokenId",
          "type": "uint256"
        }
      ],
      "name": "getLandConditions",
      "outputs": [
        {
          "internalType": "uint256",
          "name": "",
          "type": "uint256"
        }
      ],
      "stateMutability": "view",
      "type": "function"
    },
    {
      "inputs": [
        {
          "internalType": "uint256",
          "name": "tokenId",
          "type": "uint256"
        },
        {
          "internalType": "address",
          "name": "account",
          "type": "address"
        }
      ],
      "name": "getLandInjectionDetails",
      "outputs": [
        {
          "internalType": "uint256",
          "name": "",
          "type": "uint256"
        }
      ],
      "stateMutability": "view",
      "type": "function"
    },
    {
      "inputs": [
        {
          "internalType": "uint256",
          "name": "tokenId",
          "type": "uint256"
        }
      ],
      "name": "getLandStatus",
      "outputs": [
        {
          "internalType": "bool",
          "name": "",
          "type": "bool"
        }
      ],
      "stateMutability": "view",
      "type": "function"
    },
    {
      "inputs": [
        {
          "internalType": "uint256",
          "name": "tokenId",
          "type": "uint256"
        }
      ],
      "name": "getLandTotal",
      "outputs": [
        {
          "internalType": "uint256",
          "name": "",
          "type": "uint256"
        }
      ],
      "stateMutability": "view",
      "type": "function"
    },
    {
      "inputs": [
        {
          "internalType": "string",
          "name": "name_",
          "type": "string"
        },
        {
          "internalType": "string",
          "name": "symbol_",
          "type": "string"
        },
        {
          "internalType": "address[]",
          "name": "owners",
          "type": "address[]"
        },
        {
          "internalType": "uint8",
          "name": "signRequred",
          "type": "uint8"
        }
      ],
      "name": "initialize",
      "outputs": [],
      "stateMutability": "nonpayable",
      "type": "function"
    },
    {
      "inputs": [
        {
          "internalType": "uint256",
          "name": "tokenId",
          "type": "uint256"
        },
        {
          "internalType": "uint256",
          "name": "active",
          "type": "uint256"
        },
        {
          "internalType": "uint256",
          "name": "nonce",
          "type": "uint256"
        }
      ],
      "name": "injectActive",
      "outputs": [],
      "stateMutability": "nonpayable",
      "type": "function"
    },
    {
      "inputs": [
        {
          "internalType": "uint256",
          "name": "tokenId",
          "type": "uint256"
        },
        {
          "internalType": "uint256",
          "name": "active",
          "type": "uint256"
        },
        {
          "internalType": "address",
          "name": "to",
          "type": "address"
        },
        {
          "internalType": "uint256",
          "name": "nonce",
          "type": "uint256"
        }
      ],
      "name": "injectActiveTo",
      "outputs": [],
      "stateMutability": "nonpayable",
      "type": "function"
    },
    {
      "inputs": [
        {
          "internalType": "address",
          "name": "owner",
          "type": "address"
        },
        {
          "internalType": "address",
          "name": "operator",
          "type": "address"
        }
      ],
      "name": "isApprovedForAll",
      "outputs": [
        {
          "internalType": "bool",
          "name": "",
          "type": "bool"
        }
      ],
      "stateMutability": "view",
      "type": "function"
    },
    {
      "inputs": [],
      "name": "maxNumOwners",
      "outputs": [
        {
          "internalType": "uint8",
          "name": "",
          "type": "uint8"
        }
      ],
      "stateMutability": "view",
      "type": "function"
    },
    {
      "inputs": [],
      "name": "name",
      "outputs": [
        {
          "internalType": "string",
          "name": "",
          "type": "string"
        }
      ],
      "stateMutability": "view",
      "type": "function"
    },
    {
      "inputs": [],
      "name": "nonce",
      "outputs": [
        {
          "internalType": "uint256",
          "name": "",
          "type": "uint256"
        }
      ],
      "stateMutability": "view",
      "type": "function"
    },
    {
      "inputs": [
        {
          "internalType": "bytes32",
          "name": "",
          "type": "bytes32"
        }
      ],
      "name": "operationsStatus",
      "outputs": [
        {
          "internalType": "enum SafeOwnableUpgradeable.OpStatus",
          "name": "",
          "type": "uint8"
        }
      ],
      "stateMutability": "view",
      "type": "function"
    },
    {
      "inputs": [
        {
          "internalType": "uint256",
          "name": "tokenId",
          "type": "uint256"
        }
      ],
      "name": "ownerOf",
      "outputs": [
        {
          "internalType": "address",
          "name": "",
          "type": "address"
        }
      ],
      "stateMutability": "view",
      "type": "function"
    },
    {
      "inputs": [],
      "name": "owners",
      "outputs": [
        {
          "internalType": "address[6]",
          "name": "",
          "type": "address[6]"
        }
      ],
      "stateMutability": "view",
      "type": "function"
    },
    {
      "inputs": [],
      "name": "proxiableUUID",
      "outputs": [
        {
          "internalType": "bytes32",
          "name": "",
          "type": "bytes32"
        }
      ],
      "stateMutability": "view",
      "type": "function"
    },
    {
      "inputs": [
        {
          "internalType": "address",
          "name": "from",
          "type": "address"
        },
        {
          "internalType": "address",
          "name": "to",
          "type": "address"
        },
        {
          "internalType": "uint256",
          "name": "tokenId",
          "type": "uint256"
        }
      ],
      "name": "safeTransferFrom",
      "outputs": [],
      "stateMutability": "nonpayable",
      "type": "function"
    },
    {
      "inputs": [
        {
          "internalType": "address",
          "name": "from",
          "type": "address"
        },
        {
          "internalType": "address",
          "name": "to",
          "type": "address"
        },
        {
          "internalType": "uint256",
          "name": "tokenId",
          "type": "uint256"
        },
        {
          "internalType": "bytes",
          "name": "data",
          "type": "bytes"
        }
      ],
      "name": "safeTransferFrom",
      "outputs": [],
      "stateMutability": "nonpayable",
      "type": "function"
    },
    {
      "inputs": [
        {
          "internalType": "address",
          "name": "operator",
          "type": "address"
        },
        {
          "internalType": "bool",
          "name": "approved",
          "type": "bool"
        }
      ],
      "name": "setApprovalForAll",
      "outputs": [],
      "stateMutability": "nonpayable",
      "type": "function"
    },
    {
      "inputs": [],
      "name": "signRequired",
      "outputs": [
        {
          "internalType": "uint8",
          "name": "",
          "type": "uint8"
        }
      ],
      "stateMutability": "view",
      "type": "function"
    },
    {
      "inputs": [
        {
          "internalType": "bytes4",
          "name": "interfaceId",
          "type": "bytes4"
        }
      ],
      "name": "supportsInterface",
      "outputs": [
        {
          "internalType": "bool",
          "name": "",
          "type": "bool"
        }
      ],
      "stateMutability": "view",
      "type": "function"
    },
    {
      "inputs": [],
      "name": "symbol",
      "outputs": [
        {
          "internalType": "string",
          "name": "",
          "type": "string"
        }
      ],
      "stateMutability": "view",
      "type": "function"
    },
    {
      "inputs": [
        {
          "internalType": "uint256",
          "name": "tokenId",
          "type": "uint256"
        }
      ],
      "name": "tokenURI",
      "outputs": [
        {
          "internalType": "string",
          "name": "",
          "type": "string"
        }
      ],
      "stateMutability": "view",
      "type": "function"
    },
    {
      "inputs": [
        {
          "internalType": "address",
          "name": "from",
          "type": "address"
        },
        {
          "internalType": "address",
          "name": "to",
          "type": "address"
        },
        {
          "internalType": "uint256",
          "name": "tokenId",
          "type": "uint256"
        }
      ],
      "name": "transferFrom",
      "outputs": [],
      "stateMutability": "nonpayable",
      "type": "function"
    },
    {
      "inputs": [
        {
          "internalType": "address",
          "name": "newOwner",
          "type": "address"
        }
      ],
      "name": "transferOwnership",
      "outputs": [],
      "stateMutability": "nonpayable",
      "type": "function"
    },
    {
      "inputs": [
        {
          "internalType": "address",
          "name": "newImplementation",
          "type": "address"
        }
      ],
      "name": "upgradeTo",
      "outputs": [],
      "stateMutability": "nonpayable",
      "type": "function"
    },
    {
      "inputs": [
        {
          "internalType": "address",
          "name": "newImplementation",
          "type": "address"
        },
        {
          "internalType": "bytes",
          "name": "data",
          "type": "bytes"
        }
      ],
      "name": "upgradeToAndCall",
      "outputs": [],
      "stateMutability": "payable",
      "type": "function"
    }
  ],
  "numDeployments": 1,
  "solcInputHash": "f33b14547b0d00627d6d8317e3ad8812",
  "bytecode": "0x60a0604052306080523480156200001557600080fd5b50600054610100900460ff1615808015620000375750600054600160ff909116105b8062000067575062000054306200014160201b620019901760201c565b15801562000067575060005460ff166001145b620000cf5760405162461bcd60e51b815260206004820152602e60248201527f496e697469616c697a61626c653a20636f6e747261637420697320616c72656160448201526d191e481a5b9a5d1a585b1a5e995960921b606482015260840160405180910390fd5b6000805460ff191660011790558015620000f3576000805461ff0019166101001790555b80156200013a576000805461ff0019169055604051600181527f7f26b83ff96e1f2b6a682f133852f6798a09c465da95921460cefb38474024989060200160405180910390a15b5062000150565b6001600160a01b03163b151590565b608051613a916200018860003960008181610a7a01528181610b1001528181610ccf01528181610d650152610ecd0152613a916000f3fe6080604052600436106102195760003560e01c80637a29349d1161011d578063b1b625bf116100b0578063ce0d0ca01161007f578063eb5cfc8911610064578063eb5cfc89146106a2578063f02fa73d146106d3578063f2fde38b146106f357600080fd5b8063ce0d0ca01461061b578063e985e9c51461065957600080fd5b8063b1b625bf1461058a578063b2eab7e9146105bb578063b88d4fde146105db578063c87b56dd146105fb57600080fd5b8063a22cb465116100ec578063a22cb46514610511578063af8a80c514610531578063affe39c114610551578063affed0e01461057357600080fd5b80637a29349d146104a557806384c4bd4b146104c55780638b5a2143146104dc57806395d89b41146104fc57600080fd5b80633659cfe6116101b057806351e3948b1161017f5780635dadfe61116101645780635dadfe61146104455780636352211e1461046557806370a082311461048557600080fd5b806351e3948b1461041057806352d1902d1461043057600080fd5b80633659cfe61461039d57806342842e0e146103bd5780634a9a767c146103dd5780634f1ef286146103fd57600080fd5b8063095ea7b3116101ec578063095ea7b3146102de5780630c3515ba1461030057806323b872dd146103275780632f8f7f711461034757600080fd5b806301ffc9a71461021e578063048354261461025357806306fdde0314610284578063081812fc146102a6575b600080fd5b34801561022a57600080fd5b5061023e610239366004613255565b610713565b60405190151581526020015b60405180910390f35b34801561025f57600080fd5b5061023e61026e366004613272565b6000908152610108602052604090205460ff1690565b34801561029057600080fd5b506102996107f8565b60405161024a91906132e3565b3480156102b257600080fd5b506102c66102c1366004613272565b61088a565b6040516001600160a01b03909116815260200161024a565b3480156102ea57600080fd5b506102fe6102f9366004613312565b6108b1565b005b34801561030c57600080fd5b50610315600581565b60405160ff909116815260200161024a565b34801561033357600080fd5b506102fe61034236600461333c565b6109e8565b34801561035357600080fd5b5061038f610362366004613378565b6000828152610108602090815260408083206001600160a01b038516845260030190915290205492915050565b60405190815260200161024a565b3480156103a957600080fd5b506102fe6103b83660046133a4565b610a6f565b3480156103c957600080fd5b506102fe6103d836600461333c565b610c0d565b3480156103e957600080fd5b5061038f6103f83660046133bf565b610c28565b6102fe61040b3660046134b3565b610cc4565b34801561041c57600080fd5b5061038f61042b3660046133bf565b610e53565b34801561043c57600080fd5b5061038f610ec0565b34801561045157600080fd5b5061038f610460366004613501565b610f85565b34801561047157600080fd5b506102c6610480366004613272565b61106a565b34801561049157600080fd5b5061038f6104a03660046133a4565b6110cf565b3480156104b157600080fd5b506101025461031590610100900460ff1681565b3480156104d157600080fd5b5061038f6101055481565b3480156104e857600080fd5b506102fe6104f736600461357c565b611169565b34801561050857600080fd5b5061029961149f565b34801561051d57600080fd5b506102fe61052c36600461363e565b6114ae565b34801561053d57600080fd5b506102fe61054c36600461367a565b6114b9565b34801561055d57600080fd5b506105666114c5565b60405161024a91906136a6565b34801561057f57600080fd5b5061038f6101045481565b34801561059657600080fd5b5061038f6105a5366004613272565b6000908152610108602052604090206001015490565b3480156105c757600080fd5b506102fe6105d63660046133bf565b61150a565b3480156105e757600080fd5b506102fe6105f63660046136e0565b61151c565b34801561060757600080fd5b50610299610616366004613272565b6115a4565b34801561062757600080fd5b5061064c610636366004613272565b6101036020526000908152604090205460ff1681565b60405161024a919061375e565b34801561066557600080fd5b5061023e610674366004613786565b6001600160a01b039182166000908152606a6020908152604080832093909416825291909152205460ff1690565b3480156106ae57600080fd5b5061038f6106bd366004613272565b6000908152610108602052604090206002015490565b3480156106df57600080fd5b506102fe6106ee3660046137c1565b61164e565b3480156106ff57600080fd5b506102fe61070e3660046133a4565b6117f5565b60007fffffffff0000000000000000000000000000000000000000000000000000000082167f80ac58cd0000000000000000000000000000000000000000000000000000000014806107a657507fffffffff0000000000000000000000000000000000000000000000000000000082167f5b5e139f00000000000000000000000000000000000000000000000000000000145b806107f257507f01ffc9a7000000000000000000000000000000000000000000000000000000007fffffffff000000000000000000000000000000000000000000000000000000008316145b92915050565b606060658054610807906138b7565b80601f0160208091040260200160405190810160405280929190818152602001828054610833906138b7565b80156108805780601f1061085557610100808354040283529160200191610880565b820191906000526020600020905b81548152906001019060200180831161086357829003601f168201915b5050505050905090565b60006108958261199f565b506000908152606960205260409020546001600160a01b031690565b60006108bc8261106a565b9050806001600160a01b0316836001600160a01b0316141561094b5760405162461bcd60e51b815260206004820152602160248201527f4552433732313a20617070726f76616c20746f2063757272656e74206f776e6560448201527f720000000000000000000000000000000000000000000000000000000000000060648201526084015b60405180910390fd5b336001600160a01b038216148061096757506109678133610674565b6109d95760405162461bcd60e51b815260206004820152603e60248201527f4552433732313a20617070726f76652063616c6c6572206973206e6f7420746f60448201527f6b656e206f776e6572206e6f7220617070726f76656420666f7220616c6c00006064820152608401610942565b6109e38383611a03565b505050565b6109f23382611a7e565b610a645760405162461bcd60e51b815260206004820152602e60248201527f4552433732313a2063616c6c6572206973206e6f7420746f6b656e206f776e6560448201527f72206e6f7220617070726f7665640000000000000000000000000000000000006064820152608401610942565b6109e3838383611afc565b306001600160a01b037f0000000000000000000000000000000000000000000000000000000000000000161415610b0e5760405162461bcd60e51b815260206004820152602c60248201527f46756e6374696f6e206d7573742062652063616c6c6564207468726f7567682060448201527f64656c656761746563616c6c00000000000000000000000000000000000000006064820152608401610942565b7f00000000000000000000000000000000000000000000000000000000000000006001600160a01b0316610b697f360894a13ba1a3210667c828492db98dca3e2076cc3735a920a3ca505d382bbc546001600160a01b031690565b6001600160a01b031614610be55760405162461bcd60e51b815260206004820152602c60248201527f46756e6374696f6e206d7573742062652063616c6c6564207468726f7567682060448201527f6163746976652070726f787900000000000000000000000000000000000000006064820152608401610942565b610bee81611cd6565b60408051600080825260208201909252610c0a91839190611d5c565b50565b6109e38383836040518060200160405280600081525061151c565b610107546040805160208101929092527faf8a80c522ad83cda58526193eba87ed567bfb1b43655daf050d5f3351d3e4e59082015260608082018690526080820185905283901b7fffffffffffffffffffffffffffffffffffffffff0000000000000000000000001660a082015260b4810182905260009060d4016040516020818303038152906040528051906020012090505b949350505050565b306001600160a01b037f0000000000000000000000000000000000000000000000000000000000000000161415610d635760405162461bcd60e51b815260206004820152602c60248201527f46756e6374696f6e206d7573742062652063616c6c6564207468726f7567682060448201527f64656c656761746563616c6c00000000000000000000000000000000000000006064820152608401610942565b7f00000000000000000000000000000000000000000000000000000000000000006001600160a01b0316610dbe7f360894a13ba1a3210667c828492db98dca3e2076cc3735a920a3ca505d382bbc546001600160a01b031690565b6001600160a01b031614610e3a5760405162461bcd60e51b815260206004820152602c60248201527f46756e6374696f6e206d7573742062652063616c6c6564207468726f7567682060448201527f6163746976652070726f787900000000000000000000000000000000000000006064820152608401610942565b610e4382611cd6565b610e4f82826001611d5c565b5050565b6000610eb7610e6486868686610c28565b6040517f19457468657265756d205369676e6564204d6573736167653a0a3332000000006020820152603c8101829052600090605c01604051602081830303815290604052805190602001209050919050565b95945050505050565b6000306001600160a01b037f00000000000000000000000000000000000000000000000000000000000000001614610f605760405162461bcd60e51b815260206004820152603860248201527f555550535570677261646561626c653a206d757374206e6f742062652063616c60448201527f6c6564207468726f7567682064656c656761746563616c6c00000000000000006064820152608401610942565b507f360894a13ba1a3210667c828492db98dca3e2076cc3735a920a3ca505d382bbc90565b336000908152610101602052604081205460ff1661100b5760405162461bcd60e51b815260206004820152602f60248201527f536166654f776e61626c655570677261646561626c653a2063616c6c6572206960448201527f73206e6f7420746865206f776e657200000000000000000000000000000000006064820152608401610942565b610105546110198582611f0b565b600081815261010660209081526040909120845161103992860190613170565b5060008181526101086020526040902060018101859055805460ff1916905561106061205a565b90505b9392505050565b6000818152606760205260408120546001600160a01b0316806107f25760405162461bcd60e51b815260206004820152601860248201527f4552433732313a20696e76616c696420746f6b656e20494400000000000000006044820152606401610942565b60006001600160a01b03821661114d5760405162461bcd60e51b815260206004820152602960248201527f4552433732313a2061646472657373207a65726f206973206e6f74206120766160448201527f6c6964206f776e657200000000000000000000000000000000000000000000006064820152608401610942565b506001600160a01b031660009081526068602052604090205490565b818160006111756131f4565b336000908152610101602052604090205460ff16156111e2578161119881613908565b92505060018161010160006111aa3390565b6001600160a01b0316815260208101919091526040016000205460ff16600681106111d7576111d7613928565b911515602090920201525b60005b83518160ff161015611323576000611222858360ff168151811061120b5761120b613928565b6020026020010151876120ec90919063ffffffff16565b6001600160a01b0381166000908152610101602052604090205490915060ff16806112b55760405162461bcd60e51b815260206004820152602b60248201527f536166654f776e61626c655570677261646561626c653a207369676e6572206960448201527f73206e6f74206f776e65720000000000000000000000000000000000000000006064820152608401610942565b838160ff16600681106112ca576112ca613928565b60200201511515600114156112e0575050611311565b6001848260ff16600681106112f7576112f7613928565b911515602090920201528461130b81613908565b95505050505b8061131b81613908565b9150506111e5565b506101025460ff610100909104811690831610156113a95760405162461bcd60e51b815260206004820152602a60248201527f536166654f776e61626c655570677261646561626c653a206e6f20656e6f756760448201527f6820636f6e6669726d73000000000000000000000000000000000000000000006064820152608401610942565b61010480549060006113ba8361393e565b90915550506000868152610103602052604081205460ff1660038111156113e3576113e3613748565b146114565760405162461bcd60e51b815260206004820152603760248201527f536166654f776e61626c655570677261646561626c653a206f7065726174696f60448201527f6e20776173206e6f74207375626d6974746564207965740000000000000000006064820152608401610942565b60008681526101036020526040808220805460ff191660011790555187917f33775024b20f211f019e50305c897b2105edc4642384143897ac170fb37f54a191a2505050505050565b606060668054610807906138b7565b610e4f338383612110565b6109e3838333846121df565b6114cd6131f4565b6040805160c08101918290529060fb9060069082845b81546001600160a01b031681526001909101906020018083116114e3575050505050905090565b611516848484846121df565b50505050565b6115263383611a7e565b6115985760405162461bcd60e51b815260206004820152602e60248201527f4552433732313a2063616c6c6572206973206e6f7420746f6b656e206f776e6560448201527f72206e6f7220617070726f7665640000000000000000000000000000000000006064820152608401610942565b61151684848484612406565b60606115af8261199f565b60008281526101066020526040902080546115c9906138b7565b80601f01602080910402602001604051908101604052809291908181526020018280546115f5906138b7565b80156116425780601f1061161757610100808354040283529160200191611642565b820191906000526020600020905b81548152906001019060200180831161162557829003601f168201915b50505050509050919050565b600054610100900460ff161580801561166e5750600054600160ff909116105b806116885750303b158015611688575060005460ff166001145b6116fa5760405162461bcd60e51b815260206004820152602e60248201527f496e697469616c697a61626c653a20636f6e747261637420697320616c72656160448201527f647920696e697469616c697a65640000000000000000000000000000000000006064820152608401610942565b6000805460ff19166001179055801561171d576000805461ff0019166101001790555b611727858561248f565b6117318383612504565b61173961288a565b7fb8aa581effc4a2e306a38dbac6542b2a4b0d933abccc3bfc5d8d811df16083026117626107f8565b805160209182012060408051928301939093529181019190915246606082015230608082015260a00160408051601f1981840301815291905280516020909101206101075580156117ee576000805461ff0019169055604051600181527f7f26b83ff96e1f2b6a682f133852f6798a09c465da95921460cefb3847402498906020015b60405180910390a15b5050505050565b336000908152610101602052604090205460ff1661187b5760405162461bcd60e51b815260206004820152602f60248201527f536166654f776e61626c655570677261646561626c653a2063616c6c6572206960448201527f73206e6f7420746865206f776e657200000000000000000000000000000000006064820152608401610942565b6001600160a01b0381166118f75760405162461bcd60e51b815260206004820152603560248201527f536166654f776e61626c655570677261646561626c653a206e6577206f776e6560448201527f7220697320746865207a65726f206164647265737300000000000000000000006064820152608401610942565b6001600160a01b0381166000908152610101602052604090205460ff16156119875760405162461bcd60e51b815260206004820152603060248201527f536166654f776e61626c655570677261646561626c653a206e6577206f776e6560448201527f7220616c726561647920657869737473000000000000000000000000000000006064820152608401610942565b610c0a816128f7565b6001600160a01b03163b151590565b6000818152606760205260409020546001600160a01b0316610c0a5760405162461bcd60e51b815260206004820152601860248201527f4552433732313a20696e76616c696420746f6b656e20494400000000000000006044820152606401610942565b6000818152606960205260409020805473ffffffffffffffffffffffffffffffffffffffff19166001600160a01b0384169081179091558190611a458261106a565b6001600160a01b03167f8c5be1e5ebec7d5bd14f71427d1e84f3dd0314c0f7b2291e5b200ac8c7c3b92560405160405180910390a45050565b600080611a8a8361106a565b9050806001600160a01b0316846001600160a01b03161480611ad157506001600160a01b038082166000908152606a602090815260408083209388168352929052205460ff165b80610cbc5750836001600160a01b0316611aea8461088a565b6001600160a01b031614949350505050565b826001600160a01b0316611b0f8261106a565b6001600160a01b031614611b8b5760405162461bcd60e51b815260206004820152602560248201527f4552433732313a207472616e736665722066726f6d20696e636f72726563742060448201527f6f776e65720000000000000000000000000000000000000000000000000000006064820152608401610942565b6001600160a01b038216611c065760405162461bcd60e51b8152602060048201526024808201527f4552433732313a207472616e7366657220746f20746865207a65726f2061646460448201527f72657373000000000000000000000000000000000000000000000000000000006064820152608401610942565b611c11600082611a03565b6001600160a01b0383166000908152606860205260408120805460019290611c3a908490613977565b90915550506001600160a01b0382166000908152606860205260408120805460019290611c6890849061398e565b9091555050600081815260676020526040808220805473ffffffffffffffffffffffffffffffffffffffff19166001600160a01b0386811691821790925591518493918716917fddf252ad1be2c89b69c2b068fc378daa952ba7f163c4a11628f55a4df523b3ef91a4505050565b336000908152610101602052604090205460ff16610c0a5760405162461bcd60e51b815260206004820152602f60248201527f536166654f776e61626c655570677261646561626c653a2063616c6c6572206960448201527f73206e6f7420746865206f776e657200000000000000000000000000000000006064820152608401610942565b7f4910fdfa16fed3260ed0e7147f7cc6da11a60208b5b9406d12a635614ffd91435460ff1615611d8f576109e3836129a5565b826001600160a01b03166352d1902d6040518163ffffffff1660e01b815260040160206040518083038186803b158015611dc857600080fd5b505afa925050508015611df8575060408051601f3d908101601f19168201909252611df5918101906139a6565b60015b611e6a5760405162461bcd60e51b815260206004820152602e60248201527f45524331393637557067726164653a206e657720696d706c656d656e7461746960448201527f6f6e206973206e6f7420555550530000000000000000000000000000000000006064820152608401610942565b7f360894a13ba1a3210667c828492db98dca3e2076cc3735a920a3ca505d382bbc8114611eff5760405162461bcd60e51b815260206004820152602960248201527f45524331393637557067726164653a20756e737570706f727465642070726f7860448201527f6961626c655555494400000000000000000000000000000000000000000000006064820152608401610942565b506109e3838383612a70565b6001600160a01b038216611f615760405162461bcd60e51b815260206004820181905260248201527f4552433732313a206d696e7420746f20746865207a65726f20616464726573736044820152606401610942565b6000818152606760205260409020546001600160a01b031615611fc65760405162461bcd60e51b815260206004820152601c60248201527f4552433732313a20746f6b656e20616c7265616479206d696e746564000000006044820152606401610942565b6001600160a01b0382166000908152606860205260408120805460019290611fef90849061398e565b9091555050600081815260676020526040808220805473ffffffffffffffffffffffffffffffffffffffff19166001600160a01b03861690811790915590518392907fddf252ad1be2c89b69c2b068fc378daa952ba7f163c4a11628f55a4df523b3ef908290a45050565b336000908152610101602052604090205460ff166120e05760405162461bcd60e51b815260206004820152602f60248201527f536166654f776e61626c655570677261646561626c653a2063616c6c6572206960448201527f73206e6f7420746865206f776e657200000000000000000000000000000000006064820152608401610942565b61010580546001019055565b60008060006120fb8585612a95565b9150915061210881612adb565b509392505050565b816001600160a01b0316836001600160a01b031614156121725760405162461bcd60e51b815260206004820152601960248201527f4552433732313a20617070726f766520746f2063616c6c6572000000000000006044820152606401610942565b6001600160a01b038381166000818152606a6020908152604080832094871680845294825291829020805460ff191686151590811790915591519182527f17307eab39ab6107e8899845ad3d59bd9653f200f220920489ca2b5937696c31910160405180910390a3505050565b6121ee610e6485858585610c28565b60016000828152610103602052604090205460ff16600381111561221457612214613748565b146122875760405162461bcd60e51b815260206004820152603060248201527f536166654f776e61626c655570677261646561626c653a206f7065726174696f60448201527f6e206e6f7420696e2070656e64696e67000000000000000000000000000000006064820152608401610942565b600081815261010360209081526040808320805460ff1916600290811790915588845261010890925290912060018101549101546122c690869061398e565b11156123145760405162461bcd60e51b815260206004820152601c60248201527f4c616e643a20746f6f206d616e79206163746976652076616c756573000000006044820152606401610942565b600085815261010860205260408120600201805486929061233690849061398e565b90915550506000858152610108602090815260408083206001600160a01b03871684526003019091528120805486929061237190849061398e565b9091555050600085815261010860205260409020600181015460029091015414156123b157600085815261010860205260409020805460ff191660011790555b6000858152610108602090815260409182902054825188815291820187905260ff161515918101919091527f31f2cc606c87bf013b6b3eb0eec3df1488b3b275dd94f83623374e9ac828b1d1906060016117e5565b612411848484611afc565b61241d84848484612ccc565b6115165760405162461bcd60e51b815260206004820152603260248201527f4552433732313a207472616e7366657220746f206e6f6e20455243373231526560448201527f63656976657220696d706c656d656e74657200000000000000000000000000006064820152608401610942565b600054610100900460ff166124fa5760405162461bcd60e51b815260206004820152602b60248201527f496e697469616c697a61626c653a20636f6e7472616374206973206e6f74206960448201526a6e697469616c697a696e6760a81b6064820152608401610942565b610e4f8282612e76565b600054610100900460ff1661256f5760405162461bcd60e51b815260206004820152602b60248201527f496e697469616c697a61626c653a20636f6e7472616374206973206e6f74206960448201526a6e697469616c697a696e6760a81b6064820152608401610942565b8151600510156125e75760405162461bcd60e51b815260206004820152603360248201527f536166654f776e61626c655570677261646561626c653a657863656564206d6160448201527f78696d756d206e756d626572206f776e657273000000000000000000000000006064820152608401610942565b60ff811661265d5760405162461bcd60e51b815260206004820152602c60248201527f536166654f776e61626c655570677261646561626c653a207369676e5265717560448201527f69726564206973207a65726f00000000000000000000000000000000000000006064820152608401610942565b610102805461ff00191661010060ff84160217905560005b825181101561280557600083828151811061269257612692613928565b6020908102919091018101516001600160a01b038116600090815261010190925260409091205490915060ff16156127325760405162461bcd60e51b815260206004820152602c60248201527f536166654f776e61626c655570677261646561626c653a206f776e657220616c60448201527f72656164792065786973747300000000000000000000000000000000000000006064820152608401610942565b6101028054829160fb9160009061274b9060ff16613908565b91906101000a81548160ff021916908360ff160217905560ff166006811061277557612775613928565b0180546001600160a01b0392831673ffffffffffffffffffffffffffffffffffffffff199091161790556101025490821660008181526101016020526040808220805460ff191660ff9095169490941790935591519091907f8be0079c531659141344cd1fd0a4f28419497f9722a3daafe3b4186f6b6457e0908290a350806127fd8161393e565b915050612675565b506101025460ff808216610100909204161115610e4f5760405162461bcd60e51b815260206004820152603560248201527f536166654f776e61626c655570677261646561626c653a206f776e657273206c60448201527f657373207468616e207369676e526571756972656400000000000000000000006064820152608401610942565b600054610100900460ff166128f55760405162461bcd60e51b815260206004820152602b60248201527f496e697469616c697a61626c653a20636f6e7472616374206973206e6f74206960448201526a6e697469616c697a696e6760a81b6064820152608401610942565b565b336000818152610101602052604090205460ff168260fb826006811061291f5761291f613928565b01805473ffffffffffffffffffffffffffffffffffffffff19166001600160a01b0392831617905582811660008181526101016020526040808220805460ff19908116909155938716808352818320805490951660ff871617909455517f8be0079c531659141344cd1fd0a4f28419497f9722a3daafe3b4186f6b6457e09190a3505050565b6001600160a01b0381163b612a225760405162461bcd60e51b815260206004820152602d60248201527f455243313936373a206e657720696d706c656d656e746174696f6e206973206e60448201527f6f74206120636f6e7472616374000000000000000000000000000000000000006064820152608401610942565b7f360894a13ba1a3210667c828492db98dca3e2076cc3735a920a3ca505d382bbc805473ffffffffffffffffffffffffffffffffffffffff19166001600160a01b0392909216919091179055565b612a7983612f08565b600082511180612a865750805b156109e3576115168383612f48565b600080825160411415612acc5760208301516040840151606085015160001a612ac08782858561304a565b94509450505050612ad4565b506000905060025b9250929050565b6000816004811115612aef57612aef613748565b1415612af85750565b6001816004811115612b0c57612b0c613748565b1415612b5a5760405162461bcd60e51b815260206004820152601860248201527f45434453413a20696e76616c6964207369676e617475726500000000000000006044820152606401610942565b6002816004811115612b6e57612b6e613748565b1415612bbc5760405162461bcd60e51b815260206004820152601f60248201527f45434453413a20696e76616c6964207369676e6174757265206c656e677468006044820152606401610942565b6003816004811115612bd057612bd0613748565b1415612c445760405162461bcd60e51b815260206004820152602260248201527f45434453413a20696e76616c6964207369676e6174757265202773272076616c60448201527f75650000000000000000000000000000000000000000000000000000000000006064820152608401610942565b6004816004811115612c5857612c58613748565b1415610c0a5760405162461bcd60e51b815260206004820152602260248201527f45434453413a20696e76616c6964207369676e6174757265202776272076616c60448201527f75650000000000000000000000000000000000000000000000000000000000006064820152608401610942565b60006001600160a01b0384163b15612e6e576040517f150b7a020000000000000000000000000000000000000000000000000000000081526001600160a01b0385169063150b7a0290612d299033908990889088906004016139bf565b602060405180830381600087803b158015612d4357600080fd5b505af1925050508015612d73575060408051601f3d908101601f19168201909252612d70918101906139fb565b60015b612e23573d808015612da1576040519150601f19603f3d011682016040523d82523d6000602084013e612da6565b606091505b508051612e1b5760405162461bcd60e51b815260206004820152603260248201527f4552433732313a207472616e7366657220746f206e6f6e20455243373231526560448201527f63656976657220696d706c656d656e74657200000000000000000000000000006064820152608401610942565b805181602001fd5b7fffffffff00000000000000000000000000000000000000000000000000000000167f150b7a0200000000000000000000000000000000000000000000000000000000149050610cbc565b506001610cbc565b600054610100900460ff16612ee15760405162461bcd60e51b815260206004820152602b60248201527f496e697469616c697a61626c653a20636f6e7472616374206973206e6f74206960448201526a6e697469616c697a696e6760a81b6064820152608401610942565b8151612ef4906065906020850190613170565b5080516109e3906066906020840190613170565b612f11816129a5565b6040516001600160a01b038216907fbc7cd75a20ee27fd9adebab32041f755214dbc6bffa90cc0225b39da2e5c2d3b90600090a250565b60606001600160a01b0383163b612fc75760405162461bcd60e51b815260206004820152602660248201527f416464726573733a2064656c65676174652063616c6c20746f206e6f6e2d636f60448201527f6e747261637400000000000000000000000000000000000000000000000000006064820152608401610942565b600080846001600160a01b031684604051612fe29190613a18565b600060405180830381855af49150503d806000811461301d576040519150601f19603f3d011682016040523d82523d6000602084013e613022565b606091505b5091509150610eb78282604051806060016040528060278152602001613a3560279139613137565b6000807f7fffffffffffffffffffffffffffffff5d576e7357a4501ddfe92f46681b20a0831115613081575060009050600361312e565b8460ff16601b1415801561309957508460ff16601c14155b156130aa575060009050600461312e565b6040805160008082526020820180845289905260ff881692820192909252606081018690526080810185905260019060a0016020604051602081039080840390855afa1580156130fe573d6000803e3d6000fd5b5050604051601f1901519150506001600160a01b0381166131275760006001925092505061312e565b9150600090505b94509492505050565b60608315613146575081611063565b8251156131565782518084602001fd5b8160405162461bcd60e51b815260040161094291906132e3565b82805461317c906138b7565b90600052602060002090601f01602090048101928261319e57600085556131e4565b82601f106131b757805160ff19168380011785556131e4565b828001600101855582156131e4579182015b828111156131e45782518255916020019190600101906131c9565b506131f0929150613212565b5090565b6040518060c001604052806006906020820280368337509192915050565b5b808211156131f05760008155600101613213565b7fffffffff0000000000000000000000000000000000000000000000000000000081168114610c0a57600080fd5b60006020828403121561326757600080fd5b813561106381613227565b60006020828403121561328457600080fd5b5035919050565b60005b838110156132a657818101518382015260200161328e565b838111156115165750506000910152565b600081518084526132cf81602086016020860161328b565b601f01601f19169290920160200192915050565b60208152600061106360208301846132b7565b80356001600160a01b038116811461330d57600080fd5b919050565b6000806040838503121561332557600080fd5b61332e836132f6565b946020939093013593505050565b60008060006060848603121561335157600080fd5b61335a846132f6565b9250613368602085016132f6565b9150604084013590509250925092565b6000806040838503121561338b57600080fd5b8235915061339b602084016132f6565b90509250929050565b6000602082840312156133b657600080fd5b611063826132f6565b600080600080608085870312156133d557600080fd5b84359350602085013592506133ec604086016132f6565b9396929550929360600135925050565b634e487b7160e01b600052604160045260246000fd5b604051601f8201601f1916810167ffffffffffffffff8111828210171561343b5761343b6133fc565b604052919050565b600082601f83011261345457600080fd5b813567ffffffffffffffff81111561346e5761346e6133fc565b6134816020601f19601f84011601613412565b81815284602083860101111561349657600080fd5b816020850160208301376000918101602001919091529392505050565b600080604083850312156134c657600080fd5b6134cf836132f6565b9150602083013567ffffffffffffffff8111156134eb57600080fd5b6134f785828601613443565b9150509250929050565b60008060006060848603121561351657600080fd5b61351f846132f6565b925060208401359150604084013567ffffffffffffffff81111561354257600080fd5b61354e86828701613443565b9150509250925092565b600067ffffffffffffffff821115613572576135726133fc565b5060051b60200190565b6000806040838503121561358f57600080fd5b8235915060208084013567ffffffffffffffff808211156135af57600080fd5b818601915086601f8301126135c357600080fd5b81356135d66135d182613558565b613412565b81815260059190911b830184019084810190898311156135f557600080fd5b8585015b8381101561362d578035858111156136115760008081fd5b61361f8c89838a0101613443565b8452509186019186016135f9565b508096505050505050509250929050565b6000806040838503121561365157600080fd5b61365a836132f6565b91506020830135801515811461366f57600080fd5b809150509250929050565b60008060006060848603121561368f57600080fd5b505081359360208301359350604090920135919050565b60c08101818360005b60068110156136d75781516001600160a01b03168352602092830192909101906001016136af565b50505092915050565b600080600080608085870312156136f657600080fd5b6136ff856132f6565b935061370d602086016132f6565b925060408501359150606085013567ffffffffffffffff81111561373057600080fd5b61373c87828801613443565b91505092959194509250565b634e487b7160e01b600052602160045260246000fd5b602081016004831061378057634e487b7160e01b600052602160045260246000fd5b91905290565b6000806040838503121561379957600080fd5b6137a2836132f6565b915061339b602084016132f6565b803560ff8116811461330d57600080fd5b600080600080608085870312156137d757600080fd5b843567ffffffffffffffff808211156137ef57600080fd5b6137fb88838901613443565b955060209150818701358181111561381257600080fd5b61381e89828a01613443565b95505060408701358181111561383357600080fd5b87019050601f8101881361384657600080fd5b80356138546135d182613558565b81815260059190911b8201830190838101908a83111561387357600080fd5b928401925b8284101561389857613889846132f6565b82529284019290840190613878565b80965050505050506138ac606086016137b0565b905092959194509250565b600181811c908216806138cb57607f821691505b602082108114156138ec57634e487b7160e01b600052602260045260246000fd5b50919050565b634e487b7160e01b600052601160045260246000fd5b600060ff821660ff81141561391f5761391f6138f2565b60010192915050565b634e487b7160e01b600052603260045260246000fd5b60007fffffffffffffffffffffffffffffffffffffffffffffffffffffffffffffffff821415613970576139706138f2565b5060010190565b600082821015613989576139896138f2565b500390565b600082198211156139a1576139a16138f2565b500190565b6000602082840312156139b857600080fd5b5051919050565b60006001600160a01b038087168352808616602084015250836040830152608060608301526139f160808301846132b7565b9695505050505050565b600060208284031215613a0d57600080fd5b815161106381613227565b60008251613a2a81846020870161328b565b919091019291505056fe416464726573733a206c6f772d6c6576656c2064656c65676174652063616c6c206661696c6564a26469706673582212208f409aa696aaebf68f1d5462ffd7f73671a45bd05dbf5163af47243e2e86e90864736f6c63430008090033",
  "devdoc": {
    "kind": "dev",
    "methods": {
      "approve(address,uint256)": {
        "details": "See {IERC721-approve}."
      },
      "balanceOf(address)": {
        "details": "See {IERC721-balanceOf}."
      },
      "constructor": {
        "custom:oz-upgrades-unsafe-allow": "constructor"
      },
      "getApproved(uint256)": {
        "details": "See {IERC721-getApproved}."
      },
      "isApprovedForAll(address,address)": {
        "details": "See {IERC721-isApprovedForAll}."
      },
      "name()": {
        "details": "See {IERC721Metadata-name}."
      },
      "ownerOf(uint256)": {
        "details": "See {IERC721-ownerOf}."
      },
      "proxiableUUID()": {
        "details": "Implementation of the ERC1822 {proxiableUUID} function. This returns the storage slot used by the implementation. It is used to validate that the this implementation remains valid after an upgrade. IMPORTANT: A proxy pointing at a proxiable contract should not be considered proxiable itself, because this risks bricking a proxy that upgrades to it, by delegating to itself until out of gas. Thus it is critical that this function revert if invoked through a proxy. This is guaranteed by the `notDelegated` modifier."
      },
      "safeTransferFrom(address,address,uint256)": {
        "details": "See {IERC721-safeTransferFrom}."
      },
      "safeTransferFrom(address,address,uint256,bytes)": {
        "details": "See {IERC721-safeTransferFrom}."
      },
      "setApprovalForAll(address,bool)": {
        "details": "See {IERC721-setApprovalForAll}."
      },
      "supportsInterface(bytes4)": {
        "details": "See {IERC165-supportsInterface}."
      },
      "symbol()": {
        "details": "See {IERC721Metadata-symbol}."
      },
      "tokenURI(uint256)": {
        "details": "See {IERC721Metadata-tokenURI}."
      },
      "transferFrom(address,address,uint256)": {
        "details": "See {IERC721-transferFrom}."
      },
      "transferOwnership(address)": {
        "details": "Transfers ownership of the contract to a new account (`newOwner`). Can only be called by the current owner."
      },
      "upgradeTo(address)": {
        "details": "Upgrade the implementation of the proxy to `newImplementation`. Calls {_authorizeUpgrade}. Emits an {Upgraded} event."
      },
      "upgradeToAndCall(address,bytes)": {
        "details": "Upgrade the implementation of the proxy to `newImplementation`, and subsequently execute the function call encoded in `data`. Calls {_authorizeUpgrade}. Emits an {Upgraded} event."
      }
    },
    "version": 1
  },
  "userdoc": {
    "kind": "user",
    "methods": {},
    "version": 1
  },
  "storageLayout": {
    "storage": [
      {
        "astId": 549,
        "contract": "contracts/ERC721/Land/Land.sol:Land",
        "label": "_initialized",
        "offset": 0,
        "slot": "0",
        "type": "t_uint8"
      },
      {
        "astId": 552,
        "contract": "contracts/ERC721/Land/Land.sol:Land",
        "label": "_initializing",
        "offset": 1,
        "slot": "0",
        "type": "t_bool"
      },
      {
        "astId": 2561,
        "contract": "contracts/ERC721/Land/Land.sol:Land",
        "label": "__gap",
        "offset": 0,
        "slot": "1",
        "type": "t_array(t_uint256)50_storage"
      },
      {
        "astId": 2891,
        "contract": "contracts/ERC721/Land/Land.sol:Land",
        "label": "__gap",
        "offset": 0,
        "slot": "51",
        "type": "t_array(t_uint256)50_storage"
      },
      {
        "astId": 1253,
        "contract": "contracts/ERC721/Land/Land.sol:Land",
        "label": "_name",
        "offset": 0,
        "slot": "101",
        "type": "t_string_storage"
      },
      {
        "astId": 1255,
        "contract": "contracts/ERC721/Land/Land.sol:Land",
        "label": "_symbol",
        "offset": 0,
        "slot": "102",
        "type": "t_string_storage"
      },
      {
        "astId": 1259,
        "contract": "contracts/ERC721/Land/Land.sol:Land",
        "label": "_owners",
        "offset": 0,
        "slot": "103",
        "type": "t_mapping(t_uint256,t_address)"
      },
      {
        "astId": 1263,
        "contract": "contracts/ERC721/Land/Land.sol:Land",
        "label": "_balances",
        "offset": 0,
        "slot": "104",
        "type": "t_mapping(t_address,t_uint256)"
      },
      {
        "astId": 1267,
        "contract": "contracts/ERC721/Land/Land.sol:Land",
        "label": "_tokenApprovals",
        "offset": 0,
        "slot": "105",
        "type": "t_mapping(t_uint256,t_address)"
      },
      {
        "astId": 1273,
        "contract": "contracts/ERC721/Land/Land.sol:Land",
        "label": "_operatorApprovals",
        "offset": 0,
        "slot": "106",
        "type": "t_mapping(t_address,t_mapping(t_address,t_bool))"
      },
      {
        "astId": 2115,
        "contract": "contracts/ERC721/Land/Land.sol:Land",
        "label": "__gap",
        "offset": 0,
        "slot": "107",
        "type": "t_array(t_uint256)44_storage"
      },
      {
        "astId": 531,
        "contract": "contracts/ERC721/Land/Land.sol:Land",
        "label": "__gap",
        "offset": 0,
        "slot": "151",
        "type": "t_array(t_uint256)50_storage"
      },
      {
        "astId": 828,
        "contract": "contracts/ERC721/Land/Land.sol:Land",
        "label": "__gap",
        "offset": 0,
        "slot": "201",
        "type": "t_array(t_uint256)50_storage"
      },
      {
        "astId": 6849,
        "contract": "contracts/ERC721/Land/Land.sol:Land",
        "label": "_owners",
        "offset": 0,
        "slot": "251",
        "type": "t_array(t_address)6_storage"
      },
      {
        "astId": 6853,
        "contract": "contracts/ERC721/Land/Land.sol:Land",
        "label": "_ownersIndex",
        "offset": 0,
        "slot": "257",
        "type": "t_mapping(t_address,t_uint8)"
      },
      {
        "astId": 6855,
        "contract": "contracts/ERC721/Land/Land.sol:Land",
        "label": "_numOwners",
        "offset": 0,
        "slot": "258",
        "type": "t_uint8"
      },
      {
        "astId": 6860,
        "contract": "contracts/ERC721/Land/Land.sol:Land",
        "label": "signRequired",
        "offset": 1,
        "slot": "258",
        "type": "t_uint8"
      },
      {
        "astId": 6865,
        "contract": "contracts/ERC721/Land/Land.sol:Land",
        "label": "operationsStatus",
        "offset": 0,
        "slot": "259",
        "type": "t_mapping(t_bytes32,t_enum(OpStatus)6845)"
      },
      {
        "astId": 6867,
        "contract": "contracts/ERC721/Land/Land.sol:Land",
        "label": "nonce",
        "offset": 0,
        "slot": "260",
        "type": "t_uint256"
      },
      {
        "astId": 13626,
        "contract": "contracts/ERC721/Land/Land.sol:Land",
        "label": "_tokenIdCounter",
        "offset": 0,
        "slot": "261",
        "type": "t_uint256"
      },
      {
        "astId": 13630,
        "contract": "contracts/ERC721/Land/Land.sol:Land",
        "label": "tokenURIs",
        "offset": 0,
        "slot": "262",
        "type": "t_mapping(t_uint256,t_string_storage)"
      },
      {
        "astId": 13632,
        "contract": "contracts/ERC721/Land/Land.sol:Land",
        "label": "DOMAIN",
        "offset": 0,
        "slot": "263",
        "type": "t_bytes32"
      },
      {
        "astId": 13637,
        "contract": "contracts/ERC721/Land/Land.sol:Land",
        "label": "_active_value",
        "offset": 0,
        "slot": "264",
        "type": "t_mapping(t_uint256,t_struct(activeValue)13624_storage)"
      }
    ],
    "types": {
      "t_address": {
        "encoding": "inplace",
        "label": "address",
        "numberOfBytes": "20"
      },
      "t_array(t_address)6_storage": {
        "base": "t_address",
        "encoding": "inplace",
        "label": "address[6]",
        "numberOfBytes": "192"
      },
      "t_array(t_uint256)44_storage": {
        "base": "t_uint256",
        "encoding": "inplace",
        "label": "uint256[44]",
        "numberOfBytes": "1408"
      },
      "t_array(t_uint256)50_storage": {
        "base": "t_uint256",
        "encoding": "inplace",
        "label": "uint256[50]",
        "numberOfBytes": "1600"
      },
      "t_bool": {
        "encoding": "inplace",
        "label": "bool",
        "numberOfBytes": "1"
      },
      "t_bytes32": {
        "encoding": "inplace",
        "label": "bytes32",
        "numberOfBytes": "32"
      },
      "t_enum(OpStatus)6845": {
        "encoding": "inplace",
        "label": "enum SafeOwnableUpgradeable.OpStatus",
        "numberOfBytes": "1"
      },
      "t_mapping(t_address,t_bool)": {
        "encoding": "mapping",
        "key": "t_address",
        "label": "mapping(address => bool)",
        "numberOfBytes": "32",
        "value": "t_bool"
      },
      "t_mapping(t_address,t_mapping(t_address,t_bool))": {
        "encoding": "mapping",
        "key": "t_address",
        "label": "mapping(address => mapping(address => bool))",
        "numberOfBytes": "32",
        "value": "t_mapping(t_address,t_bool)"
      },
      "t_mapping(t_address,t_uint256)": {
        "encoding": "mapping",
        "key": "t_address",
        "label": "mapping(address => uint256)",
        "numberOfBytes": "32",
        "value": "t_uint256"
      },
      "t_mapping(t_address,t_uint8)": {
        "encoding": "mapping",
        "key": "t_address",
        "label": "mapping(address => uint8)",
        "numberOfBytes": "32",
        "value": "t_uint8"
      },
      "t_mapping(t_bytes32,t_enum(OpStatus)6845)": {
        "encoding": "mapping",
        "key": "t_bytes32",
        "label": "mapping(bytes32 => enum SafeOwnableUpgradeable.OpStatus)",
        "numberOfBytes": "32",
        "value": "t_enum(OpStatus)6845"
      },
      "t_mapping(t_uint256,t_address)": {
        "encoding": "mapping",
        "key": "t_uint256",
        "label": "mapping(uint256 => address)",
        "numberOfBytes": "32",
        "value": "t_address"
      },
      "t_mapping(t_uint256,t_string_storage)": {
        "encoding": "mapping",
        "key": "t_uint256",
        "label": "mapping(uint256 => string)",
        "numberOfBytes": "32",
        "value": "t_string_storage"
      },
      "t_mapping(t_uint256,t_struct(activeValue)13624_storage)": {
        "encoding": "mapping",
        "key": "t_uint256",
        "label": "mapping(uint256 => struct Land.activeValue)",
        "numberOfBytes": "32",
        "value": "t_struct(activeValue)13624_storage"
      },
      "t_string_storage": {
        "encoding": "bytes",
        "label": "string",
        "numberOfBytes": "32"
      },
      "t_struct(activeValue)13624_storage": {
        "encoding": "inplace",
        "label": "struct Land.activeValue",
        "members": [
          {
            "astId": 13615,
            "contract": "contracts/ERC721/Land/Land.sol:Land",
            "label": "status",
            "offset": 0,
            "slot": "0",
            "type": "t_bool"
          },
          {
            "astId": 13617,
            "contract": "contracts/ERC721/Land/Land.sol:Land",
            "label": "conditions",
            "offset": 0,
            "slot": "1",
            "type": "t_uint256"
          },
          {
            "astId": 13619,
            "contract": "contracts/ERC721/Land/Land.sol:Land",
            "label": "total",
            "offset": 0,
            "slot": "2",
            "type": "t_uint256"
          },
          {
            "astId": 13623,
            "contract": "contracts/ERC721/Land/Land.sol:Land",
            "label": "injection_details",
            "offset": 0,
            "slot": "3",
            "type": "t_mapping(t_address,t_uint256)"
          }
        ],
        "numberOfBytes": "128"
      },
      "t_uint256": {
        "encoding": "inplace",
        "label": "uint256",
        "numberOfBytes": "32"
      },
      "t_uint8": {
        "encoding": "inplace",
        "label": "uint8",
        "numberOfBytes": "1"
      }
    }
  }
}