{
  "address": "0xe3c6C97FD668877Ed9cFA4bd114D21872DdF91f2",
  "abi": [
    {
      "inputs": [
        {
          "internalType": "address",
          "name": "have",
          "type": "address"
        },
        {
          "internalType": "address",
          "name": "want",
          "type": "address"
        }
      ],
      "name": "OnlyCoordinatorCanFulfill",
      "type": "error"
    },
    {
      "anonymous": false,
      "inputs": [
        {
          "indexed": false,
          "internalType": "address",
          "name": "previousAdmin",
          "type": "address"
        },
        {
          "indexed": false,
          "internalType": "address",
          "name": "newAdmin",
          "type": "address"
        }
      ],
      "name": "AdminChanged",
      "type": "event"
    },
    {
      "anonymous": false,
      "inputs": [
        {
          "indexed": true,
          "internalType": "address",
          "name": "beacon",
          "type": "address"
        }
      ],
      "name": "BeaconUpgraded",
      "type": "event"
    },
    {
      "anonymous": false,
      "inputs": [
        {
          "indexed": false,
          "internalType": "address",
          "name": "to",
          "type": "address"
        },
        {
          "indexed": false,
          "internalType": "enum RaffleBag.PrizeKind",
          "name": "prizeKind",
          "type": "uint8"
        },
        {
          "indexed": false,
          "internalType": "uint256",
          "name": "value",
          "type": "uint256"
        }
      ],
      "name": "Draw",
      "type": "event"
    },
    {
      "anonymous": false,
      "inputs": [
        {
          "indexed": false,
          "internalType": "uint8",
          "name": "version",
          "type": "uint8"
        }
      ],
      "name": "Initialized",
      "type": "event"
    },
    {
      "anonymous": false,
      "inputs": [
        {
          "indexed": true,
          "internalType": "bytes32",
          "name": "opHash",
          "type": "bytes32"
        }
      ],
      "name": "OperationAdded",
      "type": "event"
    },
    {
      "anonymous": false,
      "inputs": [
        {
          "indexed": true,
          "internalType": "address",
          "name": "previousOwner",
          "type": "address"
        },
        {
          "indexed": true,
          "internalType": "address",
          "name": "newOwner",
          "type": "address"
        }
      ],
      "name": "OwnershipTransferred",
      "type": "event"
    },
    {
      "anonymous": false,
      "inputs": [
        {
          "indexed": false,
          "internalType": "uint256",
          "name": "requestId",
          "type": "uint256"
        },
        {
          "indexed": false,
          "internalType": "uint256[]",
          "name": "randomWords",
          "type": "uint256[]"
        }
      ],
      "name": "RequestFulfilled",
      "type": "event"
    },
    {
      "anonymous": false,
      "inputs": [
        {
          "indexed": false,
          "internalType": "uint256",
          "name": "requestId",
          "type": "uint256"
        },
        {
          "indexed": false,
          "internalType": "uint32",
          "name": "numWords",
          "type": "uint32"
        }
      ],
      "name": "RequestSent",
      "type": "event"
    },
    {
      "anonymous": false,
      "inputs": [
        {
          "indexed": true,
          "internalType": "address",
          "name": "implementation",
          "type": "address"
        }
      ],
      "name": "Upgraded",
      "type": "event"
    },
    {
      "inputs": [],
      "name": "ACard",
      "outputs": [
        {
          "internalType": "contract IERC721Upgradeable",
          "name": "",
          "type": "address"
        }
      ],
      "stateMutability": "view",
      "type": "function"
    },
    {
      "inputs": [
        {
          "internalType": "bytes32",
          "name": "opHash",
          "type": "bytes32"
        },
        {
          "internalType": "bytes[]",
          "name": "sigs",
          "type": "bytes[]"
        }
      ],
      "name": "AddOpHashToPending",
      "outputs": [],
      "stateMutability": "nonpayable",
      "type": "function"
    },
    {
      "inputs": [],
      "name": "BCard",
      "outputs": [
        {
          "internalType": "contract IERC721Upgradeable",
          "name": "",
          "type": "address"
        }
      ],
      "stateMutability": "view",
      "type": "function"
    },
    {
      "inputs": [],
      "name": "CCard",
      "outputs": [
        {
          "internalType": "contract IERC721Upgradeable",
          "name": "",
          "type": "address"
        }
      ],
      "stateMutability": "view",
      "type": "function"
    },
    {
      "inputs": [],
      "name": "DOMAIN",
      "outputs": [
        {
          "internalType": "bytes32",
          "name": "",
          "type": "bytes32"
        }
      ],
      "stateMutability": "view",
      "type": "function"
    },
    {
      "inputs": [],
      "name": "ERC20Token",
      "outputs": [
        {
          "internalType": "contract IERC20",
          "name": "",
          "type": "address"
        }
      ],
      "stateMutability": "view",
      "type": "function"
    },
    {
      "inputs": [
        {
          "internalType": "bytes32",
          "name": "data",
          "type": "bytes32"
        }
      ],
      "name": "HashToSign",
      "outputs": [
        {
          "internalType": "bytes32",
          "name": "",
          "type": "bytes32"
        }
      ],
      "stateMutability": "pure",
      "type": "function"
    },
    {
      "inputs": [],
      "name": "callbackGasLimit",
      "outputs": [
        {
          "internalType": "uint32",
          "name": "",
          "type": "uint32"
        }
      ],
      "stateMutability": "view",
      "type": "function"
    },
    {
      "inputs": [
        {
          "internalType": "uint256",
          "name": "number",
          "type": "uint256"
        }
      ],
      "name": "cleanPrizePool",
      "outputs": [],
      "stateMutability": "nonpayable",
      "type": "function"
    },
    {
      "inputs": [],
      "name": "cleanPrizePoolAll",
      "outputs": [],
      "stateMutability": "nonpayable",
      "type": "function"
    },
    {
      "inputs": [
        {
          "internalType": "uint256",
          "name": "nonce_",
          "type": "uint256"
        }
      ],
      "name": "draw",
      "outputs": [],
      "stateMutability": "nonpayable",
      "type": "function"
    },
    {
      "inputs": [
        {
          "internalType": "address",
          "name": "to",
          "type": "address"
        },
        {
          "internalType": "uint256",
          "name": "nonce_",
          "type": "uint256"
        }
      ],
      "name": "drawHash",
      "outputs": [
        {
          "internalType": "bytes32",
          "name": "",
          "type": "bytes32"
        }
      ],
      "stateMutability": "view",
      "type": "function"
    },
    {
      "inputs": [
        {
          "internalType": "address",
          "name": "to",
          "type": "address"
        },
        {
          "internalType": "uint256",
          "name": "nonce_",
          "type": "uint256"
        }
      ],
      "name": "drawTo",
      "outputs": [],
      "stateMutability": "nonpayable",
      "type": "function"
    },
    {
      "inputs": [],
      "name": "getPrizePool",
      "outputs": [
        {
          "components": [
            {
              "internalType": "enum RaffleBag.PrizeKind",
              "name": "prizeKind",
              "type": "uint8"
            },
            {
              "internalType": "uint256",
              "name": "amount",
              "type": "uint256"
            },
            {
              "internalType": "uint256",
              "name": "weight",
              "type": "uint256"
            },
            {
              "internalType": "uint256[]",
              "name": "tokens",
              "type": "uint256[]"
            }
          ],
          "internalType": "struct RaffleBag.Prize[]",
          "name": "",
          "type": "tuple[]"
        }
      ],
      "stateMutability": "view",
      "type": "function"
    },
    {
      "inputs": [
        {
          "internalType": "address[]",
          "name": "owners",
          "type": "address[]"
        },
        {
          "internalType": "uint8",
          "name": "signRequred",
          "type": "uint8"
        },
        {
          "internalType": "address",
          "name": "vrfCoordinatorAddress_",
          "type": "address"
        }
      ],
      "name": "initialize",
      "outputs": [],
      "stateMutability": "nonpayable",
      "type": "function"
    },
    {
      "inputs": [],
      "name": "keyHash",
      "outputs": [
        {
          "internalType": "bytes32",
          "name": "",
          "type": "bytes32"
        }
      ],
      "stateMutability": "view",
      "type": "function"
    },
    {
      "inputs": [],
      "name": "maxNumOwners",
      "outputs": [
        {
          "internalType": "uint8",
          "name": "",
          "type": "uint8"
        }
      ],
      "stateMutability": "view",
      "type": "function"
    },
    {
      "inputs": [],
      "name": "nonce",
      "outputs": [
        {
          "internalType": "uint256",
          "name": "",
          "type": "uint256"
        }
      ],
      "stateMutability": "view",
      "type": "function"
    },
    {
      "inputs": [
        {
          "internalType": "bytes32",
          "name": "",
          "type": "bytes32"
        }
      ],
      "name": "operationsStatus",
      "outputs": [
        {
          "internalType": "enum SafeOwnableUpgradeable.OpStatus",
          "name": "",
          "type": "uint8"
        }
      ],
      "stateMutability": "view",
      "type": "function"
    },
    {
      "inputs": [],
      "name": "owners",
      "outputs": [
        {
          "internalType": "address[6]",
          "name": "",
          "type": "address[6]"
        }
      ],
      "stateMutability": "view",
      "type": "function"
    },
    {
      "inputs": [],
      "name": "proxiableUUID",
      "outputs": [
        {
          "internalType": "bytes32",
          "name": "",
          "type": "bytes32"
        }
      ],
      "stateMutability": "view",
      "type": "function"
    },
    {
      "inputs": [
        {
          "internalType": "uint256",
          "name": "requestId",
          "type": "uint256"
        },
        {
          "internalType": "uint256[]",
          "name": "randomWords",
          "type": "uint256[]"
        }
      ],
      "name": "rawFulfillRandomWords",
      "outputs": [],
      "stateMutability": "nonpayable",
      "type": "function"
    },
    {
      "inputs": [
        {
          "internalType": "uint256",
          "name": "",
          "type": "uint256"
        }
      ],
      "name": "requests",
      "outputs": [
        {
          "internalType": "address",
          "name": "user",
          "type": "address"
        },
        {
          "internalType": "uint256",
          "name": "randomWord",
          "type": "uint256"
        },
        {
          "internalType": "bool",
          "name": "fulfilled",
          "type": "bool"
        },
        {
          "internalType": "bool",
          "name": "exists",
          "type": "bool"
        }
      ],
      "stateMutability": "view",
      "type": "function"
    },
    {
      "inputs": [
        {
          "internalType": "address",
          "name": "aCard_",
          "type": "address"
        }
      ],
      "name": "setACard",
      "outputs": [],
      "stateMutability": "nonpayable",
      "type": "function"
    },
    {
      "inputs": [
        {
          "internalType": "address",
          "name": "spender_",
          "type": "address"
        },
        {
          "internalType": "address",
          "name": "token",
          "type": "address"
        },
        {
          "internalType": "address",
          "name": "aCard_",
          "type": "address"
        },
        {
          "internalType": "address",
          "name": "bCard_",
          "type": "address"
        },
        {
          "internalType": "address",
          "name": "cCard_",
          "type": "address"
        }
      ],
      "name": "setAsset",
      "outputs": [],
      "stateMutability": "nonpayable",
      "type": "function"
    },
    {
      "inputs": [
        {
          "internalType": "address",
          "name": "bCard_",
          "type": "address"
        }
      ],
      "name": "setBCard",
      "outputs": [],
      "stateMutability": "nonpayable",
      "type": "function"
    },
    {
      "inputs": [
        {
          "internalType": "address",
          "name": "cCard_",
          "type": "address"
        }
      ],
      "name": "setCCard",
      "outputs": [],
      "stateMutability": "nonpayable",
      "type": "function"
    },
    {
      "inputs": [
        {
          "internalType": "uint32",
          "name": "callbackGasLimit_",
          "type": "uint32"
        },
        {
          "internalType": "uint64",
          "name": "subscribeId_",
          "type": "uint64"
        },
        {
          "internalType": "bytes32",
          "name": "keyHash_",
          "type": "bytes32"
        },
        {
          "internalType": "uint16",
          "name": "requestConfirmations_",
          "type": "uint16"
        }
      ],
      "name": "setChainlink",
      "outputs": [],
      "stateMutability": "nonpayable",
      "type": "function"
    },
    {
      "inputs": [
        {
          "internalType": "address",
          "name": "token",
          "type": "address"
        }
      ],
      "name": "setERC20",
      "outputs": [],
      "stateMutability": "nonpayable",
      "type": "function"
    },
    {
      "inputs": [
        {
          "internalType": "enum RaffleBag.PrizeKind",
          "name": "prizeKind_",
          "type": "uint8"
        },
        {
          "internalType": "uint256",
          "name": "amount_",
          "type": "uint256"
        },
        {
          "internalType": "uint256",
          "name": "weight_",
          "type": "uint256"
        },
        {
          "internalType": "uint256[]",
          "name": "tokens_",
          "type": "uint256[]"
        }
      ],
      "name": "setPrize",
      "outputs": [],
      "stateMutability": "nonpayable",
      "type": "function"
    },
    {
      "inputs": [
        {
          "internalType": "enum RaffleBag.PrizeKind[]",
          "name": "prizeKinds_",
          "type": "uint8[]"
        },
        {
          "internalType": "uint256[]",
          "name": "amounts_",
          "type": "uint256[]"
        },
        {
          "internalType": "uint256[]",
          "name": "weights_",
          "type": "uint256[]"
        },
        {
          "internalType": "uint256[][]",
          "name": "tokensList_",
          "type": "uint256[][]"
        }
      ],
      "name": "setPrizes",
      "outputs": [],
      "stateMutability": "nonpayable",
      "type": "function"
    },
    {
      "inputs": [
        {
          "internalType": "address",
          "name": "spender_",
          "type": "address"
        }
      ],
      "name": "setSpender",
      "outputs": [],
      "stateMutability": "nonpayable",
      "type": "function"
    },
    {
      "inputs": [],
      "name": "signRequired",
      "outputs": [
        {
          "internalType": "uint8",
          "name": "",
          "type": "uint8"
        }
      ],
      "stateMutability": "view",
      "type": "function"
    },
    {
      "inputs": [],
      "name": "spender",
      "outputs": [
        {
          "internalType": "address",
          "name": "",
          "type": "address"
        }
      ],
      "stateMutability": "view",
      "type": "function"
    },
    {
      "inputs": [],
      "name": "subscriptionId",
      "outputs": [
        {
          "internalType": "uint64",
          "name": "",
          "type": "uint64"
        }
      ],
      "stateMutability": "view",
      "type": "function"
    },
    {
      "inputs": [
        {
          "internalType": "address",
          "name": "newOwner",
          "type": "address"
        }
      ],
      "name": "transferOwnership",
      "outputs": [],
      "stateMutability": "nonpayable",
      "type": "function"
    },
    {
      "inputs": [
        {
          "internalType": "address",
          "name": "newImplementation",
          "type": "address"
        }
      ],
      "name": "upgradeTo",
      "outputs": [],
      "stateMutability": "nonpayable",
      "type": "function"
    },
    {
      "inputs": [
        {
          "internalType": "address",
          "name": "newImplementation",
          "type": "address"
        },
        {
          "internalType": "bytes",
          "name": "data",
          "type": "bytes"
        }
      ],
      "name": "upgradeToAndCall",
      "outputs": [],
      "stateMutability": "payable",
      "type": "function"
    }
  ],
  "numDeployments": 1,
  "solcInputHash": "fc86733dcc84b697110fd56bdb4f873d",
  "bytecode": "0x60a06040523060805234801561001457600080fd5b506080516142a261004c60003960008181610b1301528181610ba901528181610dea01528181610e80015261100001526142a26000f3fe6080604052600436106102855760003560e01c80637a29349d11610153578063bb5777e3116100cb578063e8edc8161161007f578063eb53a05711610064578063eb53a057146107db578063f2fde38b146107fb578063ff3a9cbc1461081b57600080fd5b8063e8edc8161461079b578063eb31f475146107bb57600080fd5b8063c29a6fda116100b0578063c29a6fda1461071e578063ce0d0ca01461073e578063cfee48b91461077b57600080fd5b8063bb5777e3146106de578063c0043ca7146106fe57600080fd5b8063884bf67c116101225780639846620c116101075780639846620c14610686578063affe39c1146106a6578063affed0e0146106c857600080fd5b8063884bf67c146106445780638b5a21431461066657600080fd5b80637a29349d146105615780637a80760e1461058057806381d12c58146105a057806384479ff51461062457600080fd5b80633659cfe6116102015780634fe43f27116101b557806352d1902d1161019a57806352d1902d146104c857806361728f39146104dd57806375f3958c146104f357600080fd5b80634fe43f271461048457806352a9674b146104a457600080fd5b80633eda922a116101e65780633eda922a1461043157806344439209146104515780634f1ef2861461047157600080fd5b80633659cfe6146103f15780633b3041471461041157600080fd5b8063120f5bf5116102585780631fe543e31161023d5780631fe543e31461037f57806324f746971461039f5780632679e47e146103d157600080fd5b8063120f5bf51461034a57806312577f841461035f57600080fd5b806309c1ba2e1461028a5780630bfeaf6f146102c95780630c3515ba146103015780630c81df0114610328575b600080fd5b34801561029657600080fd5b5060a9546102ab9067ffffffffffffffff1681565b60405167ffffffffffffffff90911681526020015b60405180910390f35b3480156102d557600080fd5b5060a5546102e9906001600160a01b031681565b6040516001600160a01b0390911681526020016102c0565b34801561030d57600080fd5b50610316600581565b60405160ff90911681526020016102c0565b34801561033457600080fd5b50610348610343366004613859565b61083b565b005b34801561035657600080fd5b5061034861093c565b34801561036b57600080fd5b5061034861037a3660046138c9565b610a21565b34801561038b57600080fd5b5061034861039a3660046139b8565b610aa1565b3480156103ab57600080fd5b5060ab546103bc9063ffffffff1681565b60405163ffffffff90911681526020016102c0565b3480156103dd57600080fd5b5060a4546102e9906001600160a01b031681565b3480156103fd57600080fd5b5061034861040c366004613a1b565b610b08565b34801561041d57600080fd5b5061034861042c3660046138c9565b610ca3565b34801561043d57600080fd5b5061034861044c366004613a1b565b610cad565b34801561045d57600080fd5b5061034861046c366004613a1b565b610d46565b61034861047f366004613aa6565b610ddf565b34801561049057600080fd5b5061034861049f366004613af9565b610f6a565b3480156104b057600080fd5b506104ba60a75481565b6040519081526020016102c0565b3480156104d457600080fd5b506104ba610ff3565b3480156104e957600080fd5b506104ba60aa5481565b3480156104ff57600080fd5b506104ba61050e3660046138c9565b6040517f19457468657265756d205369676e6564204d6573736167653a0a3332000000006020820152603c8101829052600090605c01604051602081830303815290604052805190602001209050919050565b34801561056d57600080fd5b50609e5461031690610100900460ff1681565b34801561058c57600080fd5b5060a3546102e9906001600160a01b031681565b3480156105ac57600080fd5b506105f26105bb3660046138c9565b60ac602052600090815260409020805460018201546002909201546001600160a01b03909116919060ff8082169161010090041684565b604080516001600160a01b039095168552602085019390935290151591830191909152151560608201526080016102c0565b34801561063057600080fd5b5061034861063f366004613a1b565b6110b8565b34801561065057600080fd5b50610659611151565b6040516102c09190613b84565b34801561067257600080fd5b50610348610681366004613c60565b611255565b34801561069257600080fd5b506103486106a1366004613a1b565b611584565b3480156106b257600080fd5b506106bb61161d565b6040516102c09190613d1d565b3480156106d457600080fd5b506104ba60a05481565b3480156106ea57600080fd5b506103486106f9366004613d57565b611662565b34801561070a57600080fd5b506104ba610719366004613dbc565b61170d565b34801561072a57600080fd5b50610348610739366004613a1b565b6117a1565b34801561074a57600080fd5b5061076e6107593660046138c9565b609f6020526000908152604090205460ff1681565b6040516102c09190613de6565b34801561078757600080fd5b5060a6546102e9906001600160a01b031681565b3480156107a757600080fd5b5060a2546102e9906001600160a01b031681565b3480156107c757600080fd5b506103486107d6366004613e80565b61183a565b3480156107e757600080fd5b506103486107f6366004613f8e565b6119d4565b34801561080757600080fd5b50610348610816366004613a1b565b611b9d565b34801561082757600080fd5b50610348610836366004613dbc565b611d28565b336000908152609d602052604090205460ff166108b75760405162461bcd60e51b815260206004820152602f60248201527f536166654f776e61626c655570677261646561626c653a2063616c6c6572206960448201526e39903737ba103a34329037bbb732b960891b60648201526084015b60405180910390fd5b60ab805460a9805467ffffffffffffffff9096167fffffffffffffffffffffffffffffffffffffffffffffffff00000000000000009096169590951790945560aa9290925561ffff16640100000000027fffffffffffffffffffffffffffffffffffffffffffffffffffff00000000000090921663ffffffff90931692909217179055565b336000908152609d602052604090205460ff166109b35760405162461bcd60e51b815260206004820152602f60248201527f536166654f776e61626c655570677261646561626c653a2063616c6c6572206960448201526e39903737ba103a34329037bbb732b960891b60648201526084016108ae565b60005b60a854811015610a1e5760a88054806109d1576109d1614048565b600082815260208120600460001990930192830201805460ff19168155600181018290556002810182905590610a0a600383018261377d565b50509055610a1781614074565b90506109b6565b50565b336000908152609d602052604090205460ff16610a985760405162461bcd60e51b815260206004820152602f60248201527f536166654f776e61626c655570677261646561626c653a2063616c6c6572206960448201526e39903737ba103a34329037bbb732b960891b60648201526084016108ae565b610a1e81611d32565b60a1546001600160a01b03163314610afa5760a1546040517f1cf993f40000000000000000000000000000000000000000000000000000000081523360048201526001600160a01b0390911660248201526044016108ae565b610b048282611e66565b5050565b306001600160a01b037f0000000000000000000000000000000000000000000000000000000000000000161415610ba75760405162461bcd60e51b815260206004820152602c60248201527f46756e6374696f6e206d7573742062652063616c6c6564207468726f7567682060448201527f64656c656761746563616c6c000000000000000000000000000000000000000060648201526084016108ae565b7f00000000000000000000000000000000000000000000000000000000000000006001600160a01b0316610c027f360894a13ba1a3210667c828492db98dca3e2076cc3735a920a3ca505d382bbc546001600160a01b031690565b6001600160a01b031614610c7e5760405162461bcd60e51b815260206004820152602c60248201527f46756e6374696f6e206d7573742062652063616c6c6564207468726f7567682060448201527f6163746976652070726f7879000000000000000000000000000000000000000060648201526084016108ae565b610c8781611fe9565b60408051600080825260208201909252610a1e91839190612060565b610a1e3382612214565b336000908152609d602052604090205460ff16610d245760405162461bcd60e51b815260206004820152602f60248201527f536166654f776e61626c655570677261646561626c653a2063616c6c6572206960448201526e39903737ba103a34329037bbb732b960891b60648201526084016108ae565b60a580546001600160a01b0319166001600160a01b0392909216919091179055565b336000908152609d602052604090205460ff16610dbd5760405162461bcd60e51b815260206004820152602f60248201527f536166654f776e61626c655570677261646561626c653a2063616c6c6572206960448201526e39903737ba103a34329037bbb732b960891b60648201526084016108ae565b60a280546001600160a01b0319166001600160a01b0392909216919091179055565b306001600160a01b037f0000000000000000000000000000000000000000000000000000000000000000161415610e7e5760405162461bcd60e51b815260206004820152602c60248201527f46756e6374696f6e206d7573742062652063616c6c6564207468726f7567682060448201527f64656c656761746563616c6c000000000000000000000000000000000000000060648201526084016108ae565b7f00000000000000000000000000000000000000000000000000000000000000006001600160a01b0316610ed97f360894a13ba1a3210667c828492db98dca3e2076cc3735a920a3ca505d382bbc546001600160a01b031690565b6001600160a01b031614610f555760405162461bcd60e51b815260206004820152602c60248201527f46756e6374696f6e206d7573742062652063616c6c6564207468726f7567682060448201527f6163746976652070726f7879000000000000000000000000000000000000000060648201526084016108ae565b610f5e82611fe9565b610b0482826001612060565b336000908152609d602052604090205460ff16610fe15760405162461bcd60e51b815260206004820152602f60248201527f536166654f776e61626c655570677261646561626c653a2063616c6c6572206960448201526e39903737ba103a34329037bbb732b960891b60648201526084016108ae565b610fed848484846122dd565b50505050565b6000306001600160a01b037f000000000000000000000000000000000000000000000000000000000000000016146110935760405162461bcd60e51b815260206004820152603860248201527f555550535570677261646561626c653a206d757374206e6f742062652063616c60448201527f6c6564207468726f7567682064656c656761746563616c6c000000000000000060648201526084016108ae565b507f360894a13ba1a3210667c828492db98dca3e2076cc3735a920a3ca505d382bbc90565b336000908152609d602052604090205460ff1661112f5760405162461bcd60e51b815260206004820152602f60248201527f536166654f776e61626c655570677261646561626c653a2063616c6c6572206960448201526e39903737ba103a34329037bbb732b960891b60648201526084016108ae565b60a480546001600160a01b0319166001600160a01b0392909216919091179055565b606060a8805480602002602001604051908101604052809291908181526020016000905b8282101561124c57838290600052602060002090600402016040518060800160405290816000820160009054906101000a900460ff1660048111156111bc576111bc613b5a565b60048111156111cd576111cd613b5a565b815260200160018201548152602001600282015481526020016003820180548060200260200160405190810160405280929190818152602001828054801561123457602002820191906000526020600020905b815481526020019060010190808311611220575b50505050508152505081526020019060010190611175565b50505050905090565b8181600061126161379b565b336000908152609d602052604090205460ff16156112cc57816112838161408f565b925050600181609d60006112943390565b6001600160a01b0316815260208101919091526040016000205460ff16600681106112c1576112c16140af565b911515602090920201525b60005b83518160ff16101561140c57600061130c858360ff16815181106112f5576112f56140af565b60200260200101518761238b90919063ffffffff16565b6001600160a01b0381166000908152609d602052604090205490915060ff168061139e5760405162461bcd60e51b815260206004820152602b60248201527f536166654f776e61626c655570677261646561626c653a207369676e6572206960448201527f73206e6f74206f776e657200000000000000000000000000000000000000000060648201526084016108ae565b838160ff16600681106113b3576113b36140af565b60200201511515600114156113c95750506113fa565b6001848260ff16600681106113e0576113e06140af565b91151560209092020152846113f48161408f565b95505050505b806114048161408f565b9150506112cf565b50609e5460ff610100909104811690831610156114915760405162461bcd60e51b815260206004820152602a60248201527f536166654f776e61626c655570677261646561626c653a206e6f20656e6f756760448201527f6820636f6e6669726d730000000000000000000000000000000000000000000060648201526084016108ae565b60a080549060006114a183614074565b90915550506000868152609f602052604081205460ff1660038111156114c9576114c9613b5a565b1461153c5760405162461bcd60e51b815260206004820152603760248201527f536166654f776e61626c655570677261646561626c653a206f7065726174696f60448201527f6e20776173206e6f74207375626d69747465642079657400000000000000000060648201526084016108ae565b6000868152609f6020526040808220805460ff191660011790555187917f33775024b20f211f019e50305c897b2105edc4642384143897ac170fb37f54a191a2505050505050565b336000908152609d602052604090205460ff166115fb5760405162461bcd60e51b815260206004820152602f60248201527f536166654f776e61626c655570677261646561626c653a2063616c6c6572206960448201526e39903737ba103a34329037bbb732b960891b60648201526084016108ae565b60a680546001600160a01b0319166001600160a01b0392909216919091179055565b61162561379b565b6040805160c08101918290529060979060069082845b81546001600160a01b0316815260019091019060200180831161163b575050505050905090565b336000908152609d602052604090205460ff166116d95760405162461bcd60e51b815260206004820152602f60248201527f536166654f776e61626c655570677261646561626c653a2063616c6c6572206960448201526e39903737ba103a34329037bbb732b960891b60648201526084016108ae565b6116e285610d46565b6116eb846117a1565b6116f4836110b8565b6116fd82610cad565b61170681611584565b5050505050565b600060a7547fc0043ca721c3ed4d197f24667122995e046db08c3273aac1ff3bf81307bf6d8e84846040516020016117839493929190938452602084019290925260601b7fffffffffffffffffffffffffffffffffffffffff000000000000000000000000166040830152605482015260740190565b60405160208183030381529060405280519060200120905092915050565b336000908152609d602052604090205460ff166118185760405162461bcd60e51b815260206004820152602f60248201527f536166654f776e61626c655570677261646561626c653a2063616c6c6572206960448201526e39903737ba103a34329037bbb732b960891b60648201526084016108ae565b60a380546001600160a01b0319166001600160a01b0392909216919091179055565b336000908152609d602052604090205460ff166118b15760405162461bcd60e51b815260206004820152602f60248201527f536166654f776e61626c655570677261646561626c653a2063616c6c6572206960448201526e39903737ba103a34329037bbb732b960891b60648201526084016108ae565b83518084511480156118c35750808351145b80156118cf5750808251145b6119415760405162461bcd60e51b815260206004820152602a60248201527f526166666c654261673a206c656e677468206f6620746865206461746120697360448201527f20646966666572656e740000000000000000000000000000000000000000000060648201526084016108ae565b60005b818110156119cc576119bc868281518110611961576119616140af565b602002602001015186838151811061197b5761197b6140af565b6020026020010151868481518110611995576119956140af565b60200260200101518685815181106119af576119af6140af565b60200260200101516122dd565b6119c581614074565b9050611944565b505050505050565b600054610100900460ff16158080156119f45750600054600160ff909116105b80611a0e5750303b158015611a0e575060005460ff166001145b611a805760405162461bcd60e51b815260206004820152602e60248201527f496e697469616c697a61626c653a20636f6e747261637420697320616c72656160448201527f647920696e697469616c697a656400000000000000000000000000000000000060648201526084016108ae565b6000805460ff191660011790558015611aa3576000805461ff0019166101001790555b611aad84846123af565b611ab682612734565b60a980547fffffffff0000000000000000000000000000000000000000ffffffffffffffff16680100000000000000006001600160a01b03851602179055611afc612860565b604080517f20a714382505729b6977051cb17e2cd66b3149e150240124aa4917fe7f2189906020820152469181019190915230606082015260800160408051601f19818403018152919052805160209091012060a7558015610fed576000805461ff0019169055604051600181527f7f26b83ff96e1f2b6a682f133852f6798a09c465da95921460cefb38474024989060200160405180910390a150505050565b336000908152609d602052604090205460ff16611c145760405162461bcd60e51b815260206004820152602f60248201527f536166654f776e61626c655570677261646561626c653a2063616c6c6572206960448201526e39903737ba103a34329037bbb732b960891b60648201526084016108ae565b6001600160a01b038116611c905760405162461bcd60e51b815260206004820152603560248201527f536166654f776e61626c655570677261646561626c653a206e6577206f776e6560448201527f7220697320746865207a65726f2061646472657373000000000000000000000060648201526084016108ae565b6001600160a01b0381166000908152609d602052604090205460ff1615611d1f5760405162461bcd60e51b815260206004820152603060248201527f536166654f776e61626c655570677261646561626c653a206e6577206f776e6560448201527f7220616c7265616479206578697374730000000000000000000000000000000060648201526084016108ae565b610a1e816128df565b610b048282612214565b60a854600090611d44906001906140c5565b9050808214611e1457815b81811015611e125760a8611d648260016140dc565b81548110611d7457611d746140af565b906000526020600020906004020160a88281548110611d9557611d956140af565b60009182526020909120825460049283029091018054909260ff90921691839160ff1916906001908490811115611dce57611dce613b5a565b021790555060018201548160010155600282015481600201556003820181600301908054611dfd9291906137b9565b5090505080611e0b90614074565b9050611d4f565b505b60a8805480611e2557611e25614048565b600082815260208120600460001990930192830201805460ff19168155600181018290556002810182905590611e5e600383018261377d565b505090555050565b600082815260ac6020526040902060020154610100900460ff16611ecc5760405162461bcd60e51b815260206004820152601c60248201527f526166666c654261673a2072657175657374206e6f7420666f756e640000000060448201526064016108ae565b600082815260ac602052604090206002015460ff1615611f545760405162461bcd60e51b815260206004820152602560248201527f526166666c654261673a207265717565737420686173206265656e2070726f6360448201527f657373656400000000000000000000000000000000000000000000000000000060648201526084016108ae565b600082815260ac60205260408120600201805460ff191660011790558151829190611f8157611f816140af565b602002602001015160ac600084815260200190815260200160002060010181905550611fac8261297e565b7ffe2e2d779dba245964d4e3ef9b994be63856fd568bf7d3ca9e224755cb1bd54d8282604051611fdd9291906140f4565b60405180910390a15050565b336000908152609d602052604090205460ff16610a1e5760405162461bcd60e51b815260206004820152602f60248201527f536166654f776e61626c655570677261646561626c653a2063616c6c6572206960448201526e39903737ba103a34329037bbb732b960891b60648201526084016108ae565b7f4910fdfa16fed3260ed0e7147f7cc6da11a60208b5b9406d12a635614ffd91435460ff16156120985761209383612e88565b505050565b826001600160a01b03166352d1902d6040518163ffffffff1660e01b815260040160206040518083038186803b1580156120d157600080fd5b505afa925050508015612101575060408051601f3d908101601f191682019092526120fe91810190614142565b60015b6121735760405162461bcd60e51b815260206004820152602e60248201527f45524331393637557067726164653a206e657720696d706c656d656e7461746960448201527f6f6e206973206e6f74205555505300000000000000000000000000000000000060648201526084016108ae565b7f360894a13ba1a3210667c828492db98dca3e2076cc3735a920a3ca505d382bbc81146122085760405162461bcd60e51b815260206004820152602960248201527f45524331393637557067726164653a20756e737570706f727465642070726f7860448201527f6961626c6555554944000000000000000000000000000000000000000000000060648201526084016108ae565b50612093838383612f46565b61222161050e838361170d565b60016000828152609f602052604090205460ff16600381111561224657612246613b5a565b146122b95760405162461bcd60e51b815260206004820152603060248201527f536166654f776e61626c655570677261646561626c653a206f7065726174696f60448201527f6e206e6f7420696e2070656e64696e670000000000000000000000000000000060648201526084016108ae565b6000818152609f60205260409020805460ff19166002179055610fed836001612f6b565b60a860405180608001604052808660048111156122fc576122fc613b5a565b81526020808201879052604082018690526060909101849052825460018181018555600094855291909320825160049485029091018054939490939192849260ff191691849081111561235157612351613b5a565b0217905550602082810151600183015560408301516002830155606083015180516123829260038501920190613809565b50505050505050565b600080600061239a8585613135565b915091506123a78161317b565b509392505050565b600054610100900460ff1661242c5760405162461bcd60e51b815260206004820152602b60248201527f496e697469616c697a61626c653a20636f6e7472616374206973206e6f74206960448201527f6e697469616c697a696e6700000000000000000000000000000000000000000060648201526084016108ae565b8151600510156124a45760405162461bcd60e51b815260206004820152603360248201527f536166654f776e61626c655570677261646561626c653a657863656564206d6160448201527f78696d756d206e756d626572206f776e6572730000000000000000000000000060648201526084016108ae565b60ff811661251a5760405162461bcd60e51b815260206004820152602c60248201527f536166654f776e61626c655570677261646561626c653a207369676e5265717560448201527f69726564206973207a65726f000000000000000000000000000000000000000060648201526084016108ae565b609e805461ff00191661010060ff84160217905560005b82518110156126b057600083828151811061254e5761254e6140af565b6020908102919091018101516001600160a01b0381166000908152609d90925260409091205490915060ff16156125ed5760405162461bcd60e51b815260206004820152602c60248201527f536166654f776e61626c655570677261646561626c653a206f776e657220616c60448201527f726561647920657869737473000000000000000000000000000000000000000060648201526084016108ae565b609e805482916097916000906126059060ff1661408f565b91906101000a81548160ff021916908360ff160217905560ff166006811061262f5761262f6140af565b0180546001600160a01b039283166001600160a01b0319909116179055609e549082166000818152609d6020526040808220805460ff191660ff9095169490941790935591519091907f8be0079c531659141344cd1fd0a4f28419497f9722a3daafe3b4186f6b6457e0908290a350806126a881614074565b915050612531565b50609e5460ff808216610100909204161115610b045760405162461bcd60e51b815260206004820152603560248201527f536166654f776e61626c655570677261646561626c653a206f776e657273206c60448201527f657373207468616e207369676e5265717569726564000000000000000000000060648201526084016108ae565b600054610100900460ff16158080156127545750600054600160ff909116105b8061276e5750303b15801561276e575060005460ff166001145b6127e05760405162461bcd60e51b815260206004820152602e60248201527f496e697469616c697a61626c653a20636f6e747261637420697320616c72656160448201527f647920696e697469616c697a656400000000000000000000000000000000000060648201526084016108ae565b6000805460ff191660011790558015612803576000805461ff0019166101001790555b60a180546001600160a01b0319166001600160a01b0384161790558015610b04576000805461ff0019169055604051600181527f7f26b83ff96e1f2b6a682f133852f6798a09c465da95921460cefb384740249890602001611fdd565b600054610100900460ff166128dd5760405162461bcd60e51b815260206004820152602b60248201527f496e697469616c697a61626c653a20636f6e7472616374206973206e6f74206960448201527f6e697469616c697a696e6700000000000000000000000000000000000000000060648201526084016108ae565b565b336000818152609d602052604090205460ff168260978260068110612906576129066140af565b0180546001600160a01b0319166001600160a01b039283161790558281166000818152609d6020526040808220805460ff19908116909155938716808352818320805490951660ff871617909455517f8be0079c531659141344cd1fd0a4f28419497f9722a3daafe3b4186f6b6457e09190a3505050565b60ad5460ff16156129d15760405162461bcd60e51b815260206004820152600e60248201527f4e6f2072652d656e7472616e637900000000000000000000000000000000000060448201526064016108ae565b60ad805460ff19166001908117909155600082815260ac602052604090200154612a635760405162461bcd60e51b815260206004820152602d60248201527f526166666c654261673a205468652072616e646f6d576f726473206e756d626560448201527f722063616e6e6f7420626520300000000000000000000000000000000000000060648201526084016108ae565b600081815260ac6020526040812080546001909101546001600160a01b039091169190612a8f9061336c565b90506000600460a88381548110612aa857612aa86140af565b600091825260209091206004918202015460ff1690811115612acc57612acc613b5a565b1415612bac5760a88281548110612ae557612ae56140af565b600091825260209091206004918202016001015460a35460a2546040517f23b872dd0000000000000000000000000000000000000000000000000000000081526001600160a01b039182169481019490945286811660248501526044840183905291935016906323b872dd90606401602060405180830381600087803b158015612b6e57600080fd5b505af1158015612b82573d6000803e3d6000fd5b505050506040513d601f19601f82011682018060405250810190612ba6919061415b565b50612e17565b600360a88381548110612bc157612bc16140af565b600091825260209091206004918202015460ff1690811115612be557612be5613b5a565b14612e175760008060a88481548110612c0057612c006140af565b600091825260209091206004918202015460ff1690811115612c2457612c24613b5a565b1415612c3c575060a4546001600160a01b0316612c9b565b600160a88481548110612c5157612c516140af565b600091825260209091206004918202015460ff1690811115612c7557612c75613b5a565b1415612c8d575060a5546001600160a01b0316612c9b565b5060a6546001600160a01b03165b60a88381548110612cae57612cae6140af565b9060005260206000209060040201600301600160a88581548110612cd457612cd46140af565b906000526020600020906004020160030180549050612cf391906140c5565b81548110612d0357612d036140af565b60009182526020909120015460a2546040517f42842e0e0000000000000000000000000000000000000000000000000000000081526001600160a01b0391821660048201528682166024820152604481018390529193508216906342842e0e90606401600060405180830381600087803b158015612d8057600080fd5b505af1158015612d94573d6000803e3d6000fd5b5050505060a88381548110612dab57612dab6140af565b9060005260206000209060040201600301805480612dcb57612dcb614048565b6001900381819060005260206000200160009055905560a88381548110612df457612df46140af565b6000918252602090912060036004909202010154612e1557612e1583611d32565b505b7f18fae4e39f8491a45627936656bb2c101acc51aa243e74fe8e46ad0f2f56aee18360a88481548110612e4c57612e4c6140af565b6000918252602090912060049091020154604051612e70929160ff1690859061417d565b60405180910390a1505060ad805460ff191690555050565b6001600160a01b0381163b612f055760405162461bcd60e51b815260206004820152602d60248201527f455243313936373a206e657720696d706c656d656e746174696f6e206973206e60448201527f6f74206120636f6e74726163740000000000000000000000000000000000000060648201526084016108ae565b7f360894a13ba1a3210667c828492db98dca3e2076cc3735a920a3ca505d382bbc80546001600160a01b0319166001600160a01b0392909216919091179055565b612f4f83613505565b600082511180612f5c5750805b1561209357610fed8383613545565b60a95460aa5460ab546040517f5d3b1d30000000000000000000000000000000000000000000000000000000008152600481019290925267ffffffffffffffff83166024830152640100000000810461ffff16604483015263ffffffff9081166064830152831660848201526000916801000000000000000090046001600160a01b031690635d3b1d309060a401602060405180830381600087803b15801561301357600080fd5b505af1158015613027573d6000803e3d6000fd5b505050506040513d601f19601f8201168201806040525081019061304b9190614142565b604080516080810182526001600160a01b0386811682526000602080840182815284860183815260016060870181815289865260ac855294889020965187546001600160a01b031916961695909517865590519385019390935591516002909301805491517fffffffffffffffffffffffffffffffffffffffffffffffffffffffffffff000090921693151561ff001916939093176101009115159190910217909155815183815263ffffffff8616918101919091529192507fcc58b13ad3eab50626c6a6300b1d139cd6ebb1688a7cced9461c2f7e762665ee910160405180910390a192915050565b60008082516041141561316c5760208301516040840151606085015160001a61316087828585613650565b94509450505050613174565b506000905060025b9250929050565b600081600481111561318f5761318f613b5a565b14156131985750565b60018160048111156131ac576131ac613b5a565b14156131fa5760405162461bcd60e51b815260206004820152601860248201527f45434453413a20696e76616c6964207369676e6174757265000000000000000060448201526064016108ae565b600281600481111561320e5761320e613b5a565b141561325c5760405162461bcd60e51b815260206004820152601f60248201527f45434453413a20696e76616c6964207369676e6174757265206c656e6774680060448201526064016108ae565b600381600481111561327057613270613b5a565b14156132e45760405162461bcd60e51b815260206004820152602260248201527f45434453413a20696e76616c6964207369676e6174757265202773272076616c60448201527f756500000000000000000000000000000000000000000000000000000000000060648201526084016108ae565b60048160048111156132f8576132f8613b5a565b1415610a1e5760405162461bcd60e51b815260206004820152602260248201527f45434453413a20696e76616c6964207369676e6174757265202776272076616c60448201527f756500000000000000000000000000000000000000000000000000000000000060648201526084016108ae565b60008060005b60a8548110156133be5760a8818154811061338f5761338f6140af565b906000526020600020906004020160020154826133ac91906140dc565b91506133b781614074565b9050613372565b5060a8546133cd9060016140dc565b915060006133db82856141a8565b90506000805b60a85481101561348557801561342e5760a86133fe6001836140c5565b8154811061340e5761340e6140af565b9060005260206000209060040201600201548261342b91906140dc565b91505b81831015801561346c57508160a8828154811061344d5761344d6140af565b90600052602060002090600402016002015461346991906140dc565b83105b15613475578094505b61347e81614074565b90506133e1565b5060a85484106134fd5760405162461bcd60e51b815260206004820152603560248201527f526166666c654261673a20546865726520697320616e206572726f7220696e2060448201527f74616b696e672072616e646f6d206e756d62657273000000000000000000000060648201526084016108ae565b505050919050565b61350e81612e88565b6040516001600160a01b038216907fbc7cd75a20ee27fd9adebab32041f755214dbc6bffa90cc0225b39da2e5c2d3b90600090a250565b60606001600160a01b0383163b6135c45760405162461bcd60e51b815260206004820152602660248201527f416464726573733a2064656c65676174652063616c6c20746f206e6f6e2d636f60448201527f6e7472616374000000000000000000000000000000000000000000000000000060648201526084016108ae565b600080846001600160a01b0316846040516135df91906141f6565b600060405180830381855af49150503d806000811461361a576040519150601f19603f3d011682016040523d82523d6000602084013e61361f565b606091505b509150915061364782826040518060600160405280602781526020016142466027913961373d565b95945050505050565b6000807f7fffffffffffffffffffffffffffffff5d576e7357a4501ddfe92f46681b20a08311156136875750600090506003613734565b8460ff16601b1415801561369f57508460ff16601c14155b156136b05750600090506004613734565b6040805160008082526020820180845289905260ff881692820192909252606081018690526080810185905260019060a0016020604051602081039080840390855afa158015613704573d6000803e3d6000fd5b5050604051601f1901519150506001600160a01b03811661372d57600060019250925050613734565b9150600090505b94509492505050565b6060831561374c575081613776565b82511561375c5782518084602001fd5b8160405162461bcd60e51b81526004016108ae9190614212565b9392505050565b5080546000825590600052602060002090810190610a1e9190613844565b6040518060c001604052806006906020820280368337509192915050565b8280548282559060005260206000209081019282156137f95760005260206000209182015b828111156137f95782548255916001019190600101906137de565b50613805929150613844565b5090565b8280548282559060005260206000209081019282156137f9579160200282015b828111156137f9578251825591602001919060010190613829565b5b808211156138055760008155600101613845565b6000806000806080858703121561386f57600080fd5b843563ffffffff8116811461388357600080fd5b9350602085013567ffffffffffffffff811681146138a057600080fd5b925060408501359150606085013561ffff811681146138be57600080fd5b939692955090935050565b6000602082840312156138db57600080fd5b5035919050565b634e487b7160e01b600052604160045260246000fd5b604051601f8201601f1916810167ffffffffffffffff81118282101715613921576139216138e2565b604052919050565b600067ffffffffffffffff821115613943576139436138e2565b5060051b60200190565b600082601f83011261395e57600080fd5b8135602061397361396e83613929565b6138f8565b82815260059290921b8401810191818101908684111561399257600080fd5b8286015b848110156139ad5780358352918301918301613996565b509695505050505050565b600080604083850312156139cb57600080fd5b82359150602083013567ffffffffffffffff8111156139e957600080fd5b6139f58582860161394d565b9150509250929050565b80356001600160a01b0381168114613a1657600080fd5b919050565b600060208284031215613a2d57600080fd5b613776826139ff565b600082601f830112613a4757600080fd5b813567ffffffffffffffff811115613a6157613a616138e2565b613a746020601f19601f840116016138f8565b818152846020838601011115613a8957600080fd5b816020850160208301376000918101602001919091529392505050565b60008060408385031215613ab957600080fd5b613ac2836139ff565b9150602083013567ffffffffffffffff811115613ade57600080fd5b6139f585828601613a36565b803560058110613a1657600080fd5b60008060008060808587031215613b0f57600080fd5b613b1885613aea565b93506020850135925060408501359150606085013567ffffffffffffffff811115613b4257600080fd5b613b4e8782880161394d565b91505092959194509250565b634e487b7160e01b600052602160045260246000fd5b60058110613b8057613b80613b5a565b9052565b60006020808301818452808551808352604092508286019150828160051b8701018488016000805b84811015613c51577fffffffffffffffffffffffffffffffffffffffffffffffffffffffffffffffc08a850301865282516080808601613bed878451613b70565b828b0151878c0152898301518a880152606092830151928701919091528151908190529089019060a086019084905b80821015613c3c5783518352928b0192918b019160019190910190613c1c565b50509689019694505091870191600101613bac565b50919998505050505050505050565b60008060408385031215613c7357600080fd5b8235915060208084013567ffffffffffffffff80821115613c9357600080fd5b818601915086601f830112613ca757600080fd5b8135613cb561396e82613929565b81815260059190911b83018401908481019089831115613cd457600080fd5b8585015b83811015613d0c57803585811115613cf05760008081fd5b613cfe8c89838a0101613a36565b845250918601918601613cd8565b508096505050505050509250929050565b60c08101818360005b6006811015613d4e5781516001600160a01b0316835260209283019290910190600101613d26565b50505092915050565b600080600080600060a08688031215613d6f57600080fd5b613d78866139ff565b9450613d86602087016139ff565b9350613d94604087016139ff565b9250613da2606087016139ff565b9150613db0608087016139ff565b90509295509295909350565b60008060408385031215613dcf57600080fd5b613dd8836139ff565b946020939093013593505050565b6020810160048310613dfa57613dfa613b5a565b91905290565b600082601f830112613e1157600080fd5b81356020613e2161396e83613929565b82815260059290921b84018101918181019086841115613e4057600080fd5b8286015b848110156139ad57803567ffffffffffffffff811115613e645760008081fd5b613e728986838b010161394d565b845250918301918301613e44565b60008060008060808587031215613e9657600080fd5b843567ffffffffffffffff80821115613eae57600080fd5b818701915087601f830112613ec257600080fd5b81356020613ed261396e83613929565b82815260059290921b8401810191818101908b841115613ef157600080fd5b948201945b83861015613f1657613f0786613aea565b82529482019490820190613ef6565b98505088013592505080821115613f2c57600080fd5b613f388883890161394d565b94506040870135915080821115613f4e57600080fd5b613f5a8883890161394d565b93506060870135915080821115613f7057600080fd5b50613b4e87828801613e00565b803560ff81168114613a1657600080fd5b600080600060608486031215613fa357600080fd5b833567ffffffffffffffff811115613fba57600080fd5b8401601f81018613613fcb57600080fd5b80356020613fdb61396e83613929565b82815260059290921b83018101918181019089841115613ffa57600080fd5b938201935b8385101561401f57614010856139ff565b82529382019390820190613fff565b965061402e9050878201613f7d565b945050505061403f604085016139ff565b90509250925092565b634e487b7160e01b600052603160045260246000fd5b634e487b7160e01b600052601160045260246000fd5b60006000198214156140885761408861405e565b5060010190565b600060ff821660ff8114156140a6576140a661405e565b60010192915050565b634e487b7160e01b600052603260045260246000fd5b6000828210156140d7576140d761405e565b500390565b600082198211156140ef576140ef61405e565b500190565b6000604082018483526020604081850152818551808452606086019150828701935060005b8181101561413557845183529383019391830191600101614119565b5090979650505050505050565b60006020828403121561415457600080fd5b5051919050565b60006020828403121561416d57600080fd5b8151801515811461377657600080fd5b6001600160a01b03841681526060810161419a6020830185613b70565b826040830152949350505050565b6000826141c557634e487b7160e01b600052601260045260246000fd5b500690565b60005b838110156141e55781810151838201526020016141cd565b83811115610fed5750506000910152565b600082516142088184602087016141ca565b9190910192915050565b60208152600082518060208401526142318160408501602087016141ca565b601f01601f1916919091016040019291505056fe416464726573733a206c6f772d6c6576656c2064656c65676174652063616c6c206661696c6564a26469706673582212200b73fcd0fcc08086c77b0b05d864a4d572b65cdd4ad5c22783c985ba562b99e864736f6c63430008090033",
  "devdoc": {
    "kind": "dev",
    "methods": {
      "proxiableUUID()": {
        "details": "Implementation of the ERC1822 {proxiableUUID} function. This returns the storage slot used by the implementation. It is used to validate that the this implementation remains valid after an upgrade. IMPORTANT: A proxy pointing at a proxiable contract should not be considered proxiable itself, because this risks bricking a proxy that upgrades to it, by delegating to itself until out of gas. Thus it is critical that this function revert if invoked through a proxy. This is guaranteed by the `notDelegated` modifier."
      },
      "transferOwnership(address)": {
        "details": "Transfers ownership of the contract to a new account (`newOwner`). Can only be called by the current owner."
      },
      "upgradeTo(address)": {
        "details": "Upgrade the implementation of the proxy to `newImplementation`. Calls {_authorizeUpgrade}. Emits an {Upgraded} event."
      },
      "upgradeToAndCall(address,bytes)": {
        "details": "Upgrade the implementation of the proxy to `newImplementation`, and subsequently execute the function call encoded in `data`. Calls {_authorizeUpgrade}. Emits an {Upgraded} event."
      }
    },
    "version": 1
  },
  "userdoc": {
    "kind": "user",
    "methods": {},
    "version": 1
  },
  "storageLayout": {
    "storage": [
      {
        "astId": 549,
        "contract": "contracts/DrawingGame/RaffleBag.sol:RaffleBag",
        "label": "_initialized",
        "offset": 0,
        "slot": "0",
        "type": "t_uint8"
      },
      {
        "astId": 552,
        "contract": "contracts/DrawingGame/RaffleBag.sol:RaffleBag",
        "label": "_initializing",
        "offset": 1,
        "slot": "0",
        "type": "t_bool"
      },
      {
        "astId": 531,
        "contract": "contracts/DrawingGame/RaffleBag.sol:RaffleBag",
        "label": "__gap",
        "offset": 0,
        "slot": "1",
        "type": "t_array(t_uint256)50_storage"
      },
      {
        "astId": 828,
        "contract": "contracts/DrawingGame/RaffleBag.sol:RaffleBag",
        "label": "__gap",
        "offset": 0,
        "slot": "51",
        "type": "t_array(t_uint256)50_storage"
      },
      {
        "astId": 2561,
        "contract": "contracts/DrawingGame/RaffleBag.sol:RaffleBag",
        "label": "__gap",
        "offset": 0,
        "slot": "101",
        "type": "t_array(t_uint256)50_storage"
      },
      {
        "astId": 6849,
        "contract": "contracts/DrawingGame/RaffleBag.sol:RaffleBag",
        "label": "_owners",
        "offset": 0,
        "slot": "151",
        "type": "t_array(t_address)6_storage"
      },
      {
        "astId": 6853,
        "contract": "contracts/DrawingGame/RaffleBag.sol:RaffleBag",
        "label": "_ownersIndex",
        "offset": 0,
        "slot": "157",
        "type": "t_mapping(t_address,t_uint8)"
      },
      {
        "astId": 6855,
        "contract": "contracts/DrawingGame/RaffleBag.sol:RaffleBag",
        "label": "_numOwners",
        "offset": 0,
        "slot": "158",
        "type": "t_uint8"
      },
      {
        "astId": 6860,
        "contract": "contracts/DrawingGame/RaffleBag.sol:RaffleBag",
        "label": "signRequired",
        "offset": 1,
        "slot": "158",
        "type": "t_uint8"
      },
      {
        "astId": 6865,
        "contract": "contracts/DrawingGame/RaffleBag.sol:RaffleBag",
        "label": "operationsStatus",
        "offset": 0,
        "slot": "159",
        "type": "t_mapping(t_bytes32,t_enum(OpStatus)6845)"
      },
      {
        "astId": 6867,
        "contract": "contracts/DrawingGame/RaffleBag.sol:RaffleBag",
        "label": "nonce",
        "offset": 0,
        "slot": "160",
        "type": "t_uint256"
      },
      {
        "astId": 9649,
        "contract": "contracts/DrawingGame/RaffleBag.sol:RaffleBag",
        "label": "vrfCoordinator",
        "offset": 0,
        "slot": "161",
        "type": "t_address"
      },
      {
        "astId": 11836,
        "contract": "contracts/DrawingGame/RaffleBag.sol:RaffleBag",
        "label": "spender",
        "offset": 0,
        "slot": "162",
        "type": "t_address"
      },
      {
        "astId": 11839,
        "contract": "contracts/DrawingGame/RaffleBag.sol:RaffleBag",
        "label": "ERC20Token",
        "offset": 0,
        "slot": "163",
        "type": "t_contract(IERC20)3681"
      },
      {
        "astId": 11842,
        "contract": "contracts/DrawingGame/RaffleBag.sol:RaffleBag",
        "label": "ACard",
        "offset": 0,
        "slot": "164",
        "type": "t_contract(IERC721Upgradeable)2250"
      },
      {
        "astId": 11845,
        "contract": "contracts/DrawingGame/RaffleBag.sol:RaffleBag",
        "label": "BCard",
        "offset": 0,
        "slot": "165",
        "type": "t_contract(IERC721Upgradeable)2250"
      },
      {
        "astId": 11848,
        "contract": "contracts/DrawingGame/RaffleBag.sol:RaffleBag",
        "label": "CCard",
        "offset": 0,
        "slot": "166",
        "type": "t_contract(IERC721Upgradeable)2250"
      },
      {
        "astId": 11850,
        "contract": "contracts/DrawingGame/RaffleBag.sol:RaffleBag",
        "label": "DOMAIN",
        "offset": 0,
        "slot": "167",
        "type": "t_bytes32"
      },
      {
        "astId": 11871,
        "contract": "contracts/DrawingGame/RaffleBag.sol:RaffleBag",
        "label": "prizePool",
        "offset": 0,
        "slot": "168",
        "type": "t_array(t_struct(Prize)11867_storage)dyn_storage"
      },
      {
        "astId": 11873,
        "contract": "contracts/DrawingGame/RaffleBag.sol:RaffleBag",
        "label": "subscriptionId",
        "offset": 0,
        "slot": "169",
        "type": "t_uint64"
      },
      {
        "astId": 11876,
        "contract": "contracts/DrawingGame/RaffleBag.sol:RaffleBag",
        "label": "COORDINATOR",
        "offset": 8,
        "slot": "169",
        "type": "t_contract(VRFCoordinatorV2Interface)153"
      },
      {
        "astId": 11878,
        "contract": "contracts/DrawingGame/RaffleBag.sol:RaffleBag",
        "label": "keyHash",
        "offset": 0,
        "slot": "170",
        "type": "t_bytes32"
      },
      {
        "astId": 11880,
        "contract": "contracts/DrawingGame/RaffleBag.sol:RaffleBag",
        "label": "callbackGasLimit",
        "offset": 0,
        "slot": "171",
        "type": "t_uint32"
      },
      {
        "astId": 11882,
        "contract": "contracts/DrawingGame/RaffleBag.sol:RaffleBag",
        "label": "requestConfirmations",
        "offset": 4,
        "slot": "171",
        "type": "t_uint16"
      },
      {
        "astId": 11896,
        "contract": "contracts/DrawingGame/RaffleBag.sol:RaffleBag",
        "label": "requests",
        "offset": 0,
        "slot": "172",
        "type": "t_mapping(t_uint256,t_struct(RequestStatus)11891_storage)"
      },
      {
        "astId": 11898,
        "contract": "contracts/DrawingGame/RaffleBag.sol:RaffleBag",
        "label": "locked",
        "offset": 0,
        "slot": "173",
        "type": "t_bool"
      }
    ],
    "types": {
      "t_address": {
        "encoding": "inplace",
        "label": "address",
        "numberOfBytes": "20"
      },
      "t_array(t_address)6_storage": {
        "base": "t_address",
        "encoding": "inplace",
        "label": "address[6]",
        "numberOfBytes": "192"
      },
      "t_array(t_struct(Prize)11867_storage)dyn_storage": {
        "base": "t_struct(Prize)11867_storage",
        "encoding": "dynamic_array",
        "label": "struct RaffleBag.Prize[]",
        "numberOfBytes": "32"
      },
      "t_array(t_uint256)50_storage": {
        "base": "t_uint256",
        "encoding": "inplace",
        "label": "uint256[50]",
        "numberOfBytes": "1600"
      },
      "t_array(t_uint256)dyn_storage": {
        "base": "t_uint256",
        "encoding": "dynamic_array",
        "label": "uint256[]",
        "numberOfBytes": "32"
      },
      "t_bool": {
        "encoding": "inplace",
        "label": "bool",
        "numberOfBytes": "1"
      },
      "t_bytes32": {
        "encoding": "inplace",
        "label": "bytes32",
        "numberOfBytes": "32"
      },
      "t_contract(IERC20)3681": {
        "encoding": "inplace",
        "label": "contract IERC20",
        "numberOfBytes": "20"
      },
      "t_contract(IERC721Upgradeable)2250": {
        "encoding": "inplace",
        "label": "contract IERC721Upgradeable",
        "numberOfBytes": "20"
      },
      "t_contract(VRFCoordinatorV2Interface)153": {
        "encoding": "inplace",
        "label": "contract VRFCoordinatorV2Interface",
        "numberOfBytes": "20"
      },
      "t_enum(OpStatus)6845": {
        "encoding": "inplace",
        "label": "enum SafeOwnableUpgradeable.OpStatus",
        "numberOfBytes": "1"
      },
      "t_enum(PrizeKind)11856": {
        "encoding": "inplace",
        "label": "enum RaffleBag.PrizeKind",
        "numberOfBytes": "1"
      },
      "t_mapping(t_address,t_uint8)": {
        "encoding": "mapping",
        "key": "t_address",
        "label": "mapping(address => uint8)",
        "numberOfBytes": "32",
        "value": "t_uint8"
      },
      "t_mapping(t_bytes32,t_enum(OpStatus)6845)": {
        "encoding": "mapping",
        "key": "t_bytes32",
        "label": "mapping(bytes32 => enum SafeOwnableUpgradeable.OpStatus)",
        "numberOfBytes": "32",
        "value": "t_enum(OpStatus)6845"
      },
      "t_mapping(t_uint256,t_struct(RequestStatus)11891_storage)": {
        "encoding": "mapping",
        "key": "t_uint256",
        "label": "mapping(uint256 => struct RaffleBag.RequestStatus)",
        "numberOfBytes": "32",
        "value": "t_struct(RequestStatus)11891_storage"
      },
      "t_struct(Prize)11867_storage": {
        "encoding": "inplace",
        "label": "struct RaffleBag.Prize",
        "members": [
          {
            "astId": 11859,
            "contract": "contracts/DrawingGame/RaffleBag.sol:RaffleBag",
            "label": "prizeKind",
            "offset": 0,
            "slot": "0",
            "type": "t_enum(PrizeKind)11856"
          },
          {
            "astId": 11861,
            "contract": "contracts/DrawingGame/RaffleBag.sol:RaffleBag",
            "label": "amount",
            "offset": 0,
            "slot": "1",
            "type": "t_uint256"
          },
          {
            "astId": 11863,
            "contract": "contracts/DrawingGame/RaffleBag.sol:RaffleBag",
            "label": "weight",
            "offset": 0,
            "slot": "2",
            "type": "t_uint256"
          },
          {
            "astId": 11866,
            "contract": "contracts/DrawingGame/RaffleBag.sol:RaffleBag",
            "label": "tokens",
            "offset": 0,
            "slot": "3",
            "type": "t_array(t_uint256)dyn_storage"
          }
        ],
        "numberOfBytes": "128"
      },
      "t_struct(RequestStatus)11891_storage": {
        "encoding": "inplace",
        "label": "struct RaffleBag.RequestStatus",
        "members": [
          {
            "astId": 11884,
            "contract": "contracts/DrawingGame/RaffleBag.sol:RaffleBag",
            "label": "user",
            "offset": 0,
            "slot": "0",
            "type": "t_address"
          },
          {
            "astId": 11886,
            "contract": "contracts/DrawingGame/RaffleBag.sol:RaffleBag",
            "label": "randomWord",
            "offset": 0,
            "slot": "1",
            "type": "t_uint256"
          },
          {
            "astId": 11888,
            "contract": "contracts/DrawingGame/RaffleBag.sol:RaffleBag",
            "label": "fulfilled",
            "offset": 0,
            "slot": "2",
            "type": "t_bool"
          },
          {
            "astId": 11890,
            "contract": "contracts/DrawingGame/RaffleBag.sol:RaffleBag",
            "label": "exists",
            "offset": 1,
            "slot": "2",
            "type": "t_bool"
          }
        ],
        "numberOfBytes": "96"
      },
      "t_uint16": {
        "encoding": "inplace",
        "label": "uint16",
        "numberOfBytes": "2"
      },
      "t_uint256": {
        "encoding": "inplace",
        "label": "uint256",
        "numberOfBytes": "32"
      },
      "t_uint32": {
        "encoding": "inplace",
        "label": "uint32",
        "numberOfBytes": "4"
      },
      "t_uint64": {
        "encoding": "inplace",
        "label": "uint64",
        "numberOfBytes": "8"
      },
      "t_uint8": {
        "encoding": "inplace",
        "label": "uint8",
        "numberOfBytes": "1"
      }
    }
  }
}