{
  "address": "0xb443E36Df12703d129E0a14233658e32c6c9F6a9",
  "abi": [
    {
      "inputs": [
        {
          "internalType": "address",
          "name": "have",
          "type": "address"
        },
        {
          "internalType": "address",
          "name": "want",
          "type": "address"
        }
      ],
      "name": "OnlyCoordinatorCanFulfill",
      "type": "error"
    },
    {
      "anonymous": false,
      "inputs": [
        {
          "indexed": false,
          "internalType": "address",
          "name": "previousAdmin",
          "type": "address"
        },
        {
          "indexed": false,
          "internalType": "address",
          "name": "newAdmin",
          "type": "address"
        }
      ],
      "name": "AdminChanged",
      "type": "event"
    },
    {
      "anonymous": false,
      "inputs": [
        {
          "indexed": true,
          "internalType": "address",
          "name": "beacon",
          "type": "address"
        }
      ],
      "name": "BeaconUpgraded",
      "type": "event"
    },
    {
      "anonymous": false,
      "inputs": [
        {
          "indexed": true,
          "internalType": "address",
          "name": "from",
          "type": "address"
        },
        {
          "indexed": false,
          "internalType": "address[]",
          "name": "winners",
          "type": "address[]"
        },
        {
          "indexed": false,
          "internalType": "address[]",
          "name": "contactAddressList",
          "type": "address[]"
        },
        {
          "indexed": false,
          "internalType": "uint256[]",
          "name": "tokenIdList",
          "type": "uint256[]"
        }
      ],
      "name": "Draw",
      "type": "event"
    },
    {
      "anonymous": false,
      "inputs": [
        {
          "indexed": false,
          "internalType": "uint8",
          "name": "version",
          "type": "uint8"
        }
      ],
      "name": "Initialized",
      "type": "event"
    },
    {
      "anonymous": false,
      "inputs": [
        {
          "indexed": true,
          "internalType": "bytes32",
          "name": "opHash",
          "type": "bytes32"
        }
      ],
      "name": "OperationAdded",
      "type": "event"
    },
    {
      "anonymous": false,
      "inputs": [
        {
          "indexed": true,
          "internalType": "address",
          "name": "previousOwner",
          "type": "address"
        },
        {
          "indexed": true,
          "internalType": "address",
          "name": "newOwner",
          "type": "address"
        }
      ],
      "name": "OwnershipTransferred",
      "type": "event"
    },
    {
      "anonymous": false,
      "inputs": [
        {
          "indexed": false,
          "internalType": "uint256",
          "name": "requestId",
          "type": "uint256"
        },
        {
          "indexed": false,
          "internalType": "uint256[]",
          "name": "randomWords",
          "type": "uint256[]"
        }
      ],
      "name": "RequestFulfilled",
      "type": "event"
    },
    {
      "anonymous": false,
      "inputs": [
        {
          "indexed": false,
          "internalType": "uint256",
          "name": "requestId",
          "type": "uint256"
        },
        {
          "indexed": false,
          "internalType": "uint32",
          "name": "numWords",
          "type": "uint32"
        }
      ],
      "name": "RequestSent",
      "type": "event"
    },
    {
      "anonymous": false,
      "inputs": [
        {
          "indexed": true,
          "internalType": "address",
          "name": "from",
          "type": "address"
        },
        {
          "indexed": false,
          "internalType": "address",
          "name": "contractAddress",
          "type": "address"
        },
        {
          "indexed": false,
          "internalType": "uint256",
          "name": "tokenId",
          "type": "uint256"
        }
      ],
      "name": "TakeOutNFT",
      "type": "event"
    },
    {
      "anonymous": false,
      "inputs": [
        {
          "indexed": true,
          "internalType": "address",
          "name": "implementation",
          "type": "address"
        }
      ],
      "name": "Upgraded",
      "type": "event"
    },
    {
      "inputs": [
        {
          "internalType": "bytes32",
          "name": "opHash",
          "type": "bytes32"
        },
        {
          "internalType": "bytes[]",
          "name": "sigs",
          "type": "bytes[]"
        }
      ],
      "name": "AddOpHashToPending",
      "outputs": [],
      "stateMutability": "nonpayable",
      "type": "function"
    },
    {
      "inputs": [],
      "name": "DOMAIN",
      "outputs": [
        {
          "internalType": "bytes32",
          "name": "",
          "type": "bytes32"
        }
      ],
      "stateMutability": "view",
      "type": "function"
    },
    {
      "inputs": [],
      "name": "SECONDS_FOR_DAY",
      "outputs": [
        {
          "internalType": "uint256",
          "name": "",
          "type": "uint256"
        }
      ],
      "stateMutability": "view",
      "type": "function"
    },
    {
      "inputs": [],
      "name": "SECONDS_FOR_WEEK",
      "outputs": [
        {
          "internalType": "uint256",
          "name": "",
          "type": "uint256"
        }
      ],
      "stateMutability": "view",
      "type": "function"
    },
    {
      "inputs": [
        {
          "internalType": "address",
          "name": "",
          "type": "address"
        }
      ],
      "name": "addressWeightMap",
      "outputs": [
        {
          "internalType": "uint256",
          "name": "",
          "type": "uint256"
        }
      ],
      "stateMutability": "view",
      "type": "function"
    },
    {
      "inputs": [],
      "name": "callbackGasLimit",
      "outputs": [
        {
          "internalType": "uint32",
          "name": "",
          "type": "uint32"
        }
      ],
      "stateMutability": "view",
      "type": "function"
    },
    {
      "inputs": [
        {
          "internalType": "address[]",
          "name": "contractAddresses",
          "type": "address[]"
        },
        {
          "internalType": "uint256[]",
          "name": "tokenIds",
          "type": "uint256[]"
        }
      ],
      "name": "depositNFTs",
      "outputs": [],
      "stateMutability": "nonpayable",
      "type": "function"
    },
    {
      "inputs": [],
      "name": "distributedNFTs",
      "outputs": [
        {
          "internalType": "uint256",
          "name": "",
          "type": "uint256"
        }
      ],
      "stateMutability": "view",
      "type": "function"
    },
    {
      "inputs": [],
      "name": "drawRounds",
      "outputs": [
        {
          "internalType": "uint256",
          "name": "",
          "type": "uint256"
        }
      ],
      "stateMutability": "view",
      "type": "function"
    },
    {
      "inputs": [],
      "name": "endTime",
      "outputs": [
        {
          "internalType": "uint256",
          "name": "",
          "type": "uint256"
        }
      ],
      "stateMutability": "view",
      "type": "function"
    },
    {
      "inputs": [],
      "name": "getCurrentTime",
      "outputs": [
        {
          "internalType": "uint256",
          "name": "",
          "type": "uint256"
        }
      ],
      "stateMutability": "view",
      "type": "function"
    },
    {
      "inputs": [],
      "name": "getTotalNFT",
      "outputs": [
        {
          "internalType": "uint256",
          "name": "",
          "type": "uint256"
        }
      ],
      "stateMutability": "view",
      "type": "function"
    },
    {
      "inputs": [
        {
          "internalType": "address[]",
          "name": "owners",
          "type": "address[]"
        },
        {
          "internalType": "uint8",
          "name": "signRequred",
          "type": "uint8"
        },
        {
          "internalType": "address",
          "name": "vrfCoordinatorAddress_",
          "type": "address"
        }
      ],
      "name": "initialize",
      "outputs": [],
      "stateMutability": "nonpayable",
      "type": "function"
    },
    {
      "inputs": [],
      "name": "investmentAddress",
      "outputs": [
        {
          "internalType": "address",
          "name": "",
          "type": "address"
        }
      ],
      "stateMutability": "view",
      "type": "function"
    },
    {
      "inputs": [],
      "name": "keyHash",
      "outputs": [
        {
          "internalType": "bytes32",
          "name": "",
          "type": "bytes32"
        }
      ],
      "stateMutability": "view",
      "type": "function"
    },
    {
      "inputs": [],
      "name": "lastRequestId",
      "outputs": [
        {
          "internalType": "uint256",
          "name": "",
          "type": "uint256"
        }
      ],
      "stateMutability": "view",
      "type": "function"
    },
    {
      "inputs": [],
      "name": "maxNumOwners",
      "outputs": [
        {
          "internalType": "uint8",
          "name": "",
          "type": "uint8"
        }
      ],
      "stateMutability": "view",
      "type": "function"
    },
    {
      "inputs": [
        {
          "internalType": "uint256",
          "name": "",
          "type": "uint256"
        }
      ],
      "name": "nfts",
      "outputs": [
        {
          "internalType": "address",
          "name": "contractAddress",
          "type": "address"
        },
        {
          "internalType": "uint256",
          "name": "tokenId",
          "type": "uint256"
        }
      ],
      "stateMutability": "view",
      "type": "function"
    },
    {
      "inputs": [],
      "name": "nonce",
      "outputs": [
        {
          "internalType": "uint256",
          "name": "",
          "type": "uint256"
        }
      ],
      "stateMutability": "view",
      "type": "function"
    },
    {
      "inputs": [
        {
          "internalType": "bytes32",
          "name": "",
          "type": "bytes32"
        }
      ],
      "name": "operationsStatus",
      "outputs": [
        {
          "internalType": "enum SafeOwnableUpgradeable.OpStatus",
          "name": "",
          "type": "uint8"
        }
      ],
      "stateMutability": "view",
      "type": "function"
    },
    {
      "inputs": [],
      "name": "owners",
      "outputs": [
        {
          "internalType": "address[6]",
          "name": "",
          "type": "address[6]"
        }
      ],
      "stateMutability": "view",
      "type": "function"
    },
    {
      "inputs": [],
      "name": "proxiableUUID",
      "outputs": [
        {
          "internalType": "bytes32",
          "name": "",
          "type": "bytes32"
        }
      ],
      "stateMutability": "view",
      "type": "function"
    },
    {
      "inputs": [
        {
          "internalType": "uint256",
          "name": "requestId",
          "type": "uint256"
        },
        {
          "internalType": "uint256[]",
          "name": "randomWords",
          "type": "uint256[]"
        }
      ],
      "name": "rawFulfillRandomWords",
      "outputs": [],
      "stateMutability": "nonpayable",
      "type": "function"
    },
    {
      "inputs": [
        {
          "internalType": "uint32",
          "name": "numWords",
          "type": "uint32"
        }
      ],
      "name": "requestRandomWordsForDraw",
      "outputs": [
        {
          "internalType": "uint256",
          "name": "requestId",
          "type": "uint256"
        }
      ],
      "stateMutability": "nonpayable",
      "type": "function"
    },
    {
      "inputs": [
        {
          "internalType": "uint256",
          "name": "",
          "type": "uint256"
        }
      ],
      "name": "requests",
      "outputs": [
        {
          "internalType": "bool",
          "name": "fulfilled",
          "type": "bool"
        },
        {
          "internalType": "bool",
          "name": "exists",
          "type": "bool"
        }
      ],
      "stateMutability": "view",
      "type": "function"
    },
    {
      "inputs": [
        {
          "internalType": "uint32",
          "name": "callbackGasLimit_",
          "type": "uint32"
        },
        {
          "internalType": "uint64",
          "name": "subscribeId_",
          "type": "uint64"
        },
        {
          "internalType": "bytes32",
          "name": "keyHash_",
          "type": "bytes32"
        },
        {
          "internalType": "uint16",
          "name": "requestConfirmations_",
          "type": "uint16"
        }
      ],
      "name": "setChainlink",
      "outputs": [],
      "stateMutability": "nonpayable",
      "type": "function"
    },
    {
      "inputs": [
        {
          "internalType": "uint256",
          "name": "timestamp_",
          "type": "uint256"
        }
      ],
      "name": "setCurrentTime",
      "outputs": [],
      "stateMutability": "nonpayable",
      "type": "function"
    },
    {
      "inputs": [
        {
          "internalType": "uint256",
          "name": "endTime_",
          "type": "uint256"
        }
      ],
      "name": "setEndTime",
      "outputs": [],
      "stateMutability": "nonpayable",
      "type": "function"
    },
    {
      "inputs": [
        {
          "internalType": "address",
          "name": "investmentAddress_",
          "type": "address"
        }
      ],
      "name": "setInvestment",
      "outputs": [],
      "stateMutability": "nonpayable",
      "type": "function"
    },
    {
      "inputs": [
        {
          "internalType": "uint256",
          "name": "startTime_",
          "type": "uint256"
        }
      ],
      "name": "setStartTime",
      "outputs": [],
      "stateMutability": "nonpayable",
      "type": "function"
    },
    {
      "inputs": [],
      "name": "signRequired",
      "outputs": [
        {
          "internalType": "uint8",
          "name": "",
          "type": "uint8"
        }
      ],
      "stateMutability": "view",
      "type": "function"
    },
    {
      "inputs": [],
      "name": "startTime",
      "outputs": [
        {
          "internalType": "uint256",
          "name": "",
          "type": "uint256"
        }
      ],
      "stateMutability": "view",
      "type": "function"
    },
    {
      "inputs": [],
      "name": "subscriptionId",
      "outputs": [
        {
          "internalType": "uint64",
          "name": "",
          "type": "uint64"
        }
      ],
      "stateMutability": "view",
      "type": "function"
    },
    {
      "inputs": [
        {
          "internalType": "address",
          "name": "newOwner",
          "type": "address"
        }
      ],
      "name": "transferOwnership",
      "outputs": [],
      "stateMutability": "nonpayable",
      "type": "function"
    },
    {
      "inputs": [
        {
          "internalType": "address",
          "name": "newImplementation",
          "type": "address"
        }
      ],
      "name": "upgradeTo",
      "outputs": [],
      "stateMutability": "nonpayable",
      "type": "function"
    },
    {
      "inputs": [
        {
          "internalType": "address",
          "name": "newImplementation",
          "type": "address"
        },
        {
          "internalType": "bytes",
          "name": "data",
          "type": "bytes"
        }
      ],
      "name": "upgradeToAndCall",
      "outputs": [],
      "stateMutability": "payable",
      "type": "function"
    },
    {
      "inputs": [
        {
          "internalType": "uint256",
          "name": "amount",
          "type": "uint256"
        },
        {
          "internalType": "address",
          "name": "recipient",
          "type": "address"
        }
      ],
      "name": "withdrawNFTs",
      "outputs": [],
      "stateMutability": "nonpayable",
      "type": "function"
    },
    {
      "inputs": [
        {
          "internalType": "address",
          "name": "",
          "type": "address"
        }
      ],
      "name": "won",
      "outputs": [
        {
          "internalType": "bool",
          "name": "",
          "type": "bool"
        }
      ],
      "stateMutability": "view",
      "type": "function"
    },
    {
      "inputs": [
        {
          "internalType": "address",
          "name": "",
          "type": "address"
        }
      ],
      "name": "wonNFT",
      "outputs": [
        {
          "internalType": "address",
          "name": "contractAddress",
          "type": "address"
        },
        {
          "internalType": "uint256",
          "name": "tokenId",
          "type": "uint256"
        }
      ],
      "stateMutability": "view",
      "type": "function"
    }
  ],
  "numDeployments": 1,
  "solcInputHash": "7c7d7e39072746e2a44bbdf07d1b0a55",
  "bytecode": "0x60a06040523060805234801561001457600080fd5b5060805161402461004c60003960008181610c9801528181610d2e01528181610f2501528181610fbb01526110b201526140246000f3fe6080604052600436106102a05760003560e01c806378e979251161016e578063d26e7865116100cb578063f256e84f1161007f578063f781cab011610064578063f781cab0146107d3578063f8c12031146107ea578063fc2a88c31461080157600080fd5b8063f256e84f14610773578063f2fde38b146107b357600080fd5b8063d8ddc1a0116100b0578063d8ddc1a014610727578063e2c8cdc61461073d578063eb53a0571461075357600080fd5b8063d26e7865146106e7578063d8c126af1461070757600080fd5b8063affed0e011610122578063bcf16f2d11610107578063bcf16f2d14610675578063ccb98ffc1461068a578063ce0d0ca0146106aa57600080fd5b8063affed0e01461063f578063b6e578dc1461065557600080fd5b806381d12c581161015357806381d12c58146105ad5780638b5a2143146105fd578063affe39c11461061d57600080fd5b806378e97925146105785780637a29349d1461058e57600080fd5b80633197cbb61161021c57806352a9674b116101d057806353030d91116101b557806353030d91146104ea57806361728f391461052257806371ee1aba1461053857600080fd5b806352a9674b146104bf57806352d1902d146104d557600080fd5b80633659cfe6116102015780633659cfe61461046c5780633e0a322d1461048c5780634f1ef286146104ac57600080fd5b80633197cbb6146104365780633286cd871461044c57600080fd5b80631fe543e31161027357806324f746971161025857806324f74697146103b0578063265aa621146103e257806329cb924d1461042157600080fd5b80631fe543e31461037057806322f8e5661461039057600080fd5b806309c1ba2e146102a55780630c3515ba146102ec5780630c81df01146103135780631e2ab10f14610335575b600080fd5b3480156102b157600080fd5b5060b0546102ce90640100000000900467ffffffffffffffff1681565b60405167ffffffffffffffff90911681526020015b60405180910390f35b3480156102f857600080fd5b50610301600581565b60405160ff90911681526020016102e3565b34801561031f57600080fd5b5061033361032e366004613767565b610817565b005b34801561034157600080fd5b506103626103503660046137e1565b60aa6020526000908152604090205481565b6040519081526020016102e3565b34801561037c57600080fd5b5061033361038b3660046138fd565b610926565b34801561039c57600080fd5b506103336103ab366004613944565b61098d565b3480156103bc57600080fd5b5060b0546103cd9063ffffffff1681565b60405163ffffffff90911681526020016102e3565b3480156103ee57600080fd5b506104026103fd366004613944565b610a11565b604080516001600160a01b0390931683526020830191909152016102e3565b34801561042d57600080fd5b50610362610a49565b34801561044257600080fd5b5061036260ac5481565b34801561045857600080fd5b5061033361046736600461395d565b610a5a565b34801561047857600080fd5b506103336104873660046137e1565b610c8d565b34801561049857600080fd5b506103336104a7366004613944565b610e28565b6103336104ba3660046139fd565b610f1a565b3480156104cb57600080fd5b5061036260a35481565b3480156104e157600080fd5b506103626110a5565b3480156104f657600080fd5b5060a25461050a906001600160a01b031681565b6040516001600160a01b0390911681526020016102e3565b34801561052e57600080fd5b5061036260af5481565b34801561054457600080fd5b506105686105533660046137e1565b60a56020526000908152604090205460ff1681565b60405190151581526020016102e3565b34801561058457600080fd5b5061036260ab5481565b34801561059a57600080fd5b50609e5461030190610100900460ff1681565b3480156105b957600080fd5b506105e66105c8366004613944565b60b26020526000908152604090205460ff8082169161010090041682565b6040805192151583529015156020830152016102e3565b34801561060957600080fd5b50610333610618366004613a43565b61116a565b34801561062957600080fd5b50610632611499565b6040516102e39190613b00565b34801561064b57600080fd5b5061036260a05481565b34801561066157600080fd5b50610362610670366004613b3a565b6114de565b34801561068157600080fd5b5060a654610362565b34801561069657600080fd5b506103336106a5366004613944565b6117d4565b3480156106b657600080fd5b506106da6106c5366004613944565b609f6020526000908152604090205460ff1681565b6040516102e39190613b6b565b3480156106f357600080fd5b506103336107023660046137e1565b611865565b34801561071357600080fd5b50610333610722366004613bf7565b61190b565b34801561073357600080fd5b5061036260a85481565b34801561074957600080fd5b5061036260a95481565b34801561075f57600080fd5b5061033361076e366004613c60565b611c91565b34801561077f57600080fd5b5061040261078e3660046137e1565b60a460205260009081526040902080546001909101546001600160a01b039091169082565b3480156107bf57600080fd5b506103336107ce3660046137e1565b611e3d565b3480156107df57600080fd5b506103626201518081565b3480156107f657600080fd5b5061036262093a8081565b34801561080d57600080fd5b5061036260b15481565b336000908152609d602052604090205460ff166108935760405162461bcd60e51b815260206004820152602f60248201527f536166654f776e61626c655570677261646561626c653a2063616c6c6572206960448201526e39903737ba103a34329037bbb732b960891b60648201526084015b60405180910390fd5b60b0805460af9390935561ffff9091166c01000000000000000000000000027fffffffffffffffffffffffffffffffffffff0000ffffffffffffffffffffffff67ffffffffffffffff909416640100000000027fffffffffffffffffffffffffffffffffffffffff00000000000000000000000090931663ffffffff909516949094179190911791909116919091179055565b60a1546001600160a01b0316331461097f5760a1546040517f1cf993f40000000000000000000000000000000000000000000000000000000081523360048201526001600160a01b03909116602482015260440161088a565b6109898282611fc8565b5050565b336000908152609d602052604090205460ff16610a045760405162461bcd60e51b815260206004820152602f60248201527f536166654f776e61626c655570677261646561626c653a2063616c6c6572206960448201526e39903737ba103a34329037bbb732b960891b606482015260840161088a565b610a0e60ad829055565b50565b60a68181548110610a2157600080fd5b6000918252602090912060029091020180546001909101546001600160a01b03909116915082565b6000610a5560ad6120a3565b905090565b336000908152609d602052604090205460ff16610ad15760405162461bcd60e51b815260206004820152602f60248201527f536166654f776e61626c655570677261646561626c653a2063616c6c6572206960448201526e39903737ba103a34329037bbb732b960891b606482015260840161088a565b60a85460a65411610b245760405162461bcd60e51b815260206004820152601860248201527f44726177696e6747616d653a6e6f206e667473206c6566740000000000000000604482015260640161088a565b60005b60a85460a654118015610b3957508281105b15610c885760a6805460009190610b5290600190613cda565b81548110610b6257610b62613cf1565b60009182526020909120600290910201805460018201546040517f23b872dd0000000000000000000000000000000000000000000000000000000081523060048201526001600160a01b038781166024830152604482019290925292935016906323b872dd90606401600060405180830381600087803b158015610be557600080fd5b505af1158015610bf9573d6000803e3d6000fd5b5050505060a6805480610c0e57610c0e613d07565b60008281526020808220600260001990940193840201805473ffffffffffffffffffffffffffffffffffffffff1916815560019081018390559290935583546001600160a01b0316815260a783526040808220928501548252919092529020805460ff1916905581610c7f81613d1d565b92505050610b27565b505050565b306001600160a01b037f0000000000000000000000000000000000000000000000000000000000000000161415610d2c5760405162461bcd60e51b815260206004820152602c60248201527f46756e6374696f6e206d7573742062652063616c6c6564207468726f7567682060448201527f64656c656761746563616c6c0000000000000000000000000000000000000000606482015260840161088a565b7f00000000000000000000000000000000000000000000000000000000000000006001600160a01b0316610d877f360894a13ba1a3210667c828492db98dca3e2076cc3735a920a3ca505d382bbc546001600160a01b031690565b6001600160a01b031614610e035760405162461bcd60e51b815260206004820152602c60248201527f46756e6374696f6e206d7573742062652063616c6c6564207468726f7567682060448201527f6163746976652070726f78790000000000000000000000000000000000000000606482015260840161088a565b610e0c816120be565b60408051600080825260208201909252610a0e91839190612135565b336000908152609d602052604090205460ff16610e9f5760405162461bcd60e51b815260206004820152602f60248201527f536166654f776e61626c655570677261646561626c653a2063616c6c6572206960448201526e39903737ba103a34329037bbb732b960891b606482015260840161088a565b60ab5415610f155760405162461bcd60e51b815260206004820152602360248201527f44726177696e6747616d653a2073746172742074696d6520616c72656164792060448201527f7365740000000000000000000000000000000000000000000000000000000000606482015260840161088a565b60ab55565b306001600160a01b037f0000000000000000000000000000000000000000000000000000000000000000161415610fb95760405162461bcd60e51b815260206004820152602c60248201527f46756e6374696f6e206d7573742062652063616c6c6564207468726f7567682060448201527f64656c656761746563616c6c0000000000000000000000000000000000000000606482015260840161088a565b7f00000000000000000000000000000000000000000000000000000000000000006001600160a01b03166110147f360894a13ba1a3210667c828492db98dca3e2076cc3735a920a3ca505d382bbc546001600160a01b031690565b6001600160a01b0316146110905760405162461bcd60e51b815260206004820152602c60248201527f46756e6374696f6e206d7573742062652063616c6c6564207468726f7567682060448201527f6163746976652070726f78790000000000000000000000000000000000000000606482015260840161088a565b611099826120be565b61098982826001612135565b6000306001600160a01b037f000000000000000000000000000000000000000000000000000000000000000016146111455760405162461bcd60e51b815260206004820152603860248201527f555550535570677261646561626c653a206d757374206e6f742062652063616c60448201527f6c6564207468726f7567682064656c656761746563616c6c0000000000000000606482015260840161088a565b507f360894a13ba1a3210667c828492db98dca3e2076cc3735a920a3ca505d382bbc90565b818160006111766136d5565b336000908152609d602052604090205460ff16156111e1578161119881613d38565b925050600181609d60006111a93390565b6001600160a01b0316815260208101919091526040016000205460ff16600681106111d6576111d6613cf1565b911515602090920201525b60005b83518160ff161015611321576000611221858360ff168151811061120a5761120a613cf1565b6020026020010151876122e490919063ffffffff16565b6001600160a01b0381166000908152609d602052604090205490915060ff16806112b35760405162461bcd60e51b815260206004820152602b60248201527f536166654f776e61626c655570677261646561626c653a207369676e6572206960448201527f73206e6f74206f776e6572000000000000000000000000000000000000000000606482015260840161088a565b838160ff16600681106112c8576112c8613cf1565b60200201511515600114156112de57505061130f565b6001848260ff16600681106112f5576112f5613cf1565b911515602090920201528461130981613d38565b95505050505b8061131981613d38565b9150506111e4565b50609e5460ff610100909104811690831610156113a65760405162461bcd60e51b815260206004820152602a60248201527f536166654f776e61626c655570677261646561626c653a206e6f20656e6f756760448201527f6820636f6e6669726d7300000000000000000000000000000000000000000000606482015260840161088a565b60a080549060006113b683613d1d565b90915550506000868152609f602052604081205460ff1660038111156113de576113de613b55565b146114515760405162461bcd60e51b815260206004820152603760248201527f536166654f776e61626c655570677261646561626c653a206f7065726174696f60448201527f6e20776173206e6f74207375626d697474656420796574000000000000000000606482015260840161088a565b6000868152609f6020526040808220805460ff191660011790555187917f33775024b20f211f019e50305c897b2105edc4642384143897ac170fb37f54a191a2505050505050565b6114a16136d5565b6040805160c08101918290529060979060069082845b81546001600160a01b031681526001909101906020018083116114b7575050505050905090565b6000806114eb60ad6120a3565b9050600060ab54118015611500575060ab5481115b61154c5760405162461bcd60e51b815260206004820152601f60248201527f44726177696e6747616d653a206163746976697479206e6f7420737461727400604482015260640161088a565b60ac54811061159d5760405162461bcd60e51b815260206004820152601b60248201527f44726177696e6747616d653a20616374697669747920656e6465640000000000604482015260640161088a565b336000908152609d602052604090205460ff166116145760405162461bcd60e51b815260206004820152602f60248201527f536166654f776e61626c655570677261646561626c653a2063616c6c6572206960448201526e39903737ba103a34329037bbb732b960891b606482015260840161088a565b60ae5460af5460b0546040517f5d3b1d300000000000000000000000000000000000000000000000000000000081526004810192909252640100000000810467ffffffffffffffff1660248301526c01000000000000000000000000810461ffff16604483015263ffffffff9081166064830152851660848201526001600160a01b0390911690635d3b1d309060a401602060405180830381600087803b1580156116be57600080fd5b505af11580156116d2573d6000803e3d6000fd5b505050506040513d601f19601f820116820180604052508101906116f69190613d58565b604080516060810182526000808252600160208084018281528551848152808301875285870190815287855260b28352959093208451815494517fffffffffffffffffffffffffffffffffffffffffffffffffffffffffffff000090951690151561ff0019161761010094151594909402939093178355935180519597509294919361178893918501929101906136f3565b50505060b18290556040805183815263ffffffff851660208201527fcc58b13ad3eab50626c6a6300b1d139cd6ebb1688a7cced9461c2f7e762665ee910160405180910390a150919050565b336000908152609d602052604090205460ff1661184b5760405162461bcd60e51b815260206004820152602f60248201527f536166654f776e61626c655570677261646561626c653a2063616c6c6572206960448201526e39903737ba103a34329037bbb732b960891b606482015260840161088a565b61185560ad6120a3565b811161186057600080fd5b60ac55565b336000908152609d602052604090205460ff166118dc5760405162461bcd60e51b815260206004820152602f60248201527f536166654f776e61626c655570677261646561626c653a2063616c6c6572206960448201526e39903737ba103a34329037bbb732b960891b606482015260840161088a565b60a2805473ffffffffffffffffffffffffffffffffffffffff19166001600160a01b0392909216919091179055565b336000908152609d602052604090205460ff166119825760405162461bcd60e51b815260206004820152602f60248201527f536166654f776e61626c655570677261646561626c653a2063616c6c6572206960448201526e39903737ba103a34329037bbb732b960891b606482015260840161088a565b805182511461199057600080fd5b60005b8251811015610c8857600060405180604001604052808584815181106119bb576119bb613cf1565b60200260200101516001600160a01b031681526020018484815181106119e3576119e3613cf1565b6020026020010151815250905060a76000858481518110611a0657611a06613cf1565b60200260200101516001600160a01b03166001600160a01b031681526020019081526020016000206000848481518110611a4257611a42613cf1565b60209081029190910181015182528101919091526040016000205460ff1615611aad5760405162461bcd60e51b815260206004820152601660248201527f44726177696e6747616d653a204e465420616464656400000000000000000000604482015260640161088a565b838281518110611abf57611abf613cf1565b60200260200101516001600160a01b03166323b872dd3330868681518110611ae957611ae9613cf1565b60209081029190910101516040517fffffffff0000000000000000000000000000000000000000000000000000000060e086901b1681526001600160a01b0393841660048201529290911660248301526044820152606401600060405180830381600087803b158015611b5b57600080fd5b505af1158015611b6f573d6000803e3d6000fd5b50505050600160a76000868581518110611b8b57611b8b613cf1565b60200260200101516001600160a01b03166001600160a01b031681526020019081526020016000206000858581518110611bc757611bc7613cf1565b6020908102919091018101518252818101929092526040016000908120805460ff19169315159390931790925560a68054600181018255925282517f2da56674729343acc9933752c8c469a244252915242eb6d4c02d11ddd69164a16002909302928301805473ffffffffffffffffffffffffffffffffffffffff19166001600160a01b0390921691909117905591909101517f2da56674729343acc9933752c8c469a244252915242eb6d4c02d11ddd69164a29091015580611c8981613d1d565b915050611993565b600054610100900460ff1615808015611cb15750600054600160ff909116105b80611ccb5750303b158015611ccb575060005460ff166001145b611d3d5760405162461bcd60e51b815260206004820152602e60248201527f496e697469616c697a61626c653a20636f6e747261637420697320616c72656160448201527f647920696e697469616c697a6564000000000000000000000000000000000000606482015260840161088a565b6000805460ff191660011790558015611d60576000805461ff0019166101001790555b611d698261230a565b60ae805473ffffffffffffffffffffffffffffffffffffffff19166001600160a01b038416179055611d9b8484612443565b604080517f20a714382505729b6977051cb17e2cd66b3149e150240124aa4917fe7f2189906020820152469181019190915230606082015260800160408051601f19818403018152919052805160209091012060a3558015611e37576000805461ff0019169055604051600181527f7f26b83ff96e1f2b6a682f133852f6798a09c465da95921460cefb38474024989060200160405180910390a15b50505050565b336000908152609d602052604090205460ff16611eb45760405162461bcd60e51b815260206004820152602f60248201527f536166654f776e61626c655570677261646561626c653a2063616c6c6572206960448201526e39903737ba103a34329037bbb732b960891b606482015260840161088a565b6001600160a01b038116611f305760405162461bcd60e51b815260206004820152603560248201527f536166654f776e61626c655570677261646561626c653a206e6577206f776e6560448201527f7220697320746865207a65726f20616464726573730000000000000000000000606482015260840161088a565b6001600160a01b0381166000908152609d602052604090205460ff1615611fbf5760405162461bcd60e51b815260206004820152603060248201527f536166654f776e61626c655570677261646561626c653a206e6577206f776e6560448201527f7220616c72656164792065786973747300000000000000000000000000000000606482015260840161088a565b610a0e816127d5565b600082815260b26020526040902054610100900460ff1661202b5760405162461bcd60e51b815260206004820152601e60248201527f44726177696e6747616d653a2072657175657374206e6f7420666f756e640000604482015260640161088a565b600082815260b260209081526040909120805460ff191660019081178255835161205c9392909101918401906136f3565b5061206681612881565b7ffe2e2d779dba245964d4e3ef9b994be63856fd568bf7d3ca9e224755cb1bd54d8282604051612097929190613dac565b60405180910390a15050565b8054600090156120b257505490565b5042919050565b919050565b336000908152609d602052604090205460ff16610a0e5760405162461bcd60e51b815260206004820152602f60248201527f536166654f776e61626c655570677261646561626c653a2063616c6c6572206960448201526e39903737ba103a34329037bbb732b960891b606482015260840161088a565b7f4910fdfa16fed3260ed0e7147f7cc6da11a60208b5b9406d12a635614ffd91435460ff161561216857610c8883612d5e565b826001600160a01b03166352d1902d6040518163ffffffff1660e01b815260040160206040518083038186803b1580156121a157600080fd5b505afa9250505080156121d1575060408051601f3d908101601f191682019092526121ce91810190613d58565b60015b6122435760405162461bcd60e51b815260206004820152602e60248201527f45524331393637557067726164653a206e657720696d706c656d656e7461746960448201527f6f6e206973206e6f742055555053000000000000000000000000000000000000606482015260840161088a565b7f360894a13ba1a3210667c828492db98dca3e2076cc3735a920a3ca505d382bbc81146122d85760405162461bcd60e51b815260206004820152602960248201527f45524331393637557067726164653a20756e737570706f727465642070726f7860448201527f6961626c65555549440000000000000000000000000000000000000000000000606482015260840161088a565b50610c88838383612e29565b60008060006122f38585612e4e565b9150915061230081612e94565b5090505b92915050565b600054610100900460ff161580801561232a5750600054600160ff909116105b806123445750303b158015612344575060005460ff166001145b6123b65760405162461bcd60e51b815260206004820152602e60248201527f496e697469616c697a61626c653a20636f6e747261637420697320616c72656160448201527f647920696e697469616c697a6564000000000000000000000000000000000000606482015260840161088a565b6000805460ff1916600117905580156123d9576000805461ff0019166101001790555b60a1805473ffffffffffffffffffffffffffffffffffffffff19166001600160a01b0384161790558015610989576000805461ff0019169055604051600181527f7f26b83ff96e1f2b6a682f133852f6798a09c465da95921460cefb384740249890602001612097565b600054610100900460ff166124c05760405162461bcd60e51b815260206004820152602b60248201527f496e697469616c697a61626c653a20636f6e7472616374206973206e6f74206960448201527f6e697469616c697a696e67000000000000000000000000000000000000000000606482015260840161088a565b8151600510156125385760405162461bcd60e51b815260206004820152603360248201527f536166654f776e61626c655570677261646561626c653a657863656564206d6160448201527f78696d756d206e756d626572206f776e65727300000000000000000000000000606482015260840161088a565b60ff81166125ae5760405162461bcd60e51b815260206004820152602c60248201527f536166654f776e61626c655570677261646561626c653a207369676e5265717560448201527f69726564206973207a65726f0000000000000000000000000000000000000000606482015260840161088a565b609e805461ff00191661010060ff84160217905560005b82518110156127515760008382815181106125e2576125e2613cf1565b6020908102919091018101516001600160a01b0381166000908152609d90925260409091205490915060ff16156126815760405162461bcd60e51b815260206004820152602c60248201527f536166654f776e61626c655570677261646561626c653a206f776e657220616c60448201527f7265616479206578697374730000000000000000000000000000000000000000606482015260840161088a565b609e805482916097916000906126999060ff16613d38565b91906101000a81548160ff021916908360ff160217905560ff16600681106126c3576126c3613cf1565b0180546001600160a01b0392831673ffffffffffffffffffffffffffffffffffffffff19909116179055609e549082166000818152609d6020526040808220805460ff191660ff9095169490941790935591519091907f8be0079c531659141344cd1fd0a4f28419497f9722a3daafe3b4186f6b6457e0908290a3508061274981613d1d565b9150506125c5565b50609e5460ff8082166101009092041611156109895760405162461bcd60e51b815260206004820152603560248201527f536166654f776e61626c655570677261646561626c653a206f776e657273206c60448201527f657373207468616e207369676e52657175697265640000000000000000000000606482015260840161088a565b336000818152609d602052604090205460ff1682609782600681106127fc576127fc613cf1565b01805473ffffffffffffffffffffffffffffffffffffffff19166001600160a01b039283161790558281166000818152609d6020526040808220805460ff19908116909155938716808352818320805490951660ff871617909455517f8be0079c531659141344cd1fd0a4f28419497f9722a3daafe3b4186f6b6457e09190a3505050565b600061288d60ad6120a3565b9050600060ab541180156128a2575060ab5481115b6128ee5760405162461bcd60e51b815260206004820152601f60248201527f44726177696e6747616d653a206163746976697479206e6f7420737461727400604482015260640161088a565b60ac54811061293f5760405162461bcd60e51b815260206004820152601b60248201527f44726177696e6747616d653a20616374697669747920656e6465640000000000604482015260640161088a565b60008061294a613085565b91509150600082511161299f5760405162461bcd60e51b815260206004820152601b60248201527f44726177696e6747616d653a206e6f2070617469636970616e74730000000000604482015260640161088a565b6000845167ffffffffffffffff8111156129bb576129bb6137fe565b6040519080825280602002602001820160405280156129e4578160200160208202803683370190505b5090506000855167ffffffffffffffff811115612a0357612a036137fe565b604051908082528060200260200182016040528015612a2c578160200160208202803683370190505b5090506000865167ffffffffffffffff811115612a4b57612a4b6137fe565b604051908082528060200260200182016040528015612a74578160200160208202803683370190505b50905060005b875181108015612a8d575060a85460a654115b15612cfa57600085898381518110612aa757612aa7613cf1565b6020026020010151612ab99190613dcd565b90506000612ac7888361332d565b90506001600160a01b038116612ade575050612cfa565b6001600160a01b038116600090815260aa6020526040902054612b019088613cda565b9650600060a660a85481548110612b1a57612b1a613cf1565b600091825260209182902060408051808201825260029390930290910180546001600160a01b0390811680855260019092015494840185905291517f23b872dd000000000000000000000000000000000000000000000000000000008152306004820152918616602483015260448201939093529092506323b872dd90606401600060405180830381600087803b158015612bb457600080fd5b505af1158015612bc8573d6000803e3d6000fd5b5050506001600160a01b038316600090815260a560205260409020805460ff191660011790555084518290869086908110612c0557612c05613cf1565b60200260200101906001600160a01b031690816001600160a01b03168152505060a660a85481548110612c3a57612c3a613cf1565b600091825260209091206002909102015487516001600160a01b0390911690889086908110612c6b57612c6b613cf1565b60200260200101906001600160a01b031690816001600160a01b03168152505060a660a85481548110612ca057612ca0613cf1565b906000526020600020906002020160010154868581518110612cc457612cc4613cf1565b602090810291909101015260a88054906000612cdf83613d1d565b91905055505050508080612cf290613d1d565b915050612a7a565b5060a98054906000612d0b83613d1d565b9190505550336001600160a01b03167fd8dc838767c7aad16d40cad01776ffbff192edc204798da7f105dc817d4305b2828585604051612d4d93929190613e28565b60405180910390a250505050505050565b6001600160a01b0381163b612ddb5760405162461bcd60e51b815260206004820152602d60248201527f455243313936373a206e657720696d706c656d656e746174696f6e206973206e60448201527f6f74206120636f6e747261637400000000000000000000000000000000000000606482015260840161088a565b7f360894a13ba1a3210667c828492db98dca3e2076cc3735a920a3ca505d382bbc805473ffffffffffffffffffffffffffffffffffffffff19166001600160a01b0392909216919091179055565b612e328361342b565b600082511180612e3f5750805b15610c8857611e37838361346b565b600080825160411415612e855760208301516040840151606085015160001a612e7987828585613576565b94509450505050612e8d565b506000905060025b9250929050565b6000816004811115612ea857612ea8613b55565b1415612eb15750565b6001816004811115612ec557612ec5613b55565b1415612f135760405162461bcd60e51b815260206004820152601860248201527f45434453413a20696e76616c6964207369676e61747572650000000000000000604482015260640161088a565b6002816004811115612f2757612f27613b55565b1415612f755760405162461bcd60e51b815260206004820152601f60248201527f45434453413a20696e76616c6964207369676e6174757265206c656e67746800604482015260640161088a565b6003816004811115612f8957612f89613b55565b1415612ffd5760405162461bcd60e51b815260206004820152602260248201527f45434453413a20696e76616c6964207369676e6174757265202773272076616c60448201527f7565000000000000000000000000000000000000000000000000000000000000606482015260840161088a565b600481600481111561301157613011613b55565b1415610a0e5760405162461bcd60e51b815260206004820152602260248201527f45434453413a20696e76616c6964207369676e6174757265202776272076616c60448201527f7565000000000000000000000000000000000000000000000000000000000000606482015260840161088a565b606060008060a260009054906101000a90046001600160a01b03166001600160a01b03166362f45f096040518163ffffffff1660e01b815260040160006040518083038186803b1580156130d857600080fd5b505afa1580156130ec573d6000803e3d6000fd5b505050506040513d6000823e601f3d908101601f191682016040526131149190810190613e6b565b905060008060005b835181101561321a5760a5600085838151811061313b5761313b613cf1565b602090810291909101810151516001600160a01b031682528101919091526040016000205460ff161561316d57613208565b8161317781613d1d565b9250506131a084828151811061318f5761318f613cf1565b602002602001015160200151613663565b60aa60008684815181106131b6576131b6613cf1565b6020026020010151600001516001600160a01b03166001600160a01b03168152602001908152602001600020819055506131fb84828151811061318f5761318f613cf1565b6132059084613f34565b92505b8061321281613d1d565b91505061311c565b5060008167ffffffffffffffff811115613236576132366137fe565b60405190808252806020026020018201604052801561325f578160200160208202803683370190505b5090506000805b855181101561331f5760a5600087838151811061328557613285613cf1565b602090810291909101810151516001600160a01b031682528101919091526040016000205460ff16156132b75761330d565b8581815181106132c9576132c9613cf1565b6020026020010151600001518383815181106132e7576132e7613cf1565b6001600160a01b03909216602092830291909101909101528161330981613d1d565b9250505b8061331781613d1d565b915050613266565b509096929550919350505050565b600080805b84518110156134205760006001600160a01b031685828151811061335857613358613cf1565b60200260200101516001600160a01b031614156133745761340e565b60aa600086838151811061338a5761338a613cf1565b60200260200101516001600160a01b03166001600160a01b0316815260200190815260200160002054826133be9190613f34565b915083821061340e5760008582815181106133db576133db613cf1565b602002602001015190508582815181106133f7576133f7613cf1565b600060209182029290920101529250612304915050565b8061341881613d1d565b915050613332565b506000949350505050565b61343481612d5e565b6040516001600160a01b038216907fbc7cd75a20ee27fd9adebab32041f755214dbc6bffa90cc0225b39da2e5c2d3b90600090a250565b60606001600160a01b0383163b6134ea5760405162461bcd60e51b815260206004820152602660248201527f416464726573733a2064656c65676174652063616c6c20746f206e6f6e2d636f60448201527f6e74726163740000000000000000000000000000000000000000000000000000606482015260840161088a565b600080846001600160a01b0316846040516135059190613f78565b600060405180830381855af49150503d8060008114613540576040519150601f19603f3d011682016040523d82523d6000602084013e613545565b606091505b509150915061356d8282604051806060016040528060278152602001613fc860279139613695565b95945050505050565b6000807f7fffffffffffffffffffffffffffffff5d576e7357a4501ddfe92f46681b20a08311156135ad575060009050600361365a565b8460ff16601b141580156135c557508460ff16601c14155b156135d6575060009050600461365a565b6040805160008082526020820180845289905260ff881692820192909252606081018690526080810185905260019060a0016020604051602081039080840390855afa15801561362a573d6000803e3d6000fd5b5050604051601f1901519150506001600160a01b0381166136535760006001925092505061365a565b9150600090505b94509492505050565b60008160ff16600314156136795750600f919050565b8160ff166002141561368d57506005919050565b506001919050565b606083156136a45750816136ce565b8251156136b45782518084602001fd5b8160405162461bcd60e51b815260040161088a9190613f94565b9392505050565b6040518060c001604052806006906020820280368337509192915050565b82805482825590600052602060002090810192821561372e579160200282015b8281111561372e578251825591602001919060010190613713565b5061373a92915061373e565b5090565b5b8082111561373a576000815560010161373f565b803563ffffffff811681146120b957600080fd5b6000806000806080858703121561377d57600080fd5b61378685613753565b9350602085013567ffffffffffffffff811681146137a357600080fd5b925060408501359150606085013561ffff811681146137c157600080fd5b939692955090935050565b6001600160a01b0381168114610a0e57600080fd5b6000602082840312156137f357600080fd5b81356136ce816137cc565b634e487b7160e01b600052604160045260246000fd5b6040805190810167ffffffffffffffff81118282101715613837576138376137fe565b60405290565b604051601f8201601f1916810167ffffffffffffffff81118282101715613866576138666137fe565b604052919050565b600067ffffffffffffffff821115613888576138886137fe565b5060051b60200190565b600082601f8301126138a357600080fd5b813560206138b86138b38361386e565b61383d565b82815260059290921b840181019181810190868411156138d757600080fd5b8286015b848110156138f257803583529183019183016138db565b509695505050505050565b6000806040838503121561391057600080fd5b82359150602083013567ffffffffffffffff81111561392e57600080fd5b61393a85828601613892565b9150509250929050565b60006020828403121561395657600080fd5b5035919050565b6000806040838503121561397057600080fd5b823591506020830135613982816137cc565b809150509250929050565b600082601f83011261399e57600080fd5b813567ffffffffffffffff8111156139b8576139b86137fe565b6139cb6020601f19601f8401160161383d565b8181528460208386010111156139e057600080fd5b816020850160208301376000918101602001919091529392505050565b60008060408385031215613a1057600080fd5b8235613a1b816137cc565b9150602083013567ffffffffffffffff811115613a3757600080fd5b61393a8582860161398d565b60008060408385031215613a5657600080fd5b8235915060208084013567ffffffffffffffff80821115613a7657600080fd5b818601915086601f830112613a8a57600080fd5b8135613a986138b38261386e565b81815260059190911b83018401908481019089831115613ab757600080fd5b8585015b83811015613aef57803585811115613ad35760008081fd5b613ae18c89838a010161398d565b845250918601918601613abb565b508096505050505050509250929050565b60c08101818360005b6006811015613b315781516001600160a01b0316835260209283019290910190600101613b09565b50505092915050565b600060208284031215613b4c57600080fd5b6136ce82613753565b634e487b7160e01b600052602160045260246000fd5b6020810160048310613b8d57634e487b7160e01b600052602160045260246000fd5b91905290565b600082601f830112613ba457600080fd5b81356020613bb46138b38361386e565b82815260059290921b84018101918181019086841115613bd357600080fd5b8286015b848110156138f2578035613bea816137cc565b8352918301918301613bd7565b60008060408385031215613c0a57600080fd5b823567ffffffffffffffff80821115613c2257600080fd5b613c2e86838701613b93565b93506020850135915080821115613c4457600080fd5b5061393a85828601613892565b60ff81168114610a0e57600080fd5b600080600060608486031215613c7557600080fd5b833567ffffffffffffffff811115613c8c57600080fd5b613c9886828701613b93565b9350506020840135613ca981613c51565b91506040840135613cb9816137cc565b809150509250925092565b634e487b7160e01b600052601160045260246000fd5b600082821015613cec57613cec613cc4565b500390565b634e487b7160e01b600052603260045260246000fd5b634e487b7160e01b600052603160045260246000fd5b6000600019821415613d3157613d31613cc4565b5060010190565b600060ff821660ff811415613d4f57613d4f613cc4565b60010192915050565b600060208284031215613d6a57600080fd5b5051919050565b600081518084526020808501945080840160005b83811015613da157815187529582019590820190600101613d85565b509495945050505050565b828152604060208201526000613dc56040830184613d71565b949350505050565b600082613dea57634e487b7160e01b600052601260045260246000fd5b500690565b600081518084526020808501945080840160005b83811015613da15781516001600160a01b031687529582019590820190600101613e03565b606081526000613e3b6060830186613def565b8281036020840152613e4d8186613def565b90508281036040840152613e618185613d71565b9695505050505050565b60006020808385031215613e7e57600080fd5b825167ffffffffffffffff811115613e9557600080fd5b8301601f81018513613ea657600080fd5b8051613eb46138b38261386e565b81815260069190911b82018301908381019087831115613ed357600080fd5b928401925b82841015613f295760408489031215613ef15760008081fd5b613ef9613814565b8451613f04816137cc565b815284860151613f1381613c51565b8187015282526040939093019290840190613ed8565b979650505050505050565b60008219821115613f4757613f47613cc4565b500190565b60005b83811015613f67578181015183820152602001613f4f565b83811115611e375750506000910152565b60008251613f8a818460208701613f4c565b9190910192915050565b6020815260008251806020840152613fb3816040850160208701613f4c565b601f01601f1916919091016040019291505056fe416464726573733a206c6f772d6c6576656c2064656c65676174652063616c6c206661696c6564a264697066735822122036e823c1609ec8748019d6f83346e237c6b4ccd645f17250fa52220da4378ab764736f6c63430008090033",
  "devdoc": {
    "kind": "dev",
    "methods": {
      "proxiableUUID()": {
        "details": "Implementation of the ERC1822 {proxiableUUID} function. This returns the storage slot used by the implementation. It is used to validate that the this implementation remains valid after an upgrade. IMPORTANT: A proxy pointing at a proxiable contract should not be considered proxiable itself, because this risks bricking a proxy that upgrades to it, by delegating to itself until out of gas. Thus it is critical that this function revert if invoked through a proxy. This is guaranteed by the `notDelegated` modifier."
      },
      "transferOwnership(address)": {
        "details": "Transfers ownership of the contract to a new account (`newOwner`). Can only be called by the current owner."
      },
      "upgradeTo(address)": {
        "details": "Upgrade the implementation of the proxy to `newImplementation`. Calls {_authorizeUpgrade}. Emits an {Upgraded} event."
      },
      "upgradeToAndCall(address,bytes)": {
        "details": "Upgrade the implementation of the proxy to `newImplementation`, and subsequently execute the function call encoded in `data`. Calls {_authorizeUpgrade}. Emits an {Upgraded} event."
      }
    },
    "version": 1
  },
  "userdoc": {
    "kind": "user",
    "methods": {},
    "version": 1
  },
  "storageLayout": {
    "storage": [
      {
        "astId": 491,
        "contract": "contracts/DrawingGame/DrawingGame.sol:DrawingGame",
        "label": "_initialized",
        "offset": 0,
        "slot": "0",
        "type": "t_uint8"
      },
      {
        "astId": 494,
        "contract": "contracts/DrawingGame/DrawingGame.sol:DrawingGame",
        "label": "_initializing",
        "offset": 1,
        "slot": "0",
        "type": "t_bool"
      },
      {
        "astId": 473,
        "contract": "contracts/DrawingGame/DrawingGame.sol:DrawingGame",
        "label": "__gap",
        "offset": 0,
        "slot": "1",
        "type": "t_array(t_uint256)50_storage"
      },
      {
        "astId": 770,
        "contract": "contracts/DrawingGame/DrawingGame.sol:DrawingGame",
        "label": "__gap",
        "offset": 0,
        "slot": "51",
        "type": "t_array(t_uint256)50_storage"
      },
      {
        "astId": 1055,
        "contract": "contracts/DrawingGame/DrawingGame.sol:DrawingGame",
        "label": "__gap",
        "offset": 0,
        "slot": "101",
        "type": "t_array(t_uint256)50_storage"
      },
      {
        "astId": 1752,
        "contract": "contracts/DrawingGame/DrawingGame.sol:DrawingGame",
        "label": "_owners",
        "offset": 0,
        "slot": "151",
        "type": "t_array(t_address)6_storage"
      },
      {
        "astId": 1756,
        "contract": "contracts/DrawingGame/DrawingGame.sol:DrawingGame",
        "label": "_ownersIndex",
        "offset": 0,
        "slot": "157",
        "type": "t_mapping(t_address,t_uint8)"
      },
      {
        "astId": 1758,
        "contract": "contracts/DrawingGame/DrawingGame.sol:DrawingGame",
        "label": "_numOwners",
        "offset": 0,
        "slot": "158",
        "type": "t_uint8"
      },
      {
        "astId": 1763,
        "contract": "contracts/DrawingGame/DrawingGame.sol:DrawingGame",
        "label": "signRequired",
        "offset": 1,
        "slot": "158",
        "type": "t_uint8"
      },
      {
        "astId": 1768,
        "contract": "contracts/DrawingGame/DrawingGame.sol:DrawingGame",
        "label": "operationsStatus",
        "offset": 0,
        "slot": "159",
        "type": "t_mapping(t_bytes32,t_enum(OpStatus)1748)"
      },
      {
        "astId": 1770,
        "contract": "contracts/DrawingGame/DrawingGame.sol:DrawingGame",
        "label": "nonce",
        "offset": 0,
        "slot": "160",
        "type": "t_uint256"
      },
      {
        "astId": 2140,
        "contract": "contracts/DrawingGame/DrawingGame.sol:DrawingGame",
        "label": "vrfCoordinator",
        "offset": 0,
        "slot": "161",
        "type": "t_address"
      },
      {
        "astId": 2255,
        "contract": "contracts/DrawingGame/DrawingGame.sol:DrawingGame",
        "label": "investmentAddress",
        "offset": 0,
        "slot": "162",
        "type": "t_address"
      },
      {
        "astId": 2257,
        "contract": "contracts/DrawingGame/DrawingGame.sol:DrawingGame",
        "label": "DOMAIN",
        "offset": 0,
        "slot": "163",
        "type": "t_bytes32"
      },
      {
        "astId": 2267,
        "contract": "contracts/DrawingGame/DrawingGame.sol:DrawingGame",
        "label": "wonNFT",
        "offset": 0,
        "slot": "164",
        "type": "t_mapping(t_address,t_struct(NFTInfo)2262_storage)"
      },
      {
        "astId": 2271,
        "contract": "contracts/DrawingGame/DrawingGame.sol:DrawingGame",
        "label": "won",
        "offset": 0,
        "slot": "165",
        "type": "t_mapping(t_address,t_bool)"
      },
      {
        "astId": 2275,
        "contract": "contracts/DrawingGame/DrawingGame.sol:DrawingGame",
        "label": "nfts",
        "offset": 0,
        "slot": "166",
        "type": "t_array(t_struct(NFTInfo)2262_storage)dyn_storage"
      },
      {
        "astId": 2281,
        "contract": "contracts/DrawingGame/DrawingGame.sol:DrawingGame",
        "label": "nftExistPrizePool",
        "offset": 0,
        "slot": "167",
        "type": "t_mapping(t_address,t_mapping(t_uint256,t_bool))"
      },
      {
        "astId": 2283,
        "contract": "contracts/DrawingGame/DrawingGame.sol:DrawingGame",
        "label": "distributedNFTs",
        "offset": 0,
        "slot": "168",
        "type": "t_uint256"
      },
      {
        "astId": 2285,
        "contract": "contracts/DrawingGame/DrawingGame.sol:DrawingGame",
        "label": "drawRounds",
        "offset": 0,
        "slot": "169",
        "type": "t_uint256"
      },
      {
        "astId": 2289,
        "contract": "contracts/DrawingGame/DrawingGame.sol:DrawingGame",
        "label": "addressWeightMap",
        "offset": 0,
        "slot": "170",
        "type": "t_mapping(t_address,t_uint256)"
      },
      {
        "astId": 2291,
        "contract": "contracts/DrawingGame/DrawingGame.sol:DrawingGame",
        "label": "startTime",
        "offset": 0,
        "slot": "171",
        "type": "t_uint256"
      },
      {
        "astId": 2293,
        "contract": "contracts/DrawingGame/DrawingGame.sol:DrawingGame",
        "label": "endTime",
        "offset": 0,
        "slot": "172",
        "type": "t_uint256"
      },
      {
        "astId": 2300,
        "contract": "contracts/DrawingGame/DrawingGame.sol:DrawingGame",
        "label": "_timestamp",
        "offset": 0,
        "slot": "173",
        "type": "t_struct(Timestamp)3262_storage"
      },
      {
        "astId": 2324,
        "contract": "contracts/DrawingGame/DrawingGame.sol:DrawingGame",
        "label": "COORDINATOR",
        "offset": 0,
        "slot": "174",
        "type": "t_contract(VRFCoordinatorV2Interface)95"
      },
      {
        "astId": 2326,
        "contract": "contracts/DrawingGame/DrawingGame.sol:DrawingGame",
        "label": "keyHash",
        "offset": 0,
        "slot": "175",
        "type": "t_bytes32"
      },
      {
        "astId": 2328,
        "contract": "contracts/DrawingGame/DrawingGame.sol:DrawingGame",
        "label": "callbackGasLimit",
        "offset": 0,
        "slot": "176",
        "type": "t_uint32"
      },
      {
        "astId": 2330,
        "contract": "contracts/DrawingGame/DrawingGame.sol:DrawingGame",
        "label": "subscriptionId",
        "offset": 4,
        "slot": "176",
        "type": "t_uint64"
      },
      {
        "astId": 2332,
        "contract": "contracts/DrawingGame/DrawingGame.sol:DrawingGame",
        "label": "requestConfirmations",
        "offset": 12,
        "slot": "176",
        "type": "t_uint16"
      },
      {
        "astId": 2334,
        "contract": "contracts/DrawingGame/DrawingGame.sol:DrawingGame",
        "label": "lastRequestId",
        "offset": 0,
        "slot": "177",
        "type": "t_uint256"
      },
      {
        "astId": 2360,
        "contract": "contracts/DrawingGame/DrawingGame.sol:DrawingGame",
        "label": "requests",
        "offset": 0,
        "slot": "178",
        "type": "t_mapping(t_uint256,t_struct(RequestStatus)2355_storage)"
      }
    ],
    "types": {
      "t_address": {
        "encoding": "inplace",
        "label": "address",
        "numberOfBytes": "20"
      },
      "t_array(t_address)6_storage": {
        "base": "t_address",
        "encoding": "inplace",
        "label": "address[6]",
        "numberOfBytes": "192"
      },
      "t_array(t_struct(NFTInfo)2262_storage)dyn_storage": {
        "base": "t_struct(NFTInfo)2262_storage",
        "encoding": "dynamic_array",
        "label": "struct DrawingGame.NFTInfo[]",
        "numberOfBytes": "32"
      },
      "t_array(t_uint256)50_storage": {
        "base": "t_uint256",
        "encoding": "inplace",
        "label": "uint256[50]",
        "numberOfBytes": "1600"
      },
      "t_array(t_uint256)dyn_storage": {
        "base": "t_uint256",
        "encoding": "dynamic_array",
        "label": "uint256[]",
        "numberOfBytes": "32"
      },
      "t_bool": {
        "encoding": "inplace",
        "label": "bool",
        "numberOfBytes": "1"
      },
      "t_bytes32": {
        "encoding": "inplace",
        "label": "bytes32",
        "numberOfBytes": "32"
      },
      "t_contract(VRFCoordinatorV2Interface)95": {
        "encoding": "inplace",
        "label": "contract VRFCoordinatorV2Interface",
        "numberOfBytes": "20"
      },
      "t_enum(OpStatus)1748": {
        "encoding": "inplace",
        "label": "enum SafeOwnableUpgradeable.OpStatus",
        "numberOfBytes": "1"
      },
      "t_mapping(t_address,t_bool)": {
        "encoding": "mapping",
        "key": "t_address",
        "label": "mapping(address => bool)",
        "numberOfBytes": "32",
        "value": "t_bool"
      },
      "t_mapping(t_address,t_mapping(t_uint256,t_bool))": {
        "encoding": "mapping",
        "key": "t_address",
        "label": "mapping(address => mapping(uint256 => bool))",
        "numberOfBytes": "32",
        "value": "t_mapping(t_uint256,t_bool)"
      },
      "t_mapping(t_address,t_struct(NFTInfo)2262_storage)": {
        "encoding": "mapping",
        "key": "t_address",
        "label": "mapping(address => struct DrawingGame.NFTInfo)",
        "numberOfBytes": "32",
        "value": "t_struct(NFTInfo)2262_storage"
      },
      "t_mapping(t_address,t_uint256)": {
        "encoding": "mapping",
        "key": "t_address",
        "label": "mapping(address => uint256)",
        "numberOfBytes": "32",
        "value": "t_uint256"
      },
      "t_mapping(t_address,t_uint8)": {
        "encoding": "mapping",
        "key": "t_address",
        "label": "mapping(address => uint8)",
        "numberOfBytes": "32",
        "value": "t_uint8"
      },
      "t_mapping(t_bytes32,t_enum(OpStatus)1748)": {
        "encoding": "mapping",
        "key": "t_bytes32",
        "label": "mapping(bytes32 => enum SafeOwnableUpgradeable.OpStatus)",
        "numberOfBytes": "32",
        "value": "t_enum(OpStatus)1748"
      },
      "t_mapping(t_uint256,t_bool)": {
        "encoding": "mapping",
        "key": "t_uint256",
        "label": "mapping(uint256 => bool)",
        "numberOfBytes": "32",
        "value": "t_bool"
      },
      "t_mapping(t_uint256,t_struct(RequestStatus)2355_storage)": {
        "encoding": "mapping",
        "key": "t_uint256",
        "label": "mapping(uint256 => struct DrawingGame.RequestStatus)",
        "numberOfBytes": "32",
        "value": "t_struct(RequestStatus)2355_storage"
      },
      "t_struct(NFTInfo)2262_storage": {
        "encoding": "inplace",
        "label": "struct DrawingGame.NFTInfo",
        "members": [
          {
            "astId": 2259,
            "contract": "contracts/DrawingGame/DrawingGame.sol:DrawingGame",
            "label": "contractAddress",
            "offset": 0,
            "slot": "0",
            "type": "t_address"
          },
          {
            "astId": 2261,
            "contract": "contracts/DrawingGame/DrawingGame.sol:DrawingGame",
            "label": "tokenId",
            "offset": 0,
            "slot": "1",
            "type": "t_uint256"
          }
        ],
        "numberOfBytes": "64"
      },
      "t_struct(RequestStatus)2355_storage": {
        "encoding": "inplace",
        "label": "struct DrawingGame.RequestStatus",
        "members": [
          {
            "astId": 2349,
            "contract": "contracts/DrawingGame/DrawingGame.sol:DrawingGame",
            "label": "fulfilled",
            "offset": 0,
            "slot": "0",
            "type": "t_bool"
          },
          {
            "astId": 2351,
            "contract": "contracts/DrawingGame/DrawingGame.sol:DrawingGame",
            "label": "exists",
            "offset": 1,
            "slot": "0",
            "type": "t_bool"
          },
          {
            "astId": 2354,
            "contract": "contracts/DrawingGame/DrawingGame.sol:DrawingGame",
            "label": "randomWords",
            "offset": 0,
            "slot": "1",
            "type": "t_array(t_uint256)dyn_storage"
          }
        ],
        "numberOfBytes": "64"
      },
      "t_struct(Timestamp)3262_storage": {
        "encoding": "inplace",
        "label": "struct Time.Timestamp",
        "members": [
          {
            "astId": 3261,
            "contract": "contracts/DrawingGame/DrawingGame.sol:DrawingGame",
            "label": "_current_time",
            "offset": 0,
            "slot": "0",
            "type": "t_uint256"
          }
        ],
        "numberOfBytes": "32"
      },
      "t_uint16": {
        "encoding": "inplace",
        "label": "uint16",
        "numberOfBytes": "2"
      },
      "t_uint256": {
        "encoding": "inplace",
        "label": "uint256",
        "numberOfBytes": "32"
      },
      "t_uint32": {
        "encoding": "inplace",
        "label": "uint32",
        "numberOfBytes": "4"
      },
      "t_uint64": {
        "encoding": "inplace",
        "label": "uint64",
        "numberOfBytes": "8"
      },
      "t_uint8": {
        "encoding": "inplace",
        "label": "uint8",
        "numberOfBytes": "1"
      }
    }
  }
}