{
  "address": "0xFC04fA99eBdd826788EE98062d607b31C8069029",
  "abi": [
    {
      "inputs": [
        {
          "internalType": "uint256",
          "name": "chainId",
          "type": "uint256"
        },
        {
          "internalType": "uint256",
          "name": "initialSupply",
          "type": "uint256"
        },
        {
          "internalType": "address",
          "name": "mintAddr",
          "type": "address"
        },
        {
          "internalType": "address[]",
          "name": "owners",
          "type": "address[]"
        },
        {
          "internalType": "uint8",
          "name": "signRequred",
          "type": "uint8"
        }
      ],
      "stateMutability": "nonpayable",
      "type": "constructor"
    },
    {
      "anonymous": false,
      "inputs": [
        {
          "indexed": true,
          "internalType": "address",
          "name": "owner",
          "type": "address"
        },
        {
          "indexed": true,
          "internalType": "address",
          "name": "spender",
          "type": "address"
        },
        {
          "indexed": false,
          "internalType": "uint256",
          "name": "value",
          "type": "uint256"
        }
      ],
      "name": "Approval",
      "type": "event"
    },
    {
      "anonymous": false,
      "inputs": [
        {
          "indexed": true,
          "internalType": "bytes32",
          "name": "opHash",
          "type": "bytes32"
        }
      ],
      "name": "OperationAdded",
      "type": "event"
    },
    {
      "anonymous": false,
      "inputs": [
        {
          "indexed": true,
          "internalType": "address",
          "name": "previousOwner",
          "type": "address"
        },
        {
          "indexed": true,
          "internalType": "address",
          "name": "newOwner",
          "type": "address"
        }
      ],
      "name": "OwnershipTransferred",
      "type": "event"
    },
    {
      "anonymous": false,
      "inputs": [
        {
          "indexed": true,
          "internalType": "address",
          "name": "from",
          "type": "address"
        },
        {
          "indexed": true,
          "internalType": "address",
          "name": "to",
          "type": "address"
        },
        {
          "indexed": false,
          "internalType": "uint256",
          "name": "value",
          "type": "uint256"
        }
      ],
      "name": "Transfer",
      "type": "event"
    },
    {
      "inputs": [
        {
          "internalType": "bytes32",
          "name": "opHash",
          "type": "bytes32"
        },
        {
          "internalType": "bytes[]",
          "name": "sigs",
          "type": "bytes[]"
        }
      ],
      "name": "AddOpHashToPending",
      "outputs": [],
      "stateMutability": "nonpayable",
      "type": "function"
    },
    {
      "inputs": [],
      "name": "DOMAIN",
      "outputs": [
        {
          "internalType": "bytes32",
          "name": "",
          "type": "bytes32"
        }
      ],
      "stateMutability": "view",
      "type": "function"
    },
    {
      "inputs": [
        {
          "internalType": "address",
          "name": "owner",
          "type": "address"
        },
        {
          "internalType": "address",
          "name": "spender",
          "type": "address"
        }
      ],
      "name": "allowance",
      "outputs": [
        {
          "internalType": "uint256",
          "name": "",
          "type": "uint256"
        }
      ],
      "stateMutability": "view",
      "type": "function"
    },
    {
      "inputs": [
        {
          "internalType": "address",
          "name": "spender",
          "type": "address"
        },
        {
          "internalType": "uint256",
          "name": "amount",
          "type": "uint256"
        }
      ],
      "name": "approve",
      "outputs": [
        {
          "internalType": "bool",
          "name": "",
          "type": "bool"
        }
      ],
      "stateMutability": "nonpayable",
      "type": "function"
    },
    {
      "inputs": [
        {
          "internalType": "address",
          "name": "account",
          "type": "address"
        }
      ],
      "name": "balanceOf",
      "outputs": [
        {
          "internalType": "uint256",
          "name": "",
          "type": "uint256"
        }
      ],
      "stateMutability": "view",
      "type": "function"
    },
    {
      "inputs": [
        {
          "internalType": "uint256",
          "name": "amount",
          "type": "uint256"
        }
      ],
      "name": "burn",
      "outputs": [],
      "stateMutability": "nonpayable",
      "type": "function"
    },
    {
      "inputs": [
        {
          "internalType": "address",
          "name": "account",
          "type": "address"
        },
        {
          "internalType": "uint256",
          "name": "amount",
          "type": "uint256"
        }
      ],
      "name": "burnFrom",
      "outputs": [],
      "stateMutability": "nonpayable",
      "type": "function"
    },
    {
      "inputs": [],
      "name": "decimals",
      "outputs": [
        {
          "internalType": "uint8",
          "name": "",
          "type": "uint8"
        }
      ],
      "stateMutability": "view",
      "type": "function"
    },
    {
      "inputs": [
        {
          "internalType": "address",
          "name": "spender",
          "type": "address"
        },
        {
          "internalType": "uint256",
          "name": "subtractedValue",
          "type": "uint256"
        }
      ],
      "name": "decreaseAllowance",
      "outputs": [
        {
          "internalType": "bool",
          "name": "",
          "type": "bool"
        }
      ],
      "stateMutability": "nonpayable",
      "type": "function"
    },
    {
      "inputs": [
        {
          "internalType": "address",
          "name": "to",
          "type": "address"
        },
        {
          "internalType": "uint256",
          "name": "amount",
          "type": "uint256"
        },
        {
          "internalType": "uint256",
          "name": "nonce_",
          "type": "uint256"
        }
      ],
      "name": "getMintHash",
      "outputs": [
        {
          "internalType": "bytes32",
          "name": "",
          "type": "bytes32"
        }
      ],
      "stateMutability": "view",
      "type": "function"
    },
    {
      "inputs": [
        {
          "internalType": "address",
          "name": "spender",
          "type": "address"
        },
        {
          "internalType": "uint256",
          "name": "addedValue",
          "type": "uint256"
        }
      ],
      "name": "increaseAllowance",
      "outputs": [
        {
          "internalType": "bool",
          "name": "",
          "type": "bool"
        }
      ],
      "stateMutability": "nonpayable",
      "type": "function"
    },
    {
      "inputs": [],
      "name": "maxNumOwners",
      "outputs": [
        {
          "internalType": "uint8",
          "name": "",
          "type": "uint8"
        }
      ],
      "stateMutability": "view",
      "type": "function"
    },
    {
      "inputs": [
        {
          "internalType": "address",
          "name": "to",
          "type": "address"
        },
        {
          "internalType": "uint256",
          "name": "amount",
          "type": "uint256"
        },
        {
          "internalType": "bytes[]",
          "name": "sigs",
          "type": "bytes[]"
        }
      ],
      "name": "mint",
      "outputs": [],
      "stateMutability": "nonpayable",
      "type": "function"
    },
    {
      "inputs": [],
      "name": "name",
      "outputs": [
        {
          "internalType": "string",
          "name": "",
          "type": "string"
        }
      ],
      "stateMutability": "view",
      "type": "function"
    },
    {
      "inputs": [],
      "name": "nonce",
      "outputs": [
        {
          "internalType": "uint256",
          "name": "",
          "type": "uint256"
        }
      ],
      "stateMutability": "view",
      "type": "function"
    },
    {
      "inputs": [
        {
          "internalType": "bytes32",
          "name": "",
          "type": "bytes32"
        }
      ],
      "name": "operationsStatus",
      "outputs": [
        {
          "internalType": "enum SafeOwnable.OpStatus",
          "name": "",
          "type": "uint8"
        }
      ],
      "stateMutability": "view",
      "type": "function"
    },
    {
      "inputs": [],
      "name": "owners",
      "outputs": [
        {
          "internalType": "address[6]",
          "name": "",
          "type": "address[6]"
        }
      ],
      "stateMutability": "view",
      "type": "function"
    },
    {
      "inputs": [],
      "name": "signRequired",
      "outputs": [
        {
          "internalType": "uint8",
          "name": "",
          "type": "uint8"
        }
      ],
      "stateMutability": "view",
      "type": "function"
    },
    {
      "inputs": [],
      "name": "symbol",
      "outputs": [
        {
          "internalType": "string",
          "name": "",
          "type": "string"
        }
      ],
      "stateMutability": "view",
      "type": "function"
    },
    {
      "inputs": [],
      "name": "totalSupply",
      "outputs": [
        {
          "internalType": "uint256",
          "name": "",
          "type": "uint256"
        }
      ],
      "stateMutability": "view",
      "type": "function"
    },
    {
      "inputs": [
        {
          "internalType": "address",
          "name": "to",
          "type": "address"
        },
        {
          "internalType": "uint256",
          "name": "amount",
          "type": "uint256"
        }
      ],
      "name": "transfer",
      "outputs": [
        {
          "internalType": "bool",
          "name": "",
          "type": "bool"
        }
      ],
      "stateMutability": "nonpayable",
      "type": "function"
    },
    {
      "inputs": [
        {
          "internalType": "address",
          "name": "from",
          "type": "address"
        },
        {
          "internalType": "address",
          "name": "to",
          "type": "address"
        },
        {
          "internalType": "uint256",
          "name": "amount",
          "type": "uint256"
        }
      ],
      "name": "transferFrom",
      "outputs": [
        {
          "internalType": "bool",
          "name": "",
          "type": "bool"
        }
      ],
      "stateMutability": "nonpayable",
      "type": "function"
    },
    {
      "inputs": [
        {
          "internalType": "address",
          "name": "newOwner",
          "type": "address"
        }
      ],
      "name": "transferOwnership",
      "outputs": [],
      "stateMutability": "nonpayable",
      "type": "function"
    }
  ],
  "transactionHash": "0x803c7d67516c98bdc95613444e6e7e0b70cb7279e8b3c8d2e78248dc24024a12",
  "args": [
    97,
    80000000,
    "0x1Ae6dc21A5E82CF4c311e2A509d759279e999b5f",
    [
      "0x2Fe8D2Bc3FD37cD7AcbbE668A7a12F957e79D708",
      "0xfeaD27a71FDA8458d8b9f9055B50800eCbCaA10e"
    ],
    2
  ],
  "numDeployments": 2,
  "solcInputHash": "98cf7e5edd8973d915668ec9f73b1de5",
  "bytecode": "0x60c06040523480156200001157600080fd5b50604051620026103803806200261083398101604081905262000034916200065b565b60405180604001604052806006815260200165564d6574613360d01b81525060405180604001604052806003815260200162564d3360e81b8152508383600560ff1682511115620000dd5760405162461bcd60e51b815260206004820152602860248201527f536166654f776e61626c653a657863656564206d6178696d756d206e756d626560448201526772206f776e65727360c01b60648201526084015b60405180910390fd5b60ff8116620001395760405162461bcd60e51b815260206004820152602160248201527f536166654f776e61626c653a207369676e5265717569726564206973207a65726044820152606f60f81b6064820152608401620000d4565b60ff811660805260005b8251811015620002b357600083828151811062000164576200016462000769565b6020908102919091018101516001600160a01b0381166000908152600690925260409091205490915060ff1615620001e95760405162461bcd60e51b815260206004820152602160248201527f536166654f776e61626c653a206f776e657220616c72656164792065786973746044820152607360f81b6064820152608401620000d4565b6007805482916000918290620002029060ff1662000795565b91906101000a81548160ff021916908360ff160217905560ff16600681106200022f576200022f62000769565b0180546001600160a01b039283166001600160a01b0319909116179055600754908216600081815260066020526040808220805460ff191660ff9095169490941790935591519091907f8be0079c531659141344cd1fd0a4f28419497f9722a3daafe3b4186f6b6457e0908290a35080620002aa81620007b8565b91505062000143565b5060075460805160ff91821691161115620003245760405162461bcd60e51b815260206004820152602a60248201527f536166654f776e61626c653a206f776e657273206c657373207468616e20736960448201526919db94995c5d5a5c995960b21b6064820152608401620000d4565b505081516200033b90600d90602085019062000570565b5080516200035190600e90602084019062000570565b505050620003758385670de0b6b3a76400006200036f9190620007d6565b620003f1565b7fb8aa581effc4a2e306a38dbac6542b2a4b0d933abccc3bfc5d8d811df1608302620003a0620004d6565b80516020918201206040805192830193909352918101919091526060810186905230608082015260a00160408051601f19818403018152919052805160209091012060a05250620008509350505050565b6001600160a01b038216620004495760405162461bcd60e51b815260206004820152601f60248201527f45524332303a206d696e7420746f20746865207a65726f2061646472657373006044820152606401620000d4565b80600c60008282546200045d9190620007f8565b90915550506001600160a01b0382166000908152600a6020526040812080548392906200048c908490620007f8565b90915550506040518181526001600160a01b038316906000907fddf252ad1be2c89b69c2b068fc378daa952ba7f163c4a11628f55a4df523b3ef9060200160405180910390a35050565b6060600d8054620004e79062000813565b80601f0160208091040260200160405190810160405280929190818152602001828054620005159062000813565b8015620005665780601f106200053a5761010080835404028352916020019162000566565b820191906000526020600020905b8154815290600101906020018083116200054857829003601f168201915b5050505050905090565b8280546200057e9062000813565b90600052602060002090601f016020900481019282620005a25760008555620005ed565b82601f10620005bd57805160ff1916838001178555620005ed565b82800160010185558215620005ed579182015b82811115620005ed578251825591602001919060010190620005d0565b50620005fb929150620005ff565b5090565b5b80821115620005fb576000815560010162000600565b80516001600160a01b03811681146200062e57600080fd5b919050565b634e487b7160e01b600052604160045260246000fd5b805160ff811681146200062e57600080fd5b600080600080600060a086880312156200067457600080fd5b8551945060208087015194506200068e6040880162000616565b60608801519094506001600160401b0380821115620006ac57600080fd5b818901915089601f830112620006c157600080fd5b815181811115620006d657620006d662000633565b8060051b604051601f19603f83011681018181108582111715620006fe57620006fe62000633565b60405291825284820192508381018501918c8311156200071d57600080fd5b938501935b828510156200074657620007368562000616565b8452938501939285019262000722565b8097505050505050506200075d6080870162000649565b90509295509295909350565b634e487b7160e01b600052603260045260246000fd5b634e487b7160e01b600052601160045260246000fd5b600060ff821660ff811415620007af57620007af6200077f565b60010192915050565b6000600019821415620007cf57620007cf6200077f565b5060010190565b6000816000190483118215151615620007f357620007f36200077f565b500290565b600082198211156200080e576200080e6200077f565b500190565b600181811c908216806200082857607f821691505b602082108114156200084a57634e487b7160e01b600052602260045260246000fd5b50919050565b60805160a051611d7e6200089260003960008181610268015281816103040152610517015260008181610367015281816107840152610a260152611d7e6000f3fe608060405234801561001057600080fd5b506004361061018d5760003560e01c806370a08231116100e3578063a9059cbb1161008c578063ce0d0ca011610066578063ce0d0ca0146103e8578063dd62ed3e14610418578063f2fde38b1461045157600080fd5b8063a9059cbb146103b7578063affe39c1146103ca578063affed0e0146103df57600080fd5b80638b5a2143116100bd5780638b5a21431461038957806395d89b411461039c578063a457c2d7146103a457600080fd5b806370a082311461032657806379cc67901461034f5780637a29349d1461036257600080fd5b806323b872dd1161014557806342966c681161011f57806342966c68146102415780634ffd7d541461025457806352a9674b146102ff57600080fd5b806323b872dd14610214578063313ce56714610227578063395093511461022e57600080fd5b80630c3515ba116101765780630c3515ba146101d35780631716d0f1146101ed57806318160ddd1461020257600080fd5b806306fdde0314610192578063095ea7b3146101b0575b600080fd5b61019a610464565b6040516101a791906118ad565b60405180910390f35b6101c36101be36600461191e565b6104f6565b60405190151581526020016101a7565b6101db600581565b60405160ff90911681526020016101a7565b6102006101fb366004611a84565b61050e565b005b600c545b6040519081526020016101a7565b6101c3610222366004611adb565b610820565b60126101db565b6101c361023c36600461191e565b610844565b61020061024f366004611b17565b610883565b610206610262366004611b30565b604080517f000000000000000000000000000000000000000000000000000000000000000060208201527f156e29f6982eee45771b2862c71c865cb1ed8ec5a0f2c9d0c2cf96b8a8ba8ee391810191909152606084811b6bffffffffffffffffffffffff191690820152607481018390526094810182905260009060b4016040516020818303038152906040528051906020012090509392505050565b6102067f000000000000000000000000000000000000000000000000000000000000000081565b610206610334366004611b63565b6001600160a01b03166000908152600a602052604090205490565b61020061035d36600461191e565b610890565b6101db7f000000000000000000000000000000000000000000000000000000000000000081565b610200610397366004611b85565b6108a9565b61019a610b8d565b6101c36103b236600461191e565b610b9c565b6101c36103c536600461191e565b610c46565b6103d2610c54565b6040516101a79190611bcc565b61020660095481565b61040b6103f6366004611b17565b60086020526000908152604090205460ff1681565b6040516101a79190611c1c565b610206610426366004611c44565b6001600160a01b039182166000908152600b6020908152604080832093909416825291909152205490565b61020061045f366004611b63565b610c99565b6060600d805461047390611c77565b80601f016020809104026020016040519081016040528092919081815260200182805461049f90611c77565b80156104ec5780601f106104c1576101008083540402835291602001916104ec565b820191906000526020600020905b8154815290600101906020018083116104cf57829003601f168201915b5050505050905090565b600033610504818585610e31565b5060019392505050565b600954604080517f00000000000000000000000000000000000000000000000000000000000000006020808301919091527f156e29f6982eee45771b2862c71c865cb1ed8ec5a0f2c9d0c2cf96b8a8ba8ee382840152606087811b6bffffffffffffffffffffffff191690830152607482018690526094808301949094528251808303909401845260b4820183528351938101939093207f19457468657265756d205369676e6564204d6573736167653a0a33320000000060d483015260f0808301919091528251808303909101815261011090910190915280519101208160006105f761188f565b3360009081526006602052604090205460ff1615610662578161061981611cc8565b9250506001816006600061062a3390565b6001600160a01b0316815260208101919091526040016000205460ff166006811061065757610657611ce8565b911515602090920201525b60005b83518160ff1610156107815760006106a2858360ff168151811061068b5761068b611ce8565b602002602001015187610f8a90919063ffffffff16565b6001600160a01b03811660009081526006602052604090205490915060ff16806107135760405162461bcd60e51b815260206004820181905260248201527f536166654f776e61626c653a207369676e6572206973206e6f74206f776e657260448201526064015b60405180910390fd5b838160ff166006811061072857610728611ce8565b602002015115156001141561073e57505061076f565b6001848260ff166006811061075557610755611ce8565b911515602090920201528461076981611cc8565b95505050505b8061077981611cc8565b915050610665565b507f000000000000000000000000000000000000000000000000000000000000000060ff168260ff1610156107f85760405162461bcd60e51b815260206004820152601f60248201527f536166654f776e61626c653a206e6f20656e6f75676820636f6e6669726d7300604482015260640161070a565b6009805490600061080883611cfe565b91905055506108178787610fae565b50505050505050565b60003361082e85828561108d565b61083985858561111f565b506001949350505050565b336000818152600b602090815260408083206001600160a01b0387168452909152812054909190610504908290869061087e908790611d19565b610e31565b61088d3382611336565b50565b61089b82338361108d565b6108a58282611336565b5050565b818160006108b561188f565b3360009081526006602052604090205460ff161561092057816108d781611cc8565b925050600181600660006108e83390565b6001600160a01b0316815260208101919091526040016000205460ff166006811061091557610915611ce8565b911515602090920201525b60005b83518160ff161015610a23576000610949858360ff168151811061068b5761068b611ce8565b6001600160a01b03811660009081526006602052604090205490915060ff16806109b55760405162461bcd60e51b815260206004820181905260248201527f536166654f776e61626c653a207369676e6572206973206e6f74206f776e6572604482015260640161070a565b838160ff16600681106109ca576109ca611ce8565b60200201511515600114156109e0575050610a11565b6001848260ff16600681106109f7576109f7611ce8565b9115156020909202015284610a0b81611cc8565b95505050505b80610a1b81611cc8565b915050610923565b507f000000000000000000000000000000000000000000000000000000000000000060ff168260ff161015610a9a5760405162461bcd60e51b815260206004820152601f60248201527f536166654f776e61626c653a206e6f20656e6f75676820636f6e6669726d7300604482015260640161070a565b60098054906000610aaa83611cfe565b909155505060008681526008602052604081205460ff166003811115610ad257610ad2611c06565b14610b455760405162461bcd60e51b815260206004820152602c60248201527f536166654f776e61626c653a206f7065726174696f6e20776173206e6f74207360448201527f75626d6974746564207965740000000000000000000000000000000000000000606482015260840161070a565b600086815260086020526040808220805460ff191660011790555187917f33775024b20f211f019e50305c897b2105edc4642384143897ac170fb37f54a191a2505050505050565b6060600e805461047390611c77565b336000818152600b602090815260408083206001600160a01b038716845290915281205490919083811015610c395760405162461bcd60e51b815260206004820152602560248201527f45524332303a2064656372656173656420616c6c6f77616e63652062656c6f7760448201527f207a65726f000000000000000000000000000000000000000000000000000000606482015260840161070a565b6108398286868403610e31565b60003361050481858561111f565b610c5c61188f565b6040805160c08101918290529060009060069082845b81546001600160a01b03168152600190910190602001808311610c72575050505050905090565b3360009081526006602052604090205460ff16610d1d5760405162461bcd60e51b8152602060048201526024808201527f536166654f776e61626c653a2063616c6c6572206973206e6f7420746865206f60448201527f776e657200000000000000000000000000000000000000000000000000000000606482015260840161070a565b6001600160a01b038116610d995760405162461bcd60e51b815260206004820152602a60248201527f536166654f776e61626c653a206e6577206f776e657220697320746865207a6560448201527f726f206164647265737300000000000000000000000000000000000000000000606482015260840161070a565b6001600160a01b03811660009081526006602052604090205460ff1615610e285760405162461bcd60e51b815260206004820152602560248201527f536166654f776e61626c653a206e6577206f776e657220616c7265616479206560448201527f7869737473000000000000000000000000000000000000000000000000000000606482015260840161070a565b61088d816114b3565b6001600160a01b038316610eac5760405162461bcd60e51b8152602060048201526024808201527f45524332303a20617070726f76652066726f6d20746865207a65726f2061646460448201527f7265737300000000000000000000000000000000000000000000000000000000606482015260840161070a565b6001600160a01b038216610f285760405162461bcd60e51b815260206004820152602260248201527f45524332303a20617070726f766520746f20746865207a65726f20616464726560448201527f7373000000000000000000000000000000000000000000000000000000000000606482015260840161070a565b6001600160a01b038381166000818152600b602090815260408083209487168084529482529182902085905590518481527f8c5be1e5ebec7d5bd14f71427d1e84f3dd0314c0f7b2291e5b200ac8c7c3b92591015b60405180910390a3505050565b6000806000610f99858561156b565b91509150610fa6816115b1565b509392505050565b6001600160a01b0382166110045760405162461bcd60e51b815260206004820152601f60248201527f45524332303a206d696e7420746f20746865207a65726f206164647265737300604482015260640161070a565b80600c60008282546110169190611d19565b90915550506001600160a01b0382166000908152600a602052604081208054839290611043908490611d19565b90915550506040518181526001600160a01b038316906000907fddf252ad1be2c89b69c2b068fc378daa952ba7f163c4a11628f55a4df523b3ef9060200160405180910390a35050565b6001600160a01b038381166000908152600b60209081526040808320938616835292905220546000198114611119578181101561110c5760405162461bcd60e51b815260206004820152601d60248201527f45524332303a20696e73756666696369656e7420616c6c6f77616e6365000000604482015260640161070a565b6111198484848403610e31565b50505050565b6001600160a01b03831661119b5760405162461bcd60e51b815260206004820152602560248201527f45524332303a207472616e736665722066726f6d20746865207a65726f20616460448201527f6472657373000000000000000000000000000000000000000000000000000000606482015260840161070a565b6001600160a01b0382166112175760405162461bcd60e51b815260206004820152602360248201527f45524332303a207472616e7366657220746f20746865207a65726f206164647260448201527f6573730000000000000000000000000000000000000000000000000000000000606482015260840161070a565b6001600160a01b0383166000908152600a6020526040902054818110156112a65760405162461bcd60e51b815260206004820152602660248201527f45524332303a207472616e7366657220616d6f756e742065786365656473206260448201527f616c616e63650000000000000000000000000000000000000000000000000000606482015260840161070a565b6001600160a01b038085166000908152600a60205260408082208585039055918516815290812080548492906112dd908490611d19565b92505081905550826001600160a01b0316846001600160a01b03167fddf252ad1be2c89b69c2b068fc378daa952ba7f163c4a11628f55a4df523b3ef8460405161132991815260200190565b60405180910390a3611119565b6001600160a01b0382166113b25760405162461bcd60e51b815260206004820152602160248201527f45524332303a206275726e2066726f6d20746865207a65726f2061646472657360448201527f7300000000000000000000000000000000000000000000000000000000000000606482015260840161070a565b6001600160a01b0382166000908152600a6020526040902054818110156114415760405162461bcd60e51b815260206004820152602260248201527f45524332303a206275726e20616d6f756e7420657863656564732062616c616e60448201527f6365000000000000000000000000000000000000000000000000000000000000606482015260840161070a565b6001600160a01b0383166000908152600a602052604081208383039055600c8054849290611470908490611d31565b90915550506040518281526000906001600160a01b038516907fddf252ad1be2c89b69c2b068fc378daa952ba7f163c4a11628f55a4df523b3ef90602001610f7d565b33600081815260066020819052604082205460ff16918491839081106114db576114db611ce8565b0180547fffffffffffffffffffffffff0000000000000000000000000000000000000000166001600160a01b03928316179055828116600081815260066020526040808220805460ff19908116909155938716808352818320805490951660ff871617909455517f8be0079c531659141344cd1fd0a4f28419497f9722a3daafe3b4186f6b6457e09190a3505050565b6000808251604114156115a25760208301516040840151606085015160001a611596878285856117a2565b945094505050506115aa565b506000905060025b9250929050565b60008160048111156115c5576115c5611c06565b14156115ce5750565b60018160048111156115e2576115e2611c06565b14156116305760405162461bcd60e51b815260206004820152601860248201527f45434453413a20696e76616c6964207369676e61747572650000000000000000604482015260640161070a565b600281600481111561164457611644611c06565b14156116925760405162461bcd60e51b815260206004820152601f60248201527f45434453413a20696e76616c6964207369676e6174757265206c656e67746800604482015260640161070a565b60038160048111156116a6576116a6611c06565b141561171a5760405162461bcd60e51b815260206004820152602260248201527f45434453413a20696e76616c6964207369676e6174757265202773272076616c60448201527f7565000000000000000000000000000000000000000000000000000000000000606482015260840161070a565b600481600481111561172e5761172e611c06565b141561088d5760405162461bcd60e51b815260206004820152602260248201527f45434453413a20696e76616c6964207369676e6174757265202776272076616c60448201527f7565000000000000000000000000000000000000000000000000000000000000606482015260840161070a565b6000807f7fffffffffffffffffffffffffffffff5d576e7357a4501ddfe92f46681b20a08311156117d95750600090506003611886565b8460ff16601b141580156117f157508460ff16601c14155b156118025750600090506004611886565b6040805160008082526020820180845289905260ff881692820192909252606081018690526080810185905260019060a0016020604051602081039080840390855afa158015611856573d6000803e3d6000fd5b5050604051601f1901519150506001600160a01b03811661187f57600060019250925050611886565b9150600090505b94509492505050565b6040518060c001604052806006906020820280368337509192915050565b600060208083528351808285015260005b818110156118da578581018301518582016040015282016118be565b818111156118ec576000604083870101525b50601f01601f1916929092016040019392505050565b80356001600160a01b038116811461191957600080fd5b919050565b6000806040838503121561193157600080fd5b61193a83611902565b946020939093013593505050565b634e487b7160e01b600052604160045260246000fd5b604051601f8201601f1916810167ffffffffffffffff8111828210171561198757611987611948565b604052919050565b6000601f83818401126119a157600080fd5b8235602067ffffffffffffffff808311156119be576119be611948565b8260051b6119cd83820161195e565b93845286810183019383810190898611156119e757600080fd5b84890192505b85831015611a7757823584811115611a055760008081fd5b8901603f81018b13611a175760008081fd5b85810135604086821115611a2d57611a2d611948565b611a3e88601f198c8501160161195e565b8281528d82848601011115611a535760008081fd5b828285018a83013760009281018901929092525083525091840191908401906119ed565b9998505050505050505050565b600080600060608486031215611a9957600080fd5b611aa284611902565b925060208401359150604084013567ffffffffffffffff811115611ac557600080fd5b611ad18682870161198f565b9150509250925092565b600080600060608486031215611af057600080fd5b611af984611902565b9250611b0760208501611902565b9150604084013590509250925092565b600060208284031215611b2957600080fd5b5035919050565b600080600060608486031215611b4557600080fd5b611b4e84611902565b95602085013595506040909401359392505050565b600060208284031215611b7557600080fd5b611b7e82611902565b9392505050565b60008060408385031215611b9857600080fd5b82359150602083013567ffffffffffffffff811115611bb657600080fd5b611bc28582860161198f565b9150509250929050565b60c08101818360005b6006811015611bfd5781516001600160a01b0316835260209283019290910190600101611bd5565b50505092915050565b634e487b7160e01b600052602160045260246000fd5b6020810160048310611c3e57634e487b7160e01b600052602160045260246000fd5b91905290565b60008060408385031215611c5757600080fd5b611c6083611902565b9150611c6e60208401611902565b90509250929050565b600181811c90821680611c8b57607f821691505b60208210811415611cac57634e487b7160e01b600052602260045260246000fd5b50919050565b634e487b7160e01b600052601160045260246000fd5b600060ff821660ff811415611cdf57611cdf611cb2565b60010192915050565b634e487b7160e01b600052603260045260246000fd5b6000600019821415611d1257611d12611cb2565b5060010190565b60008219821115611d2c57611d2c611cb2565b500190565b600082821015611d4357611d43611cb2565b50039056fea264697066735822122073e40fb52fc71ca66464f30b90a61e2b3469c58c091284192e8a496d4b552b9664736f6c63430008090033",
  "devdoc": {
    "kind": "dev",
    "methods": {
      "allowance(address,address)": {
        "details": "See {IERC20-allowance}."
      },
      "approve(address,uint256)": {
        "details": "See {IERC20-approve}. NOTE: If `amount` is the maximum `uint256`, the allowance is not updated on `transferFrom`. This is semantically equivalent to an infinite approval. Requirements: - `spender` cannot be the zero address."
      },
      "balanceOf(address)": {
        "details": "See {IERC20-balanceOf}."
      },
      "burn(uint256)": {
        "details": "Destroys `amount` tokens from the caller. See {ERC20-_burn}."
      },
      "burnFrom(address,uint256)": {
        "details": "Destroys `amount` tokens from `account`, deducting from the caller's allowance. See {ERC20-_burn} and {ERC20-allowance}. Requirements: - the caller must have allowance for ``accounts``'s tokens of at least `amount`."
      },
      "decimals()": {
        "details": "Returns the number of decimals used to get its user representation. For example, if `decimals` equals `2`, a balance of `505` tokens should be displayed to a user as `5.05` (`505 / 10 ** 2`). Tokens usually opt for a value of 18, imitating the relationship between Ether and Wei. This is the value {ERC20} uses, unless this function is overridden; NOTE: This information is only used for _display_ purposes: it in no way affects any of the arithmetic of the contract, including {IERC20-balanceOf} and {IERC20-transfer}."
      },
      "decreaseAllowance(address,uint256)": {
        "details": "Atomically decreases the allowance granted to `spender` by the caller. This is an alternative to {approve} that can be used as a mitigation for problems described in {IERC20-approve}. Emits an {Approval} event indicating the updated allowance. Requirements: - `spender` cannot be the zero address. - `spender` must have allowance for the caller of at least `subtractedValue`."
      },
      "increaseAllowance(address,uint256)": {
        "details": "Atomically increases the allowance granted to `spender` by the caller. This is an alternative to {approve} that can be used as a mitigation for problems described in {IERC20-approve}. Emits an {Approval} event indicating the updated allowance. Requirements: - `spender` cannot be the zero address."
      },
      "name()": {
        "details": "Returns the name of the token."
      },
      "symbol()": {
        "details": "Returns the symbol of the token, usually a shorter version of the name."
      },
      "totalSupply()": {
        "details": "See {IERC20-totalSupply}."
      },
      "transfer(address,uint256)": {
        "details": "See {IERC20-transfer}. Requirements: - `to` cannot be the zero address. - the caller must have a balance of at least `amount`."
      },
      "transferFrom(address,address,uint256)": {
        "details": "See {IERC20-transferFrom}. Emits an {Approval} event indicating the updated allowance. This is not required by the EIP. See the note at the beginning of {ERC20}. NOTE: Does not update the allowance if the current allowance is the maximum `uint256`. Requirements: - `from` and `to` cannot be the zero address. - `from` must have a balance of at least `amount`. - the caller must have allowance for ``from``'s tokens of at least `amount`."
      },
      "transferOwnership(address)": {
        "details": "Transfers ownership of the contract to a new account (`newOwner`). Can only be called by the current owner."
      }
    },
    "version": 1
  },
  "userdoc": {
    "kind": "user",
    "methods": {},
    "version": 1
  },
  "storageLayout": {
    "storage": [
      {
        "astId": 7069,
        "contract": "contracts/ERC20/VM3.sol:VM3",
        "label": "_owners",
        "offset": 0,
        "slot": "0",
        "type": "t_array(t_address)6_storage"
      },
      {
        "astId": 7073,
        "contract": "contracts/ERC20/VM3.sol:VM3",
        "label": "_ownersIndex",
        "offset": 0,
        "slot": "6",
        "type": "t_mapping(t_address,t_uint8)"
      },
      {
        "astId": 7075,
        "contract": "contracts/ERC20/VM3.sol:VM3",
        "label": "_numOwners",
        "offset": 0,
        "slot": "7",
        "type": "t_uint8"
      },
      {
        "astId": 7085,
        "contract": "contracts/ERC20/VM3.sol:VM3",
        "label": "operationsStatus",
        "offset": 0,
        "slot": "8",
        "type": "t_mapping(t_bytes32,t_enum(OpStatus)7065)"
      },
      {
        "astId": 7087,
        "contract": "contracts/ERC20/VM3.sol:VM3",
        "label": "nonce",
        "offset": 0,
        "slot": "9",
        "type": "t_uint256"
      },
      {
        "astId": 3586,
        "contract": "contracts/ERC20/VM3.sol:VM3",
        "label": "_balances",
        "offset": 0,
        "slot": "10",
        "type": "t_mapping(t_address,t_uint256)"
      },
      {
        "astId": 3592,
        "contract": "contracts/ERC20/VM3.sol:VM3",
        "label": "_allowances",
        "offset": 0,
        "slot": "11",
        "type": "t_mapping(t_address,t_mapping(t_address,t_uint256))"
      },
      {
        "astId": 3594,
        "contract": "contracts/ERC20/VM3.sol:VM3",
        "label": "_totalSupply",
        "offset": 0,
        "slot": "12",
        "type": "t_uint256"
      },
      {
        "astId": 3596,
        "contract": "contracts/ERC20/VM3.sol:VM3",
        "label": "_name",
        "offset": 0,
        "slot": "13",
        "type": "t_string_storage"
      },
      {
        "astId": 3598,
        "contract": "contracts/ERC20/VM3.sol:VM3",
        "label": "_symbol",
        "offset": 0,
        "slot": "14",
        "type": "t_string_storage"
      }
    ],
    "types": {
      "t_address": {
        "encoding": "inplace",
        "label": "address",
        "numberOfBytes": "20"
      },
      "t_array(t_address)6_storage": {
        "base": "t_address",
        "encoding": "inplace",
        "label": "address[6]",
        "numberOfBytes": "192"
      },
      "t_bytes32": {
        "encoding": "inplace",
        "label": "bytes32",
        "numberOfBytes": "32"
      },
      "t_enum(OpStatus)7065": {
        "encoding": "inplace",
        "label": "enum SafeOwnable.OpStatus",
        "numberOfBytes": "1"
      },
      "t_mapping(t_address,t_mapping(t_address,t_uint256))": {
        "encoding": "mapping",
        "key": "t_address",
        "label": "mapping(address => mapping(address => uint256))",
        "numberOfBytes": "32",
        "value": "t_mapping(t_address,t_uint256)"
      },
      "t_mapping(t_address,t_uint256)": {
        "encoding": "mapping",
        "key": "t_address",
        "label": "mapping(address => uint256)",
        "numberOfBytes": "32",
        "value": "t_uint256"
      },
      "t_mapping(t_address,t_uint8)": {
        "encoding": "mapping",
        "key": "t_address",
        "label": "mapping(address => uint8)",
        "numberOfBytes": "32",
        "value": "t_uint8"
      },
      "t_mapping(t_bytes32,t_enum(OpStatus)7065)": {
        "encoding": "mapping",
        "key": "t_bytes32",
        "label": "mapping(bytes32 => enum SafeOwnable.OpStatus)",
        "numberOfBytes": "32",
        "value": "t_enum(OpStatus)7065"
      },
      "t_string_storage": {
        "encoding": "bytes",
        "label": "string",
        "numberOfBytes": "32"
      },
      "t_uint256": {
        "encoding": "inplace",
        "label": "uint256",
        "numberOfBytes": "32"
      },
      "t_uint8": {
        "encoding": "inplace",
        "label": "uint8",
        "numberOfBytes": "1"
      }
    }
  }
}