{
  "address": "0x0975A1a6c7E1a4Db8967e38D05897042f77e1158",
  "abi": [
    {
      "anonymous": false,
      "inputs": [
        {
          "indexed": false,
          "internalType": "address",
          "name": "previousAdmin",
          "type": "address"
        },
        {
          "indexed": false,
          "internalType": "address",
          "name": "newAdmin",
          "type": "address"
        }
      ],
      "name": "AdminChanged",
      "type": "event"
    },
    {
      "anonymous": false,
      "inputs": [
        {
          "indexed": true,
          "internalType": "address",
          "name": "owner",
          "type": "address"
        },
        {
          "indexed": true,
          "internalType": "address",
          "name": "approved",
          "type": "address"
        },
        {
          "indexed": true,
          "internalType": "uint256",
          "name": "tokenId",
          "type": "uint256"
        }
      ],
      "name": "Approval",
      "type": "event"
    },
    {
      "anonymous": false,
      "inputs": [
        {
          "indexed": true,
          "internalType": "address",
          "name": "owner",
          "type": "address"
        },
        {
          "indexed": true,
          "internalType": "address",
          "name": "operator",
          "type": "address"
        },
        {
          "indexed": false,
          "internalType": "bool",
          "name": "approved",
          "type": "bool"
        }
      ],
      "name": "ApprovalForAll",
      "type": "event"
    },
    {
      "anonymous": false,
      "inputs": [
        {
          "indexed": true,
          "internalType": "address",
          "name": "beacon",
          "type": "address"
        }
      ],
      "name": "BeaconUpgraded",
      "type": "event"
    },
    {
      "anonymous": false,
      "inputs": [
        {
          "indexed": true,
          "internalType": "address",
          "name": "user",
          "type": "address"
        },
        {
          "indexed": false,
          "internalType": "uint256",
          "name": "tokenId",
          "type": "uint256"
        }
      ],
      "name": "Build",
      "type": "event"
    },
    {
      "anonymous": false,
      "inputs": [
        {
          "indexed": true,
          "internalType": "bytes32",
          "name": "id",
          "type": "bytes32"
        }
      ],
      "name": "ChainlinkCancelled",
      "type": "event"
    },
    {
      "anonymous": false,
      "inputs": [
        {
          "indexed": true,
          "internalType": "bytes32",
          "name": "id",
          "type": "bytes32"
        }
      ],
      "name": "ChainlinkFulfilled",
      "type": "event"
    },
    {
      "anonymous": false,
      "inputs": [
        {
          "indexed": true,
          "internalType": "bytes32",
          "name": "id",
          "type": "bytes32"
        }
      ],
      "name": "ChainlinkRequested",
      "type": "event"
    },
    {
      "anonymous": false,
      "inputs": [
        {
          "indexed": true,
          "internalType": "address",
          "name": "user",
          "type": "address"
        },
        {
          "indexed": false,
          "internalType": "uint256",
          "name": "amount",
          "type": "uint256"
        }
      ],
      "name": "Deposit",
      "type": "event"
    },
    {
      "anonymous": false,
      "inputs": [
        {
          "indexed": false,
          "internalType": "uint8",
          "name": "version",
          "type": "uint8"
        }
      ],
      "name": "Initialized",
      "type": "event"
    },
    {
      "anonymous": false,
      "inputs": [
        {
          "indexed": true,
          "internalType": "bytes32",
          "name": "opHash",
          "type": "bytes32"
        }
      ],
      "name": "OperationAdded",
      "type": "event"
    },
    {
      "anonymous": false,
      "inputs": [
        {
          "indexed": true,
          "internalType": "address",
          "name": "previousOwner",
          "type": "address"
        },
        {
          "indexed": true,
          "internalType": "address",
          "name": "newOwner",
          "type": "address"
        }
      ],
      "name": "OwnershipTransferred",
      "type": "event"
    },
    {
      "anonymous": false,
      "inputs": [
        {
          "indexed": true,
          "internalType": "address",
          "name": "user",
          "type": "address"
        },
        {
          "indexed": false,
          "internalType": "uint256",
          "name": "amount",
          "type": "uint256"
        },
        {
          "indexed": false,
          "internalType": "bool",
          "name": "Disposal",
          "type": "bool"
        }
      ],
      "name": "Refund",
      "type": "event"
    },
    {
      "anonymous": false,
      "inputs": [
        {
          "indexed": true,
          "internalType": "address",
          "name": "from",
          "type": "address"
        },
        {
          "indexed": true,
          "internalType": "address",
          "name": "to",
          "type": "address"
        },
        {
          "indexed": true,
          "internalType": "uint256",
          "name": "tokenId",
          "type": "uint256"
        }
      ],
      "name": "Transfer",
      "type": "event"
    },
    {
      "anonymous": false,
      "inputs": [
        {
          "indexed": false,
          "internalType": "uint256",
          "name": "tokenId",
          "type": "uint256"
        },
        {
          "indexed": false,
          "internalType": "string",
          "name": "tokenUri",
          "type": "string"
        }
      ],
      "name": "UpdateTokenUri",
      "type": "event"
    },
    {
      "anonymous": false,
      "inputs": [
        {
          "indexed": true,
          "internalType": "address",
          "name": "implementation",
          "type": "address"
        }
      ],
      "name": "Upgraded",
      "type": "event"
    },
    {
      "anonymous": false,
      "inputs": [
        {
          "indexed": true,
          "internalType": "address",
          "name": "user",
          "type": "address"
        },
        {
          "indexed": false,
          "internalType": "uint256",
          "name": "amount",
          "type": "uint256"
        }
      ],
      "name": "Withdraw",
      "type": "event"
    },
    {
      "inputs": [
        {
          "internalType": "bytes32",
          "name": "opHash",
          "type": "bytes32"
        },
        {
          "internalType": "bytes[]",
          "name": "sigs",
          "type": "bytes[]"
        }
      ],
      "name": "AddOpHashToPending",
      "outputs": [],
      "stateMutability": "nonpayable",
      "type": "function"
    },
    {
      "inputs": [],
      "name": "ERC20Token",
      "outputs": [
        {
          "internalType": "contract IERC20",
          "name": "",
          "type": "address"
        }
      ],
      "stateMutability": "view",
      "type": "function"
    },
    {
      "inputs": [
        {
          "internalType": "bytes32",
          "name": "data",
          "type": "bytes32"
        }
      ],
      "name": "HashToSign",
      "outputs": [
        {
          "internalType": "bytes32",
          "name": "",
          "type": "bytes32"
        }
      ],
      "stateMutability": "pure",
      "type": "function"
    },
    {
      "inputs": [
        {
          "internalType": "address",
          "name": "to",
          "type": "address"
        },
        {
          "internalType": "uint256",
          "name": "tokenId",
          "type": "uint256"
        }
      ],
      "name": "approve",
      "outputs": [],
      "stateMutability": "nonpayable",
      "type": "function"
    },
    {
      "inputs": [
        {
          "internalType": "address",
          "name": "owner",
          "type": "address"
        }
      ],
      "name": "balanceOf",
      "outputs": [
        {
          "internalType": "uint256",
          "name": "",
          "type": "uint256"
        }
      ],
      "stateMutability": "view",
      "type": "function"
    },
    {
      "inputs": [
        {
          "internalType": "address",
          "name": "account",
          "type": "address"
        }
      ],
      "name": "balanceOfERC20",
      "outputs": [
        {
          "internalType": "uint256",
          "name": "",
          "type": "uint256"
        }
      ],
      "stateMutability": "view",
      "type": "function"
    },
    {
      "inputs": [
        {
          "internalType": "string",
          "name": "tokenURI_",
          "type": "string"
        },
        {
          "internalType": "uint256",
          "name": "nonce_",
          "type": "uint256"
        }
      ],
      "name": "build",
      "outputs": [
        {
          "internalType": "uint256",
          "name": "",
          "type": "uint256"
        }
      ],
      "stateMutability": "nonpayable",
      "type": "function"
    },
    {
      "inputs": [
        {
          "internalType": "address",
          "name": "to",
          "type": "address"
        },
        {
          "internalType": "string",
          "name": "tokenURI_",
          "type": "string"
        },
        {
          "internalType": "uint256",
          "name": "nonce_",
          "type": "uint256"
        }
      ],
      "name": "buildTo",
      "outputs": [
        {
          "internalType": "uint256",
          "name": "",
          "type": "uint256"
        }
      ],
      "stateMutability": "nonpayable",
      "type": "function"
    },
    {
      "inputs": [],
      "name": "costs",
      "outputs": [
        {
          "internalType": "uint256",
          "name": "",
          "type": "uint256"
        }
      ],
      "stateMutability": "view",
      "type": "function"
    },
    {
      "inputs": [
        {
          "internalType": "uint256",
          "name": "amount",
          "type": "uint256"
        }
      ],
      "name": "deposit",
      "outputs": [],
      "stateMutability": "nonpayable",
      "type": "function"
    },
    {
      "inputs": [
        {
          "internalType": "address",
          "name": "to",
          "type": "address"
        },
        {
          "internalType": "uint256",
          "name": "amount",
          "type": "uint256"
        }
      ],
      "name": "depositTo",
      "outputs": [],
      "stateMutability": "nonpayable",
      "type": "function"
    },
    {
      "inputs": [
        {
          "internalType": "bytes32",
          "name": "_requestId",
          "type": "bytes32"
        },
        {
          "internalType": "string",
          "name": "_tokenUri",
          "type": "string"
        }
      ],
      "name": "fulfill",
      "outputs": [],
      "stateMutability": "nonpayable",
      "type": "function"
    },
    {
      "inputs": [
        {
          "internalType": "uint256",
          "name": "tokenId",
          "type": "uint256"
        }
      ],
      "name": "getApproved",
      "outputs": [
        {
          "internalType": "address",
          "name": "",
          "type": "address"
        }
      ],
      "stateMutability": "view",
      "type": "function"
    },
    {
      "inputs": [
        {
          "internalType": "address",
          "name": "to",
          "type": "address"
        },
        {
          "internalType": "string",
          "name": "tokenURI_",
          "type": "string"
        },
        {
          "internalType": "uint256",
          "name": "nonce_",
          "type": "uint256"
        }
      ],
      "name": "getBuildHash",
      "outputs": [
        {
          "internalType": "bytes32",
          "name": "",
          "type": "bytes32"
        }
      ],
      "stateMutability": "view",
      "type": "function"
    },
    {
      "inputs": [
        {
          "internalType": "address",
          "name": "to",
          "type": "address"
        },
        {
          "internalType": "uint256",
          "name": "amount",
          "type": "uint256"
        },
        {
          "internalType": "uint256",
          "name": "nonce_",
          "type": "uint256"
        }
      ],
      "name": "getRefundHash",
      "outputs": [
        {
          "internalType": "bytes32",
          "name": "",
          "type": "bytes32"
        }
      ],
      "stateMutability": "view",
      "type": "function"
    },
    {
      "inputs": [
        {
          "internalType": "uint256",
          "name": "tokenId",
          "type": "uint256"
        },
        {
          "internalType": "uint256",
          "name": "nonce_",
          "type": "uint256"
        }
      ],
      "name": "getUpdateTokenUriHash",
      "outputs": [
        {
          "internalType": "bytes32",
          "name": "",
          "type": "bytes32"
        }
      ],
      "stateMutability": "view",
      "type": "function"
    },
    {
      "inputs": [
        {
          "internalType": "address",
          "name": "to",
          "type": "address"
        },
        {
          "internalType": "uint256",
          "name": "amount",
          "type": "uint256"
        },
        {
          "internalType": "uint256",
          "name": "nonce_",
          "type": "uint256"
        }
      ],
      "name": "getrefundAtDisposalHash",
      "outputs": [
        {
          "internalType": "bytes32",
          "name": "",
          "type": "bytes32"
        }
      ],
      "stateMutability": "view",
      "type": "function"
    },
    {
      "inputs": [
        {
          "internalType": "string",
          "name": "name_",
          "type": "string"
        },
        {
          "internalType": "string",
          "name": "symbol_",
          "type": "string"
        },
        {
          "internalType": "address[]",
          "name": "owners",
          "type": "address[]"
        },
        {
          "internalType": "uint8",
          "name": "signRequred",
          "type": "uint8"
        }
      ],
      "name": "initialize",
      "outputs": [],
      "stateMutability": "nonpayable",
      "type": "function"
    },
    {
      "inputs": [
        {
          "internalType": "address",
          "name": "owner",
          "type": "address"
        },
        {
          "internalType": "address",
          "name": "operator",
          "type": "address"
        }
      ],
      "name": "isApprovedForAll",
      "outputs": [
        {
          "internalType": "bool",
          "name": "",
          "type": "bool"
        }
      ],
      "stateMutability": "view",
      "type": "function"
    },
    {
      "inputs": [],
      "name": "maxNumOwners",
      "outputs": [
        {
          "internalType": "uint8",
          "name": "",
          "type": "uint8"
        }
      ],
      "stateMutability": "view",
      "type": "function"
    },
    {
      "inputs": [],
      "name": "name",
      "outputs": [
        {
          "internalType": "string",
          "name": "",
          "type": "string"
        }
      ],
      "stateMutability": "view",
      "type": "function"
    },
    {
      "inputs": [],
      "name": "nonce",
      "outputs": [
        {
          "internalType": "uint256",
          "name": "",
          "type": "uint256"
        }
      ],
      "stateMutability": "view",
      "type": "function"
    },
    {
      "inputs": [
        {
          "internalType": "bytes32",
          "name": "",
          "type": "bytes32"
        }
      ],
      "name": "operationsStatus",
      "outputs": [
        {
          "internalType": "enum SafeOwnableUpgradeable.OpStatus",
          "name": "",
          "type": "uint8"
        }
      ],
      "stateMutability": "view",
      "type": "function"
    },
    {
      "inputs": [
        {
          "internalType": "uint256",
          "name": "tokenId",
          "type": "uint256"
        }
      ],
      "name": "ownerOf",
      "outputs": [
        {
          "internalType": "address",
          "name": "",
          "type": "address"
        }
      ],
      "stateMutability": "view",
      "type": "function"
    },
    {
      "inputs": [],
      "name": "owners",
      "outputs": [
        {
          "internalType": "address[6]",
          "name": "",
          "type": "address[6]"
        }
      ],
      "stateMutability": "view",
      "type": "function"
    },
    {
      "inputs": [],
      "name": "proxiableUUID",
      "outputs": [
        {
          "internalType": "bytes32",
          "name": "",
          "type": "bytes32"
        }
      ],
      "stateMutability": "view",
      "type": "function"
    },
    {
      "inputs": [
        {
          "internalType": "address",
          "name": "to",
          "type": "address"
        },
        {
          "internalType": "uint256",
          "name": "amount",
          "type": "uint256"
        },
        {
          "internalType": "uint256",
          "name": "nonce_",
          "type": "uint256"
        }
      ],
      "name": "refund",
      "outputs": [],
      "stateMutability": "nonpayable",
      "type": "function"
    },
    {
      "inputs": [
        {
          "internalType": "address",
          "name": "to",
          "type": "address"
        },
        {
          "internalType": "uint256",
          "name": "amount",
          "type": "uint256"
        },
        {
          "internalType": "uint256",
          "name": "nonce_",
          "type": "uint256"
        }
      ],
      "name": "refundAtDisposal",
      "outputs": [],
      "stateMutability": "nonpayable",
      "type": "function"
    },
    {
      "inputs": [],
      "name": "requestApi",
      "outputs": [
        {
          "internalType": "string",
          "name": "",
          "type": "string"
        }
      ],
      "stateMutability": "view",
      "type": "function"
    },
    {
      "inputs": [],
      "name": "requestPath",
      "outputs": [
        {
          "internalType": "string",
          "name": "",
          "type": "string"
        }
      ],
      "stateMutability": "view",
      "type": "function"
    },
    {
      "inputs": [
        {
          "internalType": "address",
          "name": "from",
          "type": "address"
        },
        {
          "internalType": "address",
          "name": "to",
          "type": "address"
        },
        {
          "internalType": "uint256",
          "name": "tokenId",
          "type": "uint256"
        }
      ],
      "name": "safeTransferFrom",
      "outputs": [],
      "stateMutability": "nonpayable",
      "type": "function"
    },
    {
      "inputs": [
        {
          "internalType": "address",
          "name": "from",
          "type": "address"
        },
        {
          "internalType": "address",
          "name": "to",
          "type": "address"
        },
        {
          "internalType": "uint256",
          "name": "tokenId",
          "type": "uint256"
        },
        {
          "internalType": "bytes",
          "name": "data",
          "type": "bytes"
        }
      ],
      "name": "safeTransferFrom",
      "outputs": [],
      "stateMutability": "nonpayable",
      "type": "function"
    },
    {
      "inputs": [
        {
          "internalType": "address",
          "name": "operator",
          "type": "address"
        },
        {
          "internalType": "bool",
          "name": "approved",
          "type": "bool"
        }
      ],
      "name": "setApprovalForAll",
      "outputs": [],
      "stateMutability": "nonpayable",
      "type": "function"
    },
    {
      "inputs": [
        {
          "internalType": "address",
          "name": "token",
          "type": "address"
        },
        {
          "internalType": "address",
          "name": "oracle",
          "type": "address"
        },
        {
          "internalType": "bytes32",
          "name": "jobId_",
          "type": "bytes32"
        },
        {
          "internalType": "uint256",
          "name": "fee_",
          "type": "uint256"
        }
      ],
      "name": "setChainlink",
      "outputs": [],
      "stateMutability": "nonpayable",
      "type": "function"
    },
    {
      "inputs": [
        {
          "internalType": "uint256",
          "name": "costs_",
          "type": "uint256"
        }
      ],
      "name": "setCosts",
      "outputs": [],
      "stateMutability": "nonpayable",
      "type": "function"
    },
    {
      "inputs": [
        {
          "internalType": "address",
          "name": "token",
          "type": "address"
        }
      ],
      "name": "setERC20",
      "outputs": [],
      "stateMutability": "nonpayable",
      "type": "function"
    },
    {
      "inputs": [
        {
          "internalType": "string",
          "name": "api",
          "type": "string"
        }
      ],
      "name": "setRequestApi",
      "outputs": [],
      "stateMutability": "nonpayable",
      "type": "function"
    },
    {
      "inputs": [
        {
          "internalType": "string",
          "name": "path",
          "type": "string"
        }
      ],
      "name": "setRequestPath",
      "outputs": [],
      "stateMutability": "nonpayable",
      "type": "function"
    },
    {
      "inputs": [],
      "name": "signRequired",
      "outputs": [
        {
          "internalType": "uint8",
          "name": "",
          "type": "uint8"
        }
      ],
      "stateMutability": "view",
      "type": "function"
    },
    {
      "inputs": [
        {
          "internalType": "bytes4",
          "name": "interfaceId",
          "type": "bytes4"
        }
      ],
      "name": "supportsInterface",
      "outputs": [
        {
          "internalType": "bool",
          "name": "",
          "type": "bool"
        }
      ],
      "stateMutability": "view",
      "type": "function"
    },
    {
      "inputs": [],
      "name": "symbol",
      "outputs": [
        {
          "internalType": "string",
          "name": "",
          "type": "string"
        }
      ],
      "stateMutability": "view",
      "type": "function"
    },
    {
      "inputs": [
        {
          "internalType": "uint256",
          "name": "tokenId",
          "type": "uint256"
        }
      ],
      "name": "tokenURI",
      "outputs": [
        {
          "internalType": "string",
          "name": "",
          "type": "string"
        }
      ],
      "stateMutability": "view",
      "type": "function"
    },
    {
      "inputs": [
        {
          "internalType": "address",
          "name": "from",
          "type": "address"
        },
        {
          "internalType": "address",
          "name": "to",
          "type": "address"
        },
        {
          "internalType": "uint256",
          "name": "tokenId",
          "type": "uint256"
        }
      ],
      "name": "transferFrom",
      "outputs": [],
      "stateMutability": "nonpayable",
      "type": "function"
    },
    {
      "inputs": [
        {
          "internalType": "address",
          "name": "newOwner",
          "type": "address"
        }
      ],
      "name": "transferOwnership",
      "outputs": [],
      "stateMutability": "nonpayable",
      "type": "function"
    },
    {
      "inputs": [
        {
          "internalType": "uint256",
          "name": "tokenId",
          "type": "uint256"
        },
        {
          "internalType": "uint256",
          "name": "nonce_",
          "type": "uint256"
        }
      ],
      "name": "updateTokenUri",
      "outputs": [
        {
          "internalType": "bytes32",
          "name": "requestId",
          "type": "bytes32"
        }
      ],
      "stateMutability": "nonpayable",
      "type": "function"
    },
    {
      "inputs": [
        {
          "internalType": "address",
          "name": "newImplementation",
          "type": "address"
        }
      ],
      "name": "upgradeTo",
      "outputs": [],
      "stateMutability": "nonpayable",
      "type": "function"
    },
    {
      "inputs": [
        {
          "internalType": "address",
          "name": "newImplementation",
          "type": "address"
        },
        {
          "internalType": "bytes",
          "name": "data",
          "type": "bytes"
        }
      ],
      "name": "upgradeToAndCall",
      "outputs": [],
      "stateMutability": "payable",
      "type": "function"
    },
    {
      "inputs": [
        {
          "internalType": "uint256",
          "name": "amount",
          "type": "uint256"
        }
      ],
      "name": "withdraw",
      "outputs": [],
      "stateMutability": "nonpayable",
      "type": "function"
    },
    {
      "inputs": [],
      "name": "withdrawLink",
      "outputs": [],
      "stateMutability": "nonpayable",
      "type": "function"
    },
    {
      "inputs": [
        {
          "internalType": "address",
          "name": "to",
          "type": "address"
        },
        {
          "internalType": "uint256",
          "name": "amount",
          "type": "uint256"
        }
      ],
      "name": "withdrawTo",
      "outputs": [],
      "stateMutability": "nonpayable",
      "type": "function"
    }
  ],
  "transactionHash": "0xa2b0099f56bc6878d3162f2d5ecba8825dc00ec2ec648db6046121f2973f1547",
  "args": [],
  "numDeployments": 2,
  "solcInputHash": "27bcb084dd3589fc18380a64d39cd538",
  "bytecode": "0x60a0604052306080523480156200001557600080fd5b50600054610100900460ff1615808015620000375750600054600160ff909116105b8062000067575062000054306200014160201b620029491760201c565b15801562000067575060005460ff166001145b620000cf5760405162461bcd60e51b815260206004820152602e60248201527f496e697469616c697a61626c653a20636f6e747261637420697320616c72656160448201526d191e481a5b9a5d1a585b1a5e995960921b606482015260840160405180910390fd5b6000805460ff191660011790558015620000f3576000805461ff0019166101001790555b80156200013a576000805461ff0019169055604051600181527f7f26b83ff96e1f2b6a682f133852f6798a09c465da95921460cefb38474024989060200160405180910390a15b5062000150565b6001600160a01b03163b151590565b608051615dd5620001886000396000818161106c0152818161110201528181611622015281816116b801526117af0152615dd56000f3fe6080604052600436106103295760003560e01c80637a29349d116101a5578063affe39c1116100ec578063ce0d0ca011610095578063e985e9c51161006f578063e985e9c5146109bf578063f02fa73d14610a08578063f2fde38b14610a28578063ffaad6a514610a4857600080fd5b8063ce0d0ca01461092a578063d93db24f14610968578063dc6b45011461099f57600080fd5b8063b88d4fde116100c6578063b88d4fde146108ca578063c29a6fda146108ea578063c87b56dd1461090a57600080fd5b8063affe39c114610871578063affed0e014610893578063b6b55f25146108aa57600080fd5b8063921bb46e1161014e578063a0faf51e11610128578063a0faf51e14610811578063a22cb46514610831578063a6c1b1dd1461085157600080fd5b8063921bb46e1461076b5780639367982c146107e757806395d89b41146107fc57600080fd5b80638bd7bf3b1161017f5780638bd7bf3b146107215780638da31384146107415780638dc654a21461075657600080fd5b80637a29349d146106c05780637a80760e146106e05780638b5a21431461070157600080fd5b806342842e0e116102745780635e5f9a381161021d5780636ea80819116101f75780636ea80819146105fc57806370a082311461061c57806375f3958c1461063c578063776d62f6146106aa57600080fd5b80635e5f9a381461059c57806362ae7e67146105bc5780636352211e146105dc57600080fd5b80634bf4cdcd1161024e5780634bf4cdcd146105465780634f1ef2861461057457806352d1902d1461058757600080fd5b806342842e0e146104e657806348328f01146105065780634943bbca1461052657600080fd5b8063205c2878116102d65780632e1a7d4d116102b05780632e1a7d4d146104865780633659cfe6146104a657806337441996146104c657600080fd5b8063205c28781461042657806322284de61461044657806323b872dd1461046657600080fd5b8063095ea7b311610307578063095ea7b3146103bd5780630c3515ba146103df57806318fd89031461040657600080fd5b806301ffc9a71461032e57806306fdde0314610363578063081812fc14610385575b600080fd5b34801561033a57600080fd5b5061034e610349366004615266565b610a68565b60405190151581526020015b60405180910390f35b34801561036f57600080fd5b50610378610b05565b60405161035a91906152db565b34801561039157600080fd5b506103a56103a03660046152ee565b610b97565b6040516001600160a01b03909116815260200161035a565b3480156103c957600080fd5b506103dd6103d8366004615323565b610bbe565b005b3480156103eb57600080fd5b506103f4600581565b60405160ff909116815260200161035a565b34801561041257600080fd5b506103dd61042136600461534d565b610cf5565b34801561043257600080fd5b506103dd610441366004615323565b610ea9565b34801561045257600080fd5b506103dd6104613660046152ee565b610f03565b34801561047257600080fd5b506103dd610481366004615380565b610f81565b34801561049257600080fd5b506103dd6104a13660046152ee565b611008565b3480156104b257600080fd5b506103dd6104c13660046153bc565b611061565b3480156104d257600080fd5b506103dd6104e136600461548e565b6111ff565b3480156104f257600080fd5b506103dd610501366004615380565b6113d4565b34801561051257600080fd5b506103dd6105213660046154d5565b6113ef565b34801561053257600080fd5b506103dd610541366004615517565b6114ae565b34801561055257600080fd5b5061056661056136600461554c565b61153e565b60405190815260200161035a565b6103dd610582366004615591565b611617565b34801561059357600080fd5b506105666117a2565b3480156105a857600080fd5b506103dd6105b7366004615517565b611867565b3480156105c857600080fd5b506105666105d73660046155c9565b6118f3565b3480156105e857600080fd5b506103a56105f73660046152ee565b611950565b34801561060857600080fd5b5061056661061736600461534d565b6119b5565b34801561062857600080fd5b506105666106373660046153bc565b611a1b565b34801561064857600080fd5b506105666106573660046152ee565b6040517f19457468657265756d205369676e6564204d6573736167653a0a3332000000006020820152603c8101829052600090605c01604051602081830303815290604052805190602001209050919050565b3480156106b657600080fd5b5061010a54610566565b3480156106cc57600080fd5b50610102546103f490610100900460ff1681565b3480156106ec57600080fd5b50610105546103a5906001600160a01b031681565b34801561070d57600080fd5b506103dd61071c366004615644565b611ab5565b34801561072d57600080fd5b5061056661073c36600461534d565b611deb565b34801561074d57600080fd5b50610378611e51565b34801561076257600080fd5b506103dd611ee0565b34801561077757600080fd5b50610566610786366004615706565b61010654604080516020808201939093527fa6c1b1ddc5c883b2240109b3a9e2ec7fedd7dda99090b92aa0decbd063b9f2428183015260608101949094526080808501939093528051808503909301835260a0909301909252805191012090565b3480156107f357600080fd5b506103786120d4565b34801561080857600080fd5b506103786120e2565b34801561081d57600080fd5b5061056661082c3660046155c9565b6120f1565b34801561083d57600080fd5b506103dd61084c366004615736565b6121cb565b34801561085d57600080fd5b5061056661086c366004615706565b6121d6565b34801561087d57600080fd5b506108866121e2565b60405161035a919061576d565b34801561089f57600080fd5b506105666101045481565b3480156108b657600080fd5b506103dd6108c53660046152ee565b612227565b3480156108d657600080fd5b506103dd6108e53660046157a7565b612276565b3480156108f657600080fd5b506103dd6109053660046153bc565b612304565b34801561091657600080fd5b506103786109253660046152ee565b61239f565b34801561093657600080fd5b5061095b6109453660046152ee565b6101036020526000908152604090205460ff1681565b60405161035a9190615825565b34801561097457600080fd5b506105666109833660046153bc565b6001600160a01b0316600090815261010d602052604090205490565b3480156109ab57600080fd5b506103dd6109ba36600461534d565b612449565b3480156109cb57600080fd5b5061034e6109da36600461584d565b6001600160a01b039182166000908152606a6020908152604080832093909416825291909152205460ff1690565b348015610a1457600080fd5b506103dd610a23366004615891565b6125c7565b348015610a3457600080fd5b506103dd610a433660046153bc565b61276d565b348015610a5457600080fd5b506103dd610a63366004615323565b6128fa565b60006001600160e01b031982167f80ac58cd000000000000000000000000000000000000000000000000000000001480610acb57506001600160e01b031982167f5b5e139f00000000000000000000000000000000000000000000000000000000145b80610aff57507f01ffc9a7000000000000000000000000000000000000000000000000000000006001600160e01b03198316145b92915050565b606060658054610b1490615987565b80601f0160208091040260200160405190810160405280929190818152602001828054610b4090615987565b8015610b8d5780601f10610b6257610100808354040283529160200191610b8d565b820191906000526020600020905b815481529060010190602001808311610b7057829003601f168201915b5050505050905090565b6000610ba282612958565b506000908152606960205260409020546001600160a01b031690565b6000610bc982611950565b9050806001600160a01b0316836001600160a01b03161415610c585760405162461bcd60e51b815260206004820152602160248201527f4552433732313a20617070726f76616c20746f2063757272656e74206f776e6560448201527f720000000000000000000000000000000000000000000000000000000000000060648201526084015b60405180910390fd5b336001600160a01b0382161480610c745750610c7481336109da565b610ce65760405162461bcd60e51b815260206004820152603e60248201527f4552433732313a20617070726f76652063616c6c6572206973206e6f7420746f60448201527f6b656e206f776e6572206e6f7220617070726f76656420666f7220616c6c00006064820152608401610c4f565b610cf083836129bc565b505050565b6101075415610d345760405162461bcd60e51b815260206004820152600b60248201526a115b198e881313d0d2d15160aa1b6044820152606401610c4f565b600161010755610d48610657848484611deb565b60016000828152610103602052604090205460ff166003811115610d6e57610d6e61580f565b14610de15760405162461bcd60e51b815260206004820152603060248201527f536166654f776e61626c655570677261646561626c653a206f7065726174696f60448201527f6e206e6f7420696e2070656e64696e67000000000000000000000000000000006064820152608401610c4f565b600081815261010360209081526040808320805460ff191660021790556001600160a01b038716835261010d909152902054831115610e625760405162461bcd60e51b815260206004820152601e60248201527f456c663a20496e73756666696369656e7420757365722062616c616e636500006044820152606401610c4f565b6001600160a01b038416600090815261010d602052604081208054859290610e8b9084906159d2565b90915550610e9d905084846000612a2a565b50506000610107555050565b6101075415610ee85760405162461bcd60e51b815260206004820152600b60248201526a115b198e881313d0d2d15160aa1b6044820152606401610c4f565b600161010755610ef9338383612c9b565b5050600061010755565b336000908152610101602052604090205460ff16610f7b5760405162461bcd60e51b815260206004820152602f60248201527f536166654f776e61626c655570677261646561626c653a2063616c6c6572206960448201526e39903737ba103a34329037bbb732b960891b6064820152608401610c4f565b61010a55565b610f8b3382612e5e565b610ffd5760405162461bcd60e51b815260206004820152602e60248201527f4552433732313a2063616c6c6572206973206e6f7420746f6b656e206f776e6560448201527f72206e6f7220617070726f7665640000000000000000000000000000000000006064820152608401610c4f565b610cf0838383612edc565b61010754156110475760405162461bcd60e51b815260206004820152600b60248201526a115b198e881313d0d2d15160aa1b6044820152606401610c4f565b600161010755611058333383612c9b565b50600061010755565b306001600160a01b037f00000000000000000000000000000000000000000000000000000000000000001614156111005760405162461bcd60e51b815260206004820152602c60248201527f46756e6374696f6e206d7573742062652063616c6c6564207468726f7567682060448201527f64656c656761746563616c6c00000000000000000000000000000000000000006064820152608401610c4f565b7f00000000000000000000000000000000000000000000000000000000000000006001600160a01b031661115b7f360894a13ba1a3210667c828492db98dca3e2076cc3735a920a3ca505d382bbc546001600160a01b031690565b6001600160a01b0316146111d75760405162461bcd60e51b815260206004820152602c60248201527f46756e6374696f6e206d7573742062652063616c6c6564207468726f7567682060448201527f6163746976652070726f787900000000000000000000000000000000000000006064820152608401610c4f565b6111e0816130a9565b604080516000808252602082019092526111fc91839190613121565b50565b6000828152610113602052604090205482906001600160a01b0316331461128e5760405162461bcd60e51b815260206004820152602860248201527f536f75726365206d75737420626520746865206f7261636c65206f662074686560448201527f20726571756573740000000000000000000000000000000000000000000000006064820152608401610c4f565b6000818152610113602052604080822080546001600160a01b03191690555182917f7cc135e0cebb02c3480ae5d74d377283180a2601f8f644edf7987b009316c63a91a260008381526101166020526040902054611303816000908152606760205260409020546001600160a01b0316151590565b6113745760405162461bcd60e51b8152602060048201526024808201527f456c663a205570646174656420746f6b656e20696420646f6573206e6f74206560448201527f78697374000000000000000000000000000000000000000000000000000000006064820152608401610c4f565b600081815261010c60209081526040909120845161139492860190615199565b507f729b9b2fe4c9e911cd122179688c51b785077a449955582be481b269593ae18b81846040516113c69291906159e9565b60405180910390a150505050565b610cf083838360405180602001604052806000815250612276565b336000908152610101602052604090205460ff166114675760405162461bcd60e51b815260206004820152602f60248201527f536166654f776e61626c655570677261646561626c653a2063616c6c6572206960448201526e39903737ba103a34329037bbb732b960891b6064820152608401610c4f565b61011080546001600160a01b0319166001600160a01b03861617905561011180546001600160a01b0319166001600160a01b03851617905561011491909155610115555050565b336000908152610101602052604090205460ff166115265760405162461bcd60e51b815260206004820152602f60248201527f536166654f776e61626c655570677261646561626c653a2063616c6c6572206960448201526e39903737ba103a34329037bbb732b960891b6064820152608401610c4f565b805161153a90610118906020840190615199565b5050565b600061010a5461010d60006115503390565b6001600160a01b03166001600160a01b031681526020019081526020016000205410156115bf5760405162461bcd60e51b815260206004820152601a60248201527f456c663a20496e73756666696369656e74206465706f736974730000000000006044820152606401610c4f565b61010a5433600090815261010d6020526040812080549091906115e39084906159d2565b909155505061010a5461010b80546000906115ff908490615a02565b9091555061161090503384846132d0565b9392505050565b306001600160a01b037f00000000000000000000000000000000000000000000000000000000000000001614156116b65760405162461bcd60e51b815260206004820152602c60248201527f46756e6374696f6e206d7573742062652063616c6c6564207468726f7567682060448201527f64656c656761746563616c6c00000000000000000000000000000000000000006064820152608401610c4f565b7f00000000000000000000000000000000000000000000000000000000000000006001600160a01b03166117117f360894a13ba1a3210667c828492db98dca3e2076cc3735a920a3ca505d382bbc546001600160a01b031690565b6001600160a01b03161461178d5760405162461bcd60e51b815260206004820152602c60248201527f46756e6374696f6e206d7573742062652063616c6c6564207468726f7567682060448201527f6163746976652070726f787900000000000000000000000000000000000000006064820152608401610c4f565b611796826130a9565b61153a82826001613121565b6000306001600160a01b037f000000000000000000000000000000000000000000000000000000000000000016146118425760405162461bcd60e51b815260206004820152603860248201527f555550535570677261646561626c653a206d757374206e6f742062652063616c60448201527f6c6564207468726f7567682064656c656761746563616c6c00000000000000006064820152608401610c4f565b507f360894a13ba1a3210667c828492db98dca3e2076cc3735a920a3ca505d382bbc90565b336000908152610101602052604090205460ff166118df5760405162461bcd60e51b815260206004820152602f60248201527f536166654f776e61626c655570677261646561626c653a2063616c6c6572206960448201526e39903737ba103a34329037bbb732b960891b6064820152608401610c4f565b805161153a90610117906020840190615199565b6000610106547f3815ce62889cc7a128f8b6e58ece8a988c71bdd07dec95430895aea77e825c45858585604051602001611931959493929190615a1a565b6040516020818303038152906040528051906020012090509392505050565b6000818152606760205260408120546001600160a01b031680610aff5760405162461bcd60e51b815260206004820152601860248201527f4552433732313a20696e76616c696420746f6b656e20494400000000000000006044820152606401610c4f565b610106546040805160208101929092527f6147566a9de12cd78d3b04221dc654637e92d73ad3a4c44cc89b06c4019ff4aa90820152606084811b6bffffffffffffffffffffffff191690820152607481018390526094810182905260009060b401611931565b60006001600160a01b038216611a995760405162461bcd60e51b815260206004820152602960248201527f4552433732313a2061646472657373207a65726f206973206e6f74206120766160448201527f6c6964206f776e657200000000000000000000000000000000000000000000006064820152608401610c4f565b506001600160a01b031660009081526068602052604090205490565b81816000611ac161521d565b336000908152610101602052604090205460ff1615611b2e5781611ae481615a67565b9250506001816101016000611af63390565b6001600160a01b0316815260208101919091526040016000205460ff1660068110611b2357611b23615a87565b911515602090920201525b60005b83518160ff161015611c6f576000611b6e858360ff1681518110611b5757611b57615a87565b60200260200101518761341d90919063ffffffff16565b6001600160a01b0381166000908152610101602052604090205490915060ff1680611c015760405162461bcd60e51b815260206004820152602b60248201527f536166654f776e61626c655570677261646561626c653a207369676e6572206960448201527f73206e6f74206f776e65720000000000000000000000000000000000000000006064820152608401610c4f565b838160ff1660068110611c1657611c16615a87565b6020020151151560011415611c2c575050611c5d565b6001848260ff1660068110611c4357611c43615a87565b9115156020909202015284611c5781615a67565b95505050505b80611c6781615a67565b915050611b31565b506101025460ff61010090910481169083161015611cf55760405162461bcd60e51b815260206004820152602a60248201527f536166654f776e61626c655570677261646561626c653a206e6f20656e6f756760448201527f6820636f6e6669726d73000000000000000000000000000000000000000000006064820152608401610c4f565b6101048054906000611d0683615a9d565b90915550506000868152610103602052604081205460ff166003811115611d2f57611d2f61580f565b14611da25760405162461bcd60e51b815260206004820152603760248201527f536166654f776e61626c655570677261646561626c653a206f7065726174696f60448201527f6e20776173206e6f74207375626d6974746564207965740000000000000000006064820152608401610c4f565b60008681526101036020526040808220805460ff191660011790555187917f33775024b20f211f019e50305c897b2105edc4642384143897ac170fb37f54a191a2505050505050565b610106546040805160208101929092527f410085df54bf273a749e521cef84e728e697569a719b84888672469ca66d58d490820152606084811b6bffffffffffffffffffffffff191690820152607481018390526094810182905260009060b401611931565b6101188054611e5f90615987565b80601f0160208091040260200160405190810160405280929190818152602001828054611e8b90615987565b8015611ed85780601f10611ead57610100808354040283529160200191611ed8565b820191906000526020600020905b815481529060010190602001808311611ebb57829003601f168201915b505050505081565b336000908152610101602052604090205460ff16611f585760405162461bcd60e51b815260206004820152602f60248201527f536166654f776e61626c655570677261646561626c653a2063616c6c6572206960448201526e39903737ba103a34329037bbb732b960891b6064820152608401610c4f565b6000611f6d610110546001600160a01b031690565b6040517f70a082310000000000000000000000000000000000000000000000000000000081523060048201529091506001600160a01b0382169063a9059cbb90339083906370a082319060240160206040518083038186803b158015611fd257600080fd5b505afa158015611fe6573d6000803e3d6000fd5b505050506040513d601f19601f8201168201806040525081019061200a9190615ab8565b6040516001600160e01b031960e085901b1681526001600160a01b0390921660048301526024820152604401602060405180830381600087803b15801561205057600080fd5b505af1158015612064573d6000803e3d6000fd5b505050506040513d601f19601f820116820180604052508101906120889190615ad1565b6111fc5760405162461bcd60e51b815260206004820152601760248201527f456c663a20556e61626c6520746f207472616e736665720000000000000000006044820152606401610c4f565b6101178054611e5f90615987565b606060668054610b1490615987565b600061010a5461010d60006121033390565b6001600160a01b03166001600160a01b031681526020019081526020016000205410156121725760405162461bcd60e51b815260206004820152601a60248201527f456c663a20496e73756666696369656e74206465706f736974730000000000006044820152606401610c4f565b61010a5433600090815261010d6020526040812080549091906121969084906159d2565b909155505061010a5461010b80546000906121b2908490615a02565b909155506121c390508484846132d0565b949350505050565b61153a338383613441565b60006116108383613510565b6121ea61521d565b6040805160c08101918290529060fb9060069082845b81546001600160a01b03168152600190910190602001808311612200575050505050905090565b61010754156122665760405162461bcd60e51b815260206004820152600b60248201526a115b198e881313d0d2d15160aa1b6044820152606401610c4f565b60016101075561105833826138a7565b6122803383612e5e565b6122f25760405162461bcd60e51b815260206004820152602e60248201527f4552433732313a2063616c6c6572206973206e6f7420746f6b656e206f776e6560448201527f72206e6f7220617070726f7665640000000000000000000000000000000000006064820152608401610c4f565b6122fe84848484613a19565b50505050565b336000908152610101602052604090205460ff1661237c5760405162461bcd60e51b815260206004820152602f60248201527f536166654f776e61626c655570677261646561626c653a2063616c6c6572206960448201526e39903737ba103a34329037bbb732b960891b6064820152608401610c4f565b61010580546001600160a01b0319166001600160a01b0392909216919091179055565b60606123aa82612958565b600082815261010c6020526040902080546123c490615987565b80601f01602080910402602001604051908101604052809291908181526020018280546123f090615987565b801561243d5780601f106124125761010080835404028352916020019161243d565b820191906000526020600020905b81548152906001019060200180831161242057829003601f168201915b50505050509050919050565b61010754156124885760405162461bcd60e51b815260206004820152600b60248201526a115b198e881313d0d2d15160aa1b6044820152606401610c4f565b60016101075561249c6106578484846119b5565b60016000828152610103602052604090205460ff1660038111156124c2576124c261580f565b146125355760405162461bcd60e51b815260206004820152603060248201527f536166654f776e61626c655570677261646561626c653a206f7065726174696f60448201527f6e206e6f7420696e2070656e64696e67000000000000000000000000000000006064820152608401610c4f565b600081815261010360205260409020805460ff1916600217905561010b548311156125a25760405162461bcd60e51b815260206004820152601c60248201527f456c663a20496e73756666696369656e74206174446973706f73616c000000006044820152606401610c4f565b8261010b60008282546125b591906159d2565b90915550610e9d905084846001612a2a565b600054610100900460ff16158080156125e75750600054600160ff909116105b806126015750303b158015612601575060005460ff166001145b6126735760405162461bcd60e51b815260206004820152602e60248201527f496e697469616c697a61626c653a20636f6e747261637420697320616c72656160448201527f647920696e697469616c697a65640000000000000000000000000000000000006064820152608401610c4f565b6000805460ff191660011790558015612696576000805461ff0019166101001790555b6126a08585613aa2565b6126aa8383613b17565b6126b2613e90565b7fb8aa581effc4a2e306a38dbac6542b2a4b0d933abccc3bfc5d8d811df16083026126db610b05565b805160209182012060408051928301939093529181019190915246606082015230608082015260a00160408051601f198184030181529190528051602090910120610106558015612766576000805461ff0019169055604051600181527f7f26b83ff96e1f2b6a682f133852f6798a09c465da95921460cefb38474024989060200160405180910390a15b5050505050565b336000908152610101602052604090205460ff166127e55760405162461bcd60e51b815260206004820152602f60248201527f536166654f776e61626c655570677261646561626c653a2063616c6c6572206960448201526e39903737ba103a34329037bbb732b960891b6064820152608401610c4f565b6001600160a01b0381166128615760405162461bcd60e51b815260206004820152603560248201527f536166654f776e61626c655570677261646561626c653a206e6577206f776e6560448201527f7220697320746865207a65726f206164647265737300000000000000000000006064820152608401610c4f565b6001600160a01b0381166000908152610101602052604090205460ff16156128f15760405162461bcd60e51b815260206004820152603060248201527f536166654f776e61626c655570677261646561626c653a206e6577206f776e6560448201527f7220616c726561647920657869737473000000000000000000000000000000006064820152608401610c4f565b6111fc81613efd565b61010754156129395760405162461bcd60e51b815260206004820152600b60248201526a115b198e881313d0d2d15160aa1b6044820152606401610c4f565b600161010755610ef982826138a7565b6001600160a01b03163b151590565b6000818152606760205260409020546001600160a01b03166111fc5760405162461bcd60e51b815260206004820152601860248201527f4552433732313a20696e76616c696420746f6b656e20494400000000000000006044820152606401610c4f565b600081815260696020526040902080546001600160a01b0319166001600160a01b03841690811790915581906129f182611950565b6001600160a01b03167f8c5be1e5ebec7d5bd14f71427d1e84f3dd0314c0f7b2291e5b200ac8c7c3b92560405160405180910390a45050565b336000908152610101602052604090205460ff16612aa25760405162461bcd60e51b815260206004820152602f60248201527f536166654f776e61626c655570677261646561626c653a2063616c6c6572206960448201526e39903737ba103a34329037bbb732b960891b6064820152608401610c4f565b60008211612af25760405162461bcd60e51b815260206004820152601360248201527f456c663a20616d6f756e74206973207a65726f000000000000000000000000006044820152606401610c4f565b610105546040517f70a0823100000000000000000000000000000000000000000000000000000000815230600482015283916001600160a01b0316906370a082319060240160206040518083038186803b158015612b4f57600080fd5b505afa158015612b63573d6000803e3d6000fd5b505050506040513d601f19601f82011682018060405250810190612b879190615ab8565b1015612baf5760405162461bcd60e51b81526020600482015260006024820152604401610c4f565b610105546040517fa9059cbb0000000000000000000000000000000000000000000000000000000081526001600160a01b038581166004830152602482018590529091169063a9059cbb90604401602060405180830381600087803b158015612c1757600080fd5b505af1158015612c2b573d6000803e3d6000fd5b505050506040513d601f19601f82011682018060405250810190612c4f9190615ad1565b506040805183815282151560208201526001600160a01b038516917f9ec8fd4891b49aae8ecb56892e6d93818739f52bac238fa16de2076fc8c1790c91015b60405180910390a2505050565b60008111612ceb5760405162461bcd60e51b815260206004820152601360248201527f456c663a20616d6f756e74206973207a65726f000000000000000000000000006044820152606401610c4f565b6001600160a01b038316600090815261010d6020526040902054811115612d545760405162461bcd60e51b815260206004820152601960248201527f456c663a20496e73756666696369656e742062616c616e6365000000000000006044820152606401610c4f565b6001600160a01b038316600090815261010d602052604081208054839290612d7d9084906159d2565b9091555050610105546040517fa9059cbb0000000000000000000000000000000000000000000000000000000081526001600160a01b038481166004830152602482018490529091169063a9059cbb90604401602060405180830381600087803b158015612dea57600080fd5b505af1158015612dfe573d6000803e3d6000fd5b505050506040513d601f19601f82011682018060405250810190612e229190615ad1565b50816001600160a01b03167f884edad9ce6fa2440d8a54cc123490eb96d2768479d49ff9c7366125a942436482604051612c8e91815260200190565b600080612e6a83611950565b9050806001600160a01b0316846001600160a01b03161480612eb157506001600160a01b038082166000908152606a602090815260408083209388168352929052205460ff165b806121c35750836001600160a01b0316612eca84610b97565b6001600160a01b031614949350505050565b826001600160a01b0316612eef82611950565b6001600160a01b031614612f6b5760405162461bcd60e51b815260206004820152602560248201527f4552433732313a207472616e736665722066726f6d20696e636f72726563742060448201527f6f776e65720000000000000000000000000000000000000000000000000000006064820152608401610c4f565b6001600160a01b038216612fe65760405162461bcd60e51b8152602060048201526024808201527f4552433732313a207472616e7366657220746f20746865207a65726f2061646460448201527f72657373000000000000000000000000000000000000000000000000000000006064820152608401610c4f565b612ff16000826129bc565b6001600160a01b038316600090815260686020526040812080546001929061301a9084906159d2565b90915550506001600160a01b0382166000908152606860205260408120805460019290613048908490615a02565b909155505060008181526067602052604080822080546001600160a01b0319166001600160a01b0386811691821790925591518493918716917fddf252ad1be2c89b69c2b068fc378daa952ba7f163c4a11628f55a4df523b3ef91a4505050565b336000908152610101602052604090205460ff166111fc5760405162461bcd60e51b815260206004820152602f60248201527f536166654f776e61626c655570677261646561626c653a2063616c6c6572206960448201526e39903737ba103a34329037bbb732b960891b6064820152608401610c4f565b7f4910fdfa16fed3260ed0e7147f7cc6da11a60208b5b9406d12a635614ffd91435460ff161561315457610cf083613f9e565b826001600160a01b03166352d1902d6040518163ffffffff1660e01b815260040160206040518083038186803b15801561318d57600080fd5b505afa9250505080156131bd575060408051601f3d908101601f191682019092526131ba91810190615ab8565b60015b61322f5760405162461bcd60e51b815260206004820152602e60248201527f45524331393637557067726164653a206e657720696d706c656d656e7461746960448201527f6f6e206973206e6f7420555550530000000000000000000000000000000000006064820152608401610c4f565b7f360894a13ba1a3210667c828492db98dca3e2076cc3735a920a3ca505d382bbc81146132c45760405162461bcd60e51b815260206004820152602960248201527f45524331393637557067726164653a20756e737570706f727465642070726f7860448201527f6961626c655555494400000000000000000000000000000000000000000000006064820152608401610c4f565b50610cf083838361405c565b60006132e06106578585856118f3565b60016000828152610103602052604090205460ff1660038111156133065761330661580f565b146133795760405162461bcd60e51b815260206004820152603060248201527f536166654f776e61626c655570677261646561626c653a206f7065726174696f60448201527f6e206e6f7420696e2070656e64696e67000000000000000000000000000000006064820152608401610c4f565b600081815261010360205260409020805460ff19166002179055610108546133a18682614081565b600081815261010c6020908152604090912086516133c192880190615199565b506133d161010880546001019055565b856001600160a01b03167fd8406a18b0c7572d0adae5f0a479d5d802035e2c506e9353b092d25997f61a628260405161340c91815260200190565b60405180910390a295945050505050565b600080600061342c85856141c3565b9150915061343981614209565b509392505050565b816001600160a01b0316836001600160a01b031614156134a35760405162461bcd60e51b815260206004820152601960248201527f4552433732313a20617070726f766520746f2063616c6c6572000000000000006044820152606401610c4f565b6001600160a01b038381166000818152606a6020908152604080832094871680845294825291829020805460ff191686151590811790915591519182527f17307eab39ab6107e8899845ad3d59bd9653f200f220920489ca2b5937696c31910160405180910390a3505050565b61010654604080516020808201939093527fa6c1b1ddc5c883b2240109b3a9e2ec7fedd7dda99090b92aa0decbd063b9f242818301526060810185905260808082018590528251808303909101815260a0909101909152805191012060009061357890610657565b60016000828152610103602052604090205460ff16600381111561359e5761359e61580f565b146136115760405162461bcd60e51b815260206004820152603060248201527f536166654f776e61626c655570677261646561626c653a206f7065726174696f60448201527f6e206e6f7420696e2070656e64696e67000000000000000000000000000000006064820152608401610c4f565b600081815261010360205260409020805460ff19166002179055336001600160a01b031661363e85611950565b6001600160a01b0316146136ba5760405162461bcd60e51b815260206004820152602d60248201527f456c663a204f6e6c7920746f6b656e206964206f776e65722063616e2075706460448201527f61746520746f6b656e20757269000000000000000000000000000000000000006064820152608401610c4f565b60006136d16101145430633744199660e01b6143fa565b90506137a96040518060400160405280600381526020017f67657400000000000000000000000000000000000000000000000000000000008152506137a1610117805461371d90615987565b80601f016020809104026020016040519081016040528092919081815260200182805461374990615987565b80156137965780601f1061376b57610100808354040283529160200191613796565b820191906000526020600020905b81548152906001019060200180831161377957829003601f168201915b50505050508861448b565b8391906144bf565b61387e6040518060400160405280600481526020017f706174680000000000000000000000000000000000000000000000000000000081525061011880546137f090615987565b80601f016020809104026020016040519081016040528092919081815260200182805461381c90615987565b80156138695780601f1061383e57610100808354040283529160200191613869565b820191906000526020600020905b81548152906001019060200180831161384c57829003601f168201915b5050505050836144bf9092919063ffffffff16565b61388b81610115546144dd565b6000818152610116602052604090208690559250505092915050565b600081116138f75760405162461bcd60e51b815260206004820152601360248201527f456c663a20416d6f756e74206973207a65726f000000000000000000000000006044820152606401610c4f565b610105546001600160a01b03166323b872dd336040516001600160e01b031960e084901b1681526001600160a01b03909116600482015230602482015260448101849052606401602060405180830381600087803b15801561395857600080fd5b505af115801561396c573d6000803e3d6000fd5b505050506040513d601f19601f820116820180604052508101906139909190615ad1565b508061010960008282546139a49190615a02565b90915550506001600160a01b038216600090815261010d6020526040812080548392906139d2908490615a02565b90915550506040518181526001600160a01b038316907fe1fffcc4923d04b559f4d29a8bfc6cda04eb5b0d3c460751c2402c5c5cc9109c9060200160405180910390a25050565b613a24848484612edc565b613a30848484846144f8565b6122fe5760405162461bcd60e51b815260206004820152603260248201527f4552433732313a207472616e7366657220746f206e6f6e20455243373231526560448201527f63656976657220696d706c656d656e74657200000000000000000000000000006064820152608401610c4f565b600054610100900460ff16613b0d5760405162461bcd60e51b815260206004820152602b60248201527f496e697469616c697a61626c653a20636f6e7472616374206973206e6f74206960448201526a6e697469616c697a696e6760a81b6064820152608401610c4f565b61153a828261468d565b600054610100900460ff16613b825760405162461bcd60e51b815260206004820152602b60248201527f496e697469616c697a61626c653a20636f6e7472616374206973206e6f74206960448201526a6e697469616c697a696e6760a81b6064820152608401610c4f565b815160051015613bfa5760405162461bcd60e51b815260206004820152603360248201527f536166654f776e61626c655570677261646561626c653a657863656564206d6160448201527f78696d756d206e756d626572206f776e657273000000000000000000000000006064820152608401610c4f565b60ff8116613c705760405162461bcd60e51b815260206004820152602c60248201527f536166654f776e61626c655570677261646561626c653a207369676e5265717560448201527f69726564206973207a65726f00000000000000000000000000000000000000006064820152608401610c4f565b610102805461ff00191661010060ff84160217905560005b8251811015613e0b576000838281518110613ca557613ca5615a87565b6020908102919091018101516001600160a01b038116600090815261010190925260409091205490915060ff1615613d455760405162461bcd60e51b815260206004820152602c60248201527f536166654f776e61626c655570677261646561626c653a206f776e657220616c60448201527f72656164792065786973747300000000000000000000000000000000000000006064820152608401610c4f565b6101028054829160fb91600090613d5e9060ff16615a67565b91906101000a81548160ff021916908360ff160217905560ff1660068110613d8857613d88615a87565b0180546001600160a01b039283166001600160a01b03199091161790556101025490821660008181526101016020526040808220805460ff191660ff9095169490941790935591519091907f8be0079c531659141344cd1fd0a4f28419497f9722a3daafe3b4186f6b6457e0908290a35080613e0381615a9d565b915050613c88565b506101025460ff80821661010090920416111561153a5760405162461bcd60e51b815260206004820152603560248201527f536166654f776e61626c655570677261646561626c653a206f776e657273206c60448201527f657373207468616e207369676e526571756972656400000000000000000000006064820152608401610c4f565b600054610100900460ff16613efb5760405162461bcd60e51b815260206004820152602b60248201527f496e697469616c697a61626c653a20636f6e7472616374206973206e6f74206960448201526a6e697469616c697a696e6760a81b6064820152608401610c4f565b565b336000818152610101602052604090205460ff168260fb8260068110613f2557613f25615a87565b0180546001600160a01b0319166001600160a01b0392831617905582811660008181526101016020526040808220805460ff19908116909155938716808352818320805490951660ff871617909455517f8be0079c531659141344cd1fd0a4f28419497f9722a3daafe3b4186f6b6457e09190a3505050565b6001600160a01b0381163b61401b5760405162461bcd60e51b815260206004820152602d60248201527f455243313936373a206e657720696d706c656d656e746174696f6e206973206e60448201527f6f74206120636f6e7472616374000000000000000000000000000000000000006064820152608401610c4f565b7f360894a13ba1a3210667c828492db98dca3e2076cc3735a920a3ca505d382bbc80546001600160a01b0319166001600160a01b0392909216919091179055565b6140658361471f565b6000825111806140725750805b15610cf0576122fe838361475f565b6001600160a01b0382166140d75760405162461bcd60e51b815260206004820181905260248201527f4552433732313a206d696e7420746f20746865207a65726f20616464726573736044820152606401610c4f565b6000818152606760205260409020546001600160a01b03161561413c5760405162461bcd60e51b815260206004820152601c60248201527f4552433732313a20746f6b656e20616c7265616479206d696e746564000000006044820152606401610c4f565b6001600160a01b0382166000908152606860205260408120805460019290614165908490615a02565b909155505060008181526067602052604080822080546001600160a01b0319166001600160a01b03861690811790915590518392907fddf252ad1be2c89b69c2b068fc378daa952ba7f163c4a11628f55a4df523b3ef908290a45050565b6000808251604114156141fa5760208301516040840151606085015160001a6141ee87828585614861565b94509450505050614202565b506000905060025b9250929050565b600081600481111561421d5761421d61580f565b14156142265750565b600181600481111561423a5761423a61580f565b14156142885760405162461bcd60e51b815260206004820152601860248201527f45434453413a20696e76616c6964207369676e617475726500000000000000006044820152606401610c4f565b600281600481111561429c5761429c61580f565b14156142ea5760405162461bcd60e51b815260206004820152601f60248201527f45434453413a20696e76616c6964207369676e6174757265206c656e677468006044820152606401610c4f565b60038160048111156142fe576142fe61580f565b14156143725760405162461bcd60e51b815260206004820152602260248201527f45434453413a20696e76616c6964207369676e6174757265202773272076616c60448201527f75650000000000000000000000000000000000000000000000000000000000006064820152608401610c4f565b60048160048111156143865761438661580f565b14156111fc5760405162461bcd60e51b815260206004820152602260248201527f45434453413a20696e76616c6964207369676e6174757265202776272076616c60448201527f75650000000000000000000000000000000000000000000000000000000000006064820152608401610c4f565b6144386040805160a0810182526000808252602080830182905282840182905260608084018390528451808601909552845283015290608082015290565b6144766040805160a0810182526000808252602080830182905282840182905260608084018390528451808601909552845283015290608082015290565b6144828186868661494e565b95945050505050565b606082614497836149c1565b6040516020016144a8929190615aee565b604051602081830303815290604052905092915050565b60808301516144ce9083614b09565b6080830151610cf09082614b09565b61011154600090611610906001600160a01b03168484614b20565b60006001600160a01b0384163b15614682576040517f150b7a020000000000000000000000000000000000000000000000000000000081526001600160a01b0385169063150b7a0290614555903390899088908890600401615b1d565b602060405180830381600087803b15801561456f57600080fd5b505af192505050801561459f575060408051601f3d908101601f1916820190925261459c91810190615b4f565b60015b61464f573d8080156145cd576040519150601f19603f3d011682016040523d82523d6000602084013e6145d2565b606091505b5080516146475760405162461bcd60e51b815260206004820152603260248201527f4552433732313a207472616e7366657220746f206e6f6e20455243373231526560448201527f63656976657220696d706c656d656e74657200000000000000000000000000006064820152608401610c4f565b805181602001fd5b6001600160e01b0319167f150b7a02000000000000000000000000000000000000000000000000000000001490506121c3565b506001949350505050565b600054610100900460ff166146f85760405162461bcd60e51b815260206004820152602b60248201527f496e697469616c697a61626c653a20636f6e7472616374206973206e6f74206960448201526a6e697469616c697a696e6760a81b6064820152608401610c4f565b815161470b906065906020850190615199565b508051610cf0906066906020840190615199565b61472881613f9e565b6040516001600160a01b038216907fbc7cd75a20ee27fd9adebab32041f755214dbc6bffa90cc0225b39da2e5c2d3b90600090a250565b60606001600160a01b0383163b6147de5760405162461bcd60e51b815260206004820152602660248201527f416464726573733a2064656c65676174652063616c6c20746f206e6f6e2d636f60448201527f6e747261637400000000000000000000000000000000000000000000000000006064820152608401610c4f565b600080846001600160a01b0316846040516147f99190615b6c565b600060405180830381855af49150503d8060008114614834576040519150601f19603f3d011682016040523d82523d6000602084013e614839565b606091505b50915091506144828282604051806060016040528060278152602001615d7960279139614be3565b6000807f7fffffffffffffffffffffffffffffff5d576e7357a4501ddfe92f46681b20a08311156148985750600090506003614945565b8460ff16601b141580156148b057508460ff16601c14155b156148c15750600090506004614945565b6040805160008082526020820180845289905260ff881692820192909252606081018690526080810185905260019060a0016020604051602081039080840390855afa158015614915573d6000803e3d6000fd5b5050604051601f1901519150506001600160a01b03811661493e57600060019250925050614945565b9150600090505b94509492505050565b61498c6040805160a0810182526000808252602080830182905282840182905260608084018390528451808601909552845283015290608082015290565b61499c8560800151610100614c1c565b50509183526001600160a01b031660208301526001600160e01b031916604082015290565b606081614a0157505060408051808201909152600181527f3000000000000000000000000000000000000000000000000000000000000000602082015290565b8160005b8115614a2b5780614a1581615a9d565b9150614a249050600a83615b9e565b9150614a05565b60008167ffffffffffffffff811115614a4657614a466153d7565b6040519080825280601f01601f191660200182016040528015614a70576020820181803683370190505b5090506000614a806001846159d2565b90505b8515614b0057614a94600a87615bb2565b614a9f906030615a02565b60f81b8282614aad81615bc6565b935081518110614abf57614abf615a87565b60200101907effffffffffffffffffffffffffffffffffffffffffffffffffffffffffffff1916908160001a905350614af9600a87615b9e565b9550614a83565b50949350505050565b614b168260038351614c81565b610cf08282614d90565b61011254600090614b32816001615a02565b61011255835160408086015160808701515191516000937f404299460000000000000000000000000000000000000000000000000000000093614b849386938493923092918a91600191602401615bdd565b60408051601f198184030181529190526020810180517bffffffffffffffffffffffffffffffffffffffffffffffffffffffff166001600160e01b0319909316929092179091529050614bd986838684614db7565b9695505050505050565b60608315614bf2575081611610565b825115614c025782518084602001fd5b8160405162461bcd60e51b8152600401610c4f91906152db565b604080518082019091526060815260006020820152614c3c602083615bb2565b15614c6457614c4c602083615bb2565b614c579060206159d2565b614c619083615a02565b91505b506020828101829052604080518085526000815290920101905290565b60178167ffffffffffffffff1611614ca6576122fe8360e0600585901b168317614f59565b60ff8167ffffffffffffffff1611614ce457614ccd836018611fe0600586901b1617614f59565b506122fe8367ffffffffffffffff83166001614f7e565b61ffff8167ffffffffffffffff1611614d2357614d0c836019611fe0600586901b1617614f59565b506122fe8367ffffffffffffffff83166002614f7e565b63ffffffff8167ffffffffffffffff1611614d6457614d4d83601a611fe0600586901b1617614f59565b506122fe8367ffffffffffffffff83166004614f7e565b614d7983601b611fe0600586901b1617614f59565b506122fe8367ffffffffffffffff83166008614f7e565b60408051808201909152606081526000602082015261161083846000015151848551614fa4565b6040516bffffffffffffffffffffffff193060601b1660208201526034810184905260009060540160408051808303601f190181528282528051602091820120600081815261011390925291812080546001600160a01b0319166001600160a01b038a1617905590925082917fb5e6e01e79f91267dc17b4e6314d5d4d03593d2ceee0fbb452b750bd70ea5af99190a2610110546040517f4000aea00000000000000000000000000000000000000000000000000000000081526001600160a01b0390911690634000aea090614e9590889087908790600401615c41565b602060405180830381600087803b158015614eaf57600080fd5b505af1158015614ec3573d6000803e3d6000fd5b505050506040513d601f19601f82011682018060405250810190614ee79190615ad1565b6121c35760405162461bcd60e51b815260206004820152602360248201527f756e61626c6520746f207472616e73666572416e6443616c6c20746f206f726160448201527f636c6500000000000000000000000000000000000000000000000000000000006064820152608401610c4f565b604080518082019091526060815260006020820152611610838460000151518461508e565b6040805180820190915260608152600060208201526121c38485600001515185856150ea565b6040805180820190915260608152600060208201528251821115614fc757600080fd5b6020850151614fd68386615a02565b11156150095761500985614ff987602001518786614ff49190615a02565b61516b565b615004906002615c69565b615182565b6000808651805187602083010193508088870111156150285787860182525b505050602084015b602084106150685780518252615047602083615a02565b9150615054602082615a02565b90506150616020856159d2565b9350615030565b51815160001960208690036101000a019081169019919091161790525083949350505050565b604080518082019091526060815260006020820152836020015183106150c3576150c384856020015160026150049190615c69565b8351805160208583010184815350808514156150e0576001810182525b5093949350505050565b604080518082019091526060815260006020820152602085015161510e8584615a02565b11156151225761512285614ff98685615a02565b6000600161513284610100615d6c565b61513c91906159d2565b90508551838682010185831982511617815250805184870111156151605783860181525b509495945050505050565b60008183111561517c575081610aff565b50919050565b815161518e8383614c1c565b506122fe8382614d90565b8280546151a590615987565b90600052602060002090601f0160209004810192826151c7576000855561520d565b82601f106151e057805160ff191683800117855561520d565b8280016001018555821561520d579182015b8281111561520d5782518255916020019190600101906151f2565b5061521992915061523b565b5090565b6040518060c001604052806006906020820280368337509192915050565b5b80821115615219576000815560010161523c565b6001600160e01b0319811681146111fc57600080fd5b60006020828403121561527857600080fd5b813561161081615250565b60005b8381101561529e578181015183820152602001615286565b838111156122fe5750506000910152565b600081518084526152c7816020860160208601615283565b601f01601f19169290920160200192915050565b60208152600061161060208301846152af565b60006020828403121561530057600080fd5b5035919050565b80356001600160a01b038116811461531e57600080fd5b919050565b6000806040838503121561533657600080fd5b61533f83615307565b946020939093013593505050565b60008060006060848603121561536257600080fd5b61536b84615307565b95602085013595506040909401359392505050565b60008060006060848603121561539557600080fd5b61539e84615307565b92506153ac60208501615307565b9150604084013590509250925092565b6000602082840312156153ce57600080fd5b61161082615307565b634e487b7160e01b600052604160045260246000fd5b604051601f8201601f1916810167ffffffffffffffff81118282101715615416576154166153d7565b604052919050565b600082601f83011261542f57600080fd5b813567ffffffffffffffff811115615449576154496153d7565b61545c6020601f19601f840116016153ed565b81815284602083860101111561547157600080fd5b816020850160208301376000918101602001919091529392505050565b600080604083850312156154a157600080fd5b82359150602083013567ffffffffffffffff8111156154bf57600080fd5b6154cb8582860161541e565b9150509250929050565b600080600080608085870312156154eb57600080fd5b6154f485615307565b935061550260208601615307565b93969395505050506040820135916060013590565b60006020828403121561552957600080fd5b813567ffffffffffffffff81111561554057600080fd5b6121c38482850161541e565b6000806040838503121561555f57600080fd5b823567ffffffffffffffff81111561557657600080fd5b6155828582860161541e565b95602094909401359450505050565b600080604083850312156155a457600080fd5b6155ad83615307565b9150602083013567ffffffffffffffff8111156154bf57600080fd5b6000806000606084860312156155de57600080fd5b6155e784615307565b9250602084013567ffffffffffffffff81111561560357600080fd5b61560f8682870161541e565b925050604084013590509250925092565b600067ffffffffffffffff82111561563a5761563a6153d7565b5060051b60200190565b6000806040838503121561565757600080fd5b8235915060208084013567ffffffffffffffff8082111561567757600080fd5b818601915086601f83011261568b57600080fd5b813561569e61569982615620565b6153ed565b81815260059190911b830184019084810190898311156156bd57600080fd5b8585015b838110156156f5578035858111156156d95760008081fd5b6156e78c89838a010161541e565b8452509186019186016156c1565b508096505050505050509250929050565b6000806040838503121561571957600080fd5b50508035926020909101359150565b80151581146111fc57600080fd5b6000806040838503121561574957600080fd5b61575283615307565b9150602083013561576281615728565b809150509250929050565b60c08101818360005b600681101561579e5781516001600160a01b0316835260209283019290910190600101615776565b50505092915050565b600080600080608085870312156157bd57600080fd5b6157c685615307565b93506157d460208601615307565b925060408501359150606085013567ffffffffffffffff8111156157f757600080fd5b6158038782880161541e565b91505092959194509250565b634e487b7160e01b600052602160045260246000fd5b602081016004831061584757634e487b7160e01b600052602160045260246000fd5b91905290565b6000806040838503121561586057600080fd5b61586983615307565b915061587760208401615307565b90509250929050565b803560ff8116811461531e57600080fd5b600080600080608085870312156158a757600080fd5b843567ffffffffffffffff808211156158bf57600080fd5b6158cb8883890161541e565b95506020915081870135818111156158e257600080fd5b6158ee89828a0161541e565b95505060408701358181111561590357600080fd5b87019050601f8101881361591657600080fd5b803561592461569982615620565b81815260059190911b8201830190838101908a83111561594357600080fd5b928401925b828410156159685761595984615307565b82529284019290840190615948565b809650505050505061597c60608601615880565b905092959194509250565b600181811c9082168061599b57607f821691505b6020821081141561517c57634e487b7160e01b600052602260045260246000fd5b634e487b7160e01b600052601160045260246000fd5b6000828210156159e4576159e46159bc565b500390565b8281526040602082015260006121c360408301846152af565b60008219821115615a1557615a156159bc565b500190565b8581528460208201526bffffffffffffffffffffffff198460601b16604082015260008351615a50816054850160208801615283565b605492019182019290925260740195945050505050565b600060ff821660ff811415615a7e57615a7e6159bc565b60010192915050565b634e487b7160e01b600052603260045260246000fd5b6000600019821415615ab157615ab16159bc565b5060010190565b600060208284031215615aca57600080fd5b5051919050565b600060208284031215615ae357600080fd5b815161161081615728565b60008351615b00818460208801615283565b835190830190615b14818360208801615283565b01949350505050565b60006001600160a01b03808716835280861660208401525083604083015260806060830152614bd960808301846152af565b600060208284031215615b6157600080fd5b815161161081615250565b60008251615b7e818460208701615283565b9190910192915050565b634e487b7160e01b600052601260045260246000fd5b600082615bad57615bad615b88565b500490565b600082615bc157615bc1615b88565b500690565b600081615bd557615bd56159bc565b506000190190565b60006101006001600160a01b03808c1684528a60208501528960408501528089166060850152506001600160e01b0319871660808401528560a08401528460c08401528060e0840152615c32818401856152af565b9b9a5050505050505050505050565b6001600160a01b038416815282602082015260606040820152600061448260608301846152af565b6000816000190483118215151615615c8357615c836159bc565b500290565b600181815b80851115615cc3578160001904821115615ca957615ca96159bc565b80851615615cb657918102915b93841c9390800290615c8d565b509250929050565b600082615cda57506001610aff565b81615ce757506000610aff565b8160018114615cfd5760028114615d0757615d23565b6001915050610aff565b60ff841115615d1857615d186159bc565b50506001821b610aff565b5060208310610133831016604e8410600b8410161715615d46575081810a610aff565b615d508383615c88565b8060001904821115615d6457615d646159bc565b029392505050565b60006116108383615ccb56fe416464726573733a206c6f772d6c6576656c2064656c65676174652063616c6c206661696c6564a26469706673582212208fee94806a02e225df85cef44973cb316b0dc6224c0ae0e251d434063182503c64736f6c63430008090033",
  "devdoc": {
    "kind": "dev",
    "methods": {
      "approve(address,uint256)": {
        "details": "See {IERC721-approve}."
      },
      "balanceOf(address)": {
        "details": "See {IERC721-balanceOf}."
      },
      "getApproved(uint256)": {
        "details": "See {IERC721-getApproved}."
      },
      "isApprovedForAll(address,address)": {
        "details": "See {IERC721-isApprovedForAll}."
      },
      "name()": {
        "details": "See {IERC721Metadata-name}."
      },
      "ownerOf(uint256)": {
        "details": "See {IERC721-ownerOf}."
      },
      "proxiableUUID()": {
        "details": "Implementation of the ERC1822 {proxiableUUID} function. This returns the storage slot used by the implementation. It is used to validate that the this implementation remains valid after an upgrade. IMPORTANT: A proxy pointing at a proxiable contract should not be considered proxiable itself, because this risks bricking a proxy that upgrades to it, by delegating to itself until out of gas. Thus it is critical that this function revert if invoked through a proxy. This is guaranteed by the `notDelegated` modifier."
      },
      "safeTransferFrom(address,address,uint256)": {
        "details": "See {IERC721-safeTransferFrom}."
      },
      "safeTransferFrom(address,address,uint256,bytes)": {
        "details": "See {IERC721-safeTransferFrom}."
      },
      "setApprovalForAll(address,bool)": {
        "details": "See {IERC721-setApprovalForAll}."
      },
      "supportsInterface(bytes4)": {
        "details": "See {IERC165-supportsInterface}."
      },
      "symbol()": {
        "details": "See {IERC721Metadata-symbol}."
      },
      "tokenURI(uint256)": {
        "details": "See {IERC721Metadata-tokenURI}."
      },
      "transferFrom(address,address,uint256)": {
        "details": "See {IERC721-transferFrom}."
      },
      "transferOwnership(address)": {
        "details": "Transfers ownership of the contract to a new account (`newOwner`). Can only be called by the current owner."
      },
      "upgradeTo(address)": {
        "details": "Upgrade the implementation of the proxy to `newImplementation`. Calls {_authorizeUpgrade}. Emits an {Upgraded} event."
      },
      "upgradeToAndCall(address,bytes)": {
        "details": "Upgrade the implementation of the proxy to `newImplementation`, and subsequently execute the function call encoded in `data`. Calls {_authorizeUpgrade}. Emits an {Upgraded} event."
      }
    },
    "version": 1
  },
  "userdoc": {
    "kind": "user",
    "methods": {},
    "version": 1
  },
  "storageLayout": {
    "storage": [
      {
        "astId": 1978,
        "contract": "contracts/ERC721/Elf.sol:VM3Elf",
        "label": "_initialized",
        "offset": 0,
        "slot": "0",
        "type": "t_uint8"
      },
      {
        "astId": 1981,
        "contract": "contracts/ERC721/Elf.sol:VM3Elf",
        "label": "_initializing",
        "offset": 1,
        "slot": "0",
        "type": "t_bool"
      },
      {
        "astId": 3990,
        "contract": "contracts/ERC721/Elf.sol:VM3Elf",
        "label": "__gap",
        "offset": 0,
        "slot": "1",
        "type": "t_array(t_uint256)50_storage"
      },
      {
        "astId": 4320,
        "contract": "contracts/ERC721/Elf.sol:VM3Elf",
        "label": "__gap",
        "offset": 0,
        "slot": "51",
        "type": "t_array(t_uint256)50_storage"
      },
      {
        "astId": 2682,
        "contract": "contracts/ERC721/Elf.sol:VM3Elf",
        "label": "_name",
        "offset": 0,
        "slot": "101",
        "type": "t_string_storage"
      },
      {
        "astId": 2684,
        "contract": "contracts/ERC721/Elf.sol:VM3Elf",
        "label": "_symbol",
        "offset": 0,
        "slot": "102",
        "type": "t_string_storage"
      },
      {
        "astId": 2688,
        "contract": "contracts/ERC721/Elf.sol:VM3Elf",
        "label": "_owners",
        "offset": 0,
        "slot": "103",
        "type": "t_mapping(t_uint256,t_address)"
      },
      {
        "astId": 2692,
        "contract": "contracts/ERC721/Elf.sol:VM3Elf",
        "label": "_balances",
        "offset": 0,
        "slot": "104",
        "type": "t_mapping(t_address,t_uint256)"
      },
      {
        "astId": 2696,
        "contract": "contracts/ERC721/Elf.sol:VM3Elf",
        "label": "_tokenApprovals",
        "offset": 0,
        "slot": "105",
        "type": "t_mapping(t_uint256,t_address)"
      },
      {
        "astId": 2702,
        "contract": "contracts/ERC721/Elf.sol:VM3Elf",
        "label": "_operatorApprovals",
        "offset": 0,
        "slot": "106",
        "type": "t_mapping(t_address,t_mapping(t_address,t_bool))"
      },
      {
        "astId": 3544,
        "contract": "contracts/ERC721/Elf.sol:VM3Elf",
        "label": "__gap",
        "offset": 0,
        "slot": "107",
        "type": "t_array(t_uint256)44_storage"
      },
      {
        "astId": 1960,
        "contract": "contracts/ERC721/Elf.sol:VM3Elf",
        "label": "__gap",
        "offset": 0,
        "slot": "151",
        "type": "t_array(t_uint256)50_storage"
      },
      {
        "astId": 2257,
        "contract": "contracts/ERC721/Elf.sol:VM3Elf",
        "label": "__gap",
        "offset": 0,
        "slot": "201",
        "type": "t_array(t_uint256)50_storage"
      },
      {
        "astId": 5047,
        "contract": "contracts/ERC721/Elf.sol:VM3Elf",
        "label": "_owners",
        "offset": 0,
        "slot": "251",
        "type": "t_array(t_address)6_storage"
      },
      {
        "astId": 5051,
        "contract": "contracts/ERC721/Elf.sol:VM3Elf",
        "label": "_ownersIndex",
        "offset": 0,
        "slot": "257",
        "type": "t_mapping(t_address,t_uint8)"
      },
      {
        "astId": 5053,
        "contract": "contracts/ERC721/Elf.sol:VM3Elf",
        "label": "_numOwners",
        "offset": 0,
        "slot": "258",
        "type": "t_uint8"
      },
      {
        "astId": 5058,
        "contract": "contracts/ERC721/Elf.sol:VM3Elf",
        "label": "signRequired",
        "offset": 1,
        "slot": "258",
        "type": "t_uint8"
      },
      {
        "astId": 5063,
        "contract": "contracts/ERC721/Elf.sol:VM3Elf",
        "label": "operationsStatus",
        "offset": 0,
        "slot": "259",
        "type": "t_mapping(t_bytes32,t_enum(OpStatus)5043)"
      },
      {
        "astId": 5065,
        "contract": "contracts/ERC721/Elf.sol:VM3Elf",
        "label": "nonce",
        "offset": 0,
        "slot": "260",
        "type": "t_uint256"
      },
      {
        "astId": 6444,
        "contract": "contracts/ERC721/Elf.sol:VM3Elf",
        "label": "ERC20Token",
        "offset": 0,
        "slot": "261",
        "type": "t_contract(IERC20)4411"
      },
      {
        "astId": 6446,
        "contract": "contracts/ERC721/Elf.sol:VM3Elf",
        "label": "DOMAIN",
        "offset": 0,
        "slot": "262",
        "type": "t_bytes32"
      },
      {
        "astId": 6448,
        "contract": "contracts/ERC721/Elf.sol:VM3Elf",
        "label": "locked",
        "offset": 0,
        "slot": "263",
        "type": "t_uint256"
      },
      {
        "astId": 6450,
        "contract": "contracts/ERC721/Elf.sol:VM3Elf",
        "label": "_tokenIdCounter",
        "offset": 0,
        "slot": "264",
        "type": "t_uint256"
      },
      {
        "astId": 6452,
        "contract": "contracts/ERC721/Elf.sol:VM3Elf",
        "label": "totalERC20Token",
        "offset": 0,
        "slot": "265",
        "type": "t_uint256"
      },
      {
        "astId": 6454,
        "contract": "contracts/ERC721/Elf.sol:VM3Elf",
        "label": "_costs",
        "offset": 0,
        "slot": "266",
        "type": "t_uint256"
      },
      {
        "astId": 6456,
        "contract": "contracts/ERC721/Elf.sol:VM3Elf",
        "label": "atDisposal",
        "offset": 0,
        "slot": "267",
        "type": "t_uint256"
      },
      {
        "astId": 6460,
        "contract": "contracts/ERC721/Elf.sol:VM3Elf",
        "label": "_tokenURIs",
        "offset": 0,
        "slot": "268",
        "type": "t_mapping(t_uint256,t_string_storage)"
      },
      {
        "astId": 6464,
        "contract": "contracts/ERC721/Elf.sol:VM3Elf",
        "label": "_depositAmounts",
        "offset": 0,
        "slot": "269",
        "type": "t_mapping(t_address,t_uint256)"
      },
      {
        "astId": 5475,
        "contract": "contracts/ERC721/Elf.sol:VM3Elf",
        "label": "s_ens",
        "offset": 0,
        "slot": "270",
        "type": "t_contract(ENSInterface)381"
      },
      {
        "astId": 5477,
        "contract": "contracts/ERC721/Elf.sol:VM3Elf",
        "label": "s_ensNode",
        "offset": 0,
        "slot": "271",
        "type": "t_bytes32"
      },
      {
        "astId": 5480,
        "contract": "contracts/ERC721/Elf.sol:VM3Elf",
        "label": "s_link",
        "offset": 0,
        "slot": "272",
        "type": "t_contract(LinkTokenInterface)476"
      },
      {
        "astId": 5483,
        "contract": "contracts/ERC721/Elf.sol:VM3Elf",
        "label": "s_oracle",
        "offset": 0,
        "slot": "273",
        "type": "t_contract(OperatorInterface)556"
      },
      {
        "astId": 5485,
        "contract": "contracts/ERC721/Elf.sol:VM3Elf",
        "label": "s_requestCount",
        "offset": 0,
        "slot": "274",
        "type": "t_uint256"
      },
      {
        "astId": 5489,
        "contract": "contracts/ERC721/Elf.sol:VM3Elf",
        "label": "s_pendingRequests",
        "offset": 0,
        "slot": "275",
        "type": "t_mapping(t_bytes32,t_address)"
      },
      {
        "astId": 6047,
        "contract": "contracts/ERC721/Elf.sol:VM3Elf",
        "label": "jobId",
        "offset": 0,
        "slot": "276",
        "type": "t_bytes32"
      },
      {
        "astId": 6049,
        "contract": "contracts/ERC721/Elf.sol:VM3Elf",
        "label": "fee",
        "offset": 0,
        "slot": "277",
        "type": "t_uint256"
      },
      {
        "astId": 6053,
        "contract": "contracts/ERC721/Elf.sol:VM3Elf",
        "label": "_requestIds",
        "offset": 0,
        "slot": "278",
        "type": "t_mapping(t_bytes32,t_uint256)"
      },
      {
        "astId": 6055,
        "contract": "contracts/ERC721/Elf.sol:VM3Elf",
        "label": "requestApi",
        "offset": 0,
        "slot": "279",
        "type": "t_string_storage"
      },
      {
        "astId": 6057,
        "contract": "contracts/ERC721/Elf.sol:VM3Elf",
        "label": "requestPath",
        "offset": 0,
        "slot": "280",
        "type": "t_string_storage"
      }
    ],
    "types": {
      "t_address": {
        "encoding": "inplace",
        "label": "address",
        "numberOfBytes": "20"
      },
      "t_array(t_address)6_storage": {
        "base": "t_address",
        "encoding": "inplace",
        "label": "address[6]",
        "numberOfBytes": "192"
      },
      "t_array(t_uint256)44_storage": {
        "base": "t_uint256",
        "encoding": "inplace",
        "label": "uint256[44]",
        "numberOfBytes": "1408"
      },
      "t_array(t_uint256)50_storage": {
        "base": "t_uint256",
        "encoding": "inplace",
        "label": "uint256[50]",
        "numberOfBytes": "1600"
      },
      "t_bool": {
        "encoding": "inplace",
        "label": "bool",
        "numberOfBytes": "1"
      },
      "t_bytes32": {
        "encoding": "inplace",
        "label": "bytes32",
        "numberOfBytes": "32"
      },
      "t_contract(ENSInterface)381": {
        "encoding": "inplace",
        "label": "contract ENSInterface",
        "numberOfBytes": "20"
      },
      "t_contract(IERC20)4411": {
        "encoding": "inplace",
        "label": "contract IERC20",
        "numberOfBytes": "20"
      },
      "t_contract(LinkTokenInterface)476": {
        "encoding": "inplace",
        "label": "contract LinkTokenInterface",
        "numberOfBytes": "20"
      },
      "t_contract(OperatorInterface)556": {
        "encoding": "inplace",
        "label": "contract OperatorInterface",
        "numberOfBytes": "20"
      },
      "t_enum(OpStatus)5043": {
        "encoding": "inplace",
        "label": "enum SafeOwnableUpgradeable.OpStatus",
        "numberOfBytes": "1"
      },
      "t_mapping(t_address,t_bool)": {
        "encoding": "mapping",
        "key": "t_address",
        "label": "mapping(address => bool)",
        "numberOfBytes": "32",
        "value": "t_bool"
      },
      "t_mapping(t_address,t_mapping(t_address,t_bool))": {
        "encoding": "mapping",
        "key": "t_address",
        "label": "mapping(address => mapping(address => bool))",
        "numberOfBytes": "32",
        "value": "t_mapping(t_address,t_bool)"
      },
      "t_mapping(t_address,t_uint256)": {
        "encoding": "mapping",
        "key": "t_address",
        "label": "mapping(address => uint256)",
        "numberOfBytes": "32",
        "value": "t_uint256"
      },
      "t_mapping(t_address,t_uint8)": {
        "encoding": "mapping",
        "key": "t_address",
        "label": "mapping(address => uint8)",
        "numberOfBytes": "32",
        "value": "t_uint8"
      },
      "t_mapping(t_bytes32,t_address)": {
        "encoding": "mapping",
        "key": "t_bytes32",
        "label": "mapping(bytes32 => address)",
        "numberOfBytes": "32",
        "value": "t_address"
      },
      "t_mapping(t_bytes32,t_enum(OpStatus)5043)": {
        "encoding": "mapping",
        "key": "t_bytes32",
        "label": "mapping(bytes32 => enum SafeOwnableUpgradeable.OpStatus)",
        "numberOfBytes": "32",
        "value": "t_enum(OpStatus)5043"
      },
      "t_mapping(t_bytes32,t_uint256)": {
        "encoding": "mapping",
        "key": "t_bytes32",
        "label": "mapping(bytes32 => uint256)",
        "numberOfBytes": "32",
        "value": "t_uint256"
      },
      "t_mapping(t_uint256,t_address)": {
        "encoding": "mapping",
        "key": "t_uint256",
        "label": "mapping(uint256 => address)",
        "numberOfBytes": "32",
        "value": "t_address"
      },
      "t_mapping(t_uint256,t_string_storage)": {
        "encoding": "mapping",
        "key": "t_uint256",
        "label": "mapping(uint256 => string)",
        "numberOfBytes": "32",
        "value": "t_string_storage"
      },
      "t_string_storage": {
        "encoding": "bytes",
        "label": "string",
        "numberOfBytes": "32"
      },
      "t_uint256": {
        "encoding": "inplace",
        "label": "uint256",
        "numberOfBytes": "32"
      },
      "t_uint8": {
        "encoding": "inplace",
        "label": "uint8",
        "numberOfBytes": "1"
      }
    }
  }
}