{
  "address": "0x07Ac068075d788F3ddC32Df044dE0fD278E01f29",
  "abi": [
    {
      "inputs": [],
      "stateMutability": "nonpayable",
      "type": "constructor"
    },
    {
      "anonymous": false,
      "inputs": [
        {
          "indexed": false,
          "internalType": "address",
          "name": "previousAdmin",
          "type": "address"
        },
        {
          "indexed": false,
          "internalType": "address",
          "name": "newAdmin",
          "type": "address"
        }
      ],
      "name": "AdminChanged",
      "type": "event"
    },
    {
      "anonymous": false,
      "inputs": [
        {
          "indexed": true,
          "internalType": "address",
          "name": "owner",
          "type": "address"
        },
        {
          "indexed": true,
          "internalType": "address",
          "name": "approved",
          "type": "address"
        },
        {
          "indexed": true,
          "internalType": "uint256",
          "name": "tokenId",
          "type": "uint256"
        }
      ],
      "name": "Approval",
      "type": "event"
    },
    {
      "anonymous": false,
      "inputs": [
        {
          "indexed": true,
          "internalType": "address",
          "name": "owner",
          "type": "address"
        },
        {
          "indexed": true,
          "internalType": "address",
          "name": "operator",
          "type": "address"
        },
        {
          "indexed": false,
          "internalType": "bool",
          "name": "approved",
          "type": "bool"
        }
      ],
      "name": "ApprovalForAll",
      "type": "event"
    },
    {
      "anonymous": false,
      "inputs": [
        {
          "indexed": true,
          "internalType": "address",
          "name": "beacon",
          "type": "address"
        }
      ],
      "name": "BeaconUpgraded",
      "type": "event"
    },
    {
      "anonymous": false,
      "inputs": [
        {
          "indexed": true,
          "internalType": "address",
          "name": "user",
          "type": "address"
        },
        {
          "indexed": false,
          "internalType": "uint256",
          "name": "tokenId",
          "type": "uint256"
        }
      ],
      "name": "Build",
      "type": "event"
    },
    {
      "anonymous": false,
      "inputs": [
        {
          "indexed": true,
          "internalType": "address",
          "name": "user",
          "type": "address"
        },
        {
          "indexed": false,
          "internalType": "uint256",
          "name": "amount",
          "type": "uint256"
        }
      ],
      "name": "Deposit",
      "type": "event"
    },
    {
      "anonymous": false,
      "inputs": [
        {
          "indexed": false,
          "internalType": "uint8",
          "name": "version",
          "type": "uint8"
        }
      ],
      "name": "Initialized",
      "type": "event"
    },
    {
      "anonymous": false,
      "inputs": [
        {
          "indexed": true,
          "internalType": "bytes32",
          "name": "opHash",
          "type": "bytes32"
        }
      ],
      "name": "OperationAdded",
      "type": "event"
    },
    {
      "anonymous": false,
      "inputs": [
        {
          "indexed": true,
          "internalType": "address",
          "name": "previousOwner",
          "type": "address"
        },
        {
          "indexed": true,
          "internalType": "address",
          "name": "newOwner",
          "type": "address"
        }
      ],
      "name": "OwnershipTransferred",
      "type": "event"
    },
    {
      "anonymous": false,
      "inputs": [
        {
          "indexed": true,
          "internalType": "address",
          "name": "user",
          "type": "address"
        },
        {
          "indexed": false,
          "internalType": "uint256",
          "name": "amount",
          "type": "uint256"
        },
        {
          "indexed": false,
          "internalType": "bool",
          "name": "Disposal",
          "type": "bool"
        }
      ],
      "name": "Refund",
      "type": "event"
    },
    {
      "anonymous": false,
      "inputs": [
        {
          "indexed": true,
          "internalType": "address",
          "name": "from",
          "type": "address"
        },
        {
          "indexed": true,
          "internalType": "address",
          "name": "to",
          "type": "address"
        },
        {
          "indexed": true,
          "internalType": "uint256",
          "name": "tokenId",
          "type": "uint256"
        }
      ],
      "name": "Transfer",
      "type": "event"
    },
    {
      "anonymous": false,
      "inputs": [
        {
          "indexed": true,
          "internalType": "address",
          "name": "implementation",
          "type": "address"
        }
      ],
      "name": "Upgraded",
      "type": "event"
    },
    {
      "anonymous": false,
      "inputs": [
        {
          "indexed": true,
          "internalType": "address",
          "name": "user",
          "type": "address"
        },
        {
          "indexed": false,
          "internalType": "uint256",
          "name": "amount",
          "type": "uint256"
        }
      ],
      "name": "Withdraw",
      "type": "event"
    },
    {
      "inputs": [
        {
          "internalType": "bytes32",
          "name": "opHash",
          "type": "bytes32"
        },
        {
          "internalType": "bytes[]",
          "name": "sigs",
          "type": "bytes[]"
        }
      ],
      "name": "AddOpHashToPending",
      "outputs": [],
      "stateMutability": "nonpayable",
      "type": "function"
    },
    {
      "inputs": [],
      "name": "VM3",
      "outputs": [
        {
          "internalType": "contract IERC20",
          "name": "",
          "type": "address"
        }
      ],
      "stateMutability": "view",
      "type": "function"
    },
    {
      "inputs": [
        {
          "internalType": "address",
          "name": "to",
          "type": "address"
        },
        {
          "internalType": "uint256",
          "name": "tokenId",
          "type": "uint256"
        }
      ],
      "name": "approve",
      "outputs": [],
      "stateMutability": "nonpayable",
      "type": "function"
    },
    {
      "inputs": [
        {
          "internalType": "address",
          "name": "owner",
          "type": "address"
        }
      ],
      "name": "balanceOf",
      "outputs": [
        {
          "internalType": "uint256",
          "name": "",
          "type": "uint256"
        }
      ],
      "stateMutability": "view",
      "type": "function"
    },
    {
      "inputs": [
        {
          "internalType": "address",
          "name": "account",
          "type": "address"
        }
      ],
      "name": "balanceOfVM3",
      "outputs": [
        {
          "internalType": "uint256",
          "name": "",
          "type": "uint256"
        }
      ],
      "stateMutability": "view",
      "type": "function"
    },
    {
      "inputs": [
        {
          "internalType": "string",
          "name": "tokenURI_",
          "type": "string"
        },
        {
          "internalType": "bytes[]",
          "name": "sigs",
          "type": "bytes[]"
        }
      ],
      "name": "build",
      "outputs": [
        {
          "internalType": "uint256",
          "name": "",
          "type": "uint256"
        }
      ],
      "stateMutability": "nonpayable",
      "type": "function"
    },
    {
      "inputs": [
        {
          "internalType": "address",
          "name": "to",
          "type": "address"
        },
        {
          "internalType": "string",
          "name": "tokenURI_",
          "type": "string"
        },
        {
          "internalType": "bytes[]",
          "name": "sigs",
          "type": "bytes[]"
        }
      ],
      "name": "buildTo",
      "outputs": [
        {
          "internalType": "uint256",
          "name": "",
          "type": "uint256"
        }
      ],
      "stateMutability": "nonpayable",
      "type": "function"
    },
    {
      "inputs": [],
      "name": "costs",
      "outputs": [
        {
          "internalType": "uint256",
          "name": "",
          "type": "uint256"
        }
      ],
      "stateMutability": "view",
      "type": "function"
    },
    {
      "inputs": [
        {
          "internalType": "uint256",
          "name": "amount",
          "type": "uint256"
        }
      ],
      "name": "deposit",
      "outputs": [],
      "stateMutability": "nonpayable",
      "type": "function"
    },
    {
      "inputs": [
        {
          "internalType": "address",
          "name": "to",
          "type": "address"
        },
        {
          "internalType": "uint256",
          "name": "amount",
          "type": "uint256"
        }
      ],
      "name": "depositTo",
      "outputs": [],
      "stateMutability": "nonpayable",
      "type": "function"
    },
    {
      "inputs": [
        {
          "internalType": "uint256",
          "name": "tokenId",
          "type": "uint256"
        }
      ],
      "name": "getApproved",
      "outputs": [
        {
          "internalType": "address",
          "name": "",
          "type": "address"
        }
      ],
      "stateMutability": "view",
      "type": "function"
    },
    {
      "inputs": [
        {
          "internalType": "address",
          "name": "to",
          "type": "address"
        },
        {
          "internalType": "string",
          "name": "tokenURI_",
          "type": "string"
        },
        {
          "internalType": "uint256",
          "name": "nonce_",
          "type": "uint256"
        }
      ],
      "name": "getBuildHash",
      "outputs": [
        {
          "internalType": "bytes32",
          "name": "",
          "type": "bytes32"
        }
      ],
      "stateMutability": "view",
      "type": "function"
    },
    {
      "inputs": [
        {
          "internalType": "address",
          "name": "to",
          "type": "address"
        },
        {
          "internalType": "uint256",
          "name": "amount",
          "type": "uint256"
        },
        {
          "internalType": "uint256",
          "name": "nonce_",
          "type": "uint256"
        }
      ],
      "name": "getRefundHash",
      "outputs": [
        {
          "internalType": "bytes32",
          "name": "",
          "type": "bytes32"
        }
      ],
      "stateMutability": "view",
      "type": "function"
    },
    {
      "inputs": [
        {
          "internalType": "address",
          "name": "to",
          "type": "address"
        },
        {
          "internalType": "uint256",
          "name": "amount",
          "type": "uint256"
        },
        {
          "internalType": "uint256",
          "name": "nonce_",
          "type": "uint256"
        }
      ],
      "name": "getrefundAtDisposalHash",
      "outputs": [
        {
          "internalType": "bytes32",
          "name": "",
          "type": "bytes32"
        }
      ],
      "stateMutability": "view",
      "type": "function"
    },
    {
      "inputs": [
        {
          "internalType": "uint256",
          "name": "chainId",
          "type": "uint256"
        },
        {
          "internalType": "address",
          "name": "vm3_",
          "type": "address"
        },
        {
          "internalType": "uint256",
          "name": "costs_",
          "type": "uint256"
        },
        {
          "internalType": "string",
          "name": "name_",
          "type": "string"
        },
        {
          "internalType": "string",
          "name": "symbol_",
          "type": "string"
        },
        {
          "internalType": "address[]",
          "name": "owners",
          "type": "address[]"
        },
        {
          "internalType": "uint8",
          "name": "signRequred",
          "type": "uint8"
        }
      ],
      "name": "initialize",
      "outputs": [],
      "stateMutability": "nonpayable",
      "type": "function"
    },
    {
      "inputs": [
        {
          "internalType": "address",
          "name": "owner",
          "type": "address"
        },
        {
          "internalType": "address",
          "name": "operator",
          "type": "address"
        }
      ],
      "name": "isApprovedForAll",
      "outputs": [
        {
          "internalType": "bool",
          "name": "",
          "type": "bool"
        }
      ],
      "stateMutability": "view",
      "type": "function"
    },
    {
      "inputs": [],
      "name": "maxNumOwners",
      "outputs": [
        {
          "internalType": "uint8",
          "name": "",
          "type": "uint8"
        }
      ],
      "stateMutability": "view",
      "type": "function"
    },
    {
      "inputs": [],
      "name": "name",
      "outputs": [
        {
          "internalType": "string",
          "name": "",
          "type": "string"
        }
      ],
      "stateMutability": "view",
      "type": "function"
    },
    {
      "inputs": [],
      "name": "nonce",
      "outputs": [
        {
          "internalType": "uint256",
          "name": "",
          "type": "uint256"
        }
      ],
      "stateMutability": "view",
      "type": "function"
    },
    {
      "inputs": [
        {
          "internalType": "bytes32",
          "name": "",
          "type": "bytes32"
        }
      ],
      "name": "operationsStatus",
      "outputs": [
        {
          "internalType": "enum SafeOwnableUpgradeable.OpStatus",
          "name": "",
          "type": "uint8"
        }
      ],
      "stateMutability": "view",
      "type": "function"
    },
    {
      "inputs": [
        {
          "internalType": "uint256",
          "name": "tokenId",
          "type": "uint256"
        }
      ],
      "name": "ownerOf",
      "outputs": [
        {
          "internalType": "address",
          "name": "",
          "type": "address"
        }
      ],
      "stateMutability": "view",
      "type": "function"
    },
    {
      "inputs": [],
      "name": "owners",
      "outputs": [
        {
          "internalType": "address[6]",
          "name": "",
          "type": "address[6]"
        }
      ],
      "stateMutability": "view",
      "type": "function"
    },
    {
      "inputs": [],
      "name": "proxiableUUID",
      "outputs": [
        {
          "internalType": "bytes32",
          "name": "",
          "type": "bytes32"
        }
      ],
      "stateMutability": "view",
      "type": "function"
    },
    {
      "inputs": [
        {
          "internalType": "address",
          "name": "to",
          "type": "address"
        },
        {
          "internalType": "uint256",
          "name": "amount",
          "type": "uint256"
        },
        {
          "internalType": "bytes[]",
          "name": "sigs",
          "type": "bytes[]"
        }
      ],
      "name": "refund",
      "outputs": [],
      "stateMutability": "nonpayable",
      "type": "function"
    },
    {
      "inputs": [
        {
          "internalType": "address",
          "name": "to",
          "type": "address"
        },
        {
          "internalType": "uint256",
          "name": "amount",
          "type": "uint256"
        },
        {
          "internalType": "bytes[]",
          "name": "sigs",
          "type": "bytes[]"
        }
      ],
      "name": "refundAtDisposal",
      "outputs": [],
      "stateMutability": "nonpayable",
      "type": "function"
    },
    {
      "inputs": [
        {
          "internalType": "address",
          "name": "from",
          "type": "address"
        },
        {
          "internalType": "address",
          "name": "to",
          "type": "address"
        },
        {
          "internalType": "uint256",
          "name": "tokenId",
          "type": "uint256"
        }
      ],
      "name": "safeTransferFrom",
      "outputs": [],
      "stateMutability": "nonpayable",
      "type": "function"
    },
    {
      "inputs": [
        {
          "internalType": "address",
          "name": "from",
          "type": "address"
        },
        {
          "internalType": "address",
          "name": "to",
          "type": "address"
        },
        {
          "internalType": "uint256",
          "name": "tokenId",
          "type": "uint256"
        },
        {
          "internalType": "bytes",
          "name": "data",
          "type": "bytes"
        }
      ],
      "name": "safeTransferFrom",
      "outputs": [],
      "stateMutability": "nonpayable",
      "type": "function"
    },
    {
      "inputs": [
        {
          "internalType": "address",
          "name": "operator",
          "type": "address"
        },
        {
          "internalType": "bool",
          "name": "approved",
          "type": "bool"
        }
      ],
      "name": "setApprovalForAll",
      "outputs": [],
      "stateMutability": "nonpayable",
      "type": "function"
    },
    {
      "inputs": [],
      "name": "signRequired",
      "outputs": [
        {
          "internalType": "uint8",
          "name": "",
          "type": "uint8"
        }
      ],
      "stateMutability": "view",
      "type": "function"
    },
    {
      "inputs": [
        {
          "internalType": "bytes4",
          "name": "interfaceId",
          "type": "bytes4"
        }
      ],
      "name": "supportsInterface",
      "outputs": [
        {
          "internalType": "bool",
          "name": "",
          "type": "bool"
        }
      ],
      "stateMutability": "view",
      "type": "function"
    },
    {
      "inputs": [],
      "name": "symbol",
      "outputs": [
        {
          "internalType": "string",
          "name": "",
          "type": "string"
        }
      ],
      "stateMutability": "view",
      "type": "function"
    },
    {
      "inputs": [
        {
          "internalType": "uint256",
          "name": "tokenId",
          "type": "uint256"
        }
      ],
      "name": "tokenURI",
      "outputs": [
        {
          "internalType": "string",
          "name": "",
          "type": "string"
        }
      ],
      "stateMutability": "view",
      "type": "function"
    },
    {
      "inputs": [
        {
          "internalType": "address",
          "name": "from",
          "type": "address"
        },
        {
          "internalType": "address",
          "name": "to",
          "type": "address"
        },
        {
          "internalType": "uint256",
          "name": "tokenId",
          "type": "uint256"
        }
      ],
      "name": "transferFrom",
      "outputs": [],
      "stateMutability": "nonpayable",
      "type": "function"
    },
    {
      "inputs": [
        {
          "internalType": "address",
          "name": "newOwner",
          "type": "address"
        }
      ],
      "name": "transferOwnership",
      "outputs": [],
      "stateMutability": "nonpayable",
      "type": "function"
    },
    {
      "inputs": [
        {
          "internalType": "address",
          "name": "newImplementation",
          "type": "address"
        }
      ],
      "name": "upgradeTo",
      "outputs": [],
      "stateMutability": "nonpayable",
      "type": "function"
    },
    {
      "inputs": [
        {
          "internalType": "address",
          "name": "newImplementation",
          "type": "address"
        },
        {
          "internalType": "bytes",
          "name": "data",
          "type": "bytes"
        }
      ],
      "name": "upgradeToAndCall",
      "outputs": [],
      "stateMutability": "payable",
      "type": "function"
    },
    {
      "inputs": [
        {
          "internalType": "uint256",
          "name": "amount",
          "type": "uint256"
        }
      ],
      "name": "withdraw",
      "outputs": [],
      "stateMutability": "nonpayable",
      "type": "function"
    },
    {
      "inputs": [
        {
          "internalType": "address",
          "name": "to",
          "type": "address"
        },
        {
          "internalType": "uint256",
          "name": "amount",
          "type": "uint256"
        }
      ],
      "name": "withdrawTo",
      "outputs": [],
      "stateMutability": "nonpayable",
      "type": "function"
    }
  ],
  "transactionHash": "0xb2f1cf03fe001f6c47316fb04021f2964b1cfdacc6c24a6fa72305d35f24e64c",
  "args": [],
  "numDeployments": 1,
  "solcInputHash": "98cf7e5edd8973d915668ec9f73b1de5",
  "bytecode": "0x60a0604052306080523480156200001557600080fd5b50600054610100900460ff1615808015620000375750600054600160ff909116105b8062000067575062000054306200014160201b620026f11760201c565b15801562000067575060005460ff166001145b620000cf5760405162461bcd60e51b815260206004820152602e60248201527f496e697469616c697a61626c653a20636f6e747261637420697320616c72656160448201526d191e481a5b9a5d1a585b1a5e995960921b606482015260840160405180910390fd5b6000805460ff191660011790558015620000f3576000805461ff0019166101001790555b80156200013a576000805461ff0019169055604051600181527f7f26b83ff96e1f2b6a682f133852f6798a09c465da95921460cefb38474024989060200160405180910390a15b5062000150565b6001600160a01b03163b151590565b608051614d016200018860003960008181610f6401528181610ffa015281816114070152818161149d01526117710152614d016000f3fe6080604052600436106102855760003560e01c80636352211e11610153578063affe39c1116100cb578063c87b56dd1161007f578063e985e9c511610064578063e985e9c514610732578063f2fde38b1461077b578063ffaad6a51461079b57600080fd5b8063c87b56dd146106d4578063ce0d0ca0146106f457600080fd5b8063b6b55f25116100b0578063b6b55f2514610674578063b826a74714610694578063b88d4fde146106b457600080fd5b8063affe39c11461063b578063affed0e01461065d57600080fd5b80637a29349d116101225780638bd7bf3b116101075780638bd7bf3b146105e657806395d89b4114610606578063a22cb4651461061b57600080fd5b80637a29349d146105a65780638b5a2143146105c657600080fd5b80636352211e146105305780636ea808191461055057806370a0823114610570578063776d62f61461059057600080fd5b80633659cfe6116102015780634f1ef286116101b557806352d1902d1161019a57806352d1902d146104db57806353555216146104f057806362ae7e671461051057600080fd5b80634f1ef286146104a8578063519b10cd146104bb57600080fd5b806338433a53116101e657806338433a53146104305780634179af821461045157806342842e0e1461048857600080fd5b80633659cfe6146103e25780633815ce621461040257600080fd5b80630a5bf92b11610258578063205c28781161023d578063205c28781461038257806323b872dd146103a25780632e1a7d4d146103c257600080fd5b80630a5bf92b1461033b5780630c3515ba1461035b57600080fd5b806301ffc9a71461028a57806306fdde03146102bf578063081812fc146102e1578063095ea7b314610319575b600080fd5b34801561029657600080fd5b506102aa6102a5366004614361565b6107bb565b60405190151581526020015b60405180910390f35b3480156102cb57600080fd5b506102d46108a0565b6040516102b691906143d6565b3480156102ed57600080fd5b506103016102fc3660046143e9565b610932565b6040516001600160a01b0390911681526020016102b6565b34801561032557600080fd5b5061033961033436600461441e565b610959565b005b34801561034757600080fd5b506103396103563660046145b3565b610a90565b34801561036757600080fd5b50610370600581565b60405160ff90911681526020016102b6565b34801561038e57600080fd5b5061033961039d36600461441e565b610e1f565b3480156103ae57600080fd5b506103396103bd36600461460a565b610e79565b3480156103ce57600080fd5b506103396103dd3660046143e9565b610f00565b3480156103ee57600080fd5b506103396103fd366004614646565b610f59565b34801561040e57600080fd5b5061042261041d366004614661565b6110f7565b6040519081526020016102b6565b34801561043c57600080fd5b5061010554610301906001600160a01b031681565b34801561045d57600080fd5b5061042261046c366004614646565b6001600160a01b0316600090815261010d602052604090205490565b34801561049457600080fd5b506103396104a336600461460a565b6113e1565b6103396104b63660046146c5565b6113fc565b3480156104c757600080fd5b506103396104d636600461471a565b61158b565b3480156104e757600080fd5b50610422611764565b3480156104fc57600080fd5b5061033961050b3660046145b3565b611829565b34801561051c57600080fd5b5061042261052b366004614834565b611b13565b34801561053c57600080fd5b5061030161054b3660046143e9565b611b71565b34801561055c57600080fd5b5061042261056b36600461488b565b611bd6565b34801561057c57600080fd5b5061042261058b366004614646565b611c3c565b34801561059c57600080fd5b5061010a54610422565b3480156105b257600080fd5b506101025461037090610100900460ff1681565b3480156105d257600080fd5b506103396105e13660046148be565b611cd6565b3480156105f257600080fd5b5061042261060136600461488b565b611fd0565b34801561061257600080fd5b506102d4612036565b34801561062757600080fd5b50610339610636366004614909565b612045565b34801561064757600080fd5b50610650612050565b6040516102b69190614940565b34801561066957600080fd5b506104226101045481565b34801561068057600080fd5b5061033961068f3660046143e9565b612095565b3480156106a057600080fd5b506104226106af36600461497a565b6120e4565b3480156106c057600080fd5b506103396106cf3660046149e4565b6123cf565b3480156106e057600080fd5b506102d46106ef3660046143e9565b61245d565b34801561070057600080fd5b5061072561070f3660046143e9565b6101036020526000908152604090205460ff1681565b6040516102b69190614a62565b34801561073e57600080fd5b506102aa61074d366004614a8a565b6001600160a01b039182166000908152606a6020908152604080832093909416825291909152205460ff1690565b34801561078757600080fd5b50610339610796366004614646565b612507565b3480156107a757600080fd5b506103396107b636600461441e565b6126a2565b60007fffffffff0000000000000000000000000000000000000000000000000000000082167f80ac58cd00000000000000000000000000000000000000000000000000000000148061084e57507fffffffff0000000000000000000000000000000000000000000000000000000082167f5b5e139f00000000000000000000000000000000000000000000000000000000145b8061089a57507f01ffc9a7000000000000000000000000000000000000000000000000000000007fffffffff000000000000000000000000000000000000000000000000000000008316145b92915050565b6060606580546108af90614abd565b80601f01602080910402602001604051908101604052809291908181526020018280546108db90614abd565b80156109285780601f106108fd57610100808354040283529160200191610928565b820191906000526020600020905b81548152906001019060200180831161090b57829003601f168201915b5050505050905090565b600061093d82612700565b506000908152606960205260409020546001600160a01b031690565b600061096482611b71565b9050806001600160a01b0316836001600160a01b031614156109f35760405162461bcd60e51b815260206004820152602160248201527f4552433732313a20617070726f76616c20746f2063757272656e74206f776e6560448201527f720000000000000000000000000000000000000000000000000000000000000060648201526084015b60405180910390fd5b336001600160a01b0382161480610a0f5750610a0f813361074d565b610a815760405162461bcd60e51b815260206004820152603e60248201527f4552433732313a20617070726f76652063616c6c6572206973206e6f7420746f60448201527f6b656e206f776e6572206e6f7220617070726f76656420666f7220616c6c000060648201526084016109ea565b610a8b8383612764565b505050565b6101075415610acf5760405162461bcd60e51b815260206004820152600b60248201526a115b198e881313d0d2d15160aa1b60448201526064016109ea565b600161010781905550610b3c610ae9848461010454611fd0565b6040517f19457468657265756d205369676e6564204d6573736167653a0a3332000000006020820152603c8101829052600090605c01604051602081830303815290604052805190602001209050919050565b816000610b4761427c565b336000908152610101602052604090205460ff1615610bb45781610b6a81614b0e565b9250506001816101016000610b7c3390565b6001600160a01b0316815260208101919091526040016000205460ff1660068110610ba957610ba9614b2e565b911515602090920201525b60005b83518160ff161015610ce3576000610bf4858360ff1681518110610bdd57610bdd614b2e565b6020026020010151876127df90919063ffffffff16565b6001600160a01b0381166000908152610101602052604090205490915060ff1680610c755760405162461bcd60e51b815260206004820152602b60248201527f536166654f776e61626c655570677261646561626c653a207369676e6572206960448201526a39903737ba1037bbb732b960a91b60648201526084016109ea565b838160ff1660068110610c8a57610c8a614b2e565b6020020151151560011415610ca0575050610cd1565b6001848260ff1660068110610cb757610cb7614b2e565b9115156020909202015284610ccb81614b0e565b95505050505b80610cdb81614b0e565b915050610bb7565b506101025460ff61010090910481169083161015610d565760405162461bcd60e51b815260206004820152602a60248201527f536166654f776e61626c655570677261646561626c653a206e6f20656e6f75676044820152696820636f6e6669726d7360b01b60648201526084016109ea565b6101048054906000610d6783614b44565b90915550506001600160a01b038716600090815261010d6020526040902054861115610dd55760405162461bcd60e51b815260206004820152601e60248201527f456c663a20496e73756666696369656e7420757365722062616c616e6365000060448201526064016109ea565b6001600160a01b038716600090815261010d602052604081208054889290610dfe908490614b7d565b90915550610e10905087876000612803565b50506000610107555050505050565b6101075415610e5e5760405162461bcd60e51b815260206004820152600b60248201526a115b198e881313d0d2d15160aa1b60448201526064016109ea565b600161010755610e6f338383612a82565b5050600061010755565b610e833382612c45565b610ef55760405162461bcd60e51b815260206004820152602e60248201527f4552433732313a2063616c6c6572206973206e6f7420746f6b656e206f776e6560448201527f72206e6f7220617070726f76656400000000000000000000000000000000000060648201526084016109ea565b610a8b838383612cc4565b6101075415610f3f5760405162461bcd60e51b815260206004820152600b60248201526a115b198e881313d0d2d15160aa1b60448201526064016109ea565b600161010755610f50333383612a82565b50600061010755565b306001600160a01b037f0000000000000000000000000000000000000000000000000000000000000000161415610ff85760405162461bcd60e51b815260206004820152602c60248201527f46756e6374696f6e206d7573742062652063616c6c6564207468726f7567682060448201527f64656c656761746563616c6c000000000000000000000000000000000000000060648201526084016109ea565b7f00000000000000000000000000000000000000000000000000000000000000006001600160a01b03166110537f360894a13ba1a3210667c828492db98dca3e2076cc3735a920a3ca505d382bbc546001600160a01b031690565b6001600160a01b0316146110cf5760405162461bcd60e51b815260206004820152602c60248201527f46756e6374696f6e206d7573742062652063616c6c6564207468726f7567682060448201527f6163746976652070726f7879000000000000000000000000000000000000000060648201526084016109ea565b6110d881612e9e565b604080516000808252602082019092526110f491839190612f24565b50565b600061110a610ae9338561010454611b13565b82600061111561427c565b336000908152610101602052604090205460ff1615611182578161113881614b0e565b925050600181610101600061114a3390565b6001600160a01b0316815260208101919091526040016000205460ff166006811061117757611177614b2e565b911515602090920201525b60005b83518160ff16101561129a5760006111ab858360ff1681518110610bdd57610bdd614b2e565b6001600160a01b0381166000908152610101602052604090205490915060ff168061122c5760405162461bcd60e51b815260206004820152602b60248201527f536166654f776e61626c655570677261646561626c653a207369676e6572206960448201526a39903737ba1037bbb732b960a91b60648201526084016109ea565b838160ff166006811061124157611241614b2e565b6020020151151560011415611257575050611288565b6001848260ff166006811061126e5761126e614b2e565b911515602090920201528461128281614b0e565b95505050505b8061129281614b0e565b915050611185565b506101025460ff6101009091048116908316101561130d5760405162461bcd60e51b815260206004820152602a60248201527f536166654f776e61626c655570677261646561626c653a206e6f20656e6f75676044820152696820636f6e6669726d7360b01b60648201526084016109ea565b610104805490600061131e83614b44565b909155505061010a5433600090815261010d602052604090205410156113865760405162461bcd60e51b815260206004820152601a60248201527f456c663a20496e73756666696369656e74206465706f7369747300000000000060448201526064016109ea565b61010a5433600090815261010d6020526040812080549091906113aa908490614b7d565b909155505061010a5461010b80546000906113c6908490614b94565b909155506113d6905033886130d3565b979650505050505050565b610a8b838383604051806020016040528060008152506123cf565b306001600160a01b037f000000000000000000000000000000000000000000000000000000000000000016141561149b5760405162461bcd60e51b815260206004820152602c60248201527f46756e6374696f6e206d7573742062652063616c6c6564207468726f7567682060448201527f64656c656761746563616c6c000000000000000000000000000000000000000060648201526084016109ea565b7f00000000000000000000000000000000000000000000000000000000000000006001600160a01b03166114f67f360894a13ba1a3210667c828492db98dca3e2076cc3735a920a3ca505d382bbc546001600160a01b031690565b6001600160a01b0316146115725760405162461bcd60e51b815260206004820152602c60248201527f46756e6374696f6e206d7573742062652063616c6c6564207468726f7567682060448201527f6163746976652070726f7879000000000000000000000000000000000000000060648201526084016109ea565b61157b82612e9e565b61158782826001612f24565b5050565b600054610100900460ff16158080156115ab5750600054600160ff909116105b806115c55750303b1580156115c5575060005460ff166001145b6116375760405162461bcd60e51b815260206004820152602e60248201527f496e697469616c697a61626c653a20636f6e747261637420697320616c72656160448201527f647920696e697469616c697a656400000000000000000000000000000000000060648201526084016109ea565b6000805460ff19166001179055801561165a576000805461ff0019166101001790555b610105805473ffffffffffffffffffffffffffffffffffffffff19166001600160a01b03891617905561010a869055611693858561315e565b61169d83836131d3565b6116a5613559565b7fb8aa581effc4a2e306a38dbac6542b2a4b0d933abccc3bfc5d8d811df16083026116ce6108a0565b80516020918201206040805192830193909352918101919091526060810189905230608082015260a00160408051601f19818403018152919052805160209091012061010655801561175a576000805461ff0019169055604051600181527f7f26b83ff96e1f2b6a682f133852f6798a09c465da95921460cefb38474024989060200160405180910390a15b5050505050505050565b6000306001600160a01b037f000000000000000000000000000000000000000000000000000000000000000016146118045760405162461bcd60e51b815260206004820152603860248201527f555550535570677261646561626c653a206d757374206e6f742062652063616c60448201527f6c6564207468726f7567682064656c656761746563616c6c000000000000000060648201526084016109ea565b507f360894a13ba1a3210667c828492db98dca3e2076cc3735a920a3ca505d382bbc90565b61010754156118685760405162461bcd60e51b815260206004820152600b60248201526a115b198e881313d0d2d15160aa1b60448201526064016109ea565b600161010781905550611882610ae9848461010454611bd6565b81600061188d61427c565b336000908152610101602052604090205460ff16156118fa57816118b081614b0e565b92505060018161010160006118c23390565b6001600160a01b0316815260208101919091526040016000205460ff16600681106118ef576118ef614b2e565b911515602090920201525b60005b83518160ff161015611a12576000611923858360ff1681518110610bdd57610bdd614b2e565b6001600160a01b0381166000908152610101602052604090205490915060ff16806119a45760405162461bcd60e51b815260206004820152602b60248201527f536166654f776e61626c655570677261646561626c653a207369676e6572206960448201526a39903737ba1037bbb732b960a91b60648201526084016109ea565b838160ff16600681106119b9576119b9614b2e565b60200201511515600114156119cf575050611a00565b6001848260ff16600681106119e6576119e6614b2e565b91151560209092020152846119fa81614b0e565b95505050505b80611a0a81614b0e565b9150506118fd565b506101025460ff61010090910481169083161015611a855760405162461bcd60e51b815260206004820152602a60248201527f536166654f776e61626c655570677261646561626c653a206e6f20656e6f75676044820152696820636f6e6669726d7360b01b60648201526084016109ea565b6101048054906000611a9683614b44565b91905055508561010b541015611aee5760405162461bcd60e51b815260206004820152601c60248201527f456c663a20496e73756666696369656e74206174446973706f73616c0000000060448201526064016109ea565b8561010b6000828254611b019190614b7d565b90915550610e10905087876001612803565b6000610106547fcf378343f834c823128457b76f0cc6431b151b6a4883a17c3b33d5c94d3558b4858585604051602001611b51959493929190614bac565b6040516020818303038152906040528051906020012090505b9392505050565b6000818152606760205260408120546001600160a01b03168061089a5760405162461bcd60e51b815260206004820152601860248201527f4552433732313a20696e76616c696420746f6b656e204944000000000000000060448201526064016109ea565b610106546040805160208101929092527f6147566a9de12cd78d3b04221dc654637e92d73ad3a4c44cc89b06c4019ff4aa90820152606084811b6bffffffffffffffffffffffff191690820152607481018390526094810182905260009060b401611b51565b60006001600160a01b038216611cba5760405162461bcd60e51b815260206004820152602960248201527f4552433732313a2061646472657373207a65726f206973206e6f74206120766160448201527f6c6964206f776e6572000000000000000000000000000000000000000000000060648201526084016109ea565b506001600160a01b031660009081526068602052604090205490565b81816000611ce261427c565b336000908152610101602052604090205460ff1615611d4f5781611d0581614b0e565b9250506001816101016000611d173390565b6001600160a01b0316815260208101919091526040016000205460ff1660068110611d4457611d44614b2e565b911515602090920201525b60005b83518160ff161015611e67576000611d78858360ff1681518110610bdd57610bdd614b2e565b6001600160a01b0381166000908152610101602052604090205490915060ff1680611df95760405162461bcd60e51b815260206004820152602b60248201527f536166654f776e61626c655570677261646561626c653a207369676e6572206960448201526a39903737ba1037bbb732b960a91b60648201526084016109ea565b838160ff1660068110611e0e57611e0e614b2e565b6020020151151560011415611e24575050611e55565b6001848260ff1660068110611e3b57611e3b614b2e565b9115156020909202015284611e4f81614b0e565b95505050505b80611e5f81614b0e565b915050611d52565b506101025460ff61010090910481169083161015611eda5760405162461bcd60e51b815260206004820152602a60248201527f536166654f776e61626c655570677261646561626c653a206e6f20656e6f75676044820152696820636f6e6669726d7360b01b60648201526084016109ea565b6101048054906000611eeb83614b44565b90915550506000868152610103602052604081205460ff166003811115611f1457611f14614a4c565b14611f875760405162461bcd60e51b815260206004820152603760248201527f536166654f776e61626c655570677261646561626c653a206f7065726174696f60448201527f6e20776173206e6f74207375626d69747465642079657400000000000000000060648201526084016109ea565b60008681526101036020526040808220805460ff191660011790555187917f33775024b20f211f019e50305c897b2105edc4642384143897ac170fb37f54a191a2505050505050565b610106546040805160208101929092527f410085df54bf273a749e521cef84e728e697569a719b84888672469ca66d58d490820152606084811b6bffffffffffffffffffffffff191690820152607481018390526094810182905260009060b401611b51565b6060606680546108af90614abd565b6115873383836135c6565b61205861427c565b6040805160c08101918290529060fb9060069082845b81546001600160a01b0316815260019091019060200180831161206e575050505050905090565b61010754156120d45760405162461bcd60e51b815260206004820152600b60248201526a115b198e881313d0d2d15160aa1b60448201526064016109ea565b600161010755610f503382613695565b60006120f7610ae9858561010454611b13565b82600061210261427c565b336000908152610101602052604090205460ff161561216f578161212581614b0e565b92505060018161010160006121373390565b6001600160a01b0316815260208101919091526040016000205460ff166006811061216457612164614b2e565b911515602090920201525b60005b83518160ff161015612287576000612198858360ff1681518110610bdd57610bdd614b2e565b6001600160a01b0381166000908152610101602052604090205490915060ff16806122195760405162461bcd60e51b815260206004820152602b60248201527f536166654f776e61626c655570677261646561626c653a207369676e6572206960448201526a39903737ba1037bbb732b960a91b60648201526084016109ea565b838160ff166006811061222e5761222e614b2e565b6020020151151560011415612244575050612275565b6001848260ff166006811061225b5761225b614b2e565b911515602090920201528461226f81614b0e565b95505050505b8061227f81614b0e565b915050612172565b506101025460ff610100909104811690831610156122fa5760405162461bcd60e51b815260206004820152602a60248201527f536166654f776e61626c655570677261646561626c653a206e6f20656e6f75676044820152696820636f6e6669726d7360b01b60648201526084016109ea565b610104805490600061230b83614b44565b909155505061010a5433600090815261010d602052604090205410156123735760405162461bcd60e51b815260206004820152601a60248201527f456c663a20496e73756666696369656e74206465706f7369747300000000000060448201526064016109ea565b61010a5433600090815261010d602052604081208054909190612397908490614b7d565b909155505061010a5461010b80546000906123b3908490614b94565b909155506123c3905088886130d3565b98975050505050505050565b6123d93383612c45565b61244b5760405162461bcd60e51b815260206004820152602e60248201527f4552433732313a2063616c6c6572206973206e6f7420746f6b656e206f776e6560448201527f72206e6f7220617070726f76656400000000000000000000000000000000000060648201526084016109ea565b6124578484848461381f565b50505050565b606061246882612700565b600082815261010c60205260409020805461248290614abd565b80601f01602080910402602001604051908101604052809291908181526020018280546124ae90614abd565b80156124fb5780601f106124d0576101008083540402835291602001916124fb565b820191906000526020600020905b8154815290600101906020018083116124de57829003601f168201915b50505050509050919050565b336000908152610101602052604090205460ff1661258d5760405162461bcd60e51b815260206004820152602f60248201527f536166654f776e61626c655570677261646561626c653a2063616c6c6572206960448201527f73206e6f7420746865206f776e6572000000000000000000000000000000000060648201526084016109ea565b6001600160a01b0381166126095760405162461bcd60e51b815260206004820152603560248201527f536166654f776e61626c655570677261646561626c653a206e6577206f776e6560448201527f7220697320746865207a65726f2061646472657373000000000000000000000060648201526084016109ea565b6001600160a01b0381166000908152610101602052604090205460ff16156126995760405162461bcd60e51b815260206004820152603060248201527f536166654f776e61626c655570677261646561626c653a206e6577206f776e6560448201527f7220616c7265616479206578697374730000000000000000000000000000000060648201526084016109ea565b6110f4816138a8565b61010754156126e15760405162461bcd60e51b815260206004820152600b60248201526a115b198e881313d0d2d15160aa1b60448201526064016109ea565b600161010755610e6f8282613695565b6001600160a01b03163b151590565b6000818152606760205260409020546001600160a01b03166110f45760405162461bcd60e51b815260206004820152601860248201527f4552433732313a20696e76616c696420746f6b656e204944000000000000000060448201526064016109ea565b6000818152606960205260409020805473ffffffffffffffffffffffffffffffffffffffff19166001600160a01b03841690811790915581906127a682611b71565b6001600160a01b03167f8c5be1e5ebec7d5bd14f71427d1e84f3dd0314c0f7b2291e5b200ac8c7c3b92560405160405180910390a45050565b60008060006127ee8585613956565b915091506127fb8161399c565b509392505050565b336000908152610101602052604090205460ff166128895760405162461bcd60e51b815260206004820152602f60248201527f536166654f776e61626c655570677261646561626c653a2063616c6c6572206960448201527f73206e6f7420746865206f776e6572000000000000000000000000000000000060648201526084016109ea565b600082116128d95760405162461bcd60e51b815260206004820152601360248201527f456c663a20616d6f756e74206973207a65726f0000000000000000000000000060448201526064016109ea565b610105546040517f70a0823100000000000000000000000000000000000000000000000000000000815230600482015283916001600160a01b0316906370a082319060240160206040518083038186803b15801561293657600080fd5b505afa15801561294a573d6000803e3d6000fd5b505050506040513d601f19601f8201168201806040525081019061296e9190614bf9565b10156129965760405162461bcd60e51b815260206004820152600060248201526044016109ea565b610105546040517fa9059cbb0000000000000000000000000000000000000000000000000000000081526001600160a01b038581166004830152602482018590529091169063a9059cbb90604401602060405180830381600087803b1580156129fe57600080fd5b505af1158015612a12573d6000803e3d6000fd5b505050506040513d601f19601f82011682018060405250810190612a369190614c12565b506040805183815282151560208201526001600160a01b038516917f9ec8fd4891b49aae8ecb56892e6d93818739f52bac238fa16de2076fc8c1790c91015b60405180910390a2505050565b60008111612ad25760405162461bcd60e51b815260206004820152601360248201527f456c663a20616d6f756e74206973207a65726f0000000000000000000000000060448201526064016109ea565b6001600160a01b038316600090815261010d6020526040902054811115612b3b5760405162461bcd60e51b815260206004820152601960248201527f456c663a20496e73756666696369656e742062616c616e63650000000000000060448201526064016109ea565b6001600160a01b038316600090815261010d602052604081208054839290612b64908490614b7d565b9091555050610105546040517fa9059cbb0000000000000000000000000000000000000000000000000000000081526001600160a01b038481166004830152602482018490529091169063a9059cbb90604401602060405180830381600087803b158015612bd157600080fd5b505af1158015612be5573d6000803e3d6000fd5b505050506040513d601f19601f82011682018060405250810190612c099190614c12565b50816001600160a01b03167f884edad9ce6fa2440d8a54cc123490eb96d2768479d49ff9c7366125a942436482604051612a7591815260200190565b600080612c5183611b71565b9050806001600160a01b0316846001600160a01b03161480612c9857506001600160a01b038082166000908152606a602090815260408083209388168352929052205460ff165b80612cbc5750836001600160a01b0316612cb184610932565b6001600160a01b0316145b949350505050565b826001600160a01b0316612cd782611b71565b6001600160a01b031614612d535760405162461bcd60e51b815260206004820152602560248201527f4552433732313a207472616e736665722066726f6d20696e636f72726563742060448201527f6f776e657200000000000000000000000000000000000000000000000000000060648201526084016109ea565b6001600160a01b038216612dce5760405162461bcd60e51b8152602060048201526024808201527f4552433732313a207472616e7366657220746f20746865207a65726f2061646460448201527f726573730000000000000000000000000000000000000000000000000000000060648201526084016109ea565b612dd9600082612764565b6001600160a01b0383166000908152606860205260408120805460019290612e02908490614b7d565b90915550506001600160a01b0382166000908152606860205260408120805460019290612e30908490614b94565b9091555050600081815260676020526040808220805473ffffffffffffffffffffffffffffffffffffffff19166001600160a01b0386811691821790925591518493918716917fddf252ad1be2c89b69c2b068fc378daa952ba7f163c4a11628f55a4df523b3ef91a4505050565b336000908152610101602052604090205460ff166110f45760405162461bcd60e51b815260206004820152602f60248201527f536166654f776e61626c655570677261646561626c653a2063616c6c6572206960448201527f73206e6f7420746865206f776e6572000000000000000000000000000000000060648201526084016109ea565b7f4910fdfa16fed3260ed0e7147f7cc6da11a60208b5b9406d12a635614ffd91435460ff1615612f5757610a8b83613b8d565b826001600160a01b03166352d1902d6040518163ffffffff1660e01b815260040160206040518083038186803b158015612f9057600080fd5b505afa925050508015612fc0575060408051601f3d908101601f19168201909252612fbd91810190614bf9565b60015b6130325760405162461bcd60e51b815260206004820152602e60248201527f45524331393637557067726164653a206e657720696d706c656d656e7461746960448201527f6f6e206973206e6f74205555505300000000000000000000000000000000000060648201526084016109ea565b7f360894a13ba1a3210667c828492db98dca3e2076cc3735a920a3ca505d382bbc81146130c75760405162461bcd60e51b815260206004820152602960248201527f45524331393637557067726164653a20756e737570706f727465642070726f7860448201527f6961626c6555554944000000000000000000000000000000000000000000000060648201526084016109ea565b50610a8b838383613c58565b610108546000906130e48482613c7d565b600081815261010c6020908152604090912084516131049286019061429a565b5061311461010880546001019055565b836001600160a01b03167fd8406a18b0c7572d0adae5f0a479d5d802035e2c506e9353b092d25997f61a628260405161314f91815260200190565b60405180910390a29392505050565b600054610100900460ff166131c95760405162461bcd60e51b815260206004820152602b60248201527f496e697469616c697a61626c653a20636f6e7472616374206973206e6f74206960448201526a6e697469616c697a696e6760a81b60648201526084016109ea565b6115878282613dcc565b600054610100900460ff1661323e5760405162461bcd60e51b815260206004820152602b60248201527f496e697469616c697a61626c653a20636f6e7472616374206973206e6f74206960448201526a6e697469616c697a696e6760a81b60648201526084016109ea565b8151600510156132b65760405162461bcd60e51b815260206004820152603360248201527f536166654f776e61626c655570677261646561626c653a657863656564206d6160448201527f78696d756d206e756d626572206f776e6572730000000000000000000000000060648201526084016109ea565b60ff811661332c5760405162461bcd60e51b815260206004820152602c60248201527f536166654f776e61626c655570677261646561626c653a207369676e5265717560448201527f69726564206973207a65726f000000000000000000000000000000000000000060648201526084016109ea565b610102805461ff00191661010060ff84160217905560005b82518110156134d457600083828151811061336157613361614b2e565b6020908102919091018101516001600160a01b038116600090815261010190925260409091205490915060ff16156134015760405162461bcd60e51b815260206004820152602c60248201527f536166654f776e61626c655570677261646561626c653a206f776e657220616c60448201527f726561647920657869737473000000000000000000000000000000000000000060648201526084016109ea565b6101028054829160fb9160009061341a9060ff16614b0e565b91906101000a81548160ff021916908360ff160217905560ff166006811061344457613444614b2e565b0180546001600160a01b0392831673ffffffffffffffffffffffffffffffffffffffff199091161790556101025490821660008181526101016020526040808220805460ff191660ff9095169490941790935591519091907f8be0079c531659141344cd1fd0a4f28419497f9722a3daafe3b4186f6b6457e0908290a350806134cc81614b44565b915050613344565b506101025460ff8082166101009092041611156115875760405162461bcd60e51b815260206004820152603560248201527f536166654f776e61626c655570677261646561626c653a206f776e657273206c60448201527f657373207468616e207369676e5265717569726564000000000000000000000060648201526084016109ea565b600054610100900460ff166135c45760405162461bcd60e51b815260206004820152602b60248201527f496e697469616c697a61626c653a20636f6e7472616374206973206e6f74206960448201526a6e697469616c697a696e6760a81b60648201526084016109ea565b565b816001600160a01b0316836001600160a01b031614156136285760405162461bcd60e51b815260206004820152601960248201527f4552433732313a20617070726f766520746f2063616c6c65720000000000000060448201526064016109ea565b6001600160a01b038381166000818152606a6020908152604080832094871680845294825291829020805460ff191686151590811790915591519182527f17307eab39ab6107e8899845ad3d59bd9653f200f220920489ca2b5937696c31910160405180910390a3505050565b600081116136e55760405162461bcd60e51b815260206004820152601360248201527f456c663a20416d6f756e74206973207a65726f0000000000000000000000000060448201526064016109ea565b610105546001600160a01b03166323b872dd336040517fffffffff0000000000000000000000000000000000000000000000000000000060e084901b1681526001600160a01b03909116600482015230602482015260448101849052606401602060405180830381600087803b15801561375e57600080fd5b505af1158015613772573d6000803e3d6000fd5b505050506040513d601f19601f820116820180604052508101906137969190614c12565b508061010960008282546137aa9190614b94565b90915550506001600160a01b038216600090815261010d6020526040812080548392906137d8908490614b94565b90915550506040518181526001600160a01b038316907fe1fffcc4923d04b559f4d29a8bfc6cda04eb5b0d3c460751c2402c5c5cc9109c9060200160405180910390a25050565b61382a848484612cc4565b61383684848484613e5e565b6124575760405162461bcd60e51b815260206004820152603260248201527f4552433732313a207472616e7366657220746f206e6f6e20455243373231526560448201527f63656976657220696d706c656d656e746572000000000000000000000000000060648201526084016109ea565b336000818152610101602052604090205460ff168260fb82600681106138d0576138d0614b2e565b01805473ffffffffffffffffffffffffffffffffffffffff19166001600160a01b0392831617905582811660008181526101016020526040808220805460ff19908116909155938716808352818320805490951660ff871617909455517f8be0079c531659141344cd1fd0a4f28419497f9722a3daafe3b4186f6b6457e09190a3505050565b60008082516041141561398d5760208301516040840151606085015160001a6139818782858561400b565b94509450505050613995565b506000905060025b9250929050565b60008160048111156139b0576139b0614a4c565b14156139b95750565b60018160048111156139cd576139cd614a4c565b1415613a1b5760405162461bcd60e51b815260206004820152601860248201527f45434453413a20696e76616c6964207369676e6174757265000000000000000060448201526064016109ea565b6002816004811115613a2f57613a2f614a4c565b1415613a7d5760405162461bcd60e51b815260206004820152601f60248201527f45434453413a20696e76616c6964207369676e6174757265206c656e6774680060448201526064016109ea565b6003816004811115613a9157613a91614a4c565b1415613b055760405162461bcd60e51b815260206004820152602260248201527f45434453413a20696e76616c6964207369676e6174757265202773272076616c60448201527f756500000000000000000000000000000000000000000000000000000000000060648201526084016109ea565b6004816004811115613b1957613b19614a4c565b14156110f45760405162461bcd60e51b815260206004820152602260248201527f45434453413a20696e76616c6964207369676e6174757265202776272076616c60448201527f756500000000000000000000000000000000000000000000000000000000000060648201526084016109ea565b6001600160a01b0381163b613c0a5760405162461bcd60e51b815260206004820152602d60248201527f455243313936373a206e657720696d706c656d656e746174696f6e206973206e60448201527f6f74206120636f6e74726163740000000000000000000000000000000000000060648201526084016109ea565b7f360894a13ba1a3210667c828492db98dca3e2076cc3735a920a3ca505d382bbc805473ffffffffffffffffffffffffffffffffffffffff19166001600160a01b0392909216919091179055565b613c61836140f8565b600082511180613c6e5750805b15610a8b576124578383614138565b6001600160a01b038216613cd35760405162461bcd60e51b815260206004820181905260248201527f4552433732313a206d696e7420746f20746865207a65726f206164647265737360448201526064016109ea565b6000818152606760205260409020546001600160a01b031615613d385760405162461bcd60e51b815260206004820152601c60248201527f4552433732313a20746f6b656e20616c7265616479206d696e7465640000000060448201526064016109ea565b6001600160a01b0382166000908152606860205260408120805460019290613d61908490614b94565b9091555050600081815260676020526040808220805473ffffffffffffffffffffffffffffffffffffffff19166001600160a01b03861690811790915590518392907fddf252ad1be2c89b69c2b068fc378daa952ba7f163c4a11628f55a4df523b3ef908290a45050565b600054610100900460ff16613e375760405162461bcd60e51b815260206004820152602b60248201527f496e697469616c697a61626c653a20636f6e7472616374206973206e6f74206960448201526a6e697469616c697a696e6760a81b60648201526084016109ea565b8151613e4a90606590602085019061429a565b508051610a8b90606690602084019061429a565b60006001600160a01b0384163b15614000576040517f150b7a020000000000000000000000000000000000000000000000000000000081526001600160a01b0385169063150b7a0290613ebb903390899088908890600401614c2f565b602060405180830381600087803b158015613ed557600080fd5b505af1925050508015613f05575060408051601f3d908101601f19168201909252613f0291810190614c6b565b60015b613fb5573d808015613f33576040519150601f19603f3d011682016040523d82523d6000602084013e613f38565b606091505b508051613fad5760405162461bcd60e51b815260206004820152603260248201527f4552433732313a207472616e7366657220746f206e6f6e20455243373231526560448201527f63656976657220696d706c656d656e746572000000000000000000000000000060648201526084016109ea565b805181602001fd5b7fffffffff00000000000000000000000000000000000000000000000000000000167f150b7a0200000000000000000000000000000000000000000000000000000000149050612cbc565b506001949350505050565b6000807f7fffffffffffffffffffffffffffffff5d576e7357a4501ddfe92f46681b20a083111561404257506000905060036140ef565b8460ff16601b1415801561405a57508460ff16601c14155b1561406b57506000905060046140ef565b6040805160008082526020820180845289905260ff881692820192909252606081018690526080810185905260019060a0016020604051602081039080840390855afa1580156140bf573d6000803e3d6000fd5b5050604051601f1901519150506001600160a01b0381166140e8576000600192509250506140ef565b9150600090505b94509492505050565b61410181613b8d565b6040516001600160a01b038216907fbc7cd75a20ee27fd9adebab32041f755214dbc6bffa90cc0225b39da2e5c2d3b90600090a250565b60606001600160a01b0383163b6141b75760405162461bcd60e51b815260206004820152602660248201527f416464726573733a2064656c65676174652063616c6c20746f206e6f6e2d636f60448201527f6e7472616374000000000000000000000000000000000000000000000000000060648201526084016109ea565b600080846001600160a01b0316846040516141d29190614c88565b600060405180830381855af49150503d806000811461420d576040519150601f19603f3d011682016040523d82523d6000602084013e614212565b606091505b509150915061423a8282604051806060016040528060278152602001614ca560279139614243565b95945050505050565b60608315614252575081611b6a565b8251156142625782518084602001fd5b8160405162461bcd60e51b81526004016109ea91906143d6565b6040518060c001604052806006906020820280368337509192915050565b8280546142a690614abd565b90600052602060002090601f0160209004810192826142c8576000855561430e565b82601f106142e157805160ff191683800117855561430e565b8280016001018555821561430e579182015b8281111561430e5782518255916020019190600101906142f3565b5061431a92915061431e565b5090565b5b8082111561431a576000815560010161431f565b7fffffffff00000000000000000000000000000000000000000000000000000000811681146110f457600080fd5b60006020828403121561437357600080fd5b8135611b6a81614333565b60005b83811015614399578181015183820152602001614381565b838111156124575750506000910152565b600081518084526143c281602086016020860161437e565b601f01601f19169290920160200192915050565b602081526000611b6a60208301846143aa565b6000602082840312156143fb57600080fd5b5035919050565b80356001600160a01b038116811461441957600080fd5b919050565b6000806040838503121561443157600080fd5b61443a83614402565b946020939093013593505050565b634e487b7160e01b600052604160045260246000fd5b604051601f8201601f1916810167ffffffffffffffff8111828210171561448757614487614448565b604052919050565b600067ffffffffffffffff8211156144a9576144a9614448565b5060051b60200190565b600082601f8301126144c457600080fd5b813567ffffffffffffffff8111156144de576144de614448565b6144f16020601f19601f8401160161445e565b81815284602083860101111561450657600080fd5b816020850160208301376000918101602001919091529392505050565b600082601f83011261453457600080fd5b813560206145496145448361448f565b61445e565b82815260059290921b8401810191818101908684111561456857600080fd5b8286015b848110156145a857803567ffffffffffffffff81111561458c5760008081fd5b61459a8986838b01016144b3565b84525091830191830161456c565b509695505050505050565b6000806000606084860312156145c857600080fd5b6145d184614402565b925060208401359150604084013567ffffffffffffffff8111156145f457600080fd5b61460086828701614523565b9150509250925092565b60008060006060848603121561461f57600080fd5b61462884614402565b925061463660208501614402565b9150604084013590509250925092565b60006020828403121561465857600080fd5b611b6a82614402565b6000806040838503121561467457600080fd5b823567ffffffffffffffff8082111561468c57600080fd5b614698868387016144b3565b935060208501359150808211156146ae57600080fd5b506146bb85828601614523565b9150509250929050565b600080604083850312156146d857600080fd5b6146e183614402565b9150602083013567ffffffffffffffff8111156146fd57600080fd5b6146bb858286016144b3565b803560ff8116811461441957600080fd5b600080600080600080600060e0888a03121561473557600080fd5b873596506020614746818a01614402565b965060408901359550606089013567ffffffffffffffff8082111561476a57600080fd5b6147768c838d016144b3565b965060808b013591508082111561478c57600080fd5b6147988c838d016144b3565b955060a08b01359150808211156147ae57600080fd5b508901601f81018b136147c057600080fd5b80356147ce6145448261448f565b81815260059190911b8201830190838101908d8311156147ed57600080fd5b928401925b828410156148125761480384614402565b825292840192908401906147f2565b809650505050505061482660c08901614709565b905092959891949750929550565b60008060006060848603121561484957600080fd5b61485284614402565b9250602084013567ffffffffffffffff81111561486e57600080fd5b61487a868287016144b3565b925050604084013590509250925092565b6000806000606084860312156148a057600080fd5b6148a984614402565b95602085013595506040909401359392505050565b600080604083850312156148d157600080fd5b82359150602083013567ffffffffffffffff8111156148ef57600080fd5b6146bb85828601614523565b80151581146110f457600080fd5b6000806040838503121561491c57600080fd5b61492583614402565b91506020830135614935816148fb565b809150509250929050565b60c08101818360005b60068110156149715781516001600160a01b0316835260209283019290910190600101614949565b50505092915050565b60008060006060848603121561498f57600080fd5b61499884614402565b9250602084013567ffffffffffffffff808211156149b557600080fd5b6149c1878388016144b3565b935060408601359150808211156149d757600080fd5b5061460086828701614523565b600080600080608085870312156149fa57600080fd5b614a0385614402565b9350614a1160208601614402565b925060408501359150606085013567ffffffffffffffff811115614a3457600080fd5b614a40878288016144b3565b91505092959194509250565b634e487b7160e01b600052602160045260246000fd5b6020810160048310614a8457634e487b7160e01b600052602160045260246000fd5b91905290565b60008060408385031215614a9d57600080fd5b614aa683614402565b9150614ab460208401614402565b90509250929050565b600181811c90821680614ad157607f821691505b60208210811415614af257634e487b7160e01b600052602260045260246000fd5b50919050565b634e487b7160e01b600052601160045260246000fd5b600060ff821660ff811415614b2557614b25614af8565b60010192915050565b634e487b7160e01b600052603260045260246000fd5b60007fffffffffffffffffffffffffffffffffffffffffffffffffffffffffffffffff821415614b7657614b76614af8565b5060010190565b600082821015614b8f57614b8f614af8565b500390565b60008219821115614ba757614ba7614af8565b500190565b8581528460208201526bffffffffffffffffffffffff198460601b16604082015260008351614be281605485016020880161437e565b605492019182019290925260740195945050505050565b600060208284031215614c0b57600080fd5b5051919050565b600060208284031215614c2457600080fd5b8151611b6a816148fb565b60006001600160a01b03808716835280861660208401525083604083015260806060830152614c6160808301846143aa565b9695505050505050565b600060208284031215614c7d57600080fd5b8151611b6a81614333565b60008251614c9a81846020870161437e565b919091019291505056fe416464726573733a206c6f772d6c6576656c2064656c65676174652063616c6c206661696c6564a2646970667358221220553911337c7282e07e82cb4d1ff9d844d47274efb8d1e4196411399bcef83f7664736f6c63430008090033",
  "devdoc": {
    "kind": "dev",
    "methods": {
      "approve(address,uint256)": {
        "details": "See {IERC721-approve}."
      },
      "balanceOf(address)": {
        "details": "See {IERC721-balanceOf}."
      },
      "constructor": {
        "custom:oz-upgrades-unsafe-allow": "constructor"
      },
      "getApproved(uint256)": {
        "details": "See {IERC721-getApproved}."
      },
      "isApprovedForAll(address,address)": {
        "details": "See {IERC721-isApprovedForAll}."
      },
      "name()": {
        "details": "See {IERC721Metadata-name}."
      },
      "ownerOf(uint256)": {
        "details": "See {IERC721-ownerOf}."
      },
      "proxiableUUID()": {
        "details": "Implementation of the ERC1822 {proxiableUUID} function. This returns the storage slot used by the implementation. It is used to validate that the this implementation remains valid after an upgrade. IMPORTANT: A proxy pointing at a proxiable contract should not be considered proxiable itself, because this risks bricking a proxy that upgrades to it, by delegating to itself until out of gas. Thus it is critical that this function revert if invoked through a proxy. This is guaranteed by the `notDelegated` modifier."
      },
      "safeTransferFrom(address,address,uint256)": {
        "details": "See {IERC721-safeTransferFrom}."
      },
      "safeTransferFrom(address,address,uint256,bytes)": {
        "details": "See {IERC721-safeTransferFrom}."
      },
      "setApprovalForAll(address,bool)": {
        "details": "See {IERC721-setApprovalForAll}."
      },
      "supportsInterface(bytes4)": {
        "details": "See {IERC165-supportsInterface}."
      },
      "symbol()": {
        "details": "See {IERC721Metadata-symbol}."
      },
      "tokenURI(uint256)": {
        "details": "See {IERC721Metadata-tokenURI}."
      },
      "transferFrom(address,address,uint256)": {
        "details": "See {IERC721-transferFrom}."
      },
      "transferOwnership(address)": {
        "details": "Transfers ownership of the contract to a new account (`newOwner`). Can only be called by the current owner."
      },
      "upgradeTo(address)": {
        "details": "Upgrade the implementation of the proxy to `newImplementation`. Calls {_authorizeUpgrade}. Emits an {Upgraded} event."
      },
      "upgradeToAndCall(address,bytes)": {
        "details": "Upgrade the implementation of the proxy to `newImplementation`, and subsequently execute the function call encoded in `data`. Calls {_authorizeUpgrade}. Emits an {Upgraded} event."
      }
    },
    "version": 1
  },
  "userdoc": {
    "kind": "user",
    "methods": {},
    "version": 1
  },
  "storageLayout": {
    "storage": [
      {
        "astId": 527,
        "contract": "contracts/ERC721/Elf.sol:VM3Elf",
        "label": "_initialized",
        "offset": 0,
        "slot": "0",
        "type": "t_uint8"
      },
      {
        "astId": 530,
        "contract": "contracts/ERC721/Elf.sol:VM3Elf",
        "label": "_initializing",
        "offset": 1,
        "slot": "0",
        "type": "t_bool"
      },
      {
        "astId": 2539,
        "contract": "contracts/ERC721/Elf.sol:VM3Elf",
        "label": "__gap",
        "offset": 0,
        "slot": "1",
        "type": "t_array(t_uint256)50_storage"
      },
      {
        "astId": 2869,
        "contract": "contracts/ERC721/Elf.sol:VM3Elf",
        "label": "__gap",
        "offset": 0,
        "slot": "51",
        "type": "t_array(t_uint256)50_storage"
      },
      {
        "astId": 1231,
        "contract": "contracts/ERC721/Elf.sol:VM3Elf",
        "label": "_name",
        "offset": 0,
        "slot": "101",
        "type": "t_string_storage"
      },
      {
        "astId": 1233,
        "contract": "contracts/ERC721/Elf.sol:VM3Elf",
        "label": "_symbol",
        "offset": 0,
        "slot": "102",
        "type": "t_string_storage"
      },
      {
        "astId": 1237,
        "contract": "contracts/ERC721/Elf.sol:VM3Elf",
        "label": "_owners",
        "offset": 0,
        "slot": "103",
        "type": "t_mapping(t_uint256,t_address)"
      },
      {
        "astId": 1241,
        "contract": "contracts/ERC721/Elf.sol:VM3Elf",
        "label": "_balances",
        "offset": 0,
        "slot": "104",
        "type": "t_mapping(t_address,t_uint256)"
      },
      {
        "astId": 1245,
        "contract": "contracts/ERC721/Elf.sol:VM3Elf",
        "label": "_tokenApprovals",
        "offset": 0,
        "slot": "105",
        "type": "t_mapping(t_uint256,t_address)"
      },
      {
        "astId": 1251,
        "contract": "contracts/ERC721/Elf.sol:VM3Elf",
        "label": "_operatorApprovals",
        "offset": 0,
        "slot": "106",
        "type": "t_mapping(t_address,t_mapping(t_address,t_bool))"
      },
      {
        "astId": 2093,
        "contract": "contracts/ERC721/Elf.sol:VM3Elf",
        "label": "__gap",
        "offset": 0,
        "slot": "107",
        "type": "t_array(t_uint256)44_storage"
      },
      {
        "astId": 509,
        "contract": "contracts/ERC721/Elf.sol:VM3Elf",
        "label": "__gap",
        "offset": 0,
        "slot": "151",
        "type": "t_array(t_uint256)50_storage"
      },
      {
        "astId": 806,
        "contract": "contracts/ERC721/Elf.sol:VM3Elf",
        "label": "__gap",
        "offset": 0,
        "slot": "201",
        "type": "t_array(t_uint256)50_storage"
      },
      {
        "astId": 7462,
        "contract": "contracts/ERC721/Elf.sol:VM3Elf",
        "label": "_owners",
        "offset": 0,
        "slot": "251",
        "type": "t_array(t_address)6_storage"
      },
      {
        "astId": 7466,
        "contract": "contracts/ERC721/Elf.sol:VM3Elf",
        "label": "_ownersIndex",
        "offset": 0,
        "slot": "257",
        "type": "t_mapping(t_address,t_uint8)"
      },
      {
        "astId": 7468,
        "contract": "contracts/ERC721/Elf.sol:VM3Elf",
        "label": "_numOwners",
        "offset": 0,
        "slot": "258",
        "type": "t_uint8"
      },
      {
        "astId": 7473,
        "contract": "contracts/ERC721/Elf.sol:VM3Elf",
        "label": "signRequired",
        "offset": 1,
        "slot": "258",
        "type": "t_uint8"
      },
      {
        "astId": 7478,
        "contract": "contracts/ERC721/Elf.sol:VM3Elf",
        "label": "operationsStatus",
        "offset": 0,
        "slot": "259",
        "type": "t_mapping(t_bytes32,t_enum(OpStatus)7458)"
      },
      {
        "astId": 7480,
        "contract": "contracts/ERC721/Elf.sol:VM3Elf",
        "label": "nonce",
        "offset": 0,
        "slot": "260",
        "type": "t_uint256"
      },
      {
        "astId": 9427,
        "contract": "contracts/ERC721/Elf.sol:VM3Elf",
        "label": "VM3",
        "offset": 0,
        "slot": "261",
        "type": "t_contract(IERC20)4234"
      },
      {
        "astId": 9429,
        "contract": "contracts/ERC721/Elf.sol:VM3Elf",
        "label": "DOMAIN",
        "offset": 0,
        "slot": "262",
        "type": "t_bytes32"
      },
      {
        "astId": 9431,
        "contract": "contracts/ERC721/Elf.sol:VM3Elf",
        "label": "locked",
        "offset": 0,
        "slot": "263",
        "type": "t_uint256"
      },
      {
        "astId": 9433,
        "contract": "contracts/ERC721/Elf.sol:VM3Elf",
        "label": "_tokenIdCounter",
        "offset": 0,
        "slot": "264",
        "type": "t_uint256"
      },
      {
        "astId": 9435,
        "contract": "contracts/ERC721/Elf.sol:VM3Elf",
        "label": "totalVM3",
        "offset": 0,
        "slot": "265",
        "type": "t_uint256"
      },
      {
        "astId": 9437,
        "contract": "contracts/ERC721/Elf.sol:VM3Elf",
        "label": "_costs",
        "offset": 0,
        "slot": "266",
        "type": "t_uint256"
      },
      {
        "astId": 9439,
        "contract": "contracts/ERC721/Elf.sol:VM3Elf",
        "label": "atDisposal",
        "offset": 0,
        "slot": "267",
        "type": "t_uint256"
      },
      {
        "astId": 9443,
        "contract": "contracts/ERC721/Elf.sol:VM3Elf",
        "label": "_tokenURIs",
        "offset": 0,
        "slot": "268",
        "type": "t_mapping(t_uint256,t_string_storage)"
      },
      {
        "astId": 9447,
        "contract": "contracts/ERC721/Elf.sol:VM3Elf",
        "label": "_depositAmounts",
        "offset": 0,
        "slot": "269",
        "type": "t_mapping(t_address,t_uint256)"
      }
    ],
    "types": {
      "t_address": {
        "encoding": "inplace",
        "label": "address",
        "numberOfBytes": "20"
      },
      "t_array(t_address)6_storage": {
        "base": "t_address",
        "encoding": "inplace",
        "label": "address[6]",
        "numberOfBytes": "192"
      },
      "t_array(t_uint256)44_storage": {
        "base": "t_uint256",
        "encoding": "inplace",
        "label": "uint256[44]",
        "numberOfBytes": "1408"
      },
      "t_array(t_uint256)50_storage": {
        "base": "t_uint256",
        "encoding": "inplace",
        "label": "uint256[50]",
        "numberOfBytes": "1600"
      },
      "t_bool": {
        "encoding": "inplace",
        "label": "bool",
        "numberOfBytes": "1"
      },
      "t_bytes32": {
        "encoding": "inplace",
        "label": "bytes32",
        "numberOfBytes": "32"
      },
      "t_contract(IERC20)4234": {
        "encoding": "inplace",
        "label": "contract IERC20",
        "numberOfBytes": "20"
      },
      "t_enum(OpStatus)7458": {
        "encoding": "inplace",
        "label": "enum SafeOwnableUpgradeable.OpStatus",
        "numberOfBytes": "1"
      },
      "t_mapping(t_address,t_bool)": {
        "encoding": "mapping",
        "key": "t_address",
        "label": "mapping(address => bool)",
        "numberOfBytes": "32",
        "value": "t_bool"
      },
      "t_mapping(t_address,t_mapping(t_address,t_bool))": {
        "encoding": "mapping",
        "key": "t_address",
        "label": "mapping(address => mapping(address => bool))",
        "numberOfBytes": "32",
        "value": "t_mapping(t_address,t_bool)"
      },
      "t_mapping(t_address,t_uint256)": {
        "encoding": "mapping",
        "key": "t_address",
        "label": "mapping(address => uint256)",
        "numberOfBytes": "32",
        "value": "t_uint256"
      },
      "t_mapping(t_address,t_uint8)": {
        "encoding": "mapping",
        "key": "t_address",
        "label": "mapping(address => uint8)",
        "numberOfBytes": "32",
        "value": "t_uint8"
      },
      "t_mapping(t_bytes32,t_enum(OpStatus)7458)": {
        "encoding": "mapping",
        "key": "t_bytes32",
        "label": "mapping(bytes32 => enum SafeOwnableUpgradeable.OpStatus)",
        "numberOfBytes": "32",
        "value": "t_enum(OpStatus)7458"
      },
      "t_mapping(t_uint256,t_address)": {
        "encoding": "mapping",
        "key": "t_uint256",
        "label": "mapping(uint256 => address)",
        "numberOfBytes": "32",
        "value": "t_address"
      },
      "t_mapping(t_uint256,t_string_storage)": {
        "encoding": "mapping",
        "key": "t_uint256",
        "label": "mapping(uint256 => string)",
        "numberOfBytes": "32",
        "value": "t_string_storage"
      },
      "t_string_storage": {
        "encoding": "bytes",
        "label": "string",
        "numberOfBytes": "32"
      },
      "t_uint256": {
        "encoding": "inplace",
        "label": "uint256",
        "numberOfBytes": "32"
      },
      "t_uint8": {
        "encoding": "inplace",
        "label": "uint8",
        "numberOfBytes": "1"
      }
    }
  }
}