{
  "address": "0x087186D43Ae55Ddad1452E35737b4cbC47E49F3C",
  "abi": [
    {
      "inputs": [
        {
          "internalType": "string",
          "name": "name",
          "type": "string"
        },
        {
          "internalType": "string",
          "name": "symbol",
          "type": "string"
        },
        {
          "internalType": "uint256",
          "name": "total",
          "type": "uint256"
        }
      ],
      "stateMutability": "nonpayable",
      "type": "constructor"
    },
    {
      "anonymous": false,
      "inputs": [
        {
          "indexed": true,
          "internalType": "address",
          "name": "owner",
          "type": "address"
        },
        {
          "indexed": true,
          "internalType": "address",
          "name": "approved",
          "type": "address"
        },
        {
          "indexed": true,
          "internalType": "uint256",
          "name": "tokenId",
          "type": "uint256"
        }
      ],
      "name": "Approval",
      "type": "event"
    },
    {
      "anonymous": false,
      "inputs": [
        {
          "indexed": true,
          "internalType": "address",
          "name": "owner",
          "type": "address"
        },
        {
          "indexed": true,
          "internalType": "address",
          "name": "operator",
          "type": "address"
        },
        {
          "indexed": false,
          "internalType": "bool",
          "name": "approved",
          "type": "bool"
        }
      ],
      "name": "ApprovalForAll",
      "type": "event"
    },
    {
      "anonymous": false,
      "inputs": [
        {
          "indexed": true,
          "internalType": "address",
          "name": "previousOwner",
          "type": "address"
        },
        {
          "indexed": true,
          "internalType": "address",
          "name": "newOwner",
          "type": "address"
        }
      ],
      "name": "OwnershipTransferred",
      "type": "event"
    },
    {
      "anonymous": false,
      "inputs": [
        {
          "indexed": false,
          "internalType": "uint256",
          "name": "_starting_time",
          "type": "uint256"
        },
        {
          "indexed": false,
          "internalType": "uint256",
          "name": "_end_time",
          "type": "uint256"
        }
      ],
      "name": "SetAdTime",
      "type": "event"
    },
    {
      "anonymous": false,
      "inputs": [
        {
          "indexed": false,
          "internalType": "uint256",
          "name": "_cap_per_person",
          "type": "uint256"
        }
      ],
      "name": "SetCapPerPerson",
      "type": "event"
    },
    {
      "anonymous": false,
      "inputs": [
        {
          "indexed": false,
          "internalType": "address",
          "name": "token",
          "type": "address"
        },
        {
          "indexed": false,
          "internalType": "uint256",
          "name": "amount",
          "type": "uint256"
        },
        {
          "indexed": false,
          "internalType": "address",
          "name": "nft_token",
          "type": "address"
        },
        {
          "indexed": false,
          "internalType": "uint256",
          "name": "nft_token_id",
          "type": "uint256"
        }
      ],
      "name": "SetSurprise",
      "type": "event"
    },
    {
      "anonymous": false,
      "inputs": [
        {
          "indexed": false,
          "internalType": "uint256",
          "name": "_timestamp",
          "type": "uint256"
        }
      ],
      "name": "SetTestTime",
      "type": "event"
    },
    {
      "anonymous": false,
      "inputs": [
        {
          "indexed": false,
          "internalType": "address",
          "name": "token",
          "type": "address"
        },
        {
          "indexed": false,
          "internalType": "uint256",
          "name": "amount",
          "type": "uint256"
        }
      ],
      "name": "SetUniversal",
      "type": "event"
    },
    {
      "anonymous": false,
      "inputs": [
        {
          "indexed": false,
          "internalType": "uint256",
          "name": "nft_token_id",
          "type": "uint256"
        }
      ],
      "name": "SuperLuckyMan",
      "type": "event"
    },
    {
      "anonymous": false,
      "inputs": [
        {
          "indexed": true,
          "internalType": "address",
          "name": "from",
          "type": "address"
        },
        {
          "indexed": true,
          "internalType": "address",
          "name": "to",
          "type": "address"
        },
        {
          "indexed": true,
          "internalType": "uint256",
          "name": "tokenId",
          "type": "uint256"
        }
      ],
      "name": "Transfer",
      "type": "event"
    },
    {
      "anonymous": false,
      "inputs": [
        {
          "indexed": true,
          "internalType": "address",
          "name": "from",
          "type": "address"
        },
        {
          "indexed": false,
          "internalType": "uint256",
          "name": "tokenId",
          "type": "uint256"
        }
      ],
      "name": "mint",
      "type": "event"
    },
    {
      "inputs": [
        {
          "internalType": "address",
          "name": "to",
          "type": "address"
        },
        {
          "internalType": "uint256",
          "name": "tokenId",
          "type": "uint256"
        }
      ],
      "name": "approve",
      "outputs": [],
      "stateMutability": "nonpayable",
      "type": "function"
    },
    {
      "inputs": [
        {
          "internalType": "address",
          "name": "player",
          "type": "address"
        },
        {
          "internalType": "string",
          "name": "tokenURI",
          "type": "string"
        }
      ],
      "name": "awardItem",
      "outputs": [
        {
          "internalType": "uint256",
          "name": "",
          "type": "uint256"
        }
      ],
      "stateMutability": "nonpayable",
      "type": "function"
    },
    {
      "inputs": [
        {
          "internalType": "address",
          "name": "owner",
          "type": "address"
        }
      ],
      "name": "balanceOf",
      "outputs": [
        {
          "internalType": "uint256",
          "name": "",
          "type": "uint256"
        }
      ],
      "stateMutability": "view",
      "type": "function"
    },
    {
      "inputs": [
        {
          "internalType": "address",
          "name": "player",
          "type": "address"
        },
        {
          "internalType": "string",
          "name": "tokenURI",
          "type": "string"
        },
        {
          "internalType": "uint256",
          "name": "total_",
          "type": "uint256"
        }
      ],
      "name": "batchAwardItem",
      "outputs": [
        {
          "internalType": "bool",
          "name": "",
          "type": "bool"
        }
      ],
      "stateMutability": "nonpayable",
      "type": "function"
    },
    {
      "inputs": [
        {
          "internalType": "uint256",
          "name": "token_id",
          "type": "uint256"
        }
      ],
      "name": "burn",
      "outputs": [],
      "stateMutability": "nonpayable",
      "type": "function"
    },
    {
      "inputs": [],
      "name": "cap_per_person",
      "outputs": [
        {
          "internalType": "uint256",
          "name": "",
          "type": "uint256"
        }
      ],
      "stateMutability": "view",
      "type": "function"
    },
    {
      "inputs": [],
      "name": "end_time",
      "outputs": [
        {
          "internalType": "uint256",
          "name": "",
          "type": "uint256"
        }
      ],
      "stateMutability": "view",
      "type": "function"
    },
    {
      "inputs": [
        {
          "internalType": "uint256",
          "name": "tokenId",
          "type": "uint256"
        }
      ],
      "name": "getApproved",
      "outputs": [
        {
          "internalType": "address",
          "name": "",
          "type": "address"
        }
      ],
      "stateMutability": "view",
      "type": "function"
    },
    {
      "inputs": [],
      "name": "getCurrentTime",
      "outputs": [
        {
          "internalType": "uint256",
          "name": "",
          "type": "uint256"
        }
      ],
      "stateMutability": "view",
      "type": "function"
    },
    {
      "inputs": [],
      "name": "getEndTime",
      "outputs": [
        {
          "internalType": "uint256",
          "name": "",
          "type": "uint256"
        }
      ],
      "stateMutability": "view",
      "type": "function"
    },
    {
      "inputs": [],
      "name": "getSurpriseAmount",
      "outputs": [
        {
          "internalType": "uint256",
          "name": "",
          "type": "uint256"
        }
      ],
      "stateMutability": "view",
      "type": "function"
    },
    {
      "inputs": [],
      "name": "getSurpriseLuckyId",
      "outputs": [
        {
          "internalType": "uint256",
          "name": "",
          "type": "uint256"
        }
      ],
      "stateMutability": "view",
      "type": "function"
    },
    {
      "inputs": [],
      "name": "getSurpriseNftId",
      "outputs": [
        {
          "internalType": "uint256",
          "name": "",
          "type": "uint256"
        }
      ],
      "stateMutability": "view",
      "type": "function"
    },
    {
      "inputs": [],
      "name": "getSurpriseNftToken",
      "outputs": [
        {
          "internalType": "address",
          "name": "",
          "type": "address"
        }
      ],
      "stateMutability": "view",
      "type": "function"
    },
    {
      "inputs": [],
      "name": "getSurpriseStatus",
      "outputs": [
        {
          "internalType": "bool",
          "name": "",
          "type": "bool"
        }
      ],
      "stateMutability": "view",
      "type": "function"
    },
    {
      "inputs": [],
      "name": "getSurpriseToken",
      "outputs": [
        {
          "internalType": "address",
          "name": "",
          "type": "address"
        }
      ],
      "stateMutability": "view",
      "type": "function"
    },
    {
      "inputs": [],
      "name": "getUniversalAmount",
      "outputs": [
        {
          "internalType": "uint256",
          "name": "",
          "type": "uint256"
        }
      ],
      "stateMutability": "view",
      "type": "function"
    },
    {
      "inputs": [],
      "name": "getUniversalToken",
      "outputs": [
        {
          "internalType": "address",
          "name": "",
          "type": "address"
        }
      ],
      "stateMutability": "view",
      "type": "function"
    },
    {
      "inputs": [
        {
          "internalType": "address",
          "name": "owner",
          "type": "address"
        },
        {
          "internalType": "address",
          "name": "operator",
          "type": "address"
        }
      ],
      "name": "isApprovedForAll",
      "outputs": [
        {
          "internalType": "bool",
          "name": "",
          "type": "bool"
        }
      ],
      "stateMutability": "view",
      "type": "function"
    },
    {
      "inputs": [],
      "name": "name",
      "outputs": [
        {
          "internalType": "string",
          "name": "",
          "type": "string"
        }
      ],
      "stateMutability": "view",
      "type": "function"
    },
    {
      "inputs": [],
      "name": "owner",
      "outputs": [
        {
          "internalType": "address",
          "name": "",
          "type": "address"
        }
      ],
      "stateMutability": "view",
      "type": "function"
    },
    {
      "inputs": [
        {
          "internalType": "uint256",
          "name": "tokenId",
          "type": "uint256"
        }
      ],
      "name": "ownerOf",
      "outputs": [
        {
          "internalType": "address",
          "name": "",
          "type": "address"
        }
      ],
      "stateMutability": "view",
      "type": "function"
    },
    {
      "inputs": [],
      "name": "renounceOwnership",
      "outputs": [],
      "stateMutability": "nonpayable",
      "type": "function"
    },
    {
      "inputs": [
        {
          "internalType": "address",
          "name": "from",
          "type": "address"
        },
        {
          "internalType": "address",
          "name": "to",
          "type": "address"
        },
        {
          "internalType": "uint256",
          "name": "tokenId",
          "type": "uint256"
        }
      ],
      "name": "safeTransferFrom",
      "outputs": [],
      "stateMutability": "nonpayable",
      "type": "function"
    },
    {
      "inputs": [
        {
          "internalType": "address",
          "name": "from",
          "type": "address"
        },
        {
          "internalType": "address",
          "name": "to",
          "type": "address"
        },
        {
          "internalType": "uint256",
          "name": "tokenId",
          "type": "uint256"
        },
        {
          "internalType": "bytes",
          "name": "data",
          "type": "bytes"
        }
      ],
      "name": "safeTransferFrom",
      "outputs": [],
      "stateMutability": "nonpayable",
      "type": "function"
    },
    {
      "inputs": [
        {
          "internalType": "uint256",
          "name": "start_",
          "type": "uint256"
        },
        {
          "internalType": "uint256",
          "name": "end_",
          "type": "uint256"
        }
      ],
      "name": "setAdTime",
      "outputs": [],
      "stateMutability": "nonpayable",
      "type": "function"
    },
    {
      "inputs": [
        {
          "internalType": "address",
          "name": "operator",
          "type": "address"
        },
        {
          "internalType": "bool",
          "name": "approved",
          "type": "bool"
        }
      ],
      "name": "setApprovalForAll",
      "outputs": [],
      "stateMutability": "nonpayable",
      "type": "function"
    },
    {
      "inputs": [
        {
          "internalType": "uint256",
          "name": "cap_per_person_",
          "type": "uint256"
        }
      ],
      "name": "setCapPerPerson",
      "outputs": [],
      "stateMutability": "nonpayable",
      "type": "function"
    },
    {
      "inputs": [
        {
          "internalType": "address",
          "name": "addr_",
          "type": "address"
        }
      ],
      "name": "setSettlement",
      "outputs": [],
      "stateMutability": "nonpayable",
      "type": "function"
    },
    {
      "inputs": [
        {
          "internalType": "address",
          "name": "token",
          "type": "address"
        },
        {
          "internalType": "uint256",
          "name": "amount",
          "type": "uint256"
        },
        {
          "internalType": "address",
          "name": "nft_token",
          "type": "address"
        },
        {
          "internalType": "uint256",
          "name": "nft_token_id",
          "type": "uint256"
        }
      ],
      "name": "setSurprise",
      "outputs": [],
      "stateMutability": "nonpayable",
      "type": "function"
    },
    {
      "inputs": [
        {
          "internalType": "uint256",
          "name": "timestamp_",
          "type": "uint256"
        }
      ],
      "name": "setTestTime",
      "outputs": [],
      "stateMutability": "nonpayable",
      "type": "function"
    },
    {
      "inputs": [
        {
          "internalType": "address",
          "name": "token",
          "type": "address"
        },
        {
          "internalType": "uint256",
          "name": "amount",
          "type": "uint256"
        }
      ],
      "name": "setUniversal",
      "outputs": [],
      "stateMutability": "nonpayable",
      "type": "function"
    },
    {
      "inputs": [],
      "name": "starting_time",
      "outputs": [
        {
          "internalType": "uint256",
          "name": "",
          "type": "uint256"
        }
      ],
      "stateMutability": "view",
      "type": "function"
    },
    {
      "inputs": [
        {
          "internalType": "uint256",
          "name": "nft_token_id",
          "type": "uint256"
        }
      ],
      "name": "superLuckyMan",
      "outputs": [],
      "stateMutability": "nonpayable",
      "type": "function"
    },
    {
      "inputs": [
        {
          "internalType": "bytes4",
          "name": "interfaceId",
          "type": "bytes4"
        }
      ],
      "name": "supportsInterface",
      "outputs": [
        {
          "internalType": "bool",
          "name": "",
          "type": "bool"
        }
      ],
      "stateMutability": "view",
      "type": "function"
    },
    {
      "inputs": [],
      "name": "symbol",
      "outputs": [
        {
          "internalType": "string",
          "name": "",
          "type": "string"
        }
      ],
      "stateMutability": "view",
      "type": "function"
    },
    {
      "inputs": [
        {
          "internalType": "uint256",
          "name": "tokenId",
          "type": "uint256"
        }
      ],
      "name": "tokenURI",
      "outputs": [
        {
          "internalType": "string",
          "name": "",
          "type": "string"
        }
      ],
      "stateMutability": "view",
      "type": "function"
    },
    {
      "inputs": [],
      "name": "total",
      "outputs": [
        {
          "internalType": "uint256",
          "name": "",
          "type": "uint256"
        }
      ],
      "stateMutability": "view",
      "type": "function"
    },
    {
      "inputs": [
        {
          "internalType": "address",
          "name": "from",
          "type": "address"
        },
        {
          "internalType": "address",
          "name": "to",
          "type": "address"
        },
        {
          "internalType": "uint256",
          "name": "tokenId",
          "type": "uint256"
        }
      ],
      "name": "transferFrom",
      "outputs": [],
      "stateMutability": "nonpayable",
      "type": "function"
    },
    {
      "inputs": [
        {
          "internalType": "address",
          "name": "newOwner",
          "type": "address"
        }
      ],
      "name": "transferOwnership",
      "outputs": [],
      "stateMutability": "nonpayable",
      "type": "function"
    }
  ],
  "transactionHash": "0x459f113ee6bf515560ac4735e46e39685c1fa089c757f4489b2a34894a21fdbf",
  "args": [
    "Test AD",
    "TAD",
    1000
  ],
  "numDeployments": 1,
  "solcInputHash": "dfef3634e9ff937382408d71ccb64ada",
  "bytecode": "0x608060405260006014553480156200001657600080fd5b5060405162002c9f38038062002c9f83398101604081905262000039916200026f565b8282828282816000908051906020019062000056929190620000fc565b5080516200006c906001906020840190620000fc565b5050506200008962000083620000a660201b60201c565b620000aa565b62000096600182620002e2565b6009555062000345945050505050565b3390565b600780546001600160a01b038381166001600160a01b0319831681179093556040519116919082907f8be0079c531659141344cd1fd0a4f28419497f9722a3daafe3b4186f6b6457e090600090a35050565b8280546200010a9062000308565b90600052602060002090601f0160209004810192826200012e576000855562000179565b82601f106200014957805160ff191683800117855562000179565b8280016001018555821562000179579182015b82811115620001795782518255916020019190600101906200015c565b50620001879291506200018b565b5090565b5b808211156200018757600081556001016200018c565b634e487b7160e01b600052604160045260246000fd5b600082601f830112620001ca57600080fd5b81516001600160401b0380821115620001e757620001e7620001a2565b604051601f8301601f19908116603f01168101908282118183101715620002125762000212620001a2565b816040528381526020925086838588010111156200022f57600080fd5b600091505b8382101562000253578582018301518183018401529082019062000234565b83821115620002655760008385830101525b9695505050505050565b6000806000606084860312156200028557600080fd5b83516001600160401b03808211156200029d57600080fd5b620002ab87838801620001b8565b94506020860151915080821115620002c257600080fd5b50620002d186828701620001b8565b925050604084015190509250925092565b6000828210156200030357634e487b7160e01b600052601160045260246000fd5b500390565b600181811c908216806200031d57607f821691505b602082108114156200033f57634e487b7160e01b600052602260045260246000fd5b50919050565b61294a80620003556000396000f3fe608060405234801561001057600080fd5b50600436106102c85760003560e01c80635d1b48b21161017b5780639ab6d0cf116100d8578063c9d1d7241161008c578063cf37834311610071578063cf3783431461051d578063e985e9c514610530578063f2fde38b1461056c57600080fd5b8063c9d1d72414610502578063cdc186c21461051557600080fd5b8063b88d4fde116100bd578063b88d4fde146104d4578063c87b56dd146104e7578063c995cf82146104fa57600080fd5b80639ab6d0cf146104ae578063a22cb465146104c157600080fd5b806389564be81161012f5780638f4e6f37116101145780638f4e6f371461048057806395d89b4114610493578063999434bc1461049b57600080fd5b806389564be8146104665780638da5cb5b1461046f57600080fd5b806370a082311161016057806370a0823114610438578063715018a61461044b5780637dda10021461045357600080fd5b80635d1b48b21461041d5780636352211e1461042557600080fd5b806329ee79791161022957806341dc9626116101dd57806342966c68116101c257806342966c68146103ef578063439f5ac2146104025780634f86a2ef1461040a57600080fd5b806341dc9626146103d457806342842e0e146103dc57600080fd5b80632f273a961161020e5780632f273a96146103bb5780633aa500f5146103c45780633b108d12146103cc57600080fd5b806329ee79791461039f5780632ddbd13a146103b257600080fd5b806312cec21f1161028057806323b872dd1161026557806323b872dd1461037c57806327115fd81461038f57806329cb924d1461039757600080fd5b806312cec21f1461035d578063162433561461037357600080fd5b8063081812fc116102b1578063081812fc1461030a578063095ea7b314610335578063097c74061461034a57600080fd5b806301ffc9a7146102cd57806306fdde03146102f5575b600080fd5b6102e06102db366004612338565b61057f565b60405190151581526020015b60405180910390f35b6102fd610664565b6040516102ec91906123ad565b61031d6103183660046123c0565b6106f6565b6040516001600160a01b0390911681526020016102ec565b6103486103433660046123ee565b61071d565b005b6103486103583660046123c0565b610854565b61036561089d565b6040519081526020016102ec565b61036560135481565b61034861038a36600461241a565b610942565b6103656109c9565b610365610a1d565b6103486103ad3660046123ee565b610a29565b61036560095481565b61036560125481565b610365610aa5565b61031d610af9565b610365610b99565b6103486103ea36600461241a565b610bed565b6103486103fd3660046123c0565b610c08565b601354610365565b6103486104183660046123c0565b610c94565b6102e0610d38565b61031d6104333660046123c0565b610dd7565b61036561044636600461245b565b610e3c565b610348610ed6565b610348610461366004612478565b610eea565b61036560145481565b6007546001600160a01b031661031d565b61034861048e36600461245b565b610f81565b6102fd610fb8565b6103486104a936600461249a565b610fc7565b6102e06104bc36600461258e565b611087565b6103486104cf3660046125f5565b61115b565b6103486104e236600461262e565b61116a565b6102fd6104f53660046123c0565b6111f8565b61031d611309565b6103486105103660046123c0565b61135d565b61031d61139a565b61036561052b3660046126ae565b6113ee565b6102e061053e3660046126fe565b6001600160a01b03918216600090815260056020908152604080832093909416825291909152205460ff1690565b61034861057a36600461245b565b6114e9565b60007fffffffff0000000000000000000000000000000000000000000000000000000082167f80ac58cd00000000000000000000000000000000000000000000000000000000148061061257507fffffffff0000000000000000000000000000000000000000000000000000000082167f5b5e139f00000000000000000000000000000000000000000000000000000000145b8061065e57507f01ffc9a7000000000000000000000000000000000000000000000000000000007fffffffff000000000000000000000000000000000000000000000000000000008316145b92915050565b6060600080546106739061272c565b80601f016020809104026020016040519081016040528092919081815260200182805461069f9061272c565b80156106ec5780601f106106c1576101008083540402835291602001916106ec565b820191906000526020600020905b8154815290600101906020018083116106cf57829003601f168201915b5050505050905090565b600061070182611576565b506000908152600460205260409020546001600160a01b031690565b600061072882610dd7565b9050806001600160a01b0316836001600160a01b031614156107b75760405162461bcd60e51b815260206004820152602160248201527f4552433732313a20617070726f76616c20746f2063757272656e74206f776e6560448201527f720000000000000000000000000000000000000000000000000000000000000060648201526084015b60405180910390fd5b336001600160a01b03821614806107d357506107d3813361053e565b6108455760405162461bcd60e51b815260206004820152603e60248201527f4552433732313a20617070726f76652063616c6c6572206973206e6f7420746f60448201527f6b656e206f776e6572206e6f7220617070726f76656420666f7220616c6c000060648201526084016107ae565b61084f83836115da565b505050565b61085c611655565b610866600a829055565b6040518181527f8e71b95180bc7c28aed93371acbc7a4da0e5fdb66d60d2c138fe13b5290a8da2906020015b60405180910390a150565b6040517f52eee774000000000000000000000000000000000000000000000000000000008152600d60048201526000907375Fb33D81A965fD02DD64fac4f0463e42A1ef856906352eee774906024015b60206040518083038186803b15801561090557600080fd5b505af4158015610919573d6000803e3d6000fd5b505050506040513d601f19601f8201168201806040525081019061093d9190612767565b905090565b61094c33826116af565b6109be5760405162461bcd60e51b815260206004820152602e60248201527f4552433732313a2063616c6c6572206973206e6f7420746f6b656e206f776e6560448201527f72206e6f7220617070726f76656400000000000000000000000000000000000060648201526084016107ae565b61084f83838361172d565b6040517f9dc5d3e3000000000000000000000000000000000000000000000000000000008152600b60048201526000907375Fb33D81A965fD02DD64fac4f0463e42A1ef85690639dc5d3e3906024016108ed565b600061093d600a611868565b610a31611655565b600b805473ffffffffffffffffffffffffffffffffffffffff19166001600160a01b038416179055600c819055604080516001600160a01b0384168152602081018390527fe6fefa8502e78684d621f7cd79f7064782fe85fbb8696d85d1831157e64e9b0d91015b60405180910390a15050565b6040517ff88bd2e6000000000000000000000000000000000000000000000000000000008152600d60048201526000907375Fb33D81A965fD02DD64fac4f0463e42A1ef8569063f88bd2e6906024016108ed565b6040517fb28a6b5a000000000000000000000000000000000000000000000000000000008152600b60048201526000907375Fb33D81A965fD02DD64fac4f0463e42A1ef8569063b28a6b5a906024015b60206040518083038186803b158015610b6157600080fd5b505af4158015610b75573d6000803e3d6000fd5b505050506040513d601f19601f8201168201806040525081019061093d9190612780565b6040517f691d76ef000000000000000000000000000000000000000000000000000000008152600d60048201526000907375Fb33D81A965fD02DD64fac4f0463e42A1ef8569063691d76ef906024016108ed565b61084f8383836040518060200160405280600081525061116a565b6015546001600160a01b03163314610c885760405162461bcd60e51b815260206004820152602160248201527f6f6e6c79536574746c656d656e743a205065726d697373696f6e2064656e696560448201527f640000000000000000000000000000000000000000000000000000000000000060648201526084016107ae565b610c918161187e565b50565b610c9c611655565b600d5460ff1615610cef5760405162461bcd60e51b815260206004820152601260248201527f63616e6e6f74206265207265706561746564000000000000000000000000000060448201526064016107ae565b610d08600d82815460ff19166001178255600490910155565b6040518181527fda32d3220cbbd3f75c13672c4ca09f23ad567aafa3129708621f65985330eaaf90602001610892565b6040517f20efe87a000000000000000000000000000000000000000000000000000000008152600d60048201526000907375Fb33D81A965fD02DD64fac4f0463e42A1ef856906320efe87a9060240160206040518083038186803b158015610d9f57600080fd5b505af4158015610db3573d6000803e3d6000fd5b505050506040513d601f19601f8201168201806040525081019061093d919061279d565b6000818152600260205260408120546001600160a01b03168061065e5760405162461bcd60e51b815260206004820152601860248201527f4552433732313a20696e76616c696420746f6b656e204944000000000000000060448201526064016107ae565b60006001600160a01b038216610eba5760405162461bcd60e51b815260206004820152602960248201527f4552433732313a2061646472657373207a65726f206973206e6f74206120766160448201527f6c6964206f776e6572000000000000000000000000000000000000000000000060648201526084016107ae565b506001600160a01b031660009081526003602052604090205490565b610ede611655565b610ee860006118be565b565b610ef2611655565b808210610f415760405162461bcd60e51b815260206004820152600c60248201527f696e76616c69642074696d65000000000000000000000000000000000000000060448201526064016107ae565b6012829055601381905560408051838152602081018390527fe7754d427fa48e0fd514e205afc1230e2f209449de580d195a0393471a841a109101610a99565b610f89611655565b6015805473ffffffffffffffffffffffffffffffffffffffff19166001600160a01b0392909216919091179055565b6060600180546106739061272c565b610fcf611655565b600d80547fffffffffffffffffffffff0000000000000000000000000000000000000000ff166101006001600160a01b0387811691820292909217909255600e859055600f805473ffffffffffffffffffffffffffffffffffffffff19169185169182179055601083905560408051928352602083018690528281019190915260608201839052517fa25d9c516a746a27e71e24e075febf64c33bad776135eb1566446a8e4532b5a09181900360800190a150505050565b6000611091611655565b6009546001836110a060085490565b6110aa91906127d0565b6110b491906127e8565b11156111285760405162461bcd60e51b815260206004820152602660248201527f55707065724c696d69743a20746865206c696d697420686173206265656e207260448201527f656163686564000000000000000000000000000000000000000000000000000060648201526084016107ae565b60005b828110156111505761113d85856113ee565b5080611148816127ff565b91505061112b565b506001949350505050565b61116633838361191d565b5050565b61117433836116af565b6111e65760405162461bcd60e51b815260206004820152602e60248201527f4552433732313a2063616c6c6572206973206e6f7420746f6b656e206f776e6560448201527f72206e6f7220617070726f76656400000000000000000000000000000000000060648201526084016107ae565b6111f2848484846119ec565b50505050565b606061120382611576565b6000828152600660205260408120805461121c9061272c565b80601f01602080910402602001604051908101604052809291908181526020018280546112489061272c565b80156112955780601f1061126a57610100808354040283529160200191611295565b820191906000526020600020905b81548152906001019060200180831161127857829003601f168201915b5050505050905060006112b360408051602081019091526000815290565b90508051600014156112c6575092915050565b8151156112f85780826040516020016112e0929190612838565b60405160208183030381529060405292505050919050565b61130184611a75565b949350505050565b6040517f88575b23000000000000000000000000000000000000000000000000000000008152600d60048201526000907375Fb33D81A965fD02DD64fac4f0463e42A1ef856906388575b2390602401610b49565b611365611655565b60148190556040518181527faced56f82e5761c222bd79c5badff97dd1fd4657ca48391f2c675999949687ff90602001610892565b6040517fb5f91e71000000000000000000000000000000000000000000000000000000008152600d60048201526000907375Fb33D81A965fD02DD64fac4f0463e42A1ef8569063b5f91e7190602401610b49565b60006113f8611655565b600061140360085490565b905060095481111561147d5760405162461bcd60e51b815260206004820152602660248201527f55707065724c696d69743a20746865206c696d697420686173206265656e207260448201527f656163686564000000000000000000000000000000000000000000000000000060648201526084016107ae565b6114878482611ae9565b6114918184611c38565b61149f600880546001019055565b836001600160a01b03167f40c10f19c047ae7dfa66d6312b683d2ea3dfbcb4159e96b967c5f4b0a86f2842826040516114da91815260200190565b60405180910390a29392505050565b6114f1611655565b6001600160a01b03811661156d5760405162461bcd60e51b815260206004820152602660248201527f4f776e61626c653a206e6577206f776e657220697320746865207a65726f206160448201527f646472657373000000000000000000000000000000000000000000000000000060648201526084016107ae565b610c91816118be565b6000818152600260205260409020546001600160a01b0316610c915760405162461bcd60e51b815260206004820152601860248201527f4552433732313a20696e76616c696420746f6b656e204944000000000000000060448201526064016107ae565b6000818152600460205260409020805473ffffffffffffffffffffffffffffffffffffffff19166001600160a01b038416908117909155819061161c82610dd7565b6001600160a01b03167f8c5be1e5ebec7d5bd14f71427d1e84f3dd0314c0f7b2291e5b200ac8c7c3b92560405160405180910390a45050565b6007546001600160a01b03163314610ee85760405162461bcd60e51b815260206004820181905260248201527f4f776e61626c653a2063616c6c6572206973206e6f7420746865206f776e657260448201526064016107ae565b6000806116bb83610dd7565b9050806001600160a01b0316846001600160a01b0316148061170257506001600160a01b0380821660009081526005602090815260408083209388168352929052205460ff165b806113015750836001600160a01b031661171b846106f6565b6001600160a01b031614949350505050565b611735611655565b6000611741600a611868565b9050601254811015801561175757506013548111155b6117c95760405162461bcd60e51b815260206004820152602360248201527f69734163746976653a204e6f742061742074686520737065636966696564207460448201527f696d65000000000000000000000000000000000000000000000000000000000060648201526084016107ae565b60006117d484610e3c565b601454909150156118565760145481106118565760405162461bcd60e51b815260206004820152603860248201527f5472616e736665723a546865206163636f756e7420686f6c64696e672068617360448201527f207265616368656420746865207570706572206c696d6974000000000000000060648201526084016107ae565b611861858585611ce1565b5050505050565b80546000901561187757505490565b5042919050565b61188781611ebb565b600081815260066020526040902080546118a09061272c565b159050610c91576000818152600660205260408120610c9191612237565b600780546001600160a01b0383811673ffffffffffffffffffffffffffffffffffffffff19831681179093556040519116919082907f8be0079c531659141344cd1fd0a4f28419497f9722a3daafe3b4186f6b6457e090600090a35050565b816001600160a01b0316836001600160a01b0316141561197f5760405162461bcd60e51b815260206004820152601960248201527f4552433732313a20617070726f766520746f2063616c6c65720000000000000060448201526064016107ae565b6001600160a01b03838116600081815260056020908152604080832094871680845294825291829020805460ff191686151590811790915591519182527f17307eab39ab6107e8899845ad3d59bd9653f200f220920489ca2b5937696c31910160405180910390a3505050565b6119f784848461172d565b611a0384848484611f63565b6111f25760405162461bcd60e51b815260206004820152603260248201527f4552433732313a207472616e7366657220746f206e6f6e20455243373231526560448201527f63656976657220696d706c656d656e746572000000000000000000000000000060648201526084016107ae565b6060611a8082611576565b6000611a9760408051602081019091526000815290565b90506000815111611ab75760405180602001604052806000815250611ae2565b80611ac184612105565b604051602001611ad2929190612838565b6040516020818303038152906040525b9392505050565b6001600160a01b038216611b3f5760405162461bcd60e51b815260206004820181905260248201527f4552433732313a206d696e7420746f20746865207a65726f206164647265737360448201526064016107ae565b6000818152600260205260409020546001600160a01b031615611ba45760405162461bcd60e51b815260206004820152601c60248201527f4552433732313a20746f6b656e20616c7265616479206d696e7465640000000060448201526064016107ae565b6001600160a01b0382166000908152600360205260408120805460019290611bcd9084906127d0565b9091555050600081815260026020526040808220805473ffffffffffffffffffffffffffffffffffffffff19166001600160a01b03861690811790915590518392907fddf252ad1be2c89b69c2b068fc378daa952ba7f163c4a11628f55a4df523b3ef908290a45050565b6000828152600260205260409020546001600160a01b0316611cc25760405162461bcd60e51b815260206004820152602e60248201527f45524337323155524953746f726167653a2055524920736574206f66206e6f6e60448201527f6578697374656e7420746f6b656e00000000000000000000000000000000000060648201526084016107ae565b6000828152600660209081526040909120825161084f92840190612271565b826001600160a01b0316611cf482610dd7565b6001600160a01b031614611d705760405162461bcd60e51b815260206004820152602560248201527f4552433732313a207472616e736665722066726f6d20696e636f72726563742060448201527f6f776e657200000000000000000000000000000000000000000000000000000060648201526084016107ae565b6001600160a01b038216611deb5760405162461bcd60e51b8152602060048201526024808201527f4552433732313a207472616e7366657220746f20746865207a65726f2061646460448201527f726573730000000000000000000000000000000000000000000000000000000060648201526084016107ae565b611df66000826115da565b6001600160a01b0383166000908152600360205260408120805460019290611e1f9084906127e8565b90915550506001600160a01b0382166000908152600360205260408120805460019290611e4d9084906127d0565b9091555050600081815260026020526040808220805473ffffffffffffffffffffffffffffffffffffffff19166001600160a01b0386811691821790925591518493918716917fddf252ad1be2c89b69c2b068fc378daa952ba7f163c4a11628f55a4df523b3ef91a4505050565b6000611ec682610dd7565b9050611ed36000836115da565b6001600160a01b0381166000908152600360205260408120805460019290611efc9084906127e8565b9091555050600082815260026020526040808220805473ffffffffffffffffffffffffffffffffffffffff19169055518391906001600160a01b038416907fddf252ad1be2c89b69c2b068fc378daa952ba7f163c4a11628f55a4df523b3ef908390a45050565b60006001600160a01b0384163b15611150576040517f150b7a020000000000000000000000000000000000000000000000000000000081526001600160a01b0385169063150b7a0290611fc0903390899088908890600401612867565b602060405180830381600087803b158015611fda57600080fd5b505af192505050801561200a575060408051601f3d908101601f19168201909252612007918101906128a3565b60015b6120ba573d808015612038576040519150601f19603f3d011682016040523d82523d6000602084013e61203d565b606091505b5080516120b25760405162461bcd60e51b815260206004820152603260248201527f4552433732313a207472616e7366657220746f206e6f6e20455243373231526560448201527f63656976657220696d706c656d656e746572000000000000000000000000000060648201526084016107ae565b805181602001fd5b7fffffffff00000000000000000000000000000000000000000000000000000000167f150b7a0200000000000000000000000000000000000000000000000000000000149050611301565b60608161214557505060408051808201909152600181527f3000000000000000000000000000000000000000000000000000000000000000602082015290565b8160005b811561216f5780612159816127ff565b91506121689050600a836128d6565b9150612149565b60008167ffffffffffffffff81111561218a5761218a6124e2565b6040519080825280601f01601f1916602001820160405280156121b4576020820181803683370190505b5090505b8415611301576121c96001836127e8565b91506121d6600a866128ea565b6121e19060306127d0565b60f81b8183815181106121f6576121f66128fe565b60200101907effffffffffffffffffffffffffffffffffffffffffffffffffffffffffffff1916908160001a905350612230600a866128d6565b94506121b8565b5080546122439061272c565b6000825580601f10612253575050565b601f016020900490600052602060002090810190610c9191906122f5565b82805461227d9061272c565b90600052602060002090601f01602090048101928261229f57600085556122e5565b82601f106122b857805160ff19168380011785556122e5565b828001600101855582156122e5579182015b828111156122e55782518255916020019190600101906122ca565b506122f19291506122f5565b5090565b5b808211156122f157600081556001016122f6565b7fffffffff0000000000000000000000000000000000000000000000000000000081168114610c9157600080fd5b60006020828403121561234a57600080fd5b8135611ae28161230a565b60005b83811015612370578181015183820152602001612358565b838111156111f25750506000910152565b60008151808452612399816020860160208601612355565b601f01601f19169290920160200192915050565b602081526000611ae26020830184612381565b6000602082840312156123d257600080fd5b5035919050565b6001600160a01b0381168114610c9157600080fd5b6000806040838503121561240157600080fd5b823561240c816123d9565b946020939093013593505050565b60008060006060848603121561242f57600080fd5b833561243a816123d9565b9250602084013561244a816123d9565b929592945050506040919091013590565b60006020828403121561246d57600080fd5b8135611ae2816123d9565b6000806040838503121561248b57600080fd5b50508035926020909101359150565b600080600080608085870312156124b057600080fd5b84356124bb816123d9565b93506020850135925060408501356124d2816123d9565b9396929550929360600135925050565b634e487b7160e01b600052604160045260246000fd5b600067ffffffffffffffff80841115612513576125136124e2565b604051601f8501601f19908116603f0116810190828211818310171561253b5761253b6124e2565b8160405280935085815286868601111561255457600080fd5b858560208301376000602087830101525050509392505050565b600082601f83011261257f57600080fd5b611ae2838335602085016124f8565b6000806000606084860312156125a357600080fd5b83356125ae816123d9565b9250602084013567ffffffffffffffff8111156125ca57600080fd5b6125d68682870161256e565b925050604084013590509250925092565b8015158114610c9157600080fd5b6000806040838503121561260857600080fd5b8235612613816123d9565b91506020830135612623816125e7565b809150509250929050565b6000806000806080858703121561264457600080fd5b843561264f816123d9565b9350602085013561265f816123d9565b925060408501359150606085013567ffffffffffffffff81111561268257600080fd5b8501601f8101871361269357600080fd5b6126a2878235602084016124f8565b91505092959194509250565b600080604083850312156126c157600080fd5b82356126cc816123d9565b9150602083013567ffffffffffffffff8111156126e857600080fd5b6126f48582860161256e565b9150509250929050565b6000806040838503121561271157600080fd5b823561271c816123d9565b91506020830135612623816123d9565b600181811c9082168061274057607f821691505b6020821081141561276157634e487b7160e01b600052602260045260246000fd5b50919050565b60006020828403121561277957600080fd5b5051919050565b60006020828403121561279257600080fd5b8151611ae2816123d9565b6000602082840312156127af57600080fd5b8151611ae2816125e7565b634e487b7160e01b600052601160045260246000fd5b600082198211156127e3576127e36127ba565b500190565b6000828210156127fa576127fa6127ba565b500390565b60007fffffffffffffffffffffffffffffffffffffffffffffffffffffffffffffffff821415612831576128316127ba565b5060010190565b6000835161284a818460208801612355565b83519083019061285e818360208801612355565b01949350505050565b60006001600160a01b038087168352808616602084015250836040830152608060608301526128996080830184612381565b9695505050505050565b6000602082840312156128b557600080fd5b8151611ae28161230a565b634e487b7160e01b600052601260045260246000fd5b6000826128e5576128e56128c0565b500490565b6000826128f9576128f96128c0565b500690565b634e487b7160e01b600052603260045260246000fdfea26469706673582212203e86f2cd7b43cdb8b61f289f511a076215f5467a0456d52b241c253415b1246164736f6c63430008090033",
  "deployedBytecode": "0x608060405234801561001057600080fd5b50600436106102c85760003560e01c80635d1b48b21161017b5780639ab6d0cf116100d8578063c9d1d7241161008c578063cf37834311610071578063cf3783431461051d578063e985e9c514610530578063f2fde38b1461056c57600080fd5b8063c9d1d72414610502578063cdc186c21461051557600080fd5b8063b88d4fde116100bd578063b88d4fde146104d4578063c87b56dd146104e7578063c995cf82146104fa57600080fd5b80639ab6d0cf146104ae578063a22cb465146104c157600080fd5b806389564be81161012f5780638f4e6f37116101145780638f4e6f371461048057806395d89b4114610493578063999434bc1461049b57600080fd5b806389564be8146104665780638da5cb5b1461046f57600080fd5b806370a082311161016057806370a0823114610438578063715018a61461044b5780637dda10021461045357600080fd5b80635d1b48b21461041d5780636352211e1461042557600080fd5b806329ee79791161022957806341dc9626116101dd57806342966c68116101c257806342966c68146103ef578063439f5ac2146104025780634f86a2ef1461040a57600080fd5b806341dc9626146103d457806342842e0e146103dc57600080fd5b80632f273a961161020e5780632f273a96146103bb5780633aa500f5146103c45780633b108d12146103cc57600080fd5b806329ee79791461039f5780632ddbd13a146103b257600080fd5b806312cec21f1161028057806323b872dd1161026557806323b872dd1461037c57806327115fd81461038f57806329cb924d1461039757600080fd5b806312cec21f1461035d578063162433561461037357600080fd5b8063081812fc116102b1578063081812fc1461030a578063095ea7b314610335578063097c74061461034a57600080fd5b806301ffc9a7146102cd57806306fdde03146102f5575b600080fd5b6102e06102db366004612338565b61057f565b60405190151581526020015b60405180910390f35b6102fd610664565b6040516102ec91906123ad565b61031d6103183660046123c0565b6106f6565b6040516001600160a01b0390911681526020016102ec565b6103486103433660046123ee565b61071d565b005b6103486103583660046123c0565b610854565b61036561089d565b6040519081526020016102ec565b61036560135481565b61034861038a36600461241a565b610942565b6103656109c9565b610365610a1d565b6103486103ad3660046123ee565b610a29565b61036560095481565b61036560125481565b610365610aa5565b61031d610af9565b610365610b99565b6103486103ea36600461241a565b610bed565b6103486103fd3660046123c0565b610c08565b601354610365565b6103486104183660046123c0565b610c94565b6102e0610d38565b61031d6104333660046123c0565b610dd7565b61036561044636600461245b565b610e3c565b610348610ed6565b610348610461366004612478565b610eea565b61036560145481565b6007546001600160a01b031661031d565b61034861048e36600461245b565b610f81565b6102fd610fb8565b6103486104a936600461249a565b610fc7565b6102e06104bc36600461258e565b611087565b6103486104cf3660046125f5565b61115b565b6103486104e236600461262e565b61116a565b6102fd6104f53660046123c0565b6111f8565b61031d611309565b6103486105103660046123c0565b61135d565b61031d61139a565b61036561052b3660046126ae565b6113ee565b6102e061053e3660046126fe565b6001600160a01b03918216600090815260056020908152604080832093909416825291909152205460ff1690565b61034861057a36600461245b565b6114e9565b60007fffffffff0000000000000000000000000000000000000000000000000000000082167f80ac58cd00000000000000000000000000000000000000000000000000000000148061061257507fffffffff0000000000000000000000000000000000000000000000000000000082167f5b5e139f00000000000000000000000000000000000000000000000000000000145b8061065e57507f01ffc9a7000000000000000000000000000000000000000000000000000000007fffffffff000000000000000000000000000000000000000000000000000000008316145b92915050565b6060600080546106739061272c565b80601f016020809104026020016040519081016040528092919081815260200182805461069f9061272c565b80156106ec5780601f106106c1576101008083540402835291602001916106ec565b820191906000526020600020905b8154815290600101906020018083116106cf57829003601f168201915b5050505050905090565b600061070182611576565b506000908152600460205260409020546001600160a01b031690565b600061072882610dd7565b9050806001600160a01b0316836001600160a01b031614156107b75760405162461bcd60e51b815260206004820152602160248201527f4552433732313a20617070726f76616c20746f2063757272656e74206f776e6560448201527f720000000000000000000000000000000000000000000000000000000000000060648201526084015b60405180910390fd5b336001600160a01b03821614806107d357506107d3813361053e565b6108455760405162461bcd60e51b815260206004820152603e60248201527f4552433732313a20617070726f76652063616c6c6572206973206e6f7420746f60448201527f6b656e206f776e6572206e6f7220617070726f76656420666f7220616c6c000060648201526084016107ae565b61084f83836115da565b505050565b61085c611655565b610866600a829055565b6040518181527f8e71b95180bc7c28aed93371acbc7a4da0e5fdb66d60d2c138fe13b5290a8da2906020015b60405180910390a150565b6040517f52eee774000000000000000000000000000000000000000000000000000000008152600d600482015260009073__$d6a191c3751785fb495749248e1f7eeb69$__906352eee774906024015b60206040518083038186803b15801561090557600080fd5b505af4158015610919573d6000803e3d6000fd5b505050506040513d601f19601f8201168201806040525081019061093d9190612767565b905090565b61094c33826116af565b6109be5760405162461bcd60e51b815260206004820152602e60248201527f4552433732313a2063616c6c6572206973206e6f7420746f6b656e206f776e6560448201527f72206e6f7220617070726f76656400000000000000000000000000000000000060648201526084016107ae565b61084f83838361172d565b6040517f9dc5d3e3000000000000000000000000000000000000000000000000000000008152600b600482015260009073__$d6a191c3751785fb495749248e1f7eeb69$__90639dc5d3e3906024016108ed565b600061093d600a611868565b610a31611655565b600b805473ffffffffffffffffffffffffffffffffffffffff19166001600160a01b038416179055600c819055604080516001600160a01b0384168152602081018390527fe6fefa8502e78684d621f7cd79f7064782fe85fbb8696d85d1831157e64e9b0d91015b60405180910390a15050565b6040517ff88bd2e6000000000000000000000000000000000000000000000000000000008152600d600482015260009073__$d6a191c3751785fb495749248e1f7eeb69$__9063f88bd2e6906024016108ed565b6040517fb28a6b5a000000000000000000000000000000000000000000000000000000008152600b600482015260009073__$d6a191c3751785fb495749248e1f7eeb69$__9063b28a6b5a906024015b60206040518083038186803b158015610b6157600080fd5b505af4158015610b75573d6000803e3d6000fd5b505050506040513d601f19601f8201168201806040525081019061093d9190612780565b6040517f691d76ef000000000000000000000000000000000000000000000000000000008152600d600482015260009073__$d6a191c3751785fb495749248e1f7eeb69$__9063691d76ef906024016108ed565b61084f8383836040518060200160405280600081525061116a565b6015546001600160a01b03163314610c885760405162461bcd60e51b815260206004820152602160248201527f6f6e6c79536574746c656d656e743a205065726d697373696f6e2064656e696560448201527f640000000000000000000000000000000000000000000000000000000000000060648201526084016107ae565b610c918161187e565b50565b610c9c611655565b600d5460ff1615610cef5760405162461bcd60e51b815260206004820152601260248201527f63616e6e6f74206265207265706561746564000000000000000000000000000060448201526064016107ae565b610d08600d82815460ff19166001178255600490910155565b6040518181527fda32d3220cbbd3f75c13672c4ca09f23ad567aafa3129708621f65985330eaaf90602001610892565b6040517f20efe87a000000000000000000000000000000000000000000000000000000008152600d600482015260009073__$d6a191c3751785fb495749248e1f7eeb69$__906320efe87a9060240160206040518083038186803b158015610d9f57600080fd5b505af4158015610db3573d6000803e3d6000fd5b505050506040513d601f19601f8201168201806040525081019061093d919061279d565b6000818152600260205260408120546001600160a01b03168061065e5760405162461bcd60e51b815260206004820152601860248201527f4552433732313a20696e76616c696420746f6b656e204944000000000000000060448201526064016107ae565b60006001600160a01b038216610eba5760405162461bcd60e51b815260206004820152602960248201527f4552433732313a2061646472657373207a65726f206973206e6f74206120766160448201527f6c6964206f776e6572000000000000000000000000000000000000000000000060648201526084016107ae565b506001600160a01b031660009081526003602052604090205490565b610ede611655565b610ee860006118be565b565b610ef2611655565b808210610f415760405162461bcd60e51b815260206004820152600c60248201527f696e76616c69642074696d65000000000000000000000000000000000000000060448201526064016107ae565b6012829055601381905560408051838152602081018390527fe7754d427fa48e0fd514e205afc1230e2f209449de580d195a0393471a841a109101610a99565b610f89611655565b6015805473ffffffffffffffffffffffffffffffffffffffff19166001600160a01b0392909216919091179055565b6060600180546106739061272c565b610fcf611655565b600d80547fffffffffffffffffffffff0000000000000000000000000000000000000000ff166101006001600160a01b0387811691820292909217909255600e859055600f805473ffffffffffffffffffffffffffffffffffffffff19169185169182179055601083905560408051928352602083018690528281019190915260608201839052517fa25d9c516a746a27e71e24e075febf64c33bad776135eb1566446a8e4532b5a09181900360800190a150505050565b6000611091611655565b6009546001836110a060085490565b6110aa91906127d0565b6110b491906127e8565b11156111285760405162461bcd60e51b815260206004820152602660248201527f55707065724c696d69743a20746865206c696d697420686173206265656e207260448201527f656163686564000000000000000000000000000000000000000000000000000060648201526084016107ae565b60005b828110156111505761113d85856113ee565b5080611148816127ff565b91505061112b565b506001949350505050565b61116633838361191d565b5050565b61117433836116af565b6111e65760405162461bcd60e51b815260206004820152602e60248201527f4552433732313a2063616c6c6572206973206e6f7420746f6b656e206f776e6560448201527f72206e6f7220617070726f76656400000000000000000000000000000000000060648201526084016107ae565b6111f2848484846119ec565b50505050565b606061120382611576565b6000828152600660205260408120805461121c9061272c565b80601f01602080910402602001604051908101604052809291908181526020018280546112489061272c565b80156112955780601f1061126a57610100808354040283529160200191611295565b820191906000526020600020905b81548152906001019060200180831161127857829003601f168201915b5050505050905060006112b360408051602081019091526000815290565b90508051600014156112c6575092915050565b8151156112f85780826040516020016112e0929190612838565b60405160208183030381529060405292505050919050565b61130184611a75565b949350505050565b6040517f88575b23000000000000000000000000000000000000000000000000000000008152600d600482015260009073__$d6a191c3751785fb495749248e1f7eeb69$__906388575b2390602401610b49565b611365611655565b60148190556040518181527faced56f82e5761c222bd79c5badff97dd1fd4657ca48391f2c675999949687ff90602001610892565b6040517fb5f91e71000000000000000000000000000000000000000000000000000000008152600d600482015260009073__$d6a191c3751785fb495749248e1f7eeb69$__9063b5f91e7190602401610b49565b60006113f8611655565b600061140360085490565b905060095481111561147d5760405162461bcd60e51b815260206004820152602660248201527f55707065724c696d69743a20746865206c696d697420686173206265656e207260448201527f656163686564000000000000000000000000000000000000000000000000000060648201526084016107ae565b6114878482611ae9565b6114918184611c38565b61149f600880546001019055565b836001600160a01b03167f40c10f19c047ae7dfa66d6312b683d2ea3dfbcb4159e96b967c5f4b0a86f2842826040516114da91815260200190565b60405180910390a29392505050565b6114f1611655565b6001600160a01b03811661156d5760405162461bcd60e51b815260206004820152602660248201527f4f776e61626c653a206e6577206f776e657220697320746865207a65726f206160448201527f646472657373000000000000000000000000000000000000000000000000000060648201526084016107ae565b610c91816118be565b6000818152600260205260409020546001600160a01b0316610c915760405162461bcd60e51b815260206004820152601860248201527f4552433732313a20696e76616c696420746f6b656e204944000000000000000060448201526064016107ae565b6000818152600460205260409020805473ffffffffffffffffffffffffffffffffffffffff19166001600160a01b038416908117909155819061161c82610dd7565b6001600160a01b03167f8c5be1e5ebec7d5bd14f71427d1e84f3dd0314c0f7b2291e5b200ac8c7c3b92560405160405180910390a45050565b6007546001600160a01b03163314610ee85760405162461bcd60e51b815260206004820181905260248201527f4f776e61626c653a2063616c6c6572206973206e6f7420746865206f776e657260448201526064016107ae565b6000806116bb83610dd7565b9050806001600160a01b0316846001600160a01b0316148061170257506001600160a01b0380821660009081526005602090815260408083209388168352929052205460ff165b806113015750836001600160a01b031661171b846106f6565b6001600160a01b031614949350505050565b611735611655565b6000611741600a611868565b9050601254811015801561175757506013548111155b6117c95760405162461bcd60e51b815260206004820152602360248201527f69734163746976653a204e6f742061742074686520737065636966696564207460448201527f696d65000000000000000000000000000000000000000000000000000000000060648201526084016107ae565b60006117d484610e3c565b601454909150156118565760145481106118565760405162461bcd60e51b815260206004820152603860248201527f5472616e736665723a546865206163636f756e7420686f6c64696e672068617360448201527f207265616368656420746865207570706572206c696d6974000000000000000060648201526084016107ae565b611861858585611ce1565b5050505050565b80546000901561187757505490565b5042919050565b61188781611ebb565b600081815260066020526040902080546118a09061272c565b159050610c91576000818152600660205260408120610c9191612237565b600780546001600160a01b0383811673ffffffffffffffffffffffffffffffffffffffff19831681179093556040519116919082907f8be0079c531659141344cd1fd0a4f28419497f9722a3daafe3b4186f6b6457e090600090a35050565b816001600160a01b0316836001600160a01b0316141561197f5760405162461bcd60e51b815260206004820152601960248201527f4552433732313a20617070726f766520746f2063616c6c65720000000000000060448201526064016107ae565b6001600160a01b03838116600081815260056020908152604080832094871680845294825291829020805460ff191686151590811790915591519182527f17307eab39ab6107e8899845ad3d59bd9653f200f220920489ca2b5937696c31910160405180910390a3505050565b6119f784848461172d565b611a0384848484611f63565b6111f25760405162461bcd60e51b815260206004820152603260248201527f4552433732313a207472616e7366657220746f206e6f6e20455243373231526560448201527f63656976657220696d706c656d656e746572000000000000000000000000000060648201526084016107ae565b6060611a8082611576565b6000611a9760408051602081019091526000815290565b90506000815111611ab75760405180602001604052806000815250611ae2565b80611ac184612105565b604051602001611ad2929190612838565b6040516020818303038152906040525b9392505050565b6001600160a01b038216611b3f5760405162461bcd60e51b815260206004820181905260248201527f4552433732313a206d696e7420746f20746865207a65726f206164647265737360448201526064016107ae565b6000818152600260205260409020546001600160a01b031615611ba45760405162461bcd60e51b815260206004820152601c60248201527f4552433732313a20746f6b656e20616c7265616479206d696e7465640000000060448201526064016107ae565b6001600160a01b0382166000908152600360205260408120805460019290611bcd9084906127d0565b9091555050600081815260026020526040808220805473ffffffffffffffffffffffffffffffffffffffff19166001600160a01b03861690811790915590518392907fddf252ad1be2c89b69c2b068fc378daa952ba7f163c4a11628f55a4df523b3ef908290a45050565b6000828152600260205260409020546001600160a01b0316611cc25760405162461bcd60e51b815260206004820152602e60248201527f45524337323155524953746f726167653a2055524920736574206f66206e6f6e60448201527f6578697374656e7420746f6b656e00000000000000000000000000000000000060648201526084016107ae565b6000828152600660209081526040909120825161084f92840190612271565b826001600160a01b0316611cf482610dd7565b6001600160a01b031614611d705760405162461bcd60e51b815260206004820152602560248201527f4552433732313a207472616e736665722066726f6d20696e636f72726563742060448201527f6f776e657200000000000000000000000000000000000000000000000000000060648201526084016107ae565b6001600160a01b038216611deb5760405162461bcd60e51b8152602060048201526024808201527f4552433732313a207472616e7366657220746f20746865207a65726f2061646460448201527f726573730000000000000000000000000000000000000000000000000000000060648201526084016107ae565b611df66000826115da565b6001600160a01b0383166000908152600360205260408120805460019290611e1f9084906127e8565b90915550506001600160a01b0382166000908152600360205260408120805460019290611e4d9084906127d0565b9091555050600081815260026020526040808220805473ffffffffffffffffffffffffffffffffffffffff19166001600160a01b0386811691821790925591518493918716917fddf252ad1be2c89b69c2b068fc378daa952ba7f163c4a11628f55a4df523b3ef91a4505050565b6000611ec682610dd7565b9050611ed36000836115da565b6001600160a01b0381166000908152600360205260408120805460019290611efc9084906127e8565b9091555050600082815260026020526040808220805473ffffffffffffffffffffffffffffffffffffffff19169055518391906001600160a01b038416907fddf252ad1be2c89b69c2b068fc378daa952ba7f163c4a11628f55a4df523b3ef908390a45050565b60006001600160a01b0384163b15611150576040517f150b7a020000000000000000000000000000000000000000000000000000000081526001600160a01b0385169063150b7a0290611fc0903390899088908890600401612867565b602060405180830381600087803b158015611fda57600080fd5b505af192505050801561200a575060408051601f3d908101601f19168201909252612007918101906128a3565b60015b6120ba573d808015612038576040519150601f19603f3d011682016040523d82523d6000602084013e61203d565b606091505b5080516120b25760405162461bcd60e51b815260206004820152603260248201527f4552433732313a207472616e7366657220746f206e6f6e20455243373231526560448201527f63656976657220696d706c656d656e746572000000000000000000000000000060648201526084016107ae565b805181602001fd5b7fffffffff00000000000000000000000000000000000000000000000000000000167f150b7a0200000000000000000000000000000000000000000000000000000000149050611301565b60608161214557505060408051808201909152600181527f3000000000000000000000000000000000000000000000000000000000000000602082015290565b8160005b811561216f5780612159816127ff565b91506121689050600a836128d6565b9150612149565b60008167ffffffffffffffff81111561218a5761218a6124e2565b6040519080825280601f01601f1916602001820160405280156121b4576020820181803683370190505b5090505b8415611301576121c96001836127e8565b91506121d6600a866128ea565b6121e19060306127d0565b60f81b8183815181106121f6576121f66128fe565b60200101907effffffffffffffffffffffffffffffffffffffffffffffffffffffffffffff1916908160001a905350612230600a866128d6565b94506121b8565b5080546122439061272c565b6000825580601f10612253575050565b601f016020900490600052602060002090810190610c9191906122f5565b82805461227d9061272c565b90600052602060002090601f01602090048101928261229f57600085556122e5565b82601f106122b857805160ff19168380011785556122e5565b828001600101855582156122e5579182015b828111156122e55782518255916020019190600101906122ca565b506122f19291506122f5565b5090565b5b808211156122f157600081556001016122f6565b7fffffffff0000000000000000000000000000000000000000000000000000000081168114610c9157600080fd5b60006020828403121561234a57600080fd5b8135611ae28161230a565b60005b83811015612370578181015183820152602001612358565b838111156111f25750506000910152565b60008151808452612399816020860160208601612355565b601f01601f19169290920160200192915050565b602081526000611ae26020830184612381565b6000602082840312156123d257600080fd5b5035919050565b6001600160a01b0381168114610c9157600080fd5b6000806040838503121561240157600080fd5b823561240c816123d9565b946020939093013593505050565b60008060006060848603121561242f57600080fd5b833561243a816123d9565b9250602084013561244a816123d9565b929592945050506040919091013590565b60006020828403121561246d57600080fd5b8135611ae2816123d9565b6000806040838503121561248b57600080fd5b50508035926020909101359150565b600080600080608085870312156124b057600080fd5b84356124bb816123d9565b93506020850135925060408501356124d2816123d9565b9396929550929360600135925050565b634e487b7160e01b600052604160045260246000fd5b600067ffffffffffffffff80841115612513576125136124e2565b604051601f8501601f19908116603f0116810190828211818310171561253b5761253b6124e2565b8160405280935085815286868601111561255457600080fd5b858560208301376000602087830101525050509392505050565b600082601f83011261257f57600080fd5b611ae2838335602085016124f8565b6000806000606084860312156125a357600080fd5b83356125ae816123d9565b9250602084013567ffffffffffffffff8111156125ca57600080fd5b6125d68682870161256e565b925050604084013590509250925092565b8015158114610c9157600080fd5b6000806040838503121561260857600080fd5b8235612613816123d9565b91506020830135612623816125e7565b809150509250929050565b6000806000806080858703121561264457600080fd5b843561264f816123d9565b9350602085013561265f816123d9565b925060408501359150606085013567ffffffffffffffff81111561268257600080fd5b8501601f8101871361269357600080fd5b6126a2878235602084016124f8565b91505092959194509250565b600080604083850312156126c157600080fd5b82356126cc816123d9565b9150602083013567ffffffffffffffff8111156126e857600080fd5b6126f48582860161256e565b9150509250929050565b6000806040838503121561271157600080fd5b823561271c816123d9565b91506020830135612623816123d9565b600181811c9082168061274057607f821691505b6020821081141561276157634e487b7160e01b600052602260045260246000fd5b50919050565b60006020828403121561277957600080fd5b5051919050565b60006020828403121561279257600080fd5b8151611ae2816123d9565b6000602082840312156127af57600080fd5b8151611ae2816125e7565b634e487b7160e01b600052601160045260246000fd5b600082198211156127e3576127e36127ba565b500190565b6000828210156127fa576127fa6127ba565b500390565b60007fffffffffffffffffffffffffffffffffffffffffffffffffffffffffffffffff821415612831576128316127ba565b5060010190565b6000835161284a818460208801612355565b83519083019061285e818360208801612355565b01949350505050565b60006001600160a01b038087168352808616602084015250836040830152608060608301526128996080830184612381565b9695505050505050565b6000602082840312156128b557600080fd5b8151611ae28161230a565b634e487b7160e01b600052601260045260246000fd5b6000826128e5576128e56128c0565b500490565b6000826128f9576128f96128c0565b500690565b634e487b7160e01b600052603260045260246000fdfea26469706673582212203e86f2cd7b43cdb8b61f289f511a076215f5467a0456d52b241c253415b1246164736f6c63430008090033",
  "libraries": {
    "Time": "0x5bf49f3bc04BeBE6BC84CCb8dA3F3bA1efc759F5",
    "Prize": "0x75Fb33D81A965fD02DD64fac4f0463e42A1ef856"
  },
  "devdoc": {
    "kind": "dev",
    "methods": {
      "approve(address,uint256)": {
        "details": "See {IERC721-approve}."
      },
      "balanceOf(address)": {
        "details": "See {IERC721-balanceOf}."
      },
      "getApproved(uint256)": {
        "details": "See {IERC721-getApproved}."
      },
      "isApprovedForAll(address,address)": {
        "details": "See {IERC721-isApprovedForAll}."
      },
      "name()": {
        "details": "See {IERC721Metadata-name}."
      },
      "owner()": {
        "details": "Returns the address of the current owner."
      },
      "ownerOf(uint256)": {
        "details": "See {IERC721-ownerOf}."
      },
      "renounceOwnership()": {
        "details": "Leaves the contract without owner. It will not be possible to call `onlyOwner` functions anymore. Can only be called by the current owner. NOTE: Renouncing ownership will leave the contract without an owner, thereby removing any functionality that is only available to the owner."
      },
      "safeTransferFrom(address,address,uint256)": {
        "details": "See {IERC721-safeTransferFrom}."
      },
      "safeTransferFrom(address,address,uint256,bytes)": {
        "details": "See {IERC721-safeTransferFrom}."
      },
      "setApprovalForAll(address,bool)": {
        "details": "See {IERC721-setApprovalForAll}."
      },
      "supportsInterface(bytes4)": {
        "details": "See {IERC165-supportsInterface}."
      },
      "symbol()": {
        "details": "See {IERC721Metadata-symbol}."
      },
      "tokenURI(uint256)": {
        "details": "See {IERC721Metadata-tokenURI}."
      },
      "transferFrom(address,address,uint256)": {
        "details": "See {IERC721-transferFrom}."
      },
      "transferOwnership(address)": {
        "details": "Transfers ownership of the contract to a new account (`newOwner`). Can only be called by the current owner."
      }
    },
    "version": 1
  },
  "userdoc": {
    "kind": "user",
    "methods": {},
    "version": 1
  },
  "storageLayout": {
    "storage": [
      {
        "astId": 3676,
        "contract": "contracts/Advertise/Advertise.sol:Advertise",
        "label": "_name",
        "offset": 0,
        "slot": "0",
        "type": "t_string_storage"
      },
      {
        "astId": 3678,
        "contract": "contracts/Advertise/Advertise.sol:Advertise",
        "label": "_symbol",
        "offset": 0,
        "slot": "1",
        "type": "t_string_storage"
      },
      {
        "astId": 3682,
        "contract": "contracts/Advertise/Advertise.sol:Advertise",
        "label": "_owners",
        "offset": 0,
        "slot": "2",
        "type": "t_mapping(t_uint256,t_address)"
      },
      {
        "astId": 3686,
        "contract": "contracts/Advertise/Advertise.sol:Advertise",
        "label": "_balances",
        "offset": 0,
        "slot": "3",
        "type": "t_mapping(t_address,t_uint256)"
      },
      {
        "astId": 3690,
        "contract": "contracts/Advertise/Advertise.sol:Advertise",
        "label": "_tokenApprovals",
        "offset": 0,
        "slot": "4",
        "type": "t_mapping(t_uint256,t_address)"
      },
      {
        "astId": 3696,
        "contract": "contracts/Advertise/Advertise.sol:Advertise",
        "label": "_operatorApprovals",
        "offset": 0,
        "slot": "5",
        "type": "t_mapping(t_address,t_mapping(t_address,t_bool))"
      },
      {
        "astId": 4664,
        "contract": "contracts/Advertise/Advertise.sol:Advertise",
        "label": "_tokenURIs",
        "offset": 0,
        "slot": "6",
        "type": "t_mapping(t_uint256,t_string_storage)"
      },
      {
        "astId": 2495,
        "contract": "contracts/Advertise/Advertise.sol:Advertise",
        "label": "_owner",
        "offset": 0,
        "slot": "7",
        "type": "t_address"
      },
      {
        "astId": 6467,
        "contract": "contracts/Advertise/Advertise.sol:Advertise",
        "label": "_tokenIds",
        "offset": 0,
        "slot": "8",
        "type": "t_struct(Counter)5126_storage"
      },
      {
        "astId": 6469,
        "contract": "contracts/Advertise/Advertise.sol:Advertise",
        "label": "total",
        "offset": 0,
        "slot": "9",
        "type": "t_uint256"
      },
      {
        "astId": 6041,
        "contract": "contracts/Advertise/Advertise.sol:Advertise",
        "label": "_timestamp",
        "offset": 0,
        "slot": "10",
        "type": "t_struct(Timestamp)7800_storage"
      },
      {
        "astId": 6048,
        "contract": "contracts/Advertise/Advertise.sol:Advertise",
        "label": "Universal",
        "offset": 0,
        "slot": "11",
        "type": "t_struct(Universal)7601_storage"
      },
      {
        "astId": 6055,
        "contract": "contracts/Advertise/Advertise.sol:Advertise",
        "label": "Surprise",
        "offset": 0,
        "slot": "13",
        "type": "t_struct(Surprise)7614_storage"
      },
      {
        "astId": 6057,
        "contract": "contracts/Advertise/Advertise.sol:Advertise",
        "label": "starting_time",
        "offset": 0,
        "slot": "18",
        "type": "t_uint256"
      },
      {
        "astId": 6059,
        "contract": "contracts/Advertise/Advertise.sol:Advertise",
        "label": "end_time",
        "offset": 0,
        "slot": "19",
        "type": "t_uint256"
      },
      {
        "astId": 6062,
        "contract": "contracts/Advertise/Advertise.sol:Advertise",
        "label": "cap_per_person",
        "offset": 0,
        "slot": "20",
        "type": "t_uint256"
      },
      {
        "astId": 6064,
        "contract": "contracts/Advertise/Advertise.sol:Advertise",
        "label": "settlement",
        "offset": 0,
        "slot": "21",
        "type": "t_address"
      }
    ],
    "types": {
      "t_address": {
        "encoding": "inplace",
        "label": "address",
        "numberOfBytes": "20"
      },
      "t_bool": {
        "encoding": "inplace",
        "label": "bool",
        "numberOfBytes": "1"
      },
      "t_mapping(t_address,t_bool)": {
        "encoding": "mapping",
        "key": "t_address",
        "label": "mapping(address => bool)",
        "numberOfBytes": "32",
        "value": "t_bool"
      },
      "t_mapping(t_address,t_mapping(t_address,t_bool))": {
        "encoding": "mapping",
        "key": "t_address",
        "label": "mapping(address => mapping(address => bool))",
        "numberOfBytes": "32",
        "value": "t_mapping(t_address,t_bool)"
      },
      "t_mapping(t_address,t_uint256)": {
        "encoding": "mapping",
        "key": "t_address",
        "label": "mapping(address => uint256)",
        "numberOfBytes": "32",
        "value": "t_uint256"
      },
      "t_mapping(t_uint256,t_address)": {
        "encoding": "mapping",
        "key": "t_uint256",
        "label": "mapping(uint256 => address)",
        "numberOfBytes": "32",
        "value": "t_address"
      },
      "t_mapping(t_uint256,t_string_storage)": {
        "encoding": "mapping",
        "key": "t_uint256",
        "label": "mapping(uint256 => string)",
        "numberOfBytes": "32",
        "value": "t_string_storage"
      },
      "t_string_storage": {
        "encoding": "bytes",
        "label": "string",
        "numberOfBytes": "32"
      },
      "t_struct(Counter)5126_storage": {
        "encoding": "inplace",
        "label": "struct Counters.Counter",
        "members": [
          {
            "astId": 5125,
            "contract": "contracts/Advertise/Advertise.sol:Advertise",
            "label": "_value",
            "offset": 0,
            "slot": "0",
            "type": "t_uint256"
          }
        ],
        "numberOfBytes": "32"
      },
      "t_struct(Surprise)7614_storage": {
        "encoding": "inplace",
        "label": "struct Prize.Surprise",
        "members": [
          {
            "astId": 7603,
            "contract": "contracts/Advertise/Advertise.sol:Advertise",
            "label": "is_revealed",
            "offset": 0,
            "slot": "0",
            "type": "t_bool"
          },
          {
            "astId": 7605,
            "contract": "contracts/Advertise/Advertise.sol:Advertise",
            "label": "token",
            "offset": 1,
            "slot": "0",
            "type": "t_address"
          },
          {
            "astId": 7607,
            "contract": "contracts/Advertise/Advertise.sol:Advertise",
            "label": "amount",
            "offset": 0,
            "slot": "1",
            "type": "t_uint256"
          },
          {
            "astId": 7609,
            "contract": "contracts/Advertise/Advertise.sol:Advertise",
            "label": "nft_token",
            "offset": 0,
            "slot": "2",
            "type": "t_address"
          },
          {
            "astId": 7611,
            "contract": "contracts/Advertise/Advertise.sol:Advertise",
            "label": "nft_token_id",
            "offset": 0,
            "slot": "3",
            "type": "t_uint256"
          },
          {
            "astId": 7613,
            "contract": "contracts/Advertise/Advertise.sol:Advertise",
            "label": "surprise_id",
            "offset": 0,
            "slot": "4",
            "type": "t_uint256"
          }
        ],
        "numberOfBytes": "160"
      },
      "t_struct(Timestamp)7800_storage": {
        "encoding": "inplace",
        "label": "struct Time.Timestamp",
        "members": [
          {
            "astId": 7799,
            "contract": "contracts/Advertise/Advertise.sol:Advertise",
            "label": "_current_time",
            "offset": 0,
            "slot": "0",
            "type": "t_uint256"
          }
        ],
        "numberOfBytes": "32"
      },
      "t_struct(Universal)7601_storage": {
        "encoding": "inplace",
        "label": "struct Prize.Universal",
        "members": [
          {
            "astId": 7598,
            "contract": "contracts/Advertise/Advertise.sol:Advertise",
            "label": "token",
            "offset": 0,
            "slot": "0",
            "type": "t_address"
          },
          {
            "astId": 7600,
            "contract": "contracts/Advertise/Advertise.sol:Advertise",
            "label": "amount",
            "offset": 0,
            "slot": "1",
            "type": "t_uint256"
          }
        ],
        "numberOfBytes": "64"
      },
      "t_uint256": {
        "encoding": "inplace",
        "label": "uint256",
        "numberOfBytes": "32"
      }
    }
  }
}